{
	"contracts/SCaccesscontrol/CarParts_ManufacturerRole.sol": {
		"CarParts_ManufacturerRole": {
			"abi": [
				{
					"constant": false,
					"inputs": [
						{
							"name": "account",
							"type": "address"
						}
					],
					"name": "addCarParts_Manufacturer",
					"outputs": [],
					"payable": false,
					"stateMutability": "nonpayable",
					"type": "function"
				},
				{
					"constant": true,
					"inputs": [
						{
							"name": "account",
							"type": "address"
						}
					],
					"name": "isCarParts_Manufacturer",
					"outputs": [
						{
							"name": "",
							"type": "bool"
						}
					],
					"payable": false,
					"stateMutability": "view",
					"type": "function"
				},
				{
					"constant": false,
					"inputs": [],
					"name": "renounceCarParts_Manufacturer",
					"outputs": [],
					"payable": false,
					"stateMutability": "nonpayable",
					"type": "function"
				},
				{
					"inputs": [],
					"payable": false,
					"stateMutability": "nonpayable",
					"type": "constructor"
				},
				{
					"anonymous": false,
					"inputs": [
						{
							"indexed": true,
							"name": "account",
							"type": "address"
						}
					],
					"name": "CarParts_ManufacturerAdded",
					"type": "event"
				},
				{
					"anonymous": false,
					"inputs": [
						{
							"indexed": true,
							"name": "account",
							"type": "address"
						}
					],
					"name": "CarParts_ManufacturerRemoved",
					"type": "event"
				}
			],
			"devdoc": {
				"methods": {}
			},
			"evm": {
				"assembly": "    /* \"contracts/SCaccesscontrol/CarParts_ManufacturerRole.sol\":176:2120  contract CarParts_ManufacturerRole {\r... */\n  mstore(0x40, 0x80)\n    /* \"contracts/SCaccesscontrol/CarParts_ManufacturerRole.sol\":681:752  constructor() public {\r... */\n  callvalue\n    /* \"--CODEGEN--\":8:17   */\n  dup1\n    /* \"--CODEGEN--\":5:7   */\n  iszero\n  tag_1\n  jumpi\n    /* \"--CODEGEN--\":30:31   */\n  0x0\n    /* \"--CODEGEN--\":27:28   */\n  dup1\n    /* \"--CODEGEN--\":20:32   */\n  revert\n    /* \"--CODEGEN--\":5:7   */\ntag_1:\n    /* \"contracts/SCaccesscontrol/CarParts_ManufacturerRole.sol\":681:752  constructor() public {\r... */\n  pop\n    /* \"contracts/SCaccesscontrol/CarParts_ManufacturerRole.sol\":709:746  _addCarParts_Manufacturer(msg.sender) */\n  tag_4\n    /* \"contracts/SCaccesscontrol/CarParts_ManufacturerRole.sol\":735:745  msg.sender */\n  caller\n    /* \"contracts/SCaccesscontrol/CarParts_ManufacturerRole.sol\":709:734  _addCarParts_Manufacturer */\n  mul(0x100000000, tag_5)\n    /* \"contracts/SCaccesscontrol/CarParts_ManufacturerRole.sol\":709:746  _addCarParts_Manufacturer(msg.sender) */\n  0x100000000\n  swap1\n  div\n  jump\t// in\ntag_4:\n    /* \"contracts/SCaccesscontrol/CarParts_ManufacturerRole.sol\":176:2120  contract CarParts_ManufacturerRole {\r... */\n  jump(tag_6)\n    /* \"contracts/SCaccesscontrol/CarParts_ManufacturerRole.sol\":1665:1821  function _addCarParts_Manufacturer(address account) internal {\r... */\ntag_5:\n    /* \"contracts/SCaccesscontrol/CarParts_ManufacturerRole.sol\":1733:1768  carParts_Manufacturers.add(account) */\n  tag_8\n    /* \"contracts/SCaccesscontrol/CarParts_ManufacturerRole.sol\":1760:1767  account */\n  dup2\n    /* \"contracts/SCaccesscontrol/CarParts_ManufacturerRole.sol\":1733:1755  carParts_Manufacturers */\n  0x0\n    /* \"contracts/SCaccesscontrol/CarParts_ManufacturerRole.sol\":1733:1759  carParts_Manufacturers.add */\n  or(tag_0_30, mul(0x100000000, tag_9))\n  swap1\n    /* \"contracts/SCaccesscontrol/CarParts_ManufacturerRole.sol\":1733:1768  carParts_Manufacturers.add(account) */\n  swap2\n  swap1\n  0x100000000\n  swap1\n  div\n  jump\t// in\ntag_8:\n    /* \"contracts/SCaccesscontrol/CarParts_ManufacturerRole.sol\":1807:1814  account */\n  dup1\n    /* \"contracts/SCaccesscontrol/CarParts_ManufacturerRole.sol\":1780:1815  CarParts_ManufacturerAdded(account) */\n  0xffffffffffffffffffffffffffffffffffffffff\n  and\n  0xc17db36ff5b6d3d05d63c4d52dc5df431b9763a912ce99d8847bc7bdb4589d2d\n  mload(0x40)\n  mload(0x40)\n  dup1\n  swap2\n  sub\n  swap1\n  log2\n    /* \"contracts/SCaccesscontrol/CarParts_ManufacturerRole.sol\":1665:1821  function _addCarParts_Manufacturer(address account) internal {\r... */\n  pop\n  jump\t// out\n    /* \"contracts/SCaccesscontrol/Roles.sol\":259:431  function add(Role storage role, address account) internal {\r... */\ntag_9:\n    /* \"contracts/SCaccesscontrol/Roles.sol\":351:352  0 */\n  0x0\n    /* \"contracts/SCaccesscontrol/Roles.sol\":332:353  account != address(0) */\n  0xffffffffffffffffffffffffffffffffffffffff\n  and\n    /* \"contracts/SCaccesscontrol/Roles.sol\":332:339  account */\n  dup2\n    /* \"contracts/SCaccesscontrol/Roles.sol\":332:353  account != address(0) */\n  0xffffffffffffffffffffffffffffffffffffffff\n  and\n  eq\n  iszero\n    /* \"contracts/SCaccesscontrol/Roles.sol\":324:354  require(account != address(0)) */\n  iszero\n  iszero\n  tag_11\n  jumpi\n  0x0\n  dup1\n  revert\ntag_11:\n    /* \"contracts/SCaccesscontrol/Roles.sol\":370:388  has(role, account) */\n  tag_12\n    /* \"contracts/SCaccesscontrol/Roles.sol\":374:378  role */\n  dup3\n    /* \"contracts/SCaccesscontrol/Roles.sol\":380:387  account */\n  dup3\n    /* \"contracts/SCaccesscontrol/Roles.sol\":370:373  has */\n  mul(0x100000000, tag_13)\n    /* \"contracts/SCaccesscontrol/Roles.sol\":370:388  has(role, account) */\n  0x100000000\n  swap1\n  div\n  jump\t// in\ntag_12:\n    /* \"contracts/SCaccesscontrol/Roles.sol\":369:388  !has(role, account) */\n  iszero\n    /* \"contracts/SCaccesscontrol/Roles.sol\":361:389  require(!has(role, account)) */\n  iszero\n  iszero\n  tag_14\n  jumpi\n  0x0\n  dup1\n  revert\ntag_14:\n    /* \"contracts/SCaccesscontrol/Roles.sol\":421:425  true */\n  0x1\n    /* \"contracts/SCaccesscontrol/Roles.sol\":398:402  role */\n  dup3\n    /* \"contracts/SCaccesscontrol/Roles.sol\":398:409  role.bearer */\n  0x0\n  add\n    /* \"contracts/SCaccesscontrol/Roles.sol\":398:418  role.bearer[account] */\n  0x0\n    /* \"contracts/SCaccesscontrol/Roles.sol\":410:417  account */\n  dup4\n    /* \"contracts/SCaccesscontrol/Roles.sol\":398:418  role.bearer[account] */\n  0xffffffffffffffffffffffffffffffffffffffff\n  and\n  0xffffffffffffffffffffffffffffffffffffffff\n  and\n  dup2\n  mstore\n  0x20\n  add\n  swap1\n  dup2\n  mstore\n  0x20\n  add\n  0x0\n  keccak256\n  0x0\n    /* \"contracts/SCaccesscontrol/Roles.sol\":398:425  role.bearer[account] = true */\n  0x100\n  exp\n  dup2\n  sload\n  dup2\n  0xff\n  mul\n  not\n  and\n  swap1\n  dup4\n  iszero\n  iszero\n  mul\n  or\n  swap1\n  sstore\n  pop\n    /* \"contracts/SCaccesscontrol/Roles.sol\":259:431  function add(Role storage role, address account) internal {\r... */\n  pop\n  pop\n  jump\t// out\n    /* \"contracts/SCaccesscontrol/Roles.sol\":761:934  function has(Role storage role, address account)\r... */\ntag_13:\n    /* \"contracts/SCaccesscontrol/Roles.sol\":848:852  bool */\n  0x0\n    /* \"contracts/SCaccesscontrol/Roles.sol\":891:892  0 */\n  dup1\n    /* \"contracts/SCaccesscontrol/Roles.sol\":872:893  account != address(0) */\n  0xffffffffffffffffffffffffffffffffffffffff\n  and\n    /* \"contracts/SCaccesscontrol/Roles.sol\":872:879  account */\n  dup3\n    /* \"contracts/SCaccesscontrol/Roles.sol\":872:893  account != address(0) */\n  0xffffffffffffffffffffffffffffffffffffffff\n  and\n  eq\n  iszero\n    /* \"contracts/SCaccesscontrol/Roles.sol\":864:894  require(account != address(0)) */\n  iszero\n  iszero\n  tag_16\n  jumpi\n  0x0\n  dup1\n  revert\ntag_16:\n    /* \"contracts/SCaccesscontrol/Roles.sol\":908:912  role */\n  dup3\n    /* \"contracts/SCaccesscontrol/Roles.sol\":908:919  role.bearer */\n  0x0\n  add\n    /* \"contracts/SCaccesscontrol/Roles.sol\":908:928  role.bearer[account] */\n  0x0\n    /* \"contracts/SCaccesscontrol/Roles.sol\":920:927  account */\n  dup4\n    /* \"contracts/SCaccesscontrol/Roles.sol\":908:928  role.bearer[account] */\n  0xffffffffffffffffffffffffffffffffffffffff\n  and\n  0xffffffffffffffffffffffffffffffffffffffff\n  and\n  dup2\n  mstore\n  0x20\n  add\n  swap1\n  dup2\n  mstore\n  0x20\n  add\n  0x0\n  keccak256\n  0x0\n  swap1\n  sload\n  swap1\n  0x100\n  exp\n  swap1\n  div\n  0xff\n  and\n    /* \"contracts/SCaccesscontrol/Roles.sol\":901:928  return role.bearer[account] */\n  swap1\n  pop\n    /* \"contracts/SCaccesscontrol/Roles.sol\":761:934  function has(Role storage role, address account)\r... */\n  swap3\n  swap2\n  pop\n  pop\n  jump\t// out\n    /* \"contracts/SCaccesscontrol/CarParts_ManufacturerRole.sol\":176:2120  contract CarParts_ManufacturerRole {\r... */\ntag_6:\n  dataSize(sub_0)\n  dup1\n  dataOffset(sub_0)\n  0x0\n  codecopy\n  0x0\n  return\nstop\n\nsub_0: assembly {\n        /* \"contracts/SCaccesscontrol/CarParts_ManufacturerRole.sol\":176:2120  contract CarParts_ManufacturerRole {\r... */\n      mstore(0x40, 0x80)\n      jumpi(tag_1, lt(calldatasize, 0x4))\n      calldataload(0x0)\n      0x100000000000000000000000000000000000000000000000000000000\n      swap1\n      div\n      0xffffffff\n      and\n      dup1\n      0x40b74c38\n      eq\n      tag_2\n      jumpi\n      dup1\n      0xc7ef882c\n      eq\n      tag_3\n      jumpi\n      dup1\n      0xffeb4d33\n      eq\n      tag_4\n      jumpi\n    tag_1:\n      0x0\n      dup1\n      revert\n        /* \"contracts/SCaccesscontrol/CarParts_ManufacturerRole.sol\":1226:1357  function addCarParts_Manufacturer(address account) public onlyCarParts_Manufacturer {\r... */\n    tag_2:\n      callvalue\n        /* \"--CODEGEN--\":8:17   */\n      dup1\n        /* \"--CODEGEN--\":5:7   */\n      iszero\n      tag_5\n      jumpi\n        /* \"--CODEGEN--\":30:31   */\n      0x0\n        /* \"--CODEGEN--\":27:28   */\n      dup1\n        /* \"--CODEGEN--\":20:32   */\n      revert\n        /* \"--CODEGEN--\":5:7   */\n    tag_5:\n        /* \"contracts/SCaccesscontrol/CarParts_ManufacturerRole.sol\":1226:1357  function addCarParts_Manufacturer(address account) public onlyCarParts_Manufacturer {\r... */\n      pop\n      tag_6\n      0x4\n      dup1\n      calldatasize\n      sub\n        /* \"--CODEGEN--\":13:15   */\n      0x20\n        /* \"--CODEGEN--\":8:11   */\n      dup2\n        /* \"--CODEGEN--\":5:16   */\n      lt\n        /* \"--CODEGEN--\":2:4   */\n      iszero\n      tag_7\n      jumpi\n        /* \"--CODEGEN--\":29:30   */\n      0x0\n        /* \"--CODEGEN--\":26:27   */\n      dup1\n        /* \"--CODEGEN--\":19:31   */\n      revert\n        /* \"--CODEGEN--\":2:4   */\n    tag_7:\n        /* \"contracts/SCaccesscontrol/CarParts_ManufacturerRole.sol\":1226:1357  function addCarParts_Manufacturer(address account) public onlyCarParts_Manufacturer {\r... */\n      dup2\n      add\n      swap1\n      dup1\n      dup1\n      calldataload\n      0xffffffffffffffffffffffffffffffffffffffff\n      and\n      swap1\n      0x20\n      add\n      swap1\n      swap3\n      swap2\n      swap1\n      pop\n      pop\n      pop\n      jump(tag_8)\n    tag_6:\n      stop\n        /* \"contracts/SCaccesscontrol/CarParts_ManufacturerRole.sol\":1017:1149  function isCarParts_Manufacturer(address account) public view returns (bool) {\r... */\n    tag_3:\n      callvalue\n        /* \"--CODEGEN--\":8:17   */\n      dup1\n        /* \"--CODEGEN--\":5:7   */\n      iszero\n      tag_9\n      jumpi\n        /* \"--CODEGEN--\":30:31   */\n      0x0\n        /* \"--CODEGEN--\":27:28   */\n      dup1\n        /* \"--CODEGEN--\":20:32   */\n      revert\n        /* \"--CODEGEN--\":5:7   */\n    tag_9:\n        /* \"contracts/SCaccesscontrol/CarParts_ManufacturerRole.sol\":1017:1149  function isCarParts_Manufacturer(address account) public view returns (bool) {\r... */\n      pop\n      tag_10\n      0x4\n      dup1\n      calldatasize\n      sub\n        /* \"--CODEGEN--\":13:15   */\n      0x20\n        /* \"--CODEGEN--\":8:11   */\n      dup2\n        /* \"--CODEGEN--\":5:16   */\n      lt\n        /* \"--CODEGEN--\":2:4   */\n      iszero\n      tag_11\n      jumpi\n        /* \"--CODEGEN--\":29:30   */\n      0x0\n        /* \"--CODEGEN--\":26:27   */\n      dup1\n        /* \"--CODEGEN--\":19:31   */\n      revert\n        /* \"--CODEGEN--\":2:4   */\n    tag_11:\n        /* \"contracts/SCaccesscontrol/CarParts_ManufacturerRole.sol\":1017:1149  function isCarParts_Manufacturer(address account) public view returns (bool) {\r... */\n      dup2\n      add\n      swap1\n      dup1\n      dup1\n      calldataload\n      0xffffffffffffffffffffffffffffffffffffffff\n      and\n      swap1\n      0x20\n      add\n      swap1\n      swap3\n      swap2\n      swap1\n      pop\n      pop\n      pop\n      jump(tag_12)\n    tag_10:\n      mload(0x40)\n      dup1\n      dup3\n      iszero\n      iszero\n      iszero\n      iszero\n      dup2\n      mstore\n      0x20\n      add\n      swap2\n      pop\n      pop\n      mload(0x40)\n      dup1\n      swap2\n      sub\n      swap1\n      return\n        /* \"contracts/SCaccesscontrol/CarParts_ManufacturerRole.sol\":1441:1542  function renounceCarParts_Manufacturer() public {\r... */\n    tag_4:\n      callvalue\n        /* \"--CODEGEN--\":8:17   */\n      dup1\n        /* \"--CODEGEN--\":5:7   */\n      iszero\n      tag_13\n      jumpi\n        /* \"--CODEGEN--\":30:31   */\n      0x0\n        /* \"--CODEGEN--\":27:28   */\n      dup1\n        /* \"--CODEGEN--\":20:32   */\n      revert\n        /* \"--CODEGEN--\":5:7   */\n    tag_13:\n        /* \"contracts/SCaccesscontrol/CarParts_ManufacturerRole.sol\":1441:1542  function renounceCarParts_Manufacturer() public {\r... */\n      pop\n      tag_14\n      jump(tag_15)\n    tag_14:\n      stop\n        /* \"contracts/SCaccesscontrol/CarParts_ManufacturerRole.sol\":1226:1357  function addCarParts_Manufacturer(address account) public onlyCarParts_Manufacturer {\r... */\n    tag_8:\n        /* \"contracts/SCaccesscontrol/CarParts_ManufacturerRole.sol\":892:927  isCarParts_Manufacturer(msg.sender) */\n      tag_17\n        /* \"contracts/SCaccesscontrol/CarParts_ManufacturerRole.sol\":916:926  msg.sender */\n      caller\n        /* \"contracts/SCaccesscontrol/CarParts_ManufacturerRole.sol\":892:915  isCarParts_Manufacturer */\n      tag_12\n        /* \"contracts/SCaccesscontrol/CarParts_ManufacturerRole.sol\":892:927  isCarParts_Manufacturer(msg.sender) */\n      jump\t// in\n    tag_17:\n        /* \"contracts/SCaccesscontrol/CarParts_ManufacturerRole.sol\":884:928  require(isCarParts_Manufacturer(msg.sender)) */\n      iszero\n      iszero\n      tag_18\n      jumpi\n      0x0\n      dup1\n      revert\n    tag_18:\n        /* \"contracts/SCaccesscontrol/CarParts_ManufacturerRole.sol\":1317:1351  _addCarParts_Manufacturer(account) */\n      tag_20\n        /* \"contracts/SCaccesscontrol/CarParts_ManufacturerRole.sol\":1343:1350  account */\n      dup2\n        /* \"contracts/SCaccesscontrol/CarParts_ManufacturerRole.sol\":1317:1342  _addCarParts_Manufacturer */\n      tag_21\n        /* \"contracts/SCaccesscontrol/CarParts_ManufacturerRole.sol\":1317:1351  _addCarParts_Manufacturer(account) */\n      jump\t// in\n    tag_20:\n        /* \"contracts/SCaccesscontrol/CarParts_ManufacturerRole.sol\":1226:1357  function addCarParts_Manufacturer(address account) public onlyCarParts_Manufacturer {\r... */\n      pop\n      jump\t// out\n        /* \"contracts/SCaccesscontrol/CarParts_ManufacturerRole.sol\":1017:1149  function isCarParts_Manufacturer(address account) public view returns (bool) {\r... */\n    tag_12:\n        /* \"contracts/SCaccesscontrol/CarParts_ManufacturerRole.sol\":1088:1092  bool */\n      0x0\n        /* \"contracts/SCaccesscontrol/CarParts_ManufacturerRole.sol\":1108:1143  carParts_Manufacturers.has(account) */\n      tag_23\n        /* \"contracts/SCaccesscontrol/CarParts_ManufacturerRole.sol\":1135:1142  account */\n      dup3\n        /* \"contracts/SCaccesscontrol/CarParts_ManufacturerRole.sol\":1108:1130  carParts_Manufacturers */\n      0x0\n        /* \"contracts/SCaccesscontrol/CarParts_ManufacturerRole.sol\":1108:1134  carParts_Manufacturers.has */\n      tag_24\n      swap1\n        /* \"contracts/SCaccesscontrol/CarParts_ManufacturerRole.sol\":1108:1143  carParts_Manufacturers.has(account) */\n      swap2\n      swap1\n      0xffffffff\n      and\n      jump\t// in\n    tag_23:\n        /* \"contracts/SCaccesscontrol/CarParts_ManufacturerRole.sol\":1101:1143  return carParts_Manufacturers.has(account) */\n      swap1\n      pop\n        /* \"contracts/SCaccesscontrol/CarParts_ManufacturerRole.sol\":1017:1149  function isCarParts_Manufacturer(address account) public view returns (bool) {\r... */\n      swap2\n      swap1\n      pop\n      jump\t// out\n        /* \"contracts/SCaccesscontrol/CarParts_ManufacturerRole.sol\":1441:1542  function renounceCarParts_Manufacturer() public {\r... */\n    tag_15:\n        /* \"contracts/SCaccesscontrol/CarParts_ManufacturerRole.sol\":1496:1536  _removeCarParts_Manufacturer(msg.sender) */\n      tag_26\n        /* \"contracts/SCaccesscontrol/CarParts_ManufacturerRole.sol\":1525:1535  msg.sender */\n      caller\n        /* \"contracts/SCaccesscontrol/CarParts_ManufacturerRole.sol\":1496:1524  _removeCarParts_Manufacturer */\n      tag_27\n        /* \"contracts/SCaccesscontrol/CarParts_ManufacturerRole.sol\":1496:1536  _removeCarParts_Manufacturer(msg.sender) */\n      jump\t// in\n    tag_26:\n        /* \"contracts/SCaccesscontrol/CarParts_ManufacturerRole.sol\":1441:1542  function renounceCarParts_Manufacturer() public {\r... */\n      jump\t// out\n        /* \"contracts/SCaccesscontrol/CarParts_ManufacturerRole.sol\":1665:1821  function _addCarParts_Manufacturer(address account) internal {\r... */\n    tag_21:\n        /* \"contracts/SCaccesscontrol/CarParts_ManufacturerRole.sol\":1733:1768  carParts_Manufacturers.add(account) */\n      tag_29\n        /* \"contracts/SCaccesscontrol/CarParts_ManufacturerRole.sol\":1760:1767  account */\n      dup2\n        /* \"contracts/SCaccesscontrol/CarParts_ManufacturerRole.sol\":1733:1755  carParts_Manufacturers */\n      0x0\n        /* \"contracts/SCaccesscontrol/CarParts_ManufacturerRole.sol\":1733:1759  carParts_Manufacturers.add */\n      tag_30\n      swap1\n        /* \"contracts/SCaccesscontrol/CarParts_ManufacturerRole.sol\":1733:1768  carParts_Manufacturers.add(account) */\n      swap2\n      swap1\n      0xffffffff\n      and\n      jump\t// in\n    tag_29:\n        /* \"contracts/SCaccesscontrol/CarParts_ManufacturerRole.sol\":1807:1814  account */\n      dup1\n        /* \"contracts/SCaccesscontrol/CarParts_ManufacturerRole.sol\":1780:1815  CarParts_ManufacturerAdded(account) */\n      0xffffffffffffffffffffffffffffffffffffffff\n      and\n      0xc17db36ff5b6d3d05d63c4d52dc5df431b9763a912ce99d8847bc7bdb4589d2d\n      mload(0x40)\n      mload(0x40)\n      dup1\n      swap2\n      sub\n      swap1\n      log2\n        /* \"contracts/SCaccesscontrol/CarParts_ManufacturerRole.sol\":1665:1821  function _addCarParts_Manufacturer(address account) internal {\r... */\n      pop\n      jump\t// out\n        /* \"contracts/SCaccesscontrol/Roles.sol\":761:934  function has(Role storage role, address account)\r... */\n    tag_24:\n        /* \"contracts/SCaccesscontrol/Roles.sol\":848:852  bool */\n      0x0\n        /* \"contracts/SCaccesscontrol/Roles.sol\":891:892  0 */\n      dup1\n        /* \"contracts/SCaccesscontrol/Roles.sol\":872:893  account != address(0) */\n      0xffffffffffffffffffffffffffffffffffffffff\n      and\n        /* \"contracts/SCaccesscontrol/Roles.sol\":872:879  account */\n      dup3\n        /* \"contracts/SCaccesscontrol/Roles.sol\":872:893  account != address(0) */\n      0xffffffffffffffffffffffffffffffffffffffff\n      and\n      eq\n      iszero\n        /* \"contracts/SCaccesscontrol/Roles.sol\":864:894  require(account != address(0)) */\n      iszero\n      iszero\n      tag_32\n      jumpi\n      0x0\n      dup1\n      revert\n    tag_32:\n        /* \"contracts/SCaccesscontrol/Roles.sol\":908:912  role */\n      dup3\n        /* \"contracts/SCaccesscontrol/Roles.sol\":908:919  role.bearer */\n      0x0\n      add\n        /* \"contracts/SCaccesscontrol/Roles.sol\":908:928  role.bearer[account] */\n      0x0\n        /* \"contracts/SCaccesscontrol/Roles.sol\":920:927  account */\n      dup4\n        /* \"contracts/SCaccesscontrol/Roles.sol\":908:928  role.bearer[account] */\n      0xffffffffffffffffffffffffffffffffffffffff\n      and\n      0xffffffffffffffffffffffffffffffffffffffff\n      and\n      dup2\n      mstore\n      0x20\n      add\n      swap1\n      dup2\n      mstore\n      0x20\n      add\n      0x0\n      keccak256\n      0x0\n      swap1\n      sload\n      swap1\n      0x100\n      exp\n      swap1\n      div\n      0xff\n      and\n        /* \"contracts/SCaccesscontrol/Roles.sol\":901:928  return role.bearer[account] */\n      swap1\n      pop\n        /* \"contracts/SCaccesscontrol/Roles.sol\":761:934  function has(Role storage role, address account)\r... */\n      swap3\n      swap2\n      pop\n      pop\n      jump\t// out\n        /* \"contracts/SCaccesscontrol/CarParts_ManufacturerRole.sol\":1953:2117  function _removeCarParts_Manufacturer(address account) internal {\r... */\n    tag_27:\n        /* \"contracts/SCaccesscontrol/CarParts_ManufacturerRole.sol\":2024:2062  carParts_Manufacturers.remove(account) */\n      tag_34\n        /* \"contracts/SCaccesscontrol/CarParts_ManufacturerRole.sol\":2054:2061  account */\n      dup2\n        /* \"contracts/SCaccesscontrol/CarParts_ManufacturerRole.sol\":2024:2046  carParts_Manufacturers */\n      0x0\n        /* \"contracts/SCaccesscontrol/CarParts_ManufacturerRole.sol\":2024:2053  carParts_Manufacturers.remove */\n      tag_35\n      swap1\n        /* \"contracts/SCaccesscontrol/CarParts_ManufacturerRole.sol\":2024:2062  carParts_Manufacturers.remove(account) */\n      swap2\n      swap1\n      0xffffffff\n      and\n      jump\t// in\n    tag_34:\n        /* \"contracts/SCaccesscontrol/CarParts_ManufacturerRole.sol\":2103:2110  account */\n      dup1\n        /* \"contracts/SCaccesscontrol/CarParts_ManufacturerRole.sol\":2074:2111  CarParts_ManufacturerRemoved(account) */\n      0xffffffffffffffffffffffffffffffffffffffff\n      and\n      0x74e50ebe0d8f15811119637829729a3b44ffc7242575f08ea332c8e3a300e2fd\n      mload(0x40)\n      mload(0x40)\n      dup1\n      swap2\n      sub\n      swap1\n      log2\n        /* \"contracts/SCaccesscontrol/CarParts_ManufacturerRole.sol\":1953:2117  function _removeCarParts_Manufacturer(address account) internal {\r... */\n      pop\n      jump\t// out\n        /* \"contracts/SCaccesscontrol/Roles.sol\":259:431  function add(Role storage role, address account) internal {\r... */\n    tag_30:\n        /* \"contracts/SCaccesscontrol/Roles.sol\":351:352  0 */\n      0x0\n        /* \"contracts/SCaccesscontrol/Roles.sol\":332:353  account != address(0) */\n      0xffffffffffffffffffffffffffffffffffffffff\n      and\n        /* \"contracts/SCaccesscontrol/Roles.sol\":332:339  account */\n      dup2\n        /* \"contracts/SCaccesscontrol/Roles.sol\":332:353  account != address(0) */\n      0xffffffffffffffffffffffffffffffffffffffff\n      and\n      eq\n      iszero\n        /* \"contracts/SCaccesscontrol/Roles.sol\":324:354  require(account != address(0)) */\n      iszero\n      iszero\n      tag_37\n      jumpi\n      0x0\n      dup1\n      revert\n    tag_37:\n        /* \"contracts/SCaccesscontrol/Roles.sol\":370:388  has(role, account) */\n      tag_38\n        /* \"contracts/SCaccesscontrol/Roles.sol\":374:378  role */\n      dup3\n        /* \"contracts/SCaccesscontrol/Roles.sol\":380:387  account */\n      dup3\n        /* \"contracts/SCaccesscontrol/Roles.sol\":370:373  has */\n      tag_24\n        /* \"contracts/SCaccesscontrol/Roles.sol\":370:388  has(role, account) */\n      jump\t// in\n    tag_38:\n        /* \"contracts/SCaccesscontrol/Roles.sol\":369:388  !has(role, account) */\n      iszero\n        /* \"contracts/SCaccesscontrol/Roles.sol\":361:389  require(!has(role, account)) */\n      iszero\n      iszero\n      tag_39\n      jumpi\n      0x0\n      dup1\n      revert\n    tag_39:\n        /* \"contracts/SCaccesscontrol/Roles.sol\":421:425  true */\n      0x1\n        /* \"contracts/SCaccesscontrol/Roles.sol\":398:402  role */\n      dup3\n        /* \"contracts/SCaccesscontrol/Roles.sol\":398:409  role.bearer */\n      0x0\n      add\n        /* \"contracts/SCaccesscontrol/Roles.sol\":398:418  role.bearer[account] */\n      0x0\n        /* \"contracts/SCaccesscontrol/Roles.sol\":410:417  account */\n      dup4\n        /* \"contracts/SCaccesscontrol/Roles.sol\":398:418  role.bearer[account] */\n      0xffffffffffffffffffffffffffffffffffffffff\n      and\n      0xffffffffffffffffffffffffffffffffffffffff\n      and\n      dup2\n      mstore\n      0x20\n      add\n      swap1\n      dup2\n      mstore\n      0x20\n      add\n      0x0\n      keccak256\n      0x0\n        /* \"contracts/SCaccesscontrol/Roles.sol\":398:425  role.bearer[account] = true */\n      0x100\n      exp\n      dup2\n      sload\n      dup2\n      0xff\n      mul\n      not\n      and\n      swap1\n      dup4\n      iszero\n      iszero\n      mul\n      or\n      swap1\n      sstore\n      pop\n        /* \"contracts/SCaccesscontrol/Roles.sol\":259:431  function add(Role storage role, address account) internal {\r... */\n      pop\n      pop\n      jump\t// out\n        /* \"contracts/SCaccesscontrol/Roles.sol\":502:677  function remove(Role storage role, address account) internal {\r... */\n    tag_35:\n        /* \"contracts/SCaccesscontrol/Roles.sol\":597:598  0 */\n      0x0\n        /* \"contracts/SCaccesscontrol/Roles.sol\":578:599  account != address(0) */\n      0xffffffffffffffffffffffffffffffffffffffff\n      and\n        /* \"contracts/SCaccesscontrol/Roles.sol\":578:585  account */\n      dup2\n        /* \"contracts/SCaccesscontrol/Roles.sol\":578:599  account != address(0) */\n      0xffffffffffffffffffffffffffffffffffffffff\n      and\n      eq\n      iszero\n        /* \"contracts/SCaccesscontrol/Roles.sol\":570:600  require(account != address(0)) */\n      iszero\n      iszero\n      tag_41\n      jumpi\n      0x0\n      dup1\n      revert\n    tag_41:\n        /* \"contracts/SCaccesscontrol/Roles.sol\":615:633  has(role, account) */\n      tag_42\n        /* \"contracts/SCaccesscontrol/Roles.sol\":619:623  role */\n      dup3\n        /* \"contracts/SCaccesscontrol/Roles.sol\":625:632  account */\n      dup3\n        /* \"contracts/SCaccesscontrol/Roles.sol\":615:618  has */\n      tag_24\n        /* \"contracts/SCaccesscontrol/Roles.sol\":615:633  has(role, account) */\n      jump\t// in\n    tag_42:\n        /* \"contracts/SCaccesscontrol/Roles.sol\":607:634  require(has(role, account)) */\n      iszero\n      iszero\n      tag_43\n      jumpi\n      0x0\n      dup1\n      revert\n    tag_43:\n        /* \"contracts/SCaccesscontrol/Roles.sol\":666:671  false */\n      0x0\n        /* \"contracts/SCaccesscontrol/Roles.sol\":643:647  role */\n      dup3\n        /* \"contracts/SCaccesscontrol/Roles.sol\":643:654  role.bearer */\n      0x0\n      add\n        /* \"contracts/SCaccesscontrol/Roles.sol\":643:663  role.bearer[account] */\n      0x0\n        /* \"contracts/SCaccesscontrol/Roles.sol\":655:662  account */\n      dup4\n        /* \"contracts/SCaccesscontrol/Roles.sol\":643:663  role.bearer[account] */\n      0xffffffffffffffffffffffffffffffffffffffff\n      and\n      0xffffffffffffffffffffffffffffffffffffffff\n      and\n      dup2\n      mstore\n      0x20\n      add\n      swap1\n      dup2\n      mstore\n      0x20\n      add\n      0x0\n      keccak256\n      0x0\n        /* \"contracts/SCaccesscontrol/Roles.sol\":643:671  role.bearer[account] = false */\n      0x100\n      exp\n      dup2\n      sload\n      dup2\n      0xff\n      mul\n      not\n      and\n      swap1\n      dup4\n      iszero\n      iszero\n      mul\n      or\n      swap1\n      sstore\n      pop\n        /* \"contracts/SCaccesscontrol/Roles.sol\":502:677  function remove(Role storage role, address account) internal {\r... */\n      pop\n      pop\n      jump\t// out\n\n    auxdata: 0xa165627a7a72305820b5531f32cf5979c0c9d4624f7b95fe8c59d41e9078de9b2d4314819f765efac40029\n}\n",
				"bytecode": {
					"linkReferences": {},
					"object": "608060405234801561001057600080fd5b506100293361002e640100000000026401000000009004565b6101e8565b61004f816000610095640100000000026102bd179091906401000000009004565b8073ffffffffffffffffffffffffffffffffffffffff167fc17db36ff5b6d3d05d63c4d52dc5df431b9763a912ce99d8847bc7bdb4589d2d60405160405180910390a250565b600073ffffffffffffffffffffffffffffffffffffffff168173ffffffffffffffffffffffffffffffffffffffff16141515156100d157600080fd5b6100ea8282610154640100000000026401000000009004565b1515156100f657600080fd5b60018260000160008373ffffffffffffffffffffffffffffffffffffffff1673ffffffffffffffffffffffffffffffffffffffff16815260200190815260200160002060006101000a81548160ff0219169083151502179055505050565b60008073ffffffffffffffffffffffffffffffffffffffff168273ffffffffffffffffffffffffffffffffffffffff161415151561019157600080fd5b8260000160008373ffffffffffffffffffffffffffffffffffffffff1673ffffffffffffffffffffffffffffffffffffffff16815260200190815260200160002060009054906101000a900460ff16905092915050565b610448806101f76000396000f3fe608060405260043610610057576000357c0100000000000000000000000000000000000000000000000000000000900463ffffffff16806340b74c381461005c578063c7ef882c146100ad578063ffeb4d3314610116575b600080fd5b34801561006857600080fd5b506100ab6004803603602081101561007f57600080fd5b81019080803573ffffffffffffffffffffffffffffffffffffffff16906020019092919050505061012d565b005b3480156100b957600080fd5b506100fc600480360360208110156100d057600080fd5b81019080803573ffffffffffffffffffffffffffffffffffffffff16906020019092919050505061014d565b604051808215151515815260200191505060405180910390f35b34801561012257600080fd5b5061012b61016a565b005b6101363361014d565b151561014157600080fd5b61014a81610175565b50565b60006101638260006101cf90919063ffffffff16565b9050919050565b61017333610263565b565b6101898160006102bd90919063ffffffff16565b8073ffffffffffffffffffffffffffffffffffffffff167fc17db36ff5b6d3d05d63c4d52dc5df431b9763a912ce99d8847bc7bdb4589d2d60405160405180910390a250565b60008073ffffffffffffffffffffffffffffffffffffffff168273ffffffffffffffffffffffffffffffffffffffff161415151561020c57600080fd5b8260000160008373ffffffffffffffffffffffffffffffffffffffff1673ffffffffffffffffffffffffffffffffffffffff16815260200190815260200160002060009054906101000a900460ff16905092915050565b61027781600061036d90919063ffffffff16565b8073ffffffffffffffffffffffffffffffffffffffff167f74e50ebe0d8f15811119637829729a3b44ffc7242575f08ea332c8e3a300e2fd60405160405180910390a250565b600073ffffffffffffffffffffffffffffffffffffffff168173ffffffffffffffffffffffffffffffffffffffff16141515156102f957600080fd5b61030382826101cf565b15151561030f57600080fd5b60018260000160008373ffffffffffffffffffffffffffffffffffffffff1673ffffffffffffffffffffffffffffffffffffffff16815260200190815260200160002060006101000a81548160ff0219169083151502179055505050565b600073ffffffffffffffffffffffffffffffffffffffff168173ffffffffffffffffffffffffffffffffffffffff16141515156103a957600080fd5b6103b382826101cf565b15156103be57600080fd5b60008260000160008373ffffffffffffffffffffffffffffffffffffffff1673ffffffffffffffffffffffffffffffffffffffff16815260200190815260200160002060006101000a81548160ff021916908315150217905550505056fea165627a7a72305820b5531f32cf5979c0c9d4624f7b95fe8c59d41e9078de9b2d4314819f765efac40029",
					"opcodes": "PUSH1 0x80 PUSH1 0x40 MSTORE CALLVALUE DUP1 ISZERO PUSH2 0x10 JUMPI PUSH1 0x0 DUP1 REVERT JUMPDEST POP PUSH2 0x29 CALLER PUSH2 0x2E PUSH5 0x100000000 MUL PUSH5 0x100000000 SWAP1 DIV JUMP JUMPDEST PUSH2 0x1E8 JUMP JUMPDEST PUSH2 0x4F DUP2 PUSH1 0x0 PUSH2 0x95 PUSH5 0x100000000 MUL PUSH2 0x2BD OR SWAP1 SWAP2 SWAP1 PUSH5 0x100000000 SWAP1 DIV JUMP JUMPDEST DUP1 PUSH20 0xFFFFFFFFFFFFFFFFFFFFFFFFFFFFFFFFFFFFFFFF AND PUSH32 0xC17DB36FF5B6D3D05D63C4D52DC5DF431B9763A912CE99D8847BC7BDB4589D2D PUSH1 0x40 MLOAD PUSH1 0x40 MLOAD DUP1 SWAP2 SUB SWAP1 LOG2 POP JUMP JUMPDEST PUSH1 0x0 PUSH20 0xFFFFFFFFFFFFFFFFFFFFFFFFFFFFFFFFFFFFFFFF AND DUP2 PUSH20 0xFFFFFFFFFFFFFFFFFFFFFFFFFFFFFFFFFFFFFFFF AND EQ ISZERO ISZERO ISZERO PUSH2 0xD1 JUMPI PUSH1 0x0 DUP1 REVERT JUMPDEST PUSH2 0xEA DUP3 DUP3 PUSH2 0x154 PUSH5 0x100000000 MUL PUSH5 0x100000000 SWAP1 DIV JUMP JUMPDEST ISZERO ISZERO ISZERO PUSH2 0xF6 JUMPI PUSH1 0x0 DUP1 REVERT JUMPDEST PUSH1 0x1 DUP3 PUSH1 0x0 ADD PUSH1 0x0 DUP4 PUSH20 0xFFFFFFFFFFFFFFFFFFFFFFFFFFFFFFFFFFFFFFFF AND PUSH20 0xFFFFFFFFFFFFFFFFFFFFFFFFFFFFFFFFFFFFFFFF AND DUP2 MSTORE PUSH1 0x20 ADD SWAP1 DUP2 MSTORE PUSH1 0x20 ADD PUSH1 0x0 KECCAK256 PUSH1 0x0 PUSH2 0x100 EXP DUP2 SLOAD DUP2 PUSH1 0xFF MUL NOT AND SWAP1 DUP4 ISZERO ISZERO MUL OR SWAP1 SSTORE POP POP POP JUMP JUMPDEST PUSH1 0x0 DUP1 PUSH20 0xFFFFFFFFFFFFFFFFFFFFFFFFFFFFFFFFFFFFFFFF AND DUP3 PUSH20 0xFFFFFFFFFFFFFFFFFFFFFFFFFFFFFFFFFFFFFFFF AND EQ ISZERO ISZERO ISZERO PUSH2 0x191 JUMPI PUSH1 0x0 DUP1 REVERT JUMPDEST DUP3 PUSH1 0x0 ADD PUSH1 0x0 DUP4 PUSH20 0xFFFFFFFFFFFFFFFFFFFFFFFFFFFFFFFFFFFFFFFF AND PUSH20 0xFFFFFFFFFFFFFFFFFFFFFFFFFFFFFFFFFFFFFFFF AND DUP2 MSTORE PUSH1 0x20 ADD SWAP1 DUP2 MSTORE PUSH1 0x20 ADD PUSH1 0x0 KECCAK256 PUSH1 0x0 SWAP1 SLOAD SWAP1 PUSH2 0x100 EXP SWAP1 DIV PUSH1 0xFF AND SWAP1 POP SWAP3 SWAP2 POP POP JUMP JUMPDEST PUSH2 0x448 DUP1 PUSH2 0x1F7 PUSH1 0x0 CODECOPY PUSH1 0x0 RETURN INVALID PUSH1 0x80 PUSH1 0x40 MSTORE PUSH1 0x4 CALLDATASIZE LT PUSH2 0x57 JUMPI PUSH1 0x0 CALLDATALOAD PUSH29 0x100000000000000000000000000000000000000000000000000000000 SWAP1 DIV PUSH4 0xFFFFFFFF AND DUP1 PUSH4 0x40B74C38 EQ PUSH2 0x5C JUMPI DUP1 PUSH4 0xC7EF882C EQ PUSH2 0xAD JUMPI DUP1 PUSH4 0xFFEB4D33 EQ PUSH2 0x116 JUMPI JUMPDEST PUSH1 0x0 DUP1 REVERT JUMPDEST CALLVALUE DUP1 ISZERO PUSH2 0x68 JUMPI PUSH1 0x0 DUP1 REVERT JUMPDEST POP PUSH2 0xAB PUSH1 0x4 DUP1 CALLDATASIZE SUB PUSH1 0x20 DUP2 LT ISZERO PUSH2 0x7F JUMPI PUSH1 0x0 DUP1 REVERT JUMPDEST DUP2 ADD SWAP1 DUP1 DUP1 CALLDATALOAD PUSH20 0xFFFFFFFFFFFFFFFFFFFFFFFFFFFFFFFFFFFFFFFF AND SWAP1 PUSH1 0x20 ADD SWAP1 SWAP3 SWAP2 SWAP1 POP POP POP PUSH2 0x12D JUMP JUMPDEST STOP JUMPDEST CALLVALUE DUP1 ISZERO PUSH2 0xB9 JUMPI PUSH1 0x0 DUP1 REVERT JUMPDEST POP PUSH2 0xFC PUSH1 0x4 DUP1 CALLDATASIZE SUB PUSH1 0x20 DUP2 LT ISZERO PUSH2 0xD0 JUMPI PUSH1 0x0 DUP1 REVERT JUMPDEST DUP2 ADD SWAP1 DUP1 DUP1 CALLDATALOAD PUSH20 0xFFFFFFFFFFFFFFFFFFFFFFFFFFFFFFFFFFFFFFFF AND SWAP1 PUSH1 0x20 ADD SWAP1 SWAP3 SWAP2 SWAP1 POP POP POP PUSH2 0x14D JUMP JUMPDEST PUSH1 0x40 MLOAD DUP1 DUP3 ISZERO ISZERO ISZERO ISZERO DUP2 MSTORE PUSH1 0x20 ADD SWAP2 POP POP PUSH1 0x40 MLOAD DUP1 SWAP2 SUB SWAP1 RETURN JUMPDEST CALLVALUE DUP1 ISZERO PUSH2 0x122 JUMPI PUSH1 0x0 DUP1 REVERT JUMPDEST POP PUSH2 0x12B PUSH2 0x16A JUMP JUMPDEST STOP JUMPDEST PUSH2 0x136 CALLER PUSH2 0x14D JUMP JUMPDEST ISZERO ISZERO PUSH2 0x141 JUMPI PUSH1 0x0 DUP1 REVERT JUMPDEST PUSH2 0x14A DUP2 PUSH2 0x175 JUMP JUMPDEST POP JUMP JUMPDEST PUSH1 0x0 PUSH2 0x163 DUP3 PUSH1 0x0 PUSH2 0x1CF SWAP1 SWAP2 SWAP1 PUSH4 0xFFFFFFFF AND JUMP JUMPDEST SWAP1 POP SWAP2 SWAP1 POP JUMP JUMPDEST PUSH2 0x173 CALLER PUSH2 0x263 JUMP JUMPDEST JUMP JUMPDEST PUSH2 0x189 DUP2 PUSH1 0x0 PUSH2 0x2BD SWAP1 SWAP2 SWAP1 PUSH4 0xFFFFFFFF AND JUMP JUMPDEST DUP1 PUSH20 0xFFFFFFFFFFFFFFFFFFFFFFFFFFFFFFFFFFFFFFFF AND PUSH32 0xC17DB36FF5B6D3D05D63C4D52DC5DF431B9763A912CE99D8847BC7BDB4589D2D PUSH1 0x40 MLOAD PUSH1 0x40 MLOAD DUP1 SWAP2 SUB SWAP1 LOG2 POP JUMP JUMPDEST PUSH1 0x0 DUP1 PUSH20 0xFFFFFFFFFFFFFFFFFFFFFFFFFFFFFFFFFFFFFFFF AND DUP3 PUSH20 0xFFFFFFFFFFFFFFFFFFFFFFFFFFFFFFFFFFFFFFFF AND EQ ISZERO ISZERO ISZERO PUSH2 0x20C JUMPI PUSH1 0x0 DUP1 REVERT JUMPDEST DUP3 PUSH1 0x0 ADD PUSH1 0x0 DUP4 PUSH20 0xFFFFFFFFFFFFFFFFFFFFFFFFFFFFFFFFFFFFFFFF AND PUSH20 0xFFFFFFFFFFFFFFFFFFFFFFFFFFFFFFFFFFFFFFFF AND DUP2 MSTORE PUSH1 0x20 ADD SWAP1 DUP2 MSTORE PUSH1 0x20 ADD PUSH1 0x0 KECCAK256 PUSH1 0x0 SWAP1 SLOAD SWAP1 PUSH2 0x100 EXP SWAP1 DIV PUSH1 0xFF AND SWAP1 POP SWAP3 SWAP2 POP POP JUMP JUMPDEST PUSH2 0x277 DUP2 PUSH1 0x0 PUSH2 0x36D SWAP1 SWAP2 SWAP1 PUSH4 0xFFFFFFFF AND JUMP JUMPDEST DUP1 PUSH20 0xFFFFFFFFFFFFFFFFFFFFFFFFFFFFFFFFFFFFFFFF AND PUSH32 0x74E50EBE0D8F15811119637829729A3B44FFC7242575F08EA332C8E3A300E2FD PUSH1 0x40 MLOAD PUSH1 0x40 MLOAD DUP1 SWAP2 SUB SWAP1 LOG2 POP JUMP JUMPDEST PUSH1 0x0 PUSH20 0xFFFFFFFFFFFFFFFFFFFFFFFFFFFFFFFFFFFFFFFF AND DUP2 PUSH20 0xFFFFFFFFFFFFFFFFFFFFFFFFFFFFFFFFFFFFFFFF AND EQ ISZERO ISZERO ISZERO PUSH2 0x2F9 JUMPI PUSH1 0x0 DUP1 REVERT JUMPDEST PUSH2 0x303 DUP3 DUP3 PUSH2 0x1CF JUMP JUMPDEST ISZERO ISZERO ISZERO PUSH2 0x30F JUMPI PUSH1 0x0 DUP1 REVERT JUMPDEST PUSH1 0x1 DUP3 PUSH1 0x0 ADD PUSH1 0x0 DUP4 PUSH20 0xFFFFFFFFFFFFFFFFFFFFFFFFFFFFFFFFFFFFFFFF AND PUSH20 0xFFFFFFFFFFFFFFFFFFFFFFFFFFFFFFFFFFFFFFFF AND DUP2 MSTORE PUSH1 0x20 ADD SWAP1 DUP2 MSTORE PUSH1 0x20 ADD PUSH1 0x0 KECCAK256 PUSH1 0x0 PUSH2 0x100 EXP DUP2 SLOAD DUP2 PUSH1 0xFF MUL NOT AND SWAP1 DUP4 ISZERO ISZERO MUL OR SWAP1 SSTORE POP POP POP JUMP JUMPDEST PUSH1 0x0 PUSH20 0xFFFFFFFFFFFFFFFFFFFFFFFFFFFFFFFFFFFFFFFF AND DUP2 PUSH20 0xFFFFFFFFFFFFFFFFFFFFFFFFFFFFFFFFFFFFFFFF AND EQ ISZERO ISZERO ISZERO PUSH2 0x3A9 JUMPI PUSH1 0x0 DUP1 REVERT JUMPDEST PUSH2 0x3B3 DUP3 DUP3 PUSH2 0x1CF JUMP JUMPDEST ISZERO ISZERO PUSH2 0x3BE JUMPI PUSH1 0x0 DUP1 REVERT JUMPDEST PUSH1 0x0 DUP3 PUSH1 0x0 ADD PUSH1 0x0 DUP4 PUSH20 0xFFFFFFFFFFFFFFFFFFFFFFFFFFFFFFFFFFFFFFFF AND PUSH20 0xFFFFFFFFFFFFFFFFFFFFFFFFFFFFFFFFFFFFFFFF AND DUP2 MSTORE PUSH1 0x20 ADD SWAP1 DUP2 MSTORE PUSH1 0x20 ADD PUSH1 0x0 KECCAK256 PUSH1 0x0 PUSH2 0x100 EXP DUP2 SLOAD DUP2 PUSH1 0xFF MUL NOT AND SWAP1 DUP4 ISZERO ISZERO MUL OR SWAP1 SSTORE POP POP POP JUMP INVALID LOG1 PUSH6 0x627A7A723058 KECCAK256 0xb5 MSTORE8 0x1f ORIGIN 0xcf MSIZE PUSH26 0xC0C9D4624F7B95FE8C59D41E9078DE9B2D4314819F765EFAC400 0x29 "
				},
				"gasEstimates": {
					"creation": {
						"codeDepositCost": "219200",
						"executionCost": "infinite",
						"totalCost": "infinite"
					},
					"external": {
						"addCarParts_Manufacturer(address)": "infinite",
						"isCarParts_Manufacturer(address)": "infinite",
						"renounceCarParts_Manufacturer()": "infinite"
					},
					"internal": {
						"_addCarParts_Manufacturer(address)": "infinite",
						"_removeCarParts_Manufacturer(address)": "infinite"
					}
				},
				"methodIdentifiers": {
					"addCarParts_Manufacturer(address)": "40b74c38",
					"isCarParts_Manufacturer(address)": "c7ef882c",
					"renounceCarParts_Manufacturer()": "ffeb4d33"
				}
			},
			"userdoc": {
				"methods": {}
			}
		}
	}
}