{
	"contracts/parmigianoaccesscontrol/ConsumerRole.sol": {
		"ConsumerRole": {
			"abi": [
				{
					"constant": false,
					"inputs": [
						{
							"name": "account",
							"type": "address"
						}
					],
					"name": "addConsumer",
					"outputs": [],
					"payable": false,
					"stateMutability": "nonpayable",
					"type": "function"
				},
				{
					"constant": true,
					"inputs": [
						{
							"name": "account",
							"type": "address"
						}
					],
					"name": "isConsumer",
					"outputs": [
						{
							"name": "",
							"type": "bool"
						}
					],
					"payable": false,
					"stateMutability": "view",
					"type": "function"
				},
				{
					"constant": false,
					"inputs": [
						{
							"name": "account",
							"type": "address"
						}
					],
					"name": "renounceConsumer",
					"outputs": [],
					"payable": false,
					"stateMutability": "nonpayable",
					"type": "function"
				},
				{
					"inputs": [],
					"payable": false,
					"stateMutability": "nonpayable",
					"type": "constructor"
				},
				{
					"anonymous": false,
					"inputs": [
						{
							"indexed": true,
							"name": "account",
							"type": "address"
						}
					],
					"name": "ConsumerAdded",
					"type": "event"
				},
				{
					"anonymous": false,
					"inputs": [
						{
							"indexed": true,
							"name": "account",
							"type": "address"
						}
					],
					"name": "ConsumerRemoved",
					"type": "event"
				}
			],
			"devdoc": {
				"methods": {}
			},
			"evm": {
				"assembly": "    /* \"contracts/parmigianoaccesscontrol/ConsumerRole.sol\":163:1774  contract ConsumerRole {\r... */\n  mstore(0x40, 0x80)\n    /* \"contracts/parmigianoaccesscontrol/ConsumerRole.sol\":586:680  constructor() public {\r... */\n  callvalue\n    /* \"--CODEGEN--\":8:17   */\n  dup1\n    /* \"--CODEGEN--\":5:7   */\n  iszero\n  tag_1\n  jumpi\n    /* \"--CODEGEN--\":30:31   */\n  0x0\n    /* \"--CODEGEN--\":27:28   */\n  dup1\n    /* \"--CODEGEN--\":20:32   */\n  revert\n    /* \"--CODEGEN--\":5:7   */\ntag_1:\n    /* \"contracts/parmigianoaccesscontrol/ConsumerRole.sol\":586:680  constructor() public {\r... */\n  pop\n    /* \"contracts/parmigianoaccesscontrol/ConsumerRole.sol\":650:674  _addConsumer(msg.sender) */\n  tag_4\n    /* \"contracts/parmigianoaccesscontrol/ConsumerRole.sol\":663:673  msg.sender */\n  caller\n    /* \"contracts/parmigianoaccesscontrol/ConsumerRole.sol\":650:662  _addConsumer */\n  mul(0x100000000, tag_5)\n    /* \"contracts/parmigianoaccesscontrol/ConsumerRole.sol\":650:674  _addConsumer(msg.sender) */\n  0x100000000\n  swap1\n  div\n  jump\t// in\ntag_4:\n    /* \"contracts/parmigianoaccesscontrol/ConsumerRole.sol\":163:1774  contract ConsumerRole {\r... */\n  jump(tag_6)\n    /* \"contracts/parmigianoaccesscontrol/ConsumerRole.sol\":1423:1540  function _addConsumer(address account) internal {\r... */\ntag_5:\n    /* \"contracts/parmigianoaccesscontrol/ConsumerRole.sol\":1478:1500  consumers.add(account) */\n  tag_8\n    /* \"contracts/parmigianoaccesscontrol/ConsumerRole.sol\":1492:1499  account */\n  dup2\n    /* \"contracts/parmigianoaccesscontrol/ConsumerRole.sol\":1478:1487  consumers */\n  0x0\n    /* \"contracts/parmigianoaccesscontrol/ConsumerRole.sol\":1478:1491  consumers.add */\n  or(tag_0_31, mul(0x100000000, tag_9))\n  swap1\n    /* \"contracts/parmigianoaccesscontrol/ConsumerRole.sol\":1478:1500  consumers.add(account) */\n  swap2\n  swap1\n  0x100000000\n  swap1\n  div\n  jump\t// in\ntag_8:\n    /* \"contracts/parmigianoaccesscontrol/ConsumerRole.sol\":1526:1533  account */\n  dup1\n    /* \"contracts/parmigianoaccesscontrol/ConsumerRole.sol\":1512:1534  ConsumerAdded(account) */\n  0xffffffffffffffffffffffffffffffffffffffff\n  and\n  0x28b26e7a3d20aedbc5f8f2ebf7da671c0491723a2b78f47a097b0e46dee07142\n  mload(0x40)\n  mload(0x40)\n  dup1\n  swap2\n  sub\n  swap1\n  log2\n    /* \"contracts/parmigianoaccesscontrol/ConsumerRole.sol\":1423:1540  function _addConsumer(address account) internal {\r... */\n  pop\n  jump\t// out\n    /* \"contracts/parmigianoaccesscontrol/Roles.sol\":259:431  function add(Role storage role, address account) internal {\r... */\ntag_9:\n    /* \"contracts/parmigianoaccesscontrol/Roles.sol\":351:352  0 */\n  0x0\n    /* \"contracts/parmigianoaccesscontrol/Roles.sol\":332:353  account != address(0) */\n  0xffffffffffffffffffffffffffffffffffffffff\n  and\n    /* \"contracts/parmigianoaccesscontrol/Roles.sol\":332:339  account */\n  dup2\n    /* \"contracts/parmigianoaccesscontrol/Roles.sol\":332:353  account != address(0) */\n  0xffffffffffffffffffffffffffffffffffffffff\n  and\n  eq\n  iszero\n    /* \"contracts/parmigianoaccesscontrol/Roles.sol\":324:354  require(account != address(0)) */\n  iszero\n  iszero\n  tag_11\n  jumpi\n  0x0\n  dup1\n  revert\ntag_11:\n    /* \"contracts/parmigianoaccesscontrol/Roles.sol\":370:388  has(role, account) */\n  tag_12\n    /* \"contracts/parmigianoaccesscontrol/Roles.sol\":374:378  role */\n  dup3\n    /* \"contracts/parmigianoaccesscontrol/Roles.sol\":380:387  account */\n  dup3\n    /* \"contracts/parmigianoaccesscontrol/Roles.sol\":370:373  has */\n  mul(0x100000000, tag_13)\n    /* \"contracts/parmigianoaccesscontrol/Roles.sol\":370:388  has(role, account) */\n  0x100000000\n  swap1\n  div\n  jump\t// in\ntag_12:\n    /* \"contracts/parmigianoaccesscontrol/Roles.sol\":369:388  !has(role, account) */\n  iszero\n    /* \"contracts/parmigianoaccesscontrol/Roles.sol\":361:389  require(!has(role, account)) */\n  iszero\n  iszero\n  tag_14\n  jumpi\n  0x0\n  dup1\n  revert\ntag_14:\n    /* \"contracts/parmigianoaccesscontrol/Roles.sol\":421:425  true */\n  0x1\n    /* \"contracts/parmigianoaccesscontrol/Roles.sol\":398:402  role */\n  dup3\n    /* \"contracts/parmigianoaccesscontrol/Roles.sol\":398:409  role.bearer */\n  0x0\n  add\n    /* \"contracts/parmigianoaccesscontrol/Roles.sol\":398:418  role.bearer[account] */\n  0x0\n    /* \"contracts/parmigianoaccesscontrol/Roles.sol\":410:417  account */\n  dup4\n    /* \"contracts/parmigianoaccesscontrol/Roles.sol\":398:418  role.bearer[account] */\n  0xffffffffffffffffffffffffffffffffffffffff\n  and\n  0xffffffffffffffffffffffffffffffffffffffff\n  and\n  dup2\n  mstore\n  0x20\n  add\n  swap1\n  dup2\n  mstore\n  0x20\n  add\n  0x0\n  keccak256\n  0x0\n    /* \"contracts/parmigianoaccesscontrol/Roles.sol\":398:425  role.bearer[account] = true */\n  0x100\n  exp\n  dup2\n  sload\n  dup2\n  0xff\n  mul\n  not\n  and\n  swap1\n  dup4\n  iszero\n  iszero\n  mul\n  or\n  swap1\n  sstore\n  pop\n    /* \"contracts/parmigianoaccesscontrol/Roles.sol\":259:431  function add(Role storage role, address account) internal {\r... */\n  pop\n  pop\n  jump\t// out\n    /* \"contracts/parmigianoaccesscontrol/Roles.sol\":761:934  function has(Role storage role, address account)\r... */\ntag_13:\n    /* \"contracts/parmigianoaccesscontrol/Roles.sol\":848:852  bool */\n  0x0\n    /* \"contracts/parmigianoaccesscontrol/Roles.sol\":891:892  0 */\n  dup1\n    /* \"contracts/parmigianoaccesscontrol/Roles.sol\":872:893  account != address(0) */\n  0xffffffffffffffffffffffffffffffffffffffff\n  and\n    /* \"contracts/parmigianoaccesscontrol/Roles.sol\":872:879  account */\n  dup3\n    /* \"contracts/parmigianoaccesscontrol/Roles.sol\":872:893  account != address(0) */\n  0xffffffffffffffffffffffffffffffffffffffff\n  and\n  eq\n  iszero\n    /* \"contracts/parmigianoaccesscontrol/Roles.sol\":864:894  require(account != address(0)) */\n  iszero\n  iszero\n  tag_16\n  jumpi\n  0x0\n  dup1\n  revert\ntag_16:\n    /* \"contracts/parmigianoaccesscontrol/Roles.sol\":908:912  role */\n  dup3\n    /* \"contracts/parmigianoaccesscontrol/Roles.sol\":908:919  role.bearer */\n  0x0\n  add\n    /* \"contracts/parmigianoaccesscontrol/Roles.sol\":908:928  role.bearer[account] */\n  0x0\n    /* \"contracts/parmigianoaccesscontrol/Roles.sol\":920:927  account */\n  dup4\n    /* \"contracts/parmigianoaccesscontrol/Roles.sol\":908:928  role.bearer[account] */\n  0xffffffffffffffffffffffffffffffffffffffff\n  and\n  0xffffffffffffffffffffffffffffffffffffffff\n  and\n  dup2\n  mstore\n  0x20\n  add\n  swap1\n  dup2\n  mstore\n  0x20\n  add\n  0x0\n  keccak256\n  0x0\n  swap1\n  sload\n  swap1\n  0x100\n  exp\n  swap1\n  div\n  0xff\n  and\n    /* \"contracts/parmigianoaccesscontrol/Roles.sol\":901:928  return role.bearer[account] */\n  swap1\n  pop\n    /* \"contracts/parmigianoaccesscontrol/Roles.sol\":761:934  function has(Role storage role, address account)\r... */\n  swap3\n  swap2\n  pop\n  pop\n  jump\t// out\n    /* \"contracts/parmigianoaccesscontrol/ConsumerRole.sol\":163:1774  contract ConsumerRole {\r... */\ntag_6:\n  dataSize(sub_0)\n  dup1\n  dataOffset(sub_0)\n  0x0\n  codecopy\n  0x0\n  return\nstop\n\nsub_0: assembly {\n        /* \"contracts/parmigianoaccesscontrol/ConsumerRole.sol\":163:1774  contract ConsumerRole {\r... */\n      mstore(0x40, 0x80)\n      jumpi(tag_1, lt(calldatasize, 0x4))\n      calldataload(0x0)\n      0x100000000000000000000000000000000000000000000000000000000\n      swap1\n      div\n      0xffffffff\n      and\n      dup1\n      0x112940f9\n      eq\n      tag_2\n      jumpi\n      dup1\n      0x834ff739\n      eq\n      tag_3\n      jumpi\n      dup1\n      0xf487d48d\n      eq\n      tag_4\n      jumpi\n    tag_1:\n      0x0\n      dup1\n      revert\n        /* \"contracts/parmigianoaccesscontrol/ConsumerRole.sol\":1076:1168  function addConsumer(address account) public onlyConsumer {\r... */\n    tag_2:\n      callvalue\n        /* \"--CODEGEN--\":8:17   */\n      dup1\n        /* \"--CODEGEN--\":5:7   */\n      iszero\n      tag_5\n      jumpi\n        /* \"--CODEGEN--\":30:31   */\n      0x0\n        /* \"--CODEGEN--\":27:28   */\n      dup1\n        /* \"--CODEGEN--\":20:32   */\n      revert\n        /* \"--CODEGEN--\":5:7   */\n    tag_5:\n        /* \"contracts/parmigianoaccesscontrol/ConsumerRole.sol\":1076:1168  function addConsumer(address account) public onlyConsumer {\r... */\n      pop\n      tag_6\n      0x4\n      dup1\n      calldatasize\n      sub\n        /* \"--CODEGEN--\":13:15   */\n      0x20\n        /* \"--CODEGEN--\":8:11   */\n      dup2\n        /* \"--CODEGEN--\":5:16   */\n      lt\n        /* \"--CODEGEN--\":2:4   */\n      iszero\n      tag_7\n      jumpi\n        /* \"--CODEGEN--\":29:30   */\n      0x0\n        /* \"--CODEGEN--\":26:27   */\n      dup1\n        /* \"--CODEGEN--\":19:31   */\n      revert\n        /* \"--CODEGEN--\":2:4   */\n    tag_7:\n        /* \"contracts/parmigianoaccesscontrol/ConsumerRole.sol\":1076:1168  function addConsumer(address account) public onlyConsumer {\r... */\n      dup2\n      add\n      swap1\n      dup1\n      dup1\n      calldataload\n      0xffffffffffffffffffffffffffffffffffffffff\n      and\n      swap1\n      0x20\n      add\n      swap1\n      swap3\n      swap2\n      swap1\n      pop\n      pop\n      pop\n      jump(tag_8)\n    tag_6:\n      stop\n        /* \"contracts/parmigianoaccesscontrol/ConsumerRole.sol\":906:1012  function isConsumer(address account) public view returns (bool) {\r... */\n    tag_3:\n      callvalue\n        /* \"--CODEGEN--\":8:17   */\n      dup1\n        /* \"--CODEGEN--\":5:7   */\n      iszero\n      tag_9\n      jumpi\n        /* \"--CODEGEN--\":30:31   */\n      0x0\n        /* \"--CODEGEN--\":27:28   */\n      dup1\n        /* \"--CODEGEN--\":20:32   */\n      revert\n        /* \"--CODEGEN--\":5:7   */\n    tag_9:\n        /* \"contracts/parmigianoaccesscontrol/ConsumerRole.sol\":906:1012  function isConsumer(address account) public view returns (bool) {\r... */\n      pop\n      tag_10\n      0x4\n      dup1\n      calldatasize\n      sub\n        /* \"--CODEGEN--\":13:15   */\n      0x20\n        /* \"--CODEGEN--\":8:11   */\n      dup2\n        /* \"--CODEGEN--\":5:16   */\n      lt\n        /* \"--CODEGEN--\":2:4   */\n      iszero\n      tag_11\n      jumpi\n        /* \"--CODEGEN--\":29:30   */\n      0x0\n        /* \"--CODEGEN--\":26:27   */\n      dup1\n        /* \"--CODEGEN--\":19:31   */\n      revert\n        /* \"--CODEGEN--\":2:4   */\n    tag_11:\n        /* \"contracts/parmigianoaccesscontrol/ConsumerRole.sol\":906:1012  function isConsumer(address account) public view returns (bool) {\r... */\n      dup2\n      add\n      swap1\n      dup1\n      dup1\n      calldataload\n      0xffffffffffffffffffffffffffffffffffffffff\n      and\n      swap1\n      0x20\n      add\n      swap1\n      swap3\n      swap2\n      swap1\n      pop\n      pop\n      pop\n      jump(tag_12)\n    tag_10:\n      mload(0x40)\n      dup1\n      dup3\n      iszero\n      iszero\n      iszero\n      iszero\n      dup2\n      mstore\n      0x20\n      add\n      swap2\n      pop\n      pop\n      mload(0x40)\n      dup1\n      swap2\n      sub\n      swap1\n      return\n        /* \"contracts/parmigianoaccesscontrol/ConsumerRole.sol\":1239:1326  function renounceConsumer(address account) public {\r... */\n    tag_4:\n      callvalue\n        /* \"--CODEGEN--\":8:17   */\n      dup1\n        /* \"--CODEGEN--\":5:7   */\n      iszero\n      tag_13\n      jumpi\n        /* \"--CODEGEN--\":30:31   */\n      0x0\n        /* \"--CODEGEN--\":27:28   */\n      dup1\n        /* \"--CODEGEN--\":20:32   */\n      revert\n        /* \"--CODEGEN--\":5:7   */\n    tag_13:\n        /* \"contracts/parmigianoaccesscontrol/ConsumerRole.sol\":1239:1326  function renounceConsumer(address account) public {\r... */\n      pop\n      tag_14\n      0x4\n      dup1\n      calldatasize\n      sub\n        /* \"--CODEGEN--\":13:15   */\n      0x20\n        /* \"--CODEGEN--\":8:11   */\n      dup2\n        /* \"--CODEGEN--\":5:16   */\n      lt\n        /* \"--CODEGEN--\":2:4   */\n      iszero\n      tag_15\n      jumpi\n        /* \"--CODEGEN--\":29:30   */\n      0x0\n        /* \"--CODEGEN--\":26:27   */\n      dup1\n        /* \"--CODEGEN--\":19:31   */\n      revert\n        /* \"--CODEGEN--\":2:4   */\n    tag_15:\n        /* \"contracts/parmigianoaccesscontrol/ConsumerRole.sol\":1239:1326  function renounceConsumer(address account) public {\r... */\n      dup2\n      add\n      swap1\n      dup1\n      dup1\n      calldataload\n      0xffffffffffffffffffffffffffffffffffffffff\n      and\n      swap1\n      0x20\n      add\n      swap1\n      swap3\n      swap2\n      swap1\n      pop\n      pop\n      pop\n      jump(tag_16)\n    tag_14:\n      stop\n        /* \"contracts/parmigianoaccesscontrol/ConsumerRole.sol\":1076:1168  function addConsumer(address account) public onlyConsumer {\r... */\n    tag_8:\n        /* \"contracts/parmigianoaccesscontrol/ConsumerRole.sol\":807:829  isConsumer(msg.sender) */\n      tag_18\n        /* \"contracts/parmigianoaccesscontrol/ConsumerRole.sol\":818:828  msg.sender */\n      caller\n        /* \"contracts/parmigianoaccesscontrol/ConsumerRole.sol\":807:817  isConsumer */\n      tag_12\n        /* \"contracts/parmigianoaccesscontrol/ConsumerRole.sol\":807:829  isConsumer(msg.sender) */\n      jump\t// in\n    tag_18:\n        /* \"contracts/parmigianoaccesscontrol/ConsumerRole.sol\":799:830  require(isConsumer(msg.sender)) */\n      iszero\n      iszero\n      tag_19\n      jumpi\n      0x0\n      dup1\n      revert\n    tag_19:\n        /* \"contracts/parmigianoaccesscontrol/ConsumerRole.sol\":1141:1162  _addConsumer(account) */\n      tag_21\n        /* \"contracts/parmigianoaccesscontrol/ConsumerRole.sol\":1154:1161  account */\n      dup2\n        /* \"contracts/parmigianoaccesscontrol/ConsumerRole.sol\":1141:1153  _addConsumer */\n      tag_22\n        /* \"contracts/parmigianoaccesscontrol/ConsumerRole.sol\":1141:1162  _addConsumer(account) */\n      jump\t// in\n    tag_21:\n        /* \"contracts/parmigianoaccesscontrol/ConsumerRole.sol\":1076:1168  function addConsumer(address account) public onlyConsumer {\r... */\n      pop\n      jump\t// out\n        /* \"contracts/parmigianoaccesscontrol/ConsumerRole.sol\":906:1012  function isConsumer(address account) public view returns (bool) {\r... */\n    tag_12:\n        /* \"contracts/parmigianoaccesscontrol/ConsumerRole.sol\":964:968  bool */\n      0x0\n        /* \"contracts/parmigianoaccesscontrol/ConsumerRole.sol\":984:1006  consumers.has(account) */\n      tag_24\n        /* \"contracts/parmigianoaccesscontrol/ConsumerRole.sol\":998:1005  account */\n      dup3\n        /* \"contracts/parmigianoaccesscontrol/ConsumerRole.sol\":984:993  consumers */\n      0x0\n        /* \"contracts/parmigianoaccesscontrol/ConsumerRole.sol\":984:997  consumers.has */\n      tag_25\n      swap1\n        /* \"contracts/parmigianoaccesscontrol/ConsumerRole.sol\":984:1006  consumers.has(account) */\n      swap2\n      swap1\n      0xffffffff\n      and\n      jump\t// in\n    tag_24:\n        /* \"contracts/parmigianoaccesscontrol/ConsumerRole.sol\":977:1006  return consumers.has(account) */\n      swap1\n      pop\n        /* \"contracts/parmigianoaccesscontrol/ConsumerRole.sol\":906:1012  function isConsumer(address account) public view returns (bool) {\r... */\n      swap2\n      swap1\n      pop\n      jump\t// out\n        /* \"contracts/parmigianoaccesscontrol/ConsumerRole.sol\":1239:1326  function renounceConsumer(address account) public {\r... */\n    tag_16:\n        /* \"contracts/parmigianoaccesscontrol/ConsumerRole.sol\":1296:1320  _removeConsumer(account) */\n      tag_27\n        /* \"contracts/parmigianoaccesscontrol/ConsumerRole.sol\":1312:1319  account */\n      dup2\n        /* \"contracts/parmigianoaccesscontrol/ConsumerRole.sol\":1296:1311  _removeConsumer */\n      tag_28\n        /* \"contracts/parmigianoaccesscontrol/ConsumerRole.sol\":1296:1320  _removeConsumer(account) */\n      jump\t// in\n    tag_27:\n        /* \"contracts/parmigianoaccesscontrol/ConsumerRole.sol\":1239:1326  function renounceConsumer(address account) public {\r... */\n      pop\n      jump\t// out\n        /* \"contracts/parmigianoaccesscontrol/ConsumerRole.sol\":1423:1540  function _addConsumer(address account) internal {\r... */\n    tag_22:\n        /* \"contracts/parmigianoaccesscontrol/ConsumerRole.sol\":1478:1500  consumers.add(account) */\n      tag_30\n        /* \"contracts/parmigianoaccesscontrol/ConsumerRole.sol\":1492:1499  account */\n      dup2\n        /* \"contracts/parmigianoaccesscontrol/ConsumerRole.sol\":1478:1487  consumers */\n      0x0\n        /* \"contracts/parmigianoaccesscontrol/ConsumerRole.sol\":1478:1491  consumers.add */\n      tag_31\n      swap1\n        /* \"contracts/parmigianoaccesscontrol/ConsumerRole.sol\":1478:1500  consumers.add(account) */\n      swap2\n      swap1\n      0xffffffff\n      and\n      jump\t// in\n    tag_30:\n        /* \"contracts/parmigianoaccesscontrol/ConsumerRole.sol\":1526:1533  account */\n      dup1\n        /* \"contracts/parmigianoaccesscontrol/ConsumerRole.sol\":1512:1534  ConsumerAdded(account) */\n      0xffffffffffffffffffffffffffffffffffffffff\n      and\n      0x28b26e7a3d20aedbc5f8f2ebf7da671c0491723a2b78f47a097b0e46dee07142\n      mload(0x40)\n      mload(0x40)\n      dup1\n      swap2\n      sub\n      swap1\n      log2\n        /* \"contracts/parmigianoaccesscontrol/ConsumerRole.sol\":1423:1540  function _addConsumer(address account) internal {\r... */\n      pop\n      jump\t// out\n        /* \"contracts/parmigianoaccesscontrol/Roles.sol\":761:934  function has(Role storage role, address account)\r... */\n    tag_25:\n        /* \"contracts/parmigianoaccesscontrol/Roles.sol\":848:852  bool */\n      0x0\n        /* \"contracts/parmigianoaccesscontrol/Roles.sol\":891:892  0 */\n      dup1\n        /* \"contracts/parmigianoaccesscontrol/Roles.sol\":872:893  account != address(0) */\n      0xffffffffffffffffffffffffffffffffffffffff\n      and\n        /* \"contracts/parmigianoaccesscontrol/Roles.sol\":872:879  account */\n      dup3\n        /* \"contracts/parmigianoaccesscontrol/Roles.sol\":872:893  account != address(0) */\n      0xffffffffffffffffffffffffffffffffffffffff\n      and\n      eq\n      iszero\n        /* \"contracts/parmigianoaccesscontrol/Roles.sol\":864:894  require(account != address(0)) */\n      iszero\n      iszero\n      tag_33\n      jumpi\n      0x0\n      dup1\n      revert\n    tag_33:\n        /* \"contracts/parmigianoaccesscontrol/Roles.sol\":908:912  role */\n      dup3\n        /* \"contracts/parmigianoaccesscontrol/Roles.sol\":908:919  role.bearer */\n      0x0\n      add\n        /* \"contracts/parmigianoaccesscontrol/Roles.sol\":908:928  role.bearer[account] */\n      0x0\n        /* \"contracts/parmigianoaccesscontrol/Roles.sol\":920:927  account */\n      dup4\n        /* \"contracts/parmigianoaccesscontrol/Roles.sol\":908:928  role.bearer[account] */\n      0xffffffffffffffffffffffffffffffffffffffff\n      and\n      0xffffffffffffffffffffffffffffffffffffffff\n      and\n      dup2\n      mstore\n      0x20\n      add\n      swap1\n      dup2\n      mstore\n      0x20\n      add\n      0x0\n      keccak256\n      0x0\n      swap1\n      sload\n      swap1\n      0x100\n      exp\n      swap1\n      div\n      0xff\n      and\n        /* \"contracts/parmigianoaccesscontrol/Roles.sol\":901:928  return role.bearer[account] */\n      swap1\n      pop\n        /* \"contracts/parmigianoaccesscontrol/Roles.sol\":761:934  function has(Role storage role, address account)\r... */\n      swap3\n      swap2\n      pop\n      pop\n      jump\t// out\n        /* \"contracts/parmigianoaccesscontrol/ConsumerRole.sol\":1646:1771  function _removeConsumer(address account) internal {\r... */\n    tag_28:\n        /* \"contracts/parmigianoaccesscontrol/ConsumerRole.sol\":1704:1729  consumers.remove(account) */\n      tag_35\n        /* \"contracts/parmigianoaccesscontrol/ConsumerRole.sol\":1721:1728  account */\n      dup2\n        /* \"contracts/parmigianoaccesscontrol/ConsumerRole.sol\":1704:1713  consumers */\n      0x0\n        /* \"contracts/parmigianoaccesscontrol/ConsumerRole.sol\":1704:1720  consumers.remove */\n      tag_36\n      swap1\n        /* \"contracts/parmigianoaccesscontrol/ConsumerRole.sol\":1704:1729  consumers.remove(account) */\n      swap2\n      swap1\n      0xffffffff\n      and\n      jump\t// in\n    tag_35:\n        /* \"contracts/parmigianoaccesscontrol/ConsumerRole.sol\":1757:1764  account */\n      dup1\n        /* \"contracts/parmigianoaccesscontrol/ConsumerRole.sol\":1741:1765  ConsumerRemoved(account) */\n      0xffffffffffffffffffffffffffffffffffffffff\n      and\n      0xe3f5ed5f263f1f01764a96edfc7d025f511ec5f7d180e8816908b78bcf74f098\n      mload(0x40)\n      mload(0x40)\n      dup1\n      swap2\n      sub\n      swap1\n      log2\n        /* \"contracts/parmigianoaccesscontrol/ConsumerRole.sol\":1646:1771  function _removeConsumer(address account) internal {\r... */\n      pop\n      jump\t// out\n        /* \"contracts/parmigianoaccesscontrol/Roles.sol\":259:431  function add(Role storage role, address account) internal {\r... */\n    tag_31:\n        /* \"contracts/parmigianoaccesscontrol/Roles.sol\":351:352  0 */\n      0x0\n        /* \"contracts/parmigianoaccesscontrol/Roles.sol\":332:353  account != address(0) */\n      0xffffffffffffffffffffffffffffffffffffffff\n      and\n        /* \"contracts/parmigianoaccesscontrol/Roles.sol\":332:339  account */\n      dup2\n        /* \"contracts/parmigianoaccesscontrol/Roles.sol\":332:353  account != address(0) */\n      0xffffffffffffffffffffffffffffffffffffffff\n      and\n      eq\n      iszero\n        /* \"contracts/parmigianoaccesscontrol/Roles.sol\":324:354  require(account != address(0)) */\n      iszero\n      iszero\n      tag_38\n      jumpi\n      0x0\n      dup1\n      revert\n    tag_38:\n        /* \"contracts/parmigianoaccesscontrol/Roles.sol\":370:388  has(role, account) */\n      tag_39\n        /* \"contracts/parmigianoaccesscontrol/Roles.sol\":374:378  role */\n      dup3\n        /* \"contracts/parmigianoaccesscontrol/Roles.sol\":380:387  account */\n      dup3\n        /* \"contracts/parmigianoaccesscontrol/Roles.sol\":370:373  has */\n      tag_25\n        /* \"contracts/parmigianoaccesscontrol/Roles.sol\":370:388  has(role, account) */\n      jump\t// in\n    tag_39:\n        /* \"contracts/parmigianoaccesscontrol/Roles.sol\":369:388  !has(role, account) */\n      iszero\n        /* \"contracts/parmigianoaccesscontrol/Roles.sol\":361:389  require(!has(role, account)) */\n      iszero\n      iszero\n      tag_40\n      jumpi\n      0x0\n      dup1\n      revert\n    tag_40:\n        /* \"contracts/parmigianoaccesscontrol/Roles.sol\":421:425  true */\n      0x1\n        /* \"contracts/parmigianoaccesscontrol/Roles.sol\":398:402  role */\n      dup3\n        /* \"contracts/parmigianoaccesscontrol/Roles.sol\":398:409  role.bearer */\n      0x0\n      add\n        /* \"contracts/parmigianoaccesscontrol/Roles.sol\":398:418  role.bearer[account] */\n      0x0\n        /* \"contracts/parmigianoaccesscontrol/Roles.sol\":410:417  account */\n      dup4\n        /* \"contracts/parmigianoaccesscontrol/Roles.sol\":398:418  role.bearer[account] */\n      0xffffffffffffffffffffffffffffffffffffffff\n      and\n      0xffffffffffffffffffffffffffffffffffffffff\n      and\n      dup2\n      mstore\n      0x20\n      add\n      swap1\n      dup2\n      mstore\n      0x20\n      add\n      0x0\n      keccak256\n      0x0\n        /* \"contracts/parmigianoaccesscontrol/Roles.sol\":398:425  role.bearer[account] = true */\n      0x100\n      exp\n      dup2\n      sload\n      dup2\n      0xff\n      mul\n      not\n      and\n      swap1\n      dup4\n      iszero\n      iszero\n      mul\n      or\n      swap1\n      sstore\n      pop\n        /* \"contracts/parmigianoaccesscontrol/Roles.sol\":259:431  function add(Role storage role, address account) internal {\r... */\n      pop\n      pop\n      jump\t// out\n        /* \"contracts/parmigianoaccesscontrol/Roles.sol\":502:677  function remove(Role storage role, address account) internal {\r... */\n    tag_36:\n        /* \"contracts/parmigianoaccesscontrol/Roles.sol\":597:598  0 */\n      0x0\n        /* \"contracts/parmigianoaccesscontrol/Roles.sol\":578:599  account != address(0) */\n      0xffffffffffffffffffffffffffffffffffffffff\n      and\n        /* \"contracts/parmigianoaccesscontrol/Roles.sol\":578:585  account */\n      dup2\n        /* \"contracts/parmigianoaccesscontrol/Roles.sol\":578:599  account != address(0) */\n      0xffffffffffffffffffffffffffffffffffffffff\n      and\n      eq\n      iszero\n        /* \"contracts/parmigianoaccesscontrol/Roles.sol\":570:600  require(account != address(0)) */\n      iszero\n      iszero\n      tag_42\n      jumpi\n      0x0\n      dup1\n      revert\n    tag_42:\n        /* \"contracts/parmigianoaccesscontrol/Roles.sol\":615:633  has(role, account) */\n      tag_43\n        /* \"contracts/parmigianoaccesscontrol/Roles.sol\":619:623  role */\n      dup3\n        /* \"contracts/parmigianoaccesscontrol/Roles.sol\":625:632  account */\n      dup3\n        /* \"contracts/parmigianoaccesscontrol/Roles.sol\":615:618  has */\n      tag_25\n        /* \"contracts/parmigianoaccesscontrol/Roles.sol\":615:633  has(role, account) */\n      jump\t// in\n    tag_43:\n        /* \"contracts/parmigianoaccesscontrol/Roles.sol\":607:634  require(has(role, account)) */\n      iszero\n      iszero\n      tag_44\n      jumpi\n      0x0\n      dup1\n      revert\n    tag_44:\n        /* \"contracts/parmigianoaccesscontrol/Roles.sol\":666:671  false */\n      0x0\n        /* \"contracts/parmigianoaccesscontrol/Roles.sol\":643:647  role */\n      dup3\n        /* \"contracts/parmigianoaccesscontrol/Roles.sol\":643:654  role.bearer */\n      0x0\n      add\n        /* \"contracts/parmigianoaccesscontrol/Roles.sol\":643:663  role.bearer[account] */\n      0x0\n        /* \"contracts/parmigianoaccesscontrol/Roles.sol\":655:662  account */\n      dup4\n        /* \"contracts/parmigianoaccesscontrol/Roles.sol\":643:663  role.bearer[account] */\n      0xffffffffffffffffffffffffffffffffffffffff\n      and\n      0xffffffffffffffffffffffffffffffffffffffff\n      and\n      dup2\n      mstore\n      0x20\n      add\n      swap1\n      dup2\n      mstore\n      0x20\n      add\n      0x0\n      keccak256\n      0x0\n        /* \"contracts/parmigianoaccesscontrol/Roles.sol\":643:671  role.bearer[account] = false */\n      0x100\n      exp\n      dup2\n      sload\n      dup2\n      0xff\n      mul\n      not\n      and\n      swap1\n      dup4\n      iszero\n      iszero\n      mul\n      or\n      swap1\n      sstore\n      pop\n        /* \"contracts/parmigianoaccesscontrol/Roles.sol\":502:677  function remove(Role storage role, address account) internal {\r... */\n      pop\n      pop\n      jump\t// out\n\n    auxdata: 0xa165627a7a72305820c54f48f7903bbe45c29030165e43f93dee1e4ce90ee765564b5149c0d093dd580029\n}\n",
				"bytecode": {
					"linkReferences": {},
					"object": "608060405234801561001057600080fd5b506100293361002e640100000000026401000000009004565b6101e8565b61004f816000610095640100000000026102f8179091906401000000009004565b8073ffffffffffffffffffffffffffffffffffffffff167f28b26e7a3d20aedbc5f8f2ebf7da671c0491723a2b78f47a097b0e46dee0714260405160405180910390a250565b600073ffffffffffffffffffffffffffffffffffffffff168173ffffffffffffffffffffffffffffffffffffffff16141515156100d157600080fd5b6100ea8282610154640100000000026401000000009004565b1515156100f657600080fd5b60018260000160008373ffffffffffffffffffffffffffffffffffffffff1673ffffffffffffffffffffffffffffffffffffffff16815260200190815260200160002060006101000a81548160ff0219169083151502179055505050565b60008073ffffffffffffffffffffffffffffffffffffffff168273ffffffffffffffffffffffffffffffffffffffff161415151561019157600080fd5b8260000160008373ffffffffffffffffffffffffffffffffffffffff1673ffffffffffffffffffffffffffffffffffffffff16815260200190815260200160002060009054906101000a900460ff16905092915050565b610483806101f76000396000f3fe608060405260043610610057576000357c0100000000000000000000000000000000000000000000000000000000900463ffffffff168063112940f91461005c578063834ff739146100ad578063f487d48d14610116575b600080fd5b34801561006857600080fd5b506100ab6004803603602081101561007f57600080fd5b81019080803573ffffffffffffffffffffffffffffffffffffffff169060200190929190505050610167565b005b3480156100b957600080fd5b506100fc600480360360208110156100d057600080fd5b81019080803573ffffffffffffffffffffffffffffffffffffffff169060200190929190505050610187565b604051808215151515815260200191505060405180910390f35b34801561012257600080fd5b506101656004803603602081101561013957600080fd5b81019080803573ffffffffffffffffffffffffffffffffffffffff1690602001909291905050506101a4565b005b61017033610187565b151561017b57600080fd5b610184816101b0565b50565b600061019d82600061020a90919063ffffffff16565b9050919050565b6101ad8161029e565b50565b6101c48160006102f890919063ffffffff16565b8073ffffffffffffffffffffffffffffffffffffffff167f28b26e7a3d20aedbc5f8f2ebf7da671c0491723a2b78f47a097b0e46dee0714260405160405180910390a250565b60008073ffffffffffffffffffffffffffffffffffffffff168273ffffffffffffffffffffffffffffffffffffffff161415151561024757600080fd5b8260000160008373ffffffffffffffffffffffffffffffffffffffff1673ffffffffffffffffffffffffffffffffffffffff16815260200190815260200160002060009054906101000a900460ff16905092915050565b6102b28160006103a890919063ffffffff16565b8073ffffffffffffffffffffffffffffffffffffffff167fe3f5ed5f263f1f01764a96edfc7d025f511ec5f7d180e8816908b78bcf74f09860405160405180910390a250565b600073ffffffffffffffffffffffffffffffffffffffff168173ffffffffffffffffffffffffffffffffffffffff161415151561033457600080fd5b61033e828261020a565b15151561034a57600080fd5b60018260000160008373ffffffffffffffffffffffffffffffffffffffff1673ffffffffffffffffffffffffffffffffffffffff16815260200190815260200160002060006101000a81548160ff0219169083151502179055505050565b600073ffffffffffffffffffffffffffffffffffffffff168173ffffffffffffffffffffffffffffffffffffffff16141515156103e457600080fd5b6103ee828261020a565b15156103f957600080fd5b60008260000160008373ffffffffffffffffffffffffffffffffffffffff1673ffffffffffffffffffffffffffffffffffffffff16815260200190815260200160002060006101000a81548160ff021916908315150217905550505056fea165627a7a72305820c54f48f7903bbe45c29030165e43f93dee1e4ce90ee765564b5149c0d093dd580029",
					"opcodes": "PUSH1 0x80 PUSH1 0x40 MSTORE CALLVALUE DUP1 ISZERO PUSH2 0x10 JUMPI PUSH1 0x0 DUP1 REVERT JUMPDEST POP PUSH2 0x29 CALLER PUSH2 0x2E PUSH5 0x100000000 MUL PUSH5 0x100000000 SWAP1 DIV JUMP JUMPDEST PUSH2 0x1E8 JUMP JUMPDEST PUSH2 0x4F DUP2 PUSH1 0x0 PUSH2 0x95 PUSH5 0x100000000 MUL PUSH2 0x2F8 OR SWAP1 SWAP2 SWAP1 PUSH5 0x100000000 SWAP1 DIV JUMP JUMPDEST DUP1 PUSH20 0xFFFFFFFFFFFFFFFFFFFFFFFFFFFFFFFFFFFFFFFF AND PUSH32 0x28B26E7A3D20AEDBC5F8F2EBF7DA671C0491723A2B78F47A097B0E46DEE07142 PUSH1 0x40 MLOAD PUSH1 0x40 MLOAD DUP1 SWAP2 SUB SWAP1 LOG2 POP JUMP JUMPDEST PUSH1 0x0 PUSH20 0xFFFFFFFFFFFFFFFFFFFFFFFFFFFFFFFFFFFFFFFF AND DUP2 PUSH20 0xFFFFFFFFFFFFFFFFFFFFFFFFFFFFFFFFFFFFFFFF AND EQ ISZERO ISZERO ISZERO PUSH2 0xD1 JUMPI PUSH1 0x0 DUP1 REVERT JUMPDEST PUSH2 0xEA DUP3 DUP3 PUSH2 0x154 PUSH5 0x100000000 MUL PUSH5 0x100000000 SWAP1 DIV JUMP JUMPDEST ISZERO ISZERO ISZERO PUSH2 0xF6 JUMPI PUSH1 0x0 DUP1 REVERT JUMPDEST PUSH1 0x1 DUP3 PUSH1 0x0 ADD PUSH1 0x0 DUP4 PUSH20 0xFFFFFFFFFFFFFFFFFFFFFFFFFFFFFFFFFFFFFFFF AND PUSH20 0xFFFFFFFFFFFFFFFFFFFFFFFFFFFFFFFFFFFFFFFF AND DUP2 MSTORE PUSH1 0x20 ADD SWAP1 DUP2 MSTORE PUSH1 0x20 ADD PUSH1 0x0 KECCAK256 PUSH1 0x0 PUSH2 0x100 EXP DUP2 SLOAD DUP2 PUSH1 0xFF MUL NOT AND SWAP1 DUP4 ISZERO ISZERO MUL OR SWAP1 SSTORE POP POP POP JUMP JUMPDEST PUSH1 0x0 DUP1 PUSH20 0xFFFFFFFFFFFFFFFFFFFFFFFFFFFFFFFFFFFFFFFF AND DUP3 PUSH20 0xFFFFFFFFFFFFFFFFFFFFFFFFFFFFFFFFFFFFFFFF AND EQ ISZERO ISZERO ISZERO PUSH2 0x191 JUMPI PUSH1 0x0 DUP1 REVERT JUMPDEST DUP3 PUSH1 0x0 ADD PUSH1 0x0 DUP4 PUSH20 0xFFFFFFFFFFFFFFFFFFFFFFFFFFFFFFFFFFFFFFFF AND PUSH20 0xFFFFFFFFFFFFFFFFFFFFFFFFFFFFFFFFFFFFFFFF AND DUP2 MSTORE PUSH1 0x20 ADD SWAP1 DUP2 MSTORE PUSH1 0x20 ADD PUSH1 0x0 KECCAK256 PUSH1 0x0 SWAP1 SLOAD SWAP1 PUSH2 0x100 EXP SWAP1 DIV PUSH1 0xFF AND SWAP1 POP SWAP3 SWAP2 POP POP JUMP JUMPDEST PUSH2 0x483 DUP1 PUSH2 0x1F7 PUSH1 0x0 CODECOPY PUSH1 0x0 RETURN INVALID PUSH1 0x80 PUSH1 0x40 MSTORE PUSH1 0x4 CALLDATASIZE LT PUSH2 0x57 JUMPI PUSH1 0x0 CALLDATALOAD PUSH29 0x100000000000000000000000000000000000000000000000000000000 SWAP1 DIV PUSH4 0xFFFFFFFF AND DUP1 PUSH4 0x112940F9 EQ PUSH2 0x5C JUMPI DUP1 PUSH4 0x834FF739 EQ PUSH2 0xAD JUMPI DUP1 PUSH4 0xF487D48D EQ PUSH2 0x116 JUMPI JUMPDEST PUSH1 0x0 DUP1 REVERT JUMPDEST CALLVALUE DUP1 ISZERO PUSH2 0x68 JUMPI PUSH1 0x0 DUP1 REVERT JUMPDEST POP PUSH2 0xAB PUSH1 0x4 DUP1 CALLDATASIZE SUB PUSH1 0x20 DUP2 LT ISZERO PUSH2 0x7F JUMPI PUSH1 0x0 DUP1 REVERT JUMPDEST DUP2 ADD SWAP1 DUP1 DUP1 CALLDATALOAD PUSH20 0xFFFFFFFFFFFFFFFFFFFFFFFFFFFFFFFFFFFFFFFF AND SWAP1 PUSH1 0x20 ADD SWAP1 SWAP3 SWAP2 SWAP1 POP POP POP PUSH2 0x167 JUMP JUMPDEST STOP JUMPDEST CALLVALUE DUP1 ISZERO PUSH2 0xB9 JUMPI PUSH1 0x0 DUP1 REVERT JUMPDEST POP PUSH2 0xFC PUSH1 0x4 DUP1 CALLDATASIZE SUB PUSH1 0x20 DUP2 LT ISZERO PUSH2 0xD0 JUMPI PUSH1 0x0 DUP1 REVERT JUMPDEST DUP2 ADD SWAP1 DUP1 DUP1 CALLDATALOAD PUSH20 0xFFFFFFFFFFFFFFFFFFFFFFFFFFFFFFFFFFFFFFFF AND SWAP1 PUSH1 0x20 ADD SWAP1 SWAP3 SWAP2 SWAP1 POP POP POP PUSH2 0x187 JUMP JUMPDEST PUSH1 0x40 MLOAD DUP1 DUP3 ISZERO ISZERO ISZERO ISZERO DUP2 MSTORE PUSH1 0x20 ADD SWAP2 POP POP PUSH1 0x40 MLOAD DUP1 SWAP2 SUB SWAP1 RETURN JUMPDEST CALLVALUE DUP1 ISZERO PUSH2 0x122 JUMPI PUSH1 0x0 DUP1 REVERT JUMPDEST POP PUSH2 0x165 PUSH1 0x4 DUP1 CALLDATASIZE SUB PUSH1 0x20 DUP2 LT ISZERO PUSH2 0x139 JUMPI PUSH1 0x0 DUP1 REVERT JUMPDEST DUP2 ADD SWAP1 DUP1 DUP1 CALLDATALOAD PUSH20 0xFFFFFFFFFFFFFFFFFFFFFFFFFFFFFFFFFFFFFFFF AND SWAP1 PUSH1 0x20 ADD SWAP1 SWAP3 SWAP2 SWAP1 POP POP POP PUSH2 0x1A4 JUMP JUMPDEST STOP JUMPDEST PUSH2 0x170 CALLER PUSH2 0x187 JUMP JUMPDEST ISZERO ISZERO PUSH2 0x17B JUMPI PUSH1 0x0 DUP1 REVERT JUMPDEST PUSH2 0x184 DUP2 PUSH2 0x1B0 JUMP JUMPDEST POP JUMP JUMPDEST PUSH1 0x0 PUSH2 0x19D DUP3 PUSH1 0x0 PUSH2 0x20A SWAP1 SWAP2 SWAP1 PUSH4 0xFFFFFFFF AND JUMP JUMPDEST SWAP1 POP SWAP2 SWAP1 POP JUMP JUMPDEST PUSH2 0x1AD DUP2 PUSH2 0x29E JUMP JUMPDEST POP JUMP JUMPDEST PUSH2 0x1C4 DUP2 PUSH1 0x0 PUSH2 0x2F8 SWAP1 SWAP2 SWAP1 PUSH4 0xFFFFFFFF AND JUMP JUMPDEST DUP1 PUSH20 0xFFFFFFFFFFFFFFFFFFFFFFFFFFFFFFFFFFFFFFFF AND PUSH32 0x28B26E7A3D20AEDBC5F8F2EBF7DA671C0491723A2B78F47A097B0E46DEE07142 PUSH1 0x40 MLOAD PUSH1 0x40 MLOAD DUP1 SWAP2 SUB SWAP1 LOG2 POP JUMP JUMPDEST PUSH1 0x0 DUP1 PUSH20 0xFFFFFFFFFFFFFFFFFFFFFFFFFFFFFFFFFFFFFFFF AND DUP3 PUSH20 0xFFFFFFFFFFFFFFFFFFFFFFFFFFFFFFFFFFFFFFFF AND EQ ISZERO ISZERO ISZERO PUSH2 0x247 JUMPI PUSH1 0x0 DUP1 REVERT JUMPDEST DUP3 PUSH1 0x0 ADD PUSH1 0x0 DUP4 PUSH20 0xFFFFFFFFFFFFFFFFFFFFFFFFFFFFFFFFFFFFFFFF AND PUSH20 0xFFFFFFFFFFFFFFFFFFFFFFFFFFFFFFFFFFFFFFFF AND DUP2 MSTORE PUSH1 0x20 ADD SWAP1 DUP2 MSTORE PUSH1 0x20 ADD PUSH1 0x0 KECCAK256 PUSH1 0x0 SWAP1 SLOAD SWAP1 PUSH2 0x100 EXP SWAP1 DIV PUSH1 0xFF AND SWAP1 POP SWAP3 SWAP2 POP POP JUMP JUMPDEST PUSH2 0x2B2 DUP2 PUSH1 0x0 PUSH2 0x3A8 SWAP1 SWAP2 SWAP1 PUSH4 0xFFFFFFFF AND JUMP JUMPDEST DUP1 PUSH20 0xFFFFFFFFFFFFFFFFFFFFFFFFFFFFFFFFFFFFFFFF AND PUSH32 0xE3F5ED5F263F1F01764A96EDFC7D025F511EC5F7D180E8816908B78BCF74F098 PUSH1 0x40 MLOAD PUSH1 0x40 MLOAD DUP1 SWAP2 SUB SWAP1 LOG2 POP JUMP JUMPDEST PUSH1 0x0 PUSH20 0xFFFFFFFFFFFFFFFFFFFFFFFFFFFFFFFFFFFFFFFF AND DUP2 PUSH20 0xFFFFFFFFFFFFFFFFFFFFFFFFFFFFFFFFFFFFFFFF AND EQ ISZERO ISZERO ISZERO PUSH2 0x334 JUMPI PUSH1 0x0 DUP1 REVERT JUMPDEST PUSH2 0x33E DUP3 DUP3 PUSH2 0x20A JUMP JUMPDEST ISZERO ISZERO ISZERO PUSH2 0x34A JUMPI PUSH1 0x0 DUP1 REVERT JUMPDEST PUSH1 0x1 DUP3 PUSH1 0x0 ADD PUSH1 0x0 DUP4 PUSH20 0xFFFFFFFFFFFFFFFFFFFFFFFFFFFFFFFFFFFFFFFF AND PUSH20 0xFFFFFFFFFFFFFFFFFFFFFFFFFFFFFFFFFFFFFFFF AND DUP2 MSTORE PUSH1 0x20 ADD SWAP1 DUP2 MSTORE PUSH1 0x20 ADD PUSH1 0x0 KECCAK256 PUSH1 0x0 PUSH2 0x100 EXP DUP2 SLOAD DUP2 PUSH1 0xFF MUL NOT AND SWAP1 DUP4 ISZERO ISZERO MUL OR SWAP1 SSTORE POP POP POP JUMP JUMPDEST PUSH1 0x0 PUSH20 0xFFFFFFFFFFFFFFFFFFFFFFFFFFFFFFFFFFFFFFFF AND DUP2 PUSH20 0xFFFFFFFFFFFFFFFFFFFFFFFFFFFFFFFFFFFFFFFF AND EQ ISZERO ISZERO ISZERO PUSH2 0x3E4 JUMPI PUSH1 0x0 DUP1 REVERT JUMPDEST PUSH2 0x3EE DUP3 DUP3 PUSH2 0x20A JUMP JUMPDEST ISZERO ISZERO PUSH2 0x3F9 JUMPI PUSH1 0x0 DUP1 REVERT JUMPDEST PUSH1 0x0 DUP3 PUSH1 0x0 ADD PUSH1 0x0 DUP4 PUSH20 0xFFFFFFFFFFFFFFFFFFFFFFFFFFFFFFFFFFFFFFFF AND PUSH20 0xFFFFFFFFFFFFFFFFFFFFFFFFFFFFFFFFFFFFFFFF AND DUP2 MSTORE PUSH1 0x20 ADD SWAP1 DUP2 MSTORE PUSH1 0x20 ADD PUSH1 0x0 KECCAK256 PUSH1 0x0 PUSH2 0x100 EXP DUP2 SLOAD DUP2 PUSH1 0xFF MUL NOT AND SWAP1 DUP4 ISZERO ISZERO MUL OR SWAP1 SSTORE POP POP POP JUMP INVALID LOG1 PUSH6 0x627A7A723058 KECCAK256 0xc5 0x4f 0x48 0xf7 SWAP1 EXTCODESIZE 0xbe GASLIMIT 0xc2 SWAP1 ADDRESS AND 0x5e NUMBER 0xf9 RETURNDATASIZE 0xee 0x1e 0x4c 0xe9 0xe 0xe7 PUSH6 0x564B5149C0D0 SWAP4 0xdd PC STOP 0x29 "
				},
				"gasEstimates": {
					"creation": {
						"codeDepositCost": "231000",
						"executionCost": "infinite",
						"totalCost": "infinite"
					},
					"external": {
						"addConsumer(address)": "infinite",
						"isConsumer(address)": "infinite",
						"renounceConsumer(address)": "infinite"
					},
					"internal": {
						"_addConsumer(address)": "infinite",
						"_removeConsumer(address)": "infinite"
					}
				},
				"methodIdentifiers": {
					"addConsumer(address)": "112940f9",
					"isConsumer(address)": "834ff739",
					"renounceConsumer(address)": "f487d48d"
				}
			},
			"userdoc": {
				"methods": {}
			}
		}
	}
}