{
	"contracts/parmigianobase/SupplyChain.sol": {
		"SupplyChain": {
			"abi": [
				{
					"constant": false,
					"inputs": [
						{
							"name": "account",
							"type": "address"
						}
					],
					"name": "addConsumer",
					"outputs": [],
					"payable": false,
					"stateMutability": "nonpayable",
					"type": "function"
				},
				{
					"constant": true,
					"inputs": [
						{
							"name": "_upc",
							"type": "uint256"
						}
					],
					"name": "fetchitemHistory",
					"outputs": [
						{
							"name": "blockCarParts_ManufacturerToDistributor",
							"type": "uint256"
						},
						{
							"name": "blockDistributorToRetailer",
							"type": "uint256"
						},
						{
							"name": "blockRetailerToConsumer",
							"type": "uint256"
						}
					],
					"payable": false,
					"stateMutability": "view",
					"type": "function"
				},
				{
					"constant": false,
					"inputs": [
						{
							"name": "_upc",
							"type": "uint256"
						}
					],
					"name": "shippedItemByCarParts_Manufacturer",
					"outputs": [],
					"payable": true,
					"stateMutability": "payable",
					"type": "function"
				},
				{
					"constant": false,
					"inputs": [
						{
							"name": "_upc",
							"type": "uint256"
						},
						{
							"name": "_price",
							"type": "uint256"
						}
					],
					"name": "sellItemByCarParts_Manufacturer",
					"outputs": [],
					"payable": false,
					"stateMutability": "nonpayable",
					"type": "function"
				},
				{
					"constant": false,
					"inputs": [
						{
							"name": "_upc",
							"type": "uint256"
						}
					],
					"name": "receivedItemByDistributor",
					"outputs": [],
					"payable": false,
					"stateMutability": "nonpayable",
					"type": "function"
				},
				{
					"constant": false,
					"inputs": [
						{
							"name": "_upc",
							"type": "uint256"
						}
					],
					"name": "purchaseItemByRetailer",
					"outputs": [],
					"payable": true,
					"stateMutability": "payable",
					"type": "function"
				},
				{
					"constant": false,
					"inputs": [
						{
							"name": "_upc",
							"type": "uint256"
						}
					],
					"name": "receivedItemByRetailer",
					"outputs": [],
					"payable": false,
					"stateMutability": "nonpayable",
					"type": "function"
				},
				{
					"constant": false,
					"inputs": [
						{
							"name": "account",
							"type": "address"
						}
					],
					"name": "addCarParts_Manufacturer",
					"outputs": [],
					"payable": false,
					"stateMutability": "nonpayable",
					"type": "function"
				},
				{
					"constant": false,
					"inputs": [],
					"name": "kill",
					"outputs": [],
					"payable": false,
					"stateMutability": "nonpayable",
					"type": "function"
				},
				{
					"constant": false,
					"inputs": [
						{
							"name": "_upc",
							"type": "uint256"
						},
						{
							"name": "_originFarmName",
							"type": "string"
						},
						{
							"name": "_originFarmInformation",
							"type": "string"
						},
						{
							"name": "_originFarmLatitude",
							"type": "string"
						},
						{
							"name": "_originFarmLongitude",
							"type": "string"
						},
						{
							"name": "_productNotes",
							"type": "string"
						},
						{
							"name": "_price",
							"type": "uint256"
						}
					],
					"name": "produceItemByCarParts_Manufacturer",
					"outputs": [],
					"payable": false,
					"stateMutability": "nonpayable",
					"type": "function"
				},
				{
					"constant": false,
					"inputs": [
						{
							"name": "_upc",
							"type": "uint256"
						},
						{
							"name": "_price",
							"type": "uint256"
						}
					],
					"name": "sellItemByRetailer",
					"outputs": [],
					"payable": false,
					"stateMutability": "nonpayable",
					"type": "function"
				},
				{
					"constant": true,
					"inputs": [
						{
							"name": "account",
							"type": "address"
						}
					],
					"name": "isRetailer",
					"outputs": [
						{
							"name": "",
							"type": "bool"
						}
					],
					"payable": false,
					"stateMutability": "view",
					"type": "function"
				},
				{
					"constant": false,
					"inputs": [],
					"name": "renounceDistributor",
					"outputs": [],
					"payable": false,
					"stateMutability": "nonpayable",
					"type": "function"
				},
				{
					"constant": true,
					"inputs": [
						{
							"name": "_upc",
							"type": "uint256"
						}
					],
					"name": "fetchItemBufferTwo",
					"outputs": [
						{
							"name": "itemSKU",
							"type": "uint256"
						},
						{
							"name": "itemUPC",
							"type": "uint256"
						},
						{
							"name": "productID",
							"type": "uint256"
						},
						{
							"name": "productNotes",
							"type": "string"
						},
						{
							"name": "productPrice",
							"type": "uint256"
						},
						{
							"name": "productDate",
							"type": "uint256"
						},
						{
							"name": "itemState",
							"type": "uint8"
						},
						{
							"name": "distributorID",
							"type": "address"
						},
						{
							"name": "retailerID",
							"type": "address"
						},
						{
							"name": "consumerID",
							"type": "address"
						}
					],
					"payable": false,
					"stateMutability": "view",
					"type": "function"
				},
				{
					"constant": false,
					"inputs": [],
					"name": "renounceOwnership",
					"outputs": [],
					"payable": false,
					"stateMutability": "nonpayable",
					"type": "function"
				},
				{
					"constant": false,
					"inputs": [
						{
							"name": "account",
							"type": "address"
						}
					],
					"name": "addDistributor",
					"outputs": [],
					"payable": false,
					"stateMutability": "nonpayable",
					"type": "function"
				},
				{
					"constant": true,
					"inputs": [
						{
							"name": "_upc",
							"type": "uint256"
						}
					],
					"name": "fetchItemBufferOne",
					"outputs": [
						{
							"name": "itemSKU",
							"type": "uint256"
						},
						{
							"name": "itemUPC",
							"type": "uint256"
						},
						{
							"name": "ownerID",
							"type": "address"
						},
						{
							"name": "originCarParts_ManufacturerID",
							"type": "address"
						},
						{
							"name": "originFarmName",
							"type": "string"
						},
						{
							"name": "originFarmInformation",
							"type": "string"
						},
						{
							"name": "originFarmLatitude",
							"type": "string"
						},
						{
							"name": "originFarmLongitude",
							"type": "string"
						},
						{
							"name": "productDate",
							"type": "uint256"
						},
						{
							"name": "productSliced",
							"type": "uint256"
						}
					],
					"payable": false,
					"stateMutability": "view",
					"type": "function"
				},
				{
					"constant": false,
					"inputs": [
						{
							"name": "_upc",
							"type": "uint256"
						}
					],
					"name": "shippedItemByDistributor",
					"outputs": [],
					"payable": false,
					"stateMutability": "nonpayable",
					"type": "function"
				},
				{
					"constant": true,
					"inputs": [
						{
							"name": "account",
							"type": "address"
						}
					],
					"name": "isConsumer",
					"outputs": [
						{
							"name": "",
							"type": "bool"
						}
					],
					"payable": false,
					"stateMutability": "view",
					"type": "function"
				},
				{
					"constant": false,
					"inputs": [
						{
							"name": "_upc",
							"type": "uint256"
						},
						{
							"name": "_price",
							"type": "uint256"
						}
					],
					"name": "sellItemByDistributor",
					"outputs": [],
					"payable": false,
					"stateMutability": "nonpayable",
					"type": "function"
				},
				{
					"constant": false,
					"inputs": [
						{
							"name": "account",
							"type": "address"
						}
					],
					"name": "addRetailer",
					"outputs": [],
					"payable": false,
					"stateMutability": "nonpayable",
					"type": "function"
				},
				{
					"constant": true,
					"inputs": [
						{
							"name": "account",
							"type": "address"
						}
					],
					"name": "isDistributor",
					"outputs": [
						{
							"name": "",
							"type": "bool"
						}
					],
					"payable": false,
					"stateMutability": "view",
					"type": "function"
				},
				{
					"constant": true,
					"inputs": [],
					"name": "isOwner",
					"outputs": [
						{
							"name": "",
							"type": "bool"
						}
					],
					"payable": false,
					"stateMutability": "view",
					"type": "function"
				},
				{
					"constant": false,
					"inputs": [
						{
							"name": "_upc",
							"type": "uint256"
						}
					],
					"name": "packageItemByDistributor",
					"outputs": [],
					"payable": false,
					"stateMutability": "nonpayable",
					"type": "function"
				},
				{
					"constant": true,
					"inputs": [
						{
							"name": "account",
							"type": "address"
						}
					],
					"name": "isCarParts_Manufacturer",
					"outputs": [
						{
							"name": "",
							"type": "bool"
						}
					],
					"payable": false,
					"stateMutability": "view",
					"type": "function"
				},
				{
					"constant": false,
					"inputs": [],
					"name": "renounceRetailer",
					"outputs": [],
					"payable": false,
					"stateMutability": "nonpayable",
					"type": "function"
				},
				{
					"constant": false,
					"inputs": [
						{
							"name": "_upc",
							"type": "uint256"
						}
					],
					"name": "purchaseItemByConsumer",
					"outputs": [],
					"payable": true,
					"stateMutability": "payable",
					"type": "function"
				},
				{
					"constant": true,
					"inputs": [],
					"name": "ownerLookup",
					"outputs": [
						{
							"name": "",
							"type": "address"
						}
					],
					"payable": false,
					"stateMutability": "view",
					"type": "function"
				},
				{
					"constant": false,
					"inputs": [
						{
							"name": "_upc",
							"type": "uint256"
						},
						{
							"name": "slices",
							"type": "uint256"
						}
					],
					"name": "processedItemByDistributor",
					"outputs": [],
					"payable": false,
					"stateMutability": "nonpayable",
					"type": "function"
				},
				{
					"constant": false,
					"inputs": [
						{
							"name": "newOwner",
							"type": "address"
						}
					],
					"name": "transferOwnership",
					"outputs": [],
					"payable": false,
					"stateMutability": "nonpayable",
					"type": "function"
				},
				{
					"constant": false,
					"inputs": [
						{
							"name": "account",
							"type": "address"
						}
					],
					"name": "renounceConsumer",
					"outputs": [],
					"payable": false,
					"stateMutability": "nonpayable",
					"type": "function"
				},
				{
					"constant": false,
					"inputs": [
						{
							"name": "_upc",
							"type": "uint256"
						}
					],
					"name": "purchaseItemByDistributor",
					"outputs": [],
					"payable": true,
					"stateMutability": "payable",
					"type": "function"
				},
				{
					"constant": false,
					"inputs": [],
					"name": "renounceCarParts_Manufacturer",
					"outputs": [],
					"payable": false,
					"stateMutability": "nonpayable",
					"type": "function"
				},
				{
					"inputs": [],
					"payable": true,
					"stateMutability": "payable",
					"type": "constructor"
				},
				{
					"anonymous": false,
					"inputs": [
						{
							"indexed": false,
							"name": "upc",
							"type": "uint256"
						}
					],
					"name": "ProduceByCarParts_Manufacturer",
					"type": "event"
				},
				{
					"anonymous": false,
					"inputs": [
						{
							"indexed": false,
							"name": "upc",
							"type": "uint256"
						}
					],
					"name": "ForSaleByCarParts_Manufacturer",
					"type": "event"
				},
				{
					"anonymous": false,
					"inputs": [
						{
							"indexed": false,
							"name": "upc",
							"type": "uint256"
						}
					],
					"name": "PurchasedByDistributor",
					"type": "event"
				},
				{
					"anonymous": false,
					"inputs": [
						{
							"indexed": false,
							"name": "upc",
							"type": "uint256"
						}
					],
					"name": "ShippedByCarParts_Manufacturer",
					"type": "event"
				},
				{
					"anonymous": false,
					"inputs": [
						{
							"indexed": false,
							"name": "upc",
							"type": "uint256"
						}
					],
					"name": "ReceivedByDistributor",
					"type": "event"
				},
				{
					"anonymous": false,
					"inputs": [
						{
							"indexed": false,
							"name": "upc",
							"type": "uint256"
						}
					],
					"name": "ProcessedByDistributor",
					"type": "event"
				},
				{
					"anonymous": false,
					"inputs": [
						{
							"indexed": false,
							"name": "upc",
							"type": "uint256"
						}
					],
					"name": "PackagedByDistributor",
					"type": "event"
				},
				{
					"anonymous": false,
					"inputs": [
						{
							"indexed": false,
							"name": "upc",
							"type": "uint256"
						}
					],
					"name": "ForSaleByDistributor",
					"type": "event"
				},
				{
					"anonymous": false,
					"inputs": [
						{
							"indexed": false,
							"name": "upc",
							"type": "uint256"
						}
					],
					"name": "PurchasedByRetailer",
					"type": "event"
				},
				{
					"anonymous": false,
					"inputs": [
						{
							"indexed": false,
							"name": "upc",
							"type": "uint256"
						}
					],
					"name": "ShippedByDistributor",
					"type": "event"
				},
				{
					"anonymous": false,
					"inputs": [
						{
							"indexed": false,
							"name": "upc",
							"type": "uint256"
						}
					],
					"name": "ReceivedByRetailer",
					"type": "event"
				},
				{
					"anonymous": false,
					"inputs": [
						{
							"indexed": false,
							"name": "upc",
							"type": "uint256"
						}
					],
					"name": "ForSaleByRetailer",
					"type": "event"
				},
				{
					"anonymous": false,
					"inputs": [
						{
							"indexed": false,
							"name": "upc",
							"type": "uint256"
						}
					],
					"name": "PurchasedByConsumer",
					"type": "event"
				},
				{
					"anonymous": false,
					"inputs": [
						{
							"indexed": true,
							"name": "account",
							"type": "address"
						}
					],
					"name": "ConsumerAdded",
					"type": "event"
				},
				{
					"anonymous": false,
					"inputs": [
						{
							"indexed": true,
							"name": "account",
							"type": "address"
						}
					],
					"name": "ConsumerRemoved",
					"type": "event"
				},
				{
					"anonymous": false,
					"inputs": [
						{
							"indexed": true,
							"name": "account",
							"type": "address"
						}
					],
					"name": "RetailerAdded",
					"type": "event"
				},
				{
					"anonymous": false,
					"inputs": [
						{
							"indexed": true,
							"name": "account",
							"type": "address"
						}
					],
					"name": "RetailerRemoved",
					"type": "event"
				},
				{
					"anonymous": false,
					"inputs": [
						{
							"indexed": true,
							"name": "account",
							"type": "address"
						}
					],
					"name": "DistributorAdded",
					"type": "event"
				},
				{
					"anonymous": false,
					"inputs": [
						{
							"indexed": true,
							"name": "account",
							"type": "address"
						}
					],
					"name": "DistributorRemoved",
					"type": "event"
				},
				{
					"anonymous": false,
					"inputs": [
						{
							"indexed": true,
							"name": "account",
							"type": "address"
						}
					],
					"name": "CarParts_ManufacturerAdded",
					"type": "event"
				},
				{
					"anonymous": false,
					"inputs": [
						{
							"indexed": true,
							"name": "account",
							"type": "address"
						}
					],
					"name": "CarParts_ManufacturerRemoved",
					"type": "event"
				},
				{
					"anonymous": false,
					"inputs": [
						{
							"indexed": true,
							"name": "oldOwner",
							"type": "address"
						},
						{
							"indexed": true,
							"name": "newOwner",
							"type": "address"
						}
					],
					"name": "TransferOwnership",
					"type": "event"
				}
			],
			"devdoc": {
				"methods": {}
			},
			"evm": {
				"assembly": "    /* \"contracts/parmigianobase/SupplyChain.sol\":370:18364  contract SupplyChain is Ownable,CarParts_ManufacturerRole,DistributorRole,RetailerRole,ConsumerRole {\r... */\n  mstore(0x40, 0x80)\n    /* \"contracts/parmigianocore/Ownable.sol\":325:335  msg.sender */\n  caller\n    /* \"contracts/parmigianocore/Ownable.sol\":313:322  origOwner */\n  0x0\n  dup1\n    /* \"contracts/parmigianocore/Ownable.sol\":313:335  origOwner = msg.sender */\n  0x100\n  exp\n  dup2\n  sload\n  dup2\n  0xffffffffffffffffffffffffffffffffffffffff\n  mul\n  not\n  and\n  swap1\n  dup4\n  0xffffffffffffffffffffffffffffffffffffffff\n  and\n  mul\n  or\n  swap1\n  sstore\n  pop\n    /* \"contracts/parmigianocore/Ownable.sol\":381:390  origOwner */\n  0x0\n  dup1\n  swap1\n  sload\n  swap1\n  0x100\n  exp\n  swap1\n  div\n  0xffffffffffffffffffffffffffffffffffffffff\n  and\n    /* \"contracts/parmigianocore/Ownable.sol\":351:391  TransferOwnership(address(0), origOwner) */\n  0xffffffffffffffffffffffffffffffffffffffff\n  and\n    /* \"contracts/parmigianocore/Ownable.sol\":377:378  0 */\n  0x0\n    /* \"contracts/parmigianocore/Ownable.sol\":351:391  TransferOwnership(address(0), origOwner) */\n  0xffffffffffffffffffffffffffffffffffffffff\n  and\n  0x5c486528ec3e3f0ea91181cff8116f02bfa350e03b8b6f12e00765adbb5af85c\n  mload(0x40)\n  mload(0x40)\n  dup1\n  swap2\n  sub\n  swap1\n  log3\n    /* \"contracts/parmigianoaccesscontrol/CarParts_ManufacturerRole.sol\":709:746  _addCarParts_Manufacturer(msg.sender) */\n  tag_9\n    /* \"contracts/parmigianoaccesscontrol/CarParts_ManufacturerRole.sol\":735:745  msg.sender */\n  caller\n    /* \"contracts/parmigianoaccesscontrol/CarParts_ManufacturerRole.sol\":709:734  _addCarParts_Manufacturer */\n  mul(0x100000000, tag_10)\n    /* \"contracts/parmigianoaccesscontrol/CarParts_ManufacturerRole.sol\":709:746  _addCarParts_Manufacturer(msg.sender) */\n  0x100000000\n  swap1\n  div\n  jump\t// in\ntag_9:\n    /* \"contracts/parmigianoaccesscontrol/DistributorRole.sol\":633:660  _addDistributor(msg.sender) */\n  tag_12\n    /* \"contracts/parmigianoaccesscontrol/DistributorRole.sol\":649:659  msg.sender */\n  caller\n    /* \"contracts/parmigianoaccesscontrol/DistributorRole.sol\":633:648  _addDistributor */\n  mul(0x100000000, tag_13)\n    /* \"contracts/parmigianoaccesscontrol/DistributorRole.sol\":633:660  _addDistributor(msg.sender) */\n  0x100000000\n  swap1\n  div\n  jump\t// in\ntag_12:\n    /* \"contracts/parmigianoaccesscontrol/RetailerRole.sol\":618:642  _addRetailer(msg.sender) */\n  tag_15\n    /* \"contracts/parmigianoaccesscontrol/RetailerRole.sol\":631:641  msg.sender */\n  caller\n    /* \"contracts/parmigianoaccesscontrol/RetailerRole.sol\":618:630  _addRetailer */\n  mul(0x100000000, tag_16)\n    /* \"contracts/parmigianoaccesscontrol/RetailerRole.sol\":618:642  _addRetailer(msg.sender) */\n  0x100000000\n  swap1\n  div\n  jump\t// in\ntag_15:\n    /* \"contracts/parmigianoaccesscontrol/ConsumerRole.sol\":650:674  _addConsumer(msg.sender) */\n  tag_18\n    /* \"contracts/parmigianoaccesscontrol/ConsumerRole.sol\":663:673  msg.sender */\n  caller\n    /* \"contracts/parmigianoaccesscontrol/ConsumerRole.sol\":650:662  _addConsumer */\n  mul(0x100000000, tag_19)\n    /* \"contracts/parmigianoaccesscontrol/ConsumerRole.sol\":650:674  _addConsumer(msg.sender) */\n  0x100000000\n  swap1\n  div\n  jump\t// in\ntag_18:\n    /* \"contracts/parmigianobase/SupplyChain.sol\":6614:6624  msg.sender */\n  caller\n    /* \"contracts/parmigianobase/SupplyChain.sol\":6606:6611  owner */\n  0x5\n  0x0\n    /* \"contracts/parmigianobase/SupplyChain.sol\":6606:6624  owner = msg.sender */\n  0x100\n  exp\n  dup2\n  sload\n  dup2\n  0xffffffffffffffffffffffffffffffffffffffff\n  mul\n  not\n  and\n  swap1\n  dup4\n  0xffffffffffffffffffffffffffffffffffffffff\n  and\n  mul\n  or\n  swap1\n  sstore\n  pop\n    /* \"contracts/parmigianobase/SupplyChain.sol\":6637:6638  1 */\n  0x1\n    /* \"contracts/parmigianobase/SupplyChain.sol\":6631:6634  sku */\n  0x7\n    /* \"contracts/parmigianobase/SupplyChain.sol\":6631:6638  sku = 1 */\n  dup2\n  swap1\n  sstore\n  pop\n    /* \"contracts/parmigianobase/SupplyChain.sol\":6651:6652  1 */\n  0x1\n    /* \"contracts/parmigianobase/SupplyChain.sol\":6645:6648  upc */\n  0x6\n    /* \"contracts/parmigianobase/SupplyChain.sol\":6645:6652  upc = 1 */\n  dup2\n  swap1\n  sstore\n  pop\n    /* \"contracts/parmigianobase/SupplyChain.sol\":370:18364  contract SupplyChain is Ownable,CarParts_ManufacturerRole,DistributorRole,RetailerRole,ConsumerRole {\r... */\n  jump(tag_21)\n    /* \"contracts/parmigianoaccesscontrol/CarParts_ManufacturerRole.sol\":1665:1821  function _addCarParts_Manufacturer(address account) internal {\r... */\ntag_10:\n    /* \"contracts/parmigianoaccesscontrol/CarParts_ManufacturerRole.sol\":1733:1768  carParts_Manufacturers.add(account) */\n  tag_23\n    /* \"contracts/parmigianoaccesscontrol/CarParts_ManufacturerRole.sol\":1760:1767  account */\n  dup2\n    /* \"contracts/parmigianoaccesscontrol/CarParts_ManufacturerRole.sol\":1733:1755  carParts_Manufacturers */\n  0x1\n    /* \"contracts/parmigianoaccesscontrol/CarParts_ManufacturerRole.sol\":1733:1759  carParts_Manufacturers.add */\n  or(tag_0_454, mul(0x100000000, tag_24))\n  swap1\n    /* \"contracts/parmigianoaccesscontrol/CarParts_ManufacturerRole.sol\":1733:1768  carParts_Manufacturers.add(account) */\n  swap2\n  swap1\n  0x100000000\n  swap1\n  div\n  jump\t// in\ntag_23:\n    /* \"contracts/parmigianoaccesscontrol/CarParts_ManufacturerRole.sol\":1807:1814  account */\n  dup1\n    /* \"contracts/parmigianoaccesscontrol/CarParts_ManufacturerRole.sol\":1780:1815  CarParts_ManufacturerAdded(account) */\n  0xffffffffffffffffffffffffffffffffffffffff\n  and\n  0xc17db36ff5b6d3d05d63c4d52dc5df431b9763a912ce99d8847bc7bdb4589d2d\n  mload(0x40)\n  mload(0x40)\n  dup1\n  swap2\n  sub\n  swap1\n  log2\n    /* \"contracts/parmigianoaccesscontrol/CarParts_ManufacturerRole.sol\":1665:1821  function _addCarParts_Manufacturer(address account) internal {\r... */\n  pop\n  jump\t// out\n    /* \"contracts/parmigianoaccesscontrol/DistributorRole.sol\":1439:1565  function _addDistributor(address account) internal {\r... */\ntag_13:\n    /* \"contracts/parmigianoaccesscontrol/DistributorRole.sol\":1497:1522  distributors.add(account) */\n  tag_26\n    /* \"contracts/parmigianoaccesscontrol/DistributorRole.sol\":1514:1521  account */\n  dup2\n    /* \"contracts/parmigianoaccesscontrol/DistributorRole.sol\":1497:1509  distributors */\n  0x2\n    /* \"contracts/parmigianoaccesscontrol/DistributorRole.sol\":1497:1513  distributors.add */\n  or(tag_0_454, mul(0x100000000, tag_24))\n  swap1\n    /* \"contracts/parmigianoaccesscontrol/DistributorRole.sol\":1497:1522  distributors.add(account) */\n  swap2\n  swap1\n  0x100000000\n  swap1\n  div\n  jump\t// in\ntag_26:\n    /* \"contracts/parmigianoaccesscontrol/DistributorRole.sol\":1551:1558  account */\n  dup1\n    /* \"contracts/parmigianoaccesscontrol/DistributorRole.sol\":1534:1559  DistributorAdded(account) */\n  0xffffffffffffffffffffffffffffffffffffffff\n  and\n  0xddbf200aa634dc3fb81cfd68583dd1040d1c751d335e1d86b631bde3e977fea8\n  mload(0x40)\n  mload(0x40)\n  dup1\n  swap2\n  sub\n  swap1\n  log2\n    /* \"contracts/parmigianoaccesscontrol/DistributorRole.sol\":1439:1565  function _addDistributor(address account) internal {\r... */\n  pop\n  jump\t// out\n    /* \"contracts/parmigianoaccesscontrol/RetailerRole.sol\":1380:1497  function _addRetailer(address account) internal {\r... */\ntag_16:\n    /* \"contracts/parmigianoaccesscontrol/RetailerRole.sol\":1435:1457  retailers.add(account) */\n  tag_28\n    /* \"contracts/parmigianoaccesscontrol/RetailerRole.sol\":1449:1456  account */\n  dup2\n    /* \"contracts/parmigianoaccesscontrol/RetailerRole.sol\":1435:1444  retailers */\n  0x3\n    /* \"contracts/parmigianoaccesscontrol/RetailerRole.sol\":1435:1448  retailers.add */\n  or(tag_0_454, mul(0x100000000, tag_24))\n  swap1\n    /* \"contracts/parmigianoaccesscontrol/RetailerRole.sol\":1435:1457  retailers.add(account) */\n  swap2\n  swap1\n  0x100000000\n  swap1\n  div\n  jump\t// in\ntag_28:\n    /* \"contracts/parmigianoaccesscontrol/RetailerRole.sol\":1483:1490  account */\n  dup1\n    /* \"contracts/parmigianoaccesscontrol/RetailerRole.sol\":1469:1491  RetailerAdded(account) */\n  0xffffffffffffffffffffffffffffffffffffffff\n  and\n  0x71ae26cad02663e3d92efd6ec56031a80d74a20c0ab4183faa8bf262261c9baa\n  mload(0x40)\n  mload(0x40)\n  dup1\n  swap2\n  sub\n  swap1\n  log2\n    /* \"contracts/parmigianoaccesscontrol/RetailerRole.sol\":1380:1497  function _addRetailer(address account) internal {\r... */\n  pop\n  jump\t// out\n    /* \"contracts/parmigianoaccesscontrol/ConsumerRole.sol\":1423:1540  function _addConsumer(address account) internal {\r... */\ntag_19:\n    /* \"contracts/parmigianoaccesscontrol/ConsumerRole.sol\":1478:1500  consumers.add(account) */\n  tag_30\n    /* \"contracts/parmigianoaccesscontrol/ConsumerRole.sol\":1492:1499  account */\n  dup2\n    /* \"contracts/parmigianoaccesscontrol/ConsumerRole.sol\":1478:1487  consumers */\n  0x4\n    /* \"contracts/parmigianoaccesscontrol/ConsumerRole.sol\":1478:1491  consumers.add */\n  or(tag_0_454, mul(0x100000000, tag_24))\n  swap1\n    /* \"contracts/parmigianoaccesscontrol/ConsumerRole.sol\":1478:1500  consumers.add(account) */\n  swap2\n  swap1\n  0x100000000\n  swap1\n  div\n  jump\t// in\ntag_30:\n    /* \"contracts/parmigianoaccesscontrol/ConsumerRole.sol\":1526:1533  account */\n  dup1\n    /* \"contracts/parmigianoaccesscontrol/ConsumerRole.sol\":1512:1534  ConsumerAdded(account) */\n  0xffffffffffffffffffffffffffffffffffffffff\n  and\n  0x28b26e7a3d20aedbc5f8f2ebf7da671c0491723a2b78f47a097b0e46dee07142\n  mload(0x40)\n  mload(0x40)\n  dup1\n  swap2\n  sub\n  swap1\n  log2\n    /* \"contracts/parmigianoaccesscontrol/ConsumerRole.sol\":1423:1540  function _addConsumer(address account) internal {\r... */\n  pop\n  jump\t// out\n    /* \"contracts/parmigianoaccesscontrol/Roles.sol\":259:431  function add(Role storage role, address account) internal {\r... */\ntag_24:\n    /* \"contracts/parmigianoaccesscontrol/Roles.sol\":351:352  0 */\n  0x0\n    /* \"contracts/parmigianoaccesscontrol/Roles.sol\":332:353  account != address(0) */\n  0xffffffffffffffffffffffffffffffffffffffff\n  and\n    /* \"contracts/parmigianoaccesscontrol/Roles.sol\":332:339  account */\n  dup2\n    /* \"contracts/parmigianoaccesscontrol/Roles.sol\":332:353  account != address(0) */\n  0xffffffffffffffffffffffffffffffffffffffff\n  and\n  eq\n  iszero\n    /* \"contracts/parmigianoaccesscontrol/Roles.sol\":324:354  require(account != address(0)) */\n  iszero\n  iszero\n  tag_32\n  jumpi\n  0x0\n  dup1\n  revert\ntag_32:\n    /* \"contracts/parmigianoaccesscontrol/Roles.sol\":370:388  has(role, account) */\n  tag_33\n    /* \"contracts/parmigianoaccesscontrol/Roles.sol\":374:378  role */\n  dup3\n    /* \"contracts/parmigianoaccesscontrol/Roles.sol\":380:387  account */\n  dup3\n    /* \"contracts/parmigianoaccesscontrol/Roles.sol\":370:373  has */\n  mul(0x100000000, tag_34)\n    /* \"contracts/parmigianoaccesscontrol/Roles.sol\":370:388  has(role, account) */\n  0x100000000\n  swap1\n  div\n  jump\t// in\ntag_33:\n    /* \"contracts/parmigianoaccesscontrol/Roles.sol\":369:388  !has(role, account) */\n  iszero\n    /* \"contracts/parmigianoaccesscontrol/Roles.sol\":361:389  require(!has(role, account)) */\n  iszero\n  iszero\n  tag_35\n  jumpi\n  0x0\n  dup1\n  revert\ntag_35:\n    /* \"contracts/parmigianoaccesscontrol/Roles.sol\":421:425  true */\n  0x1\n    /* \"contracts/parmigianoaccesscontrol/Roles.sol\":398:402  role */\n  dup3\n    /* \"contracts/parmigianoaccesscontrol/Roles.sol\":398:409  role.bearer */\n  0x0\n  add\n    /* \"contracts/parmigianoaccesscontrol/Roles.sol\":398:418  role.bearer[account] */\n  0x0\n    /* \"contracts/parmigianoaccesscontrol/Roles.sol\":410:417  account */\n  dup4\n    /* \"contracts/parmigianoaccesscontrol/Roles.sol\":398:418  role.bearer[account] */\n  0xffffffffffffffffffffffffffffffffffffffff\n  and\n  0xffffffffffffffffffffffffffffffffffffffff\n  and\n  dup2\n  mstore\n  0x20\n  add\n  swap1\n  dup2\n  mstore\n  0x20\n  add\n  0x0\n  keccak256\n  0x0\n    /* \"contracts/parmigianoaccesscontrol/Roles.sol\":398:425  role.bearer[account] = true */\n  0x100\n  exp\n  dup2\n  sload\n  dup2\n  0xff\n  mul\n  not\n  and\n  swap1\n  dup4\n  iszero\n  iszero\n  mul\n  or\n  swap1\n  sstore\n  pop\n    /* \"contracts/parmigianoaccesscontrol/Roles.sol\":259:431  function add(Role storage role, address account) internal {\r... */\n  pop\n  pop\n  jump\t// out\n    /* \"contracts/parmigianoaccesscontrol/Roles.sol\":761:934  function has(Role storage role, address account)\r... */\ntag_34:\n    /* \"contracts/parmigianoaccesscontrol/Roles.sol\":848:852  bool */\n  0x0\n    /* \"contracts/parmigianoaccesscontrol/Roles.sol\":891:892  0 */\n  dup1\n    /* \"contracts/parmigianoaccesscontrol/Roles.sol\":872:893  account != address(0) */\n  0xffffffffffffffffffffffffffffffffffffffff\n  and\n    /* \"contracts/parmigianoaccesscontrol/Roles.sol\":872:879  account */\n  dup3\n    /* \"contracts/parmigianoaccesscontrol/Roles.sol\":872:893  account != address(0) */\n  0xffffffffffffffffffffffffffffffffffffffff\n  and\n  eq\n  iszero\n    /* \"contracts/parmigianoaccesscontrol/Roles.sol\":864:894  require(account != address(0)) */\n  iszero\n  iszero\n  tag_37\n  jumpi\n  0x0\n  dup1\n  revert\ntag_37:\n    /* \"contracts/parmigianoaccesscontrol/Roles.sol\":908:912  role */\n  dup3\n    /* \"contracts/parmigianoaccesscontrol/Roles.sol\":908:919  role.bearer */\n  0x0\n  add\n    /* \"contracts/parmigianoaccesscontrol/Roles.sol\":908:928  role.bearer[account] */\n  0x0\n    /* \"contracts/parmigianoaccesscontrol/Roles.sol\":920:927  account */\n  dup4\n    /* \"contracts/parmigianoaccesscontrol/Roles.sol\":908:928  role.bearer[account] */\n  0xffffffffffffffffffffffffffffffffffffffff\n  and\n  0xffffffffffffffffffffffffffffffffffffffff\n  and\n  dup2\n  mstore\n  0x20\n  add\n  swap1\n  dup2\n  mstore\n  0x20\n  add\n  0x0\n  keccak256\n  0x0\n  swap1\n  sload\n  swap1\n  0x100\n  exp\n  swap1\n  div\n  0xff\n  and\n    /* \"contracts/parmigianoaccesscontrol/Roles.sol\":901:928  return role.bearer[account] */\n  swap1\n  pop\n    /* \"contracts/parmigianoaccesscontrol/Roles.sol\":761:934  function has(Role storage role, address account)\r... */\n  swap3\n  swap2\n  pop\n  pop\n  jump\t// out\n    /* \"contracts/parmigianobase/SupplyChain.sol\":370:18364  contract SupplyChain is Ownable,CarParts_ManufacturerRole,DistributorRole,RetailerRole,ConsumerRole {\r... */\ntag_21:\n  dataSize(sub_0)\n  dup1\n  dataOffset(sub_0)\n  0x0\n  codecopy\n  0x0\n  return\nstop\n\nsub_0: assembly {\n        /* \"contracts/parmigianobase/SupplyChain.sol\":370:18364  contract SupplyChain is Ownable,CarParts_ManufacturerRole,DistributorRole,RetailerRole,ConsumerRole {\r... */\n      mstore(0x40, 0x80)\n      jumpi(tag_1, lt(calldatasize, 0x4))\n      calldataload(0x0)\n      0x100000000000000000000000000000000000000000000000000000000\n      swap1\n      div\n      0xffffffff\n      and\n      dup1\n      0x112940f9\n      eq\n      tag_2\n      jumpi\n      dup1\n      0x1154501c\n      eq\n      tag_3\n      jumpi\n      dup1\n      0x1d116edf\n      eq\n      tag_4\n      jumpi\n      dup1\n      0x22f11212\n      eq\n      tag_5\n      jumpi\n      dup1\n      0x24cb1669\n      eq\n      tag_6\n      jumpi\n      dup1\n      0x26d529b4\n      eq\n      tag_7\n      jumpi\n      dup1\n      0x37b2f92c\n      eq\n      tag_8\n      jumpi\n      dup1\n      0x40b74c38\n      eq\n      tag_9\n      jumpi\n      dup1\n      0x41c0e1b5\n      eq\n      tag_10\n      jumpi\n      dup1\n      0x4f974166\n      eq\n      tag_11\n      jumpi\n      dup1\n      0x546eb586\n      eq\n      tag_12\n      jumpi\n      dup1\n      0x5da09b88\n      eq\n      tag_13\n      jumpi\n      dup1\n      0x644241db\n      eq\n      tag_14\n      jumpi\n      dup1\n      0x66225ff9\n      eq\n      tag_15\n      jumpi\n      dup1\n      0x715018a6\n      eq\n      tag_16\n      jumpi\n      dup1\n      0x7250e224\n      eq\n      tag_17\n      jumpi\n      dup1\n      0x77c45913\n      eq\n      tag_18\n      jumpi\n      dup1\n      0x82e831ec\n      eq\n      tag_19\n      jumpi\n      dup1\n      0x834ff739\n      eq\n      tag_20\n      jumpi\n      dup1\n      0x8adff8ba\n      eq\n      tag_21\n      jumpi\n      dup1\n      0x8ec4f505\n      eq\n      tag_22\n      jumpi\n      dup1\n      0x8f0c86fa\n      eq\n      tag_23\n      jumpi\n      dup1\n      0x8f32d59b\n      eq\n      tag_24\n      jumpi\n      dup1\n      0x91541355\n      eq\n      tag_25\n      jumpi\n      dup1\n      0xc7ef882c\n      eq\n      tag_26\n      jumpi\n      dup1\n      0xdb0e6a2f\n      eq\n      tag_27\n      jumpi\n      dup1\n      0xdf74dc3a\n      eq\n      tag_28\n      jumpi\n      dup1\n      0xe02e64ea\n      eq\n      tag_29\n      jumpi\n      dup1\n      0xeab7d6e8\n      eq\n      tag_30\n      jumpi\n      dup1\n      0xf2fde38b\n      eq\n      tag_31\n      jumpi\n      dup1\n      0xf487d48d\n      eq\n      tag_32\n      jumpi\n      dup1\n      0xfdcdc06f\n      eq\n      tag_33\n      jumpi\n      dup1\n      0xffeb4d33\n      eq\n      tag_34\n      jumpi\n    tag_1:\n      0x0\n      dup1\n      revert\n        /* \"contracts/parmigianoaccesscontrol/ConsumerRole.sol\":1076:1168  function addConsumer(address account) public onlyConsumer {\r... */\n    tag_2:\n      callvalue\n        /* \"--CODEGEN--\":8:17   */\n      dup1\n        /* \"--CODEGEN--\":5:7   */\n      iszero\n      tag_35\n      jumpi\n        /* \"--CODEGEN--\":30:31   */\n      0x0\n        /* \"--CODEGEN--\":27:28   */\n      dup1\n        /* \"--CODEGEN--\":20:32   */\n      revert\n        /* \"--CODEGEN--\":5:7   */\n    tag_35:\n        /* \"contracts/parmigianoaccesscontrol/ConsumerRole.sol\":1076:1168  function addConsumer(address account) public onlyConsumer {\r... */\n      pop\n      tag_36\n      0x4\n      dup1\n      calldatasize\n      sub\n        /* \"--CODEGEN--\":13:15   */\n      0x20\n        /* \"--CODEGEN--\":8:11   */\n      dup2\n        /* \"--CODEGEN--\":5:16   */\n      lt\n        /* \"--CODEGEN--\":2:4   */\n      iszero\n      tag_37\n      jumpi\n        /* \"--CODEGEN--\":29:30   */\n      0x0\n        /* \"--CODEGEN--\":26:27   */\n      dup1\n        /* \"--CODEGEN--\":19:31   */\n      revert\n        /* \"--CODEGEN--\":2:4   */\n    tag_37:\n        /* \"contracts/parmigianoaccesscontrol/ConsumerRole.sol\":1076:1168  function addConsumer(address account) public onlyConsumer {\r... */\n      dup2\n      add\n      swap1\n      dup1\n      dup1\n      calldataload\n      0xffffffffffffffffffffffffffffffffffffffff\n      and\n      swap1\n      0x20\n      add\n      swap1\n      swap3\n      swap2\n      swap1\n      pop\n      pop\n      pop\n      jump(tag_38)\n    tag_36:\n      stop\n        /* \"contracts/parmigianobase/SupplyChain.sol\":17950:18357  function fetchitemHistory(uint _upc) public view returns\r... */\n    tag_3:\n      callvalue\n        /* \"--CODEGEN--\":8:17   */\n      dup1\n        /* \"--CODEGEN--\":5:7   */\n      iszero\n      tag_39\n      jumpi\n        /* \"--CODEGEN--\":30:31   */\n      0x0\n        /* \"--CODEGEN--\":27:28   */\n      dup1\n        /* \"--CODEGEN--\":20:32   */\n      revert\n        /* \"--CODEGEN--\":5:7   */\n    tag_39:\n        /* \"contracts/parmigianobase/SupplyChain.sol\":17950:18357  function fetchitemHistory(uint _upc) public view returns\r... */\n      pop\n      tag_40\n      0x4\n      dup1\n      calldatasize\n      sub\n        /* \"--CODEGEN--\":13:15   */\n      0x20\n        /* \"--CODEGEN--\":8:11   */\n      dup2\n        /* \"--CODEGEN--\":5:16   */\n      lt\n        /* \"--CODEGEN--\":2:4   */\n      iszero\n      tag_41\n      jumpi\n        /* \"--CODEGEN--\":29:30   */\n      0x0\n        /* \"--CODEGEN--\":26:27   */\n      dup1\n        /* \"--CODEGEN--\":19:31   */\n      revert\n        /* \"--CODEGEN--\":2:4   */\n    tag_41:\n        /* \"contracts/parmigianobase/SupplyChain.sol\":17950:18357  function fetchitemHistory(uint _upc) public view returns\r... */\n      dup2\n      add\n      swap1\n      dup1\n      dup1\n      calldataload\n      swap1\n      0x20\n      add\n      swap1\n      swap3\n      swap2\n      swap1\n      pop\n      pop\n      pop\n      jump(tag_42)\n    tag_40:\n      mload(0x40)\n      dup1\n      dup5\n      dup2\n      mstore\n      0x20\n      add\n      dup4\n      dup2\n      mstore\n      0x20\n      add\n      dup3\n      dup2\n      mstore\n      0x20\n      add\n      swap4\n      pop\n      pop\n      pop\n      pop\n      mload(0x40)\n      dup1\n      swap2\n      sub\n      swap1\n      return\n        /* \"contracts/parmigianobase/SupplyChain.sol\":11406:11839  function shippedItemByCarParts_Manufacturer(uint _upc) public payable\r... */\n    tag_4:\n      tag_43\n      0x4\n      dup1\n      calldatasize\n      sub\n        /* \"--CODEGEN--\":13:15   */\n      0x20\n        /* \"--CODEGEN--\":8:11   */\n      dup2\n        /* \"--CODEGEN--\":5:16   */\n      lt\n        /* \"--CODEGEN--\":2:4   */\n      iszero\n      tag_44\n      jumpi\n        /* \"--CODEGEN--\":29:30   */\n      0x0\n        /* \"--CODEGEN--\":26:27   */\n      dup1\n        /* \"--CODEGEN--\":19:31   */\n      revert\n        /* \"--CODEGEN--\":2:4   */\n    tag_44:\n        /* \"contracts/parmigianobase/SupplyChain.sol\":11406:11839  function shippedItemByCarParts_Manufacturer(uint _upc) public payable\r... */\n      dup2\n      add\n      swap1\n      dup1\n      dup1\n      calldataload\n      swap1\n      0x20\n      add\n      swap1\n      swap3\n      swap2\n      swap1\n      pop\n      pop\n      pop\n      jump(tag_45)\n    tag_43:\n      stop\n        /* \"contracts/parmigianobase/SupplyChain.sol\":9739:10223  function sellItemByCarParts_Manufacturer(uint _upc, uint _price) public\r... */\n    tag_5:\n      callvalue\n        /* \"--CODEGEN--\":8:17   */\n      dup1\n        /* \"--CODEGEN--\":5:7   */\n      iszero\n      tag_46\n      jumpi\n        /* \"--CODEGEN--\":30:31   */\n      0x0\n        /* \"--CODEGEN--\":27:28   */\n      dup1\n        /* \"--CODEGEN--\":20:32   */\n      revert\n        /* \"--CODEGEN--\":5:7   */\n    tag_46:\n        /* \"contracts/parmigianobase/SupplyChain.sol\":9739:10223  function sellItemByCarParts_Manufacturer(uint _upc, uint _price) public\r... */\n      pop\n      tag_47\n      0x4\n      dup1\n      calldatasize\n      sub\n        /* \"--CODEGEN--\":13:15   */\n      0x40\n        /* \"--CODEGEN--\":8:11   */\n      dup2\n        /* \"--CODEGEN--\":5:16   */\n      lt\n        /* \"--CODEGEN--\":2:4   */\n      iszero\n      tag_48\n      jumpi\n        /* \"--CODEGEN--\":29:30   */\n      0x0\n        /* \"--CODEGEN--\":26:27   */\n      dup1\n        /* \"--CODEGEN--\":19:31   */\n      revert\n        /* \"--CODEGEN--\":2:4   */\n    tag_48:\n        /* \"contracts/parmigianobase/SupplyChain.sol\":9739:10223  function sellItemByCarParts_Manufacturer(uint _upc, uint _price) public\r... */\n      dup2\n      add\n      swap1\n      dup1\n      dup1\n      calldataload\n      swap1\n      0x20\n      add\n      swap1\n      swap3\n      swap2\n      swap1\n      dup1\n      calldataload\n      swap1\n      0x20\n      add\n      swap1\n      swap3\n      swap2\n      swap1\n      pop\n      pop\n      pop\n      jump(tag_49)\n    tag_47:\n      stop\n        /* \"contracts/parmigianobase/SupplyChain.sol\":11924:12281  function receivedItemByDistributor(uint _upc) public\r... */\n    tag_6:\n      callvalue\n        /* \"--CODEGEN--\":8:17   */\n      dup1\n        /* \"--CODEGEN--\":5:7   */\n      iszero\n      tag_50\n      jumpi\n        /* \"--CODEGEN--\":30:31   */\n      0x0\n        /* \"--CODEGEN--\":27:28   */\n      dup1\n        /* \"--CODEGEN--\":20:32   */\n      revert\n        /* \"--CODEGEN--\":5:7   */\n    tag_50:\n        /* \"contracts/parmigianobase/SupplyChain.sol\":11924:12281  function receivedItemByDistributor(uint _upc) public\r... */\n      pop\n      tag_51\n      0x4\n      dup1\n      calldatasize\n      sub\n        /* \"--CODEGEN--\":13:15   */\n      0x20\n        /* \"--CODEGEN--\":8:11   */\n      dup2\n        /* \"--CODEGEN--\":5:16   */\n      lt\n        /* \"--CODEGEN--\":2:4   */\n      iszero\n      tag_52\n      jumpi\n        /* \"--CODEGEN--\":29:30   */\n      0x0\n        /* \"--CODEGEN--\":26:27   */\n      dup1\n        /* \"--CODEGEN--\":19:31   */\n      revert\n        /* \"--CODEGEN--\":2:4   */\n    tag_52:\n        /* \"contracts/parmigianobase/SupplyChain.sol\":11924:12281  function receivedItemByDistributor(uint _upc) public\r... */\n      dup2\n      add\n      swap1\n      dup1\n      dup1\n      calldataload\n      swap1\n      0x20\n      add\n      swap1\n      swap3\n      swap2\n      swap1\n      pop\n      pop\n      pop\n      jump(tag_53)\n    tag_51:\n      stop\n        /* \"contracts/parmigianobase/SupplyChain.sol\":13759:14364  function purchaseItemByRetailer(uint _upc) public payable\r... */\n    tag_7:\n      tag_54\n      0x4\n      dup1\n      calldatasize\n      sub\n        /* \"--CODEGEN--\":13:15   */\n      0x20\n        /* \"--CODEGEN--\":8:11   */\n      dup2\n        /* \"--CODEGEN--\":5:16   */\n      lt\n        /* \"--CODEGEN--\":2:4   */\n      iszero\n      tag_55\n      jumpi\n        /* \"--CODEGEN--\":29:30   */\n      0x0\n        /* \"--CODEGEN--\":26:27   */\n      dup1\n        /* \"--CODEGEN--\":19:31   */\n      revert\n        /* \"--CODEGEN--\":2:4   */\n    tag_55:\n        /* \"contracts/parmigianobase/SupplyChain.sol\":13759:14364  function purchaseItemByRetailer(uint _upc) public payable\r... */\n      dup2\n      add\n      swap1\n      dup1\n      dup1\n      calldataload\n      swap1\n      0x20\n      add\n      swap1\n      swap3\n      swap2\n      swap1\n      pop\n      pop\n      pop\n      jump(tag_56)\n    tag_54:\n      stop\n        /* \"contracts/parmigianobase/SupplyChain.sol\":14826:15148  function receivedItemByRetailer(uint _upc) public\r... */\n    tag_8:\n      callvalue\n        /* \"--CODEGEN--\":8:17   */\n      dup1\n        /* \"--CODEGEN--\":5:7   */\n      iszero\n      tag_57\n      jumpi\n        /* \"--CODEGEN--\":30:31   */\n      0x0\n        /* \"--CODEGEN--\":27:28   */\n      dup1\n        /* \"--CODEGEN--\":20:32   */\n      revert\n        /* \"--CODEGEN--\":5:7   */\n    tag_57:\n        /* \"contracts/parmigianobase/SupplyChain.sol\":14826:15148  function receivedItemByRetailer(uint _upc) public\r... */\n      pop\n      tag_58\n      0x4\n      dup1\n      calldatasize\n      sub\n        /* \"--CODEGEN--\":13:15   */\n      0x20\n        /* \"--CODEGEN--\":8:11   */\n      dup2\n        /* \"--CODEGEN--\":5:16   */\n      lt\n        /* \"--CODEGEN--\":2:4   */\n      iszero\n      tag_59\n      jumpi\n        /* \"--CODEGEN--\":29:30   */\n      0x0\n        /* \"--CODEGEN--\":26:27   */\n      dup1\n        /* \"--CODEGEN--\":19:31   */\n      revert\n        /* \"--CODEGEN--\":2:4   */\n    tag_59:\n        /* \"contracts/parmigianobase/SupplyChain.sol\":14826:15148  function receivedItemByRetailer(uint _upc) public\r... */\n      dup2\n      add\n      swap1\n      dup1\n      dup1\n      calldataload\n      swap1\n      0x20\n      add\n      swap1\n      swap3\n      swap2\n      swap1\n      pop\n      pop\n      pop\n      jump(tag_60)\n    tag_58:\n      stop\n        /* \"contracts/parmigianoaccesscontrol/CarParts_ManufacturerRole.sol\":1226:1357  function addCarParts_Manufacturer(address account) public onlyCarParts_Manufacturer {\r... */\n    tag_9:\n      callvalue\n        /* \"--CODEGEN--\":8:17   */\n      dup1\n        /* \"--CODEGEN--\":5:7   */\n      iszero\n      tag_61\n      jumpi\n        /* \"--CODEGEN--\":30:31   */\n      0x0\n        /* \"--CODEGEN--\":27:28   */\n      dup1\n        /* \"--CODEGEN--\":20:32   */\n      revert\n        /* \"--CODEGEN--\":5:7   */\n    tag_61:\n        /* \"contracts/parmigianoaccesscontrol/CarParts_ManufacturerRole.sol\":1226:1357  function addCarParts_Manufacturer(address account) public onlyCarParts_Manufacturer {\r... */\n      pop\n      tag_62\n      0x4\n      dup1\n      calldatasize\n      sub\n        /* \"--CODEGEN--\":13:15   */\n      0x20\n        /* \"--CODEGEN--\":8:11   */\n      dup2\n        /* \"--CODEGEN--\":5:16   */\n      lt\n        /* \"--CODEGEN--\":2:4   */\n      iszero\n      tag_63\n      jumpi\n        /* \"--CODEGEN--\":29:30   */\n      0x0\n        /* \"--CODEGEN--\":26:27   */\n      dup1\n        /* \"--CODEGEN--\":19:31   */\n      revert\n        /* \"--CODEGEN--\":2:4   */\n    tag_63:\n        /* \"contracts/parmigianoaccesscontrol/CarParts_ManufacturerRole.sol\":1226:1357  function addCarParts_Manufacturer(address account) public onlyCarParts_Manufacturer {\r... */\n      dup2\n      add\n      swap1\n      dup1\n      dup1\n      calldataload\n      0xffffffffffffffffffffffffffffffffffffffff\n      and\n      swap1\n      0x20\n      add\n      swap1\n      swap3\n      swap2\n      swap1\n      pop\n      pop\n      pop\n      jump(tag_64)\n    tag_62:\n      stop\n        /* \"contracts/parmigianobase/SupplyChain.sol\":6697:6874  function kill() public {\r... */\n    tag_10:\n      callvalue\n        /* \"--CODEGEN--\":8:17   */\n      dup1\n        /* \"--CODEGEN--\":5:7   */\n      iszero\n      tag_65\n      jumpi\n        /* \"--CODEGEN--\":30:31   */\n      0x0\n        /* \"--CODEGEN--\":27:28   */\n      dup1\n        /* \"--CODEGEN--\":20:32   */\n      revert\n        /* \"--CODEGEN--\":5:7   */\n    tag_65:\n        /* \"contracts/parmigianobase/SupplyChain.sol\":6697:6874  function kill() public {\r... */\n      pop\n      tag_66\n      jump(tag_67)\n    tag_66:\n      stop\n        /* \"contracts/parmigianobase/SupplyChain.sol\":7149:9655  function produceItemByCarParts_Manufacturer(uint _upc, string memory _originFarmName, string memory _originFarmInformation, string memory _originFarmLatitude, string memory _originFarmLongitude, string memory _productNotes, uint _price) public\r... */\n    tag_11:\n      callvalue\n        /* \"--CODEGEN--\":8:17   */\n      dup1\n        /* \"--CODEGEN--\":5:7   */\n      iszero\n      tag_68\n      jumpi\n        /* \"--CODEGEN--\":30:31   */\n      0x0\n        /* \"--CODEGEN--\":27:28   */\n      dup1\n        /* \"--CODEGEN--\":20:32   */\n      revert\n        /* \"--CODEGEN--\":5:7   */\n    tag_68:\n        /* \"contracts/parmigianobase/SupplyChain.sol\":7149:9655  function produceItemByCarParts_Manufacturer(uint _upc, string memory _originFarmName, string memory _originFarmInformation, string memory _originFarmLatitude, string memory _originFarmLongitude, string memory _productNotes, uint _price) public\r... */\n      pop\n      tag_69\n      0x4\n      dup1\n      calldatasize\n      sub\n        /* \"--CODEGEN--\":13:16   */\n      0xe0\n        /* \"--CODEGEN--\":8:11   */\n      dup2\n        /* \"--CODEGEN--\":5:17   */\n      lt\n        /* \"--CODEGEN--\":2:4   */\n      iszero\n      tag_70\n      jumpi\n        /* \"--CODEGEN--\":30:31   */\n      0x0\n        /* \"--CODEGEN--\":27:28   */\n      dup1\n        /* \"--CODEGEN--\":20:32   */\n      revert\n        /* \"--CODEGEN--\":2:4   */\n    tag_70:\n        /* \"contracts/parmigianobase/SupplyChain.sol\":7149:9655  function produceItemByCarParts_Manufacturer(uint _upc, string memory _originFarmName, string memory _originFarmInformation, string memory _originFarmLatitude, string memory _originFarmLongitude, string memory _productNotes, uint _price) public\r... */\n      dup2\n      add\n      swap1\n      dup1\n      dup1\n      calldataload\n      swap1\n      0x20\n      add\n      swap1\n      swap3\n      swap2\n      swap1\n      dup1\n      calldataload\n      swap1\n      0x20\n      add\n      swap1\n        /* \"--CODEGEN--\":21:32   */\n      0x100000000\n        /* \"--CODEGEN--\":8:19   */\n      dup2\n        /* \"--CODEGEN--\":5:33   */\n      gt\n        /* \"--CODEGEN--\":2:4   */\n      iszero\n      tag_71\n      jumpi\n        /* \"--CODEGEN--\":46:47   */\n      0x0\n        /* \"--CODEGEN--\":43:44   */\n      dup1\n        /* \"--CODEGEN--\":36:48   */\n      revert\n        /* \"--CODEGEN--\":2:4   */\n    tag_71:\n        /* \"contracts/parmigianobase/SupplyChain.sol\":7149:9655  function produceItemByCarParts_Manufacturer(uint _upc, string memory _originFarmName, string memory _originFarmInformation, string memory _originFarmLatitude, string memory _originFarmLongitude, string memory _productNotes, uint _price) public\r... */\n      dup3\n      add\n        /* \"--CODEGEN--\":35:44   */\n      dup4\n        /* \"--CODEGEN--\":28:32   */\n      0x20\n        /* \"--CODEGEN--\":12:26   */\n      dup3\n        /* \"--CODEGEN--\":8:33   */\n      add\n        /* \"--CODEGEN--\":5:45   */\n      gt\n        /* \"--CODEGEN--\":2:4   */\n      iszero\n      tag_72\n      jumpi\n        /* \"--CODEGEN--\":58:59   */\n      0x0\n        /* \"--CODEGEN--\":55:56   */\n      dup1\n        /* \"--CODEGEN--\":48:60   */\n      revert\n        /* \"--CODEGEN--\":2:4   */\n    tag_72:\n        /* \"contracts/parmigianobase/SupplyChain.sol\":7149:9655  function produceItemByCarParts_Manufacturer(uint _upc, string memory _originFarmName, string memory _originFarmInformation, string memory _originFarmLatitude, string memory _originFarmLongitude, string memory _productNotes, uint _price) public\r... */\n      dup1\n      calldataload\n      swap1\n      0x20\n      add\n      swap2\n        /* \"--CODEGEN--\":100:109   */\n      dup5\n        /* \"--CODEGEN--\":95:96   */\n      0x1\n        /* \"--CODEGEN--\":81:93   */\n      dup4\n        /* \"--CODEGEN--\":77:97   */\n      mul\n        /* \"--CODEGEN--\":67:75   */\n      dup5\n        /* \"--CODEGEN--\":63:98   */\n      add\n        /* \"--CODEGEN--\":60:110   */\n      gt\n        /* \"--CODEGEN--\":39:50   */\n      0x100000000\n        /* \"--CODEGEN--\":25:37   */\n      dup4\n        /* \"--CODEGEN--\":22:51   */\n      gt\n        /* \"--CODEGEN--\":11:118   */\n      or\n        /* \"--CODEGEN--\":8:10   */\n      iszero\n      tag_73\n      jumpi\n        /* \"--CODEGEN--\":131:132   */\n      0x0\n        /* \"--CODEGEN--\":128:129   */\n      dup1\n        /* \"--CODEGEN--\":121:133   */\n      revert\n        /* \"--CODEGEN--\":8:10   */\n    tag_73:\n        /* \"contracts/parmigianobase/SupplyChain.sol\":7149:9655  function produceItemByCarParts_Manufacturer(uint _upc, string memory _originFarmName, string memory _originFarmInformation, string memory _originFarmLatitude, string memory _originFarmLongitude, string memory _productNotes, uint _price) public\r... */\n      swap2\n      swap1\n      dup1\n      dup1\n      0x1f\n      add\n      0x20\n      dup1\n      swap2\n      div\n      mul\n      0x20\n      add\n      mload(0x40)\n      swap1\n      dup2\n      add\n      0x40\n      mstore\n      dup1\n      swap4\n      swap3\n      swap2\n      swap1\n      dup2\n      dup2\n      mstore\n      0x20\n      add\n      dup4\n      dup4\n        /* \"--CODEGEN--\":30:33   */\n      dup1\n        /* \"--CODEGEN--\":22:28   */\n      dup3\n        /* \"--CODEGEN--\":14:20   */\n      dup5\n        /* \"--CODEGEN--\":1:34   */\n      calldatacopy\n        /* \"--CODEGEN--\":99:100   */\n      0x0\n        /* \"--CODEGEN--\":93:96   */\n      dup2\n        /* \"--CODEGEN--\":85:91   */\n      dup5\n        /* \"--CODEGEN--\":81:97   */\n      add\n        /* \"--CODEGEN--\":74:101   */\n      mstore\n        /* \"--CODEGEN--\":137:141   */\n      0x1f\n        /* \"--CODEGEN--\":133:142   */\n      not\n        /* \"--CODEGEN--\":126:130   */\n      0x1f\n        /* \"--CODEGEN--\":121:124   */\n      dup3\n        /* \"--CODEGEN--\":117:131   */\n      add\n        /* \"--CODEGEN--\":113:143   */\n      and\n        /* \"--CODEGEN--\":106:143   */\n      swap1\n      pop\n        /* \"--CODEGEN--\":169:172   */\n      dup1\n        /* \"--CODEGEN--\":161:167   */\n      dup4\n        /* \"--CODEGEN--\":157:173   */\n      add\n        /* \"--CODEGEN--\":147:173   */\n      swap3\n      pop\n        /* \"contracts/parmigianobase/SupplyChain.sol\":7149:9655  function produceItemByCarParts_Manufacturer(uint _upc, string memory _originFarmName, string memory _originFarmInformation, string memory _originFarmLatitude, string memory _originFarmLongitude, string memory _productNotes, uint _price) public\r... */\n      pop\n      pop\n      pop\n      pop\n      pop\n      pop\n      swap2\n      swap3\n      swap2\n      swap3\n      swap1\n      dup1\n      calldataload\n      swap1\n      0x20\n      add\n      swap1\n        /* \"--CODEGEN--\":21:32   */\n      0x100000000\n        /* \"--CODEGEN--\":8:19   */\n      dup2\n        /* \"--CODEGEN--\":5:33   */\n      gt\n        /* \"--CODEGEN--\":2:4   */\n      iszero\n      tag_74\n      jumpi\n        /* \"--CODEGEN--\":46:47   */\n      0x0\n        /* \"--CODEGEN--\":43:44   */\n      dup1\n        /* \"--CODEGEN--\":36:48   */\n      revert\n        /* \"--CODEGEN--\":2:4   */\n    tag_74:\n        /* \"contracts/parmigianobase/SupplyChain.sol\":7149:9655  function produceItemByCarParts_Manufacturer(uint _upc, string memory _originFarmName, string memory _originFarmInformation, string memory _originFarmLatitude, string memory _originFarmLongitude, string memory _productNotes, uint _price) public\r... */\n      dup3\n      add\n        /* \"--CODEGEN--\":35:44   */\n      dup4\n        /* \"--CODEGEN--\":28:32   */\n      0x20\n        /* \"--CODEGEN--\":12:26   */\n      dup3\n        /* \"--CODEGEN--\":8:33   */\n      add\n        /* \"--CODEGEN--\":5:45   */\n      gt\n        /* \"--CODEGEN--\":2:4   */\n      iszero\n      tag_75\n      jumpi\n        /* \"--CODEGEN--\":58:59   */\n      0x0\n        /* \"--CODEGEN--\":55:56   */\n      dup1\n        /* \"--CODEGEN--\":48:60   */\n      revert\n        /* \"--CODEGEN--\":2:4   */\n    tag_75:\n        /* \"contracts/parmigianobase/SupplyChain.sol\":7149:9655  function produceItemByCarParts_Manufacturer(uint _upc, string memory _originFarmName, string memory _originFarmInformation, string memory _originFarmLatitude, string memory _originFarmLongitude, string memory _productNotes, uint _price) public\r... */\n      dup1\n      calldataload\n      swap1\n      0x20\n      add\n      swap2\n        /* \"--CODEGEN--\":100:109   */\n      dup5\n        /* \"--CODEGEN--\":95:96   */\n      0x1\n        /* \"--CODEGEN--\":81:93   */\n      dup4\n        /* \"--CODEGEN--\":77:97   */\n      mul\n        /* \"--CODEGEN--\":67:75   */\n      dup5\n        /* \"--CODEGEN--\":63:98   */\n      add\n        /* \"--CODEGEN--\":60:110   */\n      gt\n        /* \"--CODEGEN--\":39:50   */\n      0x100000000\n        /* \"--CODEGEN--\":25:37   */\n      dup4\n        /* \"--CODEGEN--\":22:51   */\n      gt\n        /* \"--CODEGEN--\":11:118   */\n      or\n        /* \"--CODEGEN--\":8:10   */\n      iszero\n      tag_76\n      jumpi\n        /* \"--CODEGEN--\":131:132   */\n      0x0\n        /* \"--CODEGEN--\":128:129   */\n      dup1\n        /* \"--CODEGEN--\":121:133   */\n      revert\n        /* \"--CODEGEN--\":8:10   */\n    tag_76:\n        /* \"contracts/parmigianobase/SupplyChain.sol\":7149:9655  function produceItemByCarParts_Manufacturer(uint _upc, string memory _originFarmName, string memory _originFarmInformation, string memory _originFarmLatitude, string memory _originFarmLongitude, string memory _productNotes, uint _price) public\r... */\n      swap2\n      swap1\n      dup1\n      dup1\n      0x1f\n      add\n      0x20\n      dup1\n      swap2\n      div\n      mul\n      0x20\n      add\n      mload(0x40)\n      swap1\n      dup2\n      add\n      0x40\n      mstore\n      dup1\n      swap4\n      swap3\n      swap2\n      swap1\n      dup2\n      dup2\n      mstore\n      0x20\n      add\n      dup4\n      dup4\n        /* \"--CODEGEN--\":30:33   */\n      dup1\n        /* \"--CODEGEN--\":22:28   */\n      dup3\n        /* \"--CODEGEN--\":14:20   */\n      dup5\n        /* \"--CODEGEN--\":1:34   */\n      calldatacopy\n        /* \"--CODEGEN--\":99:100   */\n      0x0\n        /* \"--CODEGEN--\":93:96   */\n      dup2\n        /* \"--CODEGEN--\":85:91   */\n      dup5\n        /* \"--CODEGEN--\":81:97   */\n      add\n        /* \"--CODEGEN--\":74:101   */\n      mstore\n        /* \"--CODEGEN--\":137:141   */\n      0x1f\n        /* \"--CODEGEN--\":133:142   */\n      not\n        /* \"--CODEGEN--\":126:130   */\n      0x1f\n        /* \"--CODEGEN--\":121:124   */\n      dup3\n        /* \"--CODEGEN--\":117:131   */\n      add\n        /* \"--CODEGEN--\":113:143   */\n      and\n        /* \"--CODEGEN--\":106:143   */\n      swap1\n      pop\n        /* \"--CODEGEN--\":169:172   */\n      dup1\n        /* \"--CODEGEN--\":161:167   */\n      dup4\n        /* \"--CODEGEN--\":157:173   */\n      add\n        /* \"--CODEGEN--\":147:173   */\n      swap3\n      pop\n        /* \"contracts/parmigianobase/SupplyChain.sol\":7149:9655  function produceItemByCarParts_Manufacturer(uint _upc, string memory _originFarmName, string memory _originFarmInformation, string memory _originFarmLatitude, string memory _originFarmLongitude, string memory _productNotes, uint _price) public\r... */\n      pop\n      pop\n      pop\n      pop\n      pop\n      pop\n      swap2\n      swap3\n      swap2\n      swap3\n      swap1\n      dup1\n      calldataload\n      swap1\n      0x20\n      add\n      swap1\n        /* \"--CODEGEN--\":21:32   */\n      0x100000000\n        /* \"--CODEGEN--\":8:19   */\n      dup2\n        /* \"--CODEGEN--\":5:33   */\n      gt\n        /* \"--CODEGEN--\":2:4   */\n      iszero\n      tag_77\n      jumpi\n        /* \"--CODEGEN--\":46:47   */\n      0x0\n        /* \"--CODEGEN--\":43:44   */\n      dup1\n        /* \"--CODEGEN--\":36:48   */\n      revert\n        /* \"--CODEGEN--\":2:4   */\n    tag_77:\n        /* \"contracts/parmigianobase/SupplyChain.sol\":7149:9655  function produceItemByCarParts_Manufacturer(uint _upc, string memory _originFarmName, string memory _originFarmInformation, string memory _originFarmLatitude, string memory _originFarmLongitude, string memory _productNotes, uint _price) public\r... */\n      dup3\n      add\n        /* \"--CODEGEN--\":35:44   */\n      dup4\n        /* \"--CODEGEN--\":28:32   */\n      0x20\n        /* \"--CODEGEN--\":12:26   */\n      dup3\n        /* \"--CODEGEN--\":8:33   */\n      add\n        /* \"--CODEGEN--\":5:45   */\n      gt\n        /* \"--CODEGEN--\":2:4   */\n      iszero\n      tag_78\n      jumpi\n        /* \"--CODEGEN--\":58:59   */\n      0x0\n        /* \"--CODEGEN--\":55:56   */\n      dup1\n        /* \"--CODEGEN--\":48:60   */\n      revert\n        /* \"--CODEGEN--\":2:4   */\n    tag_78:\n        /* \"contracts/parmigianobase/SupplyChain.sol\":7149:9655  function produceItemByCarParts_Manufacturer(uint _upc, string memory _originFarmName, string memory _originFarmInformation, string memory _originFarmLatitude, string memory _originFarmLongitude, string memory _productNotes, uint _price) public\r... */\n      dup1\n      calldataload\n      swap1\n      0x20\n      add\n      swap2\n        /* \"--CODEGEN--\":100:109   */\n      dup5\n        /* \"--CODEGEN--\":95:96   */\n      0x1\n        /* \"--CODEGEN--\":81:93   */\n      dup4\n        /* \"--CODEGEN--\":77:97   */\n      mul\n        /* \"--CODEGEN--\":67:75   */\n      dup5\n        /* \"--CODEGEN--\":63:98   */\n      add\n        /* \"--CODEGEN--\":60:110   */\n      gt\n        /* \"--CODEGEN--\":39:50   */\n      0x100000000\n        /* \"--CODEGEN--\":25:37   */\n      dup4\n        /* \"--CODEGEN--\":22:51   */\n      gt\n        /* \"--CODEGEN--\":11:118   */\n      or\n        /* \"--CODEGEN--\":8:10   */\n      iszero\n      tag_79\n      jumpi\n        /* \"--CODEGEN--\":131:132   */\n      0x0\n        /* \"--CODEGEN--\":128:129   */\n      dup1\n        /* \"--CODEGEN--\":121:133   */\n      revert\n        /* \"--CODEGEN--\":8:10   */\n    tag_79:\n        /* \"contracts/parmigianobase/SupplyChain.sol\":7149:9655  function produceItemByCarParts_Manufacturer(uint _upc, string memory _originFarmName, string memory _originFarmInformation, string memory _originFarmLatitude, string memory _originFarmLongitude, string memory _productNotes, uint _price) public\r... */\n      swap2\n      swap1\n      dup1\n      dup1\n      0x1f\n      add\n      0x20\n      dup1\n      swap2\n      div\n      mul\n      0x20\n      add\n      mload(0x40)\n      swap1\n      dup2\n      add\n      0x40\n      mstore\n      dup1\n      swap4\n      swap3\n      swap2\n      swap1\n      dup2\n      dup2\n      mstore\n      0x20\n      add\n      dup4\n      dup4\n        /* \"--CODEGEN--\":30:33   */\n      dup1\n        /* \"--CODEGEN--\":22:28   */\n      dup3\n        /* \"--CODEGEN--\":14:20   */\n      dup5\n        /* \"--CODEGEN--\":1:34   */\n      calldatacopy\n        /* \"--CODEGEN--\":99:100   */\n      0x0\n        /* \"--CODEGEN--\":93:96   */\n      dup2\n        /* \"--CODEGEN--\":85:91   */\n      dup5\n        /* \"--CODEGEN--\":81:97   */\n      add\n        /* \"--CODEGEN--\":74:101   */\n      mstore\n        /* \"--CODEGEN--\":137:141   */\n      0x1f\n        /* \"--CODEGEN--\":133:142   */\n      not\n        /* \"--CODEGEN--\":126:130   */\n      0x1f\n        /* \"--CODEGEN--\":121:124   */\n      dup3\n        /* \"--CODEGEN--\":117:131   */\n      add\n        /* \"--CODEGEN--\":113:143   */\n      and\n        /* \"--CODEGEN--\":106:143   */\n      swap1\n      pop\n        /* \"--CODEGEN--\":169:172   */\n      dup1\n        /* \"--CODEGEN--\":161:167   */\n      dup4\n        /* \"--CODEGEN--\":157:173   */\n      add\n        /* \"--CODEGEN--\":147:173   */\n      swap3\n      pop\n        /* \"contracts/parmigianobase/SupplyChain.sol\":7149:9655  function produceItemByCarParts_Manufacturer(uint _upc, string memory _originFarmName, string memory _originFarmInformation, string memory _originFarmLatitude, string memory _originFarmLongitude, string memory _productNotes, uint _price) public\r... */\n      pop\n      pop\n      pop\n      pop\n      pop\n      pop\n      swap2\n      swap3\n      swap2\n      swap3\n      swap1\n      dup1\n      calldataload\n      swap1\n      0x20\n      add\n      swap1\n        /* \"--CODEGEN--\":21:32   */\n      0x100000000\n        /* \"--CODEGEN--\":8:19   */\n      dup2\n        /* \"--CODEGEN--\":5:33   */\n      gt\n        /* \"--CODEGEN--\":2:4   */\n      iszero\n      tag_80\n      jumpi\n        /* \"--CODEGEN--\":46:47   */\n      0x0\n        /* \"--CODEGEN--\":43:44   */\n      dup1\n        /* \"--CODEGEN--\":36:48   */\n      revert\n        /* \"--CODEGEN--\":2:4   */\n    tag_80:\n        /* \"contracts/parmigianobase/SupplyChain.sol\":7149:9655  function produceItemByCarParts_Manufacturer(uint _upc, string memory _originFarmName, string memory _originFarmInformation, string memory _originFarmLatitude, string memory _originFarmLongitude, string memory _productNotes, uint _price) public\r... */\n      dup3\n      add\n        /* \"--CODEGEN--\":35:44   */\n      dup4\n        /* \"--CODEGEN--\":28:32   */\n      0x20\n        /* \"--CODEGEN--\":12:26   */\n      dup3\n        /* \"--CODEGEN--\":8:33   */\n      add\n        /* \"--CODEGEN--\":5:45   */\n      gt\n        /* \"--CODEGEN--\":2:4   */\n      iszero\n      tag_81\n      jumpi\n        /* \"--CODEGEN--\":58:59   */\n      0x0\n        /* \"--CODEGEN--\":55:56   */\n      dup1\n        /* \"--CODEGEN--\":48:60   */\n      revert\n        /* \"--CODEGEN--\":2:4   */\n    tag_81:\n        /* \"contracts/parmigianobase/SupplyChain.sol\":7149:9655  function produceItemByCarParts_Manufacturer(uint _upc, string memory _originFarmName, string memory _originFarmInformation, string memory _originFarmLatitude, string memory _originFarmLongitude, string memory _productNotes, uint _price) public\r... */\n      dup1\n      calldataload\n      swap1\n      0x20\n      add\n      swap2\n        /* \"--CODEGEN--\":100:109   */\n      dup5\n        /* \"--CODEGEN--\":95:96   */\n      0x1\n        /* \"--CODEGEN--\":81:93   */\n      dup4\n        /* \"--CODEGEN--\":77:97   */\n      mul\n        /* \"--CODEGEN--\":67:75   */\n      dup5\n        /* \"--CODEGEN--\":63:98   */\n      add\n        /* \"--CODEGEN--\":60:110   */\n      gt\n        /* \"--CODEGEN--\":39:50   */\n      0x100000000\n        /* \"--CODEGEN--\":25:37   */\n      dup4\n        /* \"--CODEGEN--\":22:51   */\n      gt\n        /* \"--CODEGEN--\":11:118   */\n      or\n        /* \"--CODEGEN--\":8:10   */\n      iszero\n      tag_82\n      jumpi\n        /* \"--CODEGEN--\":131:132   */\n      0x0\n        /* \"--CODEGEN--\":128:129   */\n      dup1\n        /* \"--CODEGEN--\":121:133   */\n      revert\n        /* \"--CODEGEN--\":8:10   */\n    tag_82:\n        /* \"contracts/parmigianobase/SupplyChain.sol\":7149:9655  function produceItemByCarParts_Manufacturer(uint _upc, string memory _originFarmName, string memory _originFarmInformation, string memory _originFarmLatitude, string memory _originFarmLongitude, string memory _productNotes, uint _price) public\r... */\n      swap2\n      swap1\n      dup1\n      dup1\n      0x1f\n      add\n      0x20\n      dup1\n      swap2\n      div\n      mul\n      0x20\n      add\n      mload(0x40)\n      swap1\n      dup2\n      add\n      0x40\n      mstore\n      dup1\n      swap4\n      swap3\n      swap2\n      swap1\n      dup2\n      dup2\n      mstore\n      0x20\n      add\n      dup4\n      dup4\n        /* \"--CODEGEN--\":30:33   */\n      dup1\n        /* \"--CODEGEN--\":22:28   */\n      dup3\n        /* \"--CODEGEN--\":14:20   */\n      dup5\n        /* \"--CODEGEN--\":1:34   */\n      calldatacopy\n        /* \"--CODEGEN--\":99:100   */\n      0x0\n        /* \"--CODEGEN--\":93:96   */\n      dup2\n        /* \"--CODEGEN--\":85:91   */\n      dup5\n        /* \"--CODEGEN--\":81:97   */\n      add\n        /* \"--CODEGEN--\":74:101   */\n      mstore\n        /* \"--CODEGEN--\":137:141   */\n      0x1f\n        /* \"--CODEGEN--\":133:142   */\n      not\n        /* \"--CODEGEN--\":126:130   */\n      0x1f\n        /* \"--CODEGEN--\":121:124   */\n      dup3\n        /* \"--CODEGEN--\":117:131   */\n      add\n        /* \"--CODEGEN--\":113:143   */\n      and\n        /* \"--CODEGEN--\":106:143   */\n      swap1\n      pop\n        /* \"--CODEGEN--\":169:172   */\n      dup1\n        /* \"--CODEGEN--\":161:167   */\n      dup4\n        /* \"--CODEGEN--\":157:173   */\n      add\n        /* \"--CODEGEN--\":147:173   */\n      swap3\n      pop\n        /* \"contracts/parmigianobase/SupplyChain.sol\":7149:9655  function produceItemByCarParts_Manufacturer(uint _upc, string memory _originFarmName, string memory _originFarmInformation, string memory _originFarmLatitude, string memory _originFarmLongitude, string memory _productNotes, uint _price) public\r... */\n      pop\n      pop\n      pop\n      pop\n      pop\n      pop\n      swap2\n      swap3\n      swap2\n      swap3\n      swap1\n      dup1\n      calldataload\n      swap1\n      0x20\n      add\n      swap1\n        /* \"--CODEGEN--\":21:32   */\n      0x100000000\n        /* \"--CODEGEN--\":8:19   */\n      dup2\n        /* \"--CODEGEN--\":5:33   */\n      gt\n        /* \"--CODEGEN--\":2:4   */\n      iszero\n      tag_83\n      jumpi\n        /* \"--CODEGEN--\":46:47   */\n      0x0\n        /* \"--CODEGEN--\":43:44   */\n      dup1\n        /* \"--CODEGEN--\":36:48   */\n      revert\n        /* \"--CODEGEN--\":2:4   */\n    tag_83:\n        /* \"contracts/parmigianobase/SupplyChain.sol\":7149:9655  function produceItemByCarParts_Manufacturer(uint _upc, string memory _originFarmName, string memory _originFarmInformation, string memory _originFarmLatitude, string memory _originFarmLongitude, string memory _productNotes, uint _price) public\r... */\n      dup3\n      add\n        /* \"--CODEGEN--\":35:44   */\n      dup4\n        /* \"--CODEGEN--\":28:32   */\n      0x20\n        /* \"--CODEGEN--\":12:26   */\n      dup3\n        /* \"--CODEGEN--\":8:33   */\n      add\n        /* \"--CODEGEN--\":5:45   */\n      gt\n        /* \"--CODEGEN--\":2:4   */\n      iszero\n      tag_84\n      jumpi\n        /* \"--CODEGEN--\":58:59   */\n      0x0\n        /* \"--CODEGEN--\":55:56   */\n      dup1\n        /* \"--CODEGEN--\":48:60   */\n      revert\n        /* \"--CODEGEN--\":2:4   */\n    tag_84:\n        /* \"contracts/parmigianobase/SupplyChain.sol\":7149:9655  function produceItemByCarParts_Manufacturer(uint _upc, string memory _originFarmName, string memory _originFarmInformation, string memory _originFarmLatitude, string memory _originFarmLongitude, string memory _productNotes, uint _price) public\r... */\n      dup1\n      calldataload\n      swap1\n      0x20\n      add\n      swap2\n        /* \"--CODEGEN--\":100:109   */\n      dup5\n        /* \"--CODEGEN--\":95:96   */\n      0x1\n        /* \"--CODEGEN--\":81:93   */\n      dup4\n        /* \"--CODEGEN--\":77:97   */\n      mul\n        /* \"--CODEGEN--\":67:75   */\n      dup5\n        /* \"--CODEGEN--\":63:98   */\n      add\n        /* \"--CODEGEN--\":60:110   */\n      gt\n        /* \"--CODEGEN--\":39:50   */\n      0x100000000\n        /* \"--CODEGEN--\":25:37   */\n      dup4\n        /* \"--CODEGEN--\":22:51   */\n      gt\n        /* \"--CODEGEN--\":11:118   */\n      or\n        /* \"--CODEGEN--\":8:10   */\n      iszero\n      tag_85\n      jumpi\n        /* \"--CODEGEN--\":131:132   */\n      0x0\n        /* \"--CODEGEN--\":128:129   */\n      dup1\n        /* \"--CODEGEN--\":121:133   */\n      revert\n        /* \"--CODEGEN--\":8:10   */\n    tag_85:\n        /* \"contracts/parmigianobase/SupplyChain.sol\":7149:9655  function produceItemByCarParts_Manufacturer(uint _upc, string memory _originFarmName, string memory _originFarmInformation, string memory _originFarmLatitude, string memory _originFarmLongitude, string memory _productNotes, uint _price) public\r... */\n      swap2\n      swap1\n      dup1\n      dup1\n      0x1f\n      add\n      0x20\n      dup1\n      swap2\n      div\n      mul\n      0x20\n      add\n      mload(0x40)\n      swap1\n      dup2\n      add\n      0x40\n      mstore\n      dup1\n      swap4\n      swap3\n      swap2\n      swap1\n      dup2\n      dup2\n      mstore\n      0x20\n      add\n      dup4\n      dup4\n        /* \"--CODEGEN--\":30:33   */\n      dup1\n        /* \"--CODEGEN--\":22:28   */\n      dup3\n        /* \"--CODEGEN--\":14:20   */\n      dup5\n        /* \"--CODEGEN--\":1:34   */\n      calldatacopy\n        /* \"--CODEGEN--\":99:100   */\n      0x0\n        /* \"--CODEGEN--\":93:96   */\n      dup2\n        /* \"--CODEGEN--\":85:91   */\n      dup5\n        /* \"--CODEGEN--\":81:97   */\n      add\n        /* \"--CODEGEN--\":74:101   */\n      mstore\n        /* \"--CODEGEN--\":137:141   */\n      0x1f\n        /* \"--CODEGEN--\":133:142   */\n      not\n        /* \"--CODEGEN--\":126:130   */\n      0x1f\n        /* \"--CODEGEN--\":121:124   */\n      dup3\n        /* \"--CODEGEN--\":117:131   */\n      add\n        /* \"--CODEGEN--\":113:143   */\n      and\n        /* \"--CODEGEN--\":106:143   */\n      swap1\n      pop\n        /* \"--CODEGEN--\":169:172   */\n      dup1\n        /* \"--CODEGEN--\":161:167   */\n      dup4\n        /* \"--CODEGEN--\":157:173   */\n      add\n        /* \"--CODEGEN--\":147:173   */\n      swap3\n      pop\n        /* \"contracts/parmigianobase/SupplyChain.sol\":7149:9655  function produceItemByCarParts_Manufacturer(uint _upc, string memory _originFarmName, string memory _originFarmInformation, string memory _originFarmLatitude, string memory _originFarmLongitude, string memory _productNotes, uint _price) public\r... */\n      pop\n      pop\n      pop\n      pop\n      pop\n      pop\n      swap2\n      swap3\n      swap2\n      swap3\n      swap1\n      dup1\n      calldataload\n      swap1\n      0x20\n      add\n      swap1\n      swap3\n      swap2\n      swap1\n      pop\n      pop\n      pop\n      jump(tag_86)\n    tag_69:\n      stop\n        /* \"contracts/parmigianobase/SupplyChain.sol\":15194:15564  function sellItemByRetailer(uint _upc, uint _price) public\r... */\n    tag_12:\n      callvalue\n        /* \"--CODEGEN--\":8:17   */\n      dup1\n        /* \"--CODEGEN--\":5:7   */\n      iszero\n      tag_87\n      jumpi\n        /* \"--CODEGEN--\":30:31   */\n      0x0\n        /* \"--CODEGEN--\":27:28   */\n      dup1\n        /* \"--CODEGEN--\":20:32   */\n      revert\n        /* \"--CODEGEN--\":5:7   */\n    tag_87:\n        /* \"contracts/parmigianobase/SupplyChain.sol\":15194:15564  function sellItemByRetailer(uint _upc, uint _price) public\r... */\n      pop\n      tag_88\n      0x4\n      dup1\n      calldatasize\n      sub\n        /* \"--CODEGEN--\":13:15   */\n      0x40\n        /* \"--CODEGEN--\":8:11   */\n      dup2\n        /* \"--CODEGEN--\":5:16   */\n      lt\n        /* \"--CODEGEN--\":2:4   */\n      iszero\n      tag_89\n      jumpi\n        /* \"--CODEGEN--\":29:30   */\n      0x0\n        /* \"--CODEGEN--\":26:27   */\n      dup1\n        /* \"--CODEGEN--\":19:31   */\n      revert\n        /* \"--CODEGEN--\":2:4   */\n    tag_89:\n        /* \"contracts/parmigianobase/SupplyChain.sol\":15194:15564  function sellItemByRetailer(uint _upc, uint _price) public\r... */\n      dup2\n      add\n      swap1\n      dup1\n      dup1\n      calldataload\n      swap1\n      0x20\n      add\n      swap1\n      swap3\n      swap2\n      swap1\n      dup1\n      calldataload\n      swap1\n      0x20\n      add\n      swap1\n      swap3\n      swap2\n      swap1\n      pop\n      pop\n      pop\n      jump(tag_90)\n    tag_88:\n      stop\n        /* \"contracts/parmigianoaccesscontrol/RetailerRole.sol\":875:981  function isRetailer(address account) public view returns (bool) {\r... */\n    tag_13:\n      callvalue\n        /* \"--CODEGEN--\":8:17   */\n      dup1\n        /* \"--CODEGEN--\":5:7   */\n      iszero\n      tag_91\n      jumpi\n        /* \"--CODEGEN--\":30:31   */\n      0x0\n        /* \"--CODEGEN--\":27:28   */\n      dup1\n        /* \"--CODEGEN--\":20:32   */\n      revert\n        /* \"--CODEGEN--\":5:7   */\n    tag_91:\n        /* \"contracts/parmigianoaccesscontrol/RetailerRole.sol\":875:981  function isRetailer(address account) public view returns (bool) {\r... */\n      pop\n      tag_92\n      0x4\n      dup1\n      calldatasize\n      sub\n        /* \"--CODEGEN--\":13:15   */\n      0x20\n        /* \"--CODEGEN--\":8:11   */\n      dup2\n        /* \"--CODEGEN--\":5:16   */\n      lt\n        /* \"--CODEGEN--\":2:4   */\n      iszero\n      tag_93\n      jumpi\n        /* \"--CODEGEN--\":29:30   */\n      0x0\n        /* \"--CODEGEN--\":26:27   */\n      dup1\n        /* \"--CODEGEN--\":19:31   */\n      revert\n        /* \"--CODEGEN--\":2:4   */\n    tag_93:\n        /* \"contracts/parmigianoaccesscontrol/RetailerRole.sol\":875:981  function isRetailer(address account) public view returns (bool) {\r... */\n      dup2\n      add\n      swap1\n      dup1\n      dup1\n      calldataload\n      0xffffffffffffffffffffffffffffffffffffffff\n      and\n      swap1\n      0x20\n      add\n      swap1\n      swap3\n      swap2\n      swap1\n      pop\n      pop\n      pop\n      jump(tag_94)\n    tag_92:\n      mload(0x40)\n      dup1\n      dup3\n      iszero\n      iszero\n      iszero\n      iszero\n      dup2\n      mstore\n      0x20\n      add\n      swap2\n      pop\n      pop\n      mload(0x40)\n      dup1\n      swap2\n      sub\n      swap1\n      return\n        /* \"contracts/parmigianoaccesscontrol/DistributorRole.sol\":1255:1336  function renounceDistributor() public {\r... */\n    tag_14:\n      callvalue\n        /* \"--CODEGEN--\":8:17   */\n      dup1\n        /* \"--CODEGEN--\":5:7   */\n      iszero\n      tag_95\n      jumpi\n        /* \"--CODEGEN--\":30:31   */\n      0x0\n        /* \"--CODEGEN--\":27:28   */\n      dup1\n        /* \"--CODEGEN--\":20:32   */\n      revert\n        /* \"--CODEGEN--\":5:7   */\n    tag_95:\n        /* \"contracts/parmigianoaccesscontrol/DistributorRole.sol\":1255:1336  function renounceDistributor() public {\r... */\n      pop\n      tag_96\n      jump(tag_97)\n    tag_96:\n      stop\n        /* \"contracts/parmigianobase/SupplyChain.sol\":17195:17878  function fetchItemBufferTwo(uint _upc) public view returns\r... */\n    tag_15:\n      callvalue\n        /* \"--CODEGEN--\":8:17   */\n      dup1\n        /* \"--CODEGEN--\":5:7   */\n      iszero\n      tag_98\n      jumpi\n        /* \"--CODEGEN--\":30:31   */\n      0x0\n        /* \"--CODEGEN--\":27:28   */\n      dup1\n        /* \"--CODEGEN--\":20:32   */\n      revert\n        /* \"--CODEGEN--\":5:7   */\n    tag_98:\n        /* \"contracts/parmigianobase/SupplyChain.sol\":17195:17878  function fetchItemBufferTwo(uint _upc) public view returns\r... */\n      pop\n      tag_99\n      0x4\n      dup1\n      calldatasize\n      sub\n        /* \"--CODEGEN--\":13:15   */\n      0x20\n        /* \"--CODEGEN--\":8:11   */\n      dup2\n        /* \"--CODEGEN--\":5:16   */\n      lt\n        /* \"--CODEGEN--\":2:4   */\n      iszero\n      tag_100\n      jumpi\n        /* \"--CODEGEN--\":29:30   */\n      0x0\n        /* \"--CODEGEN--\":26:27   */\n      dup1\n        /* \"--CODEGEN--\":19:31   */\n      revert\n        /* \"--CODEGEN--\":2:4   */\n    tag_100:\n        /* \"contracts/parmigianobase/SupplyChain.sol\":17195:17878  function fetchItemBufferTwo(uint _upc) public view returns\r... */\n      dup2\n      add\n      swap1\n      dup1\n      dup1\n      calldataload\n      swap1\n      0x20\n      add\n      swap1\n      swap3\n      swap2\n      swap1\n      pop\n      pop\n      pop\n      jump(tag_101)\n    tag_99:\n      mload(0x40)\n      dup1\n      dup12\n      dup2\n      mstore\n      0x20\n      add\n      dup11\n      dup2\n      mstore\n      0x20\n      add\n      dup10\n      dup2\n      mstore\n      0x20\n      add\n      dup1\n      0x20\n      add\n      dup9\n      dup2\n      mstore\n      0x20\n      add\n      dup8\n      dup2\n      mstore\n      0x20\n      add\n      dup7\n      0xc\n      dup2\n      gt\n      iszero\n      tag_102\n      jumpi\n      invalid\n    tag_102:\n      0xff\n      and\n      dup2\n      mstore\n      0x20\n      add\n      dup6\n      0xffffffffffffffffffffffffffffffffffffffff\n      and\n      0xffffffffffffffffffffffffffffffffffffffff\n      and\n      dup2\n      mstore\n      0x20\n      add\n      dup5\n      0xffffffffffffffffffffffffffffffffffffffff\n      and\n      0xffffffffffffffffffffffffffffffffffffffff\n      and\n      dup2\n      mstore\n      0x20\n      add\n      dup4\n      0xffffffffffffffffffffffffffffffffffffffff\n      and\n      0xffffffffffffffffffffffffffffffffffffffff\n      and\n      dup2\n      mstore\n      0x20\n      add\n      dup3\n      dup2\n      sub\n      dup3\n      mstore\n      dup10\n      dup2\n      dup2\n      mload\n      dup2\n      mstore\n      0x20\n      add\n      swap2\n      pop\n      dup1\n      mload\n      swap1\n      0x20\n      add\n      swap1\n      dup1\n      dup4\n      dup4\n        /* \"--CODEGEN--\":23:24   */\n      0x0\n        /* \"--CODEGEN--\":8:108   */\n    tag_103:\n        /* \"--CODEGEN--\":33:36   */\n      dup4\n        /* \"--CODEGEN--\":30:31   */\n      dup2\n        /* \"--CODEGEN--\":27:37   */\n      lt\n        /* \"--CODEGEN--\":8:108   */\n      iszero\n      tag_104\n      jumpi\n        /* \"--CODEGEN--\":99:100   */\n      dup1\n        /* \"--CODEGEN--\":94:97   */\n      dup3\n        /* \"--CODEGEN--\":90:101   */\n      add\n        /* \"--CODEGEN--\":84:102   */\n      mload\n        /* \"--CODEGEN--\":80:81   */\n      dup2\n        /* \"--CODEGEN--\":75:78   */\n      dup5\n        /* \"--CODEGEN--\":71:82   */\n      add\n        /* \"--CODEGEN--\":64:103   */\n      mstore\n        /* \"--CODEGEN--\":52:54   */\n      0x20\n        /* \"--CODEGEN--\":49:50   */\n      dup2\n        /* \"--CODEGEN--\":45:55   */\n      add\n        /* \"--CODEGEN--\":40:55   */\n      swap1\n      pop\n        /* \"--CODEGEN--\":8:108   */\n      jump(tag_103)\n    tag_104:\n        /* \"--CODEGEN--\":12:26   */\n      pop\n        /* \"contracts/parmigianobase/SupplyChain.sol\":17195:17878  function fetchItemBufferTwo(uint _upc) public view returns\r... */\n      pop\n      pop\n      pop\n      swap1\n      pop\n      swap1\n      dup2\n      add\n      swap1\n      0x1f\n      and\n      dup1\n      iszero\n      tag_106\n      jumpi\n      dup1\n      dup3\n      sub\n      dup1\n      mload\n      0x1\n      dup4\n      0x20\n      sub\n      0x100\n      exp\n      sub\n      not\n      and\n      dup2\n      mstore\n      0x20\n      add\n      swap2\n      pop\n    tag_106:\n      pop\n      swap12\n      pop\n      pop\n      pop\n      pop\n      pop\n      pop\n      pop\n      pop\n      pop\n      pop\n      pop\n      pop\n      mload(0x40)\n      dup1\n      swap2\n      sub\n      swap1\n      return\n        /* \"contracts/parmigianocore/Ownable.sol\":889:1032  function renounceOwnership() public onlyOwner {\r... */\n    tag_16:\n      callvalue\n        /* \"--CODEGEN--\":8:17   */\n      dup1\n        /* \"--CODEGEN--\":5:7   */\n      iszero\n      tag_107\n      jumpi\n        /* \"--CODEGEN--\":30:31   */\n      0x0\n        /* \"--CODEGEN--\":27:28   */\n      dup1\n        /* \"--CODEGEN--\":20:32   */\n      revert\n        /* \"--CODEGEN--\":5:7   */\n    tag_107:\n        /* \"contracts/parmigianocore/Ownable.sol\":889:1032  function renounceOwnership() public onlyOwner {\r... */\n      pop\n      tag_108\n      jump(tag_109)\n    tag_108:\n      stop\n        /* \"contracts/parmigianoaccesscontrol/DistributorRole.sol\":1080:1181  function addDistributor(address account) public onlyDistributor {\r... */\n    tag_17:\n      callvalue\n        /* \"--CODEGEN--\":8:17   */\n      dup1\n        /* \"--CODEGEN--\":5:7   */\n      iszero\n      tag_110\n      jumpi\n        /* \"--CODEGEN--\":30:31   */\n      0x0\n        /* \"--CODEGEN--\":27:28   */\n      dup1\n        /* \"--CODEGEN--\":20:32   */\n      revert\n        /* \"--CODEGEN--\":5:7   */\n    tag_110:\n        /* \"contracts/parmigianoaccesscontrol/DistributorRole.sol\":1080:1181  function addDistributor(address account) public onlyDistributor {\r... */\n      pop\n      tag_111\n      0x4\n      dup1\n      calldatasize\n      sub\n        /* \"--CODEGEN--\":13:15   */\n      0x20\n        /* \"--CODEGEN--\":8:11   */\n      dup2\n        /* \"--CODEGEN--\":5:16   */\n      lt\n        /* \"--CODEGEN--\":2:4   */\n      iszero\n      tag_112\n      jumpi\n        /* \"--CODEGEN--\":29:30   */\n      0x0\n        /* \"--CODEGEN--\":26:27   */\n      dup1\n        /* \"--CODEGEN--\":19:31   */\n      revert\n        /* \"--CODEGEN--\":2:4   */\n    tag_112:\n        /* \"contracts/parmigianoaccesscontrol/DistributorRole.sol\":1080:1181  function addDistributor(address account) public onlyDistributor {\r... */\n      dup2\n      add\n      swap1\n      dup1\n      dup1\n      calldataload\n      0xffffffffffffffffffffffffffffffffffffffff\n      and\n      swap1\n      0x20\n      add\n      swap1\n      swap3\n      swap2\n      swap1\n      pop\n      pop\n      pop\n      jump(tag_113)\n    tag_111:\n      stop\n        /* \"contracts/parmigianobase/SupplyChain.sol\":16339:17122  function fetchItemBufferOne(uint _upc) public view returns\r... */\n    tag_18:\n      callvalue\n        /* \"--CODEGEN--\":8:17   */\n      dup1\n        /* \"--CODEGEN--\":5:7   */\n      iszero\n      tag_114\n      jumpi\n        /* \"--CODEGEN--\":30:31   */\n      0x0\n        /* \"--CODEGEN--\":27:28   */\n      dup1\n        /* \"--CODEGEN--\":20:32   */\n      revert\n        /* \"--CODEGEN--\":5:7   */\n    tag_114:\n        /* \"contracts/parmigianobase/SupplyChain.sol\":16339:17122  function fetchItemBufferOne(uint _upc) public view returns\r... */\n      pop\n      tag_115\n      0x4\n      dup1\n      calldatasize\n      sub\n        /* \"--CODEGEN--\":13:15   */\n      0x20\n        /* \"--CODEGEN--\":8:11   */\n      dup2\n        /* \"--CODEGEN--\":5:16   */\n      lt\n        /* \"--CODEGEN--\":2:4   */\n      iszero\n      tag_116\n      jumpi\n        /* \"--CODEGEN--\":29:30   */\n      0x0\n        /* \"--CODEGEN--\":26:27   */\n      dup1\n        /* \"--CODEGEN--\":19:31   */\n      revert\n        /* \"--CODEGEN--\":2:4   */\n    tag_116:\n        /* \"contracts/parmigianobase/SupplyChain.sol\":16339:17122  function fetchItemBufferOne(uint _upc) public view returns\r... */\n      dup2\n      add\n      swap1\n      dup1\n      dup1\n      calldataload\n      swap1\n      0x20\n      add\n      swap1\n      swap3\n      swap2\n      swap1\n      pop\n      pop\n      pop\n      jump(tag_117)\n    tag_115:\n      mload(0x40)\n      dup1\n      dup12\n      dup2\n      mstore\n      0x20\n      add\n      dup11\n      dup2\n      mstore\n      0x20\n      add\n      dup10\n      0xffffffffffffffffffffffffffffffffffffffff\n      and\n      0xffffffffffffffffffffffffffffffffffffffff\n      and\n      dup2\n      mstore\n      0x20\n      add\n      dup9\n      0xffffffffffffffffffffffffffffffffffffffff\n      and\n      0xffffffffffffffffffffffffffffffffffffffff\n      and\n      dup2\n      mstore\n      0x20\n      add\n      dup1\n      0x20\n      add\n      dup1\n      0x20\n      add\n      dup1\n      0x20\n      add\n      dup1\n      0x20\n      add\n      dup8\n      dup2\n      mstore\n      0x20\n      add\n      dup7\n      dup2\n      mstore\n      0x20\n      add\n      dup6\n      dup2\n      sub\n      dup6\n      mstore\n      dup12\n      dup2\n      dup2\n      mload\n      dup2\n      mstore\n      0x20\n      add\n      swap2\n      pop\n      dup1\n      mload\n      swap1\n      0x20\n      add\n      swap1\n      dup1\n      dup4\n      dup4\n        /* \"--CODEGEN--\":23:24   */\n      0x0\n        /* \"--CODEGEN--\":8:108   */\n    tag_118:\n        /* \"--CODEGEN--\":33:36   */\n      dup4\n        /* \"--CODEGEN--\":30:31   */\n      dup2\n        /* \"--CODEGEN--\":27:37   */\n      lt\n        /* \"--CODEGEN--\":8:108   */\n      iszero\n      tag_119\n      jumpi\n        /* \"--CODEGEN--\":99:100   */\n      dup1\n        /* \"--CODEGEN--\":94:97   */\n      dup3\n        /* \"--CODEGEN--\":90:101   */\n      add\n        /* \"--CODEGEN--\":84:102   */\n      mload\n        /* \"--CODEGEN--\":80:81   */\n      dup2\n        /* \"--CODEGEN--\":75:78   */\n      dup5\n        /* \"--CODEGEN--\":71:82   */\n      add\n        /* \"--CODEGEN--\":64:103   */\n      mstore\n        /* \"--CODEGEN--\":52:54   */\n      0x20\n        /* \"--CODEGEN--\":49:50   */\n      dup2\n        /* \"--CODEGEN--\":45:55   */\n      add\n        /* \"--CODEGEN--\":40:55   */\n      swap1\n      pop\n        /* \"--CODEGEN--\":8:108   */\n      jump(tag_118)\n    tag_119:\n        /* \"--CODEGEN--\":12:26   */\n      pop\n        /* \"contracts/parmigianobase/SupplyChain.sol\":16339:17122  function fetchItemBufferOne(uint _upc) public view returns\r... */\n      pop\n      pop\n      pop\n      swap1\n      pop\n      swap1\n      dup2\n      add\n      swap1\n      0x1f\n      and\n      dup1\n      iszero\n      tag_121\n      jumpi\n      dup1\n      dup3\n      sub\n      dup1\n      mload\n      0x1\n      dup4\n      0x20\n      sub\n      0x100\n      exp\n      sub\n      not\n      and\n      dup2\n      mstore\n      0x20\n      add\n      swap2\n      pop\n    tag_121:\n      pop\n      dup6\n      dup2\n      sub\n      dup5\n      mstore\n      dup11\n      dup2\n      dup2\n      mload\n      dup2\n      mstore\n      0x20\n      add\n      swap2\n      pop\n      dup1\n      mload\n      swap1\n      0x20\n      add\n      swap1\n      dup1\n      dup4\n      dup4\n        /* \"--CODEGEN--\":23:24   */\n      0x0\n        /* \"--CODEGEN--\":8:108   */\n    tag_122:\n        /* \"--CODEGEN--\":33:36   */\n      dup4\n        /* \"--CODEGEN--\":30:31   */\n      dup2\n        /* \"--CODEGEN--\":27:37   */\n      lt\n        /* \"--CODEGEN--\":8:108   */\n      iszero\n      tag_123\n      jumpi\n        /* \"--CODEGEN--\":99:100   */\n      dup1\n        /* \"--CODEGEN--\":94:97   */\n      dup3\n        /* \"--CODEGEN--\":90:101   */\n      add\n        /* \"--CODEGEN--\":84:102   */\n      mload\n        /* \"--CODEGEN--\":80:81   */\n      dup2\n        /* \"--CODEGEN--\":75:78   */\n      dup5\n        /* \"--CODEGEN--\":71:82   */\n      add\n        /* \"--CODEGEN--\":64:103   */\n      mstore\n        /* \"--CODEGEN--\":52:54   */\n      0x20\n        /* \"--CODEGEN--\":49:50   */\n      dup2\n        /* \"--CODEGEN--\":45:55   */\n      add\n        /* \"--CODEGEN--\":40:55   */\n      swap1\n      pop\n        /* \"--CODEGEN--\":8:108   */\n      jump(tag_122)\n    tag_123:\n        /* \"--CODEGEN--\":12:26   */\n      pop\n        /* \"contracts/parmigianobase/SupplyChain.sol\":16339:17122  function fetchItemBufferOne(uint _upc) public view returns\r... */\n      pop\n      pop\n      pop\n      swap1\n      pop\n      swap1\n      dup2\n      add\n      swap1\n      0x1f\n      and\n      dup1\n      iszero\n      tag_125\n      jumpi\n      dup1\n      dup3\n      sub\n      dup1\n      mload\n      0x1\n      dup4\n      0x20\n      sub\n      0x100\n      exp\n      sub\n      not\n      and\n      dup2\n      mstore\n      0x20\n      add\n      swap2\n      pop\n    tag_125:\n      pop\n      dup6\n      dup2\n      sub\n      dup4\n      mstore\n      dup10\n      dup2\n      dup2\n      mload\n      dup2\n      mstore\n      0x20\n      add\n      swap2\n      pop\n      dup1\n      mload\n      swap1\n      0x20\n      add\n      swap1\n      dup1\n      dup4\n      dup4\n        /* \"--CODEGEN--\":23:24   */\n      0x0\n        /* \"--CODEGEN--\":8:108   */\n    tag_126:\n        /* \"--CODEGEN--\":33:36   */\n      dup4\n        /* \"--CODEGEN--\":30:31   */\n      dup2\n        /* \"--CODEGEN--\":27:37   */\n      lt\n        /* \"--CODEGEN--\":8:108   */\n      iszero\n      tag_127\n      jumpi\n        /* \"--CODEGEN--\":99:100   */\n      dup1\n        /* \"--CODEGEN--\":94:97   */\n      dup3\n        /* \"--CODEGEN--\":90:101   */\n      add\n        /* \"--CODEGEN--\":84:102   */\n      mload\n        /* \"--CODEGEN--\":80:81   */\n      dup2\n        /* \"--CODEGEN--\":75:78   */\n      dup5\n        /* \"--CODEGEN--\":71:82   */\n      add\n        /* \"--CODEGEN--\":64:103   */\n      mstore\n        /* \"--CODEGEN--\":52:54   */\n      0x20\n        /* \"--CODEGEN--\":49:50   */\n      dup2\n        /* \"--CODEGEN--\":45:55   */\n      add\n        /* \"--CODEGEN--\":40:55   */\n      swap1\n      pop\n        /* \"--CODEGEN--\":8:108   */\n      jump(tag_126)\n    tag_127:\n        /* \"--CODEGEN--\":12:26   */\n      pop\n        /* \"contracts/parmigianobase/SupplyChain.sol\":16339:17122  function fetchItemBufferOne(uint _upc) public view returns\r... */\n      pop\n      pop\n      pop\n      swap1\n      pop\n      swap1\n      dup2\n      add\n      swap1\n      0x1f\n      and\n      dup1\n      iszero\n      tag_129\n      jumpi\n      dup1\n      dup3\n      sub\n      dup1\n      mload\n      0x1\n      dup4\n      0x20\n      sub\n      0x100\n      exp\n      sub\n      not\n      and\n      dup2\n      mstore\n      0x20\n      add\n      swap2\n      pop\n    tag_129:\n      pop\n      dup6\n      dup2\n      sub\n      dup3\n      mstore\n      dup9\n      dup2\n      dup2\n      mload\n      dup2\n      mstore\n      0x20\n      add\n      swap2\n      pop\n      dup1\n      mload\n      swap1\n      0x20\n      add\n      swap1\n      dup1\n      dup4\n      dup4\n        /* \"--CODEGEN--\":23:24   */\n      0x0\n        /* \"--CODEGEN--\":8:108   */\n    tag_130:\n        /* \"--CODEGEN--\":33:36   */\n      dup4\n        /* \"--CODEGEN--\":30:31   */\n      dup2\n        /* \"--CODEGEN--\":27:37   */\n      lt\n        /* \"--CODEGEN--\":8:108   */\n      iszero\n      tag_131\n      jumpi\n        /* \"--CODEGEN--\":99:100   */\n      dup1\n        /* \"--CODEGEN--\":94:97   */\n      dup3\n        /* \"--CODEGEN--\":90:101   */\n      add\n        /* \"--CODEGEN--\":84:102   */\n      mload\n        /* \"--CODEGEN--\":80:81   */\n      dup2\n        /* \"--CODEGEN--\":75:78   */\n      dup5\n        /* \"--CODEGEN--\":71:82   */\n      add\n        /* \"--CODEGEN--\":64:103   */\n      mstore\n        /* \"--CODEGEN--\":52:54   */\n      0x20\n        /* \"--CODEGEN--\":49:50   */\n      dup2\n        /* \"--CODEGEN--\":45:55   */\n      add\n        /* \"--CODEGEN--\":40:55   */\n      swap1\n      pop\n        /* \"--CODEGEN--\":8:108   */\n      jump(tag_130)\n    tag_131:\n        /* \"--CODEGEN--\":12:26   */\n      pop\n        /* \"contracts/parmigianobase/SupplyChain.sol\":16339:17122  function fetchItemBufferOne(uint _upc) public view returns\r... */\n      pop\n      pop\n      pop\n      swap1\n      pop\n      swap1\n      dup2\n      add\n      swap1\n      0x1f\n      and\n      dup1\n      iszero\n      tag_133\n      jumpi\n      dup1\n      dup3\n      sub\n      dup1\n      mload\n      0x1\n      dup4\n      0x20\n      sub\n      0x100\n      exp\n      sub\n      not\n      and\n      dup2\n      mstore\n      0x20\n      add\n      swap2\n      pop\n    tag_133:\n      pop\n      swap15\n      pop\n      pop\n      pop\n      pop\n      pop\n      pop\n      pop\n      pop\n      pop\n      pop\n      pop\n      pop\n      pop\n      pop\n      pop\n      mload(0x40)\n      dup1\n      swap2\n      sub\n      swap1\n      return\n        /* \"contracts/parmigianobase/SupplyChain.sol\":14435:14780  function shippedItemByDistributor(uint _upc) public\r... */\n    tag_19:\n      callvalue\n        /* \"--CODEGEN--\":8:17   */\n      dup1\n        /* \"--CODEGEN--\":5:7   */\n      iszero\n      tag_134\n      jumpi\n        /* \"--CODEGEN--\":30:31   */\n      0x0\n        /* \"--CODEGEN--\":27:28   */\n      dup1\n        /* \"--CODEGEN--\":20:32   */\n      revert\n        /* \"--CODEGEN--\":5:7   */\n    tag_134:\n        /* \"contracts/parmigianobase/SupplyChain.sol\":14435:14780  function shippedItemByDistributor(uint _upc) public\r... */\n      pop\n      tag_135\n      0x4\n      dup1\n      calldatasize\n      sub\n        /* \"--CODEGEN--\":13:15   */\n      0x20\n        /* \"--CODEGEN--\":8:11   */\n      dup2\n        /* \"--CODEGEN--\":5:16   */\n      lt\n        /* \"--CODEGEN--\":2:4   */\n      iszero\n      tag_136\n      jumpi\n        /* \"--CODEGEN--\":29:30   */\n      0x0\n        /* \"--CODEGEN--\":26:27   */\n      dup1\n        /* \"--CODEGEN--\":19:31   */\n      revert\n        /* \"--CODEGEN--\":2:4   */\n    tag_136:\n        /* \"contracts/parmigianobase/SupplyChain.sol\":14435:14780  function shippedItemByDistributor(uint _upc) public\r... */\n      dup2\n      add\n      swap1\n      dup1\n      dup1\n      calldataload\n      swap1\n      0x20\n      add\n      swap1\n      swap3\n      swap2\n      swap1\n      pop\n      pop\n      pop\n      jump(tag_137)\n    tag_135:\n      stop\n        /* \"contracts/parmigianoaccesscontrol/ConsumerRole.sol\":906:1012  function isConsumer(address account) public view returns (bool) {\r... */\n    tag_20:\n      callvalue\n        /* \"--CODEGEN--\":8:17   */\n      dup1\n        /* \"--CODEGEN--\":5:7   */\n      iszero\n      tag_138\n      jumpi\n        /* \"--CODEGEN--\":30:31   */\n      0x0\n        /* \"--CODEGEN--\":27:28   */\n      dup1\n        /* \"--CODEGEN--\":20:32   */\n      revert\n        /* \"--CODEGEN--\":5:7   */\n    tag_138:\n        /* \"contracts/parmigianoaccesscontrol/ConsumerRole.sol\":906:1012  function isConsumer(address account) public view returns (bool) {\r... */\n      pop\n      tag_139\n      0x4\n      dup1\n      calldatasize\n      sub\n        /* \"--CODEGEN--\":13:15   */\n      0x20\n        /* \"--CODEGEN--\":8:11   */\n      dup2\n        /* \"--CODEGEN--\":5:16   */\n      lt\n        /* \"--CODEGEN--\":2:4   */\n      iszero\n      tag_140\n      jumpi\n        /* \"--CODEGEN--\":29:30   */\n      0x0\n        /* \"--CODEGEN--\":26:27   */\n      dup1\n        /* \"--CODEGEN--\":19:31   */\n      revert\n        /* \"--CODEGEN--\":2:4   */\n    tag_140:\n        /* \"contracts/parmigianoaccesscontrol/ConsumerRole.sol\":906:1012  function isConsumer(address account) public view returns (bool) {\r... */\n      dup2\n      add\n      swap1\n      dup1\n      dup1\n      calldataload\n      0xffffffffffffffffffffffffffffffffffffffff\n      and\n      swap1\n      0x20\n      add\n      swap1\n      swap3\n      swap2\n      swap1\n      pop\n      pop\n      pop\n      jump(tag_141)\n    tag_139:\n      mload(0x40)\n      dup1\n      dup3\n      iszero\n      iszero\n      iszero\n      iszero\n      dup2\n      mstore\n      0x20\n      add\n      swap2\n      pop\n      pop\n      mload(0x40)\n      dup1\n      swap2\n      sub\n      swap1\n      return\n        /* \"contracts/parmigianobase/SupplyChain.sol\":13286:13676  function sellItemByDistributor(uint _upc, uint _price) public\r... */\n    tag_21:\n      callvalue\n        /* \"--CODEGEN--\":8:17   */\n      dup1\n        /* \"--CODEGEN--\":5:7   */\n      iszero\n      tag_142\n      jumpi\n        /* \"--CODEGEN--\":30:31   */\n      0x0\n        /* \"--CODEGEN--\":27:28   */\n      dup1\n        /* \"--CODEGEN--\":20:32   */\n      revert\n        /* \"--CODEGEN--\":5:7   */\n    tag_142:\n        /* \"contracts/parmigianobase/SupplyChain.sol\":13286:13676  function sellItemByDistributor(uint _upc, uint _price) public\r... */\n      pop\n      tag_143\n      0x4\n      dup1\n      calldatasize\n      sub\n        /* \"--CODEGEN--\":13:15   */\n      0x40\n        /* \"--CODEGEN--\":8:11   */\n      dup2\n        /* \"--CODEGEN--\":5:16   */\n      lt\n        /* \"--CODEGEN--\":2:4   */\n      iszero\n      tag_144\n      jumpi\n        /* \"--CODEGEN--\":29:30   */\n      0x0\n        /* \"--CODEGEN--\":26:27   */\n      dup1\n        /* \"--CODEGEN--\":19:31   */\n      revert\n        /* \"--CODEGEN--\":2:4   */\n    tag_144:\n        /* \"contracts/parmigianobase/SupplyChain.sol\":13286:13676  function sellItemByDistributor(uint _upc, uint _price) public\r... */\n      dup2\n      add\n      swap1\n      dup1\n      dup1\n      calldataload\n      swap1\n      0x20\n      add\n      swap1\n      swap3\n      swap2\n      swap1\n      dup1\n      calldataload\n      swap1\n      0x20\n      add\n      swap1\n      swap3\n      swap2\n      swap1\n      pop\n      pop\n      pop\n      jump(tag_145)\n    tag_143:\n      stop\n        /* \"contracts/parmigianoaccesscontrol/RetailerRole.sol\":1045:1137  function addRetailer(address account) public onlyRetailer {\r... */\n    tag_22:\n      callvalue\n        /* \"--CODEGEN--\":8:17   */\n      dup1\n        /* \"--CODEGEN--\":5:7   */\n      iszero\n      tag_146\n      jumpi\n        /* \"--CODEGEN--\":30:31   */\n      0x0\n        /* \"--CODEGEN--\":27:28   */\n      dup1\n        /* \"--CODEGEN--\":20:32   */\n      revert\n        /* \"--CODEGEN--\":5:7   */\n    tag_146:\n        /* \"contracts/parmigianoaccesscontrol/RetailerRole.sol\":1045:1137  function addRetailer(address account) public onlyRetailer {\r... */\n      pop\n      tag_147\n      0x4\n      dup1\n      calldatasize\n      sub\n        /* \"--CODEGEN--\":13:15   */\n      0x20\n        /* \"--CODEGEN--\":8:11   */\n      dup2\n        /* \"--CODEGEN--\":5:16   */\n      lt\n        /* \"--CODEGEN--\":2:4   */\n      iszero\n      tag_148\n      jumpi\n        /* \"--CODEGEN--\":29:30   */\n      0x0\n        /* \"--CODEGEN--\":26:27   */\n      dup1\n        /* \"--CODEGEN--\":19:31   */\n      revert\n        /* \"--CODEGEN--\":2:4   */\n    tag_148:\n        /* \"contracts/parmigianoaccesscontrol/RetailerRole.sol\":1045:1137  function addRetailer(address account) public onlyRetailer {\r... */\n      dup2\n      add\n      swap1\n      dup1\n      dup1\n      calldataload\n      0xffffffffffffffffffffffffffffffffffffffff\n      and\n      swap1\n      0x20\n      add\n      swap1\n      swap3\n      swap2\n      swap1\n      pop\n      pop\n      pop\n      jump(tag_149)\n    tag_147:\n      stop\n        /* \"contracts/parmigianoaccesscontrol/DistributorRole.sol\":901:1013  function isDistributor(address account) public view returns (bool) {\r... */\n    tag_23:\n      callvalue\n        /* \"--CODEGEN--\":8:17   */\n      dup1\n        /* \"--CODEGEN--\":5:7   */\n      iszero\n      tag_150\n      jumpi\n        /* \"--CODEGEN--\":30:31   */\n      0x0\n        /* \"--CODEGEN--\":27:28   */\n      dup1\n        /* \"--CODEGEN--\":20:32   */\n      revert\n        /* \"--CODEGEN--\":5:7   */\n    tag_150:\n        /* \"contracts/parmigianoaccesscontrol/DistributorRole.sol\":901:1013  function isDistributor(address account) public view returns (bool) {\r... */\n      pop\n      tag_151\n      0x4\n      dup1\n      calldatasize\n      sub\n        /* \"--CODEGEN--\":13:15   */\n      0x20\n        /* \"--CODEGEN--\":8:11   */\n      dup2\n        /* \"--CODEGEN--\":5:16   */\n      lt\n        /* \"--CODEGEN--\":2:4   */\n      iszero\n      tag_152\n      jumpi\n        /* \"--CODEGEN--\":29:30   */\n      0x0\n        /* \"--CODEGEN--\":26:27   */\n      dup1\n        /* \"--CODEGEN--\":19:31   */\n      revert\n        /* \"--CODEGEN--\":2:4   */\n    tag_152:\n        /* \"contracts/parmigianoaccesscontrol/DistributorRole.sol\":901:1013  function isDistributor(address account) public view returns (bool) {\r... */\n      dup2\n      add\n      swap1\n      dup1\n      dup1\n      calldataload\n      0xffffffffffffffffffffffffffffffffffffffff\n      and\n      swap1\n      0x20\n      add\n      swap1\n      swap3\n      swap2\n      swap1\n      pop\n      pop\n      pop\n      jump(tag_153)\n    tag_151:\n      mload(0x40)\n      dup1\n      dup3\n      iszero\n      iszero\n      iszero\n      iszero\n      dup2\n      mstore\n      0x20\n      add\n      swap2\n      pop\n      pop\n      mload(0x40)\n      dup1\n      swap2\n      sub\n      swap1\n      return\n        /* \"contracts/parmigianocore/Ownable.sol\":738:833  function isOwner() public view returns (bool) {\r... */\n    tag_24:\n      callvalue\n        /* \"--CODEGEN--\":8:17   */\n      dup1\n        /* \"--CODEGEN--\":5:7   */\n      iszero\n      tag_154\n      jumpi\n        /* \"--CODEGEN--\":30:31   */\n      0x0\n        /* \"--CODEGEN--\":27:28   */\n      dup1\n        /* \"--CODEGEN--\":20:32   */\n      revert\n        /* \"--CODEGEN--\":5:7   */\n    tag_154:\n        /* \"contracts/parmigianocore/Ownable.sol\":738:833  function isOwner() public view returns (bool) {\r... */\n      pop\n      tag_155\n      jump(tag_156)\n    tag_155:\n      mload(0x40)\n      dup1\n      dup3\n      iszero\n      iszero\n      iszero\n      iszero\n      dup2\n      mstore\n      0x20\n      add\n      swap2\n      pop\n      pop\n      mload(0x40)\n      dup1\n      swap2\n      sub\n      swap1\n      return\n        /* \"contracts/parmigianobase/SupplyChain.sol\":12875:13204  function packageItemByDistributor(uint _upc) public\r... */\n    tag_25:\n      callvalue\n        /* \"--CODEGEN--\":8:17   */\n      dup1\n        /* \"--CODEGEN--\":5:7   */\n      iszero\n      tag_157\n      jumpi\n        /* \"--CODEGEN--\":30:31   */\n      0x0\n        /* \"--CODEGEN--\":27:28   */\n      dup1\n        /* \"--CODEGEN--\":20:32   */\n      revert\n        /* \"--CODEGEN--\":5:7   */\n    tag_157:\n        /* \"contracts/parmigianobase/SupplyChain.sol\":12875:13204  function packageItemByDistributor(uint _upc) public\r... */\n      pop\n      tag_158\n      0x4\n      dup1\n      calldatasize\n      sub\n        /* \"--CODEGEN--\":13:15   */\n      0x20\n        /* \"--CODEGEN--\":8:11   */\n      dup2\n        /* \"--CODEGEN--\":5:16   */\n      lt\n        /* \"--CODEGEN--\":2:4   */\n      iszero\n      tag_159\n      jumpi\n        /* \"--CODEGEN--\":29:30   */\n      0x0\n        /* \"--CODEGEN--\":26:27   */\n      dup1\n        /* \"--CODEGEN--\":19:31   */\n      revert\n        /* \"--CODEGEN--\":2:4   */\n    tag_159:\n        /* \"contracts/parmigianobase/SupplyChain.sol\":12875:13204  function packageItemByDistributor(uint _upc) public\r... */\n      dup2\n      add\n      swap1\n      dup1\n      dup1\n      calldataload\n      swap1\n      0x20\n      add\n      swap1\n      swap3\n      swap2\n      swap1\n      pop\n      pop\n      pop\n      jump(tag_160)\n    tag_158:\n      stop\n        /* \"contracts/parmigianoaccesscontrol/CarParts_ManufacturerRole.sol\":1017:1149  function isCarParts_Manufacturer(address account) public view returns (bool) {\r... */\n    tag_26:\n      callvalue\n        /* \"--CODEGEN--\":8:17   */\n      dup1\n        /* \"--CODEGEN--\":5:7   */\n      iszero\n      tag_161\n      jumpi\n        /* \"--CODEGEN--\":30:31   */\n      0x0\n        /* \"--CODEGEN--\":27:28   */\n      dup1\n        /* \"--CODEGEN--\":20:32   */\n      revert\n        /* \"--CODEGEN--\":5:7   */\n    tag_161:\n        /* \"contracts/parmigianoaccesscontrol/CarParts_ManufacturerRole.sol\":1017:1149  function isCarParts_Manufacturer(address account) public view returns (bool) {\r... */\n      pop\n      tag_162\n      0x4\n      dup1\n      calldatasize\n      sub\n        /* \"--CODEGEN--\":13:15   */\n      0x20\n        /* \"--CODEGEN--\":8:11   */\n      dup2\n        /* \"--CODEGEN--\":5:16   */\n      lt\n        /* \"--CODEGEN--\":2:4   */\n      iszero\n      tag_163\n      jumpi\n        /* \"--CODEGEN--\":29:30   */\n      0x0\n        /* \"--CODEGEN--\":26:27   */\n      dup1\n        /* \"--CODEGEN--\":19:31   */\n      revert\n        /* \"--CODEGEN--\":2:4   */\n    tag_163:\n        /* \"contracts/parmigianoaccesscontrol/CarParts_ManufacturerRole.sol\":1017:1149  function isCarParts_Manufacturer(address account) public view returns (bool) {\r... */\n      dup2\n      add\n      swap1\n      dup1\n      dup1\n      calldataload\n      0xffffffffffffffffffffffffffffffffffffffff\n      and\n      swap1\n      0x20\n      add\n      swap1\n      swap3\n      swap2\n      swap1\n      pop\n      pop\n      pop\n      jump(tag_164)\n    tag_162:\n      mload(0x40)\n      dup1\n      dup3\n      iszero\n      iszero\n      iszero\n      iszero\n      dup2\n      mstore\n      0x20\n      add\n      swap2\n      pop\n      pop\n      mload(0x40)\n      dup1\n      swap2\n      sub\n      swap1\n      return\n        /* \"contracts/parmigianoaccesscontrol/RetailerRole.sol\":1208:1283  function renounceRetailer() public {\r... */\n    tag_27:\n      callvalue\n        /* \"--CODEGEN--\":8:17   */\n      dup1\n        /* \"--CODEGEN--\":5:7   */\n      iszero\n      tag_165\n      jumpi\n        /* \"--CODEGEN--\":30:31   */\n      0x0\n        /* \"--CODEGEN--\":27:28   */\n      dup1\n        /* \"--CODEGEN--\":20:32   */\n      revert\n        /* \"--CODEGEN--\":5:7   */\n    tag_165:\n        /* \"contracts/parmigianoaccesscontrol/RetailerRole.sol\":1208:1283  function renounceRetailer() public {\r... */\n      pop\n      tag_166\n      jump(tag_167)\n    tag_166:\n      stop\n        /* \"contracts/parmigianobase/SupplyChain.sol\":15610:16266  function purchaseItemByConsumer(uint _upc) public payable\r... */\n    tag_28:\n      tag_168\n      0x4\n      dup1\n      calldatasize\n      sub\n        /* \"--CODEGEN--\":13:15   */\n      0x20\n        /* \"--CODEGEN--\":8:11   */\n      dup2\n        /* \"--CODEGEN--\":5:16   */\n      lt\n        /* \"--CODEGEN--\":2:4   */\n      iszero\n      tag_169\n      jumpi\n        /* \"--CODEGEN--\":29:30   */\n      0x0\n        /* \"--CODEGEN--\":26:27   */\n      dup1\n        /* \"--CODEGEN--\":19:31   */\n      revert\n        /* \"--CODEGEN--\":2:4   */\n    tag_169:\n        /* \"contracts/parmigianobase/SupplyChain.sol\":15610:16266  function purchaseItemByConsumer(uint _upc) public payable\r... */\n      dup2\n      add\n      swap1\n      dup1\n      dup1\n      calldataload\n      swap1\n      0x20\n      add\n      swap1\n      swap3\n      swap2\n      swap1\n      pop\n      pop\n      pop\n      jump(tag_170)\n    tag_168:\n      stop\n        /* \"contracts/parmigianocore/Ownable.sol\":449:537  function ownerLookup() public view returns (address) {\r... */\n    tag_29:\n      callvalue\n        /* \"--CODEGEN--\":8:17   */\n      dup1\n        /* \"--CODEGEN--\":5:7   */\n      iszero\n      tag_171\n      jumpi\n        /* \"--CODEGEN--\":30:31   */\n      0x0\n        /* \"--CODEGEN--\":27:28   */\n      dup1\n        /* \"--CODEGEN--\":20:32   */\n      revert\n        /* \"--CODEGEN--\":5:7   */\n    tag_171:\n        /* \"contracts/parmigianocore/Ownable.sol\":449:537  function ownerLookup() public view returns (address) {\r... */\n      pop\n      tag_172\n      jump(tag_173)\n    tag_172:\n      mload(0x40)\n      dup1\n      dup3\n      0xffffffffffffffffffffffffffffffffffffffff\n      and\n      0xffffffffffffffffffffffffffffffffffffffff\n      and\n      dup2\n      mstore\n      0x20\n      add\n      swap2\n      pop\n      pop\n      mload(0x40)\n      dup1\n      swap2\n      sub\n      swap1\n      return\n        /* \"contracts/parmigianobase/SupplyChain.sol\":12366:12790  function processedItemByDistributor(uint _upc,uint slices) public\r... */\n    tag_30:\n      callvalue\n        /* \"--CODEGEN--\":8:17   */\n      dup1\n        /* \"--CODEGEN--\":5:7   */\n      iszero\n      tag_174\n      jumpi\n        /* \"--CODEGEN--\":30:31   */\n      0x0\n        /* \"--CODEGEN--\":27:28   */\n      dup1\n        /* \"--CODEGEN--\":20:32   */\n      revert\n        /* \"--CODEGEN--\":5:7   */\n    tag_174:\n        /* \"contracts/parmigianobase/SupplyChain.sol\":12366:12790  function processedItemByDistributor(uint _upc,uint slices) public\r... */\n      pop\n      tag_175\n      0x4\n      dup1\n      calldatasize\n      sub\n        /* \"--CODEGEN--\":13:15   */\n      0x40\n        /* \"--CODEGEN--\":8:11   */\n      dup2\n        /* \"--CODEGEN--\":5:16   */\n      lt\n        /* \"--CODEGEN--\":2:4   */\n      iszero\n      tag_176\n      jumpi\n        /* \"--CODEGEN--\":29:30   */\n      0x0\n        /* \"--CODEGEN--\":26:27   */\n      dup1\n        /* \"--CODEGEN--\":19:31   */\n      revert\n        /* \"--CODEGEN--\":2:4   */\n    tag_176:\n        /* \"contracts/parmigianobase/SupplyChain.sol\":12366:12790  function processedItemByDistributor(uint _upc,uint slices) public\r... */\n      dup2\n      add\n      swap1\n      dup1\n      dup1\n      calldataload\n      swap1\n      0x20\n      add\n      swap1\n      swap3\n      swap2\n      swap1\n      dup1\n      calldataload\n      swap1\n      0x20\n      add\n      swap1\n      swap3\n      swap2\n      swap1\n      pop\n      pop\n      pop\n      jump(tag_177)\n    tag_175:\n      stop\n        /* \"contracts/parmigianocore/Ownable.sol\":1096:1205  function transferOwnership(address newOwner) public onlyOwner {\r... */\n    tag_31:\n      callvalue\n        /* \"--CODEGEN--\":8:17   */\n      dup1\n        /* \"--CODEGEN--\":5:7   */\n      iszero\n      tag_178\n      jumpi\n        /* \"--CODEGEN--\":30:31   */\n      0x0\n        /* \"--CODEGEN--\":27:28   */\n      dup1\n        /* \"--CODEGEN--\":20:32   */\n      revert\n        /* \"--CODEGEN--\":5:7   */\n    tag_178:\n        /* \"contracts/parmigianocore/Ownable.sol\":1096:1205  function transferOwnership(address newOwner) public onlyOwner {\r... */\n      pop\n      tag_179\n      0x4\n      dup1\n      calldatasize\n      sub\n        /* \"--CODEGEN--\":13:15   */\n      0x20\n        /* \"--CODEGEN--\":8:11   */\n      dup2\n        /* \"--CODEGEN--\":5:16   */\n      lt\n        /* \"--CODEGEN--\":2:4   */\n      iszero\n      tag_180\n      jumpi\n        /* \"--CODEGEN--\":29:30   */\n      0x0\n        /* \"--CODEGEN--\":26:27   */\n      dup1\n        /* \"--CODEGEN--\":19:31   */\n      revert\n        /* \"--CODEGEN--\":2:4   */\n    tag_180:\n        /* \"contracts/parmigianocore/Ownable.sol\":1096:1205  function transferOwnership(address newOwner) public onlyOwner {\r... */\n      dup2\n      add\n      swap1\n      dup1\n      dup1\n      calldataload\n      0xffffffffffffffffffffffffffffffffffffffff\n      and\n      swap1\n      0x20\n      add\n      swap1\n      swap3\n      swap2\n      swap1\n      pop\n      pop\n      pop\n      jump(tag_181)\n    tag_179:\n      stop\n        /* \"contracts/parmigianoaccesscontrol/ConsumerRole.sol\":1239:1326  function renounceConsumer(address account) public {\r... */\n    tag_32:\n      callvalue\n        /* \"--CODEGEN--\":8:17   */\n      dup1\n        /* \"--CODEGEN--\":5:7   */\n      iszero\n      tag_182\n      jumpi\n        /* \"--CODEGEN--\":30:31   */\n      0x0\n        /* \"--CODEGEN--\":27:28   */\n      dup1\n        /* \"--CODEGEN--\":20:32   */\n      revert\n        /* \"--CODEGEN--\":5:7   */\n    tag_182:\n        /* \"contracts/parmigianoaccesscontrol/ConsumerRole.sol\":1239:1326  function renounceConsumer(address account) public {\r... */\n      pop\n      tag_183\n      0x4\n      dup1\n      calldatasize\n      sub\n        /* \"--CODEGEN--\":13:15   */\n      0x20\n        /* \"--CODEGEN--\":8:11   */\n      dup2\n        /* \"--CODEGEN--\":5:16   */\n      lt\n        /* \"--CODEGEN--\":2:4   */\n      iszero\n      tag_184\n      jumpi\n        /* \"--CODEGEN--\":29:30   */\n      0x0\n        /* \"--CODEGEN--\":26:27   */\n      dup1\n        /* \"--CODEGEN--\":19:31   */\n      revert\n        /* \"--CODEGEN--\":2:4   */\n    tag_184:\n        /* \"contracts/parmigianoaccesscontrol/ConsumerRole.sol\":1239:1326  function renounceConsumer(address account) public {\r... */\n      dup2\n      add\n      swap1\n      dup1\n      dup1\n      calldataload\n      0xffffffffffffffffffffffffffffffffffffffff\n      and\n      swap1\n      0x20\n      add\n      swap1\n      swap3\n      swap2\n      swap1\n      pop\n      pop\n      pop\n      jump(tag_185)\n    tag_183:\n      stop\n        /* \"contracts/parmigianobase/SupplyChain.sol\":10301:11289  function purchaseItemByDistributor(uint _upc) public payable\r... */\n    tag_33:\n      tag_186\n      0x4\n      dup1\n      calldatasize\n      sub\n        /* \"--CODEGEN--\":13:15   */\n      0x20\n        /* \"--CODEGEN--\":8:11   */\n      dup2\n        /* \"--CODEGEN--\":5:16   */\n      lt\n        /* \"--CODEGEN--\":2:4   */\n      iszero\n      tag_187\n      jumpi\n        /* \"--CODEGEN--\":29:30   */\n      0x0\n        /* \"--CODEGEN--\":26:27   */\n      dup1\n        /* \"--CODEGEN--\":19:31   */\n      revert\n        /* \"--CODEGEN--\":2:4   */\n    tag_187:\n        /* \"contracts/parmigianobase/SupplyChain.sol\":10301:11289  function purchaseItemByDistributor(uint _upc) public payable\r... */\n      dup2\n      add\n      swap1\n      dup1\n      dup1\n      calldataload\n      swap1\n      0x20\n      add\n      swap1\n      swap3\n      swap2\n      swap1\n      pop\n      pop\n      pop\n      jump(tag_188)\n    tag_186:\n      stop\n        /* \"contracts/parmigianoaccesscontrol/CarParts_ManufacturerRole.sol\":1441:1542  function renounceCarParts_Manufacturer() public {\r... */\n    tag_34:\n      callvalue\n        /* \"--CODEGEN--\":8:17   */\n      dup1\n        /* \"--CODEGEN--\":5:7   */\n      iszero\n      tag_189\n      jumpi\n        /* \"--CODEGEN--\":30:31   */\n      0x0\n        /* \"--CODEGEN--\":27:28   */\n      dup1\n        /* \"--CODEGEN--\":20:32   */\n      revert\n        /* \"--CODEGEN--\":5:7   */\n    tag_189:\n        /* \"contracts/parmigianoaccesscontrol/CarParts_ManufacturerRole.sol\":1441:1542  function renounceCarParts_Manufacturer() public {\r... */\n      pop\n      tag_190\n      jump(tag_191)\n    tag_190:\n      stop\n        /* \"contracts/parmigianoaccesscontrol/ConsumerRole.sol\":1076:1168  function addConsumer(address account) public onlyConsumer {\r... */\n    tag_38:\n        /* \"contracts/parmigianoaccesscontrol/ConsumerRole.sol\":807:829  isConsumer(msg.sender) */\n      tag_193\n        /* \"contracts/parmigianoaccesscontrol/ConsumerRole.sol\":818:828  msg.sender */\n      caller\n        /* \"contracts/parmigianoaccesscontrol/ConsumerRole.sol\":807:817  isConsumer */\n      tag_141\n        /* \"contracts/parmigianoaccesscontrol/ConsumerRole.sol\":807:829  isConsumer(msg.sender) */\n      jump\t// in\n    tag_193:\n        /* \"contracts/parmigianoaccesscontrol/ConsumerRole.sol\":799:830  require(isConsumer(msg.sender)) */\n      iszero\n      iszero\n      tag_194\n      jumpi\n      0x0\n      dup1\n      revert\n    tag_194:\n        /* \"contracts/parmigianoaccesscontrol/ConsumerRole.sol\":1141:1162  _addConsumer(account) */\n      tag_196\n        /* \"contracts/parmigianoaccesscontrol/ConsumerRole.sol\":1154:1161  account */\n      dup2\n        /* \"contracts/parmigianoaccesscontrol/ConsumerRole.sol\":1141:1153  _addConsumer */\n      tag_197\n        /* \"contracts/parmigianoaccesscontrol/ConsumerRole.sol\":1141:1162  _addConsumer(account) */\n      jump\t// in\n    tag_196:\n        /* \"contracts/parmigianoaccesscontrol/ConsumerRole.sol\":1076:1168  function addConsumer(address account) public onlyConsumer {\r... */\n      pop\n      jump\t// out\n        /* \"contracts/parmigianobase/SupplyChain.sol\":17950:18357  function fetchitemHistory(uint _upc) public view returns\r... */\n    tag_42:\n        /* \"contracts/parmigianobase/SupplyChain.sol\":18021:18065  uint blockCarParts_ManufacturerToDistributor */\n      0x0\n        /* \"contracts/parmigianobase/SupplyChain.sol\":18074:18105  uint blockDistributorToRetailer */\n      dup1\n        /* \"contracts/parmigianobase/SupplyChain.sol\":18114:18142  uint blockRetailerToConsumer */\n      0x0\n        /* \"contracts/parmigianobase/SupplyChain.sol\":18205:18228  Txblocks memory txblock */\n      tag_199\n      jump\t// in(tag_200)\n    tag_199:\n        /* \"contracts/parmigianobase/SupplyChain.sol\":18231:18243  itemsHistory */\n      0x9\n        /* \"contracts/parmigianobase/SupplyChain.sol\":18231:18249  itemsHistory[_upc] */\n      0x0\n        /* \"contracts/parmigianobase/SupplyChain.sol\":18244:18248  _upc */\n      dup7\n        /* \"contracts/parmigianobase/SupplyChain.sol\":18231:18249  itemsHistory[_upc] */\n      dup2\n      mstore\n      0x20\n      add\n      swap1\n      dup2\n      mstore\n      0x20\n      add\n      0x0\n      keccak256\n        /* \"contracts/parmigianobase/SupplyChain.sol\":18205:18249  Txblocks memory txblock = itemsHistory[_upc] */\n      0x60\n      mload(0x40)\n      swap1\n      dup2\n      add\n      0x40\n      mstore\n      swap1\n      dup2\n      0x0\n      dup3\n      add\n      sload\n      dup2\n      mstore\n      0x20\n      add\n      0x1\n      dup3\n      add\n      sload\n      dup2\n      mstore\n      0x20\n      add\n      0x2\n      dup3\n      add\n      sload\n      dup2\n      mstore\n      pop\n      pop\n      swap1\n      pop\n        /* \"contracts/parmigianobase/SupplyChain.sol\":18283:18290  txblock */\n      dup1\n        /* \"contracts/parmigianobase/SupplyChain.sol\":18283:18294  txblock.FTD */\n      0x0\n      add\n      mload\n        /* \"contracts/parmigianobase/SupplyChain.sol\":18305:18312  txblock */\n      dup2\n        /* \"contracts/parmigianobase/SupplyChain.sol\":18305:18316  txblock.DTR */\n      0x20\n      add\n      mload\n        /* \"contracts/parmigianobase/SupplyChain.sol\":18327:18334  txblock */\n      dup3\n        /* \"contracts/parmigianobase/SupplyChain.sol\":18327:18338  txblock.RTC */\n      0x40\n      add\n      mload\n        /* \"contracts/parmigianobase/SupplyChain.sol\":18258:18347  return\r... */\n      swap4\n      pop\n      swap4\n      pop\n      swap4\n      pop\n      pop\n        /* \"contracts/parmigianobase/SupplyChain.sol\":17950:18357  function fetchitemHistory(uint _upc) public view returns\r... */\n      swap2\n      swap4\n      swap1\n      swap3\n      pop\n      jump\t// out\n        /* \"contracts/parmigianobase/SupplyChain.sol\":11406:11839  function shippedItemByCarParts_Manufacturer(uint _upc) public payable\r... */\n    tag_45:\n        /* \"contracts/parmigianoaccesscontrol/CarParts_ManufacturerRole.sol\":892:927  isCarParts_Manufacturer(msg.sender) */\n      tag_202\n        /* \"contracts/parmigianoaccesscontrol/CarParts_ManufacturerRole.sol\":916:926  msg.sender */\n      caller\n        /* \"contracts/parmigianoaccesscontrol/CarParts_ManufacturerRole.sol\":892:915  isCarParts_Manufacturer */\n      tag_164\n        /* \"contracts/parmigianoaccesscontrol/CarParts_ManufacturerRole.sol\":892:927  isCarParts_Manufacturer(msg.sender) */\n      jump\t// in\n    tag_202:\n        /* \"contracts/parmigianoaccesscontrol/CarParts_ManufacturerRole.sol\":884:928  require(isCarParts_Manufacturer(msg.sender)) */\n      iszero\n      iszero\n      tag_203\n      jumpi\n      0x0\n      dup1\n      revert\n    tag_203:\n        /* \"contracts/parmigianobase/SupplyChain.sol\":11594:11598  _upc */\n      dup1\n        /* \"contracts/parmigianobase/SupplyChain.sol\":5192:5220  State.PurchasedByDistributor */\n      0x2\n        /* \"contracts/parmigianobase/SupplyChain.sol\":5167:5220  items[_upc].itemState == State.PurchasedByDistributor */\n      0xc\n      dup2\n      gt\n      iszero\n      tag_205\n      jumpi\n      invalid\n    tag_205:\n        /* \"contracts/parmigianobase/SupplyChain.sol\":5167:5172  items */\n      0x8\n        /* \"contracts/parmigianobase/SupplyChain.sol\":5167:5178  items[_upc] */\n      0x0\n        /* \"contracts/parmigianobase/SupplyChain.sol\":5173:5177  _upc */\n      dup4\n        /* \"contracts/parmigianobase/SupplyChain.sol\":5167:5178  items[_upc] */\n      dup2\n      mstore\n      0x20\n      add\n      swap1\n      dup2\n      mstore\n      0x20\n      add\n      0x0\n      keccak256\n        /* \"contracts/parmigianobase/SupplyChain.sol\":5167:5188  items[_upc].itemState */\n      0xd\n      add\n      0x0\n      swap1\n      sload\n      swap1\n      0x100\n      exp\n      swap1\n      div\n      0xff\n      and\n        /* \"contracts/parmigianobase/SupplyChain.sol\":5167:5220  items[_upc].itemState == State.PurchasedByDistributor */\n      0xc\n      dup2\n      gt\n      iszero\n      tag_206\n      jumpi\n      invalid\n    tag_206:\n      eq\n        /* \"contracts/parmigianobase/SupplyChain.sol\":5159:5221  require(items[_upc].itemState == State.PurchasedByDistributor) */\n      iszero\n      iszero\n      tag_207\n      jumpi\n      0x0\n      dup1\n      revert\n    tag_207:\n        /* \"contracts/parmigianobase/SupplyChain.sol\":11618:11623  items */\n      0x8\n        /* \"contracts/parmigianobase/SupplyChain.sol\":11618:11629  items[_upc] */\n      0x0\n        /* \"contracts/parmigianobase/SupplyChain.sol\":11624:11628  _upc */\n      dup4\n        /* \"contracts/parmigianobase/SupplyChain.sol\":11618:11629  items[_upc] */\n      dup2\n      mstore\n      0x20\n      add\n      swap1\n      dup2\n      mstore\n      0x20\n      add\n      0x0\n      keccak256\n        /* \"contracts/parmigianobase/SupplyChain.sol\":11618:11659  items[_upc].originCarParts_ManufacturerID */\n      0x3\n      add\n      0x0\n      swap1\n      sload\n      swap1\n      0x100\n      exp\n      swap1\n      div\n      0xffffffffffffffffffffffffffffffffffffffff\n      and\n        /* \"contracts/parmigianobase/SupplyChain.sol\":4283:4291  _address */\n      dup1\n        /* \"contracts/parmigianobase/SupplyChain.sol\":4269:4291  msg.sender == _address */\n      0xffffffffffffffffffffffffffffffffffffffff\n      and\n        /* \"contracts/parmigianobase/SupplyChain.sol\":4269:4279  msg.sender */\n      caller\n        /* \"contracts/parmigianobase/SupplyChain.sol\":4269:4291  msg.sender == _address */\n      0xffffffffffffffffffffffffffffffffffffffff\n      and\n      eq\n        /* \"contracts/parmigianobase/SupplyChain.sol\":4261:4292  require(msg.sender == _address) */\n      iszero\n      iszero\n      tag_209\n      jumpi\n      0x0\n      dup1\n      revert\n    tag_209:\n        /* \"contracts/parmigianobase/SupplyChain.sol\":11733:11769  State.ShippedByCarParts_Manufacturer */\n      0x3\n        /* \"contracts/parmigianobase/SupplyChain.sol\":11709:11714  items */\n      0x8\n        /* \"contracts/parmigianobase/SupplyChain.sol\":11709:11720  items[_upc] */\n      0x0\n        /* \"contracts/parmigianobase/SupplyChain.sol\":11715:11719  _upc */\n      dup6\n        /* \"contracts/parmigianobase/SupplyChain.sol\":11709:11720  items[_upc] */\n      dup2\n      mstore\n      0x20\n      add\n      swap1\n      dup2\n      mstore\n      0x20\n      add\n      0x0\n      keccak256\n        /* \"contracts/parmigianobase/SupplyChain.sol\":11709:11730  items[_upc].itemState */\n      0xd\n      add\n      0x0\n        /* \"contracts/parmigianobase/SupplyChain.sol\":11709:11769  items[_upc].itemState = State.ShippedByCarParts_Manufacturer */\n      0x100\n      exp\n      dup2\n      sload\n      dup2\n      0xff\n      mul\n      not\n      and\n      swap1\n      dup4\n      0xc\n      dup2\n      gt\n      iszero\n      tag_211\n      jumpi\n      invalid\n    tag_211:\n      mul\n      or\n      swap1\n      sstore\n      pop\n        /* \"contracts/parmigianobase/SupplyChain.sol\":11797:11833  ShippedByCarParts_Manufacturer(_upc) */\n      0xb20d2d5532c31dbf6d548e783f891fa0aca5a4d1ba547151308b89b3d2930d24\n        /* \"contracts/parmigianobase/SupplyChain.sol\":11828:11832  _upc */\n      dup4\n        /* \"contracts/parmigianobase/SupplyChain.sol\":11797:11833  ShippedByCarParts_Manufacturer(_upc) */\n      mload(0x40)\n      dup1\n      dup3\n      dup2\n      mstore\n      0x20\n      add\n      swap2\n      pop\n      pop\n      mload(0x40)\n      dup1\n      swap2\n      sub\n      swap1\n      log1\n        /* \"contracts/parmigianobase/SupplyChain.sol\":5228:5229  _ */\n      pop\n        /* \"contracts/parmigianoaccesscontrol/CarParts_ManufacturerRole.sol\":935:936  _ */\n      pop\n        /* \"contracts/parmigianobase/SupplyChain.sol\":11406:11839  function shippedItemByCarParts_Manufacturer(uint _upc) public payable\r... */\n      pop\n      jump\t// out\n        /* \"contracts/parmigianobase/SupplyChain.sol\":9739:10223  function sellItemByCarParts_Manufacturer(uint _upc, uint _price) public\r... */\n    tag_49:\n        /* \"contracts/parmigianoaccesscontrol/CarParts_ManufacturerRole.sol\":892:927  isCarParts_Manufacturer(msg.sender) */\n      tag_213\n        /* \"contracts/parmigianoaccesscontrol/CarParts_ManufacturerRole.sol\":916:926  msg.sender */\n      caller\n        /* \"contracts/parmigianoaccesscontrol/CarParts_ManufacturerRole.sol\":892:915  isCarParts_Manufacturer */\n      tag_164\n        /* \"contracts/parmigianoaccesscontrol/CarParts_ManufacturerRole.sol\":892:927  isCarParts_Manufacturer(msg.sender) */\n      jump\t// in\n    tag_213:\n        /* \"contracts/parmigianoaccesscontrol/CarParts_ManufacturerRole.sol\":884:928  require(isCarParts_Manufacturer(msg.sender)) */\n      iszero\n      iszero\n      tag_214\n      jumpi\n      0x0\n      dup1\n      revert\n    tag_214:\n        /* \"contracts/parmigianobase/SupplyChain.sol\":9938:9942  _upc */\n      dup2\n        /* \"contracts/parmigianobase/SupplyChain.sol\":4904:4940  State.ProduceByCarParts_Manufacturer */\n      0x0\n        /* \"contracts/parmigianobase/SupplyChain.sol\":4879:4940  items[_upc].itemState == State.ProduceByCarParts_Manufacturer */\n      0xc\n      dup2\n      gt\n      iszero\n      tag_216\n      jumpi\n      invalid\n    tag_216:\n        /* \"contracts/parmigianobase/SupplyChain.sol\":4879:4884  items */\n      0x8\n        /* \"contracts/parmigianobase/SupplyChain.sol\":4879:4890  items[_upc] */\n      0x0\n        /* \"contracts/parmigianobase/SupplyChain.sol\":4885:4889  _upc */\n      dup4\n        /* \"contracts/parmigianobase/SupplyChain.sol\":4879:4890  items[_upc] */\n      dup2\n      mstore\n      0x20\n      add\n      swap1\n      dup2\n      mstore\n      0x20\n      add\n      0x0\n      keccak256\n        /* \"contracts/parmigianobase/SupplyChain.sol\":4879:4900  items[_upc].itemState */\n      0xd\n      add\n      0x0\n      swap1\n      sload\n      swap1\n      0x100\n      exp\n      swap1\n      div\n      0xff\n      and\n        /* \"contracts/parmigianobase/SupplyChain.sol\":4879:4940  items[_upc].itemState == State.ProduceByCarParts_Manufacturer */\n      0xc\n      dup2\n      gt\n      iszero\n      tag_217\n      jumpi\n      invalid\n    tag_217:\n      eq\n        /* \"contracts/parmigianobase/SupplyChain.sol\":4871:4941  require(items[_upc].itemState == State.ProduceByCarParts_Manufacturer) */\n      iszero\n      iszero\n      tag_218\n      jumpi\n      0x0\n      dup1\n      revert\n    tag_218:\n        /* \"contracts/parmigianobase/SupplyChain.sol\":10001:10006  items */\n      0x8\n        /* \"contracts/parmigianobase/SupplyChain.sol\":10001:10012  items[_upc] */\n      0x0\n        /* \"contracts/parmigianobase/SupplyChain.sol\":10007:10011  _upc */\n      dup5\n        /* \"contracts/parmigianobase/SupplyChain.sol\":10001:10012  items[_upc] */\n      dup2\n      mstore\n      0x20\n      add\n      swap1\n      dup2\n      mstore\n      0x20\n      add\n      0x0\n      keccak256\n        /* \"contracts/parmigianobase/SupplyChain.sol\":10001:10020  items[_upc].ownerID */\n      0x2\n      add\n      0x0\n      swap1\n      sload\n      swap1\n      0x100\n      exp\n      swap1\n      div\n      0xffffffffffffffffffffffffffffffffffffffff\n      and\n        /* \"contracts/parmigianobase/SupplyChain.sol\":4283:4291  _address */\n      dup1\n        /* \"contracts/parmigianobase/SupplyChain.sol\":4269:4291  msg.sender == _address */\n      0xffffffffffffffffffffffffffffffffffffffff\n      and\n        /* \"contracts/parmigianobase/SupplyChain.sol\":4269:4279  msg.sender */\n      caller\n        /* \"contracts/parmigianobase/SupplyChain.sol\":4269:4291  msg.sender == _address */\n      0xffffffffffffffffffffffffffffffffffffffff\n      and\n      eq\n        /* \"contracts/parmigianobase/SupplyChain.sol\":4261:4292  require(msg.sender == _address) */\n      iszero\n      iszero\n      tag_220\n      jumpi\n      0x0\n      dup1\n      revert\n    tag_220:\n        /* \"contracts/parmigianobase/SupplyChain.sol\":10089:10125  State.ForSaleByCarParts_Manufacturer */\n      0x1\n        /* \"contracts/parmigianobase/SupplyChain.sol\":10065:10070  items */\n      0x8\n        /* \"contracts/parmigianobase/SupplyChain.sol\":10065:10076  items[_upc] */\n      0x0\n        /* \"contracts/parmigianobase/SupplyChain.sol\":10071:10075  _upc */\n      dup7\n        /* \"contracts/parmigianobase/SupplyChain.sol\":10065:10076  items[_upc] */\n      dup2\n      mstore\n      0x20\n      add\n      swap1\n      dup2\n      mstore\n      0x20\n      add\n      0x0\n      keccak256\n        /* \"contracts/parmigianobase/SupplyChain.sol\":10065:10086  items[_upc].itemState */\n      0xd\n      add\n      0x0\n        /* \"contracts/parmigianobase/SupplyChain.sol\":10065:10125  items[_upc].itemState = State.ForSaleByCarParts_Manufacturer */\n      0x100\n      exp\n      dup2\n      sload\n      dup2\n      0xff\n      mul\n      not\n      and\n      swap1\n      dup4\n      0xc\n      dup2\n      gt\n      iszero\n      tag_222\n      jumpi\n      invalid\n    tag_222:\n      mul\n      or\n      swap1\n      sstore\n      pop\n        /* \"contracts/parmigianobase/SupplyChain.sol\":10161:10167  _price */\n      dup3\n        /* \"contracts/parmigianobase/SupplyChain.sol\":10134:10139  items */\n      0x8\n        /* \"contracts/parmigianobase/SupplyChain.sol\":10134:10145  items[_upc] */\n      0x0\n        /* \"contracts/parmigianobase/SupplyChain.sol\":10140:10144  _upc */\n      dup7\n        /* \"contracts/parmigianobase/SupplyChain.sol\":10134:10145  items[_upc] */\n      dup2\n      mstore\n      0x20\n      add\n      swap1\n      dup2\n      mstore\n      0x20\n      add\n      0x0\n      keccak256\n        /* \"contracts/parmigianobase/SupplyChain.sol\":10134:10158  items[_upc].productPrice */\n      0xb\n      add\n        /* \"contracts/parmigianobase/SupplyChain.sol\":10134:10167  items[_upc].productPrice = _price */\n      dup2\n      swap1\n      sstore\n      pop\n        /* \"contracts/parmigianobase/SupplyChain.sol\":10181:10217  ForSaleByCarParts_Manufacturer(_upc) */\n      0x2285967d10dd8a9387bf9a505c30b7016db386768ff2d549d755008dca90c36d\n        /* \"contracts/parmigianobase/SupplyChain.sol\":10212:10216  _upc */\n      dup5\n        /* \"contracts/parmigianobase/SupplyChain.sol\":10181:10217  ForSaleByCarParts_Manufacturer(_upc) */\n      mload(0x40)\n      dup1\n      dup3\n      dup2\n      mstore\n      0x20\n      add\n      swap2\n      pop\n      pop\n      mload(0x40)\n      dup1\n      swap2\n      sub\n      swap1\n      log1\n        /* \"contracts/parmigianobase/SupplyChain.sol\":4948:4949  _ */\n      pop\n        /* \"contracts/parmigianoaccesscontrol/CarParts_ManufacturerRole.sol\":935:936  _ */\n      pop\n        /* \"contracts/parmigianobase/SupplyChain.sol\":9739:10223  function sellItemByCarParts_Manufacturer(uint _upc, uint _price) public\r... */\n      pop\n      pop\n      jump\t// out\n        /* \"contracts/parmigianobase/SupplyChain.sol\":11924:12281  function receivedItemByDistributor(uint _upc) public\r... */\n    tag_53:\n        /* \"contracts/parmigianoaccesscontrol/DistributorRole.sol\":796:821  isDistributor(msg.sender) */\n      tag_224\n        /* \"contracts/parmigianoaccesscontrol/DistributorRole.sol\":810:820  msg.sender */\n      caller\n        /* \"contracts/parmigianoaccesscontrol/DistributorRole.sol\":796:809  isDistributor */\n      tag_153\n        /* \"contracts/parmigianoaccesscontrol/DistributorRole.sol\":796:821  isDistributor(msg.sender) */\n      jump\t// in\n    tag_224:\n        /* \"contracts/parmigianoaccesscontrol/DistributorRole.sol\":788:822  require(isDistributor(msg.sender)) */\n      iszero\n      iszero\n      tag_225\n      jumpi\n      0x0\n      dup1\n      revert\n    tag_225:\n        /* \"contracts/parmigianobase/SupplyChain.sol\":12083:12087  _upc */\n      dup1\n        /* \"contracts/parmigianobase/SupplyChain.sol\":5332:5368  State.ShippedByCarParts_Manufacturer */\n      0x3\n        /* \"contracts/parmigianobase/SupplyChain.sol\":5307:5368  items[_upc].itemState == State.ShippedByCarParts_Manufacturer */\n      0xc\n      dup2\n      gt\n      iszero\n      tag_227\n      jumpi\n      invalid\n    tag_227:\n        /* \"contracts/parmigianobase/SupplyChain.sol\":5307:5312  items */\n      0x8\n        /* \"contracts/parmigianobase/SupplyChain.sol\":5307:5318  items[_upc] */\n      0x0\n        /* \"contracts/parmigianobase/SupplyChain.sol\":5313:5317  _upc */\n      dup4\n        /* \"contracts/parmigianobase/SupplyChain.sol\":5307:5318  items[_upc] */\n      dup2\n      mstore\n      0x20\n      add\n      swap1\n      dup2\n      mstore\n      0x20\n      add\n      0x0\n      keccak256\n        /* \"contracts/parmigianobase/SupplyChain.sol\":5307:5328  items[_upc].itemState */\n      0xd\n      add\n      0x0\n      swap1\n      sload\n      swap1\n      0x100\n      exp\n      swap1\n      div\n      0xff\n      and\n        /* \"contracts/parmigianobase/SupplyChain.sol\":5307:5368  items[_upc].itemState == State.ShippedByCarParts_Manufacturer */\n      0xc\n      dup2\n      gt\n      iszero\n      tag_228\n      jumpi\n      invalid\n    tag_228:\n      eq\n        /* \"contracts/parmigianobase/SupplyChain.sol\":5299:5369  require(items[_upc].itemState == State.ShippedByCarParts_Manufacturer) */\n      iszero\n      iszero\n      tag_229\n      jumpi\n      0x0\n      dup1\n      revert\n    tag_229:\n        /* \"contracts/parmigianobase/SupplyChain.sol\":12107:12112  items */\n      0x8\n        /* \"contracts/parmigianobase/SupplyChain.sol\":12107:12118  items[_upc] */\n      0x0\n        /* \"contracts/parmigianobase/SupplyChain.sol\":12113:12117  _upc */\n      dup4\n        /* \"contracts/parmigianobase/SupplyChain.sol\":12107:12118  items[_upc] */\n      dup2\n      mstore\n      0x20\n      add\n      swap1\n      dup2\n      mstore\n      0x20\n      add\n      0x0\n      keccak256\n        /* \"contracts/parmigianobase/SupplyChain.sol\":12107:12126  items[_upc].ownerID */\n      0x2\n      add\n      0x0\n      swap1\n      sload\n      swap1\n      0x100\n      exp\n      swap1\n      div\n      0xffffffffffffffffffffffffffffffffffffffff\n      and\n        /* \"contracts/parmigianobase/SupplyChain.sol\":4283:4291  _address */\n      dup1\n        /* \"contracts/parmigianobase/SupplyChain.sol\":4269:4291  msg.sender == _address */\n      0xffffffffffffffffffffffffffffffffffffffff\n      and\n        /* \"contracts/parmigianobase/SupplyChain.sol\":4269:4279  msg.sender */\n      caller\n        /* \"contracts/parmigianobase/SupplyChain.sol\":4269:4291  msg.sender == _address */\n      0xffffffffffffffffffffffffffffffffffffffff\n      and\n      eq\n        /* \"contracts/parmigianobase/SupplyChain.sol\":4261:4292  require(msg.sender == _address) */\n      iszero\n      iszero\n      tag_231\n      jumpi\n      0x0\n      dup1\n      revert\n    tag_231:\n        /* \"contracts/parmigianobase/SupplyChain.sol\":12193:12220  State.ReceivedByDistributor */\n      0x4\n        /* \"contracts/parmigianobase/SupplyChain.sol\":12169:12174  items */\n      0x8\n        /* \"contracts/parmigianobase/SupplyChain.sol\":12169:12180  items[_upc] */\n      0x0\n        /* \"contracts/parmigianobase/SupplyChain.sol\":12175:12179  _upc */\n      dup6\n        /* \"contracts/parmigianobase/SupplyChain.sol\":12169:12180  items[_upc] */\n      dup2\n      mstore\n      0x20\n      add\n      swap1\n      dup2\n      mstore\n      0x20\n      add\n      0x0\n      keccak256\n        /* \"contracts/parmigianobase/SupplyChain.sol\":12169:12190  items[_upc].itemState */\n      0xd\n      add\n      0x0\n        /* \"contracts/parmigianobase/SupplyChain.sol\":12169:12220  items[_upc].itemState = State.ReceivedByDistributor */\n      0x100\n      exp\n      dup2\n      sload\n      dup2\n      0xff\n      mul\n      not\n      and\n      swap1\n      dup4\n      0xc\n      dup2\n      gt\n      iszero\n      tag_233\n      jumpi\n      invalid\n    tag_233:\n      mul\n      or\n      swap1\n      sstore\n      pop\n        /* \"contracts/parmigianobase/SupplyChain.sol\":12248:12275  ReceivedByDistributor(_upc) */\n      0xc8ca2150e6e1849a10ef5aa4932060fa353bcacdffeb150c9e1890c6ab9403cc\n        /* \"contracts/parmigianobase/SupplyChain.sol\":12270:12274  _upc */\n      dup4\n        /* \"contracts/parmigianobase/SupplyChain.sol\":12248:12275  ReceivedByDistributor(_upc) */\n      mload(0x40)\n      dup1\n      dup3\n      dup2\n      mstore\n      0x20\n      add\n      swap2\n      pop\n      pop\n      mload(0x40)\n      dup1\n      swap2\n      sub\n      swap1\n      log1\n        /* \"contracts/parmigianobase/SupplyChain.sol\":5376:5377  _ */\n      pop\n        /* \"contracts/parmigianoaccesscontrol/DistributorRole.sol\":829:830  _ */\n      pop\n        /* \"contracts/parmigianobase/SupplyChain.sol\":11924:12281  function receivedItemByDistributor(uint _upc) public\r... */\n      pop\n      jump\t// out\n        /* \"contracts/parmigianobase/SupplyChain.sol\":13759:14364  function purchaseItemByRetailer(uint _upc) public payable\r... */\n    tag_56:\n        /* \"contracts/parmigianoaccesscontrol/RetailerRole.sol\":776:798  isRetailer(msg.sender) */\n      tag_235\n        /* \"contracts/parmigianoaccesscontrol/RetailerRole.sol\":787:797  msg.sender */\n      caller\n        /* \"contracts/parmigianoaccesscontrol/RetailerRole.sol\":776:786  isRetailer */\n      tag_94\n        /* \"contracts/parmigianoaccesscontrol/RetailerRole.sol\":776:798  isRetailer(msg.sender) */\n      jump\t// in\n    tag_235:\n        /* \"contracts/parmigianoaccesscontrol/RetailerRole.sol\":768:799  require(isRetailer(msg.sender)) */\n      iszero\n      iszero\n      tag_236\n      jumpi\n      0x0\n      dup1\n      revert\n    tag_236:\n        /* \"contracts/parmigianobase/SupplyChain.sol\":13907:13911  _upc */\n      dup1\n        /* \"contracts/parmigianobase/SupplyChain.sol\":5859:5885  State.ForSaleByDistributor */\n      0x7\n        /* \"contracts/parmigianobase/SupplyChain.sol\":5834:5885  items[_upc].itemState == State.ForSaleByDistributor */\n      0xc\n      dup2\n      gt\n      iszero\n      tag_238\n      jumpi\n      invalid\n    tag_238:\n        /* \"contracts/parmigianobase/SupplyChain.sol\":5834:5839  items */\n      0x8\n        /* \"contracts/parmigianobase/SupplyChain.sol\":5834:5845  items[_upc] */\n      0x0\n        /* \"contracts/parmigianobase/SupplyChain.sol\":5840:5844  _upc */\n      dup4\n        /* \"contracts/parmigianobase/SupplyChain.sol\":5834:5845  items[_upc] */\n      dup2\n      mstore\n      0x20\n      add\n      swap1\n      dup2\n      mstore\n      0x20\n      add\n      0x0\n      keccak256\n        /* \"contracts/parmigianobase/SupplyChain.sol\":5834:5855  items[_upc].itemState */\n      0xd\n      add\n      0x0\n      swap1\n      sload\n      swap1\n      0x100\n      exp\n      swap1\n      div\n      0xff\n      and\n        /* \"contracts/parmigianobase/SupplyChain.sol\":5834:5885  items[_upc].itemState == State.ForSaleByDistributor */\n      0xc\n      dup2\n      gt\n      iszero\n      tag_239\n      jumpi\n      invalid\n    tag_239:\n      eq\n        /* \"contracts/parmigianobase/SupplyChain.sol\":5826:5886  require(items[_upc].itemState == State.ForSaleByDistributor) */\n      iszero\n      iszero\n      tag_240\n      jumpi\n      0x0\n      dup1\n      revert\n    tag_240:\n        /* \"contracts/parmigianobase/SupplyChain.sol\":13929:13934  items */\n      0x8\n        /* \"contracts/parmigianobase/SupplyChain.sol\":13929:13940  items[_upc] */\n      0x0\n        /* \"contracts/parmigianobase/SupplyChain.sol\":13935:13939  _upc */\n      dup4\n        /* \"contracts/parmigianobase/SupplyChain.sol\":13929:13940  items[_upc] */\n      dup2\n      mstore\n      0x20\n      add\n      swap1\n      dup2\n      mstore\n      0x20\n      add\n      0x0\n      keccak256\n        /* \"contracts/parmigianobase/SupplyChain.sol\":13929:13953  items[_upc].productPrice */\n      0xb\n      add\n      sload\n        /* \"contracts/parmigianobase/SupplyChain.sol\":4461:4467  _price */\n      dup1\n        /* \"contracts/parmigianobase/SupplyChain.sol\":4448:4457  msg.value */\n      callvalue\n        /* \"contracts/parmigianobase/SupplyChain.sol\":4448:4467  msg.value >= _price */\n      lt\n      iszero\n        /* \"contracts/parmigianobase/SupplyChain.sol\":4440:4468  require(msg.value >= _price) */\n      iszero\n      iszero\n      tag_242\n      jumpi\n      0x0\n      dup1\n      revert\n    tag_242:\n        /* \"contracts/parmigianobase/SupplyChain.sol\":13971:13975  _upc */\n      dup3\n        /* \"contracts/parmigianobase/SupplyChain.sol\":13977:13987  msg.sender */\n      caller\n        /* \"contracts/parmigianobase/SupplyChain.sol\":4637:4648  uint _price */\n      0x0\n        /* \"contracts/parmigianobase/SupplyChain.sol\":4651:4656  items */\n      0x8\n        /* \"contracts/parmigianobase/SupplyChain.sol\":4651:4662  items[_upc] */\n      0x0\n        /* \"contracts/parmigianobase/SupplyChain.sol\":4657:4661  _upc */\n      dup5\n        /* \"contracts/parmigianobase/SupplyChain.sol\":4651:4662  items[_upc] */\n      dup2\n      mstore\n      0x20\n      add\n      swap1\n      dup2\n      mstore\n      0x20\n      add\n      0x0\n      keccak256\n        /* \"contracts/parmigianobase/SupplyChain.sol\":4651:4675  items[_upc].productPrice */\n      0xb\n      add\n      sload\n        /* \"contracts/parmigianobase/SupplyChain.sol\":4637:4675  uint _price = items[_upc].productPrice */\n      swap1\n      pop\n        /* \"contracts/parmigianobase/SupplyChain.sol\":4682:4702  uint  amountToReturn */\n      0x0\n        /* \"contracts/parmigianobase/SupplyChain.sol\":4717:4723  _price */\n      dup2\n        /* \"contracts/parmigianobase/SupplyChain.sol\":4705:4714  msg.value */\n      callvalue\n        /* \"contracts/parmigianobase/SupplyChain.sol\":4705:4723  msg.value - _price */\n      sub\n        /* \"contracts/parmigianobase/SupplyChain.sol\":4682:4723  uint  amountToReturn = msg.value - _price */\n      swap1\n      pop\n        /* \"contracts/parmigianobase/SupplyChain.sol\":4730:4743  addressToFund */\n      dup3\n        /* \"contracts/parmigianobase/SupplyChain.sol\":4730:4752  addressToFund.transfer */\n      0xffffffffffffffffffffffffffffffffffffffff\n      and\n        /* \"contracts/parmigianobase/SupplyChain.sol\":4730:4768  addressToFund.transfer(amountToReturn) */\n      0x8fc\n        /* \"contracts/parmigianobase/SupplyChain.sol\":4753:4767  amountToReturn */\n      dup3\n        /* \"contracts/parmigianobase/SupplyChain.sol\":4730:4768  addressToFund.transfer(amountToReturn) */\n      swap1\n      dup2\n      iszero\n      mul\n      swap1\n      mload(0x40)\n      0x0\n      mload(0x40)\n      dup1\n      dup4\n      sub\n      dup2\n      dup6\n      dup9\n      dup9\n      call\n      swap4\n      pop\n      pop\n      pop\n      pop\n      iszero\n        /* \"--CODEGEN--\":8:17   */\n      dup1\n        /* \"--CODEGEN--\":5:7   */\n      iszero\n      tag_244\n      jumpi\n        /* \"--CODEGEN--\":45:61   */\n      returndatasize\n        /* \"--CODEGEN--\":42:43   */\n      0x0\n        /* \"--CODEGEN--\":39:40   */\n      dup1\n        /* \"--CODEGEN--\":24:62   */\n      returndatacopy\n        /* \"--CODEGEN--\":77:93   */\n      returndatasize\n        /* \"--CODEGEN--\":74:75   */\n      0x0\n        /* \"--CODEGEN--\":67:94   */\n      revert\n        /* \"--CODEGEN--\":5:7   */\n    tag_244:\n        /* \"contracts/parmigianobase/SupplyChain.sol\":4730:4768  addressToFund.transfer(amountToReturn) */\n      pop\n        /* \"contracts/parmigianobase/SupplyChain.sol\":14001:14036  address payable ownerAddressPayable */\n      0x0\n        /* \"contracts/parmigianobase/SupplyChain.sol\":14039:14079  _make_payable(items[_upc].distributorID) */\n      tag_246\n        /* \"contracts/parmigianobase/SupplyChain.sol\":14053:14058  items */\n      0x8\n        /* \"contracts/parmigianobase/SupplyChain.sol\":14053:14064  items[_upc] */\n      0x0\n        /* \"contracts/parmigianobase/SupplyChain.sol\":14059:14063  _upc */\n      dup11\n        /* \"contracts/parmigianobase/SupplyChain.sol\":14053:14064  items[_upc] */\n      dup2\n      mstore\n      0x20\n      add\n      swap1\n      dup2\n      mstore\n      0x20\n      add\n      0x0\n      keccak256\n        /* \"contracts/parmigianobase/SupplyChain.sol\":14053:14078  items[_upc].distributorID */\n      0xd\n      add\n      0x1\n      swap1\n      sload\n      swap1\n      0x100\n      exp\n      swap1\n      div\n      0xffffffffffffffffffffffffffffffffffffffff\n      and\n        /* \"contracts/parmigianobase/SupplyChain.sol\":14039:14052  _make_payable */\n      tag_247\n        /* \"contracts/parmigianobase/SupplyChain.sol\":14039:14079  _make_payable(items[_upc].distributorID) */\n      jump\t// in\n    tag_246:\n        /* \"contracts/parmigianobase/SupplyChain.sol\":14001:14079  address payable ownerAddressPayable = _make_payable(items[_upc].distributorID) */\n      swap1\n      pop\n        /* \"contracts/parmigianobase/SupplyChain.sol\":14086:14105  ownerAddressPayable */\n      dup1\n        /* \"contracts/parmigianobase/SupplyChain.sol\":14086:14114  ownerAddressPayable.transfer */\n      0xffffffffffffffffffffffffffffffffffffffff\n      and\n        /* \"contracts/parmigianobase/SupplyChain.sol\":14086:14140  ownerAddressPayable.transfer(items[_upc].productPrice) */\n      0x8fc\n        /* \"contracts/parmigianobase/SupplyChain.sol\":14115:14120  items */\n      0x8\n        /* \"contracts/parmigianobase/SupplyChain.sol\":14115:14126  items[_upc] */\n      0x0\n        /* \"contracts/parmigianobase/SupplyChain.sol\":14121:14125  _upc */\n      dup12\n        /* \"contracts/parmigianobase/SupplyChain.sol\":14115:14126  items[_upc] */\n      dup2\n      mstore\n      0x20\n      add\n      swap1\n      dup2\n      mstore\n      0x20\n      add\n      0x0\n      keccak256\n        /* \"contracts/parmigianobase/SupplyChain.sol\":14115:14139  items[_upc].productPrice */\n      0xb\n      add\n      sload\n        /* \"contracts/parmigianobase/SupplyChain.sol\":14086:14140  ownerAddressPayable.transfer(items[_upc].productPrice) */\n      swap1\n      dup2\n      iszero\n      mul\n      swap1\n      mload(0x40)\n      0x0\n      mload(0x40)\n      dup1\n      dup4\n      sub\n      dup2\n      dup6\n      dup9\n      dup9\n      call\n      swap4\n      pop\n      pop\n      pop\n      pop\n      iszero\n        /* \"--CODEGEN--\":8:17   */\n      dup1\n        /* \"--CODEGEN--\":5:7   */\n      iszero\n      tag_248\n      jumpi\n        /* \"--CODEGEN--\":45:61   */\n      returndatasize\n        /* \"--CODEGEN--\":42:43   */\n      0x0\n        /* \"--CODEGEN--\":39:40   */\n      dup1\n        /* \"--CODEGEN--\":24:62   */\n      returndatacopy\n        /* \"--CODEGEN--\":77:93   */\n      returndatasize\n        /* \"--CODEGEN--\":74:75   */\n      0x0\n        /* \"--CODEGEN--\":67:94   */\n      revert\n        /* \"--CODEGEN--\":5:7   */\n    tag_248:\n        /* \"contracts/parmigianobase/SupplyChain.sol\":14086:14140  ownerAddressPayable.transfer(items[_upc].productPrice) */\n      pop\n        /* \"contracts/parmigianobase/SupplyChain.sol\":14169:14179  msg.sender */\n      caller\n        /* \"contracts/parmigianobase/SupplyChain.sol\":14147:14152  items */\n      0x8\n        /* \"contracts/parmigianobase/SupplyChain.sol\":14147:14158  items[_upc] */\n      0x0\n        /* \"contracts/parmigianobase/SupplyChain.sol\":14153:14157  _upc */\n      dup11\n        /* \"contracts/parmigianobase/SupplyChain.sol\":14147:14158  items[_upc] */\n      dup2\n      mstore\n      0x20\n      add\n      swap1\n      dup2\n      mstore\n      0x20\n      add\n      0x0\n      keccak256\n        /* \"contracts/parmigianobase/SupplyChain.sol\":14147:14166  items[_upc].ownerID */\n      0x2\n      add\n      0x0\n        /* \"contracts/parmigianobase/SupplyChain.sol\":14147:14179  items[_upc].ownerID = msg.sender */\n      0x100\n      exp\n      dup2\n      sload\n      dup2\n      0xffffffffffffffffffffffffffffffffffffffff\n      mul\n      not\n      and\n      swap1\n      dup4\n      0xffffffffffffffffffffffffffffffffffffffff\n      and\n      mul\n      or\n      swap1\n      sstore\n      pop\n        /* \"contracts/parmigianobase/SupplyChain.sol\":14211:14221  msg.sender */\n      caller\n        /* \"contracts/parmigianobase/SupplyChain.sol\":14186:14191  items */\n      0x8\n        /* \"contracts/parmigianobase/SupplyChain.sol\":14186:14197  items[_upc] */\n      0x0\n        /* \"contracts/parmigianobase/SupplyChain.sol\":14192:14196  _upc */\n      dup11\n        /* \"contracts/parmigianobase/SupplyChain.sol\":14186:14197  items[_upc] */\n      dup2\n      mstore\n      0x20\n      add\n      swap1\n      dup2\n      mstore\n      0x20\n      add\n      0x0\n      keccak256\n        /* \"contracts/parmigianobase/SupplyChain.sol\":14186:14208  items[_upc].retailerID */\n      0xe\n      add\n      0x0\n        /* \"contracts/parmigianobase/SupplyChain.sol\":14186:14221  items[_upc].retailerID = msg.sender */\n      0x100\n      exp\n      dup2\n      sload\n      dup2\n      0xffffffffffffffffffffffffffffffffffffffff\n      mul\n      not\n      and\n      swap1\n      dup4\n      0xffffffffffffffffffffffffffffffffffffffff\n      and\n      mul\n      or\n      swap1\n      sstore\n      pop\n        /* \"contracts/parmigianobase/SupplyChain.sol\":14252:14277  State.PurchasedByRetailer */\n      0x8\n        /* \"contracts/parmigianobase/SupplyChain.sol\":14228:14233  items */\n      dup1\n        /* \"contracts/parmigianobase/SupplyChain.sol\":14228:14239  items[_upc] */\n      0x0\n        /* \"contracts/parmigianobase/SupplyChain.sol\":14234:14238  _upc */\n      dup11\n        /* \"contracts/parmigianobase/SupplyChain.sol\":14228:14239  items[_upc] */\n      dup2\n      mstore\n      0x20\n      add\n      swap1\n      dup2\n      mstore\n      0x20\n      add\n      0x0\n      keccak256\n        /* \"contracts/parmigianobase/SupplyChain.sol\":14228:14249  items[_upc].itemState */\n      0xd\n      add\n      0x0\n        /* \"contracts/parmigianobase/SupplyChain.sol\":14228:14277  items[_upc].itemState = State.PurchasedByRetailer */\n      0x100\n      exp\n      dup2\n      sload\n      dup2\n      0xff\n      mul\n      not\n      and\n      swap1\n      dup4\n      0xc\n      dup2\n      gt\n      iszero\n      tag_249\n      jumpi\n      invalid\n    tag_249:\n      mul\n      or\n      swap1\n      sstore\n      pop\n        /* \"contracts/parmigianobase/SupplyChain.sol\":14309:14321  block.number */\n      number\n        /* \"contracts/parmigianobase/SupplyChain.sol\":14284:14296  itemsHistory */\n      0x9\n        /* \"contracts/parmigianobase/SupplyChain.sol\":14284:14302  itemsHistory[_upc] */\n      0x0\n        /* \"contracts/parmigianobase/SupplyChain.sol\":14297:14301  _upc */\n      dup11\n        /* \"contracts/parmigianobase/SupplyChain.sol\":14284:14302  itemsHistory[_upc] */\n      dup2\n      mstore\n      0x20\n      add\n      swap1\n      dup2\n      mstore\n      0x20\n      add\n      0x0\n      keccak256\n        /* \"contracts/parmigianobase/SupplyChain.sol\":14284:14306  itemsHistory[_upc].DTR */\n      0x1\n      add\n        /* \"contracts/parmigianobase/SupplyChain.sol\":14284:14321  itemsHistory[_upc].DTR = block.number */\n      dup2\n      swap1\n      sstore\n      pop\n        /* \"contracts/parmigianobase/SupplyChain.sol\":14333:14358  PurchasedByRetailer(_upc) */\n      0xaa7352d10146444c3afd9bd7fb0ae56b0a85e81139536bbec3f1f660fddd7be1\n        /* \"contracts/parmigianobase/SupplyChain.sol\":14353:14357  _upc */\n      dup9\n        /* \"contracts/parmigianobase/SupplyChain.sol\":14333:14358  PurchasedByRetailer(_upc) */\n      mload(0x40)\n      dup1\n      dup3\n      dup2\n      mstore\n      0x20\n      add\n      swap2\n      pop\n      pop\n      mload(0x40)\n      dup1\n      swap2\n      sub\n      swap1\n      log1\n        /* \"contracts/parmigianobase/SupplyChain.sol\":4775:4776  _ */\n      pop\n        /* \"contracts/parmigianobase/SupplyChain.sol\":4475:4476  _ */\n      pop\n      pop\n      pop\n      pop\n        /* \"contracts/parmigianobase/SupplyChain.sol\":5893:5894  _ */\n      pop\n        /* \"contracts/parmigianoaccesscontrol/RetailerRole.sol\":806:807  _ */\n      pop\n        /* \"contracts/parmigianobase/SupplyChain.sol\":13759:14364  function purchaseItemByRetailer(uint _upc) public payable\r... */\n      pop\n      jump\t// out\n        /* \"contracts/parmigianobase/SupplyChain.sol\":14826:15148  function receivedItemByRetailer(uint _upc) public\r... */\n    tag_60:\n        /* \"contracts/parmigianoaccesscontrol/RetailerRole.sol\":776:798  isRetailer(msg.sender) */\n      tag_251\n        /* \"contracts/parmigianoaccesscontrol/RetailerRole.sol\":787:797  msg.sender */\n      caller\n        /* \"contracts/parmigianoaccesscontrol/RetailerRole.sol\":776:786  isRetailer */\n      tag_94\n        /* \"contracts/parmigianoaccesscontrol/RetailerRole.sol\":776:798  isRetailer(msg.sender) */\n      jump\t// in\n    tag_251:\n        /* \"contracts/parmigianoaccesscontrol/RetailerRole.sol\":768:799  require(isRetailer(msg.sender)) */\n      iszero\n      iszero\n      tag_252\n      jumpi\n      0x0\n      dup1\n      revert\n    tag_252:\n        /* \"contracts/parmigianobase/SupplyChain.sol\":14966:14970  _upc */\n      dup1\n        /* \"contracts/parmigianobase/SupplyChain.sol\":5989:6015  State.ShippedByDistributor */\n      0x9\n        /* \"contracts/parmigianobase/SupplyChain.sol\":5964:6015  items[_upc].itemState == State.ShippedByDistributor */\n      0xc\n      dup2\n      gt\n      iszero\n      tag_254\n      jumpi\n      invalid\n    tag_254:\n        /* \"contracts/parmigianobase/SupplyChain.sol\":5964:5969  items */\n      0x8\n        /* \"contracts/parmigianobase/SupplyChain.sol\":5964:5975  items[_upc] */\n      0x0\n        /* \"contracts/parmigianobase/SupplyChain.sol\":5970:5974  _upc */\n      dup4\n        /* \"contracts/parmigianobase/SupplyChain.sol\":5964:5975  items[_upc] */\n      dup2\n      mstore\n      0x20\n      add\n      swap1\n      dup2\n      mstore\n      0x20\n      add\n      0x0\n      keccak256\n        /* \"contracts/parmigianobase/SupplyChain.sol\":5964:5985  items[_upc].itemState */\n      0xd\n      add\n      0x0\n      swap1\n      sload\n      swap1\n      0x100\n      exp\n      swap1\n      div\n      0xff\n      and\n        /* \"contracts/parmigianobase/SupplyChain.sol\":5964:6015  items[_upc].itemState == State.ShippedByDistributor */\n      0xc\n      dup2\n      gt\n      iszero\n      tag_255\n      jumpi\n      invalid\n    tag_255:\n      eq\n        /* \"contracts/parmigianobase/SupplyChain.sol\":5956:6016  require(items[_upc].itemState == State.ShippedByDistributor) */\n      iszero\n      iszero\n      tag_256\n      jumpi\n      0x0\n      dup1\n      revert\n    tag_256:\n        /* \"contracts/parmigianobase/SupplyChain.sol\":14990:14995  items */\n      0x8\n        /* \"contracts/parmigianobase/SupplyChain.sol\":14990:15001  items[_upc] */\n      0x0\n        /* \"contracts/parmigianobase/SupplyChain.sol\":14996:15000  _upc */\n      dup4\n        /* \"contracts/parmigianobase/SupplyChain.sol\":14990:15001  items[_upc] */\n      dup2\n      mstore\n      0x20\n      add\n      swap1\n      dup2\n      mstore\n      0x20\n      add\n      0x0\n      keccak256\n        /* \"contracts/parmigianobase/SupplyChain.sol\":14990:15009  items[_upc].ownerID */\n      0x2\n      add\n      0x0\n      swap1\n      sload\n      swap1\n      0x100\n      exp\n      swap1\n      div\n      0xffffffffffffffffffffffffffffffffffffffff\n      and\n        /* \"contracts/parmigianobase/SupplyChain.sol\":4283:4291  _address */\n      dup1\n        /* \"contracts/parmigianobase/SupplyChain.sol\":4269:4291  msg.sender == _address */\n      0xffffffffffffffffffffffffffffffffffffffff\n      and\n        /* \"contracts/parmigianobase/SupplyChain.sol\":4269:4279  msg.sender */\n      caller\n        /* \"contracts/parmigianobase/SupplyChain.sol\":4269:4291  msg.sender == _address */\n      0xffffffffffffffffffffffffffffffffffffffff\n      and\n      eq\n        /* \"contracts/parmigianobase/SupplyChain.sol\":4261:4292  require(msg.sender == _address) */\n      iszero\n      iszero\n      tag_258\n      jumpi\n      0x0\n      dup1\n      revert\n    tag_258:\n        /* \"contracts/parmigianobase/SupplyChain.sol\":15080:15104  State.ReceivedByRetailer */\n      0xa\n        /* \"contracts/parmigianobase/SupplyChain.sol\":15056:15061  items */\n      0x8\n        /* \"contracts/parmigianobase/SupplyChain.sol\":15056:15067  items[_upc] */\n      0x0\n        /* \"contracts/parmigianobase/SupplyChain.sol\":15062:15066  _upc */\n      dup6\n        /* \"contracts/parmigianobase/SupplyChain.sol\":15056:15067  items[_upc] */\n      dup2\n      mstore\n      0x20\n      add\n      swap1\n      dup2\n      mstore\n      0x20\n      add\n      0x0\n      keccak256\n        /* \"contracts/parmigianobase/SupplyChain.sol\":15056:15077  items[_upc].itemState */\n      0xd\n      add\n      0x0\n        /* \"contracts/parmigianobase/SupplyChain.sol\":15056:15104  items[_upc].itemState = State.ReceivedByRetailer */\n      0x100\n      exp\n      dup2\n      sload\n      dup2\n      0xff\n      mul\n      not\n      and\n      swap1\n      dup4\n      0xc\n      dup2\n      gt\n      iszero\n      tag_260\n      jumpi\n      invalid\n    tag_260:\n      mul\n      or\n      swap1\n      sstore\n      pop\n        /* \"contracts/parmigianobase/SupplyChain.sol\":15118:15142  ReceivedByRetailer(_upc) */\n      0x322f34e90f2269750b3e28178631d975cc678db36f21098fe548b7f755ce0bd0\n        /* \"contracts/parmigianobase/SupplyChain.sol\":15137:15141  _upc */\n      dup4\n        /* \"contracts/parmigianobase/SupplyChain.sol\":15118:15142  ReceivedByRetailer(_upc) */\n      mload(0x40)\n      dup1\n      dup3\n      dup2\n      mstore\n      0x20\n      add\n      swap2\n      pop\n      pop\n      mload(0x40)\n      dup1\n      swap2\n      sub\n      swap1\n      log1\n        /* \"contracts/parmigianobase/SupplyChain.sol\":6023:6024  _ */\n      pop\n        /* \"contracts/parmigianoaccesscontrol/RetailerRole.sol\":806:807  _ */\n      pop\n        /* \"contracts/parmigianobase/SupplyChain.sol\":14826:15148  function receivedItemByRetailer(uint _upc) public\r... */\n      pop\n      jump\t// out\n        /* \"contracts/parmigianoaccesscontrol/CarParts_ManufacturerRole.sol\":1226:1357  function addCarParts_Manufacturer(address account) public onlyCarParts_Manufacturer {\r... */\n    tag_64:\n        /* \"contracts/parmigianoaccesscontrol/CarParts_ManufacturerRole.sol\":892:927  isCarParts_Manufacturer(msg.sender) */\n      tag_262\n        /* \"contracts/parmigianoaccesscontrol/CarParts_ManufacturerRole.sol\":916:926  msg.sender */\n      caller\n        /* \"contracts/parmigianoaccesscontrol/CarParts_ManufacturerRole.sol\":892:915  isCarParts_Manufacturer */\n      tag_164\n        /* \"contracts/parmigianoaccesscontrol/CarParts_ManufacturerRole.sol\":892:927  isCarParts_Manufacturer(msg.sender) */\n      jump\t// in\n    tag_262:\n        /* \"contracts/parmigianoaccesscontrol/CarParts_ManufacturerRole.sol\":884:928  require(isCarParts_Manufacturer(msg.sender)) */\n      iszero\n      iszero\n      tag_263\n      jumpi\n      0x0\n      dup1\n      revert\n    tag_263:\n        /* \"contracts/parmigianoaccesscontrol/CarParts_ManufacturerRole.sol\":1317:1351  _addCarParts_Manufacturer(account) */\n      tag_265\n        /* \"contracts/parmigianoaccesscontrol/CarParts_ManufacturerRole.sol\":1343:1350  account */\n      dup2\n        /* \"contracts/parmigianoaccesscontrol/CarParts_ManufacturerRole.sol\":1317:1342  _addCarParts_Manufacturer */\n      tag_266\n        /* \"contracts/parmigianoaccesscontrol/CarParts_ManufacturerRole.sol\":1317:1351  _addCarParts_Manufacturer(account) */\n      jump\t// in\n    tag_265:\n        /* \"contracts/parmigianoaccesscontrol/CarParts_ManufacturerRole.sol\":1226:1357  function addCarParts_Manufacturer(address account) public onlyCarParts_Manufacturer {\r... */\n      pop\n      jump\t// out\n        /* \"contracts/parmigianobase/SupplyChain.sol\":6697:6874  function kill() public {\r... */\n    tag_67:\n        /* \"contracts/parmigianobase/SupplyChain.sol\":6745:6750  owner */\n      0x5\n      0x0\n      swap1\n      sload\n      swap1\n      0x100\n      exp\n      swap1\n      div\n      0xffffffffffffffffffffffffffffffffffffffff\n      and\n        /* \"contracts/parmigianobase/SupplyChain.sol\":6731:6750  msg.sender == owner */\n      0xffffffffffffffffffffffffffffffffffffffff\n      and\n        /* \"contracts/parmigianobase/SupplyChain.sol\":6731:6741  msg.sender */\n      caller\n        /* \"contracts/parmigianobase/SupplyChain.sol\":6731:6750  msg.sender == owner */\n      0xffffffffffffffffffffffffffffffffffffffff\n      and\n      eq\n        /* \"contracts/parmigianobase/SupplyChain.sol\":6727:6869  if (msg.sender == owner) {\r... */\n      iszero\n      tag_268\n      jumpi\n        /* \"contracts/parmigianobase/SupplyChain.sol\":6761:6796  address payable ownerAddressPayable */\n      0x0\n        /* \"contracts/parmigianobase/SupplyChain.sol\":6799:6819  _make_payable(owner) */\n      tag_269\n        /* \"contracts/parmigianobase/SupplyChain.sol\":6813:6818  owner */\n      0x5\n      0x0\n      swap1\n      sload\n      swap1\n      0x100\n      exp\n      swap1\n      div\n      0xffffffffffffffffffffffffffffffffffffffff\n      and\n        /* \"contracts/parmigianobase/SupplyChain.sol\":6799:6812  _make_payable */\n      tag_247\n        /* \"contracts/parmigianobase/SupplyChain.sol\":6799:6819  _make_payable(owner) */\n      jump\t// in\n    tag_269:\n        /* \"contracts/parmigianobase/SupplyChain.sol\":6761:6819  address payable ownerAddressPayable = _make_payable(owner) */\n      swap1\n      pop\n        /* \"contracts/parmigianobase/SupplyChain.sol\":6841:6860  ownerAddressPayable */\n      dup1\n        /* \"contracts/parmigianobase/SupplyChain.sol\":6828:6861  selfdestruct(ownerAddressPayable) */\n      0xffffffffffffffffffffffffffffffffffffffff\n      and\n      selfdestruct\n        /* \"contracts/parmigianobase/SupplyChain.sol\":6727:6869  if (msg.sender == owner) {\r... */\n    tag_268:\n        /* \"contracts/parmigianobase/SupplyChain.sol\":6697:6874  function kill() public {\r... */\n      jump\t// out\n        /* \"contracts/parmigianobase/SupplyChain.sol\":7149:9655  function produceItemByCarParts_Manufacturer(uint _upc, string memory _originFarmName, string memory _originFarmInformation, string memory _originFarmLatitude, string memory _originFarmLongitude, string memory _productNotes, uint _price) public\r... */\n    tag_86:\n        /* \"contracts/parmigianoaccesscontrol/CarParts_ManufacturerRole.sol\":892:927  isCarParts_Manufacturer(msg.sender) */\n      tag_271\n        /* \"contracts/parmigianoaccesscontrol/CarParts_ManufacturerRole.sol\":916:926  msg.sender */\n      caller\n        /* \"contracts/parmigianoaccesscontrol/CarParts_ManufacturerRole.sol\":892:915  isCarParts_Manufacturer */\n      tag_164\n        /* \"contracts/parmigianoaccesscontrol/CarParts_ManufacturerRole.sol\":892:927  isCarParts_Manufacturer(msg.sender) */\n      jump\t// in\n    tag_271:\n        /* \"contracts/parmigianoaccesscontrol/CarParts_ManufacturerRole.sol\":884:928  require(isCarParts_Manufacturer(msg.sender)) */\n      iszero\n      iszero\n      tag_272\n      jumpi\n      0x0\n      dup1\n      revert\n    tag_272:\n        /* \"contracts/parmigianobase/SupplyChain.sol\":7494:7515  address distributorID */\n      0x0\n        /* \"contracts/parmigianobase/SupplyChain.sol\":7553:7571  address retailerID */\n      dup1\n        /* \"contracts/parmigianobase/SupplyChain.sol\":7606:7624  address consumerID */\n      0x0\n        /* \"contracts/parmigianobase/SupplyChain.sol\":7659:7681  Item memory newProduce */\n      tag_274\n      jump\t// in(tag_275)\n    tag_274:\n        /* \"contracts/parmigianobase/SupplyChain.sol\":7743:7746  sku */\n      sload(0x7)\n        /* \"contracts/parmigianobase/SupplyChain.sol\":7726:7736  newProduce */\n      dup2\n        /* \"contracts/parmigianobase/SupplyChain.sol\":7726:7740  newProduce.sku */\n      0x0\n      add\n        /* \"contracts/parmigianobase/SupplyChain.sol\":7726:7746  newProduce.sku = sku */\n      dup2\n      dup2\n      mstore\n      pop\n      pop\n        /* \"contracts/parmigianobase/SupplyChain.sol\":7799:7803  _upc */\n      dup11\n        /* \"contracts/parmigianobase/SupplyChain.sol\":7782:7792  newProduce */\n      dup2\n        /* \"contracts/parmigianobase/SupplyChain.sol\":7782:7796  newProduce.upc */\n      0x20\n      add\n        /* \"contracts/parmigianobase/SupplyChain.sol\":7782:7803  newProduce.upc = _upc */\n      dup2\n      dup2\n      mstore\n      pop\n      pop\n        /* \"contracts/parmigianobase/SupplyChain.sol\":7957:7967  msg.sender */\n      caller\n        /* \"contracts/parmigianobase/SupplyChain.sol\":7936:7946  newProduce */\n      dup2\n        /* \"contracts/parmigianobase/SupplyChain.sol\":7936:7954  newProduce.ownerID */\n      0x40\n      add\n        /* \"contracts/parmigianobase/SupplyChain.sol\":7936:7967  newProduce.ownerID = msg.sender */\n      swap1\n      0xffffffffffffffffffffffffffffffffffffffff\n      and\n      swap1\n      dup2\n      0xffffffffffffffffffffffffffffffffffffffff\n      and\n      dup2\n      mstore\n      pop\n      pop\n        /* \"contracts/parmigianobase/SupplyChain.sol\":8106:8116  msg.sender */\n      caller\n        /* \"contracts/parmigianobase/SupplyChain.sol\":8063:8073  newProduce */\n      dup2\n        /* \"contracts/parmigianobase/SupplyChain.sol\":8063:8103  newProduce.originCarParts_ManufacturerID */\n      0x60\n      add\n        /* \"contracts/parmigianobase/SupplyChain.sol\":8063:8116  newProduce.originCarParts_ManufacturerID = msg.sender */\n      swap1\n      0xffffffffffffffffffffffffffffffffffffffff\n      and\n      swap1\n      dup2\n      0xffffffffffffffffffffffffffffffffffffffff\n      and\n      dup2\n      mstore\n      pop\n      pop\n        /* \"contracts/parmigianobase/SupplyChain.sol\":8209:8224  _originFarmName */\n      dup10\n        /* \"contracts/parmigianobase/SupplyChain.sol\":8181:8191  newProduce */\n      dup2\n        /* \"contracts/parmigianobase/SupplyChain.sol\":8181:8206  newProduce.originFarmName */\n      0x80\n      add\n        /* \"contracts/parmigianobase/SupplyChain.sol\":8181:8224  newProduce.originFarmName = _originFarmName */\n      dup2\n      swap1\n      mstore\n      pop\n        /* \"contracts/parmigianobase/SupplyChain.sol\":8297:8319  _originFarmInformation */\n      dup9\n        /* \"contracts/parmigianobase/SupplyChain.sol\":8262:8272  newProduce */\n      dup2\n        /* \"contracts/parmigianobase/SupplyChain.sol\":8262:8294  newProduce.originFarmInformation */\n      0xa0\n      add\n        /* \"contracts/parmigianobase/SupplyChain.sol\":8262:8319  newProduce.originFarmInformation = _originFarmInformation */\n      dup2\n      swap1\n      mstore\n      pop\n        /* \"contracts/parmigianobase/SupplyChain.sol\":8395:8414  _originFarmLatitude */\n      dup8\n        /* \"contracts/parmigianobase/SupplyChain.sol\":8363:8373  newProduce */\n      dup2\n        /* \"contracts/parmigianobase/SupplyChain.sol\":8363:8392  newProduce.originFarmLatitude */\n      0xc0\n      add\n        /* \"contracts/parmigianobase/SupplyChain.sol\":8363:8414  newProduce.originFarmLatitude = _originFarmLatitude */\n      dup2\n      swap1\n      mstore\n      pop\n        /* \"contracts/parmigianobase/SupplyChain.sol\":8471:8491  _originFarmLongitude */\n      dup7\n        /* \"contracts/parmigianobase/SupplyChain.sol\":8438:8448  newProduce */\n      dup2\n        /* \"contracts/parmigianobase/SupplyChain.sol\":8438:8468  newProduce.originFarmLongitude */\n      0xe0\n      add\n        /* \"contracts/parmigianobase/SupplyChain.sol\":8438:8491  newProduce.originFarmLongitude = _originFarmLongitude */\n      dup2\n      swap1\n      mstore\n      pop\n        /* \"contracts/parmigianobase/SupplyChain.sol\":8545:8548  sku */\n      sload(0x7)\n        /* \"contracts/parmigianobase/SupplyChain.sol\":8540:8544  _upc */\n      dup12\n        /* \"contracts/parmigianobase/SupplyChain.sol\":8540:8548  _upc+sku */\n      add\n        /* \"contracts/parmigianobase/SupplyChain.sol\":8517:8527  newProduce */\n      dup2\n        /* \"contracts/parmigianobase/SupplyChain.sol\":8517:8537  newProduce.productID */\n      0x100\n      add\n        /* \"contracts/parmigianobase/SupplyChain.sol\":8517:8548  newProduce.productID = _upc+sku */\n      dup2\n      dup2\n      mstore\n      pop\n      pop\n        /* \"contracts/parmigianobase/SupplyChain.sol\":8596:8609  _productNotes */\n      dup6\n        /* \"contracts/parmigianobase/SupplyChain.sol\":8570:8580  newProduce */\n      dup2\n        /* \"contracts/parmigianobase/SupplyChain.sol\":8570:8593  newProduce.productNotes */\n      0x120\n      add\n        /* \"contracts/parmigianobase/SupplyChain.sol\":8570:8609  newProduce.productNotes = _productNotes */\n      dup2\n      swap1\n      mstore\n      pop\n        /* \"contracts/parmigianobase/SupplyChain.sol\":8659:8665  _price */\n      dup5\n        /* \"contracts/parmigianobase/SupplyChain.sol\":8633:8643  newProduce */\n      dup2\n        /* \"contracts/parmigianobase/SupplyChain.sol\":8633:8656  newProduce.productPrice */\n      0x160\n      add\n        /* \"contracts/parmigianobase/SupplyChain.sol\":8633:8665  newProduce.productPrice = _price */\n      dup2\n      dup2\n      mstore\n      pop\n      pop\n        /* \"contracts/parmigianobase/SupplyChain.sol\":8715:8718  now */\n      timestamp\n        /* \"contracts/parmigianobase/SupplyChain.sol\":8690:8700  newProduce */\n      dup2\n        /* \"contracts/parmigianobase/SupplyChain.sol\":8690:8712  newProduce.productDate */\n      0x140\n      add\n        /* \"contracts/parmigianobase/SupplyChain.sol\":8690:8718  newProduce.productDate = now */\n      dup2\n      dup2\n      mstore\n      pop\n      pop\n        /* \"contracts/parmigianobase/SupplyChain.sol\":8752:8753  0 */\n      0x0\n        /* \"contracts/parmigianobase/SupplyChain.sol\":8725:8735  newProduce */\n      dup2\n        /* \"contracts/parmigianobase/SupplyChain.sol\":8725:8749  newProduce.productSliced */\n      0x180\n      add\n        /* \"contracts/parmigianobase/SupplyChain.sol\":8725:8753  newProduce.productSliced = 0 */\n      dup2\n      dup2\n      mstore\n      pop\n      pop\n        /* \"contracts/parmigianobase/SupplyChain.sol\":1616:1652  State.ProduceByCarParts_Manufacturer */\n      0x0\n        /* \"contracts/parmigianobase/SupplyChain.sol\":8760:8770  newProduce */\n      dup2\n        /* \"contracts/parmigianobase/SupplyChain.sol\":8760:8780  newProduce.itemState */\n      0x1a0\n      add\n        /* \"contracts/parmigianobase/SupplyChain.sol\":8760:8795  newProduce.itemState = defaultState */\n      swap1\n      0xc\n      dup2\n      gt\n      iszero\n      tag_276\n      jumpi\n      invalid\n    tag_276:\n      swap1\n      dup2\n      0xc\n      dup2\n      gt\n      iszero\n      tag_277\n      jumpi\n      invalid\n    tag_277:\n      dup2\n      mstore\n      pop\n      pop\n        /* \"contracts/parmigianobase/SupplyChain.sol\":8879:8892  distributorID */\n      dup4\n        /* \"contracts/parmigianobase/SupplyChain.sol\":8852:8862  newProduce */\n      dup2\n        /* \"contracts/parmigianobase/SupplyChain.sol\":8852:8876  newProduce.distributorID */\n      0x1c0\n      add\n        /* \"contracts/parmigianobase/SupplyChain.sol\":8852:8892  newProduce.distributorID = distributorID */\n      swap1\n      0xffffffffffffffffffffffffffffffffffffffff\n      and\n      swap1\n      dup2\n      0xffffffffffffffffffffffffffffffffffffffff\n      and\n      dup2\n      mstore\n      pop\n      pop\n        /* \"contracts/parmigianobase/SupplyChain.sol\":8971:8981  retailerID */\n      dup3\n        /* \"contracts/parmigianobase/SupplyChain.sol\":8947:8957  newProduce */\n      dup2\n        /* \"contracts/parmigianobase/SupplyChain.sol\":8947:8968  newProduce.retailerID */\n      0x1e0\n      add\n        /* \"contracts/parmigianobase/SupplyChain.sol\":8947:8981  newProduce.retailerID = retailerID */\n      swap1\n      0xffffffffffffffffffffffffffffffffffffffff\n      and\n      swap1\n      dup2\n      0xffffffffffffffffffffffffffffffffffffffff\n      and\n      dup2\n      mstore\n      pop\n      pop\n        /* \"contracts/parmigianobase/SupplyChain.sol\":9057:9067  consumerID */\n      dup2\n        /* \"contracts/parmigianobase/SupplyChain.sol\":9033:9043  newProduce */\n      dup2\n        /* \"contracts/parmigianobase/SupplyChain.sol\":9033:9054  newProduce.consumerID */\n      0x200\n      add\n        /* \"contracts/parmigianobase/SupplyChain.sol\":9033:9067  newProduce.consumerID = consumerID */\n      swap1\n      0xffffffffffffffffffffffffffffffffffffffff\n      and\n      swap1\n      dup2\n      0xffffffffffffffffffffffffffffffffffffffff\n      and\n      dup2\n      mstore\n      pop\n      pop\n        /* \"contracts/parmigianobase/SupplyChain.sol\":9150:9160  newProduce */\n      dup1\n        /* \"contracts/parmigianobase/SupplyChain.sol\":9136:9141  items */\n      0x8\n        /* \"contracts/parmigianobase/SupplyChain.sol\":9136:9147  items[_upc] */\n      0x0\n        /* \"contracts/parmigianobase/SupplyChain.sol\":9142:9146  _upc */\n      dup14\n        /* \"contracts/parmigianobase/SupplyChain.sol\":9136:9147  items[_upc] */\n      dup2\n      mstore\n      0x20\n      add\n      swap1\n      dup2\n      mstore\n      0x20\n      add\n      0x0\n      keccak256\n        /* \"contracts/parmigianobase/SupplyChain.sol\":9136:9160  items[_upc] = newProduce */\n      0x0\n      dup3\n      add\n      mload\n      dup2\n      0x0\n      add\n      sstore\n      0x20\n      dup3\n      add\n      mload\n      dup2\n      0x1\n      add\n      sstore\n      0x40\n      dup3\n      add\n      mload\n      dup2\n      0x2\n      add\n      exp(0x100, 0x0)\n      dup2\n      sload\n      dup2\n      0xffffffffffffffffffffffffffffffffffffffff\n      mul\n      not\n      and\n      swap1\n      dup4\n      0xffffffffffffffffffffffffffffffffffffffff\n      and\n      mul\n      or\n      swap1\n      sstore\n      pop\n      0x60\n      dup3\n      add\n      mload\n      dup2\n      0x3\n      add\n      exp(0x100, 0x0)\n      dup2\n      sload\n      dup2\n      0xffffffffffffffffffffffffffffffffffffffff\n      mul\n      not\n      and\n      swap1\n      dup4\n      0xffffffffffffffffffffffffffffffffffffffff\n      and\n      mul\n      or\n      swap1\n      sstore\n      pop\n      0x80\n      dup3\n      add\n      mload\n      dup2\n      0x4\n      add\n      swap1\n      dup1\n      mload\n      swap1\n      0x20\n      add\n      swap1\n      tag_278\n      swap3\n      swap2\n      swap1\n      jump\t// in(tag_279)\n    tag_278:\n      pop\n      0xa0\n      dup3\n      add\n      mload\n      dup2\n      0x5\n      add\n      swap1\n      dup1\n      mload\n      swap1\n      0x20\n      add\n      swap1\n      tag_280\n      swap3\n      swap2\n      swap1\n      jump\t// in(tag_279)\n    tag_280:\n      pop\n      0xc0\n      dup3\n      add\n      mload\n      dup2\n      0x6\n      add\n      swap1\n      dup1\n      mload\n      swap1\n      0x20\n      add\n      swap1\n      tag_281\n      swap3\n      swap2\n      swap1\n      jump\t// in(tag_279)\n    tag_281:\n      pop\n      0xe0\n      dup3\n      add\n      mload\n      dup2\n      0x7\n      add\n      swap1\n      dup1\n      mload\n      swap1\n      0x20\n      add\n      swap1\n      tag_282\n      swap3\n      swap2\n      swap1\n      jump\t// in(tag_279)\n    tag_282:\n      pop\n      0x100\n      dup3\n      add\n      mload\n      dup2\n      0x8\n      add\n      sstore\n      0x120\n      dup3\n      add\n      mload\n      dup2\n      0x9\n      add\n      swap1\n      dup1\n      mload\n      swap1\n      0x20\n      add\n      swap1\n      tag_283\n      swap3\n      swap2\n      swap1\n      jump\t// in(tag_279)\n    tag_283:\n      pop\n      0x140\n      dup3\n      add\n      mload\n      dup2\n      0xa\n      add\n      sstore\n      0x160\n      dup3\n      add\n      mload\n      dup2\n      0xb\n      add\n      sstore\n      0x180\n      dup3\n      add\n      mload\n      dup2\n      0xc\n      add\n      sstore\n      0x1a0\n      dup3\n      add\n      mload\n      dup2\n      0xd\n      add\n      exp(0x100, 0x0)\n      dup2\n      sload\n      dup2\n      0xff\n      mul\n      not\n      and\n      swap1\n      dup4\n      0xc\n      dup2\n      gt\n      iszero\n      tag_284\n      jumpi\n      invalid\n    tag_284:\n      mul\n      or\n      swap1\n      sstore\n      pop\n      0x1c0\n      dup3\n      add\n      mload\n      dup2\n      0xd\n      add\n      exp(0x100, 0x1)\n      dup2\n      sload\n      dup2\n      0xffffffffffffffffffffffffffffffffffffffff\n      mul\n      not\n      and\n      swap1\n      dup4\n      0xffffffffffffffffffffffffffffffffffffffff\n      and\n      mul\n      or\n      swap1\n      sstore\n      pop\n      0x1e0\n      dup3\n      add\n      mload\n      dup2\n      0xe\n      add\n      exp(0x100, 0x0)\n      dup2\n      sload\n      dup2\n      0xffffffffffffffffffffffffffffffffffffffff\n      mul\n      not\n      and\n      swap1\n      dup4\n      0xffffffffffffffffffffffffffffffffffffffff\n      and\n      mul\n      or\n      swap1\n      sstore\n      pop\n      0x200\n      dup3\n      add\n      mload\n      dup2\n      0xf\n      add\n      exp(0x100, 0x0)\n      dup2\n      sload\n      dup2\n      0xffffffffffffffffffffffffffffffffffffffff\n      mul\n      not\n      and\n      swap1\n      dup4\n      0xffffffffffffffffffffffffffffffffffffffff\n      and\n      mul\n      or\n      swap1\n      sstore\n      pop\n      swap1\n      pop\n      pop\n        /* \"contracts/parmigianobase/SupplyChain.sol\":9208:9224  uint placeholder */\n      0x0\n        /* \"contracts/parmigianobase/SupplyChain.sol\":9260:9283  Txblocks memory txBlock */\n      tag_285\n      jump\t// in(tag_200)\n    tag_285:\n        /* \"contracts/parmigianobase/SupplyChain.sol\":9333:9344  placeholder */\n      dup2\n        /* \"contracts/parmigianobase/SupplyChain.sol\":9319:9326  txBlock */\n      dup2\n        /* \"contracts/parmigianobase/SupplyChain.sol\":9319:9330  txBlock.FTD */\n      0x0\n      add\n        /* \"contracts/parmigianobase/SupplyChain.sol\":9319:9344  txBlock.FTD = placeholder */\n      dup2\n      dup2\n      mstore\n      pop\n      pop\n        /* \"contracts/parmigianobase/SupplyChain.sol\":9394:9405  placeholder */\n      dup2\n        /* \"contracts/parmigianobase/SupplyChain.sol\":9380:9387  txBlock */\n      dup2\n        /* \"contracts/parmigianobase/SupplyChain.sol\":9380:9391  txBlock.DTR */\n      0x20\n      add\n        /* \"contracts/parmigianobase/SupplyChain.sol\":9380:9405  txBlock.DTR = placeholder */\n      dup2\n      dup2\n      mstore\n      pop\n      pop\n        /* \"contracts/parmigianobase/SupplyChain.sol\":9426:9437  placeholder */\n      dup2\n        /* \"contracts/parmigianobase/SupplyChain.sol\":9412:9419  txBlock */\n      dup2\n        /* \"contracts/parmigianobase/SupplyChain.sol\":9412:9423  txBlock.RTC */\n      0x40\n      add\n        /* \"contracts/parmigianobase/SupplyChain.sol\":9412:9437  txBlock.RTC = placeholder */\n      dup2\n      dup2\n      mstore\n      pop\n      pop\n        /* \"contracts/parmigianobase/SupplyChain.sol\":9465:9472  txBlock */\n      dup1\n        /* \"contracts/parmigianobase/SupplyChain.sol\":9444:9456  itemsHistory */\n      0x9\n        /* \"contracts/parmigianobase/SupplyChain.sol\":9444:9462  itemsHistory[_upc] */\n      0x0\n        /* \"contracts/parmigianobase/SupplyChain.sol\":9457:9461  _upc */\n      dup16\n        /* \"contracts/parmigianobase/SupplyChain.sol\":9444:9462  itemsHistory[_upc] */\n      dup2\n      mstore\n      0x20\n      add\n      swap1\n      dup2\n      mstore\n      0x20\n      add\n      0x0\n      keccak256\n        /* \"contracts/parmigianobase/SupplyChain.sol\":9444:9472  itemsHistory[_upc] = txBlock */\n      0x0\n      dup3\n      add\n      mload\n      dup2\n      0x0\n      add\n      sstore\n      0x20\n      dup3\n      add\n      mload\n      dup2\n      0x1\n      add\n      sstore\n      0x40\n      dup3\n      add\n      mload\n      dup2\n      0x2\n      add\n      sstore\n      swap1\n      pop\n      pop\n        /* \"contracts/parmigianobase/SupplyChain.sol\":9561:9562  1 */\n      0x1\n        /* \"contracts/parmigianobase/SupplyChain.sol\":9555:9558  sku */\n      sload(0x7)\n        /* \"contracts/parmigianobase/SupplyChain.sol\":9555:9562  sku + 1 */\n      add\n        /* \"contracts/parmigianobase/SupplyChain.sol\":9549:9552  sku */\n      0x7\n        /* \"contracts/parmigianobase/SupplyChain.sol\":9549:9562  sku = sku + 1 */\n      dup2\n      swap1\n      sstore\n      pop\n        /* \"contracts/parmigianobase/SupplyChain.sol\":9611:9647  ProduceByCarParts_Manufacturer(_upc) */\n      0x78e97d8ec26877417127bc38f9a0255895572ec277d8c1da38d769d5448693ed\n        /* \"contracts/parmigianobase/SupplyChain.sol\":9642:9646  _upc */\n      dup14\n        /* \"contracts/parmigianobase/SupplyChain.sol\":9611:9647  ProduceByCarParts_Manufacturer(_upc) */\n      mload(0x40)\n      dup1\n      dup3\n      dup2\n      mstore\n      0x20\n      add\n      swap2\n      pop\n      pop\n      mload(0x40)\n      dup1\n      swap2\n      sub\n      swap1\n      log1\n        /* \"contracts/parmigianoaccesscontrol/CarParts_ManufacturerRole.sol\":935:936  _ */\n      pop\n      pop\n      pop\n      pop\n      pop\n      pop\n        /* \"contracts/parmigianobase/SupplyChain.sol\":7149:9655  function produceItemByCarParts_Manufacturer(uint _upc, string memory _originFarmName, string memory _originFarmInformation, string memory _originFarmLatitude, string memory _originFarmLongitude, string memory _productNotes, uint _price) public\r... */\n      pop\n      pop\n      pop\n      pop\n      pop\n      pop\n      pop\n      jump\t// out\n        /* \"contracts/parmigianobase/SupplyChain.sol\":15194:15564  function sellItemByRetailer(uint _upc, uint _price) public\r... */\n    tag_90:\n        /* \"contracts/parmigianoaccesscontrol/RetailerRole.sol\":776:798  isRetailer(msg.sender) */\n      tag_287\n        /* \"contracts/parmigianoaccesscontrol/RetailerRole.sol\":787:797  msg.sender */\n      caller\n        /* \"contracts/parmigianoaccesscontrol/RetailerRole.sol\":776:786  isRetailer */\n      tag_94\n        /* \"contracts/parmigianoaccesscontrol/RetailerRole.sol\":776:798  isRetailer(msg.sender) */\n      jump\t// in\n    tag_287:\n        /* \"contracts/parmigianoaccesscontrol/RetailerRole.sol\":768:799  require(isRetailer(msg.sender)) */\n      iszero\n      iszero\n      tag_288\n      jumpi\n      0x0\n      dup1\n      revert\n    tag_288:\n        /* \"contracts/parmigianobase/SupplyChain.sol\":15342:15346  _upc */\n      dup2\n        /* \"contracts/parmigianobase/SupplyChain.sol\":6241:6265  State.ReceivedByRetailer */\n      0xa\n        /* \"contracts/parmigianobase/SupplyChain.sol\":6216:6265  items[_upc].itemState == State.ReceivedByRetailer */\n      0xc\n      dup2\n      gt\n      iszero\n      tag_290\n      jumpi\n      invalid\n    tag_290:\n        /* \"contracts/parmigianobase/SupplyChain.sol\":6216:6221  items */\n      0x8\n        /* \"contracts/parmigianobase/SupplyChain.sol\":6216:6227  items[_upc] */\n      0x0\n        /* \"contracts/parmigianobase/SupplyChain.sol\":6222:6226  _upc */\n      dup4\n        /* \"contracts/parmigianobase/SupplyChain.sol\":6216:6227  items[_upc] */\n      dup2\n      mstore\n      0x20\n      add\n      swap1\n      dup2\n      mstore\n      0x20\n      add\n      0x0\n      keccak256\n        /* \"contracts/parmigianobase/SupplyChain.sol\":6216:6237  items[_upc].itemState */\n      0xd\n      add\n      0x0\n      swap1\n      sload\n      swap1\n      0x100\n      exp\n      swap1\n      div\n      0xff\n      and\n        /* \"contracts/parmigianobase/SupplyChain.sol\":6216:6265  items[_upc].itemState == State.ReceivedByRetailer */\n      0xc\n      dup2\n      gt\n      iszero\n      tag_291\n      jumpi\n      invalid\n    tag_291:\n      eq\n        /* \"contracts/parmigianobase/SupplyChain.sol\":6208:6266  require(items[_upc].itemState == State.ReceivedByRetailer) */\n      iszero\n      iszero\n      tag_292\n      jumpi\n      0x0\n      dup1\n      revert\n    tag_292:\n        /* \"contracts/parmigianobase/SupplyChain.sol\":15366:15371  items */\n      0x8\n        /* \"contracts/parmigianobase/SupplyChain.sol\":15366:15377  items[_upc] */\n      0x0\n        /* \"contracts/parmigianobase/SupplyChain.sol\":15372:15376  _upc */\n      dup5\n        /* \"contracts/parmigianobase/SupplyChain.sol\":15366:15377  items[_upc] */\n      dup2\n      mstore\n      0x20\n      add\n      swap1\n      dup2\n      mstore\n      0x20\n      add\n      0x0\n      keccak256\n        /* \"contracts/parmigianobase/SupplyChain.sol\":15366:15385  items[_upc].ownerID */\n      0x2\n      add\n      0x0\n      swap1\n      sload\n      swap1\n      0x100\n      exp\n      swap1\n      div\n      0xffffffffffffffffffffffffffffffffffffffff\n      and\n        /* \"contracts/parmigianobase/SupplyChain.sol\":4283:4291  _address */\n      dup1\n        /* \"contracts/parmigianobase/SupplyChain.sol\":4269:4291  msg.sender == _address */\n      0xffffffffffffffffffffffffffffffffffffffff\n      and\n        /* \"contracts/parmigianobase/SupplyChain.sol\":4269:4279  msg.sender */\n      caller\n        /* \"contracts/parmigianobase/SupplyChain.sol\":4269:4291  msg.sender == _address */\n      0xffffffffffffffffffffffffffffffffffffffff\n      and\n      eq\n        /* \"contracts/parmigianobase/SupplyChain.sol\":4261:4292  require(msg.sender == _address) */\n      iszero\n      iszero\n      tag_294\n      jumpi\n      0x0\n      dup1\n      revert\n    tag_294:\n        /* \"contracts/parmigianobase/SupplyChain.sol\":15456:15479  State.ForSaleByRetailer */\n      0xb\n        /* \"contracts/parmigianobase/SupplyChain.sol\":15432:15437  items */\n      0x8\n        /* \"contracts/parmigianobase/SupplyChain.sol\":15432:15443  items[_upc] */\n      0x0\n        /* \"contracts/parmigianobase/SupplyChain.sol\":15438:15442  _upc */\n      dup7\n        /* \"contracts/parmigianobase/SupplyChain.sol\":15432:15443  items[_upc] */\n      dup2\n      mstore\n      0x20\n      add\n      swap1\n      dup2\n      mstore\n      0x20\n      add\n      0x0\n      keccak256\n        /* \"contracts/parmigianobase/SupplyChain.sol\":15432:15453  items[_upc].itemState */\n      0xd\n      add\n      0x0\n        /* \"contracts/parmigianobase/SupplyChain.sol\":15432:15479  items[_upc].itemState = State.ForSaleByRetailer */\n      0x100\n      exp\n      dup2\n      sload\n      dup2\n      0xff\n      mul\n      not\n      and\n      swap1\n      dup4\n      0xc\n      dup2\n      gt\n      iszero\n      tag_296\n      jumpi\n      invalid\n    tag_296:\n      mul\n      or\n      swap1\n      sstore\n      pop\n        /* \"contracts/parmigianobase/SupplyChain.sol\":15515:15521  _price */\n      dup3\n        /* \"contracts/parmigianobase/SupplyChain.sol\":15488:15493  items */\n      0x8\n        /* \"contracts/parmigianobase/SupplyChain.sol\":15488:15499  items[_upc] */\n      0x0\n        /* \"contracts/parmigianobase/SupplyChain.sol\":15494:15498  _upc */\n      dup7\n        /* \"contracts/parmigianobase/SupplyChain.sol\":15488:15499  items[_upc] */\n      dup2\n      mstore\n      0x20\n      add\n      swap1\n      dup2\n      mstore\n      0x20\n      add\n      0x0\n      keccak256\n        /* \"contracts/parmigianobase/SupplyChain.sol\":15488:15512  items[_upc].productPrice */\n      0xb\n      add\n        /* \"contracts/parmigianobase/SupplyChain.sol\":15488:15521  items[_upc].productPrice = _price */\n      dup2\n      swap1\n      sstore\n      pop\n        /* \"contracts/parmigianobase/SupplyChain.sol\":15535:15558  ForSaleByRetailer(_upc) */\n      0x59e7ad085805e2b02ad4b0f8033bd75e7ee4c8cd43f996267463585e35896252\n        /* \"contracts/parmigianobase/SupplyChain.sol\":15553:15557  _upc */\n      dup5\n        /* \"contracts/parmigianobase/SupplyChain.sol\":15535:15558  ForSaleByRetailer(_upc) */\n      mload(0x40)\n      dup1\n      dup3\n      dup2\n      mstore\n      0x20\n      add\n      swap2\n      pop\n      pop\n      mload(0x40)\n      dup1\n      swap2\n      sub\n      swap1\n      log1\n        /* \"contracts/parmigianobase/SupplyChain.sol\":6273:6274  _ */\n      pop\n        /* \"contracts/parmigianoaccesscontrol/RetailerRole.sol\":806:807  _ */\n      pop\n        /* \"contracts/parmigianobase/SupplyChain.sol\":15194:15564  function sellItemByRetailer(uint _upc, uint _price) public\r... */\n      pop\n      pop\n      jump\t// out\n        /* \"contracts/parmigianoaccesscontrol/RetailerRole.sol\":875:981  function isRetailer(address account) public view returns (bool) {\r... */\n    tag_94:\n        /* \"contracts/parmigianoaccesscontrol/RetailerRole.sol\":933:937  bool */\n      0x0\n        /* \"contracts/parmigianoaccesscontrol/RetailerRole.sol\":953:975  retailers.has(account) */\n      tag_298\n        /* \"contracts/parmigianoaccesscontrol/RetailerRole.sol\":967:974  account */\n      dup3\n        /* \"contracts/parmigianoaccesscontrol/RetailerRole.sol\":953:962  retailers */\n      0x3\n        /* \"contracts/parmigianoaccesscontrol/RetailerRole.sol\":953:966  retailers.has */\n      tag_299\n      swap1\n        /* \"contracts/parmigianoaccesscontrol/RetailerRole.sol\":953:975  retailers.has(account) */\n      swap2\n      swap1\n      0xffffffff\n      and\n      jump\t// in\n    tag_298:\n        /* \"contracts/parmigianoaccesscontrol/RetailerRole.sol\":946:975  return retailers.has(account) */\n      swap1\n      pop\n        /* \"contracts/parmigianoaccesscontrol/RetailerRole.sol\":875:981  function isRetailer(address account) public view returns (bool) {\r... */\n      swap2\n      swap1\n      pop\n      jump\t// out\n        /* \"contracts/parmigianoaccesscontrol/DistributorRole.sol\":1255:1336  function renounceDistributor() public {\r... */\n    tag_97:\n        /* \"contracts/parmigianoaccesscontrol/DistributorRole.sol\":1300:1330  _removeDistributor(msg.sender) */\n      tag_301\n        /* \"contracts/parmigianoaccesscontrol/DistributorRole.sol\":1319:1329  msg.sender */\n      caller\n        /* \"contracts/parmigianoaccesscontrol/DistributorRole.sol\":1300:1318  _removeDistributor */\n      tag_302\n        /* \"contracts/parmigianoaccesscontrol/DistributorRole.sol\":1300:1330  _removeDistributor(msg.sender) */\n      jump\t// in\n    tag_301:\n        /* \"contracts/parmigianoaccesscontrol/DistributorRole.sol\":1255:1336  function renounceDistributor() public {\r... */\n      jump\t// out\n        /* \"contracts/parmigianobase/SupplyChain.sol\":17195:17878  function fetchItemBufferTwo(uint _upc) public view returns\r... */\n    tag_101:\n        /* \"contracts/parmigianobase/SupplyChain.sol\":17266:17281  uint    itemSKU */\n      0x0\n        /* \"contracts/parmigianobase/SupplyChain.sol\":17288:17303  uint    itemUPC */\n      dup1\n        /* \"contracts/parmigianobase/SupplyChain.sol\":17310:17327  uint    productID */\n      0x0\n        /* \"contracts/parmigianobase/SupplyChain.sol\":17334:17361  string  memory productNotes */\n      0x60\n        /* \"contracts/parmigianobase/SupplyChain.sol\":17368:17388  uint    productPrice */\n      0x0\n        /* \"contracts/parmigianobase/SupplyChain.sol\":17395:17414  uint256 productDate */\n      dup1\n        /* \"contracts/parmigianobase/SupplyChain.sol\":17421:17438  State   itemState */\n      0x0\n        /* \"contracts/parmigianobase/SupplyChain.sol\":17445:17466  address distributorID */\n      dup1\n        /* \"contracts/parmigianobase/SupplyChain.sol\":17473:17491  address retailerID */\n      0x0\n        /* \"contracts/parmigianobase/SupplyChain.sol\":17498:17516  address consumerID */\n      dup1\n        /* \"contracts/parmigianobase/SupplyChain.sol\":17580:17596  Item memory item */\n      tag_304\n      jump\t// in(tag_275)\n    tag_304:\n        /* \"contracts/parmigianobase/SupplyChain.sol\":17599:17604  items */\n      0x8\n        /* \"contracts/parmigianobase/SupplyChain.sol\":17599:17610  items[_upc] */\n      0x0\n        /* \"contracts/parmigianobase/SupplyChain.sol\":17605:17609  _upc */\n      dup14\n        /* \"contracts/parmigianobase/SupplyChain.sol\":17599:17610  items[_upc] */\n      dup2\n      mstore\n      0x20\n      add\n      swap1\n      dup2\n      mstore\n      0x20\n      add\n      0x0\n      keccak256\n        /* \"contracts/parmigianobase/SupplyChain.sol\":17580:17610  Item memory item = items[_upc] */\n      0x220\n      mload(0x40)\n      swap1\n      dup2\n      add\n      0x40\n      mstore\n      swap1\n      dup2\n      0x0\n      dup3\n      add\n      sload\n      dup2\n      mstore\n      0x20\n      add\n      0x1\n      dup3\n      add\n      sload\n      dup2\n      mstore\n      0x20\n      add\n      0x2\n      dup3\n      add\n      0x0\n      swap1\n      sload\n      swap1\n      0x100\n      exp\n      swap1\n      div\n      0xffffffffffffffffffffffffffffffffffffffff\n      and\n      0xffffffffffffffffffffffffffffffffffffffff\n      and\n      0xffffffffffffffffffffffffffffffffffffffff\n      and\n      dup2\n      mstore\n      0x20\n      add\n      0x3\n      dup3\n      add\n      0x0\n      swap1\n      sload\n      swap1\n      0x100\n      exp\n      swap1\n      div\n      0xffffffffffffffffffffffffffffffffffffffff\n      and\n      0xffffffffffffffffffffffffffffffffffffffff\n      and\n      0xffffffffffffffffffffffffffffffffffffffff\n      and\n      dup2\n      mstore\n      0x20\n      add\n      0x4\n      dup3\n      add\n      dup1\n      sload\n      0x1\n      dup2\n      0x1\n      and\n      iszero\n      0x100\n      mul\n      sub\n      and\n      0x2\n      swap1\n      div\n      dup1\n      0x1f\n      add\n      0x20\n      dup1\n      swap2\n      div\n      mul\n      0x20\n      add\n      mload(0x40)\n      swap1\n      dup2\n      add\n      0x40\n      mstore\n      dup1\n      swap3\n      swap2\n      swap1\n      dup2\n      dup2\n      mstore\n      0x20\n      add\n      dup3\n      dup1\n      sload\n      0x1\n      dup2\n      0x1\n      and\n      iszero\n      0x100\n      mul\n      sub\n      and\n      0x2\n      swap1\n      div\n      dup1\n      iszero\n      tag_305\n      jumpi\n      dup1\n      0x1f\n      lt\n      tag_306\n      jumpi\n      0x100\n      dup1\n      dup4\n      sload\n      div\n      mul\n      dup4\n      mstore\n      swap2\n      0x20\n      add\n      swap2\n      jump(tag_305)\n    tag_306:\n      dup3\n      add\n      swap2\n      swap1\n      0x0\n      mstore\n      keccak256(0x0, 0x20)\n      swap1\n    tag_307:\n      dup2\n      sload\n      dup2\n      mstore\n      swap1\n      0x1\n      add\n      swap1\n      0x20\n      add\n      dup1\n      dup4\n      gt\n      tag_307\n      jumpi\n      dup3\n      swap1\n      sub\n      0x1f\n      and\n      dup3\n      add\n      swap2\n    tag_305:\n      pop\n      pop\n      pop\n      pop\n      pop\n      dup2\n      mstore\n      0x20\n      add\n      0x5\n      dup3\n      add\n      dup1\n      sload\n      0x1\n      dup2\n      0x1\n      and\n      iszero\n      0x100\n      mul\n      sub\n      and\n      0x2\n      swap1\n      div\n      dup1\n      0x1f\n      add\n      0x20\n      dup1\n      swap2\n      div\n      mul\n      0x20\n      add\n      mload(0x40)\n      swap1\n      dup2\n      add\n      0x40\n      mstore\n      dup1\n      swap3\n      swap2\n      swap1\n      dup2\n      dup2\n      mstore\n      0x20\n      add\n      dup3\n      dup1\n      sload\n      0x1\n      dup2\n      0x1\n      and\n      iszero\n      0x100\n      mul\n      sub\n      and\n      0x2\n      swap1\n      div\n      dup1\n      iszero\n      tag_308\n      jumpi\n      dup1\n      0x1f\n      lt\n      tag_309\n      jumpi\n      0x100\n      dup1\n      dup4\n      sload\n      div\n      mul\n      dup4\n      mstore\n      swap2\n      0x20\n      add\n      swap2\n      jump(tag_308)\n    tag_309:\n      dup3\n      add\n      swap2\n      swap1\n      0x0\n      mstore\n      keccak256(0x0, 0x20)\n      swap1\n    tag_310:\n      dup2\n      sload\n      dup2\n      mstore\n      swap1\n      0x1\n      add\n      swap1\n      0x20\n      add\n      dup1\n      dup4\n      gt\n      tag_310\n      jumpi\n      dup3\n      swap1\n      sub\n      0x1f\n      and\n      dup3\n      add\n      swap2\n    tag_308:\n      pop\n      pop\n      pop\n      pop\n      pop\n      dup2\n      mstore\n      0x20\n      add\n      0x6\n      dup3\n      add\n      dup1\n      sload\n      0x1\n      dup2\n      0x1\n      and\n      iszero\n      0x100\n      mul\n      sub\n      and\n      0x2\n      swap1\n      div\n      dup1\n      0x1f\n      add\n      0x20\n      dup1\n      swap2\n      div\n      mul\n      0x20\n      add\n      mload(0x40)\n      swap1\n      dup2\n      add\n      0x40\n      mstore\n      dup1\n      swap3\n      swap2\n      swap1\n      dup2\n      dup2\n      mstore\n      0x20\n      add\n      dup3\n      dup1\n      sload\n      0x1\n      dup2\n      0x1\n      and\n      iszero\n      0x100\n      mul\n      sub\n      and\n      0x2\n      swap1\n      div\n      dup1\n      iszero\n      tag_311\n      jumpi\n      dup1\n      0x1f\n      lt\n      tag_312\n      jumpi\n      0x100\n      dup1\n      dup4\n      sload\n      div\n      mul\n      dup4\n      mstore\n      swap2\n      0x20\n      add\n      swap2\n      jump(tag_311)\n    tag_312:\n      dup3\n      add\n      swap2\n      swap1\n      0x0\n      mstore\n      keccak256(0x0, 0x20)\n      swap1\n    tag_313:\n      dup2\n      sload\n      dup2\n      mstore\n      swap1\n      0x1\n      add\n      swap1\n      0x20\n      add\n      dup1\n      dup4\n      gt\n      tag_313\n      jumpi\n      dup3\n      swap1\n      sub\n      0x1f\n      and\n      dup3\n      add\n      swap2\n    tag_311:\n      pop\n      pop\n      pop\n      pop\n      pop\n      dup2\n      mstore\n      0x20\n      add\n      0x7\n      dup3\n      add\n      dup1\n      sload\n      0x1\n      dup2\n      0x1\n      and\n      iszero\n      0x100\n      mul\n      sub\n      and\n      0x2\n      swap1\n      div\n      dup1\n      0x1f\n      add\n      0x20\n      dup1\n      swap2\n      div\n      mul\n      0x20\n      add\n      mload(0x40)\n      swap1\n      dup2\n      add\n      0x40\n      mstore\n      dup1\n      swap3\n      swap2\n      swap1\n      dup2\n      dup2\n      mstore\n      0x20\n      add\n      dup3\n      dup1\n      sload\n      0x1\n      dup2\n      0x1\n      and\n      iszero\n      0x100\n      mul\n      sub\n      and\n      0x2\n      swap1\n      div\n      dup1\n      iszero\n      tag_314\n      jumpi\n      dup1\n      0x1f\n      lt\n      tag_315\n      jumpi\n      0x100\n      dup1\n      dup4\n      sload\n      div\n      mul\n      dup4\n      mstore\n      swap2\n      0x20\n      add\n      swap2\n      jump(tag_314)\n    tag_315:\n      dup3\n      add\n      swap2\n      swap1\n      0x0\n      mstore\n      keccak256(0x0, 0x20)\n      swap1\n    tag_316:\n      dup2\n      sload\n      dup2\n      mstore\n      swap1\n      0x1\n      add\n      swap1\n      0x20\n      add\n      dup1\n      dup4\n      gt\n      tag_316\n      jumpi\n      dup3\n      swap1\n      sub\n      0x1f\n      and\n      dup3\n      add\n      swap2\n    tag_314:\n      pop\n      pop\n      pop\n      pop\n      pop\n      dup2\n      mstore\n      0x20\n      add\n      0x8\n      dup3\n      add\n      sload\n      dup2\n      mstore\n      0x20\n      add\n      0x9\n      dup3\n      add\n      dup1\n      sload\n      0x1\n      dup2\n      0x1\n      and\n      iszero\n      0x100\n      mul\n      sub\n      and\n      0x2\n      swap1\n      div\n      dup1\n      0x1f\n      add\n      0x20\n      dup1\n      swap2\n      div\n      mul\n      0x20\n      add\n      mload(0x40)\n      swap1\n      dup2\n      add\n      0x40\n      mstore\n      dup1\n      swap3\n      swap2\n      swap1\n      dup2\n      dup2\n      mstore\n      0x20\n      add\n      dup3\n      dup1\n      sload\n      0x1\n      dup2\n      0x1\n      and\n      iszero\n      0x100\n      mul\n      sub\n      and\n      0x2\n      swap1\n      div\n      dup1\n      iszero\n      tag_317\n      jumpi\n      dup1\n      0x1f\n      lt\n      tag_318\n      jumpi\n      0x100\n      dup1\n      dup4\n      sload\n      div\n      mul\n      dup4\n      mstore\n      swap2\n      0x20\n      add\n      swap2\n      jump(tag_317)\n    tag_318:\n      dup3\n      add\n      swap2\n      swap1\n      0x0\n      mstore\n      keccak256(0x0, 0x20)\n      swap1\n    tag_319:\n      dup2\n      sload\n      dup2\n      mstore\n      swap1\n      0x1\n      add\n      swap1\n      0x20\n      add\n      dup1\n      dup4\n      gt\n      tag_319\n      jumpi\n      dup3\n      swap1\n      sub\n      0x1f\n      and\n      dup3\n      add\n      swap2\n    tag_317:\n      pop\n      pop\n      pop\n      pop\n      pop\n      dup2\n      mstore\n      0x20\n      add\n      0xa\n      dup3\n      add\n      sload\n      dup2\n      mstore\n      0x20\n      add\n      0xb\n      dup3\n      add\n      sload\n      dup2\n      mstore\n      0x20\n      add\n      0xc\n      dup3\n      add\n      sload\n      dup2\n      mstore\n      0x20\n      add\n      0xd\n      dup3\n      add\n      0x0\n      swap1\n      sload\n      swap1\n      0x100\n      exp\n      swap1\n      div\n      0xff\n      and\n      0xc\n      dup2\n      gt\n      iszero\n      tag_320\n      jumpi\n      invalid\n    tag_320:\n      0xc\n      dup2\n      gt\n      iszero\n      tag_321\n      jumpi\n      invalid\n    tag_321:\n      dup2\n      mstore\n      0x20\n      add\n      0xd\n      dup3\n      add\n      0x1\n      swap1\n      sload\n      swap1\n      0x100\n      exp\n      swap1\n      div\n      0xffffffffffffffffffffffffffffffffffffffff\n      and\n      0xffffffffffffffffffffffffffffffffffffffff\n      and\n      0xffffffffffffffffffffffffffffffffffffffff\n      and\n      dup2\n      mstore\n      0x20\n      add\n      0xe\n      dup3\n      add\n      0x0\n      swap1\n      sload\n      swap1\n      0x100\n      exp\n      swap1\n      div\n      0xffffffffffffffffffffffffffffffffffffffff\n      and\n      0xffffffffffffffffffffffffffffffffffffffff\n      and\n      0xffffffffffffffffffffffffffffffffffffffff\n      and\n      dup2\n      mstore\n      0x20\n      add\n      0xf\n      dup3\n      add\n      0x0\n      swap1\n      sload\n      swap1\n      0x100\n      exp\n      swap1\n      div\n      0xffffffffffffffffffffffffffffffffffffffff\n      and\n      0xffffffffffffffffffffffffffffffffffffffff\n      and\n      0xffffffffffffffffffffffffffffffffffffffff\n      and\n      dup2\n      mstore\n      pop\n      pop\n      swap1\n      pop\n        /* \"contracts/parmigianobase/SupplyChain.sol\":17640:17644  item */\n      dup1\n        /* \"contracts/parmigianobase/SupplyChain.sol\":17640:17648  item.sku */\n      0x0\n      add\n      mload\n        /* \"contracts/parmigianobase/SupplyChain.sol\":17657:17661  item */\n      dup2\n        /* \"contracts/parmigianobase/SupplyChain.sol\":17657:17665  item.upc */\n      0x20\n      add\n      mload\n        /* \"contracts/parmigianobase/SupplyChain.sol\":17674:17678  item */\n      dup3\n        /* \"contracts/parmigianobase/SupplyChain.sol\":17674:17688  item.productID */\n      0x100\n      add\n      mload\n        /* \"contracts/parmigianobase/SupplyChain.sol\":17697:17701  item */\n      dup4\n        /* \"contracts/parmigianobase/SupplyChain.sol\":17697:17714  item.productNotes */\n      0x120\n      add\n      mload\n        /* \"contracts/parmigianobase/SupplyChain.sol\":17723:17727  item */\n      dup5\n        /* \"contracts/parmigianobase/SupplyChain.sol\":17723:17740  item.productPrice */\n      0x160\n      add\n      mload\n        /* \"contracts/parmigianobase/SupplyChain.sol\":17749:17753  item */\n      dup6\n        /* \"contracts/parmigianobase/SupplyChain.sol\":17749:17765  item.productDate */\n      0x140\n      add\n      mload\n        /* \"contracts/parmigianobase/SupplyChain.sol\":17774:17778  item */\n      dup7\n        /* \"contracts/parmigianobase/SupplyChain.sol\":17774:17788  item.itemState */\n      0x1a0\n      add\n      mload\n        /* \"contracts/parmigianobase/SupplyChain.sol\":17797:17801  item */\n      dup8\n        /* \"contracts/parmigianobase/SupplyChain.sol\":17797:17815  item.distributorID */\n      0x1c0\n      add\n      mload\n        /* \"contracts/parmigianobase/SupplyChain.sol\":17824:17828  item */\n      dup9\n        /* \"contracts/parmigianobase/SupplyChain.sol\":17824:17839  item.retailerID */\n      0x1e0\n      add\n      mload\n        /* \"contracts/parmigianobase/SupplyChain.sol\":17848:17852  item */\n      dup10\n        /* \"contracts/parmigianobase/SupplyChain.sol\":17848:17863  item.consumerID */\n      0x200\n      add\n      mload\n        /* \"contracts/parmigianobase/SupplyChain.sol\":17619:17870  return\r... */\n      dup7\n      swap7\n      pop\n      swap11\n      pop\n      swap11\n      pop\n      swap11\n      pop\n      swap11\n      pop\n      swap11\n      pop\n      swap11\n      pop\n      swap11\n      pop\n      swap11\n      pop\n      swap11\n      pop\n      swap11\n      pop\n      pop\n        /* \"contracts/parmigianobase/SupplyChain.sol\":17195:17878  function fetchItemBufferTwo(uint _upc) public view returns\r... */\n      swap2\n      swap4\n      swap6\n      swap8\n      swap10\n      pop\n      swap2\n      swap4\n      swap6\n      swap8\n      swap10\n      jump\t// out\n        /* \"contracts/parmigianocore/Ownable.sol\":889:1032  function renounceOwnership() public onlyOwner {\r... */\n    tag_109:\n        /* \"contracts/parmigianobase/SupplyChain.sol\":4139:4144  owner */\n      0x5\n      0x0\n      swap1\n      sload\n      swap1\n      0x100\n      exp\n      swap1\n      div\n      0xffffffffffffffffffffffffffffffffffffffff\n      and\n        /* \"contracts/parmigianobase/SupplyChain.sol\":4125:4144  msg.sender == owner */\n      0xffffffffffffffffffffffffffffffffffffffff\n      and\n        /* \"contracts/parmigianobase/SupplyChain.sol\":4125:4135  msg.sender */\n      caller\n        /* \"contracts/parmigianobase/SupplyChain.sol\":4125:4144  msg.sender == owner */\n      0xffffffffffffffffffffffffffffffffffffffff\n      and\n      eq\n        /* \"contracts/parmigianobase/SupplyChain.sol\":4117:4145  require(msg.sender == owner) */\n      iszero\n      iszero\n      tag_323\n      jumpi\n      0x0\n      dup1\n      revert\n    tag_323:\n        /* \"contracts/parmigianocore/Ownable.sol\":988:989  0 */\n      0x0\n        /* \"contracts/parmigianocore/Ownable.sol\":951:991  TransferOwnership(origOwner, address(0)) */\n      0xffffffffffffffffffffffffffffffffffffffff\n      and\n        /* \"contracts/parmigianocore/Ownable.sol\":969:978  origOwner */\n      0x0\n      dup1\n      swap1\n      sload\n      swap1\n      0x100\n      exp\n      swap1\n      div\n      0xffffffffffffffffffffffffffffffffffffffff\n      and\n        /* \"contracts/parmigianocore/Ownable.sol\":951:991  TransferOwnership(origOwner, address(0)) */\n      0xffffffffffffffffffffffffffffffffffffffff\n      and\n      0x5c486528ec3e3f0ea91181cff8116f02bfa350e03b8b6f12e00765adbb5af85c\n      mload(0x40)\n      mload(0x40)\n      dup1\n      swap2\n      sub\n      swap1\n      log3\n        /* \"contracts/parmigianocore/Ownable.sol\":1022:1023  0 */\n      0x0\n        /* \"contracts/parmigianocore/Ownable.sol\":1002:1011  origOwner */\n      dup1\n      0x0\n        /* \"contracts/parmigianocore/Ownable.sol\":1002:1024  origOwner = address(0) */\n      0x100\n      exp\n      dup2\n      sload\n      dup2\n      0xffffffffffffffffffffffffffffffffffffffff\n      mul\n      not\n      and\n      swap1\n      dup4\n      0xffffffffffffffffffffffffffffffffffffffff\n      and\n      mul\n      or\n      swap1\n      sstore\n      pop\n        /* \"contracts/parmigianocore/Ownable.sol\":889:1032  function renounceOwnership() public onlyOwner {\r... */\n      jump\t// out\n        /* \"contracts/parmigianoaccesscontrol/DistributorRole.sol\":1080:1181  function addDistributor(address account) public onlyDistributor {\r... */\n    tag_113:\n        /* \"contracts/parmigianoaccesscontrol/DistributorRole.sol\":796:821  isDistributor(msg.sender) */\n      tag_326\n        /* \"contracts/parmigianoaccesscontrol/DistributorRole.sol\":810:820  msg.sender */\n      caller\n        /* \"contracts/parmigianoaccesscontrol/DistributorRole.sol\":796:809  isDistributor */\n      tag_153\n        /* \"contracts/parmigianoaccesscontrol/DistributorRole.sol\":796:821  isDistributor(msg.sender) */\n      jump\t// in\n    tag_326:\n        /* \"contracts/parmigianoaccesscontrol/DistributorRole.sol\":788:822  require(isDistributor(msg.sender)) */\n      iszero\n      iszero\n      tag_327\n      jumpi\n      0x0\n      dup1\n      revert\n    tag_327:\n        /* \"contracts/parmigianoaccesscontrol/DistributorRole.sol\":1151:1175  _addDistributor(account) */\n      tag_329\n        /* \"contracts/parmigianoaccesscontrol/DistributorRole.sol\":1167:1174  account */\n      dup2\n        /* \"contracts/parmigianoaccesscontrol/DistributorRole.sol\":1151:1166  _addDistributor */\n      tag_330\n        /* \"contracts/parmigianoaccesscontrol/DistributorRole.sol\":1151:1175  _addDistributor(account) */\n      jump\t// in\n    tag_329:\n        /* \"contracts/parmigianoaccesscontrol/DistributorRole.sol\":1080:1181  function addDistributor(address account) public onlyDistributor {\r... */\n      pop\n      jump\t// out\n        /* \"contracts/parmigianobase/SupplyChain.sol\":16339:17122  function fetchItemBufferOne(uint _upc) public view returns\r... */\n    tag_117:\n        /* \"contracts/parmigianobase/SupplyChain.sol\":16410:16425  uint    itemSKU */\n      0x0\n        /* \"contracts/parmigianobase/SupplyChain.sol\":16432:16447  uint    itemUPC */\n      dup1\n        /* \"contracts/parmigianobase/SupplyChain.sol\":16454:16469  address ownerID */\n      0x0\n        /* \"contracts/parmigianobase/SupplyChain.sol\":16476:16513  address originCarParts_ManufacturerID */\n      dup1\n        /* \"contracts/parmigianobase/SupplyChain.sol\":16520:16549  string memory  originFarmName */\n      0x60\n        /* \"contracts/parmigianobase/SupplyChain.sol\":16556:16591  string memory originFarmInformation */\n      dup1\n        /* \"contracts/parmigianobase/SupplyChain.sol\":16598:16630  string memory originFarmLatitude */\n      0x60\n        /* \"contracts/parmigianobase/SupplyChain.sol\":16637:16670  string memory originFarmLongitude */\n      dup1\n        /* \"contracts/parmigianobase/SupplyChain.sol\":16677:16693  uint productDate */\n      0x0\n        /* \"contracts/parmigianobase/SupplyChain.sol\":16700:16718  uint productSliced */\n      dup1\n        /* \"contracts/parmigianobase/SupplyChain.sol\":16780:16796  Item memory item */\n      tag_332\n      jump\t// in(tag_275)\n    tag_332:\n        /* \"contracts/parmigianobase/SupplyChain.sol\":16799:16804  items */\n      0x8\n        /* \"contracts/parmigianobase/SupplyChain.sol\":16799:16810  items[_upc] */\n      0x0\n        /* \"contracts/parmigianobase/SupplyChain.sol\":16805:16809  _upc */\n      dup14\n        /* \"contracts/parmigianobase/SupplyChain.sol\":16799:16810  items[_upc] */\n      dup2\n      mstore\n      0x20\n      add\n      swap1\n      dup2\n      mstore\n      0x20\n      add\n      0x0\n      keccak256\n        /* \"contracts/parmigianobase/SupplyChain.sol\":16780:16810  Item memory item = items[_upc] */\n      0x220\n      mload(0x40)\n      swap1\n      dup2\n      add\n      0x40\n      mstore\n      swap1\n      dup2\n      0x0\n      dup3\n      add\n      sload\n      dup2\n      mstore\n      0x20\n      add\n      0x1\n      dup3\n      add\n      sload\n      dup2\n      mstore\n      0x20\n      add\n      0x2\n      dup3\n      add\n      0x0\n      swap1\n      sload\n      swap1\n      0x100\n      exp\n      swap1\n      div\n      0xffffffffffffffffffffffffffffffffffffffff\n      and\n      0xffffffffffffffffffffffffffffffffffffffff\n      and\n      0xffffffffffffffffffffffffffffffffffffffff\n      and\n      dup2\n      mstore\n      0x20\n      add\n      0x3\n      dup3\n      add\n      0x0\n      swap1\n      sload\n      swap1\n      0x100\n      exp\n      swap1\n      div\n      0xffffffffffffffffffffffffffffffffffffffff\n      and\n      0xffffffffffffffffffffffffffffffffffffffff\n      and\n      0xffffffffffffffffffffffffffffffffffffffff\n      and\n      dup2\n      mstore\n      0x20\n      add\n      0x4\n      dup3\n      add\n      dup1\n      sload\n      0x1\n      dup2\n      0x1\n      and\n      iszero\n      0x100\n      mul\n      sub\n      and\n      0x2\n      swap1\n      div\n      dup1\n      0x1f\n      add\n      0x20\n      dup1\n      swap2\n      div\n      mul\n      0x20\n      add\n      mload(0x40)\n      swap1\n      dup2\n      add\n      0x40\n      mstore\n      dup1\n      swap3\n      swap2\n      swap1\n      dup2\n      dup2\n      mstore\n      0x20\n      add\n      dup3\n      dup1\n      sload\n      0x1\n      dup2\n      0x1\n      and\n      iszero\n      0x100\n      mul\n      sub\n      and\n      0x2\n      swap1\n      div\n      dup1\n      iszero\n      tag_333\n      jumpi\n      dup1\n      0x1f\n      lt\n      tag_334\n      jumpi\n      0x100\n      dup1\n      dup4\n      sload\n      div\n      mul\n      dup4\n      mstore\n      swap2\n      0x20\n      add\n      swap2\n      jump(tag_333)\n    tag_334:\n      dup3\n      add\n      swap2\n      swap1\n      0x0\n      mstore\n      keccak256(0x0, 0x20)\n      swap1\n    tag_335:\n      dup2\n      sload\n      dup2\n      mstore\n      swap1\n      0x1\n      add\n      swap1\n      0x20\n      add\n      dup1\n      dup4\n      gt\n      tag_335\n      jumpi\n      dup3\n      swap1\n      sub\n      0x1f\n      and\n      dup3\n      add\n      swap2\n    tag_333:\n      pop\n      pop\n      pop\n      pop\n      pop\n      dup2\n      mstore\n      0x20\n      add\n      0x5\n      dup3\n      add\n      dup1\n      sload\n      0x1\n      dup2\n      0x1\n      and\n      iszero\n      0x100\n      mul\n      sub\n      and\n      0x2\n      swap1\n      div\n      dup1\n      0x1f\n      add\n      0x20\n      dup1\n      swap2\n      div\n      mul\n      0x20\n      add\n      mload(0x40)\n      swap1\n      dup2\n      add\n      0x40\n      mstore\n      dup1\n      swap3\n      swap2\n      swap1\n      dup2\n      dup2\n      mstore\n      0x20\n      add\n      dup3\n      dup1\n      sload\n      0x1\n      dup2\n      0x1\n      and\n      iszero\n      0x100\n      mul\n      sub\n      and\n      0x2\n      swap1\n      div\n      dup1\n      iszero\n      tag_336\n      jumpi\n      dup1\n      0x1f\n      lt\n      tag_337\n      jumpi\n      0x100\n      dup1\n      dup4\n      sload\n      div\n      mul\n      dup4\n      mstore\n      swap2\n      0x20\n      add\n      swap2\n      jump(tag_336)\n    tag_337:\n      dup3\n      add\n      swap2\n      swap1\n      0x0\n      mstore\n      keccak256(0x0, 0x20)\n      swap1\n    tag_338:\n      dup2\n      sload\n      dup2\n      mstore\n      swap1\n      0x1\n      add\n      swap1\n      0x20\n      add\n      dup1\n      dup4\n      gt\n      tag_338\n      jumpi\n      dup3\n      swap1\n      sub\n      0x1f\n      and\n      dup3\n      add\n      swap2\n    tag_336:\n      pop\n      pop\n      pop\n      pop\n      pop\n      dup2\n      mstore\n      0x20\n      add\n      0x6\n      dup3\n      add\n      dup1\n      sload\n      0x1\n      dup2\n      0x1\n      and\n      iszero\n      0x100\n      mul\n      sub\n      and\n      0x2\n      swap1\n      div\n      dup1\n      0x1f\n      add\n      0x20\n      dup1\n      swap2\n      div\n      mul\n      0x20\n      add\n      mload(0x40)\n      swap1\n      dup2\n      add\n      0x40\n      mstore\n      dup1\n      swap3\n      swap2\n      swap1\n      dup2\n      dup2\n      mstore\n      0x20\n      add\n      dup3\n      dup1\n      sload\n      0x1\n      dup2\n      0x1\n      and\n      iszero\n      0x100\n      mul\n      sub\n      and\n      0x2\n      swap1\n      div\n      dup1\n      iszero\n      tag_339\n      jumpi\n      dup1\n      0x1f\n      lt\n      tag_340\n      jumpi\n      0x100\n      dup1\n      dup4\n      sload\n      div\n      mul\n      dup4\n      mstore\n      swap2\n      0x20\n      add\n      swap2\n      jump(tag_339)\n    tag_340:\n      dup3\n      add\n      swap2\n      swap1\n      0x0\n      mstore\n      keccak256(0x0, 0x20)\n      swap1\n    tag_341:\n      dup2\n      sload\n      dup2\n      mstore\n      swap1\n      0x1\n      add\n      swap1\n      0x20\n      add\n      dup1\n      dup4\n      gt\n      tag_341\n      jumpi\n      dup3\n      swap1\n      sub\n      0x1f\n      and\n      dup3\n      add\n      swap2\n    tag_339:\n      pop\n      pop\n      pop\n      pop\n      pop\n      dup2\n      mstore\n      0x20\n      add\n      0x7\n      dup3\n      add\n      dup1\n      sload\n      0x1\n      dup2\n      0x1\n      and\n      iszero\n      0x100\n      mul\n      sub\n      and\n      0x2\n      swap1\n      div\n      dup1\n      0x1f\n      add\n      0x20\n      dup1\n      swap2\n      div\n      mul\n      0x20\n      add\n      mload(0x40)\n      swap1\n      dup2\n      add\n      0x40\n      mstore\n      dup1\n      swap3\n      swap2\n      swap1\n      dup2\n      dup2\n      mstore\n      0x20\n      add\n      dup3\n      dup1\n      sload\n      0x1\n      dup2\n      0x1\n      and\n      iszero\n      0x100\n      mul\n      sub\n      and\n      0x2\n      swap1\n      div\n      dup1\n      iszero\n      tag_342\n      jumpi\n      dup1\n      0x1f\n      lt\n      tag_343\n      jumpi\n      0x100\n      dup1\n      dup4\n      sload\n      div\n      mul\n      dup4\n      mstore\n      swap2\n      0x20\n      add\n      swap2\n      jump(tag_342)\n    tag_343:\n      dup3\n      add\n      swap2\n      swap1\n      0x0\n      mstore\n      keccak256(0x0, 0x20)\n      swap1\n    tag_344:\n      dup2\n      sload\n      dup2\n      mstore\n      swap1\n      0x1\n      add\n      swap1\n      0x20\n      add\n      dup1\n      dup4\n      gt\n      tag_344\n      jumpi\n      dup3\n      swap1\n      sub\n      0x1f\n      and\n      dup3\n      add\n      swap2\n    tag_342:\n      pop\n      pop\n      pop\n      pop\n      pop\n      dup2\n      mstore\n      0x20\n      add\n      0x8\n      dup3\n      add\n      sload\n      dup2\n      mstore\n      0x20\n      add\n      0x9\n      dup3\n      add\n      dup1\n      sload\n      0x1\n      dup2\n      0x1\n      and\n      iszero\n      0x100\n      mul\n      sub\n      and\n      0x2\n      swap1\n      div\n      dup1\n      0x1f\n      add\n      0x20\n      dup1\n      swap2\n      div\n      mul\n      0x20\n      add\n      mload(0x40)\n      swap1\n      dup2\n      add\n      0x40\n      mstore\n      dup1\n      swap3\n      swap2\n      swap1\n      dup2\n      dup2\n      mstore\n      0x20\n      add\n      dup3\n      dup1\n      sload\n      0x1\n      dup2\n      0x1\n      and\n      iszero\n      0x100\n      mul\n      sub\n      and\n      0x2\n      swap1\n      div\n      dup1\n      iszero\n      tag_345\n      jumpi\n      dup1\n      0x1f\n      lt\n      tag_346\n      jumpi\n      0x100\n      dup1\n      dup4\n      sload\n      div\n      mul\n      dup4\n      mstore\n      swap2\n      0x20\n      add\n      swap2\n      jump(tag_345)\n    tag_346:\n      dup3\n      add\n      swap2\n      swap1\n      0x0\n      mstore\n      keccak256(0x0, 0x20)\n      swap1\n    tag_347:\n      dup2\n      sload\n      dup2\n      mstore\n      swap1\n      0x1\n      add\n      swap1\n      0x20\n      add\n      dup1\n      dup4\n      gt\n      tag_347\n      jumpi\n      dup3\n      swap1\n      sub\n      0x1f\n      and\n      dup3\n      add\n      swap2\n    tag_345:\n      pop\n      pop\n      pop\n      pop\n      pop\n      dup2\n      mstore\n      0x20\n      add\n      0xa\n      dup3\n      add\n      sload\n      dup2\n      mstore\n      0x20\n      add\n      0xb\n      dup3\n      add\n      sload\n      dup2\n      mstore\n      0x20\n      add\n      0xc\n      dup3\n      add\n      sload\n      dup2\n      mstore\n      0x20\n      add\n      0xd\n      dup3\n      add\n      0x0\n      swap1\n      sload\n      swap1\n      0x100\n      exp\n      swap1\n      div\n      0xff\n      and\n      0xc\n      dup2\n      gt\n      iszero\n      tag_348\n      jumpi\n      invalid\n    tag_348:\n      0xc\n      dup2\n      gt\n      iszero\n      tag_349\n      jumpi\n      invalid\n    tag_349:\n      dup2\n      mstore\n      0x20\n      add\n      0xd\n      dup3\n      add\n      0x1\n      swap1\n      sload\n      swap1\n      0x100\n      exp\n      swap1\n      div\n      0xffffffffffffffffffffffffffffffffffffffff\n      and\n      0xffffffffffffffffffffffffffffffffffffffff\n      and\n      0xffffffffffffffffffffffffffffffffffffffff\n      and\n      dup2\n      mstore\n      0x20\n      add\n      0xe\n      dup3\n      add\n      0x0\n      swap1\n      sload\n      swap1\n      0x100\n      exp\n      swap1\n      div\n      0xffffffffffffffffffffffffffffffffffffffff\n      and\n      0xffffffffffffffffffffffffffffffffffffffff\n      and\n      0xffffffffffffffffffffffffffffffffffffffff\n      and\n      dup2\n      mstore\n      0x20\n      add\n      0xf\n      dup3\n      add\n      0x0\n      swap1\n      sload\n      swap1\n      0x100\n      exp\n      swap1\n      div\n      0xffffffffffffffffffffffffffffffffffffffff\n      and\n      0xffffffffffffffffffffffffffffffffffffffff\n      and\n      0xffffffffffffffffffffffffffffffffffffffff\n      and\n      dup2\n      mstore\n      pop\n      pop\n      swap1\n      pop\n        /* \"contracts/parmigianobase/SupplyChain.sol\":16840:16844  item */\n      dup1\n        /* \"contracts/parmigianobase/SupplyChain.sol\":16840:16848  item.sku */\n      0x0\n      add\n      mload\n        /* \"contracts/parmigianobase/SupplyChain.sol\":16857:16861  item */\n      dup2\n        /* \"contracts/parmigianobase/SupplyChain.sol\":16857:16865  item.upc */\n      0x20\n      add\n      mload\n        /* \"contracts/parmigianobase/SupplyChain.sol\":16874:16878  item */\n      dup3\n        /* \"contracts/parmigianobase/SupplyChain.sol\":16874:16886  item.ownerID */\n      0x40\n      add\n      mload\n        /* \"contracts/parmigianobase/SupplyChain.sol\":16895:16899  item */\n      dup4\n        /* \"contracts/parmigianobase/SupplyChain.sol\":16895:16929  item.originCarParts_ManufacturerID */\n      0x60\n      add\n      mload\n        /* \"contracts/parmigianobase/SupplyChain.sol\":16938:16942  item */\n      dup5\n        /* \"contracts/parmigianobase/SupplyChain.sol\":16938:16957  item.originFarmName */\n      0x80\n      add\n      mload\n        /* \"contracts/parmigianobase/SupplyChain.sol\":16966:16970  item */\n      dup6\n        /* \"contracts/parmigianobase/SupplyChain.sol\":16966:16992  item.originFarmInformation */\n      0xa0\n      add\n      mload\n        /* \"contracts/parmigianobase/SupplyChain.sol\":17001:17005  item */\n      dup7\n        /* \"contracts/parmigianobase/SupplyChain.sol\":17001:17024  item.originFarmLatitude */\n      0xc0\n      add\n      mload\n        /* \"contracts/parmigianobase/SupplyChain.sol\":17033:17037  item */\n      dup8\n        /* \"contracts/parmigianobase/SupplyChain.sol\":17033:17057  item.originFarmLongitude */\n      0xe0\n      add\n      mload\n        /* \"contracts/parmigianobase/SupplyChain.sol\":17066:17070  item */\n      dup9\n        /* \"contracts/parmigianobase/SupplyChain.sol\":17066:17082  item.productDate */\n      0x140\n      add\n      mload\n        /* \"contracts/parmigianobase/SupplyChain.sol\":17091:17095  item */\n      dup10\n        /* \"contracts/parmigianobase/SupplyChain.sol\":17091:17109  item.productSliced */\n      0x180\n      add\n      mload\n        /* \"contracts/parmigianobase/SupplyChain.sol\":16819:17116  return\r... */\n      dup6\n      swap6\n      pop\n      dup5\n      swap5\n      pop\n      dup4\n      swap4\n      pop\n      dup3\n      swap3\n      pop\n      swap11\n      pop\n      swap11\n      pop\n      swap11\n      pop\n      swap11\n      pop\n      swap11\n      pop\n      swap11\n      pop\n      swap11\n      pop\n      swap11\n      pop\n      swap11\n      pop\n      swap11\n      pop\n      pop\n        /* \"contracts/parmigianobase/SupplyChain.sol\":16339:17122  function fetchItemBufferOne(uint _upc) public view returns\r... */\n      swap2\n      swap4\n      swap6\n      swap8\n      swap10\n      pop\n      swap2\n      swap4\n      swap6\n      swap8\n      swap10\n      jump\t// out\n        /* \"contracts/parmigianobase/SupplyChain.sol\":14435:14780  function shippedItemByDistributor(uint _upc) public\r... */\n    tag_137:\n        /* \"contracts/parmigianoaccesscontrol/DistributorRole.sol\":796:821  isDistributor(msg.sender) */\n      tag_351\n        /* \"contracts/parmigianoaccesscontrol/DistributorRole.sol\":810:820  msg.sender */\n      caller\n        /* \"contracts/parmigianoaccesscontrol/DistributorRole.sol\":796:809  isDistributor */\n      tag_153\n        /* \"contracts/parmigianoaccesscontrol/DistributorRole.sol\":796:821  isDistributor(msg.sender) */\n      jump\t// in\n    tag_351:\n        /* \"contracts/parmigianoaccesscontrol/DistributorRole.sol\":788:822  require(isDistributor(msg.sender)) */\n      iszero\n      iszero\n      tag_352\n      jumpi\n      0x0\n      dup1\n      revert\n    tag_352:\n        /* \"contracts/parmigianobase/SupplyChain.sol\":14582:14586  _upc */\n      dup1\n        /* \"contracts/parmigianobase/SupplyChain.sol\":6116:6141  State.PurchasedByRetailer */\n      0x8\n        /* \"contracts/parmigianobase/SupplyChain.sol\":6091:6141  items[_upc].itemState == State.PurchasedByRetailer */\n      0xc\n      dup2\n      gt\n      iszero\n      tag_354\n      jumpi\n      invalid\n    tag_354:\n        /* \"contracts/parmigianobase/SupplyChain.sol\":6091:6096  items */\n      0x8\n        /* \"contracts/parmigianobase/SupplyChain.sol\":6091:6102  items[_upc] */\n      0x0\n        /* \"contracts/parmigianobase/SupplyChain.sol\":6097:6101  _upc */\n      dup4\n        /* \"contracts/parmigianobase/SupplyChain.sol\":6091:6102  items[_upc] */\n      dup2\n      mstore\n      0x20\n      add\n      swap1\n      dup2\n      mstore\n      0x20\n      add\n      0x0\n      keccak256\n        /* \"contracts/parmigianobase/SupplyChain.sol\":6091:6112  items[_upc].itemState */\n      0xd\n      add\n      0x0\n      swap1\n      sload\n      swap1\n      0x100\n      exp\n      swap1\n      div\n      0xff\n      and\n        /* \"contracts/parmigianobase/SupplyChain.sol\":6091:6141  items[_upc].itemState == State.PurchasedByRetailer */\n      0xc\n      dup2\n      gt\n      iszero\n      tag_355\n      jumpi\n      invalid\n    tag_355:\n      eq\n        /* \"contracts/parmigianobase/SupplyChain.sol\":6083:6142  require(items[_upc].itemState == State.PurchasedByRetailer) */\n      iszero\n      iszero\n      tag_356\n      jumpi\n      0x0\n      dup1\n      revert\n    tag_356:\n        /* \"contracts/parmigianobase/SupplyChain.sol\":14606:14611  items */\n      0x8\n        /* \"contracts/parmigianobase/SupplyChain.sol\":14606:14617  items[_upc] */\n      0x0\n        /* \"contracts/parmigianobase/SupplyChain.sol\":14612:14616  _upc */\n      dup4\n        /* \"contracts/parmigianobase/SupplyChain.sol\":14606:14617  items[_upc] */\n      dup2\n      mstore\n      0x20\n      add\n      swap1\n      dup2\n      mstore\n      0x20\n      add\n      0x0\n      keccak256\n        /* \"contracts/parmigianobase/SupplyChain.sol\":14606:14631  items[_upc].distributorID */\n      0xd\n      add\n      0x1\n      swap1\n      sload\n      swap1\n      0x100\n      exp\n      swap1\n      div\n      0xffffffffffffffffffffffffffffffffffffffff\n      and\n        /* \"contracts/parmigianobase/SupplyChain.sol\":4283:4291  _address */\n      dup1\n        /* \"contracts/parmigianobase/SupplyChain.sol\":4269:4291  msg.sender == _address */\n      0xffffffffffffffffffffffffffffffffffffffff\n      and\n        /* \"contracts/parmigianobase/SupplyChain.sol\":4269:4279  msg.sender */\n      caller\n        /* \"contracts/parmigianobase/SupplyChain.sol\":4269:4291  msg.sender == _address */\n      0xffffffffffffffffffffffffffffffffffffffff\n      and\n      eq\n        /* \"contracts/parmigianobase/SupplyChain.sol\":4261:4292  require(msg.sender == _address) */\n      iszero\n      iszero\n      tag_358\n      jumpi\n      0x0\n      dup1\n      revert\n    tag_358:\n        /* \"contracts/parmigianobase/SupplyChain.sol\":14708:14734  State.ShippedByDistributor */\n      0x9\n        /* \"contracts/parmigianobase/SupplyChain.sol\":14684:14689  items */\n      0x8\n        /* \"contracts/parmigianobase/SupplyChain.sol\":14684:14695  items[_upc] */\n      0x0\n        /* \"contracts/parmigianobase/SupplyChain.sol\":14690:14694  _upc */\n      dup6\n        /* \"contracts/parmigianobase/SupplyChain.sol\":14684:14695  items[_upc] */\n      dup2\n      mstore\n      0x20\n      add\n      swap1\n      dup2\n      mstore\n      0x20\n      add\n      0x0\n      keccak256\n        /* \"contracts/parmigianobase/SupplyChain.sol\":14684:14705  items[_upc].itemState */\n      0xd\n      add\n      0x0\n        /* \"contracts/parmigianobase/SupplyChain.sol\":14684:14734  items[_upc].itemState = State.ShippedByDistributor */\n      0x100\n      exp\n      dup2\n      sload\n      dup2\n      0xff\n      mul\n      not\n      and\n      swap1\n      dup4\n      0xc\n      dup2\n      gt\n      iszero\n      tag_360\n      jumpi\n      invalid\n    tag_360:\n      mul\n      or\n      swap1\n      sstore\n      pop\n        /* \"contracts/parmigianobase/SupplyChain.sol\":14748:14774  ShippedByDistributor(_upc) */\n      0xc5c33776d405e5686e4386e1ef31a65cf6195e4f7ceb8808ab64d05b6ccbc2a6\n        /* \"contracts/parmigianobase/SupplyChain.sol\":14769:14773  _upc */\n      dup4\n        /* \"contracts/parmigianobase/SupplyChain.sol\":14748:14774  ShippedByDistributor(_upc) */\n      mload(0x40)\n      dup1\n      dup3\n      dup2\n      mstore\n      0x20\n      add\n      swap2\n      pop\n      pop\n      mload(0x40)\n      dup1\n      swap2\n      sub\n      swap1\n      log1\n        /* \"contracts/parmigianobase/SupplyChain.sol\":6149:6150  _ */\n      pop\n        /* \"contracts/parmigianoaccesscontrol/DistributorRole.sol\":829:830  _ */\n      pop\n        /* \"contracts/parmigianobase/SupplyChain.sol\":14435:14780  function shippedItemByDistributor(uint _upc) public\r... */\n      pop\n      jump\t// out\n        /* \"contracts/parmigianoaccesscontrol/ConsumerRole.sol\":906:1012  function isConsumer(address account) public view returns (bool) {\r... */\n    tag_141:\n        /* \"contracts/parmigianoaccesscontrol/ConsumerRole.sol\":964:968  bool */\n      0x0\n        /* \"contracts/parmigianoaccesscontrol/ConsumerRole.sol\":984:1006  consumers.has(account) */\n      tag_362\n        /* \"contracts/parmigianoaccesscontrol/ConsumerRole.sol\":998:1005  account */\n      dup3\n        /* \"contracts/parmigianoaccesscontrol/ConsumerRole.sol\":984:993  consumers */\n      0x4\n        /* \"contracts/parmigianoaccesscontrol/ConsumerRole.sol\":984:997  consumers.has */\n      tag_299\n      swap1\n        /* \"contracts/parmigianoaccesscontrol/ConsumerRole.sol\":984:1006  consumers.has(account) */\n      swap2\n      swap1\n      0xffffffff\n      and\n      jump\t// in\n    tag_362:\n        /* \"contracts/parmigianoaccesscontrol/ConsumerRole.sol\":977:1006  return consumers.has(account) */\n      swap1\n      pop\n        /* \"contracts/parmigianoaccesscontrol/ConsumerRole.sol\":906:1012  function isConsumer(address account) public view returns (bool) {\r... */\n      swap2\n      swap1\n      pop\n      jump\t// out\n        /* \"contracts/parmigianobase/SupplyChain.sol\":13286:13676  function sellItemByDistributor(uint _upc, uint _price) public\r... */\n    tag_145:\n        /* \"contracts/parmigianoaccesscontrol/DistributorRole.sol\":796:821  isDistributor(msg.sender) */\n      tag_364\n        /* \"contracts/parmigianoaccesscontrol/DistributorRole.sol\":810:820  msg.sender */\n      caller\n        /* \"contracts/parmigianoaccesscontrol/DistributorRole.sol\":796:809  isDistributor */\n      tag_153\n        /* \"contracts/parmigianoaccesscontrol/DistributorRole.sol\":796:821  isDistributor(msg.sender) */\n      jump\t// in\n    tag_364:\n        /* \"contracts/parmigianoaccesscontrol/DistributorRole.sol\":788:822  require(isDistributor(msg.sender)) */\n      iszero\n      iszero\n      tag_365\n      jumpi\n      0x0\n      dup1\n      revert\n    tag_365:\n        /* \"contracts/parmigianobase/SupplyChain.sol\":13445:13449  _upc */\n      dup2\n        /* \"contracts/parmigianobase/SupplyChain.sol\":5731:5757  State.PackageByDistributor */\n      0x6\n        /* \"contracts/parmigianobase/SupplyChain.sol\":5706:5757  items[_upc].itemState == State.PackageByDistributor */\n      0xc\n      dup2\n      gt\n      iszero\n      tag_367\n      jumpi\n      invalid\n    tag_367:\n        /* \"contracts/parmigianobase/SupplyChain.sol\":5706:5711  items */\n      0x8\n        /* \"contracts/parmigianobase/SupplyChain.sol\":5706:5717  items[_upc] */\n      0x0\n        /* \"contracts/parmigianobase/SupplyChain.sol\":5712:5716  _upc */\n      dup4\n        /* \"contracts/parmigianobase/SupplyChain.sol\":5706:5717  items[_upc] */\n      dup2\n      mstore\n      0x20\n      add\n      swap1\n      dup2\n      mstore\n      0x20\n      add\n      0x0\n      keccak256\n        /* \"contracts/parmigianobase/SupplyChain.sol\":5706:5727  items[_upc].itemState */\n      0xd\n      add\n      0x0\n      swap1\n      sload\n      swap1\n      0x100\n      exp\n      swap1\n      div\n      0xff\n      and\n        /* \"contracts/parmigianobase/SupplyChain.sol\":5706:5757  items[_upc].itemState == State.PackageByDistributor */\n      0xc\n      dup2\n      gt\n      iszero\n      tag_368\n      jumpi\n      invalid\n    tag_368:\n      eq\n        /* \"contracts/parmigianobase/SupplyChain.sol\":5698:5758  require(items[_upc].itemState == State.PackageByDistributor) */\n      iszero\n      iszero\n      tag_369\n      jumpi\n      0x0\n      dup1\n      revert\n    tag_369:\n        /* \"contracts/parmigianobase/SupplyChain.sol\":13469:13474  items */\n      0x8\n        /* \"contracts/parmigianobase/SupplyChain.sol\":13469:13480  items[_upc] */\n      0x0\n        /* \"contracts/parmigianobase/SupplyChain.sol\":13475:13479  _upc */\n      dup5\n        /* \"contracts/parmigianobase/SupplyChain.sol\":13469:13480  items[_upc] */\n      dup2\n      mstore\n      0x20\n      add\n      swap1\n      dup2\n      mstore\n      0x20\n      add\n      0x0\n      keccak256\n        /* \"contracts/parmigianobase/SupplyChain.sol\":13469:13488  items[_upc].ownerID */\n      0x2\n      add\n      0x0\n      swap1\n      sload\n      swap1\n      0x100\n      exp\n      swap1\n      div\n      0xffffffffffffffffffffffffffffffffffffffff\n      and\n        /* \"contracts/parmigianobase/SupplyChain.sol\":4283:4291  _address */\n      dup1\n        /* \"contracts/parmigianobase/SupplyChain.sol\":4269:4291  msg.sender == _address */\n      0xffffffffffffffffffffffffffffffffffffffff\n      and\n        /* \"contracts/parmigianobase/SupplyChain.sol\":4269:4279  msg.sender */\n      caller\n        /* \"contracts/parmigianobase/SupplyChain.sol\":4269:4291  msg.sender == _address */\n      0xffffffffffffffffffffffffffffffffffffffff\n      and\n      eq\n        /* \"contracts/parmigianobase/SupplyChain.sol\":4261:4292  require(msg.sender == _address) */\n      iszero\n      iszero\n      tag_371\n      jumpi\n      0x0\n      dup1\n      revert\n    tag_371:\n        /* \"contracts/parmigianobase/SupplyChain.sol\":13559:13585  State.ForSaleByDistributor */\n      0x7\n        /* \"contracts/parmigianobase/SupplyChain.sol\":13535:13540  items */\n      0x8\n        /* \"contracts/parmigianobase/SupplyChain.sol\":13535:13546  items[_upc] */\n      0x0\n        /* \"contracts/parmigianobase/SupplyChain.sol\":13541:13545  _upc */\n      dup7\n        /* \"contracts/parmigianobase/SupplyChain.sol\":13535:13546  items[_upc] */\n      dup2\n      mstore\n      0x20\n      add\n      swap1\n      dup2\n      mstore\n      0x20\n      add\n      0x0\n      keccak256\n        /* \"contracts/parmigianobase/SupplyChain.sol\":13535:13556  items[_upc].itemState */\n      0xd\n      add\n      0x0\n        /* \"contracts/parmigianobase/SupplyChain.sol\":13535:13585  items[_upc].itemState = State.ForSaleByDistributor */\n      0x100\n      exp\n      dup2\n      sload\n      dup2\n      0xff\n      mul\n      not\n      and\n      swap1\n      dup4\n      0xc\n      dup2\n      gt\n      iszero\n      tag_373\n      jumpi\n      invalid\n    tag_373:\n      mul\n      or\n      swap1\n      sstore\n      pop\n        /* \"contracts/parmigianobase/SupplyChain.sol\":13623:13629  _price */\n      dup3\n        /* \"contracts/parmigianobase/SupplyChain.sol\":13596:13601  items */\n      0x8\n        /* \"contracts/parmigianobase/SupplyChain.sol\":13596:13607  items[_upc] */\n      0x0\n        /* \"contracts/parmigianobase/SupplyChain.sol\":13602:13606  _upc */\n      dup7\n        /* \"contracts/parmigianobase/SupplyChain.sol\":13596:13607  items[_upc] */\n      dup2\n      mstore\n      0x20\n      add\n      swap1\n      dup2\n      mstore\n      0x20\n      add\n      0x0\n      keccak256\n        /* \"contracts/parmigianobase/SupplyChain.sol\":13596:13620  items[_upc].productPrice */\n      0xb\n      add\n        /* \"contracts/parmigianobase/SupplyChain.sol\":13596:13629  items[_upc].productPrice = _price */\n      dup2\n      swap1\n      sstore\n      pop\n        /* \"contracts/parmigianobase/SupplyChain.sol\":13645:13670  ForSaleByDistributor(upc) */\n      0x539b4a835a8a5d1bc5756a9f146e2bfeaa6bd6b1fa77a7631c0a5154c86cdd03\n        /* \"contracts/parmigianobase/SupplyChain.sol\":13666:13669  upc */\n      sload(0x6)\n        /* \"contracts/parmigianobase/SupplyChain.sol\":13645:13670  ForSaleByDistributor(upc) */\n      mload(0x40)\n      dup1\n      dup3\n      dup2\n      mstore\n      0x20\n      add\n      swap2\n      pop\n      pop\n      mload(0x40)\n      dup1\n      swap2\n      sub\n      swap1\n      log1\n        /* \"contracts/parmigianobase/SupplyChain.sol\":5765:5766  _ */\n      pop\n        /* \"contracts/parmigianoaccesscontrol/DistributorRole.sol\":829:830  _ */\n      pop\n        /* \"contracts/parmigianobase/SupplyChain.sol\":13286:13676  function sellItemByDistributor(uint _upc, uint _price) public\r... */\n      pop\n      pop\n      jump\t// out\n        /* \"contracts/parmigianoaccesscontrol/RetailerRole.sol\":1045:1137  function addRetailer(address account) public onlyRetailer {\r... */\n    tag_149:\n        /* \"contracts/parmigianoaccesscontrol/RetailerRole.sol\":776:798  isRetailer(msg.sender) */\n      tag_375\n        /* \"contracts/parmigianoaccesscontrol/RetailerRole.sol\":787:797  msg.sender */\n      caller\n        /* \"contracts/parmigianoaccesscontrol/RetailerRole.sol\":776:786  isRetailer */\n      tag_94\n        /* \"contracts/parmigianoaccesscontrol/RetailerRole.sol\":776:798  isRetailer(msg.sender) */\n      jump\t// in\n    tag_375:\n        /* \"contracts/parmigianoaccesscontrol/RetailerRole.sol\":768:799  require(isRetailer(msg.sender)) */\n      iszero\n      iszero\n      tag_376\n      jumpi\n      0x0\n      dup1\n      revert\n    tag_376:\n        /* \"contracts/parmigianoaccesscontrol/RetailerRole.sol\":1110:1131  _addRetailer(account) */\n      tag_378\n        /* \"contracts/parmigianoaccesscontrol/RetailerRole.sol\":1123:1130  account */\n      dup2\n        /* \"contracts/parmigianoaccesscontrol/RetailerRole.sol\":1110:1122  _addRetailer */\n      tag_379\n        /* \"contracts/parmigianoaccesscontrol/RetailerRole.sol\":1110:1131  _addRetailer(account) */\n      jump\t// in\n    tag_378:\n        /* \"contracts/parmigianoaccesscontrol/RetailerRole.sol\":1045:1137  function addRetailer(address account) public onlyRetailer {\r... */\n      pop\n      jump\t// out\n        /* \"contracts/parmigianoaccesscontrol/DistributorRole.sol\":901:1013  function isDistributor(address account) public view returns (bool) {\r... */\n    tag_153:\n        /* \"contracts/parmigianoaccesscontrol/DistributorRole.sol\":962:966  bool */\n      0x0\n        /* \"contracts/parmigianoaccesscontrol/DistributorRole.sol\":982:1007  distributors.has(account) */\n      tag_381\n        /* \"contracts/parmigianoaccesscontrol/DistributorRole.sol\":999:1006  account */\n      dup3\n        /* \"contracts/parmigianoaccesscontrol/DistributorRole.sol\":982:994  distributors */\n      0x2\n        /* \"contracts/parmigianoaccesscontrol/DistributorRole.sol\":982:998  distributors.has */\n      tag_299\n      swap1\n        /* \"contracts/parmigianoaccesscontrol/DistributorRole.sol\":982:1007  distributors.has(account) */\n      swap2\n      swap1\n      0xffffffff\n      and\n      jump\t// in\n    tag_381:\n        /* \"contracts/parmigianoaccesscontrol/DistributorRole.sol\":975:1007  return distributors.has(account) */\n      swap1\n      pop\n        /* \"contracts/parmigianoaccesscontrol/DistributorRole.sol\":901:1013  function isDistributor(address account) public view returns (bool) {\r... */\n      swap2\n      swap1\n      pop\n      jump\t// out\n        /* \"contracts/parmigianocore/Ownable.sol\":738:833  function isOwner() public view returns (bool) {\r... */\n    tag_156:\n        /* \"contracts/parmigianocore/Ownable.sol\":778:782  bool */\n      0x0\n        /* \"contracts/parmigianocore/Ownable.sol\":816:825  origOwner */\n      dup1\n      0x0\n      swap1\n      sload\n      swap1\n      0x100\n      exp\n      swap1\n      div\n      0xffffffffffffffffffffffffffffffffffffffff\n      and\n        /* \"contracts/parmigianocore/Ownable.sol\":802:825  msg.sender == origOwner */\n      0xffffffffffffffffffffffffffffffffffffffff\n      and\n        /* \"contracts/parmigianocore/Ownable.sol\":802:812  msg.sender */\n      caller\n        /* \"contracts/parmigianocore/Ownable.sol\":802:825  msg.sender == origOwner */\n      0xffffffffffffffffffffffffffffffffffffffff\n      and\n      eq\n        /* \"contracts/parmigianocore/Ownable.sol\":795:825  return msg.sender == origOwner */\n      swap1\n      pop\n        /* \"contracts/parmigianocore/Ownable.sol\":738:833  function isOwner() public view returns (bool) {\r... */\n      swap1\n      jump\t// out\n        /* \"contracts/parmigianobase/SupplyChain.sol\":12875:13204  function packageItemByDistributor(uint _upc) public\r... */\n    tag_160:\n        /* \"contracts/parmigianoaccesscontrol/DistributorRole.sol\":796:821  isDistributor(msg.sender) */\n      tag_384\n        /* \"contracts/parmigianoaccesscontrol/DistributorRole.sol\":810:820  msg.sender */\n      caller\n        /* \"contracts/parmigianoaccesscontrol/DistributorRole.sol\":796:809  isDistributor */\n      tag_153\n        /* \"contracts/parmigianoaccesscontrol/DistributorRole.sol\":796:821  isDistributor(msg.sender) */\n      jump\t// in\n    tag_384:\n        /* \"contracts/parmigianoaccesscontrol/DistributorRole.sol\":788:822  require(isDistributor(msg.sender)) */\n      iszero\n      iszero\n      tag_385\n      jumpi\n      0x0\n      dup1\n      revert\n    tag_385:\n        /* \"contracts/parmigianobase/SupplyChain.sol\":13023:13027  _upc */\n      dup1\n        /* \"contracts/parmigianobase/SupplyChain.sol\":5600:5628  State.ProcessedByDistributor */\n      0x5\n        /* \"contracts/parmigianobase/SupplyChain.sol\":5575:5628  items[_upc].itemState == State.ProcessedByDistributor */\n      0xc\n      dup2\n      gt\n      iszero\n      tag_387\n      jumpi\n      invalid\n    tag_387:\n        /* \"contracts/parmigianobase/SupplyChain.sol\":5575:5580  items */\n      0x8\n        /* \"contracts/parmigianobase/SupplyChain.sol\":5575:5586  items[_upc] */\n      0x0\n        /* \"contracts/parmigianobase/SupplyChain.sol\":5581:5585  _upc */\n      dup4\n        /* \"contracts/parmigianobase/SupplyChain.sol\":5575:5586  items[_upc] */\n      dup2\n      mstore\n      0x20\n      add\n      swap1\n      dup2\n      mstore\n      0x20\n      add\n      0x0\n      keccak256\n        /* \"contracts/parmigianobase/SupplyChain.sol\":5575:5596  items[_upc].itemState */\n      0xd\n      add\n      0x0\n      swap1\n      sload\n      swap1\n      0x100\n      exp\n      swap1\n      div\n      0xff\n      and\n        /* \"contracts/parmigianobase/SupplyChain.sol\":5575:5628  items[_upc].itemState == State.ProcessedByDistributor */\n      0xc\n      dup2\n      gt\n      iszero\n      tag_388\n      jumpi\n      invalid\n    tag_388:\n      eq\n        /* \"contracts/parmigianobase/SupplyChain.sol\":5567:5629  require(items[_upc].itemState == State.ProcessedByDistributor) */\n      iszero\n      iszero\n      tag_389\n      jumpi\n      0x0\n      dup1\n      revert\n    tag_389:\n        /* \"contracts/parmigianobase/SupplyChain.sol\":13047:13052  items */\n      0x8\n        /* \"contracts/parmigianobase/SupplyChain.sol\":13047:13058  items[_upc] */\n      0x0\n        /* \"contracts/parmigianobase/SupplyChain.sol\":13053:13057  _upc */\n      dup4\n        /* \"contracts/parmigianobase/SupplyChain.sol\":13047:13058  items[_upc] */\n      dup2\n      mstore\n      0x20\n      add\n      swap1\n      dup2\n      mstore\n      0x20\n      add\n      0x0\n      keccak256\n        /* \"contracts/parmigianobase/SupplyChain.sol\":13047:13066  items[_upc].ownerID */\n      0x2\n      add\n      0x0\n      swap1\n      sload\n      swap1\n      0x100\n      exp\n      swap1\n      div\n      0xffffffffffffffffffffffffffffffffffffffff\n      and\n        /* \"contracts/parmigianobase/SupplyChain.sol\":4283:4291  _address */\n      dup1\n        /* \"contracts/parmigianobase/SupplyChain.sol\":4269:4291  msg.sender == _address */\n      0xffffffffffffffffffffffffffffffffffffffff\n      and\n        /* \"contracts/parmigianobase/SupplyChain.sol\":4269:4279  msg.sender */\n      caller\n        /* \"contracts/parmigianobase/SupplyChain.sol\":4269:4291  msg.sender == _address */\n      0xffffffffffffffffffffffffffffffffffffffff\n      and\n      eq\n        /* \"contracts/parmigianobase/SupplyChain.sol\":4261:4292  require(msg.sender == _address) */\n      iszero\n      iszero\n      tag_391\n      jumpi\n      0x0\n      dup1\n      revert\n    tag_391:\n        /* \"contracts/parmigianobase/SupplyChain.sol\":13133:13159  State.PackageByDistributor */\n      0x6\n        /* \"contracts/parmigianobase/SupplyChain.sol\":13109:13114  items */\n      0x8\n        /* \"contracts/parmigianobase/SupplyChain.sol\":13109:13120  items[_upc] */\n      0x0\n        /* \"contracts/parmigianobase/SupplyChain.sol\":13115:13119  _upc */\n      dup6\n        /* \"contracts/parmigianobase/SupplyChain.sol\":13109:13120  items[_upc] */\n      dup2\n      mstore\n      0x20\n      add\n      swap1\n      dup2\n      mstore\n      0x20\n      add\n      0x0\n      keccak256\n        /* \"contracts/parmigianobase/SupplyChain.sol\":13109:13130  items[_upc].itemState */\n      0xd\n      add\n      0x0\n        /* \"contracts/parmigianobase/SupplyChain.sol\":13109:13159  items[_upc].itemState = State.PackageByDistributor */\n      0x100\n      exp\n      dup2\n      sload\n      dup2\n      0xff\n      mul\n      not\n      and\n      swap1\n      dup4\n      0xc\n      dup2\n      gt\n      iszero\n      tag_393\n      jumpi\n      invalid\n    tag_393:\n      mul\n      or\n      swap1\n      sstore\n      pop\n        /* \"contracts/parmigianobase/SupplyChain.sol\":13171:13198  PackagedByDistributor(_upc) */\n      0xe66bb55f536a4cc96647dde6ff37b712c07348eaa88366931f491d93c0fcd981\n        /* \"contracts/parmigianobase/SupplyChain.sol\":13193:13197  _upc */\n      dup4\n        /* \"contracts/parmigianobase/SupplyChain.sol\":13171:13198  PackagedByDistributor(_upc) */\n      mload(0x40)\n      dup1\n      dup3\n      dup2\n      mstore\n      0x20\n      add\n      swap2\n      pop\n      pop\n      mload(0x40)\n      dup1\n      swap2\n      sub\n      swap1\n      log1\n        /* \"contracts/parmigianobase/SupplyChain.sol\":5636:5637  _ */\n      pop\n        /* \"contracts/parmigianoaccesscontrol/DistributorRole.sol\":829:830  _ */\n      pop\n        /* \"contracts/parmigianobase/SupplyChain.sol\":12875:13204  function packageItemByDistributor(uint _upc) public\r... */\n      pop\n      jump\t// out\n        /* \"contracts/parmigianoaccesscontrol/CarParts_ManufacturerRole.sol\":1017:1149  function isCarParts_Manufacturer(address account) public view returns (bool) {\r... */\n    tag_164:\n        /* \"contracts/parmigianoaccesscontrol/CarParts_ManufacturerRole.sol\":1088:1092  bool */\n      0x0\n        /* \"contracts/parmigianoaccesscontrol/CarParts_ManufacturerRole.sol\":1108:1143  carParts_Manufacturers.has(account) */\n      tag_395\n        /* \"contracts/parmigianoaccesscontrol/CarParts_ManufacturerRole.sol\":1135:1142  account */\n      dup3\n        /* \"contracts/parmigianoaccesscontrol/CarParts_ManufacturerRole.sol\":1108:1130  carParts_Manufacturers */\n      0x1\n        /* \"contracts/parmigianoaccesscontrol/CarParts_ManufacturerRole.sol\":1108:1134  carParts_Manufacturers.has */\n      tag_299\n      swap1\n        /* \"contracts/parmigianoaccesscontrol/CarParts_ManufacturerRole.sol\":1108:1143  carParts_Manufacturers.has(account) */\n      swap2\n      swap1\n      0xffffffff\n      and\n      jump\t// in\n    tag_395:\n        /* \"contracts/parmigianoaccesscontrol/CarParts_ManufacturerRole.sol\":1101:1143  return carParts_Manufacturers.has(account) */\n      swap1\n      pop\n        /* \"contracts/parmigianoaccesscontrol/CarParts_ManufacturerRole.sol\":1017:1149  function isCarParts_Manufacturer(address account) public view returns (bool) {\r... */\n      swap2\n      swap1\n      pop\n      jump\t// out\n        /* \"contracts/parmigianoaccesscontrol/RetailerRole.sol\":1208:1283  function renounceRetailer() public {\r... */\n    tag_167:\n        /* \"contracts/parmigianoaccesscontrol/RetailerRole.sol\":1250:1277  _removeRetailer(msg.sender) */\n      tag_397\n        /* \"contracts/parmigianoaccesscontrol/RetailerRole.sol\":1266:1276  msg.sender */\n      caller\n        /* \"contracts/parmigianoaccesscontrol/RetailerRole.sol\":1250:1265  _removeRetailer */\n      tag_398\n        /* \"contracts/parmigianoaccesscontrol/RetailerRole.sol\":1250:1277  _removeRetailer(msg.sender) */\n      jump\t// in\n    tag_397:\n        /* \"contracts/parmigianoaccesscontrol/RetailerRole.sol\":1208:1283  function renounceRetailer() public {\r... */\n      jump\t// out\n        /* \"contracts/parmigianobase/SupplyChain.sol\":15610:16266  function purchaseItemByConsumer(uint _upc) public payable\r... */\n    tag_170:\n        /* \"contracts/parmigianoaccesscontrol/ConsumerRole.sol\":807:829  isConsumer(msg.sender) */\n      tag_400\n        /* \"contracts/parmigianoaccesscontrol/ConsumerRole.sol\":818:828  msg.sender */\n      caller\n        /* \"contracts/parmigianoaccesscontrol/ConsumerRole.sol\":807:817  isConsumer */\n      tag_141\n        /* \"contracts/parmigianoaccesscontrol/ConsumerRole.sol\":807:829  isConsumer(msg.sender) */\n      jump\t// in\n    tag_400:\n        /* \"contracts/parmigianoaccesscontrol/ConsumerRole.sol\":799:830  require(isConsumer(msg.sender)) */\n      iszero\n      iszero\n      tag_401\n      jumpi\n      0x0\n      dup1\n      revert\n    tag_401:\n        /* \"contracts/parmigianobase/SupplyChain.sol\":15756:15760  _upc */\n      dup1\n        /* \"contracts/parmigianobase/SupplyChain.sol\":6364:6387  State.ForSaleByRetailer */\n      0xb\n        /* \"contracts/parmigianobase/SupplyChain.sol\":6339:6387  items[_upc].itemState == State.ForSaleByRetailer */\n      0xc\n      dup2\n      gt\n      iszero\n      tag_403\n      jumpi\n      invalid\n    tag_403:\n        /* \"contracts/parmigianobase/SupplyChain.sol\":6339:6344  items */\n      0x8\n        /* \"contracts/parmigianobase/SupplyChain.sol\":6339:6350  items[_upc] */\n      0x0\n        /* \"contracts/parmigianobase/SupplyChain.sol\":6345:6349  _upc */\n      dup4\n        /* \"contracts/parmigianobase/SupplyChain.sol\":6339:6350  items[_upc] */\n      dup2\n      mstore\n      0x20\n      add\n      swap1\n      dup2\n      mstore\n      0x20\n      add\n      0x0\n      keccak256\n        /* \"contracts/parmigianobase/SupplyChain.sol\":6339:6360  items[_upc].itemState */\n      0xd\n      add\n      0x0\n      swap1\n      sload\n      swap1\n      0x100\n      exp\n      swap1\n      div\n      0xff\n      and\n        /* \"contracts/parmigianobase/SupplyChain.sol\":6339:6387  items[_upc].itemState == State.ForSaleByRetailer */\n      0xc\n      dup2\n      gt\n      iszero\n      tag_404\n      jumpi\n      invalid\n    tag_404:\n      eq\n        /* \"contracts/parmigianobase/SupplyChain.sol\":6331:6388  require(items[_upc].itemState == State.ForSaleByRetailer) */\n      iszero\n      iszero\n      tag_405\n      jumpi\n      0x0\n      dup1\n      revert\n    tag_405:\n        /* \"contracts/parmigianobase/SupplyChain.sol\":15778:15783  items */\n      0x8\n        /* \"contracts/parmigianobase/SupplyChain.sol\":15778:15789  items[_upc] */\n      0x0\n        /* \"contracts/parmigianobase/SupplyChain.sol\":15784:15788  _upc */\n      dup4\n        /* \"contracts/parmigianobase/SupplyChain.sol\":15778:15789  items[_upc] */\n      dup2\n      mstore\n      0x20\n      add\n      swap1\n      dup2\n      mstore\n      0x20\n      add\n      0x0\n      keccak256\n        /* \"contracts/parmigianobase/SupplyChain.sol\":15778:15802  items[_upc].productPrice */\n      0xb\n      add\n      sload\n        /* \"contracts/parmigianobase/SupplyChain.sol\":4461:4467  _price */\n      dup1\n        /* \"contracts/parmigianobase/SupplyChain.sol\":4448:4457  msg.value */\n      callvalue\n        /* \"contracts/parmigianobase/SupplyChain.sol\":4448:4467  msg.value >= _price */\n      lt\n      iszero\n        /* \"contracts/parmigianobase/SupplyChain.sol\":4440:4468  require(msg.value >= _price) */\n      iszero\n      iszero\n      tag_407\n      jumpi\n      0x0\n      dup1\n      revert\n    tag_407:\n        /* \"contracts/parmigianobase/SupplyChain.sol\":15820:15824  _upc */\n      dup3\n        /* \"contracts/parmigianobase/SupplyChain.sol\":15826:15836  msg.sender */\n      caller\n        /* \"contracts/parmigianobase/SupplyChain.sol\":4637:4648  uint _price */\n      0x0\n        /* \"contracts/parmigianobase/SupplyChain.sol\":4651:4656  items */\n      0x8\n        /* \"contracts/parmigianobase/SupplyChain.sol\":4651:4662  items[_upc] */\n      0x0\n        /* \"contracts/parmigianobase/SupplyChain.sol\":4657:4661  _upc */\n      dup5\n        /* \"contracts/parmigianobase/SupplyChain.sol\":4651:4662  items[_upc] */\n      dup2\n      mstore\n      0x20\n      add\n      swap1\n      dup2\n      mstore\n      0x20\n      add\n      0x0\n      keccak256\n        /* \"contracts/parmigianobase/SupplyChain.sol\":4651:4675  items[_upc].productPrice */\n      0xb\n      add\n      sload\n        /* \"contracts/parmigianobase/SupplyChain.sol\":4637:4675  uint _price = items[_upc].productPrice */\n      swap1\n      pop\n        /* \"contracts/parmigianobase/SupplyChain.sol\":4682:4702  uint  amountToReturn */\n      0x0\n        /* \"contracts/parmigianobase/SupplyChain.sol\":4717:4723  _price */\n      dup2\n        /* \"contracts/parmigianobase/SupplyChain.sol\":4705:4714  msg.value */\n      callvalue\n        /* \"contracts/parmigianobase/SupplyChain.sol\":4705:4723  msg.value - _price */\n      sub\n        /* \"contracts/parmigianobase/SupplyChain.sol\":4682:4723  uint  amountToReturn = msg.value - _price */\n      swap1\n      pop\n        /* \"contracts/parmigianobase/SupplyChain.sol\":4730:4743  addressToFund */\n      dup3\n        /* \"contracts/parmigianobase/SupplyChain.sol\":4730:4752  addressToFund.transfer */\n      0xffffffffffffffffffffffffffffffffffffffff\n      and\n        /* \"contracts/parmigianobase/SupplyChain.sol\":4730:4768  addressToFund.transfer(amountToReturn) */\n      0x8fc\n        /* \"contracts/parmigianobase/SupplyChain.sol\":4753:4767  amountToReturn */\n      dup3\n        /* \"contracts/parmigianobase/SupplyChain.sol\":4730:4768  addressToFund.transfer(amountToReturn) */\n      swap1\n      dup2\n      iszero\n      mul\n      swap1\n      mload(0x40)\n      0x0\n      mload(0x40)\n      dup1\n      dup4\n      sub\n      dup2\n      dup6\n      dup9\n      dup9\n      call\n      swap4\n      pop\n      pop\n      pop\n      pop\n      iszero\n        /* \"--CODEGEN--\":8:17   */\n      dup1\n        /* \"--CODEGEN--\":5:7   */\n      iszero\n      tag_409\n      jumpi\n        /* \"--CODEGEN--\":45:61   */\n      returndatasize\n        /* \"--CODEGEN--\":42:43   */\n      0x0\n        /* \"--CODEGEN--\":39:40   */\n      dup1\n        /* \"--CODEGEN--\":24:62   */\n      returndatacopy\n        /* \"--CODEGEN--\":77:93   */\n      returndatasize\n        /* \"--CODEGEN--\":74:75   */\n      0x0\n        /* \"--CODEGEN--\":67:94   */\n      revert\n        /* \"--CODEGEN--\":5:7   */\n    tag_409:\n        /* \"contracts/parmigianobase/SupplyChain.sol\":4730:4768  addressToFund.transfer(amountToReturn) */\n      pop\n        /* \"contracts/parmigianobase/SupplyChain.sol\":15877:15887  msg.sender */\n      caller\n        /* \"contracts/parmigianobase/SupplyChain.sol\":15852:15857  items */\n      0x8\n        /* \"contracts/parmigianobase/SupplyChain.sol\":15852:15863  items[_upc] */\n      0x0\n        /* \"contracts/parmigianobase/SupplyChain.sol\":15858:15862  _upc */\n      dup10\n        /* \"contracts/parmigianobase/SupplyChain.sol\":15852:15863  items[_upc] */\n      dup2\n      mstore\n      0x20\n      add\n      swap1\n      dup2\n      mstore\n      0x20\n      add\n      0x0\n      keccak256\n        /* \"contracts/parmigianobase/SupplyChain.sol\":15852:15874  items[_upc].consumerID */\n      0xf\n      add\n      0x0\n        /* \"contracts/parmigianobase/SupplyChain.sol\":15852:15887  items[_upc].consumerID = msg.sender */\n      0x100\n      exp\n      dup2\n      sload\n      dup2\n      0xffffffffffffffffffffffffffffffffffffffff\n      mul\n      not\n      and\n      swap1\n      dup4\n      0xffffffffffffffffffffffffffffffffffffffff\n      and\n      mul\n      or\n      swap1\n      sstore\n      pop\n        /* \"contracts/parmigianobase/SupplyChain.sol\":15896:15931  address payable ownerAddressPayable */\n      0x0\n        /* \"contracts/parmigianobase/SupplyChain.sol\":15934:15971  _make_payable(items[_upc].retailerID) */\n      tag_411\n        /* \"contracts/parmigianobase/SupplyChain.sol\":15948:15953  items */\n      0x8\n        /* \"contracts/parmigianobase/SupplyChain.sol\":15948:15959  items[_upc] */\n      0x0\n        /* \"contracts/parmigianobase/SupplyChain.sol\":15954:15958  _upc */\n      dup11\n        /* \"contracts/parmigianobase/SupplyChain.sol\":15948:15959  items[_upc] */\n      dup2\n      mstore\n      0x20\n      add\n      swap1\n      dup2\n      mstore\n      0x20\n      add\n      0x0\n      keccak256\n        /* \"contracts/parmigianobase/SupplyChain.sol\":15948:15970  items[_upc].retailerID */\n      0xe\n      add\n      0x0\n      swap1\n      sload\n      swap1\n      0x100\n      exp\n      swap1\n      div\n      0xffffffffffffffffffffffffffffffffffffffff\n      and\n        /* \"contracts/parmigianobase/SupplyChain.sol\":15934:15947  _make_payable */\n      tag_247\n        /* \"contracts/parmigianobase/SupplyChain.sol\":15934:15971  _make_payable(items[_upc].retailerID) */\n      jump\t// in\n    tag_411:\n        /* \"contracts/parmigianobase/SupplyChain.sol\":15896:15971  address payable ownerAddressPayable = _make_payable(items[_upc].retailerID) */\n      swap1\n      pop\n        /* \"contracts/parmigianobase/SupplyChain.sol\":15980:15999  ownerAddressPayable */\n      dup1\n        /* \"contracts/parmigianobase/SupplyChain.sol\":15980:16008  ownerAddressPayable.transfer */\n      0xffffffffffffffffffffffffffffffffffffffff\n      and\n        /* \"contracts/parmigianobase/SupplyChain.sol\":15980:16034  ownerAddressPayable.transfer(items[_upc].productPrice) */\n      0x8fc\n        /* \"contracts/parmigianobase/SupplyChain.sol\":16009:16014  items */\n      0x8\n        /* \"contracts/parmigianobase/SupplyChain.sol\":16009:16020  items[_upc] */\n      0x0\n        /* \"contracts/parmigianobase/SupplyChain.sol\":16015:16019  _upc */\n      dup12\n        /* \"contracts/parmigianobase/SupplyChain.sol\":16009:16020  items[_upc] */\n      dup2\n      mstore\n      0x20\n      add\n      swap1\n      dup2\n      mstore\n      0x20\n      add\n      0x0\n      keccak256\n        /* \"contracts/parmigianobase/SupplyChain.sol\":16009:16033  items[_upc].productPrice */\n      0xb\n      add\n      sload\n        /* \"contracts/parmigianobase/SupplyChain.sol\":15980:16034  ownerAddressPayable.transfer(items[_upc].productPrice) */\n      swap1\n      dup2\n      iszero\n      mul\n      swap1\n      mload(0x40)\n      0x0\n      mload(0x40)\n      dup1\n      dup4\n      sub\n      dup2\n      dup6\n      dup9\n      dup9\n      call\n      swap4\n      pop\n      pop\n      pop\n      pop\n      iszero\n        /* \"--CODEGEN--\":8:17   */\n      dup1\n        /* \"--CODEGEN--\":5:7   */\n      iszero\n      tag_412\n      jumpi\n        /* \"--CODEGEN--\":45:61   */\n      returndatasize\n        /* \"--CODEGEN--\":42:43   */\n      0x0\n        /* \"--CODEGEN--\":39:40   */\n      dup1\n        /* \"--CODEGEN--\":24:62   */\n      returndatacopy\n        /* \"--CODEGEN--\":77:93   */\n      returndatasize\n        /* \"--CODEGEN--\":74:75   */\n      0x0\n        /* \"--CODEGEN--\":67:94   */\n      revert\n        /* \"--CODEGEN--\":5:7   */\n    tag_412:\n        /* \"contracts/parmigianobase/SupplyChain.sol\":15980:16034  ownerAddressPayable.transfer(items[_upc].productPrice) */\n      pop\n        /* \"contracts/parmigianobase/SupplyChain.sol\":16065:16075  msg.sender */\n      caller\n        /* \"contracts/parmigianobase/SupplyChain.sol\":16043:16048  items */\n      0x8\n        /* \"contracts/parmigianobase/SupplyChain.sol\":16043:16054  items[_upc] */\n      0x0\n        /* \"contracts/parmigianobase/SupplyChain.sol\":16049:16053  _upc */\n      dup11\n        /* \"contracts/parmigianobase/SupplyChain.sol\":16043:16054  items[_upc] */\n      dup2\n      mstore\n      0x20\n      add\n      swap1\n      dup2\n      mstore\n      0x20\n      add\n      0x0\n      keccak256\n        /* \"contracts/parmigianobase/SupplyChain.sol\":16043:16062  items[_upc].ownerID */\n      0x2\n      add\n      0x0\n        /* \"contracts/parmigianobase/SupplyChain.sol\":16043:16075  items[_upc].ownerID = msg.sender */\n      0x100\n      exp\n      dup2\n      sload\n      dup2\n      0xffffffffffffffffffffffffffffffffffffffff\n      mul\n      not\n      and\n      swap1\n      dup4\n      0xffffffffffffffffffffffffffffffffffffffff\n      and\n      mul\n      or\n      swap1\n      sstore\n      pop\n        /* \"contracts/parmigianobase/SupplyChain.sol\":16109:16119  msg.sender */\n      caller\n        /* \"contracts/parmigianobase/SupplyChain.sol\":16084:16089  items */\n      0x8\n        /* \"contracts/parmigianobase/SupplyChain.sol\":16084:16095  items[_upc] */\n      0x0\n        /* \"contracts/parmigianobase/SupplyChain.sol\":16090:16094  _upc */\n      dup11\n        /* \"contracts/parmigianobase/SupplyChain.sol\":16084:16095  items[_upc] */\n      dup2\n      mstore\n      0x20\n      add\n      swap1\n      dup2\n      mstore\n      0x20\n      add\n      0x0\n      keccak256\n        /* \"contracts/parmigianobase/SupplyChain.sol\":16084:16106  items[_upc].consumerID */\n      0xf\n      add\n      0x0\n        /* \"contracts/parmigianobase/SupplyChain.sol\":16084:16119  items[_upc].consumerID = msg.sender */\n      0x100\n      exp\n      dup2\n      sload\n      dup2\n      0xffffffffffffffffffffffffffffffffffffffff\n      mul\n      not\n      and\n      swap1\n      dup4\n      0xffffffffffffffffffffffffffffffffffffffff\n      and\n      mul\n      or\n      swap1\n      sstore\n      pop\n        /* \"contracts/parmigianobase/SupplyChain.sol\":16152:16177  State.PurchasedByConsumer */\n      0xc\n        /* \"contracts/parmigianobase/SupplyChain.sol\":16128:16133  items */\n      0x8\n        /* \"contracts/parmigianobase/SupplyChain.sol\":16128:16139  items[_upc] */\n      0x0\n        /* \"contracts/parmigianobase/SupplyChain.sol\":16134:16138  _upc */\n      dup11\n        /* \"contracts/parmigianobase/SupplyChain.sol\":16128:16139  items[_upc] */\n      dup2\n      mstore\n      0x20\n      add\n      swap1\n      dup2\n      mstore\n      0x20\n      add\n      0x0\n      keccak256\n        /* \"contracts/parmigianobase/SupplyChain.sol\":16128:16149  items[_upc].itemState */\n      0xd\n      add\n      0x0\n        /* \"contracts/parmigianobase/SupplyChain.sol\":16128:16177  items[_upc].itemState = State.PurchasedByConsumer */\n      0x100\n      exp\n      dup2\n      sload\n      dup2\n      0xff\n      mul\n      not\n      and\n      swap1\n      dup4\n      0xc\n      dup2\n      gt\n      iszero\n      tag_413\n      jumpi\n      invalid\n    tag_413:\n      mul\n      or\n      swap1\n      sstore\n      pop\n        /* \"contracts/parmigianobase/SupplyChain.sol\":16211:16223  block.number */\n      number\n        /* \"contracts/parmigianobase/SupplyChain.sol\":16186:16198  itemsHistory */\n      0x9\n        /* \"contracts/parmigianobase/SupplyChain.sol\":16186:16204  itemsHistory[_upc] */\n      0x0\n        /* \"contracts/parmigianobase/SupplyChain.sol\":16199:16203  _upc */\n      dup11\n        /* \"contracts/parmigianobase/SupplyChain.sol\":16186:16204  itemsHistory[_upc] */\n      dup2\n      mstore\n      0x20\n      add\n      swap1\n      dup2\n      mstore\n      0x20\n      add\n      0x0\n      keccak256\n        /* \"contracts/parmigianobase/SupplyChain.sol\":16186:16208  itemsHistory[_upc].RTC */\n      0x2\n      add\n        /* \"contracts/parmigianobase/SupplyChain.sol\":16186:16223  itemsHistory[_upc].RTC = block.number */\n      dup2\n      swap1\n      sstore\n      pop\n        /* \"contracts/parmigianobase/SupplyChain.sol\":16235:16260  PurchasedByConsumer(_upc) */\n      0xc7e94446a942a0541d0224ece380a730c85f03db7188fca783225da9255929f7\n        /* \"contracts/parmigianobase/SupplyChain.sol\":16255:16259  _upc */\n      dup9\n        /* \"contracts/parmigianobase/SupplyChain.sol\":16235:16260  PurchasedByConsumer(_upc) */\n      mload(0x40)\n      dup1\n      dup3\n      dup2\n      mstore\n      0x20\n      add\n      swap2\n      pop\n      pop\n      mload(0x40)\n      dup1\n      swap2\n      sub\n      swap1\n      log1\n        /* \"contracts/parmigianobase/SupplyChain.sol\":4775:4776  _ */\n      pop\n        /* \"contracts/parmigianobase/SupplyChain.sol\":4475:4476  _ */\n      pop\n      pop\n      pop\n      pop\n        /* \"contracts/parmigianobase/SupplyChain.sol\":6395:6396  _ */\n      pop\n        /* \"contracts/parmigianoaccesscontrol/ConsumerRole.sol\":837:838  _ */\n      pop\n        /* \"contracts/parmigianobase/SupplyChain.sol\":15610:16266  function purchaseItemByConsumer(uint _upc) public payable\r... */\n      pop\n      jump\t// out\n        /* \"contracts/parmigianocore/Ownable.sol\":449:537  function ownerLookup() public view returns (address) {\r... */\n    tag_173:\n        /* \"contracts/parmigianocore/Ownable.sol\":493:500  address */\n      0x0\n        /* \"contracts/parmigianocore/Ownable.sol\":520:529  origOwner */\n      dup1\n      0x0\n      swap1\n      sload\n      swap1\n      0x100\n      exp\n      swap1\n      div\n      0xffffffffffffffffffffffffffffffffffffffff\n      and\n        /* \"contracts/parmigianocore/Ownable.sol\":513:529  return origOwner */\n      swap1\n      pop\n        /* \"contracts/parmigianocore/Ownable.sol\":449:537  function ownerLookup() public view returns (address) {\r... */\n      swap1\n      jump\t// out\n        /* \"contracts/parmigianobase/SupplyChain.sol\":12366:12790  function processedItemByDistributor(uint _upc,uint slices) public\r... */\n    tag_177:\n        /* \"contracts/parmigianoaccesscontrol/DistributorRole.sol\":796:821  isDistributor(msg.sender) */\n      tag_416\n        /* \"contracts/parmigianoaccesscontrol/DistributorRole.sol\":810:820  msg.sender */\n      caller\n        /* \"contracts/parmigianoaccesscontrol/DistributorRole.sol\":796:809  isDistributor */\n      tag_153\n        /* \"contracts/parmigianoaccesscontrol/DistributorRole.sol\":796:821  isDistributor(msg.sender) */\n      jump\t// in\n    tag_416:\n        /* \"contracts/parmigianoaccesscontrol/DistributorRole.sol\":788:822  require(isDistributor(msg.sender)) */\n      iszero\n      iszero\n      tag_417\n      jumpi\n      0x0\n      dup1\n      revert\n    tag_417:\n        /* \"contracts/parmigianobase/SupplyChain.sol\":12529:12533  _upc */\n      dup2\n        /* \"contracts/parmigianobase/SupplyChain.sol\":5471:5498  State.ReceivedByDistributor */\n      0x4\n        /* \"contracts/parmigianobase/SupplyChain.sol\":5446:5498  items[_upc].itemState == State.ReceivedByDistributor */\n      0xc\n      dup2\n      gt\n      iszero\n      tag_419\n      jumpi\n      invalid\n    tag_419:\n        /* \"contracts/parmigianobase/SupplyChain.sol\":5446:5451  items */\n      0x8\n        /* \"contracts/parmigianobase/SupplyChain.sol\":5446:5457  items[_upc] */\n      0x0\n        /* \"contracts/parmigianobase/SupplyChain.sol\":5452:5456  _upc */\n      dup4\n        /* \"contracts/parmigianobase/SupplyChain.sol\":5446:5457  items[_upc] */\n      dup2\n      mstore\n      0x20\n      add\n      swap1\n      dup2\n      mstore\n      0x20\n      add\n      0x0\n      keccak256\n        /* \"contracts/parmigianobase/SupplyChain.sol\":5446:5467  items[_upc].itemState */\n      0xd\n      add\n      0x0\n      swap1\n      sload\n      swap1\n      0x100\n      exp\n      swap1\n      div\n      0xff\n      and\n        /* \"contracts/parmigianobase/SupplyChain.sol\":5446:5498  items[_upc].itemState == State.ReceivedByDistributor */\n      0xc\n      dup2\n      gt\n      iszero\n      tag_420\n      jumpi\n      invalid\n    tag_420:\n      eq\n        /* \"contracts/parmigianobase/SupplyChain.sol\":5438:5499  require(items[_upc].itemState == State.ReceivedByDistributor) */\n      iszero\n      iszero\n      tag_421\n      jumpi\n      0x0\n      dup1\n      revert\n    tag_421:\n        /* \"contracts/parmigianobase/SupplyChain.sol\":12553:12558  items */\n      0x8\n        /* \"contracts/parmigianobase/SupplyChain.sol\":12553:12564  items[_upc] */\n      0x0\n        /* \"contracts/parmigianobase/SupplyChain.sol\":12559:12563  _upc */\n      dup5\n        /* \"contracts/parmigianobase/SupplyChain.sol\":12553:12564  items[_upc] */\n      dup2\n      mstore\n      0x20\n      add\n      swap1\n      dup2\n      mstore\n      0x20\n      add\n      0x0\n      keccak256\n        /* \"contracts/parmigianobase/SupplyChain.sol\":12553:12572  items[_upc].ownerID */\n      0x2\n      add\n      0x0\n      swap1\n      sload\n      swap1\n      0x100\n      exp\n      swap1\n      div\n      0xffffffffffffffffffffffffffffffffffffffff\n      and\n        /* \"contracts/parmigianobase/SupplyChain.sol\":4283:4291  _address */\n      dup1\n        /* \"contracts/parmigianobase/SupplyChain.sol\":4269:4291  msg.sender == _address */\n      0xffffffffffffffffffffffffffffffffffffffff\n      and\n        /* \"contracts/parmigianobase/SupplyChain.sol\":4269:4279  msg.sender */\n      caller\n        /* \"contracts/parmigianobase/SupplyChain.sol\":4269:4291  msg.sender == _address */\n      0xffffffffffffffffffffffffffffffffffffffff\n      and\n      eq\n        /* \"contracts/parmigianobase/SupplyChain.sol\":4261:4292  require(msg.sender == _address) */\n      iszero\n      iszero\n      tag_423\n      jumpi\n      0x0\n      dup1\n      revert\n    tag_423:\n        /* \"contracts/parmigianobase/SupplyChain.sol\":12639:12667  State.ProcessedByDistributor */\n      0x5\n        /* \"contracts/parmigianobase/SupplyChain.sol\":12615:12620  items */\n      0x8\n        /* \"contracts/parmigianobase/SupplyChain.sol\":12615:12626  items[_upc] */\n      0x0\n        /* \"contracts/parmigianobase/SupplyChain.sol\":12621:12625  _upc */\n      dup7\n        /* \"contracts/parmigianobase/SupplyChain.sol\":12615:12626  items[_upc] */\n      dup2\n      mstore\n      0x20\n      add\n      swap1\n      dup2\n      mstore\n      0x20\n      add\n      0x0\n      keccak256\n        /* \"contracts/parmigianobase/SupplyChain.sol\":12615:12636  items[_upc].itemState */\n      0xd\n      add\n      0x0\n        /* \"contracts/parmigianobase/SupplyChain.sol\":12615:12667  items[_upc].itemState = State.ProcessedByDistributor */\n      0x100\n      exp\n      dup2\n      sload\n      dup2\n      0xff\n      mul\n      not\n      and\n      swap1\n      dup4\n      0xc\n      dup2\n      gt\n      iszero\n      tag_425\n      jumpi\n      invalid\n    tag_425:\n      mul\n      or\n      swap1\n      sstore\n      pop\n        /* \"contracts/parmigianobase/SupplyChain.sol\":12718:12724  slices */\n      dup3\n        /* \"contracts/parmigianobase/SupplyChain.sol\":12690:12695  items */\n      0x8\n        /* \"contracts/parmigianobase/SupplyChain.sol\":12690:12701  items[_upc] */\n      0x0\n        /* \"contracts/parmigianobase/SupplyChain.sol\":12696:12700  _upc */\n      dup7\n        /* \"contracts/parmigianobase/SupplyChain.sol\":12690:12701  items[_upc] */\n      dup2\n      mstore\n      0x20\n      add\n      swap1\n      dup2\n      mstore\n      0x20\n      add\n      0x0\n      keccak256\n        /* \"contracts/parmigianobase/SupplyChain.sol\":12690:12715  items[_upc].productSliced */\n      0xc\n      add\n        /* \"contracts/parmigianobase/SupplyChain.sol\":12690:12724  items[_upc].productSliced = slices */\n      dup2\n      swap1\n      sstore\n      pop\n        /* \"contracts/parmigianobase/SupplyChain.sol\":12756:12784  ProcessedByDistributor(_upc) */\n      0x5725e53fd0efed5294b7db2af148f040264a63630b4deb0afbccf6e60830988a\n        /* \"contracts/parmigianobase/SupplyChain.sol\":12779:12783  _upc */\n      dup5\n        /* \"contracts/parmigianobase/SupplyChain.sol\":12756:12784  ProcessedByDistributor(_upc) */\n      mload(0x40)\n      dup1\n      dup3\n      dup2\n      mstore\n      0x20\n      add\n      swap2\n      pop\n      pop\n      mload(0x40)\n      dup1\n      swap2\n      sub\n      swap1\n      log1\n        /* \"contracts/parmigianobase/SupplyChain.sol\":5506:5507  _ */\n      pop\n        /* \"contracts/parmigianoaccesscontrol/DistributorRole.sol\":829:830  _ */\n      pop\n        /* \"contracts/parmigianobase/SupplyChain.sol\":12366:12790  function processedItemByDistributor(uint _upc,uint slices) public\r... */\n      pop\n      pop\n      jump\t// out\n        /* \"contracts/parmigianocore/Ownable.sol\":1096:1205  function transferOwnership(address newOwner) public onlyOwner {\r... */\n    tag_181:\n        /* \"contracts/parmigianobase/SupplyChain.sol\":4139:4144  owner */\n      0x5\n      0x0\n      swap1\n      sload\n      swap1\n      0x100\n      exp\n      swap1\n      div\n      0xffffffffffffffffffffffffffffffffffffffff\n      and\n        /* \"contracts/parmigianobase/SupplyChain.sol\":4125:4144  msg.sender == owner */\n      0xffffffffffffffffffffffffffffffffffffffff\n      and\n        /* \"contracts/parmigianobase/SupplyChain.sol\":4125:4135  msg.sender */\n      caller\n        /* \"contracts/parmigianobase/SupplyChain.sol\":4125:4144  msg.sender == owner */\n      0xffffffffffffffffffffffffffffffffffffffff\n      and\n      eq\n        /* \"contracts/parmigianobase/SupplyChain.sol\":4117:4145  require(msg.sender == owner) */\n      iszero\n      iszero\n      tag_427\n      jumpi\n      0x0\n      dup1\n      revert\n    tag_427:\n        /* \"contracts/parmigianocore/Ownable.sol\":1169:1197  _transferOwnership(newOwner) */\n      tag_429\n        /* \"contracts/parmigianocore/Ownable.sol\":1188:1196  newOwner */\n      dup2\n        /* \"contracts/parmigianocore/Ownable.sol\":1169:1187  _transferOwnership */\n      tag_430\n        /* \"contracts/parmigianocore/Ownable.sol\":1169:1197  _transferOwnership(newOwner) */\n      jump\t// in\n    tag_429:\n        /* \"contracts/parmigianocore/Ownable.sol\":1096:1205  function transferOwnership(address newOwner) public onlyOwner {\r... */\n      pop\n      jump\t// out\n        /* \"contracts/parmigianoaccesscontrol/ConsumerRole.sol\":1239:1326  function renounceConsumer(address account) public {\r... */\n    tag_185:\n        /* \"contracts/parmigianoaccesscontrol/ConsumerRole.sol\":1296:1320  _removeConsumer(account) */\n      tag_432\n        /* \"contracts/parmigianoaccesscontrol/ConsumerRole.sol\":1312:1319  account */\n      dup2\n        /* \"contracts/parmigianoaccesscontrol/ConsumerRole.sol\":1296:1311  _removeConsumer */\n      tag_433\n        /* \"contracts/parmigianoaccesscontrol/ConsumerRole.sol\":1296:1320  _removeConsumer(account) */\n      jump\t// in\n    tag_432:\n        /* \"contracts/parmigianoaccesscontrol/ConsumerRole.sol\":1239:1326  function renounceConsumer(address account) public {\r... */\n      pop\n      jump\t// out\n        /* \"contracts/parmigianobase/SupplyChain.sol\":10301:11289  function purchaseItemByDistributor(uint _upc) public payable\r... */\n    tag_188:\n        /* \"contracts/parmigianoaccesscontrol/DistributorRole.sol\":796:821  isDistributor(msg.sender) */\n      tag_435\n        /* \"contracts/parmigianoaccesscontrol/DistributorRole.sol\":810:820  msg.sender */\n      caller\n        /* \"contracts/parmigianoaccesscontrol/DistributorRole.sol\":796:809  isDistributor */\n      tag_153\n        /* \"contracts/parmigianoaccesscontrol/DistributorRole.sol\":796:821  isDistributor(msg.sender) */\n      jump\t// in\n    tag_435:\n        /* \"contracts/parmigianoaccesscontrol/DistributorRole.sol\":788:822  require(isDistributor(msg.sender)) */\n      iszero\n      iszero\n      tag_436\n      jumpi\n      0x0\n      dup1\n      revert\n    tag_436:\n        /* \"contracts/parmigianobase/SupplyChain.sol\":10468:10472  _upc */\n      dup1\n        /* \"contracts/parmigianobase/SupplyChain.sol\":5052:5088  State.ForSaleByCarParts_Manufacturer */\n      0x1\n        /* \"contracts/parmigianobase/SupplyChain.sol\":5027:5088  items[_upc].itemState == State.ForSaleByCarParts_Manufacturer */\n      0xc\n      dup2\n      gt\n      iszero\n      tag_438\n      jumpi\n      invalid\n    tag_438:\n        /* \"contracts/parmigianobase/SupplyChain.sol\":5027:5032  items */\n      0x8\n        /* \"contracts/parmigianobase/SupplyChain.sol\":5027:5038  items[_upc] */\n      0x0\n        /* \"contracts/parmigianobase/SupplyChain.sol\":5033:5037  _upc */\n      dup4\n        /* \"contracts/parmigianobase/SupplyChain.sol\":5027:5038  items[_upc] */\n      dup2\n      mstore\n      0x20\n      add\n      swap1\n      dup2\n      mstore\n      0x20\n      add\n      0x0\n      keccak256\n        /* \"contracts/parmigianobase/SupplyChain.sol\":5027:5048  items[_upc].itemState */\n      0xd\n      add\n      0x0\n      swap1\n      sload\n      swap1\n      0x100\n      exp\n      swap1\n      div\n      0xff\n      and\n        /* \"contracts/parmigianobase/SupplyChain.sol\":5027:5088  items[_upc].itemState == State.ForSaleByCarParts_Manufacturer */\n      0xc\n      dup2\n      gt\n      iszero\n      tag_439\n      jumpi\n      invalid\n    tag_439:\n      eq\n        /* \"contracts/parmigianobase/SupplyChain.sol\":5019:5089  require(items[_upc].itemState == State.ForSaleByCarParts_Manufacturer) */\n      iszero\n      iszero\n      tag_440\n      jumpi\n      0x0\n      dup1\n      revert\n    tag_440:\n        /* \"contracts/parmigianobase/SupplyChain.sol\":10549:10554  items */\n      0x8\n        /* \"contracts/parmigianobase/SupplyChain.sol\":10549:10560  items[_upc] */\n      0x0\n        /* \"contracts/parmigianobase/SupplyChain.sol\":10555:10559  _upc */\n      dup4\n        /* \"contracts/parmigianobase/SupplyChain.sol\":10549:10560  items[_upc] */\n      dup2\n      mstore\n      0x20\n      add\n      swap1\n      dup2\n      mstore\n      0x20\n      add\n      0x0\n      keccak256\n        /* \"contracts/parmigianobase/SupplyChain.sol\":10549:10573  items[_upc].productPrice */\n      0xb\n      add\n      sload\n        /* \"contracts/parmigianobase/SupplyChain.sol\":4461:4467  _price */\n      dup1\n        /* \"contracts/parmigianobase/SupplyChain.sol\":4448:4457  msg.value */\n      callvalue\n        /* \"contracts/parmigianobase/SupplyChain.sol\":4448:4467  msg.value >= _price */\n      lt\n      iszero\n        /* \"contracts/parmigianobase/SupplyChain.sol\":4440:4468  require(msg.value >= _price) */\n      iszero\n      iszero\n      tag_442\n      jumpi\n      0x0\n      dup1\n      revert\n    tag_442:\n        /* \"contracts/parmigianobase/SupplyChain.sol\":10644:10648  _upc */\n      dup3\n        /* \"contracts/parmigianobase/SupplyChain.sol\":10650:10660  msg.sender */\n      caller\n        /* \"contracts/parmigianobase/SupplyChain.sol\":4637:4648  uint _price */\n      0x0\n        /* \"contracts/parmigianobase/SupplyChain.sol\":4651:4656  items */\n      0x8\n        /* \"contracts/parmigianobase/SupplyChain.sol\":4651:4662  items[_upc] */\n      0x0\n        /* \"contracts/parmigianobase/SupplyChain.sol\":4657:4661  _upc */\n      dup5\n        /* \"contracts/parmigianobase/SupplyChain.sol\":4651:4662  items[_upc] */\n      dup2\n      mstore\n      0x20\n      add\n      swap1\n      dup2\n      mstore\n      0x20\n      add\n      0x0\n      keccak256\n        /* \"contracts/parmigianobase/SupplyChain.sol\":4651:4675  items[_upc].productPrice */\n      0xb\n      add\n      sload\n        /* \"contracts/parmigianobase/SupplyChain.sol\":4637:4675  uint _price = items[_upc].productPrice */\n      swap1\n      pop\n        /* \"contracts/parmigianobase/SupplyChain.sol\":4682:4702  uint  amountToReturn */\n      0x0\n        /* \"contracts/parmigianobase/SupplyChain.sol\":4717:4723  _price */\n      dup2\n        /* \"contracts/parmigianobase/SupplyChain.sol\":4705:4714  msg.value */\n      callvalue\n        /* \"contracts/parmigianobase/SupplyChain.sol\":4705:4723  msg.value - _price */\n      sub\n        /* \"contracts/parmigianobase/SupplyChain.sol\":4682:4723  uint  amountToReturn = msg.value - _price */\n      swap1\n      pop\n        /* \"contracts/parmigianobase/SupplyChain.sol\":4730:4743  addressToFund */\n      dup3\n        /* \"contracts/parmigianobase/SupplyChain.sol\":4730:4752  addressToFund.transfer */\n      0xffffffffffffffffffffffffffffffffffffffff\n      and\n        /* \"contracts/parmigianobase/SupplyChain.sol\":4730:4768  addressToFund.transfer(amountToReturn) */\n      0x8fc\n        /* \"contracts/parmigianobase/SupplyChain.sol\":4753:4767  amountToReturn */\n      dup3\n        /* \"contracts/parmigianobase/SupplyChain.sol\":4730:4768  addressToFund.transfer(amountToReturn) */\n      swap1\n      dup2\n      iszero\n      mul\n      swap1\n      mload(0x40)\n      0x0\n      mload(0x40)\n      dup1\n      dup4\n      sub\n      dup2\n      dup6\n      dup9\n      dup9\n      call\n      swap4\n      pop\n      pop\n      pop\n      pop\n      iszero\n        /* \"--CODEGEN--\":8:17   */\n      dup1\n        /* \"--CODEGEN--\":5:7   */\n      iszero\n      tag_444\n      jumpi\n        /* \"--CODEGEN--\":45:61   */\n      returndatasize\n        /* \"--CODEGEN--\":42:43   */\n      0x0\n        /* \"--CODEGEN--\":39:40   */\n      dup1\n        /* \"--CODEGEN--\":24:62   */\n      returndatacopy\n        /* \"--CODEGEN--\":77:93   */\n      returndatasize\n        /* \"--CODEGEN--\":74:75   */\n      0x0\n        /* \"--CODEGEN--\":67:94   */\n      revert\n        /* \"--CODEGEN--\":5:7   */\n    tag_444:\n        /* \"contracts/parmigianobase/SupplyChain.sol\":4730:4768  addressToFund.transfer(amountToReturn) */\n      pop\n        /* \"contracts/parmigianobase/SupplyChain.sol\":10736:10771  address payable ownerAddressPayable */\n      0x0\n        /* \"contracts/parmigianobase/SupplyChain.sol\":10774:10830  _make_payable(items[_upc].originCarParts_ManufacturerID) */\n      tag_446\n        /* \"contracts/parmigianobase/SupplyChain.sol\":10788:10793  items */\n      0x8\n        /* \"contracts/parmigianobase/SupplyChain.sol\":10788:10799  items[_upc] */\n      0x0\n        /* \"contracts/parmigianobase/SupplyChain.sol\":10794:10798  _upc */\n      dup11\n        /* \"contracts/parmigianobase/SupplyChain.sol\":10788:10799  items[_upc] */\n      dup2\n      mstore\n      0x20\n      add\n      swap1\n      dup2\n      mstore\n      0x20\n      add\n      0x0\n      keccak256\n        /* \"contracts/parmigianobase/SupplyChain.sol\":10788:10829  items[_upc].originCarParts_ManufacturerID */\n      0x3\n      add\n      0x0\n      swap1\n      sload\n      swap1\n      0x100\n      exp\n      swap1\n      div\n      0xffffffffffffffffffffffffffffffffffffffff\n      and\n        /* \"contracts/parmigianobase/SupplyChain.sol\":10774:10787  _make_payable */\n      tag_247\n        /* \"contracts/parmigianobase/SupplyChain.sol\":10774:10830  _make_payable(items[_upc].originCarParts_ManufacturerID) */\n      jump\t// in\n    tag_446:\n        /* \"contracts/parmigianobase/SupplyChain.sol\":10736:10830  address payable ownerAddressPayable = _make_payable(items[_upc].originCarParts_ManufacturerID) */\n      swap1\n      pop\n        /* \"contracts/parmigianobase/SupplyChain.sol\":10866:10885  ownerAddressPayable */\n      dup1\n        /* \"contracts/parmigianobase/SupplyChain.sol\":10866:10894  ownerAddressPayable.transfer */\n      0xffffffffffffffffffffffffffffffffffffffff\n      and\n        /* \"contracts/parmigianobase/SupplyChain.sol\":10866:10920  ownerAddressPayable.transfer(items[_upc].productPrice) */\n      0x8fc\n        /* \"contracts/parmigianobase/SupplyChain.sol\":10895:10900  items */\n      0x8\n        /* \"contracts/parmigianobase/SupplyChain.sol\":10895:10906  items[_upc] */\n      0x0\n        /* \"contracts/parmigianobase/SupplyChain.sol\":10901:10905  _upc */\n      dup12\n        /* \"contracts/parmigianobase/SupplyChain.sol\":10895:10906  items[_upc] */\n      dup2\n      mstore\n      0x20\n      add\n      swap1\n      dup2\n      mstore\n      0x20\n      add\n      0x0\n      keccak256\n        /* \"contracts/parmigianobase/SupplyChain.sol\":10895:10919  items[_upc].productPrice */\n      0xb\n      add\n      sload\n        /* \"contracts/parmigianobase/SupplyChain.sol\":10866:10920  ownerAddressPayable.transfer(items[_upc].productPrice) */\n      swap1\n      dup2\n      iszero\n      mul\n      swap1\n      mload(0x40)\n      0x0\n      mload(0x40)\n      dup1\n      dup4\n      sub\n      dup2\n      dup6\n      dup9\n      dup9\n      call\n      swap4\n      pop\n      pop\n      pop\n      pop\n      iszero\n        /* \"--CODEGEN--\":8:17   */\n      dup1\n        /* \"--CODEGEN--\":5:7   */\n      iszero\n      tag_447\n      jumpi\n        /* \"--CODEGEN--\":45:61   */\n      returndatasize\n        /* \"--CODEGEN--\":42:43   */\n      0x0\n        /* \"--CODEGEN--\":39:40   */\n      dup1\n        /* \"--CODEGEN--\":24:62   */\n      returndatacopy\n        /* \"--CODEGEN--\":77:93   */\n      returndatasize\n        /* \"--CODEGEN--\":74:75   */\n      0x0\n        /* \"--CODEGEN--\":67:94   */\n      revert\n        /* \"--CODEGEN--\":5:7   */\n    tag_447:\n        /* \"contracts/parmigianobase/SupplyChain.sol\":10866:10920  ownerAddressPayable.transfer(items[_upc].productPrice) */\n      pop\n        /* \"contracts/parmigianobase/SupplyChain.sol\":11009:11019  msg.sender */\n      caller\n        /* \"contracts/parmigianobase/SupplyChain.sol\":10987:10992  items */\n      0x8\n        /* \"contracts/parmigianobase/SupplyChain.sol\":10987:10998  items[_upc] */\n      0x0\n        /* \"contracts/parmigianobase/SupplyChain.sol\":10993:10997  _upc */\n      dup11\n        /* \"contracts/parmigianobase/SupplyChain.sol\":10987:10998  items[_upc] */\n      dup2\n      mstore\n      0x20\n      add\n      swap1\n      dup2\n      mstore\n      0x20\n      add\n      0x0\n      keccak256\n        /* \"contracts/parmigianobase/SupplyChain.sol\":10987:11006  items[_upc].ownerID */\n      0x2\n      add\n      0x0\n        /* \"contracts/parmigianobase/SupplyChain.sol\":10987:11019  items[_upc].ownerID = msg.sender */\n      0x100\n      exp\n      dup2\n      sload\n      dup2\n      0xffffffffffffffffffffffffffffffffffffffff\n      mul\n      not\n      and\n      swap1\n      dup4\n      0xffffffffffffffffffffffffffffffffffffffff\n      and\n      mul\n      or\n      swap1\n      sstore\n      pop\n        /* \"contracts/parmigianobase/SupplyChain.sol\":11070:11080  msg.sender */\n      caller\n        /* \"contracts/parmigianobase/SupplyChain.sol\":11042:11047  items */\n      0x8\n        /* \"contracts/parmigianobase/SupplyChain.sol\":11042:11053  items[_upc] */\n      0x0\n        /* \"contracts/parmigianobase/SupplyChain.sol\":11048:11052  _upc */\n      dup11\n        /* \"contracts/parmigianobase/SupplyChain.sol\":11042:11053  items[_upc] */\n      dup2\n      mstore\n      0x20\n      add\n      swap1\n      dup2\n      mstore\n      0x20\n      add\n      0x0\n      keccak256\n        /* \"contracts/parmigianobase/SupplyChain.sol\":11042:11067  items[_upc].distributorID */\n      0xd\n      add\n      0x1\n        /* \"contracts/parmigianobase/SupplyChain.sol\":11042:11080  items[_upc].distributorID = msg.sender */\n      0x100\n      exp\n      dup2\n      sload\n      dup2\n      0xffffffffffffffffffffffffffffffffffffffff\n      mul\n      not\n      and\n      swap1\n      dup4\n      0xffffffffffffffffffffffffffffffffffffffff\n      and\n      mul\n      or\n      swap1\n      sstore\n      pop\n        /* \"contracts/parmigianobase/SupplyChain.sol\":11133:11161  State.PurchasedByDistributor */\n      0x2\n        /* \"contracts/parmigianobase/SupplyChain.sol\":11109:11114  items */\n      0x8\n        /* \"contracts/parmigianobase/SupplyChain.sol\":11109:11120  items[_upc] */\n      0x0\n        /* \"contracts/parmigianobase/SupplyChain.sol\":11115:11119  _upc */\n      dup11\n        /* \"contracts/parmigianobase/SupplyChain.sol\":11109:11120  items[_upc] */\n      dup2\n      mstore\n      0x20\n      add\n      swap1\n      dup2\n      mstore\n      0x20\n      add\n      0x0\n      keccak256\n        /* \"contracts/parmigianobase/SupplyChain.sol\":11109:11130  items[_upc].itemState */\n      0xd\n      add\n      0x0\n        /* \"contracts/parmigianobase/SupplyChain.sol\":11109:11161  items[_upc].itemState = State.PurchasedByDistributor */\n      0x100\n      exp\n      dup2\n      sload\n      dup2\n      0xff\n      mul\n      not\n      and\n      swap1\n      dup4\n      0xc\n      dup2\n      gt\n      iszero\n      tag_448\n      jumpi\n      invalid\n    tag_448:\n      mul\n      or\n      swap1\n      sstore\n      pop\n        /* \"contracts/parmigianobase/SupplyChain.sol\":11209:11221  block.number */\n      number\n        /* \"contracts/parmigianobase/SupplyChain.sol\":11184:11196  itemsHistory */\n      0x9\n        /* \"contracts/parmigianobase/SupplyChain.sol\":11184:11202  itemsHistory[_upc] */\n      0x0\n        /* \"contracts/parmigianobase/SupplyChain.sol\":11197:11201  _upc */\n      dup11\n        /* \"contracts/parmigianobase/SupplyChain.sol\":11184:11202  itemsHistory[_upc] */\n      dup2\n      mstore\n      0x20\n      add\n      swap1\n      dup2\n      mstore\n      0x20\n      add\n      0x0\n      keccak256\n        /* \"contracts/parmigianobase/SupplyChain.sol\":11184:11206  itemsHistory[_upc].FTD */\n      0x0\n      add\n        /* \"contracts/parmigianobase/SupplyChain.sol\":11184:11221  itemsHistory[_upc].FTD = block.number */\n      dup2\n      swap1\n      sstore\n      pop\n        /* \"contracts/parmigianobase/SupplyChain.sol\":11253:11281  PurchasedByDistributor(_upc) */\n      0xacd9402b9f9e8c15fa7c1819f8393ca56eb61316cc354fc6ac2150aed3ce7931\n        /* \"contracts/parmigianobase/SupplyChain.sol\":11276:11280  _upc */\n      dup9\n        /* \"contracts/parmigianobase/SupplyChain.sol\":11253:11281  PurchasedByDistributor(_upc) */\n      mload(0x40)\n      dup1\n      dup3\n      dup2\n      mstore\n      0x20\n      add\n      swap2\n      pop\n      pop\n      mload(0x40)\n      dup1\n      swap2\n      sub\n      swap1\n      log1\n        /* \"contracts/parmigianobase/SupplyChain.sol\":4775:4776  _ */\n      pop\n        /* \"contracts/parmigianobase/SupplyChain.sol\":4475:4476  _ */\n      pop\n      pop\n      pop\n      pop\n        /* \"contracts/parmigianobase/SupplyChain.sol\":5096:5097  _ */\n      pop\n        /* \"contracts/parmigianoaccesscontrol/DistributorRole.sol\":829:830  _ */\n      pop\n        /* \"contracts/parmigianobase/SupplyChain.sol\":10301:11289  function purchaseItemByDistributor(uint _upc) public payable\r... */\n      pop\n      jump\t// out\n        /* \"contracts/parmigianoaccesscontrol/CarParts_ManufacturerRole.sol\":1441:1542  function renounceCarParts_Manufacturer() public {\r... */\n    tag_191:\n        /* \"contracts/parmigianoaccesscontrol/CarParts_ManufacturerRole.sol\":1496:1536  _removeCarParts_Manufacturer(msg.sender) */\n      tag_450\n        /* \"contracts/parmigianoaccesscontrol/CarParts_ManufacturerRole.sol\":1525:1535  msg.sender */\n      caller\n        /* \"contracts/parmigianoaccesscontrol/CarParts_ManufacturerRole.sol\":1496:1524  _removeCarParts_Manufacturer */\n      tag_451\n        /* \"contracts/parmigianoaccesscontrol/CarParts_ManufacturerRole.sol\":1496:1536  _removeCarParts_Manufacturer(msg.sender) */\n      jump\t// in\n    tag_450:\n        /* \"contracts/parmigianoaccesscontrol/CarParts_ManufacturerRole.sol\":1441:1542  function renounceCarParts_Manufacturer() public {\r... */\n      jump\t// out\n        /* \"contracts/parmigianoaccesscontrol/ConsumerRole.sol\":1423:1540  function _addConsumer(address account) internal {\r... */\n    tag_197:\n        /* \"contracts/parmigianoaccesscontrol/ConsumerRole.sol\":1478:1500  consumers.add(account) */\n      tag_453\n        /* \"contracts/parmigianoaccesscontrol/ConsumerRole.sol\":1492:1499  account */\n      dup2\n        /* \"contracts/parmigianoaccesscontrol/ConsumerRole.sol\":1478:1487  consumers */\n      0x4\n        /* \"contracts/parmigianoaccesscontrol/ConsumerRole.sol\":1478:1491  consumers.add */\n      tag_454\n      swap1\n        /* \"contracts/parmigianoaccesscontrol/ConsumerRole.sol\":1478:1500  consumers.add(account) */\n      swap2\n      swap1\n      0xffffffff\n      and\n      jump\t// in\n    tag_453:\n        /* \"contracts/parmigianoaccesscontrol/ConsumerRole.sol\":1526:1533  account */\n      dup1\n        /* \"contracts/parmigianoaccesscontrol/ConsumerRole.sol\":1512:1534  ConsumerAdded(account) */\n      0xffffffffffffffffffffffffffffffffffffffff\n      and\n      0x28b26e7a3d20aedbc5f8f2ebf7da671c0491723a2b78f47a097b0e46dee07142\n      mload(0x40)\n      mload(0x40)\n      dup1\n      swap2\n      sub\n      swap1\n      log2\n        /* \"contracts/parmigianoaccesscontrol/ConsumerRole.sol\":1423:1540  function _addConsumer(address account) internal {\r... */\n      pop\n      jump\t// out\n        /* \"contracts/parmigianobase/SupplyChain.sol\":6946:7061  function _make_payable(address x) internal pure returns (address payable) {\r... */\n    tag_247:\n        /* \"contracts/parmigianobase/SupplyChain.sol\":7003:7018  address payable */\n      0x0\n        /* \"contracts/parmigianobase/SupplyChain.sol\":7052:7053  x */\n      dup2\n        /* \"contracts/parmigianobase/SupplyChain.sol\":7029:7055  return address(uint160(x)) */\n      swap1\n      pop\n        /* \"contracts/parmigianobase/SupplyChain.sol\":6946:7061  function _make_payable(address x) internal pure returns (address payable) {\r... */\n      swap2\n      swap1\n      pop\n      jump\t// out\n        /* \"contracts/parmigianoaccesscontrol/CarParts_ManufacturerRole.sol\":1665:1821  function _addCarParts_Manufacturer(address account) internal {\r... */\n    tag_266:\n        /* \"contracts/parmigianoaccesscontrol/CarParts_ManufacturerRole.sol\":1733:1768  carParts_Manufacturers.add(account) */\n      tag_457\n        /* \"contracts/parmigianoaccesscontrol/CarParts_ManufacturerRole.sol\":1760:1767  account */\n      dup2\n        /* \"contracts/parmigianoaccesscontrol/CarParts_ManufacturerRole.sol\":1733:1755  carParts_Manufacturers */\n      0x1\n        /* \"contracts/parmigianoaccesscontrol/CarParts_ManufacturerRole.sol\":1733:1759  carParts_Manufacturers.add */\n      tag_454\n      swap1\n        /* \"contracts/parmigianoaccesscontrol/CarParts_ManufacturerRole.sol\":1733:1768  carParts_Manufacturers.add(account) */\n      swap2\n      swap1\n      0xffffffff\n      and\n      jump\t// in\n    tag_457:\n        /* \"contracts/parmigianoaccesscontrol/CarParts_ManufacturerRole.sol\":1807:1814  account */\n      dup1\n        /* \"contracts/parmigianoaccesscontrol/CarParts_ManufacturerRole.sol\":1780:1815  CarParts_ManufacturerAdded(account) */\n      0xffffffffffffffffffffffffffffffffffffffff\n      and\n      0xc17db36ff5b6d3d05d63c4d52dc5df431b9763a912ce99d8847bc7bdb4589d2d\n      mload(0x40)\n      mload(0x40)\n      dup1\n      swap2\n      sub\n      swap1\n      log2\n        /* \"contracts/parmigianoaccesscontrol/CarParts_ManufacturerRole.sol\":1665:1821  function _addCarParts_Manufacturer(address account) internal {\r... */\n      pop\n      jump\t// out\n        /* \"contracts/parmigianoaccesscontrol/Roles.sol\":761:934  function has(Role storage role, address account)\r... */\n    tag_299:\n        /* \"contracts/parmigianoaccesscontrol/Roles.sol\":848:852  bool */\n      0x0\n        /* \"contracts/parmigianoaccesscontrol/Roles.sol\":891:892  0 */\n      dup1\n        /* \"contracts/parmigianoaccesscontrol/Roles.sol\":872:893  account != address(0) */\n      0xffffffffffffffffffffffffffffffffffffffff\n      and\n        /* \"contracts/parmigianoaccesscontrol/Roles.sol\":872:879  account */\n      dup3\n        /* \"contracts/parmigianoaccesscontrol/Roles.sol\":872:893  account != address(0) */\n      0xffffffffffffffffffffffffffffffffffffffff\n      and\n      eq\n      iszero\n        /* \"contracts/parmigianoaccesscontrol/Roles.sol\":864:894  require(account != address(0)) */\n      iszero\n      iszero\n      tag_459\n      jumpi\n      0x0\n      dup1\n      revert\n    tag_459:\n        /* \"contracts/parmigianoaccesscontrol/Roles.sol\":908:912  role */\n      dup3\n        /* \"contracts/parmigianoaccesscontrol/Roles.sol\":908:919  role.bearer */\n      0x0\n      add\n        /* \"contracts/parmigianoaccesscontrol/Roles.sol\":908:928  role.bearer[account] */\n      0x0\n        /* \"contracts/parmigianoaccesscontrol/Roles.sol\":920:927  account */\n      dup4\n        /* \"contracts/parmigianoaccesscontrol/Roles.sol\":908:928  role.bearer[account] */\n      0xffffffffffffffffffffffffffffffffffffffff\n      and\n      0xffffffffffffffffffffffffffffffffffffffff\n      and\n      dup2\n      mstore\n      0x20\n      add\n      swap1\n      dup2\n      mstore\n      0x20\n      add\n      0x0\n      keccak256\n      0x0\n      swap1\n      sload\n      swap1\n      0x100\n      exp\n      swap1\n      div\n      0xff\n      and\n        /* \"contracts/parmigianoaccesscontrol/Roles.sol\":901:928  return role.bearer[account] */\n      swap1\n      pop\n        /* \"contracts/parmigianoaccesscontrol/Roles.sol\":761:934  function has(Role storage role, address account)\r... */\n      swap3\n      swap2\n      pop\n      pop\n      jump\t// out\n        /* \"contracts/parmigianoaccesscontrol/DistributorRole.sol\":1677:1811  function _removeDistributor(address account) internal {\r... */\n    tag_302:\n        /* \"contracts/parmigianoaccesscontrol/DistributorRole.sol\":1738:1766  distributors.remove(account) */\n      tag_461\n        /* \"contracts/parmigianoaccesscontrol/DistributorRole.sol\":1758:1765  account */\n      dup2\n        /* \"contracts/parmigianoaccesscontrol/DistributorRole.sol\":1738:1750  distributors */\n      0x2\n        /* \"contracts/parmigianoaccesscontrol/DistributorRole.sol\":1738:1757  distributors.remove */\n      tag_462\n      swap1\n        /* \"contracts/parmigianoaccesscontrol/DistributorRole.sol\":1738:1766  distributors.remove(account) */\n      swap2\n      swap1\n      0xffffffff\n      and\n      jump\t// in\n    tag_461:\n        /* \"contracts/parmigianoaccesscontrol/DistributorRole.sol\":1797:1804  account */\n      dup1\n        /* \"contracts/parmigianoaccesscontrol/DistributorRole.sol\":1778:1805  DistributorRemoved(account) */\n      0xffffffffffffffffffffffffffffffffffffffff\n      and\n      0x126174f6cf49c81cdb4a9214c6b8f037bef55b4ec31e4fc776cea2a1c8a88d59\n      mload(0x40)\n      mload(0x40)\n      dup1\n      swap2\n      sub\n      swap1\n      log2\n        /* \"contracts/parmigianoaccesscontrol/DistributorRole.sol\":1677:1811  function _removeDistributor(address account) internal {\r... */\n      pop\n      jump\t// out\n        /* \"contracts/parmigianoaccesscontrol/DistributorRole.sol\":1439:1565  function _addDistributor(address account) internal {\r... */\n    tag_330:\n        /* \"contracts/parmigianoaccesscontrol/DistributorRole.sol\":1497:1522  distributors.add(account) */\n      tag_464\n        /* \"contracts/parmigianoaccesscontrol/DistributorRole.sol\":1514:1521  account */\n      dup2\n        /* \"contracts/parmigianoaccesscontrol/DistributorRole.sol\":1497:1509  distributors */\n      0x2\n        /* \"contracts/parmigianoaccesscontrol/DistributorRole.sol\":1497:1513  distributors.add */\n      tag_454\n      swap1\n        /* \"contracts/parmigianoaccesscontrol/DistributorRole.sol\":1497:1522  distributors.add(account) */\n      swap2\n      swap1\n      0xffffffff\n      and\n      jump\t// in\n    tag_464:\n        /* \"contracts/parmigianoaccesscontrol/DistributorRole.sol\":1551:1558  account */\n      dup1\n        /* \"contracts/parmigianoaccesscontrol/DistributorRole.sol\":1534:1559  DistributorAdded(account) */\n      0xffffffffffffffffffffffffffffffffffffffff\n      and\n      0xddbf200aa634dc3fb81cfd68583dd1040d1c751d335e1d86b631bde3e977fea8\n      mload(0x40)\n      mload(0x40)\n      dup1\n      swap2\n      sub\n      swap1\n      log2\n        /* \"contracts/parmigianoaccesscontrol/DistributorRole.sol\":1439:1565  function _addDistributor(address account) internal {\r... */\n      pop\n      jump\t// out\n        /* \"contracts/parmigianoaccesscontrol/RetailerRole.sol\":1380:1497  function _addRetailer(address account) internal {\r... */\n    tag_379:\n        /* \"contracts/parmigianoaccesscontrol/RetailerRole.sol\":1435:1457  retailers.add(account) */\n      tag_466\n        /* \"contracts/parmigianoaccesscontrol/RetailerRole.sol\":1449:1456  account */\n      dup2\n        /* \"contracts/parmigianoaccesscontrol/RetailerRole.sol\":1435:1444  retailers */\n      0x3\n        /* \"contracts/parmigianoaccesscontrol/RetailerRole.sol\":1435:1448  retailers.add */\n      tag_454\n      swap1\n        /* \"contracts/parmigianoaccesscontrol/RetailerRole.sol\":1435:1457  retailers.add(account) */\n      swap2\n      swap1\n      0xffffffff\n      and\n      jump\t// in\n    tag_466:\n        /* \"contracts/parmigianoaccesscontrol/RetailerRole.sol\":1483:1490  account */\n      dup1\n        /* \"contracts/parmigianoaccesscontrol/RetailerRole.sol\":1469:1491  RetailerAdded(account) */\n      0xffffffffffffffffffffffffffffffffffffffff\n      and\n      0x71ae26cad02663e3d92efd6ec56031a80d74a20c0ab4183faa8bf262261c9baa\n      mload(0x40)\n      mload(0x40)\n      dup1\n      swap2\n      sub\n      swap1\n      log2\n        /* \"contracts/parmigianoaccesscontrol/RetailerRole.sol\":1380:1497  function _addRetailer(address account) internal {\r... */\n      pop\n      jump\t// out\n        /* \"contracts/parmigianoaccesscontrol/RetailerRole.sol\":1603:1728  function _removeRetailer(address account) internal {\r... */\n    tag_398:\n        /* \"contracts/parmigianoaccesscontrol/RetailerRole.sol\":1661:1686  retailers.remove(account) */\n      tag_468\n        /* \"contracts/parmigianoaccesscontrol/RetailerRole.sol\":1678:1685  account */\n      dup2\n        /* \"contracts/parmigianoaccesscontrol/RetailerRole.sol\":1661:1670  retailers */\n      0x3\n        /* \"contracts/parmigianoaccesscontrol/RetailerRole.sol\":1661:1677  retailers.remove */\n      tag_462\n      swap1\n        /* \"contracts/parmigianoaccesscontrol/RetailerRole.sol\":1661:1686  retailers.remove(account) */\n      swap2\n      swap1\n      0xffffffff\n      and\n      jump\t// in\n    tag_468:\n        /* \"contracts/parmigianoaccesscontrol/RetailerRole.sol\":1714:1721  account */\n      dup1\n        /* \"contracts/parmigianoaccesscontrol/RetailerRole.sol\":1698:1722  RetailerRemoved(account) */\n      0xffffffffffffffffffffffffffffffffffffffff\n      and\n      0xdb7176e79cffef81cb01767dd0447a0b24bb72ca9778d4b245581086b2a7e6db\n      mload(0x40)\n      mload(0x40)\n      dup1\n      swap2\n      sub\n      swap1\n      log2\n        /* \"contracts/parmigianoaccesscontrol/RetailerRole.sol\":1603:1728  function _removeRetailer(address account) internal {\r... */\n      pop\n      jump\t// out\n        /* \"contracts/parmigianocore/Ownable.sol\":1272:1462  function _transferOwnership(address newOwner) internal {\r... */\n    tag_430:\n        /* \"contracts/parmigianocore/Ownable.sol\":1366:1367  0 */\n      0x0\n        /* \"contracts/parmigianocore/Ownable.sol\":1346:1368  newOwner != address(0) */\n      0xffffffffffffffffffffffffffffffffffffffff\n      and\n        /* \"contracts/parmigianocore/Ownable.sol\":1346:1354  newOwner */\n      dup2\n        /* \"contracts/parmigianocore/Ownable.sol\":1346:1368  newOwner != address(0) */\n      0xffffffffffffffffffffffffffffffffffffffff\n      and\n      eq\n      iszero\n        /* \"contracts/parmigianocore/Ownable.sol\":1338:1369  require(newOwner != address(0)) */\n      iszero\n      iszero\n      tag_470\n      jumpi\n      0x0\n      dup1\n      revert\n    tag_470:\n        /* \"contracts/parmigianocore/Ownable.sol\":1414:1422  newOwner */\n      dup1\n        /* \"contracts/parmigianocore/Ownable.sol\":1385:1423  TransferOwnership(origOwner, newOwner) */\n      0xffffffffffffffffffffffffffffffffffffffff\n      and\n        /* \"contracts/parmigianocore/Ownable.sol\":1403:1412  origOwner */\n      0x0\n      dup1\n      swap1\n      sload\n      swap1\n      0x100\n      exp\n      swap1\n      div\n      0xffffffffffffffffffffffffffffffffffffffff\n      and\n        /* \"contracts/parmigianocore/Ownable.sol\":1385:1423  TransferOwnership(origOwner, newOwner) */\n      0xffffffffffffffffffffffffffffffffffffffff\n      and\n      0x5c486528ec3e3f0ea91181cff8116f02bfa350e03b8b6f12e00765adbb5af85c\n      mload(0x40)\n      mload(0x40)\n      dup1\n      swap2\n      sub\n      swap1\n      log3\n        /* \"contracts/parmigianocore/Ownable.sol\":1446:1454  newOwner */\n      dup1\n        /* \"contracts/parmigianocore/Ownable.sol\":1434:1443  origOwner */\n      0x0\n      dup1\n        /* \"contracts/parmigianocore/Ownable.sol\":1434:1454  origOwner = newOwner */\n      0x100\n      exp\n      dup2\n      sload\n      dup2\n      0xffffffffffffffffffffffffffffffffffffffff\n      mul\n      not\n      and\n      swap1\n      dup4\n      0xffffffffffffffffffffffffffffffffffffffff\n      and\n      mul\n      or\n      swap1\n      sstore\n      pop\n        /* \"contracts/parmigianocore/Ownable.sol\":1272:1462  function _transferOwnership(address newOwner) internal {\r... */\n      pop\n      jump\t// out\n        /* \"contracts/parmigianoaccesscontrol/ConsumerRole.sol\":1646:1771  function _removeConsumer(address account) internal {\r... */\n    tag_433:\n        /* \"contracts/parmigianoaccesscontrol/ConsumerRole.sol\":1704:1729  consumers.remove(account) */\n      tag_472\n        /* \"contracts/parmigianoaccesscontrol/ConsumerRole.sol\":1721:1728  account */\n      dup2\n        /* \"contracts/parmigianoaccesscontrol/ConsumerRole.sol\":1704:1713  consumers */\n      0x4\n        /* \"contracts/parmigianoaccesscontrol/ConsumerRole.sol\":1704:1720  consumers.remove */\n      tag_462\n      swap1\n        /* \"contracts/parmigianoaccesscontrol/ConsumerRole.sol\":1704:1729  consumers.remove(account) */\n      swap2\n      swap1\n      0xffffffff\n      and\n      jump\t// in\n    tag_472:\n        /* \"contracts/parmigianoaccesscontrol/ConsumerRole.sol\":1757:1764  account */\n      dup1\n        /* \"contracts/parmigianoaccesscontrol/ConsumerRole.sol\":1741:1765  ConsumerRemoved(account) */\n      0xffffffffffffffffffffffffffffffffffffffff\n      and\n      0xe3f5ed5f263f1f01764a96edfc7d025f511ec5f7d180e8816908b78bcf74f098\n      mload(0x40)\n      mload(0x40)\n      dup1\n      swap2\n      sub\n      swap1\n      log2\n        /* \"contracts/parmigianoaccesscontrol/ConsumerRole.sol\":1646:1771  function _removeConsumer(address account) internal {\r... */\n      pop\n      jump\t// out\n        /* \"contracts/parmigianoaccesscontrol/CarParts_ManufacturerRole.sol\":1953:2117  function _removeCarParts_Manufacturer(address account) internal {\r... */\n    tag_451:\n        /* \"contracts/parmigianoaccesscontrol/CarParts_ManufacturerRole.sol\":2024:2062  carParts_Manufacturers.remove(account) */\n      tag_474\n        /* \"contracts/parmigianoaccesscontrol/CarParts_ManufacturerRole.sol\":2054:2061  account */\n      dup2\n        /* \"contracts/parmigianoaccesscontrol/CarParts_ManufacturerRole.sol\":2024:2046  carParts_Manufacturers */\n      0x1\n        /* \"contracts/parmigianoaccesscontrol/CarParts_ManufacturerRole.sol\":2024:2053  carParts_Manufacturers.remove */\n      tag_462\n      swap1\n        /* \"contracts/parmigianoaccesscontrol/CarParts_ManufacturerRole.sol\":2024:2062  carParts_Manufacturers.remove(account) */\n      swap2\n      swap1\n      0xffffffff\n      and\n      jump\t// in\n    tag_474:\n        /* \"contracts/parmigianoaccesscontrol/CarParts_ManufacturerRole.sol\":2103:2110  account */\n      dup1\n        /* \"contracts/parmigianoaccesscontrol/CarParts_ManufacturerRole.sol\":2074:2111  CarParts_ManufacturerRemoved(account) */\n      0xffffffffffffffffffffffffffffffffffffffff\n      and\n      0x74e50ebe0d8f15811119637829729a3b44ffc7242575f08ea332c8e3a300e2fd\n      mload(0x40)\n      mload(0x40)\n      dup1\n      swap2\n      sub\n      swap1\n      log2\n        /* \"contracts/parmigianoaccesscontrol/CarParts_ManufacturerRole.sol\":1953:2117  function _removeCarParts_Manufacturer(address account) internal {\r... */\n      pop\n      jump\t// out\n        /* \"contracts/parmigianoaccesscontrol/Roles.sol\":259:431  function add(Role storage role, address account) internal {\r... */\n    tag_454:\n        /* \"contracts/parmigianoaccesscontrol/Roles.sol\":351:352  0 */\n      0x0\n        /* \"contracts/parmigianoaccesscontrol/Roles.sol\":332:353  account != address(0) */\n      0xffffffffffffffffffffffffffffffffffffffff\n      and\n        /* \"contracts/parmigianoaccesscontrol/Roles.sol\":332:339  account */\n      dup2\n        /* \"contracts/parmigianoaccesscontrol/Roles.sol\":332:353  account != address(0) */\n      0xffffffffffffffffffffffffffffffffffffffff\n      and\n      eq\n      iszero\n        /* \"contracts/parmigianoaccesscontrol/Roles.sol\":324:354  require(account != address(0)) */\n      iszero\n      iszero\n      tag_476\n      jumpi\n      0x0\n      dup1\n      revert\n    tag_476:\n        /* \"contracts/parmigianoaccesscontrol/Roles.sol\":370:388  has(role, account) */\n      tag_477\n        /* \"contracts/parmigianoaccesscontrol/Roles.sol\":374:378  role */\n      dup3\n        /* \"contracts/parmigianoaccesscontrol/Roles.sol\":380:387  account */\n      dup3\n        /* \"contracts/parmigianoaccesscontrol/Roles.sol\":370:373  has */\n      tag_299\n        /* \"contracts/parmigianoaccesscontrol/Roles.sol\":370:388  has(role, account) */\n      jump\t// in\n    tag_477:\n        /* \"contracts/parmigianoaccesscontrol/Roles.sol\":369:388  !has(role, account) */\n      iszero\n        /* \"contracts/parmigianoaccesscontrol/Roles.sol\":361:389  require(!has(role, account)) */\n      iszero\n      iszero\n      tag_478\n      jumpi\n      0x0\n      dup1\n      revert\n    tag_478:\n        /* \"contracts/parmigianoaccesscontrol/Roles.sol\":421:425  true */\n      0x1\n        /* \"contracts/parmigianoaccesscontrol/Roles.sol\":398:402  role */\n      dup3\n        /* \"contracts/parmigianoaccesscontrol/Roles.sol\":398:409  role.bearer */\n      0x0\n      add\n        /* \"contracts/parmigianoaccesscontrol/Roles.sol\":398:418  role.bearer[account] */\n      0x0\n        /* \"contracts/parmigianoaccesscontrol/Roles.sol\":410:417  account */\n      dup4\n        /* \"contracts/parmigianoaccesscontrol/Roles.sol\":398:418  role.bearer[account] */\n      0xffffffffffffffffffffffffffffffffffffffff\n      and\n      0xffffffffffffffffffffffffffffffffffffffff\n      and\n      dup2\n      mstore\n      0x20\n      add\n      swap1\n      dup2\n      mstore\n      0x20\n      add\n      0x0\n      keccak256\n      0x0\n        /* \"contracts/parmigianoaccesscontrol/Roles.sol\":398:425  role.bearer[account] = true */\n      0x100\n      exp\n      dup2\n      sload\n      dup2\n      0xff\n      mul\n      not\n      and\n      swap1\n      dup4\n      iszero\n      iszero\n      mul\n      or\n      swap1\n      sstore\n      pop\n        /* \"contracts/parmigianoaccesscontrol/Roles.sol\":259:431  function add(Role storage role, address account) internal {\r... */\n      pop\n      pop\n      jump\t// out\n        /* \"contracts/parmigianoaccesscontrol/Roles.sol\":502:677  function remove(Role storage role, address account) internal {\r... */\n    tag_462:\n        /* \"contracts/parmigianoaccesscontrol/Roles.sol\":597:598  0 */\n      0x0\n        /* \"contracts/parmigianoaccesscontrol/Roles.sol\":578:599  account != address(0) */\n      0xffffffffffffffffffffffffffffffffffffffff\n      and\n        /* \"contracts/parmigianoaccesscontrol/Roles.sol\":578:585  account */\n      dup2\n        /* \"contracts/parmigianoaccesscontrol/Roles.sol\":578:599  account != address(0) */\n      0xffffffffffffffffffffffffffffffffffffffff\n      and\n      eq\n      iszero\n        /* \"contracts/parmigianoaccesscontrol/Roles.sol\":570:600  require(account != address(0)) */\n      iszero\n      iszero\n      tag_480\n      jumpi\n      0x0\n      dup1\n      revert\n    tag_480:\n        /* \"contracts/parmigianoaccesscontrol/Roles.sol\":615:633  has(role, account) */\n      tag_481\n        /* \"contracts/parmigianoaccesscontrol/Roles.sol\":619:623  role */\n      dup3\n        /* \"contracts/parmigianoaccesscontrol/Roles.sol\":625:632  account */\n      dup3\n        /* \"contracts/parmigianoaccesscontrol/Roles.sol\":615:618  has */\n      tag_299\n        /* \"contracts/parmigianoaccesscontrol/Roles.sol\":615:633  has(role, account) */\n      jump\t// in\n    tag_481:\n        /* \"contracts/parmigianoaccesscontrol/Roles.sol\":607:634  require(has(role, account)) */\n      iszero\n      iszero\n      tag_482\n      jumpi\n      0x0\n      dup1\n      revert\n    tag_482:\n        /* \"contracts/parmigianoaccesscontrol/Roles.sol\":666:671  false */\n      0x0\n        /* \"contracts/parmigianoaccesscontrol/Roles.sol\":643:647  role */\n      dup3\n        /* \"contracts/parmigianoaccesscontrol/Roles.sol\":643:654  role.bearer */\n      0x0\n      add\n        /* \"contracts/parmigianoaccesscontrol/Roles.sol\":643:663  role.bearer[account] */\n      0x0\n        /* \"contracts/parmigianoaccesscontrol/Roles.sol\":655:662  account */\n      dup4\n        /* \"contracts/parmigianoaccesscontrol/Roles.sol\":643:663  role.bearer[account] */\n      0xffffffffffffffffffffffffffffffffffffffff\n      and\n      0xffffffffffffffffffffffffffffffffffffffff\n      and\n      dup2\n      mstore\n      0x20\n      add\n      swap1\n      dup2\n      mstore\n      0x20\n      add\n      0x0\n      keccak256\n      0x0\n        /* \"contracts/parmigianoaccesscontrol/Roles.sol\":643:671  role.bearer[account] = false */\n      0x100\n      exp\n      dup2\n      sload\n      dup2\n      0xff\n      mul\n      not\n      and\n      swap1\n      dup4\n      iszero\n      iszero\n      mul\n      or\n      swap1\n      sstore\n      pop\n        /* \"contracts/parmigianoaccesscontrol/Roles.sol\":502:677  function remove(Role storage role, address account) internal {\r... */\n      pop\n      pop\n      jump\t// out\n        /* \"contracts/parmigianobase/SupplyChain.sol\":370:18364  contract SupplyChain is Ownable,CarParts_ManufacturerRole,DistributorRole,RetailerRole,ConsumerRole {\r... */\n    tag_200:\n      0x60\n      mload(0x40)\n      swap1\n      dup2\n      add\n      0x40\n      mstore\n      dup1\n      0x0\n      dup2\n      mstore\n      0x20\n      add\n      0x0\n      dup2\n      mstore\n      0x20\n      add\n      0x0\n      dup2\n      mstore\n      pop\n      swap1\n      jump\t// out\n    tag_275:\n      0x220\n      mload(0x40)\n      swap1\n      dup2\n      add\n      0x40\n      mstore\n      dup1\n      0x0\n      dup2\n      mstore\n      0x20\n      add\n      0x0\n      dup2\n      mstore\n      0x20\n      add\n      and(0xffffffffffffffffffffffffffffffffffffffff, 0x0)\n      dup2\n      mstore\n      0x20\n      add\n      and(0xffffffffffffffffffffffffffffffffffffffff, 0x0)\n      dup2\n      mstore\n      0x20\n      add\n      0x60\n      dup2\n      mstore\n      0x20\n      add\n      0x60\n      dup2\n      mstore\n      0x20\n      add\n      0x60\n      dup2\n      mstore\n      0x20\n      add\n      0x60\n      dup2\n      mstore\n      0x20\n      add\n      0x0\n      dup2\n      mstore\n      0x20\n      add\n      0x60\n      dup2\n      mstore\n      0x20\n      add\n      0x0\n      dup2\n      mstore\n      0x20\n      add\n      0x0\n      dup2\n      mstore\n      0x20\n      add\n      0x0\n      dup2\n      mstore\n      0x20\n      add\n      0x0\n      0xc\n      dup2\n      gt\n      iszero\n      tag_483\n      jumpi\n      invalid\n    tag_483:\n      dup2\n      mstore\n      0x20\n      add\n      and(0xffffffffffffffffffffffffffffffffffffffff, 0x0)\n      dup2\n      mstore\n      0x20\n      add\n      and(0xffffffffffffffffffffffffffffffffffffffff, 0x0)\n      dup2\n      mstore\n      0x20\n      add\n      and(0xffffffffffffffffffffffffffffffffffffffff, 0x0)\n      dup2\n      mstore\n      pop\n      swap1\n      jump\t// out\n    tag_279:\n      dup3\n      dup1\n      sload\n      0x1\n      dup2\n      0x1\n      and\n      iszero\n      0x100\n      mul\n      sub\n      and\n      0x2\n      swap1\n      div\n      swap1\n      0x0\n      mstore\n      keccak256(0x0, 0x20)\n      swap1\n      0x1f\n      add\n      0x20\n      swap1\n      div\n      dup2\n      add\n      swap3\n      dup3\n      0x1f\n      lt\n      tag_485\n      jumpi\n      dup1\n      mload\n      not(0xff)\n      and\n      dup4\n      dup1\n      add\n      or\n      dup6\n      sstore\n      jump(tag_484)\n    tag_485:\n      dup3\n      dup1\n      add\n      0x1\n      add\n      dup6\n      sstore\n      dup3\n      iszero\n      tag_484\n      jumpi\n      swap2\n      dup3\n      add\n    tag_486:\n      dup3\n      dup2\n      gt\n      iszero\n      tag_487\n      jumpi\n      dup3\n      mload\n      dup3\n      sstore\n      swap2\n      0x20\n      add\n      swap2\n      swap1\n      0x1\n      add\n      swap1\n      jump(tag_486)\n    tag_487:\n    tag_484:\n      pop\n      swap1\n      pop\n      tag_488\n      swap2\n      swap1\n      jump\t// in(tag_489)\n    tag_488:\n      pop\n      swap1\n      jump\t// out\n    tag_489:\n      tag_490\n      swap2\n      swap1\n    tag_491:\n      dup1\n      dup3\n      gt\n      iszero\n      tag_492\n      jumpi\n      0x0\n      dup2\n      0x0\n      swap1\n      sstore\n      pop\n      0x1\n      add\n      jump(tag_491)\n    tag_492:\n      pop\n      swap1\n      jump\n    tag_490:\n      swap1\n      jump\t// out\n\n    auxdata: 0xa165627a7a723058209924d499035372d22d06c09199e62a3fe2b99a48de9615ad6c91df7f9a5f4cfd0029\n}\n",
				"bytecode": {
					"linkReferences": {},
					"object": "6080604052336000806101000a81548173ffffffffffffffffffffffffffffffffffffffff021916908373ffffffffffffffffffffffffffffffffffffffff1602179055506000809054906101000a900473ffffffffffffffffffffffffffffffffffffffff1673ffffffffffffffffffffffffffffffffffffffff16600073ffffffffffffffffffffffffffffffffffffffff167f5c486528ec3e3f0ea91181cff8116f02bfa350e03b8b6f12e00765adbb5af85c60405160405180910390a3620000da336200017f640100000000026401000000009004565b620000f433620001e9640100000000026401000000009004565b6200010e3362000253640100000000026401000000009004565b6200012833620002bd640100000000026401000000009004565b33600560006101000a81548173ffffffffffffffffffffffffffffffffffffffff021916908373ffffffffffffffffffffffffffffffffffffffff160217905550600160078190555060016006819055506200047f565b620001a3816001620003276401000000000262003e39179091906401000000009004565b8073ffffffffffffffffffffffffffffffffffffffff167fc17db36ff5b6d3d05d63c4d52dc5df431b9763a912ce99d8847bc7bdb4589d2d60405160405180910390a250565b6200020d816002620003276401000000000262003e39179091906401000000009004565b8073ffffffffffffffffffffffffffffffffffffffff167fddbf200aa634dc3fb81cfd68583dd1040d1c751d335e1d86b631bde3e977fea860405160405180910390a250565b62000277816003620003276401000000000262003e39179091906401000000009004565b8073ffffffffffffffffffffffffffffffffffffffff167f71ae26cad02663e3d92efd6ec56031a80d74a20c0ab4183faa8bf262261c9baa60405160405180910390a250565b620002e1816004620003276401000000000262003e39179091906401000000009004565b8073ffffffffffffffffffffffffffffffffffffffff167f28b26e7a3d20aedbc5f8f2ebf7da671c0491723a2b78f47a097b0e46dee0714260405160405180910390a250565b600073ffffffffffffffffffffffffffffffffffffffff168173ffffffffffffffffffffffffffffffffffffffff16141515156200036457600080fd5b6200037f8282620003ea640100000000026401000000009004565b1515156200038c57600080fd5b60018260000160008373ffffffffffffffffffffffffffffffffffffffff1673ffffffffffffffffffffffffffffffffffffffff16815260200190815260200160002060006101000a81548160ff0219169083151502179055505050565b60008073ffffffffffffffffffffffffffffffffffffffff168273ffffffffffffffffffffffffffffffffffffffff16141515156200042857600080fd5b8260000160008373ffffffffffffffffffffffffffffffffffffffff1673ffffffffffffffffffffffffffffffffffffffff16815260200190815260200160002060009054906101000a900460ff16905092915050565b614189806200048f6000396000f3fe6080604052600436106101a1576000357c0100000000000000000000000000000000000000000000000000000000900463ffffffff168063112940f9146101a65780631154501c146101f75780631d116edf1461025457806322f112121461028257806324cb1669146102c757806326d529b41461030257806337b2f92c1461033057806340b74c381461036b57806341c0e1b5146103bc5780634f974166146103d3578063546eb5861461070b5780635da09b8814610750578063644241db146107b957806366225ff9146107d0578063715018a6146109555780637250e2241461096c57806377c45913146109bd57806382e831ec14610c37578063834ff73914610c725780638adff8ba14610cdb5780638ec4f50514610d205780638f0c86fa14610d715780638f32d59b14610dda5780639154135514610e09578063c7ef882c14610e44578063db0e6a2f14610ead578063df74dc3a14610ec4578063e02e64ea14610ef2578063eab7d6e814610f49578063f2fde38b14610f8e578063f487d48d14610fdf578063fdcdc06f14611030578063ffeb4d331461105e575b600080fd5b3480156101b257600080fd5b506101f5600480360360208110156101c957600080fd5b81019080803573ffffffffffffffffffffffffffffffffffffffff169060200190929190505050611075565b005b34801561020357600080fd5b506102306004803603602081101561021a57600080fd5b8101908080359060200190929190505050611095565b60405180848152602001838152602001828152602001935050505060405180910390f35b6102806004803603602081101561026a57600080fd5b81019080803590602001909291905050506110fe565b005b34801561028e57600080fd5b506102c5600480360360408110156102a557600080fd5b810190808035906020019092919080359060200190929190505050611240565b005b3480156102d357600080fd5b50610300600480360360208110156102ea57600080fd5b810190808035906020019092919050505061139e565b005b61032e6004803603602081101561031857600080fd5b81019080803590602001909291905050506114e0565b005b34801561033c57600080fd5b506103696004803603602081101561035357600080fd5b81019080803590602001909291905050506117ab565b005b34801561037757600080fd5b506103ba6004803603602081101561038e57600080fd5b81019080803573ffffffffffffffffffffffffffffffffffffffff1690602001909291905050506118ed565b005b3480156103c857600080fd5b506103d161190d565b005b3480156103df57600080fd5b50610709600480360360e08110156103f657600080fd5b81019080803590602001909291908035906020019064010000000081111561041d57600080fd5b82018360208201111561042f57600080fd5b8035906020019184600183028401116401000000008311171561045157600080fd5b91908080601f016020809104026020016040519081016040528093929190818152602001838380828437600081840152601f19601f820116905080830192505050505050509192919290803590602001906401000000008111156104b457600080fd5b8201836020820111156104c657600080fd5b803590602001918460018302840111640100000000831117156104e857600080fd5b91908080601f016020809104026020016040519081016040528093929190818152602001838380828437600081840152601f19601f8201169050808301925050505050505091929192908035906020019064010000000081111561054b57600080fd5b82018360208201111561055d57600080fd5b8035906020019184600183028401116401000000008311171561057f57600080fd5b91908080601f016020809104026020016040519081016040528093929190818152602001838380828437600081840152601f19601f820116905080830192505050505050509192919290803590602001906401000000008111156105e257600080fd5b8201836020820111156105f457600080fd5b8035906020019184600183028401116401000000008311171561061657600080fd5b91908080601f016020809104026020016040519081016040528093929190818152602001838380828437600081840152601f19601f8201169050808301925050505050505091929192908035906020019064010000000081111561067957600080fd5b82018360208201111561068b57600080fd5b803590602001918460018302840111640100000000831117156106ad57600080fd5b91908080601f016020809104026020016040519081016040528093929190818152602001838380828437600081840152601f19601f820116905080830192505050505050509192919290803590602001909291905050506119ad565b005b34801561071757600080fd5b5061074e6004803603604081101561072e57600080fd5b810190808035906020019092919080359060200190929190505050611eaa565b005b34801561075c57600080fd5b5061079f6004803603602081101561077357600080fd5b81019080803573ffffffffffffffffffffffffffffffffffffffff169060200190929190505050612008565b604051808215151515815260200191505060405180910390f35b3480156107c557600080fd5b506107ce612025565b005b3480156107dc57600080fd5b50610809600480360360208110156107f357600080fd5b8101908080359060200190929190505050612030565b604051808b81526020018a81526020018981526020018060200188815260200187815260200186600c81111561083b57fe5b60ff1681526020018573ffffffffffffffffffffffffffffffffffffffff1673ffffffffffffffffffffffffffffffffffffffff1681526020018473ffffffffffffffffffffffffffffffffffffffff1673ffffffffffffffffffffffffffffffffffffffff1681526020018373ffffffffffffffffffffffffffffffffffffffff1673ffffffffffffffffffffffffffffffffffffffff168152602001828103825289818151815260200191508051906020019080838360005b838110156109115780820151818401526020810190506108f6565b50505050905090810190601f16801561093e5780820380516001836020036101000a031916815260200191505b509b50505050505050505050505060405180910390f35b34801561096157600080fd5b5061096a61260a565b005b34801561097857600080fd5b506109bb6004803603602081101561098f57600080fd5b81019080803573ffffffffffffffffffffffffffffffffffffffff169060200190929190505050612725565b005b3480156109c957600080fd5b506109f6600480360360208110156109e057600080fd5b8101908080359060200190929190505050612745565b604051808b81526020018a81526020018973ffffffffffffffffffffffffffffffffffffffff1673ffffffffffffffffffffffffffffffffffffffff1681526020018873ffffffffffffffffffffffffffffffffffffffff1673ffffffffffffffffffffffffffffffffffffffff1681526020018060200180602001806020018060200187815260200186815260200185810385528b818151815260200191508051906020019080838360005b83811015610abe578082015181840152602081019050610aa3565b50505050905090810190601f168015610aeb5780820380516001836020036101000a031916815260200191505b5085810384528a818151815260200191508051906020019080838360005b83811015610b24578082015181840152602081019050610b09565b50505050905090810190601f168015610b515780820380516001836020036101000a031916815260200191505b50858103835289818151815260200191508051906020019080838360005b83811015610b8a578082015181840152602081019050610b6f565b50505050905090810190601f168015610bb75780820380516001836020036101000a031916815260200191505b50858103825288818151815260200191508051906020019080838360005b83811015610bf0578082015181840152602081019050610bd5565b50505050905090810190601f168015610c1d5780820380516001836020036101000a031916815260200191505b509e50505050505050505050505050505060405180910390f35b348015610c4357600080fd5b50610c7060048036036020811015610c5a57600080fd5b8101908080359060200190929190505050612d21565b005b348015610c7e57600080fd5b50610cc160048036036020811015610c9557600080fd5b81019080803573ffffffffffffffffffffffffffffffffffffffff169060200190929190505050612e63565b604051808215151515815260200191505060405180910390f35b348015610ce757600080fd5b50610d1e60048036036040811015610cfe57600080fd5b810190808035906020019092919080359060200190929190505050612e80565b005b348015610d2c57600080fd5b50610d6f60048036036020811015610d4357600080fd5b81019080803573ffffffffffffffffffffffffffffffffffffffff169060200190929190505050612fe0565b005b348015610d7d57600080fd5b50610dc060048036036020811015610d9457600080fd5b81019080803573ffffffffffffffffffffffffffffffffffffffff169060200190929190505050613000565b604051808215151515815260200191505060405180910390f35b348015610de657600080fd5b50610def61301d565b604051808215151515815260200191505060405180910390f35b348015610e1557600080fd5b50610e4260048036036020811015610e2c57600080fd5b8101908080359060200190929190505050613074565b005b348015610e5057600080fd5b50610e9360048036036020811015610e6757600080fd5b81019080803573ffffffffffffffffffffffffffffffffffffffff1690602001909291905050506131b6565b604051808215151515815260200191505060405180910390f35b348015610eb957600080fd5b50610ec26131d3565b005b610ef060048036036020811015610eda57600080fd5b81019080803590602001909291905050506131de565b005b348015610efe57600080fd5b50610f076134ff565b604051808273ffffffffffffffffffffffffffffffffffffffff1673ffffffffffffffffffffffffffffffffffffffff16815260200191505060405180910390f35b348015610f5557600080fd5b50610f8c60048036036040811015610f6c57600080fd5b810190808035906020019092919080359060200190929190505050613528565b005b348015610f9a57600080fd5b50610fdd60048036036020811015610fb157600080fd5b81019080803573ffffffffffffffffffffffffffffffffffffffff169060200190929190505050613686565b005b348015610feb57600080fd5b5061102e6004803603602081101561100257600080fd5b81019080803573ffffffffffffffffffffffffffffffffffffffff1690602001909291905050506136ee565b005b61105c6004803603602081101561104657600080fd5b81019080803590602001909291905050506136fa565b005b34801561106a57600080fd5b506110736139c6565b005b61107e33612e63565b151561108957600080fd5b611092816139d1565b50565b60008060006110a2613f98565b600960008681526020019081526020016000206060604051908101604052908160008201548152602001600182015481526020016002820154815250509050806000015181602001518260400151935093509350509193909250565b611107336131b6565b151561111257600080fd5b806002600c81111561112057fe5b60086000838152602001908152602001600020600d0160009054906101000a900460ff16600c81111561114f57fe5b14151561115b57600080fd5b6008600083815260200190815260200160002060030160009054906101000a900473ffffffffffffffffffffffffffffffffffffffff168073ffffffffffffffffffffffffffffffffffffffff163373ffffffffffffffffffffffffffffffffffffffff161415156111cc57600080fd5b600360086000858152602001908152602001600020600d0160006101000a81548160ff0219169083600c8111156111ff57fe5b02179055507fb20d2d5532c31dbf6d548e783f891fa0aca5a4d1ba547151308b89b3d2930d24836040518082815260200191505060405180910390a1505050565b611249336131b6565b151561125457600080fd5b816000600c81111561126257fe5b60086000838152602001908152602001600020600d0160009054906101000a900460ff16600c81111561129157fe5b14151561129d57600080fd5b6008600084815260200190815260200160002060020160009054906101000a900473ffffffffffffffffffffffffffffffffffffffff168073ffffffffffffffffffffffffffffffffffffffff163373ffffffffffffffffffffffffffffffffffffffff1614151561130e57600080fd5b600160086000868152602001908152602001600020600d0160006101000a81548160ff0219169083600c81111561134157fe5b02179055508260086000868152602001908152602001600020600b01819055507f2285967d10dd8a9387bf9a505c30b7016db386768ff2d549d755008dca90c36d846040518082815260200191505060405180910390a150505050565b6113a733613000565b15156113b257600080fd5b806003600c8111156113c057fe5b60086000838152602001908152602001600020600d0160009054906101000a900460ff16600c8111156113ef57fe5b1415156113fb57600080fd5b6008600083815260200190815260200160002060020160009054906101000a900473ffffffffffffffffffffffffffffffffffffffff168073ffffffffffffffffffffffffffffffffffffffff163373ffffffffffffffffffffffffffffffffffffffff1614151561146c57600080fd5b600460086000858152602001908152602001600020600d0160006101000a81548160ff0219169083600c81111561149f57fe5b02179055507fc8ca2150e6e1849a10ef5aa4932060fa353bcacdffeb150c9e1890c6ab9403cc836040518082815260200191505060405180910390a1505050565b6114e933612008565b15156114f457600080fd5b806007600c81111561150257fe5b60086000838152602001908152602001600020600d0160009054906101000a900460ff16600c81111561153157fe5b14151561153d57600080fd5b60086000838152602001908152602001600020600b015480341015151561156357600080fd5b8233600060086000848152602001908152602001600020600b01549050600081340390508273ffffffffffffffffffffffffffffffffffffffff166108fc829081150290604051600060405180830381858888f193505050501580156115cd573d6000803e3d6000fd5b50600061160f600860008a8152602001908152602001600020600d0160019054906101000a900473ffffffffffffffffffffffffffffffffffffffff16613a2b565b90508073ffffffffffffffffffffffffffffffffffffffff166108fc600860008b8152602001908152602001600020600b01549081150290604051600060405180830381858888f1935050505015801561166d573d6000803e3d6000fd5b5033600860008a815260200190815260200160002060020160006101000a81548173ffffffffffffffffffffffffffffffffffffffff021916908373ffffffffffffffffffffffffffffffffffffffff16021790555033600860008a8152602001908152602001600020600e0160006101000a81548173ffffffffffffffffffffffffffffffffffffffff021916908373ffffffffffffffffffffffffffffffffffffffff16021790555060088060008a8152602001908152602001600020600d0160006101000a81548160ff0219169083600c81111561174a57fe5b021790555043600960008a8152602001908152602001600020600101819055507faa7352d10146444c3afd9bd7fb0ae56b0a85e81139536bbec3f1f660fddd7be1886040518082815260200191505060405180910390a15050505050505050565b6117b433612008565b15156117bf57600080fd5b806009600c8111156117cd57fe5b60086000838152602001908152602001600020600d0160009054906101000a900460ff16600c8111156117fc57fe5b14151561180857600080fd5b6008600083815260200190815260200160002060020160009054906101000a900473ffffffffffffffffffffffffffffffffffffffff168073ffffffffffffffffffffffffffffffffffffffff163373ffffffffffffffffffffffffffffffffffffffff1614151561187957600080fd5b600a60086000858152602001908152602001600020600d0160006101000a81548160ff0219169083600c8111156118ac57fe5b02179055507f322f34e90f2269750b3e28178631d975cc678db36f21098fe548b7f755ce0bd0836040518082815260200191505060405180910390a1505050565b6118f6336131b6565b151561190157600080fd5b61190a81613a35565b50565b600560009054906101000a900473ffffffffffffffffffffffffffffffffffffffff1673ffffffffffffffffffffffffffffffffffffffff163373ffffffffffffffffffffffffffffffffffffffff1614156119ab576000611990600560009054906101000a900473ffffffffffffffffffffffffffffffffffffffff16613a2b565b90508073ffffffffffffffffffffffffffffffffffffffff16ff5b565b6119b6336131b6565b15156119c157600080fd5b60008060006119ce613fba565b6007548160000181815250508a81602001818152505033816040019073ffffffffffffffffffffffffffffffffffffffff16908173ffffffffffffffffffffffffffffffffffffffff168152505033816060019073ffffffffffffffffffffffffffffffffffffffff16908173ffffffffffffffffffffffffffffffffffffffff1681525050898160800181905250888160a00181905250878160c00181905250868160e001819052506007548b018161010001818152505085816101200181905250848161016001818152505042816101400181815250506000816101800181815250506000816101a00190600c811115611ac657fe5b9081600c811115611ad357fe5b8152505083816101c0019073ffffffffffffffffffffffffffffffffffffffff16908173ffffffffffffffffffffffffffffffffffffffff168152505082816101e0019073ffffffffffffffffffffffffffffffffffffffff16908173ffffffffffffffffffffffffffffffffffffffff16815250508181610200019073ffffffffffffffffffffffffffffffffffffffff16908173ffffffffffffffffffffffffffffffffffffffff168152505080600860008d8152602001908152602001600020600082015181600001556020820151816001015560408201518160020160006101000a81548173ffffffffffffffffffffffffffffffffffffffff021916908373ffffffffffffffffffffffffffffffffffffffff16021790555060608201518160030160006101000a81548173ffffffffffffffffffffffffffffffffffffffff021916908373ffffffffffffffffffffffffffffffffffffffff1602179055506080820151816004019080519060200190611c549291906140b8565b5060a0820151816005019080519060200190611c719291906140b8565b5060c0820151816006019080519060200190611c8e9291906140b8565b5060e0820151816007019080519060200190611cab9291906140b8565b506101008201518160080155610120820151816009019080519060200190611cd49291906140b8565b5061014082015181600a015561016082015181600b015561018082015181600c01556101a082015181600d0160006101000a81548160ff0219169083600c811115611d1b57fe5b02179055506101c082015181600d0160016101000a81548173ffffffffffffffffffffffffffffffffffffffff021916908373ffffffffffffffffffffffffffffffffffffffff1602179055506101e082015181600e0160006101000a81548173ffffffffffffffffffffffffffffffffffffffff021916908373ffffffffffffffffffffffffffffffffffffffff16021790555061020082015181600f0160006101000a81548173ffffffffffffffffffffffffffffffffffffffff021916908373ffffffffffffffffffffffffffffffffffffffff1602179055509050506000611e05613f98565b81816000018181525050818160200181815250508181604001818152505080600960008f81526020019081526020016000206000820151816000015560208201518160010155604082015181600201559050506001600754016007819055507f78e97d8ec26877417127bc38f9a0255895572ec277d8c1da38d769d5448693ed8d6040518082815260200191505060405180910390a150505050505050505050505050565b611eb333612008565b1515611ebe57600080fd5b81600a600c811115611ecc57fe5b60086000838152602001908152602001600020600d0160009054906101000a900460ff16600c811115611efb57fe5b141515611f0757600080fd5b6008600084815260200190815260200160002060020160009054906101000a900473ffffffffffffffffffffffffffffffffffffffff168073ffffffffffffffffffffffffffffffffffffffff163373ffffffffffffffffffffffffffffffffffffffff16141515611f7857600080fd5b600b60086000868152602001908152602001600020600d0160006101000a81548160ff0219169083600c811115611fab57fe5b02179055508260086000868152602001908152602001600020600b01819055507f59e7ad085805e2b02ad4b0f8033bd75e7ee4c8cd43f996267463585e35896252846040518082815260200191505060405180910390a150505050565b600061201e826003613a8f90919063ffffffff16565b9050919050565b61202e33613b23565b565b60008060006060600080600080600080612048613fba565b600860008d8152602001908152602001600020610220604051908101604052908160008201548152602001600182015481526020016002820160009054906101000a900473ffffffffffffffffffffffffffffffffffffffff1673ffffffffffffffffffffffffffffffffffffffff1673ffffffffffffffffffffffffffffffffffffffff1681526020016003820160009054906101000a900473ffffffffffffffffffffffffffffffffffffffff1673ffffffffffffffffffffffffffffffffffffffff1673ffffffffffffffffffffffffffffffffffffffff168152602001600482018054600181600116156101000203166002900480601f0160208091040260200160405190810160405280929190818152602001828054600181600116156101000203166002900480156121c15780601f10612196576101008083540402835291602001916121c1565b820191906000526020600020905b8154815290600101906020018083116121a457829003601f168201915b50505050508152602001600582018054600181600116156101000203166002900480601f0160208091040260200160405190810160405280929190818152602001828054600181600116156101000203166002900480156122635780601f1061223857610100808354040283529160200191612263565b820191906000526020600020905b81548152906001019060200180831161224657829003601f168201915b50505050508152602001600682018054600181600116156101000203166002900480601f0160208091040260200160405190810160405280929190818152602001828054600181600116156101000203166002900480156123055780601f106122da57610100808354040283529160200191612305565b820191906000526020600020905b8154815290600101906020018083116122e857829003601f168201915b50505050508152602001600782018054600181600116156101000203166002900480601f0160208091040260200160405190810160405280929190818152602001828054600181600116156101000203166002900480156123a75780601f1061237c576101008083540402835291602001916123a7565b820191906000526020600020905b81548152906001019060200180831161238a57829003601f168201915b5050505050815260200160088201548152602001600982018054600181600116156101000203166002900480601f0160208091040260200160405190810160405280929190818152602001828054600181600116156101000203166002900480156124535780601f1061242857610100808354040283529160200191612453565b820191906000526020600020905b81548152906001019060200180831161243657829003601f168201915b50505050508152602001600a8201548152602001600b8201548152602001600c8201548152602001600d820160009054906101000a900460ff16600c81111561249857fe5b600c8111156124a357fe5b8152602001600d820160019054906101000a900473ffffffffffffffffffffffffffffffffffffffff1673ffffffffffffffffffffffffffffffffffffffff1673ffffffffffffffffffffffffffffffffffffffff168152602001600e820160009054906101000a900473ffffffffffffffffffffffffffffffffffffffff1673ffffffffffffffffffffffffffffffffffffffff1673ffffffffffffffffffffffffffffffffffffffff168152602001600f820160009054906101000a900473ffffffffffffffffffffffffffffffffffffffff1673ffffffffffffffffffffffffffffffffffffffff1673ffffffffffffffffffffffffffffffffffffffff1681525050905080600001518160200151826101000151836101200151846101600151856101400151866101a00151876101c00151886101e001518961020001518696509a509a509a509a509a509a509a509a509a509a50509193959799509193959799565b600560009054906101000a900473ffffffffffffffffffffffffffffffffffffffff1673ffffffffffffffffffffffffffffffffffffffff163373ffffffffffffffffffffffffffffffffffffffff1614151561266657600080fd5b600073ffffffffffffffffffffffffffffffffffffffff166000809054906101000a900473ffffffffffffffffffffffffffffffffffffffff1673ffffffffffffffffffffffffffffffffffffffff167f5c486528ec3e3f0ea91181cff8116f02bfa350e03b8b6f12e00765adbb5af85c60405160405180910390a360008060006101000a81548173ffffffffffffffffffffffffffffffffffffffff021916908373ffffffffffffffffffffffffffffffffffffffff160217905550565b61272e33613000565b151561273957600080fd5b61274281613b7d565b50565b60008060008060608060608060008061275c613fba565b600860008d8152602001908152602001600020610220604051908101604052908160008201548152602001600182015481526020016002820160009054906101000a900473ffffffffffffffffffffffffffffffffffffffff1673ffffffffffffffffffffffffffffffffffffffff1673ffffffffffffffffffffffffffffffffffffffff1681526020016003820160009054906101000a900473ffffffffffffffffffffffffffffffffffffffff1673ffffffffffffffffffffffffffffffffffffffff1673ffffffffffffffffffffffffffffffffffffffff168152602001600482018054600181600116156101000203166002900480601f0160208091040260200160405190810160405280929190818152602001828054600181600116156101000203166002900480156128d55780601f106128aa576101008083540402835291602001916128d5565b820191906000526020600020905b8154815290600101906020018083116128b857829003601f168201915b50505050508152602001600582018054600181600116156101000203166002900480601f0160208091040260200160405190810160405280929190818152602001828054600181600116156101000203166002900480156129775780601f1061294c57610100808354040283529160200191612977565b820191906000526020600020905b81548152906001019060200180831161295a57829003601f168201915b50505050508152602001600682018054600181600116156101000203166002900480601f016020809104026020016040519081016040528092919081815260200182805460018160011615610100020316600290048015612a195780601f106129ee57610100808354040283529160200191612a19565b820191906000526020600020905b8154815290600101906020018083116129fc57829003601f168201915b50505050508152602001600782018054600181600116156101000203166002900480601f016020809104026020016040519081016040528092919081815260200182805460018160011615610100020316600290048015612abb5780601f10612a9057610100808354040283529160200191612abb565b820191906000526020600020905b815481529060010190602001808311612a9e57829003601f168201915b5050505050815260200160088201548152602001600982018054600181600116156101000203166002900480601f016020809104026020016040519081016040528092919081815260200182805460018160011615610100020316600290048015612b675780601f10612b3c57610100808354040283529160200191612b67565b820191906000526020600020905b815481529060010190602001808311612b4a57829003601f168201915b50505050508152602001600a8201548152602001600b8201548152602001600c8201548152602001600d820160009054906101000a900460ff16600c811115612bac57fe5b600c811115612bb757fe5b8152602001600d820160019054906101000a900473ffffffffffffffffffffffffffffffffffffffff1673ffffffffffffffffffffffffffffffffffffffff1673ffffffffffffffffffffffffffffffffffffffff168152602001600e820160009054906101000a900473ffffffffffffffffffffffffffffffffffffffff1673ffffffffffffffffffffffffffffffffffffffff1673ffffffffffffffffffffffffffffffffffffffff168152602001600f820160009054906101000a900473ffffffffffffffffffffffffffffffffffffffff1673ffffffffffffffffffffffffffffffffffffffff1673ffffffffffffffffffffffffffffffffffffffff16815250509050806000015181602001518260400151836060015184608001518560a001518660c001518760e001518861014001518961018001518595508494508393508292509a509a509a509a509a509a509a509a509a509a50509193959799509193959799565b612d2a33613000565b1515612d3557600080fd5b806008600c811115612d4357fe5b60086000838152602001908152602001600020600d0160009054906101000a900460ff16600c811115612d7257fe5b141515612d7e57600080fd5b60086000838152602001908152602001600020600d0160019054906101000a900473ffffffffffffffffffffffffffffffffffffffff168073ffffffffffffffffffffffffffffffffffffffff163373ffffffffffffffffffffffffffffffffffffffff16141515612def57600080fd5b600960086000858152602001908152602001600020600d0160006101000a81548160ff0219169083600c811115612e2257fe5b02179055507fc5c33776d405e5686e4386e1ef31a65cf6195e4f7ceb8808ab64d05b6ccbc2a6836040518082815260200191505060405180910390a1505050565b6000612e79826004613a8f90919063ffffffff16565b9050919050565b612e8933613000565b1515612e9457600080fd5b816006600c811115612ea257fe5b60086000838152602001908152602001600020600d0160009054906101000a900460ff16600c811115612ed157fe5b141515612edd57600080fd5b6008600084815260200190815260200160002060020160009054906101000a900473ffffffffffffffffffffffffffffffffffffffff168073ffffffffffffffffffffffffffffffffffffffff163373ffffffffffffffffffffffffffffffffffffffff16141515612f4e57600080fd5b600760086000868152602001908152602001600020600d0160006101000a81548160ff0219169083600c811115612f8157fe5b02179055508260086000868152602001908152602001600020600b01819055507f539b4a835a8a5d1bc5756a9f146e2bfeaa6bd6b1fa77a7631c0a5154c86cdd036006546040518082815260200191505060405180910390a150505050565b612fe933612008565b1515612ff457600080fd5b612ffd81613bd7565b50565b6000613016826002613a8f90919063ffffffff16565b9050919050565b60008060009054906101000a900473ffffffffffffffffffffffffffffffffffffffff1673ffffffffffffffffffffffffffffffffffffffff163373ffffffffffffffffffffffffffffffffffffffff1614905090565b61307d33613000565b151561308857600080fd5b806005600c81111561309657fe5b60086000838152602001908152602001600020600d0160009054906101000a900460ff16600c8111156130c557fe5b1415156130d157600080fd5b6008600083815260200190815260200160002060020160009054906101000a900473ffffffffffffffffffffffffffffffffffffffff168073ffffffffffffffffffffffffffffffffffffffff163373ffffffffffffffffffffffffffffffffffffffff1614151561314257600080fd5b600660086000858152602001908152602001600020600d0160006101000a81548160ff0219169083600c81111561317557fe5b02179055507fe66bb55f536a4cc96647dde6ff37b712c07348eaa88366931f491d93c0fcd981836040518082815260200191505060405180910390a1505050565b60006131cc826001613a8f90919063ffffffff16565b9050919050565b6131dc33613c31565b565b6131e733612e63565b15156131f257600080fd5b80600b600c81111561320057fe5b60086000838152602001908152602001600020600d0160009054906101000a900460ff16600c81111561322f57fe5b14151561323b57600080fd5b60086000838152602001908152602001600020600b015480341015151561326157600080fd5b8233600060086000848152602001908152602001600020600b01549050600081340390508273ffffffffffffffffffffffffffffffffffffffff166108fc829081150290604051600060405180830381858888f193505050501580156132cb573d6000803e3d6000fd5b503360086000898152602001908152602001600020600f0160006101000a81548173ffffffffffffffffffffffffffffffffffffffff021916908373ffffffffffffffffffffffffffffffffffffffff1602179055506000613362600860008a8152602001908152602001600020600e0160009054906101000a900473ffffffffffffffffffffffffffffffffffffffff16613a2b565b90508073ffffffffffffffffffffffffffffffffffffffff166108fc600860008b8152602001908152602001600020600b01549081150290604051600060405180830381858888f193505050501580156133c0573d6000803e3d6000fd5b5033600860008a815260200190815260200160002060020160006101000a81548173ffffffffffffffffffffffffffffffffffffffff021916908373ffffffffffffffffffffffffffffffffffffffff16021790555033600860008a8152602001908152602001600020600f0160006101000a81548173ffffffffffffffffffffffffffffffffffffffff021916908373ffffffffffffffffffffffffffffffffffffffff160217905550600c600860008a8152602001908152602001600020600d0160006101000a81548160ff0219169083600c81111561349e57fe5b021790555043600960008a8152602001908152602001600020600201819055507fc7e94446a942a0541d0224ece380a730c85f03db7188fca783225da9255929f7886040518082815260200191505060405180910390a15050505050505050565b60008060009054906101000a900473ffffffffffffffffffffffffffffffffffffffff16905090565b61353133613000565b151561353c57600080fd5b816004600c81111561354a57fe5b60086000838152602001908152602001600020600d0160009054906101000a900460ff16600c81111561357957fe5b14151561358557600080fd5b6008600084815260200190815260200160002060020160009054906101000a900473ffffffffffffffffffffffffffffffffffffffff168073ffffffffffffffffffffffffffffffffffffffff163373ffffffffffffffffffffffffffffffffffffffff161415156135f657600080fd5b600560086000868152602001908152602001600020600d0160006101000a81548160ff0219169083600c81111561362957fe5b02179055508260086000868152602001908152602001600020600c01819055507f5725e53fd0efed5294b7db2af148f040264a63630b4deb0afbccf6e60830988a846040518082815260200191505060405180910390a150505050565b600560009054906101000a900473ffffffffffffffffffffffffffffffffffffffff1673ffffffffffffffffffffffffffffffffffffffff163373ffffffffffffffffffffffffffffffffffffffff161415156136e257600080fd5b6136eb81613c8b565b50565b6136f781613d85565b50565b61370333613000565b151561370e57600080fd5b806001600c81111561371c57fe5b60086000838152602001908152602001600020600d0160009054906101000a900460ff16600c81111561374b57fe5b14151561375757600080fd5b60086000838152602001908152602001600020600b015480341015151561377d57600080fd5b8233600060086000848152602001908152602001600020600b01549050600081340390508273ffffffffffffffffffffffffffffffffffffffff166108fc829081150290604051600060405180830381858888f193505050501580156137e7573d6000803e3d6000fd5b506000613829600860008a815260200190815260200160002060030160009054906101000a900473ffffffffffffffffffffffffffffffffffffffff16613a2b565b90508073ffffffffffffffffffffffffffffffffffffffff166108fc600860008b8152602001908152602001600020600b01549081150290604051600060405180830381858888f19350505050158015613887573d6000803e3d6000fd5b5033600860008a815260200190815260200160002060020160006101000a81548173ffffffffffffffffffffffffffffffffffffffff021916908373ffffffffffffffffffffffffffffffffffffffff16021790555033600860008a8152602001908152602001600020600d0160016101000a81548173ffffffffffffffffffffffffffffffffffffffff021916908373ffffffffffffffffffffffffffffffffffffffff1602179055506002600860008a8152602001908152602001600020600d0160006101000a81548160ff0219169083600c81111561396557fe5b021790555043600960008a8152602001908152602001600020600001819055507facd9402b9f9e8c15fa7c1819f8393ca56eb61316cc354fc6ac2150aed3ce7931886040518082815260200191505060405180910390a15050505050505050565b6139cf33613ddf565b565b6139e5816004613e3990919063ffffffff16565b8073ffffffffffffffffffffffffffffffffffffffff167f28b26e7a3d20aedbc5f8f2ebf7da671c0491723a2b78f47a097b0e46dee0714260405160405180910390a250565b6000819050919050565b613a49816001613e3990919063ffffffff16565b8073ffffffffffffffffffffffffffffffffffffffff167fc17db36ff5b6d3d05d63c4d52dc5df431b9763a912ce99d8847bc7bdb4589d2d60405160405180910390a250565b60008073ffffffffffffffffffffffffffffffffffffffff168273ffffffffffffffffffffffffffffffffffffffff1614151515613acc57600080fd5b8260000160008373ffffffffffffffffffffffffffffffffffffffff1673ffffffffffffffffffffffffffffffffffffffff16815260200190815260200160002060009054906101000a900460ff16905092915050565b613b37816002613ee990919063ffffffff16565b8073ffffffffffffffffffffffffffffffffffffffff167f126174f6cf49c81cdb4a9214c6b8f037bef55b4ec31e4fc776cea2a1c8a88d5960405160405180910390a250565b613b91816002613e3990919063ffffffff16565b8073ffffffffffffffffffffffffffffffffffffffff167fddbf200aa634dc3fb81cfd68583dd1040d1c751d335e1d86b631bde3e977fea860405160405180910390a250565b613beb816003613e3990919063ffffffff16565b8073ffffffffffffffffffffffffffffffffffffffff167f71ae26cad02663e3d92efd6ec56031a80d74a20c0ab4183faa8bf262261c9baa60405160405180910390a250565b613c45816003613ee990919063ffffffff16565b8073ffffffffffffffffffffffffffffffffffffffff167fdb7176e79cffef81cb01767dd0447a0b24bb72ca9778d4b245581086b2a7e6db60405160405180910390a250565b600073ffffffffffffffffffffffffffffffffffffffff168173ffffffffffffffffffffffffffffffffffffffff1614151515613cc757600080fd5b8073ffffffffffffffffffffffffffffffffffffffff166000809054906101000a900473ffffffffffffffffffffffffffffffffffffffff1673ffffffffffffffffffffffffffffffffffffffff167f5c486528ec3e3f0ea91181cff8116f02bfa350e03b8b6f12e00765adbb5af85c60405160405180910390a3806000806101000a81548173ffffffffffffffffffffffffffffffffffffffff021916908373ffffffffffffffffffffffffffffffffffffffff16021790555050565b613d99816004613ee990919063ffffffff16565b8073ffffffffffffffffffffffffffffffffffffffff167fe3f5ed5f263f1f01764a96edfc7d025f511ec5f7d180e8816908b78bcf74f09860405160405180910390a250565b613df3816001613ee990919063ffffffff16565b8073ffffffffffffffffffffffffffffffffffffffff167f74e50ebe0d8f15811119637829729a3b44ffc7242575f08ea332c8e3a300e2fd60405160405180910390a250565b600073ffffffffffffffffffffffffffffffffffffffff168173ffffffffffffffffffffffffffffffffffffffff1614151515613e7557600080fd5b613e7f8282613a8f565b151515613e8b57600080fd5b60018260000160008373ffffffffffffffffffffffffffffffffffffffff1673ffffffffffffffffffffffffffffffffffffffff16815260200190815260200160002060006101000a81548160ff0219169083151502179055505050565b600073ffffffffffffffffffffffffffffffffffffffff168173ffffffffffffffffffffffffffffffffffffffff1614151515613f2557600080fd5b613f2f8282613a8f565b1515613f3a57600080fd5b60008260000160008373ffffffffffffffffffffffffffffffffffffffff1673ffffffffffffffffffffffffffffffffffffffff16815260200190815260200160002060006101000a81548160ff0219169083151502179055505050565b6060604051908101604052806000815260200160008152602001600081525090565b610220604051908101604052806000815260200160008152602001600073ffffffffffffffffffffffffffffffffffffffff168152602001600073ffffffffffffffffffffffffffffffffffffffff1681526020016060815260200160608152602001606081526020016060815260200160008152602001606081526020016000815260200160008152602001600081526020016000600c81111561405b57fe5b8152602001600073ffffffffffffffffffffffffffffffffffffffff168152602001600073ffffffffffffffffffffffffffffffffffffffff168152602001600073ffffffffffffffffffffffffffffffffffffffff1681525090565b828054600181600116156101000203166002900490600052602060002090601f016020900481019282601f106140f957805160ff1916838001178555614127565b82800160010185558215614127579182015b8281111561412657825182559160200191906001019061410b565b5b5090506141349190614138565b5090565b61415a91905b8082111561415657600081600090555060010161413e565b5090565b9056fea165627a7a723058209924d499035372d22d06c09199e62a3fe2b99a48de9615ad6c91df7f9a5f4cfd0029",
					"opcodes": "PUSH1 0x80 PUSH1 0x40 MSTORE CALLER PUSH1 0x0 DUP1 PUSH2 0x100 EXP DUP2 SLOAD DUP2 PUSH20 0xFFFFFFFFFFFFFFFFFFFFFFFFFFFFFFFFFFFFFFFF MUL NOT AND SWAP1 DUP4 PUSH20 0xFFFFFFFFFFFFFFFFFFFFFFFFFFFFFFFFFFFFFFFF AND MUL OR SWAP1 SSTORE POP PUSH1 0x0 DUP1 SWAP1 SLOAD SWAP1 PUSH2 0x100 EXP SWAP1 DIV PUSH20 0xFFFFFFFFFFFFFFFFFFFFFFFFFFFFFFFFFFFFFFFF AND PUSH20 0xFFFFFFFFFFFFFFFFFFFFFFFFFFFFFFFFFFFFFFFF AND PUSH1 0x0 PUSH20 0xFFFFFFFFFFFFFFFFFFFFFFFFFFFFFFFFFFFFFFFF AND PUSH32 0x5C486528EC3E3F0EA91181CFF8116F02BFA350E03B8B6F12E00765ADBB5AF85C PUSH1 0x40 MLOAD PUSH1 0x40 MLOAD DUP1 SWAP2 SUB SWAP1 LOG3 PUSH3 0xDA CALLER PUSH3 0x17F PUSH5 0x100000000 MUL PUSH5 0x100000000 SWAP1 DIV JUMP JUMPDEST PUSH3 0xF4 CALLER PUSH3 0x1E9 PUSH5 0x100000000 MUL PUSH5 0x100000000 SWAP1 DIV JUMP JUMPDEST PUSH3 0x10E CALLER PUSH3 0x253 PUSH5 0x100000000 MUL PUSH5 0x100000000 SWAP1 DIV JUMP JUMPDEST PUSH3 0x128 CALLER PUSH3 0x2BD PUSH5 0x100000000 MUL PUSH5 0x100000000 SWAP1 DIV JUMP JUMPDEST CALLER PUSH1 0x5 PUSH1 0x0 PUSH2 0x100 EXP DUP2 SLOAD DUP2 PUSH20 0xFFFFFFFFFFFFFFFFFFFFFFFFFFFFFFFFFFFFFFFF MUL NOT AND SWAP1 DUP4 PUSH20 0xFFFFFFFFFFFFFFFFFFFFFFFFFFFFFFFFFFFFFFFF AND MUL OR SWAP1 SSTORE POP PUSH1 0x1 PUSH1 0x7 DUP2 SWAP1 SSTORE POP PUSH1 0x1 PUSH1 0x6 DUP2 SWAP1 SSTORE POP PUSH3 0x47F JUMP JUMPDEST PUSH3 0x1A3 DUP2 PUSH1 0x1 PUSH3 0x327 PUSH5 0x100000000 MUL PUSH3 0x3E39 OR SWAP1 SWAP2 SWAP1 PUSH5 0x100000000 SWAP1 DIV JUMP JUMPDEST DUP1 PUSH20 0xFFFFFFFFFFFFFFFFFFFFFFFFFFFFFFFFFFFFFFFF AND PUSH32 0xC17DB36FF5B6D3D05D63C4D52DC5DF431B9763A912CE99D8847BC7BDB4589D2D PUSH1 0x40 MLOAD PUSH1 0x40 MLOAD DUP1 SWAP2 SUB SWAP1 LOG2 POP JUMP JUMPDEST PUSH3 0x20D DUP2 PUSH1 0x2 PUSH3 0x327 PUSH5 0x100000000 MUL PUSH3 0x3E39 OR SWAP1 SWAP2 SWAP1 PUSH5 0x100000000 SWAP1 DIV JUMP JUMPDEST DUP1 PUSH20 0xFFFFFFFFFFFFFFFFFFFFFFFFFFFFFFFFFFFFFFFF AND PUSH32 0xDDBF200AA634DC3FB81CFD68583DD1040D1C751D335E1D86B631BDE3E977FEA8 PUSH1 0x40 MLOAD PUSH1 0x40 MLOAD DUP1 SWAP2 SUB SWAP1 LOG2 POP JUMP JUMPDEST PUSH3 0x277 DUP2 PUSH1 0x3 PUSH3 0x327 PUSH5 0x100000000 MUL PUSH3 0x3E39 OR SWAP1 SWAP2 SWAP1 PUSH5 0x100000000 SWAP1 DIV JUMP JUMPDEST DUP1 PUSH20 0xFFFFFFFFFFFFFFFFFFFFFFFFFFFFFFFFFFFFFFFF AND PUSH32 0x71AE26CAD02663E3D92EFD6EC56031A80D74A20C0AB4183FAA8BF262261C9BAA PUSH1 0x40 MLOAD PUSH1 0x40 MLOAD DUP1 SWAP2 SUB SWAP1 LOG2 POP JUMP JUMPDEST PUSH3 0x2E1 DUP2 PUSH1 0x4 PUSH3 0x327 PUSH5 0x100000000 MUL PUSH3 0x3E39 OR SWAP1 SWAP2 SWAP1 PUSH5 0x100000000 SWAP1 DIV JUMP JUMPDEST DUP1 PUSH20 0xFFFFFFFFFFFFFFFFFFFFFFFFFFFFFFFFFFFFFFFF AND PUSH32 0x28B26E7A3D20AEDBC5F8F2EBF7DA671C0491723A2B78F47A097B0E46DEE07142 PUSH1 0x40 MLOAD PUSH1 0x40 MLOAD DUP1 SWAP2 SUB SWAP1 LOG2 POP JUMP JUMPDEST PUSH1 0x0 PUSH20 0xFFFFFFFFFFFFFFFFFFFFFFFFFFFFFFFFFFFFFFFF AND DUP2 PUSH20 0xFFFFFFFFFFFFFFFFFFFFFFFFFFFFFFFFFFFFFFFF AND EQ ISZERO ISZERO ISZERO PUSH3 0x364 JUMPI PUSH1 0x0 DUP1 REVERT JUMPDEST PUSH3 0x37F DUP3 DUP3 PUSH3 0x3EA PUSH5 0x100000000 MUL PUSH5 0x100000000 SWAP1 DIV JUMP JUMPDEST ISZERO ISZERO ISZERO PUSH3 0x38C JUMPI PUSH1 0x0 DUP1 REVERT JUMPDEST PUSH1 0x1 DUP3 PUSH1 0x0 ADD PUSH1 0x0 DUP4 PUSH20 0xFFFFFFFFFFFFFFFFFFFFFFFFFFFFFFFFFFFFFFFF AND PUSH20 0xFFFFFFFFFFFFFFFFFFFFFFFFFFFFFFFFFFFFFFFF AND DUP2 MSTORE PUSH1 0x20 ADD SWAP1 DUP2 MSTORE PUSH1 0x20 ADD PUSH1 0x0 KECCAK256 PUSH1 0x0 PUSH2 0x100 EXP DUP2 SLOAD DUP2 PUSH1 0xFF MUL NOT AND SWAP1 DUP4 ISZERO ISZERO MUL OR SWAP1 SSTORE POP POP POP JUMP JUMPDEST PUSH1 0x0 DUP1 PUSH20 0xFFFFFFFFFFFFFFFFFFFFFFFFFFFFFFFFFFFFFFFF AND DUP3 PUSH20 0xFFFFFFFFFFFFFFFFFFFFFFFFFFFFFFFFFFFFFFFF AND EQ ISZERO ISZERO ISZERO PUSH3 0x428 JUMPI PUSH1 0x0 DUP1 REVERT JUMPDEST DUP3 PUSH1 0x0 ADD PUSH1 0x0 DUP4 PUSH20 0xFFFFFFFFFFFFFFFFFFFFFFFFFFFFFFFFFFFFFFFF AND PUSH20 0xFFFFFFFFFFFFFFFFFFFFFFFFFFFFFFFFFFFFFFFF AND DUP2 MSTORE PUSH1 0x20 ADD SWAP1 DUP2 MSTORE PUSH1 0x20 ADD PUSH1 0x0 KECCAK256 PUSH1 0x0 SWAP1 SLOAD SWAP1 PUSH2 0x100 EXP SWAP1 DIV PUSH1 0xFF AND SWAP1 POP SWAP3 SWAP2 POP POP JUMP JUMPDEST PUSH2 0x4189 DUP1 PUSH3 0x48F PUSH1 0x0 CODECOPY PUSH1 0x0 RETURN INVALID PUSH1 0x80 PUSH1 0x40 MSTORE PUSH1 0x4 CALLDATASIZE LT PUSH2 0x1A1 JUMPI PUSH1 0x0 CALLDATALOAD PUSH29 0x100000000000000000000000000000000000000000000000000000000 SWAP1 DIV PUSH4 0xFFFFFFFF AND DUP1 PUSH4 0x112940F9 EQ PUSH2 0x1A6 JUMPI DUP1 PUSH4 0x1154501C EQ PUSH2 0x1F7 JUMPI DUP1 PUSH4 0x1D116EDF EQ PUSH2 0x254 JUMPI DUP1 PUSH4 0x22F11212 EQ PUSH2 0x282 JUMPI DUP1 PUSH4 0x24CB1669 EQ PUSH2 0x2C7 JUMPI DUP1 PUSH4 0x26D529B4 EQ PUSH2 0x302 JUMPI DUP1 PUSH4 0x37B2F92C EQ PUSH2 0x330 JUMPI DUP1 PUSH4 0x40B74C38 EQ PUSH2 0x36B JUMPI DUP1 PUSH4 0x41C0E1B5 EQ PUSH2 0x3BC JUMPI DUP1 PUSH4 0x4F974166 EQ PUSH2 0x3D3 JUMPI DUP1 PUSH4 0x546EB586 EQ PUSH2 0x70B JUMPI DUP1 PUSH4 0x5DA09B88 EQ PUSH2 0x750 JUMPI DUP1 PUSH4 0x644241DB EQ PUSH2 0x7B9 JUMPI DUP1 PUSH4 0x66225FF9 EQ PUSH2 0x7D0 JUMPI DUP1 PUSH4 0x715018A6 EQ PUSH2 0x955 JUMPI DUP1 PUSH4 0x7250E224 EQ PUSH2 0x96C JUMPI DUP1 PUSH4 0x77C45913 EQ PUSH2 0x9BD JUMPI DUP1 PUSH4 0x82E831EC EQ PUSH2 0xC37 JUMPI DUP1 PUSH4 0x834FF739 EQ PUSH2 0xC72 JUMPI DUP1 PUSH4 0x8ADFF8BA EQ PUSH2 0xCDB JUMPI DUP1 PUSH4 0x8EC4F505 EQ PUSH2 0xD20 JUMPI DUP1 PUSH4 0x8F0C86FA EQ PUSH2 0xD71 JUMPI DUP1 PUSH4 0x8F32D59B EQ PUSH2 0xDDA JUMPI DUP1 PUSH4 0x91541355 EQ PUSH2 0xE09 JUMPI DUP1 PUSH4 0xC7EF882C EQ PUSH2 0xE44 JUMPI DUP1 PUSH4 0xDB0E6A2F EQ PUSH2 0xEAD JUMPI DUP1 PUSH4 0xDF74DC3A EQ PUSH2 0xEC4 JUMPI DUP1 PUSH4 0xE02E64EA EQ PUSH2 0xEF2 JUMPI DUP1 PUSH4 0xEAB7D6E8 EQ PUSH2 0xF49 JUMPI DUP1 PUSH4 0xF2FDE38B EQ PUSH2 0xF8E JUMPI DUP1 PUSH4 0xF487D48D EQ PUSH2 0xFDF JUMPI DUP1 PUSH4 0xFDCDC06F EQ PUSH2 0x1030 JUMPI DUP1 PUSH4 0xFFEB4D33 EQ PUSH2 0x105E JUMPI JUMPDEST PUSH1 0x0 DUP1 REVERT JUMPDEST CALLVALUE DUP1 ISZERO PUSH2 0x1B2 JUMPI PUSH1 0x0 DUP1 REVERT JUMPDEST POP PUSH2 0x1F5 PUSH1 0x4 DUP1 CALLDATASIZE SUB PUSH1 0x20 DUP2 LT ISZERO PUSH2 0x1C9 JUMPI PUSH1 0x0 DUP1 REVERT JUMPDEST DUP2 ADD SWAP1 DUP1 DUP1 CALLDATALOAD PUSH20 0xFFFFFFFFFFFFFFFFFFFFFFFFFFFFFFFFFFFFFFFF AND SWAP1 PUSH1 0x20 ADD SWAP1 SWAP3 SWAP2 SWAP1 POP POP POP PUSH2 0x1075 JUMP JUMPDEST STOP JUMPDEST CALLVALUE DUP1 ISZERO PUSH2 0x203 JUMPI PUSH1 0x0 DUP1 REVERT JUMPDEST POP PUSH2 0x230 PUSH1 0x4 DUP1 CALLDATASIZE SUB PUSH1 0x20 DUP2 LT ISZERO PUSH2 0x21A JUMPI PUSH1 0x0 DUP1 REVERT JUMPDEST DUP2 ADD SWAP1 DUP1 DUP1 CALLDATALOAD SWAP1 PUSH1 0x20 ADD SWAP1 SWAP3 SWAP2 SWAP1 POP POP POP PUSH2 0x1095 JUMP JUMPDEST PUSH1 0x40 MLOAD DUP1 DUP5 DUP2 MSTORE PUSH1 0x20 ADD DUP4 DUP2 MSTORE PUSH1 0x20 ADD DUP3 DUP2 MSTORE PUSH1 0x20 ADD SWAP4 POP POP POP POP PUSH1 0x40 MLOAD DUP1 SWAP2 SUB SWAP1 RETURN JUMPDEST PUSH2 0x280 PUSH1 0x4 DUP1 CALLDATASIZE SUB PUSH1 0x20 DUP2 LT ISZERO PUSH2 0x26A JUMPI PUSH1 0x0 DUP1 REVERT JUMPDEST DUP2 ADD SWAP1 DUP1 DUP1 CALLDATALOAD SWAP1 PUSH1 0x20 ADD SWAP1 SWAP3 SWAP2 SWAP1 POP POP POP PUSH2 0x10FE JUMP JUMPDEST STOP JUMPDEST CALLVALUE DUP1 ISZERO PUSH2 0x28E JUMPI PUSH1 0x0 DUP1 REVERT JUMPDEST POP PUSH2 0x2C5 PUSH1 0x4 DUP1 CALLDATASIZE SUB PUSH1 0x40 DUP2 LT ISZERO PUSH2 0x2A5 JUMPI PUSH1 0x0 DUP1 REVERT JUMPDEST DUP2 ADD SWAP1 DUP1 DUP1 CALLDATALOAD SWAP1 PUSH1 0x20 ADD SWAP1 SWAP3 SWAP2 SWAP1 DUP1 CALLDATALOAD SWAP1 PUSH1 0x20 ADD SWAP1 SWAP3 SWAP2 SWAP1 POP POP POP PUSH2 0x1240 JUMP JUMPDEST STOP JUMPDEST CALLVALUE DUP1 ISZERO PUSH2 0x2D3 JUMPI PUSH1 0x0 DUP1 REVERT JUMPDEST POP PUSH2 0x300 PUSH1 0x4 DUP1 CALLDATASIZE SUB PUSH1 0x20 DUP2 LT ISZERO PUSH2 0x2EA JUMPI PUSH1 0x0 DUP1 REVERT JUMPDEST DUP2 ADD SWAP1 DUP1 DUP1 CALLDATALOAD SWAP1 PUSH1 0x20 ADD SWAP1 SWAP3 SWAP2 SWAP1 POP POP POP PUSH2 0x139E JUMP JUMPDEST STOP JUMPDEST PUSH2 0x32E PUSH1 0x4 DUP1 CALLDATASIZE SUB PUSH1 0x20 DUP2 LT ISZERO PUSH2 0x318 JUMPI PUSH1 0x0 DUP1 REVERT JUMPDEST DUP2 ADD SWAP1 DUP1 DUP1 CALLDATALOAD SWAP1 PUSH1 0x20 ADD SWAP1 SWAP3 SWAP2 SWAP1 POP POP POP PUSH2 0x14E0 JUMP JUMPDEST STOP JUMPDEST CALLVALUE DUP1 ISZERO PUSH2 0x33C JUMPI PUSH1 0x0 DUP1 REVERT JUMPDEST POP PUSH2 0x369 PUSH1 0x4 DUP1 CALLDATASIZE SUB PUSH1 0x20 DUP2 LT ISZERO PUSH2 0x353 JUMPI PUSH1 0x0 DUP1 REVERT JUMPDEST DUP2 ADD SWAP1 DUP1 DUP1 CALLDATALOAD SWAP1 PUSH1 0x20 ADD SWAP1 SWAP3 SWAP2 SWAP1 POP POP POP PUSH2 0x17AB JUMP JUMPDEST STOP JUMPDEST CALLVALUE DUP1 ISZERO PUSH2 0x377 JUMPI PUSH1 0x0 DUP1 REVERT JUMPDEST POP PUSH2 0x3BA PUSH1 0x4 DUP1 CALLDATASIZE SUB PUSH1 0x20 DUP2 LT ISZERO PUSH2 0x38E JUMPI PUSH1 0x0 DUP1 REVERT JUMPDEST DUP2 ADD SWAP1 DUP1 DUP1 CALLDATALOAD PUSH20 0xFFFFFFFFFFFFFFFFFFFFFFFFFFFFFFFFFFFFFFFF AND SWAP1 PUSH1 0x20 ADD SWAP1 SWAP3 SWAP2 SWAP1 POP POP POP PUSH2 0x18ED JUMP JUMPDEST STOP JUMPDEST CALLVALUE DUP1 ISZERO PUSH2 0x3C8 JUMPI PUSH1 0x0 DUP1 REVERT JUMPDEST POP PUSH2 0x3D1 PUSH2 0x190D JUMP JUMPDEST STOP JUMPDEST CALLVALUE DUP1 ISZERO PUSH2 0x3DF JUMPI PUSH1 0x0 DUP1 REVERT JUMPDEST POP PUSH2 0x709 PUSH1 0x4 DUP1 CALLDATASIZE SUB PUSH1 0xE0 DUP2 LT ISZERO PUSH2 0x3F6 JUMPI PUSH1 0x0 DUP1 REVERT JUMPDEST DUP2 ADD SWAP1 DUP1 DUP1 CALLDATALOAD SWAP1 PUSH1 0x20 ADD SWAP1 SWAP3 SWAP2 SWAP1 DUP1 CALLDATALOAD SWAP1 PUSH1 0x20 ADD SWAP1 PUSH5 0x100000000 DUP2 GT ISZERO PUSH2 0x41D JUMPI PUSH1 0x0 DUP1 REVERT JUMPDEST DUP3 ADD DUP4 PUSH1 0x20 DUP3 ADD GT ISZERO PUSH2 0x42F JUMPI PUSH1 0x0 DUP1 REVERT JUMPDEST DUP1 CALLDATALOAD SWAP1 PUSH1 0x20 ADD SWAP2 DUP5 PUSH1 0x1 DUP4 MUL DUP5 ADD GT PUSH5 0x100000000 DUP4 GT OR ISZERO PUSH2 0x451 JUMPI PUSH1 0x0 DUP1 REVERT JUMPDEST SWAP2 SWAP1 DUP1 DUP1 PUSH1 0x1F ADD PUSH1 0x20 DUP1 SWAP2 DIV MUL PUSH1 0x20 ADD PUSH1 0x40 MLOAD SWAP1 DUP2 ADD PUSH1 0x40 MSTORE DUP1 SWAP4 SWAP3 SWAP2 SWAP1 DUP2 DUP2 MSTORE PUSH1 0x20 ADD DUP4 DUP4 DUP1 DUP3 DUP5 CALLDATACOPY PUSH1 0x0 DUP2 DUP5 ADD MSTORE PUSH1 0x1F NOT PUSH1 0x1F DUP3 ADD AND SWAP1 POP DUP1 DUP4 ADD SWAP3 POP POP POP POP POP POP POP SWAP2 SWAP3 SWAP2 SWAP3 SWAP1 DUP1 CALLDATALOAD SWAP1 PUSH1 0x20 ADD SWAP1 PUSH5 0x100000000 DUP2 GT ISZERO PUSH2 0x4B4 JUMPI PUSH1 0x0 DUP1 REVERT JUMPDEST DUP3 ADD DUP4 PUSH1 0x20 DUP3 ADD GT ISZERO PUSH2 0x4C6 JUMPI PUSH1 0x0 DUP1 REVERT JUMPDEST DUP1 CALLDATALOAD SWAP1 PUSH1 0x20 ADD SWAP2 DUP5 PUSH1 0x1 DUP4 MUL DUP5 ADD GT PUSH5 0x100000000 DUP4 GT OR ISZERO PUSH2 0x4E8 JUMPI PUSH1 0x0 DUP1 REVERT JUMPDEST SWAP2 SWAP1 DUP1 DUP1 PUSH1 0x1F ADD PUSH1 0x20 DUP1 SWAP2 DIV MUL PUSH1 0x20 ADD PUSH1 0x40 MLOAD SWAP1 DUP2 ADD PUSH1 0x40 MSTORE DUP1 SWAP4 SWAP3 SWAP2 SWAP1 DUP2 DUP2 MSTORE PUSH1 0x20 ADD DUP4 DUP4 DUP1 DUP3 DUP5 CALLDATACOPY PUSH1 0x0 DUP2 DUP5 ADD MSTORE PUSH1 0x1F NOT PUSH1 0x1F DUP3 ADD AND SWAP1 POP DUP1 DUP4 ADD SWAP3 POP POP POP POP POP POP POP SWAP2 SWAP3 SWAP2 SWAP3 SWAP1 DUP1 CALLDATALOAD SWAP1 PUSH1 0x20 ADD SWAP1 PUSH5 0x100000000 DUP2 GT ISZERO PUSH2 0x54B JUMPI PUSH1 0x0 DUP1 REVERT JUMPDEST DUP3 ADD DUP4 PUSH1 0x20 DUP3 ADD GT ISZERO PUSH2 0x55D JUMPI PUSH1 0x0 DUP1 REVERT JUMPDEST DUP1 CALLDATALOAD SWAP1 PUSH1 0x20 ADD SWAP2 DUP5 PUSH1 0x1 DUP4 MUL DUP5 ADD GT PUSH5 0x100000000 DUP4 GT OR ISZERO PUSH2 0x57F JUMPI PUSH1 0x0 DUP1 REVERT JUMPDEST SWAP2 SWAP1 DUP1 DUP1 PUSH1 0x1F ADD PUSH1 0x20 DUP1 SWAP2 DIV MUL PUSH1 0x20 ADD PUSH1 0x40 MLOAD SWAP1 DUP2 ADD PUSH1 0x40 MSTORE DUP1 SWAP4 SWAP3 SWAP2 SWAP1 DUP2 DUP2 MSTORE PUSH1 0x20 ADD DUP4 DUP4 DUP1 DUP3 DUP5 CALLDATACOPY PUSH1 0x0 DUP2 DUP5 ADD MSTORE PUSH1 0x1F NOT PUSH1 0x1F DUP3 ADD AND SWAP1 POP DUP1 DUP4 ADD SWAP3 POP POP POP POP POP POP POP SWAP2 SWAP3 SWAP2 SWAP3 SWAP1 DUP1 CALLDATALOAD SWAP1 PUSH1 0x20 ADD SWAP1 PUSH5 0x100000000 DUP2 GT ISZERO PUSH2 0x5E2 JUMPI PUSH1 0x0 DUP1 REVERT JUMPDEST DUP3 ADD DUP4 PUSH1 0x20 DUP3 ADD GT ISZERO PUSH2 0x5F4 JUMPI PUSH1 0x0 DUP1 REVERT JUMPDEST DUP1 CALLDATALOAD SWAP1 PUSH1 0x20 ADD SWAP2 DUP5 PUSH1 0x1 DUP4 MUL DUP5 ADD GT PUSH5 0x100000000 DUP4 GT OR ISZERO PUSH2 0x616 JUMPI PUSH1 0x0 DUP1 REVERT JUMPDEST SWAP2 SWAP1 DUP1 DUP1 PUSH1 0x1F ADD PUSH1 0x20 DUP1 SWAP2 DIV MUL PUSH1 0x20 ADD PUSH1 0x40 MLOAD SWAP1 DUP2 ADD PUSH1 0x40 MSTORE DUP1 SWAP4 SWAP3 SWAP2 SWAP1 DUP2 DUP2 MSTORE PUSH1 0x20 ADD DUP4 DUP4 DUP1 DUP3 DUP5 CALLDATACOPY PUSH1 0x0 DUP2 DUP5 ADD MSTORE PUSH1 0x1F NOT PUSH1 0x1F DUP3 ADD AND SWAP1 POP DUP1 DUP4 ADD SWAP3 POP POP POP POP POP POP POP SWAP2 SWAP3 SWAP2 SWAP3 SWAP1 DUP1 CALLDATALOAD SWAP1 PUSH1 0x20 ADD SWAP1 PUSH5 0x100000000 DUP2 GT ISZERO PUSH2 0x679 JUMPI PUSH1 0x0 DUP1 REVERT JUMPDEST DUP3 ADD DUP4 PUSH1 0x20 DUP3 ADD GT ISZERO PUSH2 0x68B JUMPI PUSH1 0x0 DUP1 REVERT JUMPDEST DUP1 CALLDATALOAD SWAP1 PUSH1 0x20 ADD SWAP2 DUP5 PUSH1 0x1 DUP4 MUL DUP5 ADD GT PUSH5 0x100000000 DUP4 GT OR ISZERO PUSH2 0x6AD JUMPI PUSH1 0x0 DUP1 REVERT JUMPDEST SWAP2 SWAP1 DUP1 DUP1 PUSH1 0x1F ADD PUSH1 0x20 DUP1 SWAP2 DIV MUL PUSH1 0x20 ADD PUSH1 0x40 MLOAD SWAP1 DUP2 ADD PUSH1 0x40 MSTORE DUP1 SWAP4 SWAP3 SWAP2 SWAP1 DUP2 DUP2 MSTORE PUSH1 0x20 ADD DUP4 DUP4 DUP1 DUP3 DUP5 CALLDATACOPY PUSH1 0x0 DUP2 DUP5 ADD MSTORE PUSH1 0x1F NOT PUSH1 0x1F DUP3 ADD AND SWAP1 POP DUP1 DUP4 ADD SWAP3 POP POP POP POP POP POP POP SWAP2 SWAP3 SWAP2 SWAP3 SWAP1 DUP1 CALLDATALOAD SWAP1 PUSH1 0x20 ADD SWAP1 SWAP3 SWAP2 SWAP1 POP POP POP PUSH2 0x19AD JUMP JUMPDEST STOP JUMPDEST CALLVALUE DUP1 ISZERO PUSH2 0x717 JUMPI PUSH1 0x0 DUP1 REVERT JUMPDEST POP PUSH2 0x74E PUSH1 0x4 DUP1 CALLDATASIZE SUB PUSH1 0x40 DUP2 LT ISZERO PUSH2 0x72E JUMPI PUSH1 0x0 DUP1 REVERT JUMPDEST DUP2 ADD SWAP1 DUP1 DUP1 CALLDATALOAD SWAP1 PUSH1 0x20 ADD SWAP1 SWAP3 SWAP2 SWAP1 DUP1 CALLDATALOAD SWAP1 PUSH1 0x20 ADD SWAP1 SWAP3 SWAP2 SWAP1 POP POP POP PUSH2 0x1EAA JUMP JUMPDEST STOP JUMPDEST CALLVALUE DUP1 ISZERO PUSH2 0x75C JUMPI PUSH1 0x0 DUP1 REVERT JUMPDEST POP PUSH2 0x79F PUSH1 0x4 DUP1 CALLDATASIZE SUB PUSH1 0x20 DUP2 LT ISZERO PUSH2 0x773 JUMPI PUSH1 0x0 DUP1 REVERT JUMPDEST DUP2 ADD SWAP1 DUP1 DUP1 CALLDATALOAD PUSH20 0xFFFFFFFFFFFFFFFFFFFFFFFFFFFFFFFFFFFFFFFF AND SWAP1 PUSH1 0x20 ADD SWAP1 SWAP3 SWAP2 SWAP1 POP POP POP PUSH2 0x2008 JUMP JUMPDEST PUSH1 0x40 MLOAD DUP1 DUP3 ISZERO ISZERO ISZERO ISZERO DUP2 MSTORE PUSH1 0x20 ADD SWAP2 POP POP PUSH1 0x40 MLOAD DUP1 SWAP2 SUB SWAP1 RETURN JUMPDEST CALLVALUE DUP1 ISZERO PUSH2 0x7C5 JUMPI PUSH1 0x0 DUP1 REVERT JUMPDEST POP PUSH2 0x7CE PUSH2 0x2025 JUMP JUMPDEST STOP JUMPDEST CALLVALUE DUP1 ISZERO PUSH2 0x7DC JUMPI PUSH1 0x0 DUP1 REVERT JUMPDEST POP PUSH2 0x809 PUSH1 0x4 DUP1 CALLDATASIZE SUB PUSH1 0x20 DUP2 LT ISZERO PUSH2 0x7F3 JUMPI PUSH1 0x0 DUP1 REVERT JUMPDEST DUP2 ADD SWAP1 DUP1 DUP1 CALLDATALOAD SWAP1 PUSH1 0x20 ADD SWAP1 SWAP3 SWAP2 SWAP1 POP POP POP PUSH2 0x2030 JUMP JUMPDEST PUSH1 0x40 MLOAD DUP1 DUP12 DUP2 MSTORE PUSH1 0x20 ADD DUP11 DUP2 MSTORE PUSH1 0x20 ADD DUP10 DUP2 MSTORE PUSH1 0x20 ADD DUP1 PUSH1 0x20 ADD DUP9 DUP2 MSTORE PUSH1 0x20 ADD DUP8 DUP2 MSTORE PUSH1 0x20 ADD DUP7 PUSH1 0xC DUP2 GT ISZERO PUSH2 0x83B JUMPI INVALID JUMPDEST PUSH1 0xFF AND DUP2 MSTORE PUSH1 0x20 ADD DUP6 PUSH20 0xFFFFFFFFFFFFFFFFFFFFFFFFFFFFFFFFFFFFFFFF AND PUSH20 0xFFFFFFFFFFFFFFFFFFFFFFFFFFFFFFFFFFFFFFFF AND DUP2 MSTORE PUSH1 0x20 ADD DUP5 PUSH20 0xFFFFFFFFFFFFFFFFFFFFFFFFFFFFFFFFFFFFFFFF AND PUSH20 0xFFFFFFFFFFFFFFFFFFFFFFFFFFFFFFFFFFFFFFFF AND DUP2 MSTORE PUSH1 0x20 ADD DUP4 PUSH20 0xFFFFFFFFFFFFFFFFFFFFFFFFFFFFFFFFFFFFFFFF AND PUSH20 0xFFFFFFFFFFFFFFFFFFFFFFFFFFFFFFFFFFFFFFFF AND DUP2 MSTORE PUSH1 0x20 ADD DUP3 DUP2 SUB DUP3 MSTORE DUP10 DUP2 DUP2 MLOAD DUP2 MSTORE PUSH1 0x20 ADD SWAP2 POP DUP1 MLOAD SWAP1 PUSH1 0x20 ADD SWAP1 DUP1 DUP4 DUP4 PUSH1 0x0 JUMPDEST DUP4 DUP2 LT ISZERO PUSH2 0x911 JUMPI DUP1 DUP3 ADD MLOAD DUP2 DUP5 ADD MSTORE PUSH1 0x20 DUP2 ADD SWAP1 POP PUSH2 0x8F6 JUMP JUMPDEST POP POP POP POP SWAP1 POP SWAP1 DUP2 ADD SWAP1 PUSH1 0x1F AND DUP1 ISZERO PUSH2 0x93E JUMPI DUP1 DUP3 SUB DUP1 MLOAD PUSH1 0x1 DUP4 PUSH1 0x20 SUB PUSH2 0x100 EXP SUB NOT AND DUP2 MSTORE PUSH1 0x20 ADD SWAP2 POP JUMPDEST POP SWAP12 POP POP POP POP POP POP POP POP POP POP POP POP PUSH1 0x40 MLOAD DUP1 SWAP2 SUB SWAP1 RETURN JUMPDEST CALLVALUE DUP1 ISZERO PUSH2 0x961 JUMPI PUSH1 0x0 DUP1 REVERT JUMPDEST POP PUSH2 0x96A PUSH2 0x260A JUMP JUMPDEST STOP JUMPDEST CALLVALUE DUP1 ISZERO PUSH2 0x978 JUMPI PUSH1 0x0 DUP1 REVERT JUMPDEST POP PUSH2 0x9BB PUSH1 0x4 DUP1 CALLDATASIZE SUB PUSH1 0x20 DUP2 LT ISZERO PUSH2 0x98F JUMPI PUSH1 0x0 DUP1 REVERT JUMPDEST DUP2 ADD SWAP1 DUP1 DUP1 CALLDATALOAD PUSH20 0xFFFFFFFFFFFFFFFFFFFFFFFFFFFFFFFFFFFFFFFF AND SWAP1 PUSH1 0x20 ADD SWAP1 SWAP3 SWAP2 SWAP1 POP POP POP PUSH2 0x2725 JUMP JUMPDEST STOP JUMPDEST CALLVALUE DUP1 ISZERO PUSH2 0x9C9 JUMPI PUSH1 0x0 DUP1 REVERT JUMPDEST POP PUSH2 0x9F6 PUSH1 0x4 DUP1 CALLDATASIZE SUB PUSH1 0x20 DUP2 LT ISZERO PUSH2 0x9E0 JUMPI PUSH1 0x0 DUP1 REVERT JUMPDEST DUP2 ADD SWAP1 DUP1 DUP1 CALLDATALOAD SWAP1 PUSH1 0x20 ADD SWAP1 SWAP3 SWAP2 SWAP1 POP POP POP PUSH2 0x2745 JUMP JUMPDEST PUSH1 0x40 MLOAD DUP1 DUP12 DUP2 MSTORE PUSH1 0x20 ADD DUP11 DUP2 MSTORE PUSH1 0x20 ADD DUP10 PUSH20 0xFFFFFFFFFFFFFFFFFFFFFFFFFFFFFFFFFFFFFFFF AND PUSH20 0xFFFFFFFFFFFFFFFFFFFFFFFFFFFFFFFFFFFFFFFF AND DUP2 MSTORE PUSH1 0x20 ADD DUP9 PUSH20 0xFFFFFFFFFFFFFFFFFFFFFFFFFFFFFFFFFFFFFFFF AND PUSH20 0xFFFFFFFFFFFFFFFFFFFFFFFFFFFFFFFFFFFFFFFF AND DUP2 MSTORE PUSH1 0x20 ADD DUP1 PUSH1 0x20 ADD DUP1 PUSH1 0x20 ADD DUP1 PUSH1 0x20 ADD DUP1 PUSH1 0x20 ADD DUP8 DUP2 MSTORE PUSH1 0x20 ADD DUP7 DUP2 MSTORE PUSH1 0x20 ADD DUP6 DUP2 SUB DUP6 MSTORE DUP12 DUP2 DUP2 MLOAD DUP2 MSTORE PUSH1 0x20 ADD SWAP2 POP DUP1 MLOAD SWAP1 PUSH1 0x20 ADD SWAP1 DUP1 DUP4 DUP4 PUSH1 0x0 JUMPDEST DUP4 DUP2 LT ISZERO PUSH2 0xABE JUMPI DUP1 DUP3 ADD MLOAD DUP2 DUP5 ADD MSTORE PUSH1 0x20 DUP2 ADD SWAP1 POP PUSH2 0xAA3 JUMP JUMPDEST POP POP POP POP SWAP1 POP SWAP1 DUP2 ADD SWAP1 PUSH1 0x1F AND DUP1 ISZERO PUSH2 0xAEB JUMPI DUP1 DUP3 SUB DUP1 MLOAD PUSH1 0x1 DUP4 PUSH1 0x20 SUB PUSH2 0x100 EXP SUB NOT AND DUP2 MSTORE PUSH1 0x20 ADD SWAP2 POP JUMPDEST POP DUP6 DUP2 SUB DUP5 MSTORE DUP11 DUP2 DUP2 MLOAD DUP2 MSTORE PUSH1 0x20 ADD SWAP2 POP DUP1 MLOAD SWAP1 PUSH1 0x20 ADD SWAP1 DUP1 DUP4 DUP4 PUSH1 0x0 JUMPDEST DUP4 DUP2 LT ISZERO PUSH2 0xB24 JUMPI DUP1 DUP3 ADD MLOAD DUP2 DUP5 ADD MSTORE PUSH1 0x20 DUP2 ADD SWAP1 POP PUSH2 0xB09 JUMP JUMPDEST POP POP POP POP SWAP1 POP SWAP1 DUP2 ADD SWAP1 PUSH1 0x1F AND DUP1 ISZERO PUSH2 0xB51 JUMPI DUP1 DUP3 SUB DUP1 MLOAD PUSH1 0x1 DUP4 PUSH1 0x20 SUB PUSH2 0x100 EXP SUB NOT AND DUP2 MSTORE PUSH1 0x20 ADD SWAP2 POP JUMPDEST POP DUP6 DUP2 SUB DUP4 MSTORE DUP10 DUP2 DUP2 MLOAD DUP2 MSTORE PUSH1 0x20 ADD SWAP2 POP DUP1 MLOAD SWAP1 PUSH1 0x20 ADD SWAP1 DUP1 DUP4 DUP4 PUSH1 0x0 JUMPDEST DUP4 DUP2 LT ISZERO PUSH2 0xB8A JUMPI DUP1 DUP3 ADD MLOAD DUP2 DUP5 ADD MSTORE PUSH1 0x20 DUP2 ADD SWAP1 POP PUSH2 0xB6F JUMP JUMPDEST POP POP POP POP SWAP1 POP SWAP1 DUP2 ADD SWAP1 PUSH1 0x1F AND DUP1 ISZERO PUSH2 0xBB7 JUMPI DUP1 DUP3 SUB DUP1 MLOAD PUSH1 0x1 DUP4 PUSH1 0x20 SUB PUSH2 0x100 EXP SUB NOT AND DUP2 MSTORE PUSH1 0x20 ADD SWAP2 POP JUMPDEST POP DUP6 DUP2 SUB DUP3 MSTORE DUP9 DUP2 DUP2 MLOAD DUP2 MSTORE PUSH1 0x20 ADD SWAP2 POP DUP1 MLOAD SWAP1 PUSH1 0x20 ADD SWAP1 DUP1 DUP4 DUP4 PUSH1 0x0 JUMPDEST DUP4 DUP2 LT ISZERO PUSH2 0xBF0 JUMPI DUP1 DUP3 ADD MLOAD DUP2 DUP5 ADD MSTORE PUSH1 0x20 DUP2 ADD SWAP1 POP PUSH2 0xBD5 JUMP JUMPDEST POP POP POP POP SWAP1 POP SWAP1 DUP2 ADD SWAP1 PUSH1 0x1F AND DUP1 ISZERO PUSH2 0xC1D JUMPI DUP1 DUP3 SUB DUP1 MLOAD PUSH1 0x1 DUP4 PUSH1 0x20 SUB PUSH2 0x100 EXP SUB NOT AND DUP2 MSTORE PUSH1 0x20 ADD SWAP2 POP JUMPDEST POP SWAP15 POP POP POP POP POP POP POP POP POP POP POP POP POP POP POP PUSH1 0x40 MLOAD DUP1 SWAP2 SUB SWAP1 RETURN JUMPDEST CALLVALUE DUP1 ISZERO PUSH2 0xC43 JUMPI PUSH1 0x0 DUP1 REVERT JUMPDEST POP PUSH2 0xC70 PUSH1 0x4 DUP1 CALLDATASIZE SUB PUSH1 0x20 DUP2 LT ISZERO PUSH2 0xC5A JUMPI PUSH1 0x0 DUP1 REVERT JUMPDEST DUP2 ADD SWAP1 DUP1 DUP1 CALLDATALOAD SWAP1 PUSH1 0x20 ADD SWAP1 SWAP3 SWAP2 SWAP1 POP POP POP PUSH2 0x2D21 JUMP JUMPDEST STOP JUMPDEST CALLVALUE DUP1 ISZERO PUSH2 0xC7E JUMPI PUSH1 0x0 DUP1 REVERT JUMPDEST POP PUSH2 0xCC1 PUSH1 0x4 DUP1 CALLDATASIZE SUB PUSH1 0x20 DUP2 LT ISZERO PUSH2 0xC95 JUMPI PUSH1 0x0 DUP1 REVERT JUMPDEST DUP2 ADD SWAP1 DUP1 DUP1 CALLDATALOAD PUSH20 0xFFFFFFFFFFFFFFFFFFFFFFFFFFFFFFFFFFFFFFFF AND SWAP1 PUSH1 0x20 ADD SWAP1 SWAP3 SWAP2 SWAP1 POP POP POP PUSH2 0x2E63 JUMP JUMPDEST PUSH1 0x40 MLOAD DUP1 DUP3 ISZERO ISZERO ISZERO ISZERO DUP2 MSTORE PUSH1 0x20 ADD SWAP2 POP POP PUSH1 0x40 MLOAD DUP1 SWAP2 SUB SWAP1 RETURN JUMPDEST CALLVALUE DUP1 ISZERO PUSH2 0xCE7 JUMPI PUSH1 0x0 DUP1 REVERT JUMPDEST POP PUSH2 0xD1E PUSH1 0x4 DUP1 CALLDATASIZE SUB PUSH1 0x40 DUP2 LT ISZERO PUSH2 0xCFE JUMPI PUSH1 0x0 DUP1 REVERT JUMPDEST DUP2 ADD SWAP1 DUP1 DUP1 CALLDATALOAD SWAP1 PUSH1 0x20 ADD SWAP1 SWAP3 SWAP2 SWAP1 DUP1 CALLDATALOAD SWAP1 PUSH1 0x20 ADD SWAP1 SWAP3 SWAP2 SWAP1 POP POP POP PUSH2 0x2E80 JUMP JUMPDEST STOP JUMPDEST CALLVALUE DUP1 ISZERO PUSH2 0xD2C JUMPI PUSH1 0x0 DUP1 REVERT JUMPDEST POP PUSH2 0xD6F PUSH1 0x4 DUP1 CALLDATASIZE SUB PUSH1 0x20 DUP2 LT ISZERO PUSH2 0xD43 JUMPI PUSH1 0x0 DUP1 REVERT JUMPDEST DUP2 ADD SWAP1 DUP1 DUP1 CALLDATALOAD PUSH20 0xFFFFFFFFFFFFFFFFFFFFFFFFFFFFFFFFFFFFFFFF AND SWAP1 PUSH1 0x20 ADD SWAP1 SWAP3 SWAP2 SWAP1 POP POP POP PUSH2 0x2FE0 JUMP JUMPDEST STOP JUMPDEST CALLVALUE DUP1 ISZERO PUSH2 0xD7D JUMPI PUSH1 0x0 DUP1 REVERT JUMPDEST POP PUSH2 0xDC0 PUSH1 0x4 DUP1 CALLDATASIZE SUB PUSH1 0x20 DUP2 LT ISZERO PUSH2 0xD94 JUMPI PUSH1 0x0 DUP1 REVERT JUMPDEST DUP2 ADD SWAP1 DUP1 DUP1 CALLDATALOAD PUSH20 0xFFFFFFFFFFFFFFFFFFFFFFFFFFFFFFFFFFFFFFFF AND SWAP1 PUSH1 0x20 ADD SWAP1 SWAP3 SWAP2 SWAP1 POP POP POP PUSH2 0x3000 JUMP JUMPDEST PUSH1 0x40 MLOAD DUP1 DUP3 ISZERO ISZERO ISZERO ISZERO DUP2 MSTORE PUSH1 0x20 ADD SWAP2 POP POP PUSH1 0x40 MLOAD DUP1 SWAP2 SUB SWAP1 RETURN JUMPDEST CALLVALUE DUP1 ISZERO PUSH2 0xDE6 JUMPI PUSH1 0x0 DUP1 REVERT JUMPDEST POP PUSH2 0xDEF PUSH2 0x301D JUMP JUMPDEST PUSH1 0x40 MLOAD DUP1 DUP3 ISZERO ISZERO ISZERO ISZERO DUP2 MSTORE PUSH1 0x20 ADD SWAP2 POP POP PUSH1 0x40 MLOAD DUP1 SWAP2 SUB SWAP1 RETURN JUMPDEST CALLVALUE DUP1 ISZERO PUSH2 0xE15 JUMPI PUSH1 0x0 DUP1 REVERT JUMPDEST POP PUSH2 0xE42 PUSH1 0x4 DUP1 CALLDATASIZE SUB PUSH1 0x20 DUP2 LT ISZERO PUSH2 0xE2C JUMPI PUSH1 0x0 DUP1 REVERT JUMPDEST DUP2 ADD SWAP1 DUP1 DUP1 CALLDATALOAD SWAP1 PUSH1 0x20 ADD SWAP1 SWAP3 SWAP2 SWAP1 POP POP POP PUSH2 0x3074 JUMP JUMPDEST STOP JUMPDEST CALLVALUE DUP1 ISZERO PUSH2 0xE50 JUMPI PUSH1 0x0 DUP1 REVERT JUMPDEST POP PUSH2 0xE93 PUSH1 0x4 DUP1 CALLDATASIZE SUB PUSH1 0x20 DUP2 LT ISZERO PUSH2 0xE67 JUMPI PUSH1 0x0 DUP1 REVERT JUMPDEST DUP2 ADD SWAP1 DUP1 DUP1 CALLDATALOAD PUSH20 0xFFFFFFFFFFFFFFFFFFFFFFFFFFFFFFFFFFFFFFFF AND SWAP1 PUSH1 0x20 ADD SWAP1 SWAP3 SWAP2 SWAP1 POP POP POP PUSH2 0x31B6 JUMP JUMPDEST PUSH1 0x40 MLOAD DUP1 DUP3 ISZERO ISZERO ISZERO ISZERO DUP2 MSTORE PUSH1 0x20 ADD SWAP2 POP POP PUSH1 0x40 MLOAD DUP1 SWAP2 SUB SWAP1 RETURN JUMPDEST CALLVALUE DUP1 ISZERO PUSH2 0xEB9 JUMPI PUSH1 0x0 DUP1 REVERT JUMPDEST POP PUSH2 0xEC2 PUSH2 0x31D3 JUMP JUMPDEST STOP JUMPDEST PUSH2 0xEF0 PUSH1 0x4 DUP1 CALLDATASIZE SUB PUSH1 0x20 DUP2 LT ISZERO PUSH2 0xEDA JUMPI PUSH1 0x0 DUP1 REVERT JUMPDEST DUP2 ADD SWAP1 DUP1 DUP1 CALLDATALOAD SWAP1 PUSH1 0x20 ADD SWAP1 SWAP3 SWAP2 SWAP1 POP POP POP PUSH2 0x31DE JUMP JUMPDEST STOP JUMPDEST CALLVALUE DUP1 ISZERO PUSH2 0xEFE JUMPI PUSH1 0x0 DUP1 REVERT JUMPDEST POP PUSH2 0xF07 PUSH2 0x34FF JUMP JUMPDEST PUSH1 0x40 MLOAD DUP1 DUP3 PUSH20 0xFFFFFFFFFFFFFFFFFFFFFFFFFFFFFFFFFFFFFFFF AND PUSH20 0xFFFFFFFFFFFFFFFFFFFFFFFFFFFFFFFFFFFFFFFF AND DUP2 MSTORE PUSH1 0x20 ADD SWAP2 POP POP PUSH1 0x40 MLOAD DUP1 SWAP2 SUB SWAP1 RETURN JUMPDEST CALLVALUE DUP1 ISZERO PUSH2 0xF55 JUMPI PUSH1 0x0 DUP1 REVERT JUMPDEST POP PUSH2 0xF8C PUSH1 0x4 DUP1 CALLDATASIZE SUB PUSH1 0x40 DUP2 LT ISZERO PUSH2 0xF6C JUMPI PUSH1 0x0 DUP1 REVERT JUMPDEST DUP2 ADD SWAP1 DUP1 DUP1 CALLDATALOAD SWAP1 PUSH1 0x20 ADD SWAP1 SWAP3 SWAP2 SWAP1 DUP1 CALLDATALOAD SWAP1 PUSH1 0x20 ADD SWAP1 SWAP3 SWAP2 SWAP1 POP POP POP PUSH2 0x3528 JUMP JUMPDEST STOP JUMPDEST CALLVALUE DUP1 ISZERO PUSH2 0xF9A JUMPI PUSH1 0x0 DUP1 REVERT JUMPDEST POP PUSH2 0xFDD PUSH1 0x4 DUP1 CALLDATASIZE SUB PUSH1 0x20 DUP2 LT ISZERO PUSH2 0xFB1 JUMPI PUSH1 0x0 DUP1 REVERT JUMPDEST DUP2 ADD SWAP1 DUP1 DUP1 CALLDATALOAD PUSH20 0xFFFFFFFFFFFFFFFFFFFFFFFFFFFFFFFFFFFFFFFF AND SWAP1 PUSH1 0x20 ADD SWAP1 SWAP3 SWAP2 SWAP1 POP POP POP PUSH2 0x3686 JUMP JUMPDEST STOP JUMPDEST CALLVALUE DUP1 ISZERO PUSH2 0xFEB JUMPI PUSH1 0x0 DUP1 REVERT JUMPDEST POP PUSH2 0x102E PUSH1 0x4 DUP1 CALLDATASIZE SUB PUSH1 0x20 DUP2 LT ISZERO PUSH2 0x1002 JUMPI PUSH1 0x0 DUP1 REVERT JUMPDEST DUP2 ADD SWAP1 DUP1 DUP1 CALLDATALOAD PUSH20 0xFFFFFFFFFFFFFFFFFFFFFFFFFFFFFFFFFFFFFFFF AND SWAP1 PUSH1 0x20 ADD SWAP1 SWAP3 SWAP2 SWAP1 POP POP POP PUSH2 0x36EE JUMP JUMPDEST STOP JUMPDEST PUSH2 0x105C PUSH1 0x4 DUP1 CALLDATASIZE SUB PUSH1 0x20 DUP2 LT ISZERO PUSH2 0x1046 JUMPI PUSH1 0x0 DUP1 REVERT JUMPDEST DUP2 ADD SWAP1 DUP1 DUP1 CALLDATALOAD SWAP1 PUSH1 0x20 ADD SWAP1 SWAP3 SWAP2 SWAP1 POP POP POP PUSH2 0x36FA JUMP JUMPDEST STOP JUMPDEST CALLVALUE DUP1 ISZERO PUSH2 0x106A JUMPI PUSH1 0x0 DUP1 REVERT JUMPDEST POP PUSH2 0x1073 PUSH2 0x39C6 JUMP JUMPDEST STOP JUMPDEST PUSH2 0x107E CALLER PUSH2 0x2E63 JUMP JUMPDEST ISZERO ISZERO PUSH2 0x1089 JUMPI PUSH1 0x0 DUP1 REVERT JUMPDEST PUSH2 0x1092 DUP2 PUSH2 0x39D1 JUMP JUMPDEST POP JUMP JUMPDEST PUSH1 0x0 DUP1 PUSH1 0x0 PUSH2 0x10A2 PUSH2 0x3F98 JUMP JUMPDEST PUSH1 0x9 PUSH1 0x0 DUP7 DUP2 MSTORE PUSH1 0x20 ADD SWAP1 DUP2 MSTORE PUSH1 0x20 ADD PUSH1 0x0 KECCAK256 PUSH1 0x60 PUSH1 0x40 MLOAD SWAP1 DUP2 ADD PUSH1 0x40 MSTORE SWAP1 DUP2 PUSH1 0x0 DUP3 ADD SLOAD DUP2 MSTORE PUSH1 0x20 ADD PUSH1 0x1 DUP3 ADD SLOAD DUP2 MSTORE PUSH1 0x20 ADD PUSH1 0x2 DUP3 ADD SLOAD DUP2 MSTORE POP POP SWAP1 POP DUP1 PUSH1 0x0 ADD MLOAD DUP2 PUSH1 0x20 ADD MLOAD DUP3 PUSH1 0x40 ADD MLOAD SWAP4 POP SWAP4 POP SWAP4 POP POP SWAP2 SWAP4 SWAP1 SWAP3 POP JUMP JUMPDEST PUSH2 0x1107 CALLER PUSH2 0x31B6 JUMP JUMPDEST ISZERO ISZERO PUSH2 0x1112 JUMPI PUSH1 0x0 DUP1 REVERT JUMPDEST DUP1 PUSH1 0x2 PUSH1 0xC DUP2 GT ISZERO PUSH2 0x1120 JUMPI INVALID JUMPDEST PUSH1 0x8 PUSH1 0x0 DUP4 DUP2 MSTORE PUSH1 0x20 ADD SWAP1 DUP2 MSTORE PUSH1 0x20 ADD PUSH1 0x0 KECCAK256 PUSH1 0xD ADD PUSH1 0x0 SWAP1 SLOAD SWAP1 PUSH2 0x100 EXP SWAP1 DIV PUSH1 0xFF AND PUSH1 0xC DUP2 GT ISZERO PUSH2 0x114F JUMPI INVALID JUMPDEST EQ ISZERO ISZERO PUSH2 0x115B JUMPI PUSH1 0x0 DUP1 REVERT JUMPDEST PUSH1 0x8 PUSH1 0x0 DUP4 DUP2 MSTORE PUSH1 0x20 ADD SWAP1 DUP2 MSTORE PUSH1 0x20 ADD PUSH1 0x0 KECCAK256 PUSH1 0x3 ADD PUSH1 0x0 SWAP1 SLOAD SWAP1 PUSH2 0x100 EXP SWAP1 DIV PUSH20 0xFFFFFFFFFFFFFFFFFFFFFFFFFFFFFFFFFFFFFFFF AND DUP1 PUSH20 0xFFFFFFFFFFFFFFFFFFFFFFFFFFFFFFFFFFFFFFFF AND CALLER PUSH20 0xFFFFFFFFFFFFFFFFFFFFFFFFFFFFFFFFFFFFFFFF AND EQ ISZERO ISZERO PUSH2 0x11CC JUMPI PUSH1 0x0 DUP1 REVERT JUMPDEST PUSH1 0x3 PUSH1 0x8 PUSH1 0x0 DUP6 DUP2 MSTORE PUSH1 0x20 ADD SWAP1 DUP2 MSTORE PUSH1 0x20 ADD PUSH1 0x0 KECCAK256 PUSH1 0xD ADD PUSH1 0x0 PUSH2 0x100 EXP DUP2 SLOAD DUP2 PUSH1 0xFF MUL NOT AND SWAP1 DUP4 PUSH1 0xC DUP2 GT ISZERO PUSH2 0x11FF JUMPI INVALID JUMPDEST MUL OR SWAP1 SSTORE POP PUSH32 0xB20D2D5532C31DBF6D548E783F891FA0ACA5A4D1BA547151308B89B3D2930D24 DUP4 PUSH1 0x40 MLOAD DUP1 DUP3 DUP2 MSTORE PUSH1 0x20 ADD SWAP2 POP POP PUSH1 0x40 MLOAD DUP1 SWAP2 SUB SWAP1 LOG1 POP POP POP JUMP JUMPDEST PUSH2 0x1249 CALLER PUSH2 0x31B6 JUMP JUMPDEST ISZERO ISZERO PUSH2 0x1254 JUMPI PUSH1 0x0 DUP1 REVERT JUMPDEST DUP2 PUSH1 0x0 PUSH1 0xC DUP2 GT ISZERO PUSH2 0x1262 JUMPI INVALID JUMPDEST PUSH1 0x8 PUSH1 0x0 DUP4 DUP2 MSTORE PUSH1 0x20 ADD SWAP1 DUP2 MSTORE PUSH1 0x20 ADD PUSH1 0x0 KECCAK256 PUSH1 0xD ADD PUSH1 0x0 SWAP1 SLOAD SWAP1 PUSH2 0x100 EXP SWAP1 DIV PUSH1 0xFF AND PUSH1 0xC DUP2 GT ISZERO PUSH2 0x1291 JUMPI INVALID JUMPDEST EQ ISZERO ISZERO PUSH2 0x129D JUMPI PUSH1 0x0 DUP1 REVERT JUMPDEST PUSH1 0x8 PUSH1 0x0 DUP5 DUP2 MSTORE PUSH1 0x20 ADD SWAP1 DUP2 MSTORE PUSH1 0x20 ADD PUSH1 0x0 KECCAK256 PUSH1 0x2 ADD PUSH1 0x0 SWAP1 SLOAD SWAP1 PUSH2 0x100 EXP SWAP1 DIV PUSH20 0xFFFFFFFFFFFFFFFFFFFFFFFFFFFFFFFFFFFFFFFF AND DUP1 PUSH20 0xFFFFFFFFFFFFFFFFFFFFFFFFFFFFFFFFFFFFFFFF AND CALLER PUSH20 0xFFFFFFFFFFFFFFFFFFFFFFFFFFFFFFFFFFFFFFFF AND EQ ISZERO ISZERO PUSH2 0x130E JUMPI PUSH1 0x0 DUP1 REVERT JUMPDEST PUSH1 0x1 PUSH1 0x8 PUSH1 0x0 DUP7 DUP2 MSTORE PUSH1 0x20 ADD SWAP1 DUP2 MSTORE PUSH1 0x20 ADD PUSH1 0x0 KECCAK256 PUSH1 0xD ADD PUSH1 0x0 PUSH2 0x100 EXP DUP2 SLOAD DUP2 PUSH1 0xFF MUL NOT AND SWAP1 DUP4 PUSH1 0xC DUP2 GT ISZERO PUSH2 0x1341 JUMPI INVALID JUMPDEST MUL OR SWAP1 SSTORE POP DUP3 PUSH1 0x8 PUSH1 0x0 DUP7 DUP2 MSTORE PUSH1 0x20 ADD SWAP1 DUP2 MSTORE PUSH1 0x20 ADD PUSH1 0x0 KECCAK256 PUSH1 0xB ADD DUP2 SWAP1 SSTORE POP PUSH32 0x2285967D10DD8A9387BF9A505C30B7016DB386768FF2D549D755008DCA90C36D DUP5 PUSH1 0x40 MLOAD DUP1 DUP3 DUP2 MSTORE PUSH1 0x20 ADD SWAP2 POP POP PUSH1 0x40 MLOAD DUP1 SWAP2 SUB SWAP1 LOG1 POP POP POP POP JUMP JUMPDEST PUSH2 0x13A7 CALLER PUSH2 0x3000 JUMP JUMPDEST ISZERO ISZERO PUSH2 0x13B2 JUMPI PUSH1 0x0 DUP1 REVERT JUMPDEST DUP1 PUSH1 0x3 PUSH1 0xC DUP2 GT ISZERO PUSH2 0x13C0 JUMPI INVALID JUMPDEST PUSH1 0x8 PUSH1 0x0 DUP4 DUP2 MSTORE PUSH1 0x20 ADD SWAP1 DUP2 MSTORE PUSH1 0x20 ADD PUSH1 0x0 KECCAK256 PUSH1 0xD ADD PUSH1 0x0 SWAP1 SLOAD SWAP1 PUSH2 0x100 EXP SWAP1 DIV PUSH1 0xFF AND PUSH1 0xC DUP2 GT ISZERO PUSH2 0x13EF JUMPI INVALID JUMPDEST EQ ISZERO ISZERO PUSH2 0x13FB JUMPI PUSH1 0x0 DUP1 REVERT JUMPDEST PUSH1 0x8 PUSH1 0x0 DUP4 DUP2 MSTORE PUSH1 0x20 ADD SWAP1 DUP2 MSTORE PUSH1 0x20 ADD PUSH1 0x0 KECCAK256 PUSH1 0x2 ADD PUSH1 0x0 SWAP1 SLOAD SWAP1 PUSH2 0x100 EXP SWAP1 DIV PUSH20 0xFFFFFFFFFFFFFFFFFFFFFFFFFFFFFFFFFFFFFFFF AND DUP1 PUSH20 0xFFFFFFFFFFFFFFFFFFFFFFFFFFFFFFFFFFFFFFFF AND CALLER PUSH20 0xFFFFFFFFFFFFFFFFFFFFFFFFFFFFFFFFFFFFFFFF AND EQ ISZERO ISZERO PUSH2 0x146C JUMPI PUSH1 0x0 DUP1 REVERT JUMPDEST PUSH1 0x4 PUSH1 0x8 PUSH1 0x0 DUP6 DUP2 MSTORE PUSH1 0x20 ADD SWAP1 DUP2 MSTORE PUSH1 0x20 ADD PUSH1 0x0 KECCAK256 PUSH1 0xD ADD PUSH1 0x0 PUSH2 0x100 EXP DUP2 SLOAD DUP2 PUSH1 0xFF MUL NOT AND SWAP1 DUP4 PUSH1 0xC DUP2 GT ISZERO PUSH2 0x149F JUMPI INVALID JUMPDEST MUL OR SWAP1 SSTORE POP PUSH32 0xC8CA2150E6E1849A10EF5AA4932060FA353BCACDFFEB150C9E1890C6AB9403CC DUP4 PUSH1 0x40 MLOAD DUP1 DUP3 DUP2 MSTORE PUSH1 0x20 ADD SWAP2 POP POP PUSH1 0x40 MLOAD DUP1 SWAP2 SUB SWAP1 LOG1 POP POP POP JUMP JUMPDEST PUSH2 0x14E9 CALLER PUSH2 0x2008 JUMP JUMPDEST ISZERO ISZERO PUSH2 0x14F4 JUMPI PUSH1 0x0 DUP1 REVERT JUMPDEST DUP1 PUSH1 0x7 PUSH1 0xC DUP2 GT ISZERO PUSH2 0x1502 JUMPI INVALID JUMPDEST PUSH1 0x8 PUSH1 0x0 DUP4 DUP2 MSTORE PUSH1 0x20 ADD SWAP1 DUP2 MSTORE PUSH1 0x20 ADD PUSH1 0x0 KECCAK256 PUSH1 0xD ADD PUSH1 0x0 SWAP1 SLOAD SWAP1 PUSH2 0x100 EXP SWAP1 DIV PUSH1 0xFF AND PUSH1 0xC DUP2 GT ISZERO PUSH2 0x1531 JUMPI INVALID JUMPDEST EQ ISZERO ISZERO PUSH2 0x153D JUMPI PUSH1 0x0 DUP1 REVERT JUMPDEST PUSH1 0x8 PUSH1 0x0 DUP4 DUP2 MSTORE PUSH1 0x20 ADD SWAP1 DUP2 MSTORE PUSH1 0x20 ADD PUSH1 0x0 KECCAK256 PUSH1 0xB ADD SLOAD DUP1 CALLVALUE LT ISZERO ISZERO ISZERO PUSH2 0x1563 JUMPI PUSH1 0x0 DUP1 REVERT JUMPDEST DUP3 CALLER PUSH1 0x0 PUSH1 0x8 PUSH1 0x0 DUP5 DUP2 MSTORE PUSH1 0x20 ADD SWAP1 DUP2 MSTORE PUSH1 0x20 ADD PUSH1 0x0 KECCAK256 PUSH1 0xB ADD SLOAD SWAP1 POP PUSH1 0x0 DUP2 CALLVALUE SUB SWAP1 POP DUP3 PUSH20 0xFFFFFFFFFFFFFFFFFFFFFFFFFFFFFFFFFFFFFFFF AND PUSH2 0x8FC DUP3 SWAP1 DUP2 ISZERO MUL SWAP1 PUSH1 0x40 MLOAD PUSH1 0x0 PUSH1 0x40 MLOAD DUP1 DUP4 SUB DUP2 DUP6 DUP9 DUP9 CALL SWAP4 POP POP POP POP ISZERO DUP1 ISZERO PUSH2 0x15CD JUMPI RETURNDATASIZE PUSH1 0x0 DUP1 RETURNDATACOPY RETURNDATASIZE PUSH1 0x0 REVERT JUMPDEST POP PUSH1 0x0 PUSH2 0x160F PUSH1 0x8 PUSH1 0x0 DUP11 DUP2 MSTORE PUSH1 0x20 ADD SWAP1 DUP2 MSTORE PUSH1 0x20 ADD PUSH1 0x0 KECCAK256 PUSH1 0xD ADD PUSH1 0x1 SWAP1 SLOAD SWAP1 PUSH2 0x100 EXP SWAP1 DIV PUSH20 0xFFFFFFFFFFFFFFFFFFFFFFFFFFFFFFFFFFFFFFFF AND PUSH2 0x3A2B JUMP JUMPDEST SWAP1 POP DUP1 PUSH20 0xFFFFFFFFFFFFFFFFFFFFFFFFFFFFFFFFFFFFFFFF AND PUSH2 0x8FC PUSH1 0x8 PUSH1 0x0 DUP12 DUP2 MSTORE PUSH1 0x20 ADD SWAP1 DUP2 MSTORE PUSH1 0x20 ADD PUSH1 0x0 KECCAK256 PUSH1 0xB ADD SLOAD SWAP1 DUP2 ISZERO MUL SWAP1 PUSH1 0x40 MLOAD PUSH1 0x0 PUSH1 0x40 MLOAD DUP1 DUP4 SUB DUP2 DUP6 DUP9 DUP9 CALL SWAP4 POP POP POP POP ISZERO DUP1 ISZERO PUSH2 0x166D JUMPI RETURNDATASIZE PUSH1 0x0 DUP1 RETURNDATACOPY RETURNDATASIZE PUSH1 0x0 REVERT JUMPDEST POP CALLER PUSH1 0x8 PUSH1 0x0 DUP11 DUP2 MSTORE PUSH1 0x20 ADD SWAP1 DUP2 MSTORE PUSH1 0x20 ADD PUSH1 0x0 KECCAK256 PUSH1 0x2 ADD PUSH1 0x0 PUSH2 0x100 EXP DUP2 SLOAD DUP2 PUSH20 0xFFFFFFFFFFFFFFFFFFFFFFFFFFFFFFFFFFFFFFFF MUL NOT AND SWAP1 DUP4 PUSH20 0xFFFFFFFFFFFFFFFFFFFFFFFFFFFFFFFFFFFFFFFF AND MUL OR SWAP1 SSTORE POP CALLER PUSH1 0x8 PUSH1 0x0 DUP11 DUP2 MSTORE PUSH1 0x20 ADD SWAP1 DUP2 MSTORE PUSH1 0x20 ADD PUSH1 0x0 KECCAK256 PUSH1 0xE ADD PUSH1 0x0 PUSH2 0x100 EXP DUP2 SLOAD DUP2 PUSH20 0xFFFFFFFFFFFFFFFFFFFFFFFFFFFFFFFFFFFFFFFF MUL NOT AND SWAP1 DUP4 PUSH20 0xFFFFFFFFFFFFFFFFFFFFFFFFFFFFFFFFFFFFFFFF AND MUL OR SWAP1 SSTORE POP PUSH1 0x8 DUP1 PUSH1 0x0 DUP11 DUP2 MSTORE PUSH1 0x20 ADD SWAP1 DUP2 MSTORE PUSH1 0x20 ADD PUSH1 0x0 KECCAK256 PUSH1 0xD ADD PUSH1 0x0 PUSH2 0x100 EXP DUP2 SLOAD DUP2 PUSH1 0xFF MUL NOT AND SWAP1 DUP4 PUSH1 0xC DUP2 GT ISZERO PUSH2 0x174A JUMPI INVALID JUMPDEST MUL OR SWAP1 SSTORE POP NUMBER PUSH1 0x9 PUSH1 0x0 DUP11 DUP2 MSTORE PUSH1 0x20 ADD SWAP1 DUP2 MSTORE PUSH1 0x20 ADD PUSH1 0x0 KECCAK256 PUSH1 0x1 ADD DUP2 SWAP1 SSTORE POP PUSH32 0xAA7352D10146444C3AFD9BD7FB0AE56B0A85E81139536BBEC3F1F660FDDD7BE1 DUP9 PUSH1 0x40 MLOAD DUP1 DUP3 DUP2 MSTORE PUSH1 0x20 ADD SWAP2 POP POP PUSH1 0x40 MLOAD DUP1 SWAP2 SUB SWAP1 LOG1 POP POP POP POP POP POP POP POP JUMP JUMPDEST PUSH2 0x17B4 CALLER PUSH2 0x2008 JUMP JUMPDEST ISZERO ISZERO PUSH2 0x17BF JUMPI PUSH1 0x0 DUP1 REVERT JUMPDEST DUP1 PUSH1 0x9 PUSH1 0xC DUP2 GT ISZERO PUSH2 0x17CD JUMPI INVALID JUMPDEST PUSH1 0x8 PUSH1 0x0 DUP4 DUP2 MSTORE PUSH1 0x20 ADD SWAP1 DUP2 MSTORE PUSH1 0x20 ADD PUSH1 0x0 KECCAK256 PUSH1 0xD ADD PUSH1 0x0 SWAP1 SLOAD SWAP1 PUSH2 0x100 EXP SWAP1 DIV PUSH1 0xFF AND PUSH1 0xC DUP2 GT ISZERO PUSH2 0x17FC JUMPI INVALID JUMPDEST EQ ISZERO ISZERO PUSH2 0x1808 JUMPI PUSH1 0x0 DUP1 REVERT JUMPDEST PUSH1 0x8 PUSH1 0x0 DUP4 DUP2 MSTORE PUSH1 0x20 ADD SWAP1 DUP2 MSTORE PUSH1 0x20 ADD PUSH1 0x0 KECCAK256 PUSH1 0x2 ADD PUSH1 0x0 SWAP1 SLOAD SWAP1 PUSH2 0x100 EXP SWAP1 DIV PUSH20 0xFFFFFFFFFFFFFFFFFFFFFFFFFFFFFFFFFFFFFFFF AND DUP1 PUSH20 0xFFFFFFFFFFFFFFFFFFFFFFFFFFFFFFFFFFFFFFFF AND CALLER PUSH20 0xFFFFFFFFFFFFFFFFFFFFFFFFFFFFFFFFFFFFFFFF AND EQ ISZERO ISZERO PUSH2 0x1879 JUMPI PUSH1 0x0 DUP1 REVERT JUMPDEST PUSH1 0xA PUSH1 0x8 PUSH1 0x0 DUP6 DUP2 MSTORE PUSH1 0x20 ADD SWAP1 DUP2 MSTORE PUSH1 0x20 ADD PUSH1 0x0 KECCAK256 PUSH1 0xD ADD PUSH1 0x0 PUSH2 0x100 EXP DUP2 SLOAD DUP2 PUSH1 0xFF MUL NOT AND SWAP1 DUP4 PUSH1 0xC DUP2 GT ISZERO PUSH2 0x18AC JUMPI INVALID JUMPDEST MUL OR SWAP1 SSTORE POP PUSH32 0x322F34E90F2269750B3E28178631D975CC678DB36F21098FE548B7F755CE0BD0 DUP4 PUSH1 0x40 MLOAD DUP1 DUP3 DUP2 MSTORE PUSH1 0x20 ADD SWAP2 POP POP PUSH1 0x40 MLOAD DUP1 SWAP2 SUB SWAP1 LOG1 POP POP POP JUMP JUMPDEST PUSH2 0x18F6 CALLER PUSH2 0x31B6 JUMP JUMPDEST ISZERO ISZERO PUSH2 0x1901 JUMPI PUSH1 0x0 DUP1 REVERT JUMPDEST PUSH2 0x190A DUP2 PUSH2 0x3A35 JUMP JUMPDEST POP JUMP JUMPDEST PUSH1 0x5 PUSH1 0x0 SWAP1 SLOAD SWAP1 PUSH2 0x100 EXP SWAP1 DIV PUSH20 0xFFFFFFFFFFFFFFFFFFFFFFFFFFFFFFFFFFFFFFFF AND PUSH20 0xFFFFFFFFFFFFFFFFFFFFFFFFFFFFFFFFFFFFFFFF AND CALLER PUSH20 0xFFFFFFFFFFFFFFFFFFFFFFFFFFFFFFFFFFFFFFFF AND EQ ISZERO PUSH2 0x19AB JUMPI PUSH1 0x0 PUSH2 0x1990 PUSH1 0x5 PUSH1 0x0 SWAP1 SLOAD SWAP1 PUSH2 0x100 EXP SWAP1 DIV PUSH20 0xFFFFFFFFFFFFFFFFFFFFFFFFFFFFFFFFFFFFFFFF AND PUSH2 0x3A2B JUMP JUMPDEST SWAP1 POP DUP1 PUSH20 0xFFFFFFFFFFFFFFFFFFFFFFFFFFFFFFFFFFFFFFFF AND SELFDESTRUCT JUMPDEST JUMP JUMPDEST PUSH2 0x19B6 CALLER PUSH2 0x31B6 JUMP JUMPDEST ISZERO ISZERO PUSH2 0x19C1 JUMPI PUSH1 0x0 DUP1 REVERT JUMPDEST PUSH1 0x0 DUP1 PUSH1 0x0 PUSH2 0x19CE PUSH2 0x3FBA JUMP JUMPDEST PUSH1 0x7 SLOAD DUP2 PUSH1 0x0 ADD DUP2 DUP2 MSTORE POP POP DUP11 DUP2 PUSH1 0x20 ADD DUP2 DUP2 MSTORE POP POP CALLER DUP2 PUSH1 0x40 ADD SWAP1 PUSH20 0xFFFFFFFFFFFFFFFFFFFFFFFFFFFFFFFFFFFFFFFF AND SWAP1 DUP2 PUSH20 0xFFFFFFFFFFFFFFFFFFFFFFFFFFFFFFFFFFFFFFFF AND DUP2 MSTORE POP POP CALLER DUP2 PUSH1 0x60 ADD SWAP1 PUSH20 0xFFFFFFFFFFFFFFFFFFFFFFFFFFFFFFFFFFFFFFFF AND SWAP1 DUP2 PUSH20 0xFFFFFFFFFFFFFFFFFFFFFFFFFFFFFFFFFFFFFFFF AND DUP2 MSTORE POP POP DUP10 DUP2 PUSH1 0x80 ADD DUP2 SWAP1 MSTORE POP DUP9 DUP2 PUSH1 0xA0 ADD DUP2 SWAP1 MSTORE POP DUP8 DUP2 PUSH1 0xC0 ADD DUP2 SWAP1 MSTORE POP DUP7 DUP2 PUSH1 0xE0 ADD DUP2 SWAP1 MSTORE POP PUSH1 0x7 SLOAD DUP12 ADD DUP2 PUSH2 0x100 ADD DUP2 DUP2 MSTORE POP POP DUP6 DUP2 PUSH2 0x120 ADD DUP2 SWAP1 MSTORE POP DUP5 DUP2 PUSH2 0x160 ADD DUP2 DUP2 MSTORE POP POP TIMESTAMP DUP2 PUSH2 0x140 ADD DUP2 DUP2 MSTORE POP POP PUSH1 0x0 DUP2 PUSH2 0x180 ADD DUP2 DUP2 MSTORE POP POP PUSH1 0x0 DUP2 PUSH2 0x1A0 ADD SWAP1 PUSH1 0xC DUP2 GT ISZERO PUSH2 0x1AC6 JUMPI INVALID JUMPDEST SWAP1 DUP2 PUSH1 0xC DUP2 GT ISZERO PUSH2 0x1AD3 JUMPI INVALID JUMPDEST DUP2 MSTORE POP POP DUP4 DUP2 PUSH2 0x1C0 ADD SWAP1 PUSH20 0xFFFFFFFFFFFFFFFFFFFFFFFFFFFFFFFFFFFFFFFF AND SWAP1 DUP2 PUSH20 0xFFFFFFFFFFFFFFFFFFFFFFFFFFFFFFFFFFFFFFFF AND DUP2 MSTORE POP POP DUP3 DUP2 PUSH2 0x1E0 ADD SWAP1 PUSH20 0xFFFFFFFFFFFFFFFFFFFFFFFFFFFFFFFFFFFFFFFF AND SWAP1 DUP2 PUSH20 0xFFFFFFFFFFFFFFFFFFFFFFFFFFFFFFFFFFFFFFFF AND DUP2 MSTORE POP POP DUP2 DUP2 PUSH2 0x200 ADD SWAP1 PUSH20 0xFFFFFFFFFFFFFFFFFFFFFFFFFFFFFFFFFFFFFFFF AND SWAP1 DUP2 PUSH20 0xFFFFFFFFFFFFFFFFFFFFFFFFFFFFFFFFFFFFFFFF AND DUP2 MSTORE POP POP DUP1 PUSH1 0x8 PUSH1 0x0 DUP14 DUP2 MSTORE PUSH1 0x20 ADD SWAP1 DUP2 MSTORE PUSH1 0x20 ADD PUSH1 0x0 KECCAK256 PUSH1 0x0 DUP3 ADD MLOAD DUP2 PUSH1 0x0 ADD SSTORE PUSH1 0x20 DUP3 ADD MLOAD DUP2 PUSH1 0x1 ADD SSTORE PUSH1 0x40 DUP3 ADD MLOAD DUP2 PUSH1 0x2 ADD PUSH1 0x0 PUSH2 0x100 EXP DUP2 SLOAD DUP2 PUSH20 0xFFFFFFFFFFFFFFFFFFFFFFFFFFFFFFFFFFFFFFFF MUL NOT AND SWAP1 DUP4 PUSH20 0xFFFFFFFFFFFFFFFFFFFFFFFFFFFFFFFFFFFFFFFF AND MUL OR SWAP1 SSTORE POP PUSH1 0x60 DUP3 ADD MLOAD DUP2 PUSH1 0x3 ADD PUSH1 0x0 PUSH2 0x100 EXP DUP2 SLOAD DUP2 PUSH20 0xFFFFFFFFFFFFFFFFFFFFFFFFFFFFFFFFFFFFFFFF MUL NOT AND SWAP1 DUP4 PUSH20 0xFFFFFFFFFFFFFFFFFFFFFFFFFFFFFFFFFFFFFFFF AND MUL OR SWAP1 SSTORE POP PUSH1 0x80 DUP3 ADD MLOAD DUP2 PUSH1 0x4 ADD SWAP1 DUP1 MLOAD SWAP1 PUSH1 0x20 ADD SWAP1 PUSH2 0x1C54 SWAP3 SWAP2 SWAP1 PUSH2 0x40B8 JUMP JUMPDEST POP PUSH1 0xA0 DUP3 ADD MLOAD DUP2 PUSH1 0x5 ADD SWAP1 DUP1 MLOAD SWAP1 PUSH1 0x20 ADD SWAP1 PUSH2 0x1C71 SWAP3 SWAP2 SWAP1 PUSH2 0x40B8 JUMP JUMPDEST POP PUSH1 0xC0 DUP3 ADD MLOAD DUP2 PUSH1 0x6 ADD SWAP1 DUP1 MLOAD SWAP1 PUSH1 0x20 ADD SWAP1 PUSH2 0x1C8E SWAP3 SWAP2 SWAP1 PUSH2 0x40B8 JUMP JUMPDEST POP PUSH1 0xE0 DUP3 ADD MLOAD DUP2 PUSH1 0x7 ADD SWAP1 DUP1 MLOAD SWAP1 PUSH1 0x20 ADD SWAP1 PUSH2 0x1CAB SWAP3 SWAP2 SWAP1 PUSH2 0x40B8 JUMP JUMPDEST POP PUSH2 0x100 DUP3 ADD MLOAD DUP2 PUSH1 0x8 ADD SSTORE PUSH2 0x120 DUP3 ADD MLOAD DUP2 PUSH1 0x9 ADD SWAP1 DUP1 MLOAD SWAP1 PUSH1 0x20 ADD SWAP1 PUSH2 0x1CD4 SWAP3 SWAP2 SWAP1 PUSH2 0x40B8 JUMP JUMPDEST POP PUSH2 0x140 DUP3 ADD MLOAD DUP2 PUSH1 0xA ADD SSTORE PUSH2 0x160 DUP3 ADD MLOAD DUP2 PUSH1 0xB ADD SSTORE PUSH2 0x180 DUP3 ADD MLOAD DUP2 PUSH1 0xC ADD SSTORE PUSH2 0x1A0 DUP3 ADD MLOAD DUP2 PUSH1 0xD ADD PUSH1 0x0 PUSH2 0x100 EXP DUP2 SLOAD DUP2 PUSH1 0xFF MUL NOT AND SWAP1 DUP4 PUSH1 0xC DUP2 GT ISZERO PUSH2 0x1D1B JUMPI INVALID JUMPDEST MUL OR SWAP1 SSTORE POP PUSH2 0x1C0 DUP3 ADD MLOAD DUP2 PUSH1 0xD ADD PUSH1 0x1 PUSH2 0x100 EXP DUP2 SLOAD DUP2 PUSH20 0xFFFFFFFFFFFFFFFFFFFFFFFFFFFFFFFFFFFFFFFF MUL NOT AND SWAP1 DUP4 PUSH20 0xFFFFFFFFFFFFFFFFFFFFFFFFFFFFFFFFFFFFFFFF AND MUL OR SWAP1 SSTORE POP PUSH2 0x1E0 DUP3 ADD MLOAD DUP2 PUSH1 0xE ADD PUSH1 0x0 PUSH2 0x100 EXP DUP2 SLOAD DUP2 PUSH20 0xFFFFFFFFFFFFFFFFFFFFFFFFFFFFFFFFFFFFFFFF MUL NOT AND SWAP1 DUP4 PUSH20 0xFFFFFFFFFFFFFFFFFFFFFFFFFFFFFFFFFFFFFFFF AND MUL OR SWAP1 SSTORE POP PUSH2 0x200 DUP3 ADD MLOAD DUP2 PUSH1 0xF ADD PUSH1 0x0 PUSH2 0x100 EXP DUP2 SLOAD DUP2 PUSH20 0xFFFFFFFFFFFFFFFFFFFFFFFFFFFFFFFFFFFFFFFF MUL NOT AND SWAP1 DUP4 PUSH20 0xFFFFFFFFFFFFFFFFFFFFFFFFFFFFFFFFFFFFFFFF AND MUL OR SWAP1 SSTORE POP SWAP1 POP POP PUSH1 0x0 PUSH2 0x1E05 PUSH2 0x3F98 JUMP JUMPDEST DUP2 DUP2 PUSH1 0x0 ADD DUP2 DUP2 MSTORE POP POP DUP2 DUP2 PUSH1 0x20 ADD DUP2 DUP2 MSTORE POP POP DUP2 DUP2 PUSH1 0x40 ADD DUP2 DUP2 MSTORE POP POP DUP1 PUSH1 0x9 PUSH1 0x0 DUP16 DUP2 MSTORE PUSH1 0x20 ADD SWAP1 DUP2 MSTORE PUSH1 0x20 ADD PUSH1 0x0 KECCAK256 PUSH1 0x0 DUP3 ADD MLOAD DUP2 PUSH1 0x0 ADD SSTORE PUSH1 0x20 DUP3 ADD MLOAD DUP2 PUSH1 0x1 ADD SSTORE PUSH1 0x40 DUP3 ADD MLOAD DUP2 PUSH1 0x2 ADD SSTORE SWAP1 POP POP PUSH1 0x1 PUSH1 0x7 SLOAD ADD PUSH1 0x7 DUP2 SWAP1 SSTORE POP PUSH32 0x78E97D8EC26877417127BC38F9A0255895572EC277D8C1DA38D769D5448693ED DUP14 PUSH1 0x40 MLOAD DUP1 DUP3 DUP2 MSTORE PUSH1 0x20 ADD SWAP2 POP POP PUSH1 0x40 MLOAD DUP1 SWAP2 SUB SWAP1 LOG1 POP POP POP POP POP POP POP POP POP POP POP POP POP JUMP JUMPDEST PUSH2 0x1EB3 CALLER PUSH2 0x2008 JUMP JUMPDEST ISZERO ISZERO PUSH2 0x1EBE JUMPI PUSH1 0x0 DUP1 REVERT JUMPDEST DUP2 PUSH1 0xA PUSH1 0xC DUP2 GT ISZERO PUSH2 0x1ECC JUMPI INVALID JUMPDEST PUSH1 0x8 PUSH1 0x0 DUP4 DUP2 MSTORE PUSH1 0x20 ADD SWAP1 DUP2 MSTORE PUSH1 0x20 ADD PUSH1 0x0 KECCAK256 PUSH1 0xD ADD PUSH1 0x0 SWAP1 SLOAD SWAP1 PUSH2 0x100 EXP SWAP1 DIV PUSH1 0xFF AND PUSH1 0xC DUP2 GT ISZERO PUSH2 0x1EFB JUMPI INVALID JUMPDEST EQ ISZERO ISZERO PUSH2 0x1F07 JUMPI PUSH1 0x0 DUP1 REVERT JUMPDEST PUSH1 0x8 PUSH1 0x0 DUP5 DUP2 MSTORE PUSH1 0x20 ADD SWAP1 DUP2 MSTORE PUSH1 0x20 ADD PUSH1 0x0 KECCAK256 PUSH1 0x2 ADD PUSH1 0x0 SWAP1 SLOAD SWAP1 PUSH2 0x100 EXP SWAP1 DIV PUSH20 0xFFFFFFFFFFFFFFFFFFFFFFFFFFFFFFFFFFFFFFFF AND DUP1 PUSH20 0xFFFFFFFFFFFFFFFFFFFFFFFFFFFFFFFFFFFFFFFF AND CALLER PUSH20 0xFFFFFFFFFFFFFFFFFFFFFFFFFFFFFFFFFFFFFFFF AND EQ ISZERO ISZERO PUSH2 0x1F78 JUMPI PUSH1 0x0 DUP1 REVERT JUMPDEST PUSH1 0xB PUSH1 0x8 PUSH1 0x0 DUP7 DUP2 MSTORE PUSH1 0x20 ADD SWAP1 DUP2 MSTORE PUSH1 0x20 ADD PUSH1 0x0 KECCAK256 PUSH1 0xD ADD PUSH1 0x0 PUSH2 0x100 EXP DUP2 SLOAD DUP2 PUSH1 0xFF MUL NOT AND SWAP1 DUP4 PUSH1 0xC DUP2 GT ISZERO PUSH2 0x1FAB JUMPI INVALID JUMPDEST MUL OR SWAP1 SSTORE POP DUP3 PUSH1 0x8 PUSH1 0x0 DUP7 DUP2 MSTORE PUSH1 0x20 ADD SWAP1 DUP2 MSTORE PUSH1 0x20 ADD PUSH1 0x0 KECCAK256 PUSH1 0xB ADD DUP2 SWAP1 SSTORE POP PUSH32 0x59E7AD085805E2B02AD4B0F8033BD75E7EE4C8CD43F996267463585E35896252 DUP5 PUSH1 0x40 MLOAD DUP1 DUP3 DUP2 MSTORE PUSH1 0x20 ADD SWAP2 POP POP PUSH1 0x40 MLOAD DUP1 SWAP2 SUB SWAP1 LOG1 POP POP POP POP JUMP JUMPDEST PUSH1 0x0 PUSH2 0x201E DUP3 PUSH1 0x3 PUSH2 0x3A8F SWAP1 SWAP2 SWAP1 PUSH4 0xFFFFFFFF AND JUMP JUMPDEST SWAP1 POP SWAP2 SWAP1 POP JUMP JUMPDEST PUSH2 0x202E CALLER PUSH2 0x3B23 JUMP JUMPDEST JUMP JUMPDEST PUSH1 0x0 DUP1 PUSH1 0x0 PUSH1 0x60 PUSH1 0x0 DUP1 PUSH1 0x0 DUP1 PUSH1 0x0 DUP1 PUSH2 0x2048 PUSH2 0x3FBA JUMP JUMPDEST PUSH1 0x8 PUSH1 0x0 DUP14 DUP2 MSTORE PUSH1 0x20 ADD SWAP1 DUP2 MSTORE PUSH1 0x20 ADD PUSH1 0x0 KECCAK256 PUSH2 0x220 PUSH1 0x40 MLOAD SWAP1 DUP2 ADD PUSH1 0x40 MSTORE SWAP1 DUP2 PUSH1 0x0 DUP3 ADD SLOAD DUP2 MSTORE PUSH1 0x20 ADD PUSH1 0x1 DUP3 ADD SLOAD DUP2 MSTORE PUSH1 0x20 ADD PUSH1 0x2 DUP3 ADD PUSH1 0x0 SWAP1 SLOAD SWAP1 PUSH2 0x100 EXP SWAP1 DIV PUSH20 0xFFFFFFFFFFFFFFFFFFFFFFFFFFFFFFFFFFFFFFFF AND PUSH20 0xFFFFFFFFFFFFFFFFFFFFFFFFFFFFFFFFFFFFFFFF AND PUSH20 0xFFFFFFFFFFFFFFFFFFFFFFFFFFFFFFFFFFFFFFFF AND DUP2 MSTORE PUSH1 0x20 ADD PUSH1 0x3 DUP3 ADD PUSH1 0x0 SWAP1 SLOAD SWAP1 PUSH2 0x100 EXP SWAP1 DIV PUSH20 0xFFFFFFFFFFFFFFFFFFFFFFFFFFFFFFFFFFFFFFFF AND PUSH20 0xFFFFFFFFFFFFFFFFFFFFFFFFFFFFFFFFFFFFFFFF AND PUSH20 0xFFFFFFFFFFFFFFFFFFFFFFFFFFFFFFFFFFFFFFFF AND DUP2 MSTORE PUSH1 0x20 ADD PUSH1 0x4 DUP3 ADD DUP1 SLOAD PUSH1 0x1 DUP2 PUSH1 0x1 AND ISZERO PUSH2 0x100 MUL SUB AND PUSH1 0x2 SWAP1 DIV DUP1 PUSH1 0x1F ADD PUSH1 0x20 DUP1 SWAP2 DIV MUL PUSH1 0x20 ADD PUSH1 0x40 MLOAD SWAP1 DUP2 ADD PUSH1 0x40 MSTORE DUP1 SWAP3 SWAP2 SWAP1 DUP2 DUP2 MSTORE PUSH1 0x20 ADD DUP3 DUP1 SLOAD PUSH1 0x1 DUP2 PUSH1 0x1 AND ISZERO PUSH2 0x100 MUL SUB AND PUSH1 0x2 SWAP1 DIV DUP1 ISZERO PUSH2 0x21C1 JUMPI DUP1 PUSH1 0x1F LT PUSH2 0x2196 JUMPI PUSH2 0x100 DUP1 DUP4 SLOAD DIV MUL DUP4 MSTORE SWAP2 PUSH1 0x20 ADD SWAP2 PUSH2 0x21C1 JUMP JUMPDEST DUP3 ADD SWAP2 SWAP1 PUSH1 0x0 MSTORE PUSH1 0x20 PUSH1 0x0 KECCAK256 SWAP1 JUMPDEST DUP2 SLOAD DUP2 MSTORE SWAP1 PUSH1 0x1 ADD SWAP1 PUSH1 0x20 ADD DUP1 DUP4 GT PUSH2 0x21A4 JUMPI DUP3 SWAP1 SUB PUSH1 0x1F AND DUP3 ADD SWAP2 JUMPDEST POP POP POP POP POP DUP2 MSTORE PUSH1 0x20 ADD PUSH1 0x5 DUP3 ADD DUP1 SLOAD PUSH1 0x1 DUP2 PUSH1 0x1 AND ISZERO PUSH2 0x100 MUL SUB AND PUSH1 0x2 SWAP1 DIV DUP1 PUSH1 0x1F ADD PUSH1 0x20 DUP1 SWAP2 DIV MUL PUSH1 0x20 ADD PUSH1 0x40 MLOAD SWAP1 DUP2 ADD PUSH1 0x40 MSTORE DUP1 SWAP3 SWAP2 SWAP1 DUP2 DUP2 MSTORE PUSH1 0x20 ADD DUP3 DUP1 SLOAD PUSH1 0x1 DUP2 PUSH1 0x1 AND ISZERO PUSH2 0x100 MUL SUB AND PUSH1 0x2 SWAP1 DIV DUP1 ISZERO PUSH2 0x2263 JUMPI DUP1 PUSH1 0x1F LT PUSH2 0x2238 JUMPI PUSH2 0x100 DUP1 DUP4 SLOAD DIV MUL DUP4 MSTORE SWAP2 PUSH1 0x20 ADD SWAP2 PUSH2 0x2263 JUMP JUMPDEST DUP3 ADD SWAP2 SWAP1 PUSH1 0x0 MSTORE PUSH1 0x20 PUSH1 0x0 KECCAK256 SWAP1 JUMPDEST DUP2 SLOAD DUP2 MSTORE SWAP1 PUSH1 0x1 ADD SWAP1 PUSH1 0x20 ADD DUP1 DUP4 GT PUSH2 0x2246 JUMPI DUP3 SWAP1 SUB PUSH1 0x1F AND DUP3 ADD SWAP2 JUMPDEST POP POP POP POP POP DUP2 MSTORE PUSH1 0x20 ADD PUSH1 0x6 DUP3 ADD DUP1 SLOAD PUSH1 0x1 DUP2 PUSH1 0x1 AND ISZERO PUSH2 0x100 MUL SUB AND PUSH1 0x2 SWAP1 DIV DUP1 PUSH1 0x1F ADD PUSH1 0x20 DUP1 SWAP2 DIV MUL PUSH1 0x20 ADD PUSH1 0x40 MLOAD SWAP1 DUP2 ADD PUSH1 0x40 MSTORE DUP1 SWAP3 SWAP2 SWAP1 DUP2 DUP2 MSTORE PUSH1 0x20 ADD DUP3 DUP1 SLOAD PUSH1 0x1 DUP2 PUSH1 0x1 AND ISZERO PUSH2 0x100 MUL SUB AND PUSH1 0x2 SWAP1 DIV DUP1 ISZERO PUSH2 0x2305 JUMPI DUP1 PUSH1 0x1F LT PUSH2 0x22DA JUMPI PUSH2 0x100 DUP1 DUP4 SLOAD DIV MUL DUP4 MSTORE SWAP2 PUSH1 0x20 ADD SWAP2 PUSH2 0x2305 JUMP JUMPDEST DUP3 ADD SWAP2 SWAP1 PUSH1 0x0 MSTORE PUSH1 0x20 PUSH1 0x0 KECCAK256 SWAP1 JUMPDEST DUP2 SLOAD DUP2 MSTORE SWAP1 PUSH1 0x1 ADD SWAP1 PUSH1 0x20 ADD DUP1 DUP4 GT PUSH2 0x22E8 JUMPI DUP3 SWAP1 SUB PUSH1 0x1F AND DUP3 ADD SWAP2 JUMPDEST POP POP POP POP POP DUP2 MSTORE PUSH1 0x20 ADD PUSH1 0x7 DUP3 ADD DUP1 SLOAD PUSH1 0x1 DUP2 PUSH1 0x1 AND ISZERO PUSH2 0x100 MUL SUB AND PUSH1 0x2 SWAP1 DIV DUP1 PUSH1 0x1F ADD PUSH1 0x20 DUP1 SWAP2 DIV MUL PUSH1 0x20 ADD PUSH1 0x40 MLOAD SWAP1 DUP2 ADD PUSH1 0x40 MSTORE DUP1 SWAP3 SWAP2 SWAP1 DUP2 DUP2 MSTORE PUSH1 0x20 ADD DUP3 DUP1 SLOAD PUSH1 0x1 DUP2 PUSH1 0x1 AND ISZERO PUSH2 0x100 MUL SUB AND PUSH1 0x2 SWAP1 DIV DUP1 ISZERO PUSH2 0x23A7 JUMPI DUP1 PUSH1 0x1F LT PUSH2 0x237C JUMPI PUSH2 0x100 DUP1 DUP4 SLOAD DIV MUL DUP4 MSTORE SWAP2 PUSH1 0x20 ADD SWAP2 PUSH2 0x23A7 JUMP JUMPDEST DUP3 ADD SWAP2 SWAP1 PUSH1 0x0 MSTORE PUSH1 0x20 PUSH1 0x0 KECCAK256 SWAP1 JUMPDEST DUP2 SLOAD DUP2 MSTORE SWAP1 PUSH1 0x1 ADD SWAP1 PUSH1 0x20 ADD DUP1 DUP4 GT PUSH2 0x238A JUMPI DUP3 SWAP1 SUB PUSH1 0x1F AND DUP3 ADD SWAP2 JUMPDEST POP POP POP POP POP DUP2 MSTORE PUSH1 0x20 ADD PUSH1 0x8 DUP3 ADD SLOAD DUP2 MSTORE PUSH1 0x20 ADD PUSH1 0x9 DUP3 ADD DUP1 SLOAD PUSH1 0x1 DUP2 PUSH1 0x1 AND ISZERO PUSH2 0x100 MUL SUB AND PUSH1 0x2 SWAP1 DIV DUP1 PUSH1 0x1F ADD PUSH1 0x20 DUP1 SWAP2 DIV MUL PUSH1 0x20 ADD PUSH1 0x40 MLOAD SWAP1 DUP2 ADD PUSH1 0x40 MSTORE DUP1 SWAP3 SWAP2 SWAP1 DUP2 DUP2 MSTORE PUSH1 0x20 ADD DUP3 DUP1 SLOAD PUSH1 0x1 DUP2 PUSH1 0x1 AND ISZERO PUSH2 0x100 MUL SUB AND PUSH1 0x2 SWAP1 DIV DUP1 ISZERO PUSH2 0x2453 JUMPI DUP1 PUSH1 0x1F LT PUSH2 0x2428 JUMPI PUSH2 0x100 DUP1 DUP4 SLOAD DIV MUL DUP4 MSTORE SWAP2 PUSH1 0x20 ADD SWAP2 PUSH2 0x2453 JUMP JUMPDEST DUP3 ADD SWAP2 SWAP1 PUSH1 0x0 MSTORE PUSH1 0x20 PUSH1 0x0 KECCAK256 SWAP1 JUMPDEST DUP2 SLOAD DUP2 MSTORE SWAP1 PUSH1 0x1 ADD SWAP1 PUSH1 0x20 ADD DUP1 DUP4 GT PUSH2 0x2436 JUMPI DUP3 SWAP1 SUB PUSH1 0x1F AND DUP3 ADD SWAP2 JUMPDEST POP POP POP POP POP DUP2 MSTORE PUSH1 0x20 ADD PUSH1 0xA DUP3 ADD SLOAD DUP2 MSTORE PUSH1 0x20 ADD PUSH1 0xB DUP3 ADD SLOAD DUP2 MSTORE PUSH1 0x20 ADD PUSH1 0xC DUP3 ADD SLOAD DUP2 MSTORE PUSH1 0x20 ADD PUSH1 0xD DUP3 ADD PUSH1 0x0 SWAP1 SLOAD SWAP1 PUSH2 0x100 EXP SWAP1 DIV PUSH1 0xFF AND PUSH1 0xC DUP2 GT ISZERO PUSH2 0x2498 JUMPI INVALID JUMPDEST PUSH1 0xC DUP2 GT ISZERO PUSH2 0x24A3 JUMPI INVALID JUMPDEST DUP2 MSTORE PUSH1 0x20 ADD PUSH1 0xD DUP3 ADD PUSH1 0x1 SWAP1 SLOAD SWAP1 PUSH2 0x100 EXP SWAP1 DIV PUSH20 0xFFFFFFFFFFFFFFFFFFFFFFFFFFFFFFFFFFFFFFFF AND PUSH20 0xFFFFFFFFFFFFFFFFFFFFFFFFFFFFFFFFFFFFFFFF AND PUSH20 0xFFFFFFFFFFFFFFFFFFFFFFFFFFFFFFFFFFFFFFFF AND DUP2 MSTORE PUSH1 0x20 ADD PUSH1 0xE DUP3 ADD PUSH1 0x0 SWAP1 SLOAD SWAP1 PUSH2 0x100 EXP SWAP1 DIV PUSH20 0xFFFFFFFFFFFFFFFFFFFFFFFFFFFFFFFFFFFFFFFF AND PUSH20 0xFFFFFFFFFFFFFFFFFFFFFFFFFFFFFFFFFFFFFFFF AND PUSH20 0xFFFFFFFFFFFFFFFFFFFFFFFFFFFFFFFFFFFFFFFF AND DUP2 MSTORE PUSH1 0x20 ADD PUSH1 0xF DUP3 ADD PUSH1 0x0 SWAP1 SLOAD SWAP1 PUSH2 0x100 EXP SWAP1 DIV PUSH20 0xFFFFFFFFFFFFFFFFFFFFFFFFFFFFFFFFFFFFFFFF AND PUSH20 0xFFFFFFFFFFFFFFFFFFFFFFFFFFFFFFFFFFFFFFFF AND PUSH20 0xFFFFFFFFFFFFFFFFFFFFFFFFFFFFFFFFFFFFFFFF AND DUP2 MSTORE POP POP SWAP1 POP DUP1 PUSH1 0x0 ADD MLOAD DUP2 PUSH1 0x20 ADD MLOAD DUP3 PUSH2 0x100 ADD MLOAD DUP4 PUSH2 0x120 ADD MLOAD DUP5 PUSH2 0x160 ADD MLOAD DUP6 PUSH2 0x140 ADD MLOAD DUP7 PUSH2 0x1A0 ADD MLOAD DUP8 PUSH2 0x1C0 ADD MLOAD DUP9 PUSH2 0x1E0 ADD MLOAD DUP10 PUSH2 0x200 ADD MLOAD DUP7 SWAP7 POP SWAP11 POP SWAP11 POP SWAP11 POP SWAP11 POP SWAP11 POP SWAP11 POP SWAP11 POP SWAP11 POP SWAP11 POP SWAP11 POP POP SWAP2 SWAP4 SWAP6 SWAP8 SWAP10 POP SWAP2 SWAP4 SWAP6 SWAP8 SWAP10 JUMP JUMPDEST PUSH1 0x5 PUSH1 0x0 SWAP1 SLOAD SWAP1 PUSH2 0x100 EXP SWAP1 DIV PUSH20 0xFFFFFFFFFFFFFFFFFFFFFFFFFFFFFFFFFFFFFFFF AND PUSH20 0xFFFFFFFFFFFFFFFFFFFFFFFFFFFFFFFFFFFFFFFF AND CALLER PUSH20 0xFFFFFFFFFFFFFFFFFFFFFFFFFFFFFFFFFFFFFFFF AND EQ ISZERO ISZERO PUSH2 0x2666 JUMPI PUSH1 0x0 DUP1 REVERT JUMPDEST PUSH1 0x0 PUSH20 0xFFFFFFFFFFFFFFFFFFFFFFFFFFFFFFFFFFFFFFFF AND PUSH1 0x0 DUP1 SWAP1 SLOAD SWAP1 PUSH2 0x100 EXP SWAP1 DIV PUSH20 0xFFFFFFFFFFFFFFFFFFFFFFFFFFFFFFFFFFFFFFFF AND PUSH20 0xFFFFFFFFFFFFFFFFFFFFFFFFFFFFFFFFFFFFFFFF AND PUSH32 0x5C486528EC3E3F0EA91181CFF8116F02BFA350E03B8B6F12E00765ADBB5AF85C PUSH1 0x40 MLOAD PUSH1 0x40 MLOAD DUP1 SWAP2 SUB SWAP1 LOG3 PUSH1 0x0 DUP1 PUSH1 0x0 PUSH2 0x100 EXP DUP2 SLOAD DUP2 PUSH20 0xFFFFFFFFFFFFFFFFFFFFFFFFFFFFFFFFFFFFFFFF MUL NOT AND SWAP1 DUP4 PUSH20 0xFFFFFFFFFFFFFFFFFFFFFFFFFFFFFFFFFFFFFFFF AND MUL OR SWAP1 SSTORE POP JUMP JUMPDEST PUSH2 0x272E CALLER PUSH2 0x3000 JUMP JUMPDEST ISZERO ISZERO PUSH2 0x2739 JUMPI PUSH1 0x0 DUP1 REVERT JUMPDEST PUSH2 0x2742 DUP2 PUSH2 0x3B7D JUMP JUMPDEST POP JUMP JUMPDEST PUSH1 0x0 DUP1 PUSH1 0x0 DUP1 PUSH1 0x60 DUP1 PUSH1 0x60 DUP1 PUSH1 0x0 DUP1 PUSH2 0x275C PUSH2 0x3FBA JUMP JUMPDEST PUSH1 0x8 PUSH1 0x0 DUP14 DUP2 MSTORE PUSH1 0x20 ADD SWAP1 DUP2 MSTORE PUSH1 0x20 ADD PUSH1 0x0 KECCAK256 PUSH2 0x220 PUSH1 0x40 MLOAD SWAP1 DUP2 ADD PUSH1 0x40 MSTORE SWAP1 DUP2 PUSH1 0x0 DUP3 ADD SLOAD DUP2 MSTORE PUSH1 0x20 ADD PUSH1 0x1 DUP3 ADD SLOAD DUP2 MSTORE PUSH1 0x20 ADD PUSH1 0x2 DUP3 ADD PUSH1 0x0 SWAP1 SLOAD SWAP1 PUSH2 0x100 EXP SWAP1 DIV PUSH20 0xFFFFFFFFFFFFFFFFFFFFFFFFFFFFFFFFFFFFFFFF AND PUSH20 0xFFFFFFFFFFFFFFFFFFFFFFFFFFFFFFFFFFFFFFFF AND PUSH20 0xFFFFFFFFFFFFFFFFFFFFFFFFFFFFFFFFFFFFFFFF AND DUP2 MSTORE PUSH1 0x20 ADD PUSH1 0x3 DUP3 ADD PUSH1 0x0 SWAP1 SLOAD SWAP1 PUSH2 0x100 EXP SWAP1 DIV PUSH20 0xFFFFFFFFFFFFFFFFFFFFFFFFFFFFFFFFFFFFFFFF AND PUSH20 0xFFFFFFFFFFFFFFFFFFFFFFFFFFFFFFFFFFFFFFFF AND PUSH20 0xFFFFFFFFFFFFFFFFFFFFFFFFFFFFFFFFFFFFFFFF AND DUP2 MSTORE PUSH1 0x20 ADD PUSH1 0x4 DUP3 ADD DUP1 SLOAD PUSH1 0x1 DUP2 PUSH1 0x1 AND ISZERO PUSH2 0x100 MUL SUB AND PUSH1 0x2 SWAP1 DIV DUP1 PUSH1 0x1F ADD PUSH1 0x20 DUP1 SWAP2 DIV MUL PUSH1 0x20 ADD PUSH1 0x40 MLOAD SWAP1 DUP2 ADD PUSH1 0x40 MSTORE DUP1 SWAP3 SWAP2 SWAP1 DUP2 DUP2 MSTORE PUSH1 0x20 ADD DUP3 DUP1 SLOAD PUSH1 0x1 DUP2 PUSH1 0x1 AND ISZERO PUSH2 0x100 MUL SUB AND PUSH1 0x2 SWAP1 DIV DUP1 ISZERO PUSH2 0x28D5 JUMPI DUP1 PUSH1 0x1F LT PUSH2 0x28AA JUMPI PUSH2 0x100 DUP1 DUP4 SLOAD DIV MUL DUP4 MSTORE SWAP2 PUSH1 0x20 ADD SWAP2 PUSH2 0x28D5 JUMP JUMPDEST DUP3 ADD SWAP2 SWAP1 PUSH1 0x0 MSTORE PUSH1 0x20 PUSH1 0x0 KECCAK256 SWAP1 JUMPDEST DUP2 SLOAD DUP2 MSTORE SWAP1 PUSH1 0x1 ADD SWAP1 PUSH1 0x20 ADD DUP1 DUP4 GT PUSH2 0x28B8 JUMPI DUP3 SWAP1 SUB PUSH1 0x1F AND DUP3 ADD SWAP2 JUMPDEST POP POP POP POP POP DUP2 MSTORE PUSH1 0x20 ADD PUSH1 0x5 DUP3 ADD DUP1 SLOAD PUSH1 0x1 DUP2 PUSH1 0x1 AND ISZERO PUSH2 0x100 MUL SUB AND PUSH1 0x2 SWAP1 DIV DUP1 PUSH1 0x1F ADD PUSH1 0x20 DUP1 SWAP2 DIV MUL PUSH1 0x20 ADD PUSH1 0x40 MLOAD SWAP1 DUP2 ADD PUSH1 0x40 MSTORE DUP1 SWAP3 SWAP2 SWAP1 DUP2 DUP2 MSTORE PUSH1 0x20 ADD DUP3 DUP1 SLOAD PUSH1 0x1 DUP2 PUSH1 0x1 AND ISZERO PUSH2 0x100 MUL SUB AND PUSH1 0x2 SWAP1 DIV DUP1 ISZERO PUSH2 0x2977 JUMPI DUP1 PUSH1 0x1F LT PUSH2 0x294C JUMPI PUSH2 0x100 DUP1 DUP4 SLOAD DIV MUL DUP4 MSTORE SWAP2 PUSH1 0x20 ADD SWAP2 PUSH2 0x2977 JUMP JUMPDEST DUP3 ADD SWAP2 SWAP1 PUSH1 0x0 MSTORE PUSH1 0x20 PUSH1 0x0 KECCAK256 SWAP1 JUMPDEST DUP2 SLOAD DUP2 MSTORE SWAP1 PUSH1 0x1 ADD SWAP1 PUSH1 0x20 ADD DUP1 DUP4 GT PUSH2 0x295A JUMPI DUP3 SWAP1 SUB PUSH1 0x1F AND DUP3 ADD SWAP2 JUMPDEST POP POP POP POP POP DUP2 MSTORE PUSH1 0x20 ADD PUSH1 0x6 DUP3 ADD DUP1 SLOAD PUSH1 0x1 DUP2 PUSH1 0x1 AND ISZERO PUSH2 0x100 MUL SUB AND PUSH1 0x2 SWAP1 DIV DUP1 PUSH1 0x1F ADD PUSH1 0x20 DUP1 SWAP2 DIV MUL PUSH1 0x20 ADD PUSH1 0x40 MLOAD SWAP1 DUP2 ADD PUSH1 0x40 MSTORE DUP1 SWAP3 SWAP2 SWAP1 DUP2 DUP2 MSTORE PUSH1 0x20 ADD DUP3 DUP1 SLOAD PUSH1 0x1 DUP2 PUSH1 0x1 AND ISZERO PUSH2 0x100 MUL SUB AND PUSH1 0x2 SWAP1 DIV DUP1 ISZERO PUSH2 0x2A19 JUMPI DUP1 PUSH1 0x1F LT PUSH2 0x29EE JUMPI PUSH2 0x100 DUP1 DUP4 SLOAD DIV MUL DUP4 MSTORE SWAP2 PUSH1 0x20 ADD SWAP2 PUSH2 0x2A19 JUMP JUMPDEST DUP3 ADD SWAP2 SWAP1 PUSH1 0x0 MSTORE PUSH1 0x20 PUSH1 0x0 KECCAK256 SWAP1 JUMPDEST DUP2 SLOAD DUP2 MSTORE SWAP1 PUSH1 0x1 ADD SWAP1 PUSH1 0x20 ADD DUP1 DUP4 GT PUSH2 0x29FC JUMPI DUP3 SWAP1 SUB PUSH1 0x1F AND DUP3 ADD SWAP2 JUMPDEST POP POP POP POP POP DUP2 MSTORE PUSH1 0x20 ADD PUSH1 0x7 DUP3 ADD DUP1 SLOAD PUSH1 0x1 DUP2 PUSH1 0x1 AND ISZERO PUSH2 0x100 MUL SUB AND PUSH1 0x2 SWAP1 DIV DUP1 PUSH1 0x1F ADD PUSH1 0x20 DUP1 SWAP2 DIV MUL PUSH1 0x20 ADD PUSH1 0x40 MLOAD SWAP1 DUP2 ADD PUSH1 0x40 MSTORE DUP1 SWAP3 SWAP2 SWAP1 DUP2 DUP2 MSTORE PUSH1 0x20 ADD DUP3 DUP1 SLOAD PUSH1 0x1 DUP2 PUSH1 0x1 AND ISZERO PUSH2 0x100 MUL SUB AND PUSH1 0x2 SWAP1 DIV DUP1 ISZERO PUSH2 0x2ABB JUMPI DUP1 PUSH1 0x1F LT PUSH2 0x2A90 JUMPI PUSH2 0x100 DUP1 DUP4 SLOAD DIV MUL DUP4 MSTORE SWAP2 PUSH1 0x20 ADD SWAP2 PUSH2 0x2ABB JUMP JUMPDEST DUP3 ADD SWAP2 SWAP1 PUSH1 0x0 MSTORE PUSH1 0x20 PUSH1 0x0 KECCAK256 SWAP1 JUMPDEST DUP2 SLOAD DUP2 MSTORE SWAP1 PUSH1 0x1 ADD SWAP1 PUSH1 0x20 ADD DUP1 DUP4 GT PUSH2 0x2A9E JUMPI DUP3 SWAP1 SUB PUSH1 0x1F AND DUP3 ADD SWAP2 JUMPDEST POP POP POP POP POP DUP2 MSTORE PUSH1 0x20 ADD PUSH1 0x8 DUP3 ADD SLOAD DUP2 MSTORE PUSH1 0x20 ADD PUSH1 0x9 DUP3 ADD DUP1 SLOAD PUSH1 0x1 DUP2 PUSH1 0x1 AND ISZERO PUSH2 0x100 MUL SUB AND PUSH1 0x2 SWAP1 DIV DUP1 PUSH1 0x1F ADD PUSH1 0x20 DUP1 SWAP2 DIV MUL PUSH1 0x20 ADD PUSH1 0x40 MLOAD SWAP1 DUP2 ADD PUSH1 0x40 MSTORE DUP1 SWAP3 SWAP2 SWAP1 DUP2 DUP2 MSTORE PUSH1 0x20 ADD DUP3 DUP1 SLOAD PUSH1 0x1 DUP2 PUSH1 0x1 AND ISZERO PUSH2 0x100 MUL SUB AND PUSH1 0x2 SWAP1 DIV DUP1 ISZERO PUSH2 0x2B67 JUMPI DUP1 PUSH1 0x1F LT PUSH2 0x2B3C JUMPI PUSH2 0x100 DUP1 DUP4 SLOAD DIV MUL DUP4 MSTORE SWAP2 PUSH1 0x20 ADD SWAP2 PUSH2 0x2B67 JUMP JUMPDEST DUP3 ADD SWAP2 SWAP1 PUSH1 0x0 MSTORE PUSH1 0x20 PUSH1 0x0 KECCAK256 SWAP1 JUMPDEST DUP2 SLOAD DUP2 MSTORE SWAP1 PUSH1 0x1 ADD SWAP1 PUSH1 0x20 ADD DUP1 DUP4 GT PUSH2 0x2B4A JUMPI DUP3 SWAP1 SUB PUSH1 0x1F AND DUP3 ADD SWAP2 JUMPDEST POP POP POP POP POP DUP2 MSTORE PUSH1 0x20 ADD PUSH1 0xA DUP3 ADD SLOAD DUP2 MSTORE PUSH1 0x20 ADD PUSH1 0xB DUP3 ADD SLOAD DUP2 MSTORE PUSH1 0x20 ADD PUSH1 0xC DUP3 ADD SLOAD DUP2 MSTORE PUSH1 0x20 ADD PUSH1 0xD DUP3 ADD PUSH1 0x0 SWAP1 SLOAD SWAP1 PUSH2 0x100 EXP SWAP1 DIV PUSH1 0xFF AND PUSH1 0xC DUP2 GT ISZERO PUSH2 0x2BAC JUMPI INVALID JUMPDEST PUSH1 0xC DUP2 GT ISZERO PUSH2 0x2BB7 JUMPI INVALID JUMPDEST DUP2 MSTORE PUSH1 0x20 ADD PUSH1 0xD DUP3 ADD PUSH1 0x1 SWAP1 SLOAD SWAP1 PUSH2 0x100 EXP SWAP1 DIV PUSH20 0xFFFFFFFFFFFFFFFFFFFFFFFFFFFFFFFFFFFFFFFF AND PUSH20 0xFFFFFFFFFFFFFFFFFFFFFFFFFFFFFFFFFFFFFFFF AND PUSH20 0xFFFFFFFFFFFFFFFFFFFFFFFFFFFFFFFFFFFFFFFF AND DUP2 MSTORE PUSH1 0x20 ADD PUSH1 0xE DUP3 ADD PUSH1 0x0 SWAP1 SLOAD SWAP1 PUSH2 0x100 EXP SWAP1 DIV PUSH20 0xFFFFFFFFFFFFFFFFFFFFFFFFFFFFFFFFFFFFFFFF AND PUSH20 0xFFFFFFFFFFFFFFFFFFFFFFFFFFFFFFFFFFFFFFFF AND PUSH20 0xFFFFFFFFFFFFFFFFFFFFFFFFFFFFFFFFFFFFFFFF AND DUP2 MSTORE PUSH1 0x20 ADD PUSH1 0xF DUP3 ADD PUSH1 0x0 SWAP1 SLOAD SWAP1 PUSH2 0x100 EXP SWAP1 DIV PUSH20 0xFFFFFFFFFFFFFFFFFFFFFFFFFFFFFFFFFFFFFFFF AND PUSH20 0xFFFFFFFFFFFFFFFFFFFFFFFFFFFFFFFFFFFFFFFF AND PUSH20 0xFFFFFFFFFFFFFFFFFFFFFFFFFFFFFFFFFFFFFFFF AND DUP2 MSTORE POP POP SWAP1 POP DUP1 PUSH1 0x0 ADD MLOAD DUP2 PUSH1 0x20 ADD MLOAD DUP3 PUSH1 0x40 ADD MLOAD DUP4 PUSH1 0x60 ADD MLOAD DUP5 PUSH1 0x80 ADD MLOAD DUP6 PUSH1 0xA0 ADD MLOAD DUP7 PUSH1 0xC0 ADD MLOAD DUP8 PUSH1 0xE0 ADD MLOAD DUP9 PUSH2 0x140 ADD MLOAD DUP10 PUSH2 0x180 ADD MLOAD DUP6 SWAP6 POP DUP5 SWAP5 POP DUP4 SWAP4 POP DUP3 SWAP3 POP SWAP11 POP SWAP11 POP SWAP11 POP SWAP11 POP SWAP11 POP SWAP11 POP SWAP11 POP SWAP11 POP SWAP11 POP SWAP11 POP POP SWAP2 SWAP4 SWAP6 SWAP8 SWAP10 POP SWAP2 SWAP4 SWAP6 SWAP8 SWAP10 JUMP JUMPDEST PUSH2 0x2D2A CALLER PUSH2 0x3000 JUMP JUMPDEST ISZERO ISZERO PUSH2 0x2D35 JUMPI PUSH1 0x0 DUP1 REVERT JUMPDEST DUP1 PUSH1 0x8 PUSH1 0xC DUP2 GT ISZERO PUSH2 0x2D43 JUMPI INVALID JUMPDEST PUSH1 0x8 PUSH1 0x0 DUP4 DUP2 MSTORE PUSH1 0x20 ADD SWAP1 DUP2 MSTORE PUSH1 0x20 ADD PUSH1 0x0 KECCAK256 PUSH1 0xD ADD PUSH1 0x0 SWAP1 SLOAD SWAP1 PUSH2 0x100 EXP SWAP1 DIV PUSH1 0xFF AND PUSH1 0xC DUP2 GT ISZERO PUSH2 0x2D72 JUMPI INVALID JUMPDEST EQ ISZERO ISZERO PUSH2 0x2D7E JUMPI PUSH1 0x0 DUP1 REVERT JUMPDEST PUSH1 0x8 PUSH1 0x0 DUP4 DUP2 MSTORE PUSH1 0x20 ADD SWAP1 DUP2 MSTORE PUSH1 0x20 ADD PUSH1 0x0 KECCAK256 PUSH1 0xD ADD PUSH1 0x1 SWAP1 SLOAD SWAP1 PUSH2 0x100 EXP SWAP1 DIV PUSH20 0xFFFFFFFFFFFFFFFFFFFFFFFFFFFFFFFFFFFFFFFF AND DUP1 PUSH20 0xFFFFFFFFFFFFFFFFFFFFFFFFFFFFFFFFFFFFFFFF AND CALLER PUSH20 0xFFFFFFFFFFFFFFFFFFFFFFFFFFFFFFFFFFFFFFFF AND EQ ISZERO ISZERO PUSH2 0x2DEF JUMPI PUSH1 0x0 DUP1 REVERT JUMPDEST PUSH1 0x9 PUSH1 0x8 PUSH1 0x0 DUP6 DUP2 MSTORE PUSH1 0x20 ADD SWAP1 DUP2 MSTORE PUSH1 0x20 ADD PUSH1 0x0 KECCAK256 PUSH1 0xD ADD PUSH1 0x0 PUSH2 0x100 EXP DUP2 SLOAD DUP2 PUSH1 0xFF MUL NOT AND SWAP1 DUP4 PUSH1 0xC DUP2 GT ISZERO PUSH2 0x2E22 JUMPI INVALID JUMPDEST MUL OR SWAP1 SSTORE POP PUSH32 0xC5C33776D405E5686E4386E1EF31A65CF6195E4F7CEB8808AB64D05B6CCBC2A6 DUP4 PUSH1 0x40 MLOAD DUP1 DUP3 DUP2 MSTORE PUSH1 0x20 ADD SWAP2 POP POP PUSH1 0x40 MLOAD DUP1 SWAP2 SUB SWAP1 LOG1 POP POP POP JUMP JUMPDEST PUSH1 0x0 PUSH2 0x2E79 DUP3 PUSH1 0x4 PUSH2 0x3A8F SWAP1 SWAP2 SWAP1 PUSH4 0xFFFFFFFF AND JUMP JUMPDEST SWAP1 POP SWAP2 SWAP1 POP JUMP JUMPDEST PUSH2 0x2E89 CALLER PUSH2 0x3000 JUMP JUMPDEST ISZERO ISZERO PUSH2 0x2E94 JUMPI PUSH1 0x0 DUP1 REVERT JUMPDEST DUP2 PUSH1 0x6 PUSH1 0xC DUP2 GT ISZERO PUSH2 0x2EA2 JUMPI INVALID JUMPDEST PUSH1 0x8 PUSH1 0x0 DUP4 DUP2 MSTORE PUSH1 0x20 ADD SWAP1 DUP2 MSTORE PUSH1 0x20 ADD PUSH1 0x0 KECCAK256 PUSH1 0xD ADD PUSH1 0x0 SWAP1 SLOAD SWAP1 PUSH2 0x100 EXP SWAP1 DIV PUSH1 0xFF AND PUSH1 0xC DUP2 GT ISZERO PUSH2 0x2ED1 JUMPI INVALID JUMPDEST EQ ISZERO ISZERO PUSH2 0x2EDD JUMPI PUSH1 0x0 DUP1 REVERT JUMPDEST PUSH1 0x8 PUSH1 0x0 DUP5 DUP2 MSTORE PUSH1 0x20 ADD SWAP1 DUP2 MSTORE PUSH1 0x20 ADD PUSH1 0x0 KECCAK256 PUSH1 0x2 ADD PUSH1 0x0 SWAP1 SLOAD SWAP1 PUSH2 0x100 EXP SWAP1 DIV PUSH20 0xFFFFFFFFFFFFFFFFFFFFFFFFFFFFFFFFFFFFFFFF AND DUP1 PUSH20 0xFFFFFFFFFFFFFFFFFFFFFFFFFFFFFFFFFFFFFFFF AND CALLER PUSH20 0xFFFFFFFFFFFFFFFFFFFFFFFFFFFFFFFFFFFFFFFF AND EQ ISZERO ISZERO PUSH2 0x2F4E JUMPI PUSH1 0x0 DUP1 REVERT JUMPDEST PUSH1 0x7 PUSH1 0x8 PUSH1 0x0 DUP7 DUP2 MSTORE PUSH1 0x20 ADD SWAP1 DUP2 MSTORE PUSH1 0x20 ADD PUSH1 0x0 KECCAK256 PUSH1 0xD ADD PUSH1 0x0 PUSH2 0x100 EXP DUP2 SLOAD DUP2 PUSH1 0xFF MUL NOT AND SWAP1 DUP4 PUSH1 0xC DUP2 GT ISZERO PUSH2 0x2F81 JUMPI INVALID JUMPDEST MUL OR SWAP1 SSTORE POP DUP3 PUSH1 0x8 PUSH1 0x0 DUP7 DUP2 MSTORE PUSH1 0x20 ADD SWAP1 DUP2 MSTORE PUSH1 0x20 ADD PUSH1 0x0 KECCAK256 PUSH1 0xB ADD DUP2 SWAP1 SSTORE POP PUSH32 0x539B4A835A8A5D1BC5756A9F146E2BFEAA6BD6B1FA77A7631C0A5154C86CDD03 PUSH1 0x6 SLOAD PUSH1 0x40 MLOAD DUP1 DUP3 DUP2 MSTORE PUSH1 0x20 ADD SWAP2 POP POP PUSH1 0x40 MLOAD DUP1 SWAP2 SUB SWAP1 LOG1 POP POP POP POP JUMP JUMPDEST PUSH2 0x2FE9 CALLER PUSH2 0x2008 JUMP JUMPDEST ISZERO ISZERO PUSH2 0x2FF4 JUMPI PUSH1 0x0 DUP1 REVERT JUMPDEST PUSH2 0x2FFD DUP2 PUSH2 0x3BD7 JUMP JUMPDEST POP JUMP JUMPDEST PUSH1 0x0 PUSH2 0x3016 DUP3 PUSH1 0x2 PUSH2 0x3A8F SWAP1 SWAP2 SWAP1 PUSH4 0xFFFFFFFF AND JUMP JUMPDEST SWAP1 POP SWAP2 SWAP1 POP JUMP JUMPDEST PUSH1 0x0 DUP1 PUSH1 0x0 SWAP1 SLOAD SWAP1 PUSH2 0x100 EXP SWAP1 DIV PUSH20 0xFFFFFFFFFFFFFFFFFFFFFFFFFFFFFFFFFFFFFFFF AND PUSH20 0xFFFFFFFFFFFFFFFFFFFFFFFFFFFFFFFFFFFFFFFF AND CALLER PUSH20 0xFFFFFFFFFFFFFFFFFFFFFFFFFFFFFFFFFFFFFFFF AND EQ SWAP1 POP SWAP1 JUMP JUMPDEST PUSH2 0x307D CALLER PUSH2 0x3000 JUMP JUMPDEST ISZERO ISZERO PUSH2 0x3088 JUMPI PUSH1 0x0 DUP1 REVERT JUMPDEST DUP1 PUSH1 0x5 PUSH1 0xC DUP2 GT ISZERO PUSH2 0x3096 JUMPI INVALID JUMPDEST PUSH1 0x8 PUSH1 0x0 DUP4 DUP2 MSTORE PUSH1 0x20 ADD SWAP1 DUP2 MSTORE PUSH1 0x20 ADD PUSH1 0x0 KECCAK256 PUSH1 0xD ADD PUSH1 0x0 SWAP1 SLOAD SWAP1 PUSH2 0x100 EXP SWAP1 DIV PUSH1 0xFF AND PUSH1 0xC DUP2 GT ISZERO PUSH2 0x30C5 JUMPI INVALID JUMPDEST EQ ISZERO ISZERO PUSH2 0x30D1 JUMPI PUSH1 0x0 DUP1 REVERT JUMPDEST PUSH1 0x8 PUSH1 0x0 DUP4 DUP2 MSTORE PUSH1 0x20 ADD SWAP1 DUP2 MSTORE PUSH1 0x20 ADD PUSH1 0x0 KECCAK256 PUSH1 0x2 ADD PUSH1 0x0 SWAP1 SLOAD SWAP1 PUSH2 0x100 EXP SWAP1 DIV PUSH20 0xFFFFFFFFFFFFFFFFFFFFFFFFFFFFFFFFFFFFFFFF AND DUP1 PUSH20 0xFFFFFFFFFFFFFFFFFFFFFFFFFFFFFFFFFFFFFFFF AND CALLER PUSH20 0xFFFFFFFFFFFFFFFFFFFFFFFFFFFFFFFFFFFFFFFF AND EQ ISZERO ISZERO PUSH2 0x3142 JUMPI PUSH1 0x0 DUP1 REVERT JUMPDEST PUSH1 0x6 PUSH1 0x8 PUSH1 0x0 DUP6 DUP2 MSTORE PUSH1 0x20 ADD SWAP1 DUP2 MSTORE PUSH1 0x20 ADD PUSH1 0x0 KECCAK256 PUSH1 0xD ADD PUSH1 0x0 PUSH2 0x100 EXP DUP2 SLOAD DUP2 PUSH1 0xFF MUL NOT AND SWAP1 DUP4 PUSH1 0xC DUP2 GT ISZERO PUSH2 0x3175 JUMPI INVALID JUMPDEST MUL OR SWAP1 SSTORE POP PUSH32 0xE66BB55F536A4CC96647DDE6FF37B712C07348EAA88366931F491D93C0FCD981 DUP4 PUSH1 0x40 MLOAD DUP1 DUP3 DUP2 MSTORE PUSH1 0x20 ADD SWAP2 POP POP PUSH1 0x40 MLOAD DUP1 SWAP2 SUB SWAP1 LOG1 POP POP POP JUMP JUMPDEST PUSH1 0x0 PUSH2 0x31CC DUP3 PUSH1 0x1 PUSH2 0x3A8F SWAP1 SWAP2 SWAP1 PUSH4 0xFFFFFFFF AND JUMP JUMPDEST SWAP1 POP SWAP2 SWAP1 POP JUMP JUMPDEST PUSH2 0x31DC CALLER PUSH2 0x3C31 JUMP JUMPDEST JUMP JUMPDEST PUSH2 0x31E7 CALLER PUSH2 0x2E63 JUMP JUMPDEST ISZERO ISZERO PUSH2 0x31F2 JUMPI PUSH1 0x0 DUP1 REVERT JUMPDEST DUP1 PUSH1 0xB PUSH1 0xC DUP2 GT ISZERO PUSH2 0x3200 JUMPI INVALID JUMPDEST PUSH1 0x8 PUSH1 0x0 DUP4 DUP2 MSTORE PUSH1 0x20 ADD SWAP1 DUP2 MSTORE PUSH1 0x20 ADD PUSH1 0x0 KECCAK256 PUSH1 0xD ADD PUSH1 0x0 SWAP1 SLOAD SWAP1 PUSH2 0x100 EXP SWAP1 DIV PUSH1 0xFF AND PUSH1 0xC DUP2 GT ISZERO PUSH2 0x322F JUMPI INVALID JUMPDEST EQ ISZERO ISZERO PUSH2 0x323B JUMPI PUSH1 0x0 DUP1 REVERT JUMPDEST PUSH1 0x8 PUSH1 0x0 DUP4 DUP2 MSTORE PUSH1 0x20 ADD SWAP1 DUP2 MSTORE PUSH1 0x20 ADD PUSH1 0x0 KECCAK256 PUSH1 0xB ADD SLOAD DUP1 CALLVALUE LT ISZERO ISZERO ISZERO PUSH2 0x3261 JUMPI PUSH1 0x0 DUP1 REVERT JUMPDEST DUP3 CALLER PUSH1 0x0 PUSH1 0x8 PUSH1 0x0 DUP5 DUP2 MSTORE PUSH1 0x20 ADD SWAP1 DUP2 MSTORE PUSH1 0x20 ADD PUSH1 0x0 KECCAK256 PUSH1 0xB ADD SLOAD SWAP1 POP PUSH1 0x0 DUP2 CALLVALUE SUB SWAP1 POP DUP3 PUSH20 0xFFFFFFFFFFFFFFFFFFFFFFFFFFFFFFFFFFFFFFFF AND PUSH2 0x8FC DUP3 SWAP1 DUP2 ISZERO MUL SWAP1 PUSH1 0x40 MLOAD PUSH1 0x0 PUSH1 0x40 MLOAD DUP1 DUP4 SUB DUP2 DUP6 DUP9 DUP9 CALL SWAP4 POP POP POP POP ISZERO DUP1 ISZERO PUSH2 0x32CB JUMPI RETURNDATASIZE PUSH1 0x0 DUP1 RETURNDATACOPY RETURNDATASIZE PUSH1 0x0 REVERT JUMPDEST POP CALLER PUSH1 0x8 PUSH1 0x0 DUP10 DUP2 MSTORE PUSH1 0x20 ADD SWAP1 DUP2 MSTORE PUSH1 0x20 ADD PUSH1 0x0 KECCAK256 PUSH1 0xF ADD PUSH1 0x0 PUSH2 0x100 EXP DUP2 SLOAD DUP2 PUSH20 0xFFFFFFFFFFFFFFFFFFFFFFFFFFFFFFFFFFFFFFFF MUL NOT AND SWAP1 DUP4 PUSH20 0xFFFFFFFFFFFFFFFFFFFFFFFFFFFFFFFFFFFFFFFF AND MUL OR SWAP1 SSTORE POP PUSH1 0x0 PUSH2 0x3362 PUSH1 0x8 PUSH1 0x0 DUP11 DUP2 MSTORE PUSH1 0x20 ADD SWAP1 DUP2 MSTORE PUSH1 0x20 ADD PUSH1 0x0 KECCAK256 PUSH1 0xE ADD PUSH1 0x0 SWAP1 SLOAD SWAP1 PUSH2 0x100 EXP SWAP1 DIV PUSH20 0xFFFFFFFFFFFFFFFFFFFFFFFFFFFFFFFFFFFFFFFF AND PUSH2 0x3A2B JUMP JUMPDEST SWAP1 POP DUP1 PUSH20 0xFFFFFFFFFFFFFFFFFFFFFFFFFFFFFFFFFFFFFFFF AND PUSH2 0x8FC PUSH1 0x8 PUSH1 0x0 DUP12 DUP2 MSTORE PUSH1 0x20 ADD SWAP1 DUP2 MSTORE PUSH1 0x20 ADD PUSH1 0x0 KECCAK256 PUSH1 0xB ADD SLOAD SWAP1 DUP2 ISZERO MUL SWAP1 PUSH1 0x40 MLOAD PUSH1 0x0 PUSH1 0x40 MLOAD DUP1 DUP4 SUB DUP2 DUP6 DUP9 DUP9 CALL SWAP4 POP POP POP POP ISZERO DUP1 ISZERO PUSH2 0x33C0 JUMPI RETURNDATASIZE PUSH1 0x0 DUP1 RETURNDATACOPY RETURNDATASIZE PUSH1 0x0 REVERT JUMPDEST POP CALLER PUSH1 0x8 PUSH1 0x0 DUP11 DUP2 MSTORE PUSH1 0x20 ADD SWAP1 DUP2 MSTORE PUSH1 0x20 ADD PUSH1 0x0 KECCAK256 PUSH1 0x2 ADD PUSH1 0x0 PUSH2 0x100 EXP DUP2 SLOAD DUP2 PUSH20 0xFFFFFFFFFFFFFFFFFFFFFFFFFFFFFFFFFFFFFFFF MUL NOT AND SWAP1 DUP4 PUSH20 0xFFFFFFFFFFFFFFFFFFFFFFFFFFFFFFFFFFFFFFFF AND MUL OR SWAP1 SSTORE POP CALLER PUSH1 0x8 PUSH1 0x0 DUP11 DUP2 MSTORE PUSH1 0x20 ADD SWAP1 DUP2 MSTORE PUSH1 0x20 ADD PUSH1 0x0 KECCAK256 PUSH1 0xF ADD PUSH1 0x0 PUSH2 0x100 EXP DUP2 SLOAD DUP2 PUSH20 0xFFFFFFFFFFFFFFFFFFFFFFFFFFFFFFFFFFFFFFFF MUL NOT AND SWAP1 DUP4 PUSH20 0xFFFFFFFFFFFFFFFFFFFFFFFFFFFFFFFFFFFFFFFF AND MUL OR SWAP1 SSTORE POP PUSH1 0xC PUSH1 0x8 PUSH1 0x0 DUP11 DUP2 MSTORE PUSH1 0x20 ADD SWAP1 DUP2 MSTORE PUSH1 0x20 ADD PUSH1 0x0 KECCAK256 PUSH1 0xD ADD PUSH1 0x0 PUSH2 0x100 EXP DUP2 SLOAD DUP2 PUSH1 0xFF MUL NOT AND SWAP1 DUP4 PUSH1 0xC DUP2 GT ISZERO PUSH2 0x349E JUMPI INVALID JUMPDEST MUL OR SWAP1 SSTORE POP NUMBER PUSH1 0x9 PUSH1 0x0 DUP11 DUP2 MSTORE PUSH1 0x20 ADD SWAP1 DUP2 MSTORE PUSH1 0x20 ADD PUSH1 0x0 KECCAK256 PUSH1 0x2 ADD DUP2 SWAP1 SSTORE POP PUSH32 0xC7E94446A942A0541D0224ECE380A730C85F03DB7188FCA783225DA9255929F7 DUP9 PUSH1 0x40 MLOAD DUP1 DUP3 DUP2 MSTORE PUSH1 0x20 ADD SWAP2 POP POP PUSH1 0x40 MLOAD DUP1 SWAP2 SUB SWAP1 LOG1 POP POP POP POP POP POP POP POP JUMP JUMPDEST PUSH1 0x0 DUP1 PUSH1 0x0 SWAP1 SLOAD SWAP1 PUSH2 0x100 EXP SWAP1 DIV PUSH20 0xFFFFFFFFFFFFFFFFFFFFFFFFFFFFFFFFFFFFFFFF AND SWAP1 POP SWAP1 JUMP JUMPDEST PUSH2 0x3531 CALLER PUSH2 0x3000 JUMP JUMPDEST ISZERO ISZERO PUSH2 0x353C JUMPI PUSH1 0x0 DUP1 REVERT JUMPDEST DUP2 PUSH1 0x4 PUSH1 0xC DUP2 GT ISZERO PUSH2 0x354A JUMPI INVALID JUMPDEST PUSH1 0x8 PUSH1 0x0 DUP4 DUP2 MSTORE PUSH1 0x20 ADD SWAP1 DUP2 MSTORE PUSH1 0x20 ADD PUSH1 0x0 KECCAK256 PUSH1 0xD ADD PUSH1 0x0 SWAP1 SLOAD SWAP1 PUSH2 0x100 EXP SWAP1 DIV PUSH1 0xFF AND PUSH1 0xC DUP2 GT ISZERO PUSH2 0x3579 JUMPI INVALID JUMPDEST EQ ISZERO ISZERO PUSH2 0x3585 JUMPI PUSH1 0x0 DUP1 REVERT JUMPDEST PUSH1 0x8 PUSH1 0x0 DUP5 DUP2 MSTORE PUSH1 0x20 ADD SWAP1 DUP2 MSTORE PUSH1 0x20 ADD PUSH1 0x0 KECCAK256 PUSH1 0x2 ADD PUSH1 0x0 SWAP1 SLOAD SWAP1 PUSH2 0x100 EXP SWAP1 DIV PUSH20 0xFFFFFFFFFFFFFFFFFFFFFFFFFFFFFFFFFFFFFFFF AND DUP1 PUSH20 0xFFFFFFFFFFFFFFFFFFFFFFFFFFFFFFFFFFFFFFFF AND CALLER PUSH20 0xFFFFFFFFFFFFFFFFFFFFFFFFFFFFFFFFFFFFFFFF AND EQ ISZERO ISZERO PUSH2 0x35F6 JUMPI PUSH1 0x0 DUP1 REVERT JUMPDEST PUSH1 0x5 PUSH1 0x8 PUSH1 0x0 DUP7 DUP2 MSTORE PUSH1 0x20 ADD SWAP1 DUP2 MSTORE PUSH1 0x20 ADD PUSH1 0x0 KECCAK256 PUSH1 0xD ADD PUSH1 0x0 PUSH2 0x100 EXP DUP2 SLOAD DUP2 PUSH1 0xFF MUL NOT AND SWAP1 DUP4 PUSH1 0xC DUP2 GT ISZERO PUSH2 0x3629 JUMPI INVALID JUMPDEST MUL OR SWAP1 SSTORE POP DUP3 PUSH1 0x8 PUSH1 0x0 DUP7 DUP2 MSTORE PUSH1 0x20 ADD SWAP1 DUP2 MSTORE PUSH1 0x20 ADD PUSH1 0x0 KECCAK256 PUSH1 0xC ADD DUP2 SWAP1 SSTORE POP PUSH32 0x5725E53FD0EFED5294B7DB2AF148F040264A63630B4DEB0AFBCCF6E60830988A DUP5 PUSH1 0x40 MLOAD DUP1 DUP3 DUP2 MSTORE PUSH1 0x20 ADD SWAP2 POP POP PUSH1 0x40 MLOAD DUP1 SWAP2 SUB SWAP1 LOG1 POP POP POP POP JUMP JUMPDEST PUSH1 0x5 PUSH1 0x0 SWAP1 SLOAD SWAP1 PUSH2 0x100 EXP SWAP1 DIV PUSH20 0xFFFFFFFFFFFFFFFFFFFFFFFFFFFFFFFFFFFFFFFF AND PUSH20 0xFFFFFFFFFFFFFFFFFFFFFFFFFFFFFFFFFFFFFFFF AND CALLER PUSH20 0xFFFFFFFFFFFFFFFFFFFFFFFFFFFFFFFFFFFFFFFF AND EQ ISZERO ISZERO PUSH2 0x36E2 JUMPI PUSH1 0x0 DUP1 REVERT JUMPDEST PUSH2 0x36EB DUP2 PUSH2 0x3C8B JUMP JUMPDEST POP JUMP JUMPDEST PUSH2 0x36F7 DUP2 PUSH2 0x3D85 JUMP JUMPDEST POP JUMP JUMPDEST PUSH2 0x3703 CALLER PUSH2 0x3000 JUMP JUMPDEST ISZERO ISZERO PUSH2 0x370E JUMPI PUSH1 0x0 DUP1 REVERT JUMPDEST DUP1 PUSH1 0x1 PUSH1 0xC DUP2 GT ISZERO PUSH2 0x371C JUMPI INVALID JUMPDEST PUSH1 0x8 PUSH1 0x0 DUP4 DUP2 MSTORE PUSH1 0x20 ADD SWAP1 DUP2 MSTORE PUSH1 0x20 ADD PUSH1 0x0 KECCAK256 PUSH1 0xD ADD PUSH1 0x0 SWAP1 SLOAD SWAP1 PUSH2 0x100 EXP SWAP1 DIV PUSH1 0xFF AND PUSH1 0xC DUP2 GT ISZERO PUSH2 0x374B JUMPI INVALID JUMPDEST EQ ISZERO ISZERO PUSH2 0x3757 JUMPI PUSH1 0x0 DUP1 REVERT JUMPDEST PUSH1 0x8 PUSH1 0x0 DUP4 DUP2 MSTORE PUSH1 0x20 ADD SWAP1 DUP2 MSTORE PUSH1 0x20 ADD PUSH1 0x0 KECCAK256 PUSH1 0xB ADD SLOAD DUP1 CALLVALUE LT ISZERO ISZERO ISZERO PUSH2 0x377D JUMPI PUSH1 0x0 DUP1 REVERT JUMPDEST DUP3 CALLER PUSH1 0x0 PUSH1 0x8 PUSH1 0x0 DUP5 DUP2 MSTORE PUSH1 0x20 ADD SWAP1 DUP2 MSTORE PUSH1 0x20 ADD PUSH1 0x0 KECCAK256 PUSH1 0xB ADD SLOAD SWAP1 POP PUSH1 0x0 DUP2 CALLVALUE SUB SWAP1 POP DUP3 PUSH20 0xFFFFFFFFFFFFFFFFFFFFFFFFFFFFFFFFFFFFFFFF AND PUSH2 0x8FC DUP3 SWAP1 DUP2 ISZERO MUL SWAP1 PUSH1 0x40 MLOAD PUSH1 0x0 PUSH1 0x40 MLOAD DUP1 DUP4 SUB DUP2 DUP6 DUP9 DUP9 CALL SWAP4 POP POP POP POP ISZERO DUP1 ISZERO PUSH2 0x37E7 JUMPI RETURNDATASIZE PUSH1 0x0 DUP1 RETURNDATACOPY RETURNDATASIZE PUSH1 0x0 REVERT JUMPDEST POP PUSH1 0x0 PUSH2 0x3829 PUSH1 0x8 PUSH1 0x0 DUP11 DUP2 MSTORE PUSH1 0x20 ADD SWAP1 DUP2 MSTORE PUSH1 0x20 ADD PUSH1 0x0 KECCAK256 PUSH1 0x3 ADD PUSH1 0x0 SWAP1 SLOAD SWAP1 PUSH2 0x100 EXP SWAP1 DIV PUSH20 0xFFFFFFFFFFFFFFFFFFFFFFFFFFFFFFFFFFFFFFFF AND PUSH2 0x3A2B JUMP JUMPDEST SWAP1 POP DUP1 PUSH20 0xFFFFFFFFFFFFFFFFFFFFFFFFFFFFFFFFFFFFFFFF AND PUSH2 0x8FC PUSH1 0x8 PUSH1 0x0 DUP12 DUP2 MSTORE PUSH1 0x20 ADD SWAP1 DUP2 MSTORE PUSH1 0x20 ADD PUSH1 0x0 KECCAK256 PUSH1 0xB ADD SLOAD SWAP1 DUP2 ISZERO MUL SWAP1 PUSH1 0x40 MLOAD PUSH1 0x0 PUSH1 0x40 MLOAD DUP1 DUP4 SUB DUP2 DUP6 DUP9 DUP9 CALL SWAP4 POP POP POP POP ISZERO DUP1 ISZERO PUSH2 0x3887 JUMPI RETURNDATASIZE PUSH1 0x0 DUP1 RETURNDATACOPY RETURNDATASIZE PUSH1 0x0 REVERT JUMPDEST POP CALLER PUSH1 0x8 PUSH1 0x0 DUP11 DUP2 MSTORE PUSH1 0x20 ADD SWAP1 DUP2 MSTORE PUSH1 0x20 ADD PUSH1 0x0 KECCAK256 PUSH1 0x2 ADD PUSH1 0x0 PUSH2 0x100 EXP DUP2 SLOAD DUP2 PUSH20 0xFFFFFFFFFFFFFFFFFFFFFFFFFFFFFFFFFFFFFFFF MUL NOT AND SWAP1 DUP4 PUSH20 0xFFFFFFFFFFFFFFFFFFFFFFFFFFFFFFFFFFFFFFFF AND MUL OR SWAP1 SSTORE POP CALLER PUSH1 0x8 PUSH1 0x0 DUP11 DUP2 MSTORE PUSH1 0x20 ADD SWAP1 DUP2 MSTORE PUSH1 0x20 ADD PUSH1 0x0 KECCAK256 PUSH1 0xD ADD PUSH1 0x1 PUSH2 0x100 EXP DUP2 SLOAD DUP2 PUSH20 0xFFFFFFFFFFFFFFFFFFFFFFFFFFFFFFFFFFFFFFFF MUL NOT AND SWAP1 DUP4 PUSH20 0xFFFFFFFFFFFFFFFFFFFFFFFFFFFFFFFFFFFFFFFF AND MUL OR SWAP1 SSTORE POP PUSH1 0x2 PUSH1 0x8 PUSH1 0x0 DUP11 DUP2 MSTORE PUSH1 0x20 ADD SWAP1 DUP2 MSTORE PUSH1 0x20 ADD PUSH1 0x0 KECCAK256 PUSH1 0xD ADD PUSH1 0x0 PUSH2 0x100 EXP DUP2 SLOAD DUP2 PUSH1 0xFF MUL NOT AND SWAP1 DUP4 PUSH1 0xC DUP2 GT ISZERO PUSH2 0x3965 JUMPI INVALID JUMPDEST MUL OR SWAP1 SSTORE POP NUMBER PUSH1 0x9 PUSH1 0x0 DUP11 DUP2 MSTORE PUSH1 0x20 ADD SWAP1 DUP2 MSTORE PUSH1 0x20 ADD PUSH1 0x0 KECCAK256 PUSH1 0x0 ADD DUP2 SWAP1 SSTORE POP PUSH32 0xACD9402B9F9E8C15FA7C1819F8393CA56EB61316CC354FC6AC2150AED3CE7931 DUP9 PUSH1 0x40 MLOAD DUP1 DUP3 DUP2 MSTORE PUSH1 0x20 ADD SWAP2 POP POP PUSH1 0x40 MLOAD DUP1 SWAP2 SUB SWAP1 LOG1 POP POP POP POP POP POP POP POP JUMP JUMPDEST PUSH2 0x39CF CALLER PUSH2 0x3DDF JUMP JUMPDEST JUMP JUMPDEST PUSH2 0x39E5 DUP2 PUSH1 0x4 PUSH2 0x3E39 SWAP1 SWAP2 SWAP1 PUSH4 0xFFFFFFFF AND JUMP JUMPDEST DUP1 PUSH20 0xFFFFFFFFFFFFFFFFFFFFFFFFFFFFFFFFFFFFFFFF AND PUSH32 0x28B26E7A3D20AEDBC5F8F2EBF7DA671C0491723A2B78F47A097B0E46DEE07142 PUSH1 0x40 MLOAD PUSH1 0x40 MLOAD DUP1 SWAP2 SUB SWAP1 LOG2 POP JUMP JUMPDEST PUSH1 0x0 DUP2 SWAP1 POP SWAP2 SWAP1 POP JUMP JUMPDEST PUSH2 0x3A49 DUP2 PUSH1 0x1 PUSH2 0x3E39 SWAP1 SWAP2 SWAP1 PUSH4 0xFFFFFFFF AND JUMP JUMPDEST DUP1 PUSH20 0xFFFFFFFFFFFFFFFFFFFFFFFFFFFFFFFFFFFFFFFF AND PUSH32 0xC17DB36FF5B6D3D05D63C4D52DC5DF431B9763A912CE99D8847BC7BDB4589D2D PUSH1 0x40 MLOAD PUSH1 0x40 MLOAD DUP1 SWAP2 SUB SWAP1 LOG2 POP JUMP JUMPDEST PUSH1 0x0 DUP1 PUSH20 0xFFFFFFFFFFFFFFFFFFFFFFFFFFFFFFFFFFFFFFFF AND DUP3 PUSH20 0xFFFFFFFFFFFFFFFFFFFFFFFFFFFFFFFFFFFFFFFF AND EQ ISZERO ISZERO ISZERO PUSH2 0x3ACC JUMPI PUSH1 0x0 DUP1 REVERT JUMPDEST DUP3 PUSH1 0x0 ADD PUSH1 0x0 DUP4 PUSH20 0xFFFFFFFFFFFFFFFFFFFFFFFFFFFFFFFFFFFFFFFF AND PUSH20 0xFFFFFFFFFFFFFFFFFFFFFFFFFFFFFFFFFFFFFFFF AND DUP2 MSTORE PUSH1 0x20 ADD SWAP1 DUP2 MSTORE PUSH1 0x20 ADD PUSH1 0x0 KECCAK256 PUSH1 0x0 SWAP1 SLOAD SWAP1 PUSH2 0x100 EXP SWAP1 DIV PUSH1 0xFF AND SWAP1 POP SWAP3 SWAP2 POP POP JUMP JUMPDEST PUSH2 0x3B37 DUP2 PUSH1 0x2 PUSH2 0x3EE9 SWAP1 SWAP2 SWAP1 PUSH4 0xFFFFFFFF AND JUMP JUMPDEST DUP1 PUSH20 0xFFFFFFFFFFFFFFFFFFFFFFFFFFFFFFFFFFFFFFFF AND PUSH32 0x126174F6CF49C81CDB4A9214C6B8F037BEF55B4EC31E4FC776CEA2A1C8A88D59 PUSH1 0x40 MLOAD PUSH1 0x40 MLOAD DUP1 SWAP2 SUB SWAP1 LOG2 POP JUMP JUMPDEST PUSH2 0x3B91 DUP2 PUSH1 0x2 PUSH2 0x3E39 SWAP1 SWAP2 SWAP1 PUSH4 0xFFFFFFFF AND JUMP JUMPDEST DUP1 PUSH20 0xFFFFFFFFFFFFFFFFFFFFFFFFFFFFFFFFFFFFFFFF AND PUSH32 0xDDBF200AA634DC3FB81CFD68583DD1040D1C751D335E1D86B631BDE3E977FEA8 PUSH1 0x40 MLOAD PUSH1 0x40 MLOAD DUP1 SWAP2 SUB SWAP1 LOG2 POP JUMP JUMPDEST PUSH2 0x3BEB DUP2 PUSH1 0x3 PUSH2 0x3E39 SWAP1 SWAP2 SWAP1 PUSH4 0xFFFFFFFF AND JUMP JUMPDEST DUP1 PUSH20 0xFFFFFFFFFFFFFFFFFFFFFFFFFFFFFFFFFFFFFFFF AND PUSH32 0x71AE26CAD02663E3D92EFD6EC56031A80D74A20C0AB4183FAA8BF262261C9BAA PUSH1 0x40 MLOAD PUSH1 0x40 MLOAD DUP1 SWAP2 SUB SWAP1 LOG2 POP JUMP JUMPDEST PUSH2 0x3C45 DUP2 PUSH1 0x3 PUSH2 0x3EE9 SWAP1 SWAP2 SWAP1 PUSH4 0xFFFFFFFF AND JUMP JUMPDEST DUP1 PUSH20 0xFFFFFFFFFFFFFFFFFFFFFFFFFFFFFFFFFFFFFFFF AND PUSH32 0xDB7176E79CFFEF81CB01767DD0447A0B24BB72CA9778D4B245581086B2A7E6DB PUSH1 0x40 MLOAD PUSH1 0x40 MLOAD DUP1 SWAP2 SUB SWAP1 LOG2 POP JUMP JUMPDEST PUSH1 0x0 PUSH20 0xFFFFFFFFFFFFFFFFFFFFFFFFFFFFFFFFFFFFFFFF AND DUP2 PUSH20 0xFFFFFFFFFFFFFFFFFFFFFFFFFFFFFFFFFFFFFFFF AND EQ ISZERO ISZERO ISZERO PUSH2 0x3CC7 JUMPI PUSH1 0x0 DUP1 REVERT JUMPDEST DUP1 PUSH20 0xFFFFFFFFFFFFFFFFFFFFFFFFFFFFFFFFFFFFFFFF AND PUSH1 0x0 DUP1 SWAP1 SLOAD SWAP1 PUSH2 0x100 EXP SWAP1 DIV PUSH20 0xFFFFFFFFFFFFFFFFFFFFFFFFFFFFFFFFFFFFFFFF AND PUSH20 0xFFFFFFFFFFFFFFFFFFFFFFFFFFFFFFFFFFFFFFFF AND PUSH32 0x5C486528EC3E3F0EA91181CFF8116F02BFA350E03B8B6F12E00765ADBB5AF85C PUSH1 0x40 MLOAD PUSH1 0x40 MLOAD DUP1 SWAP2 SUB SWAP1 LOG3 DUP1 PUSH1 0x0 DUP1 PUSH2 0x100 EXP DUP2 SLOAD DUP2 PUSH20 0xFFFFFFFFFFFFFFFFFFFFFFFFFFFFFFFFFFFFFFFF MUL NOT AND SWAP1 DUP4 PUSH20 0xFFFFFFFFFFFFFFFFFFFFFFFFFFFFFFFFFFFFFFFF AND MUL OR SWAP1 SSTORE POP POP JUMP JUMPDEST PUSH2 0x3D99 DUP2 PUSH1 0x4 PUSH2 0x3EE9 SWAP1 SWAP2 SWAP1 PUSH4 0xFFFFFFFF AND JUMP JUMPDEST DUP1 PUSH20 0xFFFFFFFFFFFFFFFFFFFFFFFFFFFFFFFFFFFFFFFF AND PUSH32 0xE3F5ED5F263F1F01764A96EDFC7D025F511EC5F7D180E8816908B78BCF74F098 PUSH1 0x40 MLOAD PUSH1 0x40 MLOAD DUP1 SWAP2 SUB SWAP1 LOG2 POP JUMP JUMPDEST PUSH2 0x3DF3 DUP2 PUSH1 0x1 PUSH2 0x3EE9 SWAP1 SWAP2 SWAP1 PUSH4 0xFFFFFFFF AND JUMP JUMPDEST DUP1 PUSH20 0xFFFFFFFFFFFFFFFFFFFFFFFFFFFFFFFFFFFFFFFF AND PUSH32 0x74E50EBE0D8F15811119637829729A3B44FFC7242575F08EA332C8E3A300E2FD PUSH1 0x40 MLOAD PUSH1 0x40 MLOAD DUP1 SWAP2 SUB SWAP1 LOG2 POP JUMP JUMPDEST PUSH1 0x0 PUSH20 0xFFFFFFFFFFFFFFFFFFFFFFFFFFFFFFFFFFFFFFFF AND DUP2 PUSH20 0xFFFFFFFFFFFFFFFFFFFFFFFFFFFFFFFFFFFFFFFF AND EQ ISZERO ISZERO ISZERO PUSH2 0x3E75 JUMPI PUSH1 0x0 DUP1 REVERT JUMPDEST PUSH2 0x3E7F DUP3 DUP3 PUSH2 0x3A8F JUMP JUMPDEST ISZERO ISZERO ISZERO PUSH2 0x3E8B JUMPI PUSH1 0x0 DUP1 REVERT JUMPDEST PUSH1 0x1 DUP3 PUSH1 0x0 ADD PUSH1 0x0 DUP4 PUSH20 0xFFFFFFFFFFFFFFFFFFFFFFFFFFFFFFFFFFFFFFFF AND PUSH20 0xFFFFFFFFFFFFFFFFFFFFFFFFFFFFFFFFFFFFFFFF AND DUP2 MSTORE PUSH1 0x20 ADD SWAP1 DUP2 MSTORE PUSH1 0x20 ADD PUSH1 0x0 KECCAK256 PUSH1 0x0 PUSH2 0x100 EXP DUP2 SLOAD DUP2 PUSH1 0xFF MUL NOT AND SWAP1 DUP4 ISZERO ISZERO MUL OR SWAP1 SSTORE POP POP POP JUMP JUMPDEST PUSH1 0x0 PUSH20 0xFFFFFFFFFFFFFFFFFFFFFFFFFFFFFFFFFFFFFFFF AND DUP2 PUSH20 0xFFFFFFFFFFFFFFFFFFFFFFFFFFFFFFFFFFFFFFFF AND EQ ISZERO ISZERO ISZERO PUSH2 0x3F25 JUMPI PUSH1 0x0 DUP1 REVERT JUMPDEST PUSH2 0x3F2F DUP3 DUP3 PUSH2 0x3A8F JUMP JUMPDEST ISZERO ISZERO PUSH2 0x3F3A JUMPI PUSH1 0x0 DUP1 REVERT JUMPDEST PUSH1 0x0 DUP3 PUSH1 0x0 ADD PUSH1 0x0 DUP4 PUSH20 0xFFFFFFFFFFFFFFFFFFFFFFFFFFFFFFFFFFFFFFFF AND PUSH20 0xFFFFFFFFFFFFFFFFFFFFFFFFFFFFFFFFFFFFFFFF AND DUP2 MSTORE PUSH1 0x20 ADD SWAP1 DUP2 MSTORE PUSH1 0x20 ADD PUSH1 0x0 KECCAK256 PUSH1 0x0 PUSH2 0x100 EXP DUP2 SLOAD DUP2 PUSH1 0xFF MUL NOT AND SWAP1 DUP4 ISZERO ISZERO MUL OR SWAP1 SSTORE POP POP POP JUMP JUMPDEST PUSH1 0x60 PUSH1 0x40 MLOAD SWAP1 DUP2 ADD PUSH1 0x40 MSTORE DUP1 PUSH1 0x0 DUP2 MSTORE PUSH1 0x20 ADD PUSH1 0x0 DUP2 MSTORE PUSH1 0x20 ADD PUSH1 0x0 DUP2 MSTORE POP SWAP1 JUMP JUMPDEST PUSH2 0x220 PUSH1 0x40 MLOAD SWAP1 DUP2 ADD PUSH1 0x40 MSTORE DUP1 PUSH1 0x0 DUP2 MSTORE PUSH1 0x20 ADD PUSH1 0x0 DUP2 MSTORE PUSH1 0x20 ADD PUSH1 0x0 PUSH20 0xFFFFFFFFFFFFFFFFFFFFFFFFFFFFFFFFFFFFFFFF AND DUP2 MSTORE PUSH1 0x20 ADD PUSH1 0x0 PUSH20 0xFFFFFFFFFFFFFFFFFFFFFFFFFFFFFFFFFFFFFFFF AND DUP2 MSTORE PUSH1 0x20 ADD PUSH1 0x60 DUP2 MSTORE PUSH1 0x20 ADD PUSH1 0x60 DUP2 MSTORE PUSH1 0x20 ADD PUSH1 0x60 DUP2 MSTORE PUSH1 0x20 ADD PUSH1 0x60 DUP2 MSTORE PUSH1 0x20 ADD PUSH1 0x0 DUP2 MSTORE PUSH1 0x20 ADD PUSH1 0x60 DUP2 MSTORE PUSH1 0x20 ADD PUSH1 0x0 DUP2 MSTORE PUSH1 0x20 ADD PUSH1 0x0 DUP2 MSTORE PUSH1 0x20 ADD PUSH1 0x0 DUP2 MSTORE PUSH1 0x20 ADD PUSH1 0x0 PUSH1 0xC DUP2 GT ISZERO PUSH2 0x405B JUMPI INVALID JUMPDEST DUP2 MSTORE PUSH1 0x20 ADD PUSH1 0x0 PUSH20 0xFFFFFFFFFFFFFFFFFFFFFFFFFFFFFFFFFFFFFFFF AND DUP2 MSTORE PUSH1 0x20 ADD PUSH1 0x0 PUSH20 0xFFFFFFFFFFFFFFFFFFFFFFFFFFFFFFFFFFFFFFFF AND DUP2 MSTORE PUSH1 0x20 ADD PUSH1 0x0 PUSH20 0xFFFFFFFFFFFFFFFFFFFFFFFFFFFFFFFFFFFFFFFF AND DUP2 MSTORE POP SWAP1 JUMP JUMPDEST DUP3 DUP1 SLOAD PUSH1 0x1 DUP2 PUSH1 0x1 AND ISZERO PUSH2 0x100 MUL SUB AND PUSH1 0x2 SWAP1 DIV SWAP1 PUSH1 0x0 MSTORE PUSH1 0x20 PUSH1 0x0 KECCAK256 SWAP1 PUSH1 0x1F ADD PUSH1 0x20 SWAP1 DIV DUP2 ADD SWAP3 DUP3 PUSH1 0x1F LT PUSH2 0x40F9 JUMPI DUP1 MLOAD PUSH1 0xFF NOT AND DUP4 DUP1 ADD OR DUP6 SSTORE PUSH2 0x4127 JUMP JUMPDEST DUP3 DUP1 ADD PUSH1 0x1 ADD DUP6 SSTORE DUP3 ISZERO PUSH2 0x4127 JUMPI SWAP2 DUP3 ADD JUMPDEST DUP3 DUP2 GT ISZERO PUSH2 0x4126 JUMPI DUP3 MLOAD DUP3 SSTORE SWAP2 PUSH1 0x20 ADD SWAP2 SWAP1 PUSH1 0x1 ADD SWAP1 PUSH2 0x410B JUMP JUMPDEST JUMPDEST POP SWAP1 POP PUSH2 0x4134 SWAP2 SWAP1 PUSH2 0x4138 JUMP JUMPDEST POP SWAP1 JUMP JUMPDEST PUSH2 0x415A SWAP2 SWAP1 JUMPDEST DUP1 DUP3 GT ISZERO PUSH2 0x4156 JUMPI PUSH1 0x0 DUP2 PUSH1 0x0 SWAP1 SSTORE POP PUSH1 0x1 ADD PUSH2 0x413E JUMP JUMPDEST POP SWAP1 JUMP JUMPDEST SWAP1 JUMP INVALID LOG1 PUSH6 0x627A7A723058 KECCAK256 SWAP10 0x24 0xd4 SWAP10 SUB MSTORE8 PUSH19 0xD22D06C09199E62A3FE2B99A48DE9615AD6C91 0xdf PUSH32 0x9A5F4CFD00290000000000000000000000000000000000000000000000000000 "
				},
				"gasEstimates": {
					"creation": {
						"codeDepositCost": "3355400",
						"executionCost": "infinite",
						"totalCost": "infinite"
					},
					"external": {
						"addCarParts_Manufacturer(address)": "infinite",
						"addConsumer(address)": "infinite",
						"addDistributor(address)": "infinite",
						"addRetailer(address)": "infinite",
						"fetchItemBufferOne(uint256)": "infinite",
						"fetchItemBufferTwo(uint256)": "infinite",
						"fetchitemHistory(uint256)": "1298",
						"isCarParts_Manufacturer(address)": "infinite",
						"isConsumer(address)": "infinite",
						"isDistributor(address)": "infinite",
						"isOwner()": "951",
						"isRetailer(address)": "infinite",
						"kill()": "30871",
						"ownerLookup()": "1044",
						"packageItemByDistributor(uint256)": "infinite",
						"processedItemByDistributor(uint256,uint256)": "infinite",
						"produceItemByCarParts_Manufacturer(uint256,string,string,string,string,string,uint256)": "infinite",
						"purchaseItemByConsumer(uint256)": "infinite",
						"purchaseItemByDistributor(uint256)": "infinite",
						"purchaseItemByRetailer(uint256)": "infinite",
						"receivedItemByDistributor(uint256)": "infinite",
						"receivedItemByRetailer(uint256)": "infinite",
						"renounceCarParts_Manufacturer()": "infinite",
						"renounceConsumer(address)": "infinite",
						"renounceDistributor()": "infinite",
						"renounceOwnership()": "22765",
						"renounceRetailer()": "infinite",
						"sellItemByCarParts_Manufacturer(uint256,uint256)": "infinite",
						"sellItemByDistributor(uint256,uint256)": "infinite",
						"sellItemByRetailer(uint256,uint256)": "infinite",
						"shippedItemByCarParts_Manufacturer(uint256)": "infinite",
						"shippedItemByDistributor(uint256)": "infinite",
						"transferOwnership(address)": "23258"
					},
					"internal": {
						"_make_payable(address)": "28"
					}
				},
				"methodIdentifiers": {
					"addCarParts_Manufacturer(address)": "40b74c38",
					"addConsumer(address)": "112940f9",
					"addDistributor(address)": "7250e224",
					"addRetailer(address)": "8ec4f505",
					"fetchItemBufferOne(uint256)": "77c45913",
					"fetchItemBufferTwo(uint256)": "66225ff9",
					"fetchitemHistory(uint256)": "1154501c",
					"isCarParts_Manufacturer(address)": "c7ef882c",
					"isConsumer(address)": "834ff739",
					"isDistributor(address)": "8f0c86fa",
					"isOwner()": "8f32d59b",
					"isRetailer(address)": "5da09b88",
					"kill()": "41c0e1b5",
					"ownerLookup()": "e02e64ea",
					"packageItemByDistributor(uint256)": "91541355",
					"processedItemByDistributor(uint256,uint256)": "eab7d6e8",
					"produceItemByCarParts_Manufacturer(uint256,string,string,string,string,string,uint256)": "4f974166",
					"purchaseItemByConsumer(uint256)": "df74dc3a",
					"purchaseItemByDistributor(uint256)": "fdcdc06f",
					"purchaseItemByRetailer(uint256)": "26d529b4",
					"receivedItemByDistributor(uint256)": "24cb1669",
					"receivedItemByRetailer(uint256)": "37b2f92c",
					"renounceCarParts_Manufacturer()": "ffeb4d33",
					"renounceConsumer(address)": "f487d48d",
					"renounceDistributor()": "644241db",
					"renounceOwnership()": "715018a6",
					"renounceRetailer()": "db0e6a2f",
					"sellItemByCarParts_Manufacturer(uint256,uint256)": "22f11212",
					"sellItemByDistributor(uint256,uint256)": "8adff8ba",
					"sellItemByRetailer(uint256,uint256)": "546eb586",
					"shippedItemByCarParts_Manufacturer(uint256)": "1d116edf",
					"shippedItemByDistributor(uint256)": "82e831ec",
					"transferOwnership(address)": "f2fde38b"
				}
			},
			"userdoc": {
				"methods": {
					"isOwner()": {
						"notice": "Check if the calling address is the owner of the contract"
					},
					"ownerLookup()": {
						"notice": "Look up the address of the owner"
					},
					"renounceOwnership()": {
						"notice": "Define a function to renounce ownerhip"
					},
					"transferOwnership(address)": {
						"notice": "Define a public function to transfer ownership"
					}
				}
			}
		}
	}
}