{
	"contracts/SCbase/SupplyChain.sol": {
		"SupplyChain": {
			"abi": [
				{
					"constant": true,
					"inputs": [
						{
							"name": "_upc",
							"type": "uint256"
						}
					],
					"name": "fetchitemHistory",
					"outputs": [
						{
							"name": "blockCarParts_ManufacturerToCarParts_Distributor",
							"type": "uint256"
						},
						{
							"name": "blockCarParts_DistributorToRetailer",
							"type": "uint256"
						},
						{
							"name": "blockRetailerToCustomer",
							"type": "uint256"
						}
					],
					"payable": false,
					"stateMutability": "view",
					"type": "function"
				},
				{
					"constant": false,
					"inputs": [
						{
							"name": "account",
							"type": "address"
						}
					],
					"name": "addCarParts_Distributor",
					"outputs": [],
					"payable": false,
					"stateMutability": "nonpayable",
					"type": "function"
				},
				{
					"constant": false,
					"inputs": [
						{
							"name": "_upc",
							"type": "uint256"
						}
					],
					"name": "shippedItemByCarParts_Manufacturer",
					"outputs": [],
					"payable": true,
					"stateMutability": "payable",
					"type": "function"
				},
				{
					"constant": false,
					"inputs": [
						{
							"name": "_upc",
							"type": "uint256"
						},
						{
							"name": "_price",
							"type": "uint256"
						}
					],
					"name": "sellItemByCarParts_Manufacturer",
					"outputs": [],
					"payable": false,
					"stateMutability": "nonpayable",
					"type": "function"
				},
				{
					"constant": false,
					"inputs": [
						{
							"name": "_upc",
							"type": "uint256"
						}
					],
					"name": "purchaseItemByRetailer",
					"outputs": [],
					"payable": true,
					"stateMutability": "payable",
					"type": "function"
				},
				{
					"constant": true,
					"inputs": [
						{
							"name": "account",
							"type": "address"
						}
					],
					"name": "isCustomer",
					"outputs": [
						{
							"name": "",
							"type": "bool"
						}
					],
					"payable": false,
					"stateMutability": "view",
					"type": "function"
				},
				{
					"constant": false,
					"inputs": [
						{
							"name": "_upc",
							"type": "uint256"
						}
					],
					"name": "receivedItemByCarParts_Distributor",
					"outputs": [],
					"payable": false,
					"stateMutability": "nonpayable",
					"type": "function"
				},
				{
					"constant": false,
					"inputs": [
						{
							"name": "_upc",
							"type": "uint256"
						}
					],
					"name": "receivedItemByRetailer",
					"outputs": [],
					"payable": false,
					"stateMutability": "nonpayable",
					"type": "function"
				},
				{
					"constant": false,
					"inputs": [
						{
							"name": "account",
							"type": "address"
						}
					],
					"name": "addCarParts_Manufacturer",
					"outputs": [],
					"payable": false,
					"stateMutability": "nonpayable",
					"type": "function"
				},
				{
					"constant": false,
					"inputs": [],
					"name": "kill",
					"outputs": [],
					"payable": false,
					"stateMutability": "nonpayable",
					"type": "function"
				},
				{
					"constant": false,
					"inputs": [
						{
							"name": "_upc",
							"type": "uint256"
						},
						{
							"name": "_originFactoryName",
							"type": "string"
						},
						{
							"name": "_originFactoryInformation",
							"type": "string"
						},
						{
							"name": "_originFactoryLatitude",
							"type": "string"
						},
						{
							"name": "_originFactoryLongitude",
							"type": "string"
						},
						{
							"name": "_productNotes",
							"type": "string"
						},
						{
							"name": "_price",
							"type": "uint256"
						}
					],
					"name": "produceItemByCarParts_Manufacturer",
					"outputs": [],
					"payable": false,
					"stateMutability": "nonpayable",
					"type": "function"
				},
				{
					"constant": false,
					"inputs": [
						{
							"name": "_upc",
							"type": "uint256"
						},
						{
							"name": "_price",
							"type": "uint256"
						}
					],
					"name": "sellItemByRetailer",
					"outputs": [],
					"payable": false,
					"stateMutability": "nonpayable",
					"type": "function"
				},
				{
					"constant": false,
					"inputs": [
						{
							"name": "_upc",
							"type": "uint256"
						}
					],
					"name": "processedItemByCarParts_Distributor",
					"outputs": [],
					"payable": false,
					"stateMutability": "nonpayable",
					"type": "function"
				},
				{
					"constant": true,
					"inputs": [
						{
							"name": "account",
							"type": "address"
						}
					],
					"name": "isRetailer",
					"outputs": [
						{
							"name": "",
							"type": "bool"
						}
					],
					"payable": false,
					"stateMutability": "view",
					"type": "function"
				},
				{
					"constant": true,
					"inputs": [
						{
							"name": "_upc",
							"type": "uint256"
						}
					],
					"name": "fetchItemBufferTwo",
					"outputs": [
						{
							"name": "itemSKU",
							"type": "uint256"
						},
						{
							"name": "itemUPC",
							"type": "uint256"
						},
						{
							"name": "productID",
							"type": "uint256"
						},
						{
							"name": "productNotes",
							"type": "string"
						},
						{
							"name": "productPrice",
							"type": "uint256"
						},
						{
							"name": "productDate",
							"type": "uint256"
						},
						{
							"name": "itemState",
							"type": "uint8"
						},
						{
							"name": "CarParts_distributorID",
							"type": "address"
						},
						{
							"name": "retailerID",
							"type": "address"
						},
						{
							"name": "customerID",
							"type": "address"
						}
					],
					"payable": false,
					"stateMutability": "view",
					"type": "function"
				},
				{
					"constant": false,
					"inputs": [],
					"name": "renounceOwnership",
					"outputs": [],
					"payable": false,
					"stateMutability": "nonpayable",
					"type": "function"
				},
				{
					"constant": true,
					"inputs": [
						{
							"name": "_upc",
							"type": "uint256"
						}
					],
					"name": "fetchItemBufferOne",
					"outputs": [
						{
							"name": "itemSKU",
							"type": "uint256"
						},
						{
							"name": "itemUPC",
							"type": "uint256"
						},
						{
							"name": "ownerID",
							"type": "address"
						},
						{
							"name": "originCarParts_ManufacturerID",
							"type": "address"
						},
						{
							"name": "originFactoryName",
							"type": "string"
						},
						{
							"name": "originFactoryInformation",
							"type": "string"
						},
						{
							"name": "originFactoryLatitude",
							"type": "string"
						},
						{
							"name": "originFactoryLongitude",
							"type": "string"
						},
						{
							"name": "productDate",
							"type": "uint256"
						}
					],
					"payable": false,
					"stateMutability": "view",
					"type": "function"
				},
				{
					"constant": false,
					"inputs": [],
					"name": "renounceCarParts_Distributor",
					"outputs": [],
					"payable": false,
					"stateMutability": "nonpayable",
					"type": "function"
				},
				{
					"constant": false,
					"inputs": [
						{
							"name": "account",
							"type": "address"
						}
					],
					"name": "addRetailer",
					"outputs": [],
					"payable": false,
					"stateMutability": "nonpayable",
					"type": "function"
				},
				{
					"constant": true,
					"inputs": [],
					"name": "isOwner",
					"outputs": [
						{
							"name": "",
							"type": "bool"
						}
					],
					"payable": false,
					"stateMutability": "view",
					"type": "function"
				},
				{
					"constant": false,
					"inputs": [
						{
							"name": "_upc",
							"type": "uint256"
						}
					],
					"name": "shippedItemByCarParts_Distributor",
					"outputs": [],
					"payable": false,
					"stateMutability": "nonpayable",
					"type": "function"
				},
				{
					"constant": false,
					"inputs": [
						{
							"name": "_upc",
							"type": "uint256"
						},
						{
							"name": "_price",
							"type": "uint256"
						}
					],
					"name": "sellItemByCarParts_Distributor",
					"outputs": [],
					"payable": false,
					"stateMutability": "nonpayable",
					"type": "function"
				},
				{
					"constant": false,
					"inputs": [
						{
							"name": "_upc",
							"type": "uint256"
						}
					],
					"name": "purchaseItemByCustomer",
					"outputs": [],
					"payable": true,
					"stateMutability": "payable",
					"type": "function"
				},
				{
					"constant": false,
					"inputs": [
						{
							"name": "_upc",
							"type": "uint256"
						}
					],
					"name": "purchaseItemByCarParts_Distributor",
					"outputs": [],
					"payable": true,
					"stateMutability": "payable",
					"type": "function"
				},
				{
					"constant": false,
					"inputs": [
						{
							"name": "account",
							"type": "address"
						}
					],
					"name": "addCustomer",
					"outputs": [],
					"payable": false,
					"stateMutability": "nonpayable",
					"type": "function"
				},
				{
					"constant": false,
					"inputs": [
						{
							"name": "account",
							"type": "address"
						}
					],
					"name": "renounceCustomer",
					"outputs": [],
					"payable": false,
					"stateMutability": "nonpayable",
					"type": "function"
				},
				{
					"constant": true,
					"inputs": [
						{
							"name": "account",
							"type": "address"
						}
					],
					"name": "isCarParts_Manufacturer",
					"outputs": [
						{
							"name": "",
							"type": "bool"
						}
					],
					"payable": false,
					"stateMutability": "view",
					"type": "function"
				},
				{
					"constant": false,
					"inputs": [
						{
							"name": "_upc",
							"type": "uint256"
						}
					],
					"name": "packageItemByCarParts_Distributor",
					"outputs": [],
					"payable": false,
					"stateMutability": "nonpayable",
					"type": "function"
				},
				{
					"constant": false,
					"inputs": [],
					"name": "renounceRetailer",
					"outputs": [],
					"payable": false,
					"stateMutability": "nonpayable",
					"type": "function"
				},
				{
					"constant": true,
					"inputs": [],
					"name": "ownerLookup",
					"outputs": [
						{
							"name": "",
							"type": "address"
						}
					],
					"payable": false,
					"stateMutability": "view",
					"type": "function"
				},
				{
					"constant": true,
					"inputs": [
						{
							"name": "account",
							"type": "address"
						}
					],
					"name": "isCarParts_Distributor",
					"outputs": [
						{
							"name": "",
							"type": "bool"
						}
					],
					"payable": false,
					"stateMutability": "view",
					"type": "function"
				},
				{
					"constant": false,
					"inputs": [
						{
							"name": "newOwner",
							"type": "address"
						}
					],
					"name": "transferOwnership",
					"outputs": [],
					"payable": false,
					"stateMutability": "nonpayable",
					"type": "function"
				},
				{
					"constant": false,
					"inputs": [],
					"name": "renounceCarParts_Manufacturer",
					"outputs": [],
					"payable": false,
					"stateMutability": "nonpayable",
					"type": "function"
				},
				{
					"inputs": [],
					"payable": true,
					"stateMutability": "payable",
					"type": "constructor"
				},
				{
					"anonymous": false,
					"inputs": [
						{
							"indexed": false,
							"name": "upc",
							"type": "uint256"
						}
					],
					"name": "ProduceByCarParts_Manufacturer",
					"type": "event"
				},
				{
					"anonymous": false,
					"inputs": [
						{
							"indexed": false,
							"name": "upc",
							"type": "uint256"
						}
					],
					"name": "ForSaleByCarParts_Manufacturer",
					"type": "event"
				},
				{
					"anonymous": false,
					"inputs": [
						{
							"indexed": false,
							"name": "upc",
							"type": "uint256"
						}
					],
					"name": "PurchasedByCarParts_Distributor",
					"type": "event"
				},
				{
					"anonymous": false,
					"inputs": [
						{
							"indexed": false,
							"name": "upc",
							"type": "uint256"
						}
					],
					"name": "ShippedByCarParts_Manufacturer",
					"type": "event"
				},
				{
					"anonymous": false,
					"inputs": [
						{
							"indexed": false,
							"name": "upc",
							"type": "uint256"
						}
					],
					"name": "ReceivedByCarParts_Distributor",
					"type": "event"
				},
				{
					"anonymous": false,
					"inputs": [
						{
							"indexed": false,
							"name": "upc",
							"type": "uint256"
						}
					],
					"name": "ProcessedByCarParts_Distributor",
					"type": "event"
				},
				{
					"anonymous": false,
					"inputs": [
						{
							"indexed": false,
							"name": "upc",
							"type": "uint256"
						}
					],
					"name": "PackagedByCarParts_Distributor",
					"type": "event"
				},
				{
					"anonymous": false,
					"inputs": [
						{
							"indexed": false,
							"name": "upc",
							"type": "uint256"
						}
					],
					"name": "ForSaleByCarParts_Distributor",
					"type": "event"
				},
				{
					"anonymous": false,
					"inputs": [
						{
							"indexed": false,
							"name": "upc",
							"type": "uint256"
						}
					],
					"name": "PurchasedByRetailer",
					"type": "event"
				},
				{
					"anonymous": false,
					"inputs": [
						{
							"indexed": false,
							"name": "upc",
							"type": "uint256"
						}
					],
					"name": "ShippedByCarParts_Distributor",
					"type": "event"
				},
				{
					"anonymous": false,
					"inputs": [
						{
							"indexed": false,
							"name": "upc",
							"type": "uint256"
						}
					],
					"name": "ReceivedByRetailer",
					"type": "event"
				},
				{
					"anonymous": false,
					"inputs": [
						{
							"indexed": false,
							"name": "upc",
							"type": "uint256"
						}
					],
					"name": "ForSaleByRetailer",
					"type": "event"
				},
				{
					"anonymous": false,
					"inputs": [
						{
							"indexed": false,
							"name": "upc",
							"type": "uint256"
						}
					],
					"name": "PurchasedByCustomer",
					"type": "event"
				},
				{
					"anonymous": false,
					"inputs": [
						{
							"indexed": true,
							"name": "account",
							"type": "address"
						}
					],
					"name": "CustomerAdded",
					"type": "event"
				},
				{
					"anonymous": false,
					"inputs": [
						{
							"indexed": true,
							"name": "account",
							"type": "address"
						}
					],
					"name": "CustomerRemoved",
					"type": "event"
				},
				{
					"anonymous": false,
					"inputs": [
						{
							"indexed": true,
							"name": "account",
							"type": "address"
						}
					],
					"name": "RetailerAdded",
					"type": "event"
				},
				{
					"anonymous": false,
					"inputs": [
						{
							"indexed": true,
							"name": "account",
							"type": "address"
						}
					],
					"name": "RetailerRemoved",
					"type": "event"
				},
				{
					"anonymous": false,
					"inputs": [
						{
							"indexed": true,
							"name": "account",
							"type": "address"
						}
					],
					"name": "CarParts_DistributorAdded",
					"type": "event"
				},
				{
					"anonymous": false,
					"inputs": [
						{
							"indexed": true,
							"name": "account",
							"type": "address"
						}
					],
					"name": "CarParts_DistributorRemoved",
					"type": "event"
				},
				{
					"anonymous": false,
					"inputs": [
						{
							"indexed": true,
							"name": "account",
							"type": "address"
						}
					],
					"name": "CarParts_ManufacturerAdded",
					"type": "event"
				},
				{
					"anonymous": false,
					"inputs": [
						{
							"indexed": true,
							"name": "account",
							"type": "address"
						}
					],
					"name": "CarParts_ManufacturerRemoved",
					"type": "event"
				},
				{
					"anonymous": false,
					"inputs": [
						{
							"indexed": true,
							"name": "oldOwner",
							"type": "address"
						},
						{
							"indexed": true,
							"name": "newOwner",
							"type": "address"
						}
					],
					"name": "TransferOwnership",
					"type": "event"
				}
			],
			"devdoc": {
				"methods": {}
			},
			"evm": {
				"assembly": "    /* \"contracts/SCbase/SupplyChain.sol\":339:19404  contract SupplyChain is Ownable,CarParts_ManufacturerRole,CarParts_DistributorRole,RetailerRole,CustomerRole {\r... */\n  mstore(0x40, 0x80)\n    /* \"contracts/SCcore/Ownable.sol\":325:335  msg.sender */\n  caller\n    /* \"contracts/SCcore/Ownable.sol\":313:322  origOwner */\n  0x0\n  dup1\n    /* \"contracts/SCcore/Ownable.sol\":313:335  origOwner = msg.sender */\n  0x100\n  exp\n  dup2\n  sload\n  dup2\n  0xffffffffffffffffffffffffffffffffffffffff\n  mul\n  not\n  and\n  swap1\n  dup4\n  0xffffffffffffffffffffffffffffffffffffffff\n  and\n  mul\n  or\n  swap1\n  sstore\n  pop\n    /* \"contracts/SCcore/Ownable.sol\":381:390  origOwner */\n  0x0\n  dup1\n  swap1\n  sload\n  swap1\n  0x100\n  exp\n  swap1\n  div\n  0xffffffffffffffffffffffffffffffffffffffff\n  and\n    /* \"contracts/SCcore/Ownable.sol\":351:391  TransferOwnership(address(0), origOwner) */\n  0xffffffffffffffffffffffffffffffffffffffff\n  and\n    /* \"contracts/SCcore/Ownable.sol\":377:378  0 */\n  0x0\n    /* \"contracts/SCcore/Ownable.sol\":351:391  TransferOwnership(address(0), origOwner) */\n  0xffffffffffffffffffffffffffffffffffffffff\n  and\n  0x5c486528ec3e3f0ea91181cff8116f02bfa350e03b8b6f12e00765adbb5af85c\n  mload(0x40)\n  mload(0x40)\n  dup1\n  swap2\n  sub\n  swap1\n  log3\n    /* \"contracts/SCaccesscontrol/CarParts_ManufacturerRole.sol\":709:746  _addCarParts_Manufacturer(msg.sender) */\n  tag_9\n    /* \"contracts/SCaccesscontrol/CarParts_ManufacturerRole.sol\":735:745  msg.sender */\n  caller\n    /* \"contracts/SCaccesscontrol/CarParts_ManufacturerRole.sol\":709:734  _addCarParts_Manufacturer */\n  mul(0x100000000, tag_10)\n    /* \"contracts/SCaccesscontrol/CarParts_ManufacturerRole.sol\":709:746  _addCarParts_Manufacturer(msg.sender) */\n  0x100000000\n  swap1\n  div\n  jump\t// in\ntag_9:\n    /* \"contracts/SCaccesscontrol/CarParts_DistributorRole.sol\":696:732  _addCarParts_Distributor(msg.sender) */\n  tag_12\n    /* \"contracts/SCaccesscontrol/CarParts_DistributorRole.sol\":721:731  msg.sender */\n  caller\n    /* \"contracts/SCaccesscontrol/CarParts_DistributorRole.sol\":696:720  _addCarParts_Distributor */\n  mul(0x100000000, tag_13)\n    /* \"contracts/SCaccesscontrol/CarParts_DistributorRole.sol\":696:732  _addCarParts_Distributor(msg.sender) */\n  0x100000000\n  swap1\n  div\n  jump\t// in\ntag_12:\n    /* \"contracts/SCaccesscontrol/RetailerRole.sol\":618:642  _addRetailer(msg.sender) */\n  tag_15\n    /* \"contracts/SCaccesscontrol/RetailerRole.sol\":631:641  msg.sender */\n  caller\n    /* \"contracts/SCaccesscontrol/RetailerRole.sol\":618:630  _addRetailer */\n  mul(0x100000000, tag_16)\n    /* \"contracts/SCaccesscontrol/RetailerRole.sol\":618:642  _addRetailer(msg.sender) */\n  0x100000000\n  swap1\n  div\n  jump\t// in\ntag_15:\n    /* \"contracts/SCaccesscontrol/CustomerRole.sol\":650:674  _addCustomer(msg.sender) */\n  tag_18\n    /* \"contracts/SCaccesscontrol/CustomerRole.sol\":663:673  msg.sender */\n  caller\n    /* \"contracts/SCaccesscontrol/CustomerRole.sol\":650:662  _addCustomer */\n  mul(0x100000000, tag_19)\n    /* \"contracts/SCaccesscontrol/CustomerRole.sol\":650:674  _addCustomer(msg.sender) */\n  0x100000000\n  swap1\n  div\n  jump\t// in\ntag_18:\n    /* \"contracts/SCbase/SupplyChain.sol\":6869:6879  msg.sender */\n  caller\n    /* \"contracts/SCbase/SupplyChain.sol\":6861:6866  owner */\n  0x5\n  0x0\n    /* \"contracts/SCbase/SupplyChain.sol\":6861:6879  owner = msg.sender */\n  0x100\n  exp\n  dup2\n  sload\n  dup2\n  0xffffffffffffffffffffffffffffffffffffffff\n  mul\n  not\n  and\n  swap1\n  dup4\n  0xffffffffffffffffffffffffffffffffffffffff\n  and\n  mul\n  or\n  swap1\n  sstore\n  pop\n    /* \"contracts/SCbase/SupplyChain.sol\":6892:6893  1 */\n  0x1\n    /* \"contracts/SCbase/SupplyChain.sol\":6886:6889  sku */\n  0x7\n    /* \"contracts/SCbase/SupplyChain.sol\":6886:6893  sku = 1 */\n  dup2\n  swap1\n  sstore\n  pop\n    /* \"contracts/SCbase/SupplyChain.sol\":6906:6907  1 */\n  0x1\n    /* \"contracts/SCbase/SupplyChain.sol\":6900:6903  upc */\n  0x6\n    /* \"contracts/SCbase/SupplyChain.sol\":6900:6907  upc = 1 */\n  dup2\n  swap1\n  sstore\n  pop\n    /* \"contracts/SCbase/SupplyChain.sol\":339:19404  contract SupplyChain is Ownable,CarParts_ManufacturerRole,CarParts_DistributorRole,RetailerRole,CustomerRole {\r... */\n  jump(tag_21)\n    /* \"contracts/SCaccesscontrol/CarParts_ManufacturerRole.sol\":1665:1821  function _addCarParts_Manufacturer(address account) internal {\r... */\ntag_10:\n    /* \"contracts/SCaccesscontrol/CarParts_ManufacturerRole.sol\":1733:1768  carParts_Manufacturers.add(account) */\n  tag_23\n    /* \"contracts/SCaccesscontrol/CarParts_ManufacturerRole.sol\":1760:1767  account */\n  dup2\n    /* \"contracts/SCaccesscontrol/CarParts_ManufacturerRole.sol\":1733:1755  carParts_Manufacturers */\n  0x1\n    /* \"contracts/SCaccesscontrol/CarParts_ManufacturerRole.sol\":1733:1759  carParts_Manufacturers.add */\n  or(tag_0_454, mul(0x100000000, tag_24))\n  swap1\n    /* \"contracts/SCaccesscontrol/CarParts_ManufacturerRole.sol\":1733:1768  carParts_Manufacturers.add(account) */\n  swap2\n  swap1\n  0x100000000\n  swap1\n  div\n  jump\t// in\ntag_23:\n    /* \"contracts/SCaccesscontrol/CarParts_ManufacturerRole.sol\":1807:1814  account */\n  dup1\n    /* \"contracts/SCaccesscontrol/CarParts_ManufacturerRole.sol\":1780:1815  CarParts_ManufacturerAdded(account) */\n  0xffffffffffffffffffffffffffffffffffffffff\n  and\n  0xc17db36ff5b6d3d05d63c4d52dc5df431b9763a912ce99d8847bc7bdb4589d2d\n  mload(0x40)\n  mload(0x40)\n  dup1\n  swap2\n  sub\n  swap1\n  log2\n    /* \"contracts/SCaccesscontrol/CarParts_ManufacturerRole.sol\":1665:1821  function _addCarParts_Manufacturer(address account) internal {\r... */\n  pop\n  jump\t// out\n    /* \"contracts/SCaccesscontrol/CarParts_DistributorRole.sol\":1637:1790  function _addCarParts_Distributor(address account) internal {\r... */\ntag_13:\n    /* \"contracts/SCaccesscontrol/CarParts_DistributorRole.sol\":1704:1738  CarParts_distributors.add(account) */\n  tag_26\n    /* \"contracts/SCaccesscontrol/CarParts_DistributorRole.sol\":1730:1737  account */\n  dup2\n    /* \"contracts/SCaccesscontrol/CarParts_DistributorRole.sol\":1704:1725  CarParts_distributors */\n  0x2\n    /* \"contracts/SCaccesscontrol/CarParts_DistributorRole.sol\":1704:1729  CarParts_distributors.add */\n  or(tag_0_454, mul(0x100000000, tag_24))\n  swap1\n    /* \"contracts/SCaccesscontrol/CarParts_DistributorRole.sol\":1704:1738  CarParts_distributors.add(account) */\n  swap2\n  swap1\n  0x100000000\n  swap1\n  div\n  jump\t// in\ntag_26:\n    /* \"contracts/SCaccesscontrol/CarParts_DistributorRole.sol\":1776:1783  account */\n  dup1\n    /* \"contracts/SCaccesscontrol/CarParts_DistributorRole.sol\":1750:1784  CarParts_DistributorAdded(account) */\n  0xffffffffffffffffffffffffffffffffffffffff\n  and\n  0xf7da286df490d50d713a7db337e873dba3f443fb4d6fd500f71dd90c155eb5c3\n  mload(0x40)\n  mload(0x40)\n  dup1\n  swap2\n  sub\n  swap1\n  log2\n    /* \"contracts/SCaccesscontrol/CarParts_DistributorRole.sol\":1637:1790  function _addCarParts_Distributor(address account) internal {\r... */\n  pop\n  jump\t// out\n    /* \"contracts/SCaccesscontrol/RetailerRole.sol\":1380:1497  function _addRetailer(address account) internal {\r... */\ntag_16:\n    /* \"contracts/SCaccesscontrol/RetailerRole.sol\":1435:1457  retailers.add(account) */\n  tag_28\n    /* \"contracts/SCaccesscontrol/RetailerRole.sol\":1449:1456  account */\n  dup2\n    /* \"contracts/SCaccesscontrol/RetailerRole.sol\":1435:1444  retailers */\n  0x3\n    /* \"contracts/SCaccesscontrol/RetailerRole.sol\":1435:1448  retailers.add */\n  or(tag_0_454, mul(0x100000000, tag_24))\n  swap1\n    /* \"contracts/SCaccesscontrol/RetailerRole.sol\":1435:1457  retailers.add(account) */\n  swap2\n  swap1\n  0x100000000\n  swap1\n  div\n  jump\t// in\ntag_28:\n    /* \"contracts/SCaccesscontrol/RetailerRole.sol\":1483:1490  account */\n  dup1\n    /* \"contracts/SCaccesscontrol/RetailerRole.sol\":1469:1491  RetailerAdded(account) */\n  0xffffffffffffffffffffffffffffffffffffffff\n  and\n  0x71ae26cad02663e3d92efd6ec56031a80d74a20c0ab4183faa8bf262261c9baa\n  mload(0x40)\n  mload(0x40)\n  dup1\n  swap2\n  sub\n  swap1\n  log2\n    /* \"contracts/SCaccesscontrol/RetailerRole.sol\":1380:1497  function _addRetailer(address account) internal {\r... */\n  pop\n  jump\t// out\n    /* \"contracts/SCaccesscontrol/CustomerRole.sol\":1423:1540  function _addCustomer(address account) internal {\r... */\ntag_19:\n    /* \"contracts/SCaccesscontrol/CustomerRole.sol\":1478:1500  customers.add(account) */\n  tag_30\n    /* \"contracts/SCaccesscontrol/CustomerRole.sol\":1492:1499  account */\n  dup2\n    /* \"contracts/SCaccesscontrol/CustomerRole.sol\":1478:1487  customers */\n  0x4\n    /* \"contracts/SCaccesscontrol/CustomerRole.sol\":1478:1491  customers.add */\n  or(tag_0_454, mul(0x100000000, tag_24))\n  swap1\n    /* \"contracts/SCaccesscontrol/CustomerRole.sol\":1478:1500  customers.add(account) */\n  swap2\n  swap1\n  0x100000000\n  swap1\n  div\n  jump\t// in\ntag_30:\n    /* \"contracts/SCaccesscontrol/CustomerRole.sol\":1526:1533  account */\n  dup1\n    /* \"contracts/SCaccesscontrol/CustomerRole.sol\":1512:1534  CustomerAdded(account) */\n  0xffffffffffffffffffffffffffffffffffffffff\n  and\n  0xcd118a02bd36f224f6f1b93812f78d2bbc2c2dc1bc0f60c176e3b4fe09f1483f\n  mload(0x40)\n  mload(0x40)\n  dup1\n  swap2\n  sub\n  swap1\n  log2\n    /* \"contracts/SCaccesscontrol/CustomerRole.sol\":1423:1540  function _addCustomer(address account) internal {\r... */\n  pop\n  jump\t// out\n    /* \"contracts/SCaccesscontrol/Roles.sol\":259:431  function add(Role storage role, address account) internal {\r... */\ntag_24:\n    /* \"contracts/SCaccesscontrol/Roles.sol\":351:352  0 */\n  0x0\n    /* \"contracts/SCaccesscontrol/Roles.sol\":332:353  account != address(0) */\n  0xffffffffffffffffffffffffffffffffffffffff\n  and\n    /* \"contracts/SCaccesscontrol/Roles.sol\":332:339  account */\n  dup2\n    /* \"contracts/SCaccesscontrol/Roles.sol\":332:353  account != address(0) */\n  0xffffffffffffffffffffffffffffffffffffffff\n  and\n  eq\n  iszero\n    /* \"contracts/SCaccesscontrol/Roles.sol\":324:354  require(account != address(0)) */\n  iszero\n  iszero\n  tag_32\n  jumpi\n  0x0\n  dup1\n  revert\ntag_32:\n    /* \"contracts/SCaccesscontrol/Roles.sol\":370:388  has(role, account) */\n  tag_33\n    /* \"contracts/SCaccesscontrol/Roles.sol\":374:378  role */\n  dup3\n    /* \"contracts/SCaccesscontrol/Roles.sol\":380:387  account */\n  dup3\n    /* \"contracts/SCaccesscontrol/Roles.sol\":370:373  has */\n  mul(0x100000000, tag_34)\n    /* \"contracts/SCaccesscontrol/Roles.sol\":370:388  has(role, account) */\n  0x100000000\n  swap1\n  div\n  jump\t// in\ntag_33:\n    /* \"contracts/SCaccesscontrol/Roles.sol\":369:388  !has(role, account) */\n  iszero\n    /* \"contracts/SCaccesscontrol/Roles.sol\":361:389  require(!has(role, account)) */\n  iszero\n  iszero\n  tag_35\n  jumpi\n  0x0\n  dup1\n  revert\ntag_35:\n    /* \"contracts/SCaccesscontrol/Roles.sol\":421:425  true */\n  0x1\n    /* \"contracts/SCaccesscontrol/Roles.sol\":398:402  role */\n  dup3\n    /* \"contracts/SCaccesscontrol/Roles.sol\":398:409  role.bearer */\n  0x0\n  add\n    /* \"contracts/SCaccesscontrol/Roles.sol\":398:418  role.bearer[account] */\n  0x0\n    /* \"contracts/SCaccesscontrol/Roles.sol\":410:417  account */\n  dup4\n    /* \"contracts/SCaccesscontrol/Roles.sol\":398:418  role.bearer[account] */\n  0xffffffffffffffffffffffffffffffffffffffff\n  and\n  0xffffffffffffffffffffffffffffffffffffffff\n  and\n  dup2\n  mstore\n  0x20\n  add\n  swap1\n  dup2\n  mstore\n  0x20\n  add\n  0x0\n  keccak256\n  0x0\n    /* \"contracts/SCaccesscontrol/Roles.sol\":398:425  role.bearer[account] = true */\n  0x100\n  exp\n  dup2\n  sload\n  dup2\n  0xff\n  mul\n  not\n  and\n  swap1\n  dup4\n  iszero\n  iszero\n  mul\n  or\n  swap1\n  sstore\n  pop\n    /* \"contracts/SCaccesscontrol/Roles.sol\":259:431  function add(Role storage role, address account) internal {\r... */\n  pop\n  pop\n  jump\t// out\n    /* \"contracts/SCaccesscontrol/Roles.sol\":761:934  function has(Role storage role, address account)\r... */\ntag_34:\n    /* \"contracts/SCaccesscontrol/Roles.sol\":848:852  bool */\n  0x0\n    /* \"contracts/SCaccesscontrol/Roles.sol\":891:892  0 */\n  dup1\n    /* \"contracts/SCaccesscontrol/Roles.sol\":872:893  account != address(0) */\n  0xffffffffffffffffffffffffffffffffffffffff\n  and\n    /* \"contracts/SCaccesscontrol/Roles.sol\":872:879  account */\n  dup3\n    /* \"contracts/SCaccesscontrol/Roles.sol\":872:893  account != address(0) */\n  0xffffffffffffffffffffffffffffffffffffffff\n  and\n  eq\n  iszero\n    /* \"contracts/SCaccesscontrol/Roles.sol\":864:894  require(account != address(0)) */\n  iszero\n  iszero\n  tag_37\n  jumpi\n  0x0\n  dup1\n  revert\ntag_37:\n    /* \"contracts/SCaccesscontrol/Roles.sol\":908:912  role */\n  dup3\n    /* \"contracts/SCaccesscontrol/Roles.sol\":908:919  role.bearer */\n  0x0\n  add\n    /* \"contracts/SCaccesscontrol/Roles.sol\":908:928  role.bearer[account] */\n  0x0\n    /* \"contracts/SCaccesscontrol/Roles.sol\":920:927  account */\n  dup4\n    /* \"contracts/SCaccesscontrol/Roles.sol\":908:928  role.bearer[account] */\n  0xffffffffffffffffffffffffffffffffffffffff\n  and\n  0xffffffffffffffffffffffffffffffffffffffff\n  and\n  dup2\n  mstore\n  0x20\n  add\n  swap1\n  dup2\n  mstore\n  0x20\n  add\n  0x0\n  keccak256\n  0x0\n  swap1\n  sload\n  swap1\n  0x100\n  exp\n  swap1\n  div\n  0xff\n  and\n    /* \"contracts/SCaccesscontrol/Roles.sol\":901:928  return role.bearer[account] */\n  swap1\n  pop\n    /* \"contracts/SCaccesscontrol/Roles.sol\":761:934  function has(Role storage role, address account)\r... */\n  swap3\n  swap2\n  pop\n  pop\n  jump\t// out\n    /* \"contracts/SCbase/SupplyChain.sol\":339:19404  contract SupplyChain is Ownable,CarParts_ManufacturerRole,CarParts_DistributorRole,RetailerRole,CustomerRole {\r... */\ntag_21:\n  dataSize(sub_0)\n  dup1\n  dataOffset(sub_0)\n  0x0\n  codecopy\n  0x0\n  return\nstop\n\nsub_0: assembly {\n        /* \"contracts/SCbase/SupplyChain.sol\":339:19404  contract SupplyChain is Ownable,CarParts_ManufacturerRole,CarParts_DistributorRole,RetailerRole,CustomerRole {\r... */\n      mstore(0x40, 0x80)\n      jumpi(tag_1, lt(calldatasize, 0x4))\n      calldataload(0x0)\n      0x100000000000000000000000000000000000000000000000000000000\n      swap1\n      div\n      0xffffffff\n      and\n      dup1\n      0x1154501c\n      eq\n      tag_2\n      jumpi\n      dup1\n      0x1210a1d8\n      eq\n      tag_3\n      jumpi\n      dup1\n      0x1d116edf\n      eq\n      tag_4\n      jumpi\n      dup1\n      0x22f11212\n      eq\n      tag_5\n      jumpi\n      dup1\n      0x26d529b4\n      eq\n      tag_6\n      jumpi\n      dup1\n      0x28fd5e83\n      eq\n      tag_7\n      jumpi\n      dup1\n      0x35f31841\n      eq\n      tag_8\n      jumpi\n      dup1\n      0x37b2f92c\n      eq\n      tag_9\n      jumpi\n      dup1\n      0x40b74c38\n      eq\n      tag_10\n      jumpi\n      dup1\n      0x41c0e1b5\n      eq\n      tag_11\n      jumpi\n      dup1\n      0x4f974166\n      eq\n      tag_12\n      jumpi\n      dup1\n      0x546eb586\n      eq\n      tag_13\n      jumpi\n      dup1\n      0x56403ef9\n      eq\n      tag_14\n      jumpi\n      dup1\n      0x5da09b88\n      eq\n      tag_15\n      jumpi\n      dup1\n      0x66225ff9\n      eq\n      tag_16\n      jumpi\n      dup1\n      0x715018a6\n      eq\n      tag_17\n      jumpi\n      dup1\n      0x77c45913\n      eq\n      tag_18\n      jumpi\n      dup1\n      0x8925a06e\n      eq\n      tag_19\n      jumpi\n      dup1\n      0x8ec4f505\n      eq\n      tag_20\n      jumpi\n      dup1\n      0x8f32d59b\n      eq\n      tag_21\n      jumpi\n      dup1\n      0x9e3febc8\n      eq\n      tag_22\n      jumpi\n      dup1\n      0x9e75eb3e\n      eq\n      tag_23\n      jumpi\n      dup1\n      0xa7d247e0\n      eq\n      tag_24\n      jumpi\n      dup1\n      0xad52dcb7\n      eq\n      tag_25\n      jumpi\n      dup1\n      0xad973d74\n      eq\n      tag_26\n      jumpi\n      dup1\n      0xc49ef109\n      eq\n      tag_27\n      jumpi\n      dup1\n      0xc7ef882c\n      eq\n      tag_28\n      jumpi\n      dup1\n      0xd2eafb5a\n      eq\n      tag_29\n      jumpi\n      dup1\n      0xdb0e6a2f\n      eq\n      tag_30\n      jumpi\n      dup1\n      0xe02e64ea\n      eq\n      tag_31\n      jumpi\n      dup1\n      0xe49a83be\n      eq\n      tag_32\n      jumpi\n      dup1\n      0xf2fde38b\n      eq\n      tag_33\n      jumpi\n      dup1\n      0xffeb4d33\n      eq\n      tag_34\n      jumpi\n    tag_1:\n      0x0\n      dup1\n      revert\n        /* \"contracts/SCbase/SupplyChain.sol\":18972:19397  function fetchitemHistory(uint _upc) public view returns\r... */\n    tag_2:\n      callvalue\n        /* \"--CODEGEN--\":8:17   */\n      dup1\n        /* \"--CODEGEN--\":5:7   */\n      iszero\n      tag_35\n      jumpi\n        /* \"--CODEGEN--\":30:31   */\n      0x0\n        /* \"--CODEGEN--\":27:28   */\n      dup1\n        /* \"--CODEGEN--\":20:32   */\n      revert\n        /* \"--CODEGEN--\":5:7   */\n    tag_35:\n        /* \"contracts/SCbase/SupplyChain.sol\":18972:19397  function fetchitemHistory(uint _upc) public view returns\r... */\n      pop\n      tag_36\n      0x4\n      dup1\n      calldatasize\n      sub\n        /* \"--CODEGEN--\":13:15   */\n      0x20\n        /* \"--CODEGEN--\":8:11   */\n      dup2\n        /* \"--CODEGEN--\":5:16   */\n      lt\n        /* \"--CODEGEN--\":2:4   */\n      iszero\n      tag_37\n      jumpi\n        /* \"--CODEGEN--\":29:30   */\n      0x0\n        /* \"--CODEGEN--\":26:27   */\n      dup1\n        /* \"--CODEGEN--\":19:31   */\n      revert\n        /* \"--CODEGEN--\":2:4   */\n    tag_37:\n        /* \"contracts/SCbase/SupplyChain.sol\":18972:19397  function fetchitemHistory(uint _upc) public view returns\r... */\n      dup2\n      add\n      swap1\n      dup1\n      dup1\n      calldataload\n      swap1\n      0x20\n      add\n      swap1\n      swap3\n      swap2\n      swap1\n      pop\n      pop\n      pop\n      jump(tag_38)\n    tag_36:\n      mload(0x40)\n      dup1\n      dup5\n      dup2\n      mstore\n      0x20\n      add\n      dup4\n      dup2\n      mstore\n      0x20\n      add\n      dup3\n      dup2\n      mstore\n      0x20\n      add\n      swap4\n      pop\n      pop\n      pop\n      pop\n      mload(0x40)\n      dup1\n      swap2\n      sub\n      swap1\n      return\n        /* \"contracts/SCaccesscontrol/CarParts_DistributorRole.sol\":1206:1334  function addCarParts_Distributor(address account) public onlyCarParts_Distributor {\r... */\n    tag_3:\n      callvalue\n        /* \"--CODEGEN--\":8:17   */\n      dup1\n        /* \"--CODEGEN--\":5:7   */\n      iszero\n      tag_39\n      jumpi\n        /* \"--CODEGEN--\":30:31   */\n      0x0\n        /* \"--CODEGEN--\":27:28   */\n      dup1\n        /* \"--CODEGEN--\":20:32   */\n      revert\n        /* \"--CODEGEN--\":5:7   */\n    tag_39:\n        /* \"contracts/SCaccesscontrol/CarParts_DistributorRole.sol\":1206:1334  function addCarParts_Distributor(address account) public onlyCarParts_Distributor {\r... */\n      pop\n      tag_40\n      0x4\n      dup1\n      calldatasize\n      sub\n        /* \"--CODEGEN--\":13:15   */\n      0x20\n        /* \"--CODEGEN--\":8:11   */\n      dup2\n        /* \"--CODEGEN--\":5:16   */\n      lt\n        /* \"--CODEGEN--\":2:4   */\n      iszero\n      tag_41\n      jumpi\n        /* \"--CODEGEN--\":29:30   */\n      0x0\n        /* \"--CODEGEN--\":26:27   */\n      dup1\n        /* \"--CODEGEN--\":19:31   */\n      revert\n        /* \"--CODEGEN--\":2:4   */\n    tag_41:\n        /* \"contracts/SCaccesscontrol/CarParts_DistributorRole.sol\":1206:1334  function addCarParts_Distributor(address account) public onlyCarParts_Distributor {\r... */\n      dup2\n      add\n      swap1\n      dup1\n      dup1\n      calldataload\n      0xffffffffffffffffffffffffffffffffffffffff\n      and\n      swap1\n      0x20\n      add\n      swap1\n      swap3\n      swap2\n      swap1\n      pop\n      pop\n      pop\n      jump(tag_42)\n    tag_40:\n      stop\n        /* \"contracts/SCbase/SupplyChain.sol\":11863:12308  function shippedItemByCarParts_Manufacturer(uint _upc) public payable\r... */\n    tag_4:\n      tag_43\n      0x4\n      dup1\n      calldatasize\n      sub\n        /* \"--CODEGEN--\":13:15   */\n      0x20\n        /* \"--CODEGEN--\":8:11   */\n      dup2\n        /* \"--CODEGEN--\":5:16   */\n      lt\n        /* \"--CODEGEN--\":2:4   */\n      iszero\n      tag_44\n      jumpi\n        /* \"--CODEGEN--\":29:30   */\n      0x0\n        /* \"--CODEGEN--\":26:27   */\n      dup1\n        /* \"--CODEGEN--\":19:31   */\n      revert\n        /* \"--CODEGEN--\":2:4   */\n    tag_44:\n        /* \"contracts/SCbase/SupplyChain.sol\":11863:12308  function shippedItemByCarParts_Manufacturer(uint _upc) public payable\r... */\n      dup2\n      add\n      swap1\n      dup1\n      dup1\n      calldataload\n      swap1\n      0x20\n      add\n      swap1\n      swap3\n      swap2\n      swap1\n      pop\n      pop\n      pop\n      jump(tag_45)\n    tag_43:\n      stop\n        /* \"contracts/SCbase/SupplyChain.sol\":10088:10572  function sellItemByCarParts_Manufacturer(uint _upc, uint _price) public\r... */\n    tag_5:\n      callvalue\n        /* \"--CODEGEN--\":8:17   */\n      dup1\n        /* \"--CODEGEN--\":5:7   */\n      iszero\n      tag_46\n      jumpi\n        /* \"--CODEGEN--\":30:31   */\n      0x0\n        /* \"--CODEGEN--\":27:28   */\n      dup1\n        /* \"--CODEGEN--\":20:32   */\n      revert\n        /* \"--CODEGEN--\":5:7   */\n    tag_46:\n        /* \"contracts/SCbase/SupplyChain.sol\":10088:10572  function sellItemByCarParts_Manufacturer(uint _upc, uint _price) public\r... */\n      pop\n      tag_47\n      0x4\n      dup1\n      calldatasize\n      sub\n        /* \"--CODEGEN--\":13:15   */\n      0x40\n        /* \"--CODEGEN--\":8:11   */\n      dup2\n        /* \"--CODEGEN--\":5:16   */\n      lt\n        /* \"--CODEGEN--\":2:4   */\n      iszero\n      tag_48\n      jumpi\n        /* \"--CODEGEN--\":29:30   */\n      0x0\n        /* \"--CODEGEN--\":26:27   */\n      dup1\n        /* \"--CODEGEN--\":19:31   */\n      revert\n        /* \"--CODEGEN--\":2:4   */\n    tag_48:\n        /* \"contracts/SCbase/SupplyChain.sol\":10088:10572  function sellItemByCarParts_Manufacturer(uint _upc, uint _price) public\r... */\n      dup2\n      add\n      swap1\n      dup1\n      dup1\n      calldataload\n      swap1\n      0x20\n      add\n      swap1\n      swap3\n      swap2\n      swap1\n      dup1\n      calldataload\n      swap1\n      0x20\n      add\n      swap1\n      swap3\n      swap2\n      swap1\n      pop\n      pop\n      pop\n      jump(tag_49)\n    tag_47:\n      stop\n        /* \"contracts/SCbase/SupplyChain.sol\":14498:15121  function purchaseItemByRetailer(uint _upc) public payable\r... */\n    tag_6:\n      tag_50\n      0x4\n      dup1\n      calldatasize\n      sub\n        /* \"--CODEGEN--\":13:15   */\n      0x20\n        /* \"--CODEGEN--\":8:11   */\n      dup2\n        /* \"--CODEGEN--\":5:16   */\n      lt\n        /* \"--CODEGEN--\":2:4   */\n      iszero\n      tag_51\n      jumpi\n        /* \"--CODEGEN--\":29:30   */\n      0x0\n        /* \"--CODEGEN--\":26:27   */\n      dup1\n        /* \"--CODEGEN--\":19:31   */\n      revert\n        /* \"--CODEGEN--\":2:4   */\n    tag_51:\n        /* \"contracts/SCbase/SupplyChain.sol\":14498:15121  function purchaseItemByRetailer(uint _upc) public payable\r... */\n      dup2\n      add\n      swap1\n      dup1\n      dup1\n      calldataload\n      swap1\n      0x20\n      add\n      swap1\n      swap3\n      swap2\n      swap1\n      pop\n      pop\n      pop\n      jump(tag_52)\n    tag_50:\n      stop\n        /* \"contracts/SCaccesscontrol/CustomerRole.sol\":906:1012  function isCustomer(address account) public view returns (bool) {\r... */\n    tag_7:\n      callvalue\n        /* \"--CODEGEN--\":8:17   */\n      dup1\n        /* \"--CODEGEN--\":5:7   */\n      iszero\n      tag_53\n      jumpi\n        /* \"--CODEGEN--\":30:31   */\n      0x0\n        /* \"--CODEGEN--\":27:28   */\n      dup1\n        /* \"--CODEGEN--\":20:32   */\n      revert\n        /* \"--CODEGEN--\":5:7   */\n    tag_53:\n        /* \"contracts/SCaccesscontrol/CustomerRole.sol\":906:1012  function isCustomer(address account) public view returns (bool) {\r... */\n      pop\n      tag_54\n      0x4\n      dup1\n      calldatasize\n      sub\n        /* \"--CODEGEN--\":13:15   */\n      0x20\n        /* \"--CODEGEN--\":8:11   */\n      dup2\n        /* \"--CODEGEN--\":5:16   */\n      lt\n        /* \"--CODEGEN--\":2:4   */\n      iszero\n      tag_55\n      jumpi\n        /* \"--CODEGEN--\":29:30   */\n      0x0\n        /* \"--CODEGEN--\":26:27   */\n      dup1\n        /* \"--CODEGEN--\":19:31   */\n      revert\n        /* \"--CODEGEN--\":2:4   */\n    tag_55:\n        /* \"contracts/SCaccesscontrol/CustomerRole.sol\":906:1012  function isCustomer(address account) public view returns (bool) {\r... */\n      dup2\n      add\n      swap1\n      dup1\n      dup1\n      calldataload\n      0xffffffffffffffffffffffffffffffffffffffff\n      and\n      swap1\n      0x20\n      add\n      swap1\n      swap3\n      swap2\n      swap1\n      pop\n      pop\n      pop\n      jump(tag_56)\n    tag_54:\n      mload(0x40)\n      dup1\n      dup3\n      iszero\n      iszero\n      iszero\n      iszero\n      dup2\n      mstore\n      0x20\n      add\n      swap2\n      pop\n      pop\n      mload(0x40)\n      dup1\n      swap2\n      sub\n      swap1\n      return\n        /* \"contracts/SCbase/SupplyChain.sol\":12404:12806  function receivedItemByCarParts_Distributor(uint _upc) public\r... */\n    tag_8:\n      callvalue\n        /* \"--CODEGEN--\":8:17   */\n      dup1\n        /* \"--CODEGEN--\":5:7   */\n      iszero\n      tag_57\n      jumpi\n        /* \"--CODEGEN--\":30:31   */\n      0x0\n        /* \"--CODEGEN--\":27:28   */\n      dup1\n        /* \"--CODEGEN--\":20:32   */\n      revert\n        /* \"--CODEGEN--\":5:7   */\n    tag_57:\n        /* \"contracts/SCbase/SupplyChain.sol\":12404:12806  function receivedItemByCarParts_Distributor(uint _upc) public\r... */\n      pop\n      tag_58\n      0x4\n      dup1\n      calldatasize\n      sub\n        /* \"--CODEGEN--\":13:15   */\n      0x20\n        /* \"--CODEGEN--\":8:11   */\n      dup2\n        /* \"--CODEGEN--\":5:16   */\n      lt\n        /* \"--CODEGEN--\":2:4   */\n      iszero\n      tag_59\n      jumpi\n        /* \"--CODEGEN--\":29:30   */\n      0x0\n        /* \"--CODEGEN--\":26:27   */\n      dup1\n        /* \"--CODEGEN--\":19:31   */\n      revert\n        /* \"--CODEGEN--\":2:4   */\n    tag_59:\n        /* \"contracts/SCbase/SupplyChain.sol\":12404:12806  function receivedItemByCarParts_Distributor(uint _upc) public\r... */\n      dup2\n      add\n      swap1\n      dup1\n      dup1\n      calldataload\n      swap1\n      0x20\n      add\n      swap1\n      swap3\n      swap2\n      swap1\n      pop\n      pop\n      pop\n      jump(tag_60)\n    tag_58:\n      stop\n        /* \"contracts/SCbase/SupplyChain.sol\":15709:16040  function receivedItemByRetailer(uint _upc) public\r... */\n    tag_9:\n      callvalue\n        /* \"--CODEGEN--\":8:17   */\n      dup1\n        /* \"--CODEGEN--\":5:7   */\n      iszero\n      tag_61\n      jumpi\n        /* \"--CODEGEN--\":30:31   */\n      0x0\n        /* \"--CODEGEN--\":27:28   */\n      dup1\n        /* \"--CODEGEN--\":20:32   */\n      revert\n        /* \"--CODEGEN--\":5:7   */\n    tag_61:\n        /* \"contracts/SCbase/SupplyChain.sol\":15709:16040  function receivedItemByRetailer(uint _upc) public\r... */\n      pop\n      tag_62\n      0x4\n      dup1\n      calldatasize\n      sub\n        /* \"--CODEGEN--\":13:15   */\n      0x20\n        /* \"--CODEGEN--\":8:11   */\n      dup2\n        /* \"--CODEGEN--\":5:16   */\n      lt\n        /* \"--CODEGEN--\":2:4   */\n      iszero\n      tag_63\n      jumpi\n        /* \"--CODEGEN--\":29:30   */\n      0x0\n        /* \"--CODEGEN--\":26:27   */\n      dup1\n        /* \"--CODEGEN--\":19:31   */\n      revert\n        /* \"--CODEGEN--\":2:4   */\n    tag_63:\n        /* \"contracts/SCbase/SupplyChain.sol\":15709:16040  function receivedItemByRetailer(uint _upc) public\r... */\n      dup2\n      add\n      swap1\n      dup1\n      dup1\n      calldataload\n      swap1\n      0x20\n      add\n      swap1\n      swap3\n      swap2\n      swap1\n      pop\n      pop\n      pop\n      jump(tag_64)\n    tag_62:\n      stop\n        /* \"contracts/SCaccesscontrol/CarParts_ManufacturerRole.sol\":1226:1357  function addCarParts_Manufacturer(address account) public onlyCarParts_Manufacturer {\r... */\n    tag_10:\n      callvalue\n        /* \"--CODEGEN--\":8:17   */\n      dup1\n        /* \"--CODEGEN--\":5:7   */\n      iszero\n      tag_65\n      jumpi\n        /* \"--CODEGEN--\":30:31   */\n      0x0\n        /* \"--CODEGEN--\":27:28   */\n      dup1\n        /* \"--CODEGEN--\":20:32   */\n      revert\n        /* \"--CODEGEN--\":5:7   */\n    tag_65:\n        /* \"contracts/SCaccesscontrol/CarParts_ManufacturerRole.sol\":1226:1357  function addCarParts_Manufacturer(address account) public onlyCarParts_Manufacturer {\r... */\n      pop\n      tag_66\n      0x4\n      dup1\n      calldatasize\n      sub\n        /* \"--CODEGEN--\":13:15   */\n      0x20\n        /* \"--CODEGEN--\":8:11   */\n      dup2\n        /* \"--CODEGEN--\":5:16   */\n      lt\n        /* \"--CODEGEN--\":2:4   */\n      iszero\n      tag_67\n      jumpi\n        /* \"--CODEGEN--\":29:30   */\n      0x0\n        /* \"--CODEGEN--\":26:27   */\n      dup1\n        /* \"--CODEGEN--\":19:31   */\n      revert\n        /* \"--CODEGEN--\":2:4   */\n    tag_67:\n        /* \"contracts/SCaccesscontrol/CarParts_ManufacturerRole.sol\":1226:1357  function addCarParts_Manufacturer(address account) public onlyCarParts_Manufacturer {\r... */\n      dup2\n      add\n      swap1\n      dup1\n      dup1\n      calldataload\n      0xffffffffffffffffffffffffffffffffffffffff\n      and\n      swap1\n      0x20\n      add\n      swap1\n      swap3\n      swap2\n      swap1\n      pop\n      pop\n      pop\n      jump(tag_68)\n    tag_66:\n      stop\n        /* \"contracts/SCbase/SupplyChain.sol\":6952:7129  function kill() public {\r... */\n    tag_11:\n      callvalue\n        /* \"--CODEGEN--\":8:17   */\n      dup1\n        /* \"--CODEGEN--\":5:7   */\n      iszero\n      tag_69\n      jumpi\n        /* \"--CODEGEN--\":30:31   */\n      0x0\n        /* \"--CODEGEN--\":27:28   */\n      dup1\n        /* \"--CODEGEN--\":20:32   */\n      revert\n        /* \"--CODEGEN--\":5:7   */\n    tag_69:\n        /* \"contracts/SCbase/SupplyChain.sol\":6952:7129  function kill() public {\r... */\n      pop\n      tag_70\n      jump(tag_71)\n    tag_70:\n      stop\n        /* \"contracts/SCbase/SupplyChain.sol\":7406:10002  function produceItemByCarParts_Manufacturer(uint _upc, string memory _originFactoryName, string memory _originFactoryInformation, string memory _originFactoryLatitude, string memory _originFactoryLongitude, string memory _productNotes, uint _price) public\r... */\n    tag_12:\n      callvalue\n        /* \"--CODEGEN--\":8:17   */\n      dup1\n        /* \"--CODEGEN--\":5:7   */\n      iszero\n      tag_72\n      jumpi\n        /* \"--CODEGEN--\":30:31   */\n      0x0\n        /* \"--CODEGEN--\":27:28   */\n      dup1\n        /* \"--CODEGEN--\":20:32   */\n      revert\n        /* \"--CODEGEN--\":5:7   */\n    tag_72:\n        /* \"contracts/SCbase/SupplyChain.sol\":7406:10002  function produceItemByCarParts_Manufacturer(uint _upc, string memory _originFactoryName, string memory _originFactoryInformation, string memory _originFactoryLatitude, string memory _originFactoryLongitude, string memory _productNotes, uint _price) public\r... */\n      pop\n      tag_73\n      0x4\n      dup1\n      calldatasize\n      sub\n        /* \"--CODEGEN--\":13:16   */\n      0xe0\n        /* \"--CODEGEN--\":8:11   */\n      dup2\n        /* \"--CODEGEN--\":5:17   */\n      lt\n        /* \"--CODEGEN--\":2:4   */\n      iszero\n      tag_74\n      jumpi\n        /* \"--CODEGEN--\":30:31   */\n      0x0\n        /* \"--CODEGEN--\":27:28   */\n      dup1\n        /* \"--CODEGEN--\":20:32   */\n      revert\n        /* \"--CODEGEN--\":2:4   */\n    tag_74:\n        /* \"contracts/SCbase/SupplyChain.sol\":7406:10002  function produceItemByCarParts_Manufacturer(uint _upc, string memory _originFactoryName, string memory _originFactoryInformation, string memory _originFactoryLatitude, string memory _originFactoryLongitude, string memory _productNotes, uint _price) public\r... */\n      dup2\n      add\n      swap1\n      dup1\n      dup1\n      calldataload\n      swap1\n      0x20\n      add\n      swap1\n      swap3\n      swap2\n      swap1\n      dup1\n      calldataload\n      swap1\n      0x20\n      add\n      swap1\n        /* \"--CODEGEN--\":21:32   */\n      0x100000000\n        /* \"--CODEGEN--\":8:19   */\n      dup2\n        /* \"--CODEGEN--\":5:33   */\n      gt\n        /* \"--CODEGEN--\":2:4   */\n      iszero\n      tag_75\n      jumpi\n        /* \"--CODEGEN--\":46:47   */\n      0x0\n        /* \"--CODEGEN--\":43:44   */\n      dup1\n        /* \"--CODEGEN--\":36:48   */\n      revert\n        /* \"--CODEGEN--\":2:4   */\n    tag_75:\n        /* \"contracts/SCbase/SupplyChain.sol\":7406:10002  function produceItemByCarParts_Manufacturer(uint _upc, string memory _originFactoryName, string memory _originFactoryInformation, string memory _originFactoryLatitude, string memory _originFactoryLongitude, string memory _productNotes, uint _price) public\r... */\n      dup3\n      add\n        /* \"--CODEGEN--\":35:44   */\n      dup4\n        /* \"--CODEGEN--\":28:32   */\n      0x20\n        /* \"--CODEGEN--\":12:26   */\n      dup3\n        /* \"--CODEGEN--\":8:33   */\n      add\n        /* \"--CODEGEN--\":5:45   */\n      gt\n        /* \"--CODEGEN--\":2:4   */\n      iszero\n      tag_76\n      jumpi\n        /* \"--CODEGEN--\":58:59   */\n      0x0\n        /* \"--CODEGEN--\":55:56   */\n      dup1\n        /* \"--CODEGEN--\":48:60   */\n      revert\n        /* \"--CODEGEN--\":2:4   */\n    tag_76:\n        /* \"contracts/SCbase/SupplyChain.sol\":7406:10002  function produceItemByCarParts_Manufacturer(uint _upc, string memory _originFactoryName, string memory _originFactoryInformation, string memory _originFactoryLatitude, string memory _originFactoryLongitude, string memory _productNotes, uint _price) public\r... */\n      dup1\n      calldataload\n      swap1\n      0x20\n      add\n      swap2\n        /* \"--CODEGEN--\":100:109   */\n      dup5\n        /* \"--CODEGEN--\":95:96   */\n      0x1\n        /* \"--CODEGEN--\":81:93   */\n      dup4\n        /* \"--CODEGEN--\":77:97   */\n      mul\n        /* \"--CODEGEN--\":67:75   */\n      dup5\n        /* \"--CODEGEN--\":63:98   */\n      add\n        /* \"--CODEGEN--\":60:110   */\n      gt\n        /* \"--CODEGEN--\":39:50   */\n      0x100000000\n        /* \"--CODEGEN--\":25:37   */\n      dup4\n        /* \"--CODEGEN--\":22:51   */\n      gt\n        /* \"--CODEGEN--\":11:118   */\n      or\n        /* \"--CODEGEN--\":8:10   */\n      iszero\n      tag_77\n      jumpi\n        /* \"--CODEGEN--\":131:132   */\n      0x0\n        /* \"--CODEGEN--\":128:129   */\n      dup1\n        /* \"--CODEGEN--\":121:133   */\n      revert\n        /* \"--CODEGEN--\":8:10   */\n    tag_77:\n        /* \"contracts/SCbase/SupplyChain.sol\":7406:10002  function produceItemByCarParts_Manufacturer(uint _upc, string memory _originFactoryName, string memory _originFactoryInformation, string memory _originFactoryLatitude, string memory _originFactoryLongitude, string memory _productNotes, uint _price) public\r... */\n      swap2\n      swap1\n      dup1\n      dup1\n      0x1f\n      add\n      0x20\n      dup1\n      swap2\n      div\n      mul\n      0x20\n      add\n      mload(0x40)\n      swap1\n      dup2\n      add\n      0x40\n      mstore\n      dup1\n      swap4\n      swap3\n      swap2\n      swap1\n      dup2\n      dup2\n      mstore\n      0x20\n      add\n      dup4\n      dup4\n        /* \"--CODEGEN--\":30:33   */\n      dup1\n        /* \"--CODEGEN--\":22:28   */\n      dup3\n        /* \"--CODEGEN--\":14:20   */\n      dup5\n        /* \"--CODEGEN--\":1:34   */\n      calldatacopy\n        /* \"--CODEGEN--\":99:100   */\n      0x0\n        /* \"--CODEGEN--\":93:96   */\n      dup2\n        /* \"--CODEGEN--\":85:91   */\n      dup5\n        /* \"--CODEGEN--\":81:97   */\n      add\n        /* \"--CODEGEN--\":74:101   */\n      mstore\n        /* \"--CODEGEN--\":137:141   */\n      0x1f\n        /* \"--CODEGEN--\":133:142   */\n      not\n        /* \"--CODEGEN--\":126:130   */\n      0x1f\n        /* \"--CODEGEN--\":121:124   */\n      dup3\n        /* \"--CODEGEN--\":117:131   */\n      add\n        /* \"--CODEGEN--\":113:143   */\n      and\n        /* \"--CODEGEN--\":106:143   */\n      swap1\n      pop\n        /* \"--CODEGEN--\":169:172   */\n      dup1\n        /* \"--CODEGEN--\":161:167   */\n      dup4\n        /* \"--CODEGEN--\":157:173   */\n      add\n        /* \"--CODEGEN--\":147:173   */\n      swap3\n      pop\n        /* \"contracts/SCbase/SupplyChain.sol\":7406:10002  function produceItemByCarParts_Manufacturer(uint _upc, string memory _originFactoryName, string memory _originFactoryInformation, string memory _originFactoryLatitude, string memory _originFactoryLongitude, string memory _productNotes, uint _price) public\r... */\n      pop\n      pop\n      pop\n      pop\n      pop\n      pop\n      swap2\n      swap3\n      swap2\n      swap3\n      swap1\n      dup1\n      calldataload\n      swap1\n      0x20\n      add\n      swap1\n        /* \"--CODEGEN--\":21:32   */\n      0x100000000\n        /* \"--CODEGEN--\":8:19   */\n      dup2\n        /* \"--CODEGEN--\":5:33   */\n      gt\n        /* \"--CODEGEN--\":2:4   */\n      iszero\n      tag_78\n      jumpi\n        /* \"--CODEGEN--\":46:47   */\n      0x0\n        /* \"--CODEGEN--\":43:44   */\n      dup1\n        /* \"--CODEGEN--\":36:48   */\n      revert\n        /* \"--CODEGEN--\":2:4   */\n    tag_78:\n        /* \"contracts/SCbase/SupplyChain.sol\":7406:10002  function produceItemByCarParts_Manufacturer(uint _upc, string memory _originFactoryName, string memory _originFactoryInformation, string memory _originFactoryLatitude, string memory _originFactoryLongitude, string memory _productNotes, uint _price) public\r... */\n      dup3\n      add\n        /* \"--CODEGEN--\":35:44   */\n      dup4\n        /* \"--CODEGEN--\":28:32   */\n      0x20\n        /* \"--CODEGEN--\":12:26   */\n      dup3\n        /* \"--CODEGEN--\":8:33   */\n      add\n        /* \"--CODEGEN--\":5:45   */\n      gt\n        /* \"--CODEGEN--\":2:4   */\n      iszero\n      tag_79\n      jumpi\n        /* \"--CODEGEN--\":58:59   */\n      0x0\n        /* \"--CODEGEN--\":55:56   */\n      dup1\n        /* \"--CODEGEN--\":48:60   */\n      revert\n        /* \"--CODEGEN--\":2:4   */\n    tag_79:\n        /* \"contracts/SCbase/SupplyChain.sol\":7406:10002  function produceItemByCarParts_Manufacturer(uint _upc, string memory _originFactoryName, string memory _originFactoryInformation, string memory _originFactoryLatitude, string memory _originFactoryLongitude, string memory _productNotes, uint _price) public\r... */\n      dup1\n      calldataload\n      swap1\n      0x20\n      add\n      swap2\n        /* \"--CODEGEN--\":100:109   */\n      dup5\n        /* \"--CODEGEN--\":95:96   */\n      0x1\n        /* \"--CODEGEN--\":81:93   */\n      dup4\n        /* \"--CODEGEN--\":77:97   */\n      mul\n        /* \"--CODEGEN--\":67:75   */\n      dup5\n        /* \"--CODEGEN--\":63:98   */\n      add\n        /* \"--CODEGEN--\":60:110   */\n      gt\n        /* \"--CODEGEN--\":39:50   */\n      0x100000000\n        /* \"--CODEGEN--\":25:37   */\n      dup4\n        /* \"--CODEGEN--\":22:51   */\n      gt\n        /* \"--CODEGEN--\":11:118   */\n      or\n        /* \"--CODEGEN--\":8:10   */\n      iszero\n      tag_80\n      jumpi\n        /* \"--CODEGEN--\":131:132   */\n      0x0\n        /* \"--CODEGEN--\":128:129   */\n      dup1\n        /* \"--CODEGEN--\":121:133   */\n      revert\n        /* \"--CODEGEN--\":8:10   */\n    tag_80:\n        /* \"contracts/SCbase/SupplyChain.sol\":7406:10002  function produceItemByCarParts_Manufacturer(uint _upc, string memory _originFactoryName, string memory _originFactoryInformation, string memory _originFactoryLatitude, string memory _originFactoryLongitude, string memory _productNotes, uint _price) public\r... */\n      swap2\n      swap1\n      dup1\n      dup1\n      0x1f\n      add\n      0x20\n      dup1\n      swap2\n      div\n      mul\n      0x20\n      add\n      mload(0x40)\n      swap1\n      dup2\n      add\n      0x40\n      mstore\n      dup1\n      swap4\n      swap3\n      swap2\n      swap1\n      dup2\n      dup2\n      mstore\n      0x20\n      add\n      dup4\n      dup4\n        /* \"--CODEGEN--\":30:33   */\n      dup1\n        /* \"--CODEGEN--\":22:28   */\n      dup3\n        /* \"--CODEGEN--\":14:20   */\n      dup5\n        /* \"--CODEGEN--\":1:34   */\n      calldatacopy\n        /* \"--CODEGEN--\":99:100   */\n      0x0\n        /* \"--CODEGEN--\":93:96   */\n      dup2\n        /* \"--CODEGEN--\":85:91   */\n      dup5\n        /* \"--CODEGEN--\":81:97   */\n      add\n        /* \"--CODEGEN--\":74:101   */\n      mstore\n        /* \"--CODEGEN--\":137:141   */\n      0x1f\n        /* \"--CODEGEN--\":133:142   */\n      not\n        /* \"--CODEGEN--\":126:130   */\n      0x1f\n        /* \"--CODEGEN--\":121:124   */\n      dup3\n        /* \"--CODEGEN--\":117:131   */\n      add\n        /* \"--CODEGEN--\":113:143   */\n      and\n        /* \"--CODEGEN--\":106:143   */\n      swap1\n      pop\n        /* \"--CODEGEN--\":169:172   */\n      dup1\n        /* \"--CODEGEN--\":161:167   */\n      dup4\n        /* \"--CODEGEN--\":157:173   */\n      add\n        /* \"--CODEGEN--\":147:173   */\n      swap3\n      pop\n        /* \"contracts/SCbase/SupplyChain.sol\":7406:10002  function produceItemByCarParts_Manufacturer(uint _upc, string memory _originFactoryName, string memory _originFactoryInformation, string memory _originFactoryLatitude, string memory _originFactoryLongitude, string memory _productNotes, uint _price) public\r... */\n      pop\n      pop\n      pop\n      pop\n      pop\n      pop\n      swap2\n      swap3\n      swap2\n      swap3\n      swap1\n      dup1\n      calldataload\n      swap1\n      0x20\n      add\n      swap1\n        /* \"--CODEGEN--\":21:32   */\n      0x100000000\n        /* \"--CODEGEN--\":8:19   */\n      dup2\n        /* \"--CODEGEN--\":5:33   */\n      gt\n        /* \"--CODEGEN--\":2:4   */\n      iszero\n      tag_81\n      jumpi\n        /* \"--CODEGEN--\":46:47   */\n      0x0\n        /* \"--CODEGEN--\":43:44   */\n      dup1\n        /* \"--CODEGEN--\":36:48   */\n      revert\n        /* \"--CODEGEN--\":2:4   */\n    tag_81:\n        /* \"contracts/SCbase/SupplyChain.sol\":7406:10002  function produceItemByCarParts_Manufacturer(uint _upc, string memory _originFactoryName, string memory _originFactoryInformation, string memory _originFactoryLatitude, string memory _originFactoryLongitude, string memory _productNotes, uint _price) public\r... */\n      dup3\n      add\n        /* \"--CODEGEN--\":35:44   */\n      dup4\n        /* \"--CODEGEN--\":28:32   */\n      0x20\n        /* \"--CODEGEN--\":12:26   */\n      dup3\n        /* \"--CODEGEN--\":8:33   */\n      add\n        /* \"--CODEGEN--\":5:45   */\n      gt\n        /* \"--CODEGEN--\":2:4   */\n      iszero\n      tag_82\n      jumpi\n        /* \"--CODEGEN--\":58:59   */\n      0x0\n        /* \"--CODEGEN--\":55:56   */\n      dup1\n        /* \"--CODEGEN--\":48:60   */\n      revert\n        /* \"--CODEGEN--\":2:4   */\n    tag_82:\n        /* \"contracts/SCbase/SupplyChain.sol\":7406:10002  function produceItemByCarParts_Manufacturer(uint _upc, string memory _originFactoryName, string memory _originFactoryInformation, string memory _originFactoryLatitude, string memory _originFactoryLongitude, string memory _productNotes, uint _price) public\r... */\n      dup1\n      calldataload\n      swap1\n      0x20\n      add\n      swap2\n        /* \"--CODEGEN--\":100:109   */\n      dup5\n        /* \"--CODEGEN--\":95:96   */\n      0x1\n        /* \"--CODEGEN--\":81:93   */\n      dup4\n        /* \"--CODEGEN--\":77:97   */\n      mul\n        /* \"--CODEGEN--\":67:75   */\n      dup5\n        /* \"--CODEGEN--\":63:98   */\n      add\n        /* \"--CODEGEN--\":60:110   */\n      gt\n        /* \"--CODEGEN--\":39:50   */\n      0x100000000\n        /* \"--CODEGEN--\":25:37   */\n      dup4\n        /* \"--CODEGEN--\":22:51   */\n      gt\n        /* \"--CODEGEN--\":11:118   */\n      or\n        /* \"--CODEGEN--\":8:10   */\n      iszero\n      tag_83\n      jumpi\n        /* \"--CODEGEN--\":131:132   */\n      0x0\n        /* \"--CODEGEN--\":128:129   */\n      dup1\n        /* \"--CODEGEN--\":121:133   */\n      revert\n        /* \"--CODEGEN--\":8:10   */\n    tag_83:\n        /* \"contracts/SCbase/SupplyChain.sol\":7406:10002  function produceItemByCarParts_Manufacturer(uint _upc, string memory _originFactoryName, string memory _originFactoryInformation, string memory _originFactoryLatitude, string memory _originFactoryLongitude, string memory _productNotes, uint _price) public\r... */\n      swap2\n      swap1\n      dup1\n      dup1\n      0x1f\n      add\n      0x20\n      dup1\n      swap2\n      div\n      mul\n      0x20\n      add\n      mload(0x40)\n      swap1\n      dup2\n      add\n      0x40\n      mstore\n      dup1\n      swap4\n      swap3\n      swap2\n      swap1\n      dup2\n      dup2\n      mstore\n      0x20\n      add\n      dup4\n      dup4\n        /* \"--CODEGEN--\":30:33   */\n      dup1\n        /* \"--CODEGEN--\":22:28   */\n      dup3\n        /* \"--CODEGEN--\":14:20   */\n      dup5\n        /* \"--CODEGEN--\":1:34   */\n      calldatacopy\n        /* \"--CODEGEN--\":99:100   */\n      0x0\n        /* \"--CODEGEN--\":93:96   */\n      dup2\n        /* \"--CODEGEN--\":85:91   */\n      dup5\n        /* \"--CODEGEN--\":81:97   */\n      add\n        /* \"--CODEGEN--\":74:101   */\n      mstore\n        /* \"--CODEGEN--\":137:141   */\n      0x1f\n        /* \"--CODEGEN--\":133:142   */\n      not\n        /* \"--CODEGEN--\":126:130   */\n      0x1f\n        /* \"--CODEGEN--\":121:124   */\n      dup3\n        /* \"--CODEGEN--\":117:131   */\n      add\n        /* \"--CODEGEN--\":113:143   */\n      and\n        /* \"--CODEGEN--\":106:143   */\n      swap1\n      pop\n        /* \"--CODEGEN--\":169:172   */\n      dup1\n        /* \"--CODEGEN--\":161:167   */\n      dup4\n        /* \"--CODEGEN--\":157:173   */\n      add\n        /* \"--CODEGEN--\":147:173   */\n      swap3\n      pop\n        /* \"contracts/SCbase/SupplyChain.sol\":7406:10002  function produceItemByCarParts_Manufacturer(uint _upc, string memory _originFactoryName, string memory _originFactoryInformation, string memory _originFactoryLatitude, string memory _originFactoryLongitude, string memory _productNotes, uint _price) public\r... */\n      pop\n      pop\n      pop\n      pop\n      pop\n      pop\n      swap2\n      swap3\n      swap2\n      swap3\n      swap1\n      dup1\n      calldataload\n      swap1\n      0x20\n      add\n      swap1\n        /* \"--CODEGEN--\":21:32   */\n      0x100000000\n        /* \"--CODEGEN--\":8:19   */\n      dup2\n        /* \"--CODEGEN--\":5:33   */\n      gt\n        /* \"--CODEGEN--\":2:4   */\n      iszero\n      tag_84\n      jumpi\n        /* \"--CODEGEN--\":46:47   */\n      0x0\n        /* \"--CODEGEN--\":43:44   */\n      dup1\n        /* \"--CODEGEN--\":36:48   */\n      revert\n        /* \"--CODEGEN--\":2:4   */\n    tag_84:\n        /* \"contracts/SCbase/SupplyChain.sol\":7406:10002  function produceItemByCarParts_Manufacturer(uint _upc, string memory _originFactoryName, string memory _originFactoryInformation, string memory _originFactoryLatitude, string memory _originFactoryLongitude, string memory _productNotes, uint _price) public\r... */\n      dup3\n      add\n        /* \"--CODEGEN--\":35:44   */\n      dup4\n        /* \"--CODEGEN--\":28:32   */\n      0x20\n        /* \"--CODEGEN--\":12:26   */\n      dup3\n        /* \"--CODEGEN--\":8:33   */\n      add\n        /* \"--CODEGEN--\":5:45   */\n      gt\n        /* \"--CODEGEN--\":2:4   */\n      iszero\n      tag_85\n      jumpi\n        /* \"--CODEGEN--\":58:59   */\n      0x0\n        /* \"--CODEGEN--\":55:56   */\n      dup1\n        /* \"--CODEGEN--\":48:60   */\n      revert\n        /* \"--CODEGEN--\":2:4   */\n    tag_85:\n        /* \"contracts/SCbase/SupplyChain.sol\":7406:10002  function produceItemByCarParts_Manufacturer(uint _upc, string memory _originFactoryName, string memory _originFactoryInformation, string memory _originFactoryLatitude, string memory _originFactoryLongitude, string memory _productNotes, uint _price) public\r... */\n      dup1\n      calldataload\n      swap1\n      0x20\n      add\n      swap2\n        /* \"--CODEGEN--\":100:109   */\n      dup5\n        /* \"--CODEGEN--\":95:96   */\n      0x1\n        /* \"--CODEGEN--\":81:93   */\n      dup4\n        /* \"--CODEGEN--\":77:97   */\n      mul\n        /* \"--CODEGEN--\":67:75   */\n      dup5\n        /* \"--CODEGEN--\":63:98   */\n      add\n        /* \"--CODEGEN--\":60:110   */\n      gt\n        /* \"--CODEGEN--\":39:50   */\n      0x100000000\n        /* \"--CODEGEN--\":25:37   */\n      dup4\n        /* \"--CODEGEN--\":22:51   */\n      gt\n        /* \"--CODEGEN--\":11:118   */\n      or\n        /* \"--CODEGEN--\":8:10   */\n      iszero\n      tag_86\n      jumpi\n        /* \"--CODEGEN--\":131:132   */\n      0x0\n        /* \"--CODEGEN--\":128:129   */\n      dup1\n        /* \"--CODEGEN--\":121:133   */\n      revert\n        /* \"--CODEGEN--\":8:10   */\n    tag_86:\n        /* \"contracts/SCbase/SupplyChain.sol\":7406:10002  function produceItemByCarParts_Manufacturer(uint _upc, string memory _originFactoryName, string memory _originFactoryInformation, string memory _originFactoryLatitude, string memory _originFactoryLongitude, string memory _productNotes, uint _price) public\r... */\n      swap2\n      swap1\n      dup1\n      dup1\n      0x1f\n      add\n      0x20\n      dup1\n      swap2\n      div\n      mul\n      0x20\n      add\n      mload(0x40)\n      swap1\n      dup2\n      add\n      0x40\n      mstore\n      dup1\n      swap4\n      swap3\n      swap2\n      swap1\n      dup2\n      dup2\n      mstore\n      0x20\n      add\n      dup4\n      dup4\n        /* \"--CODEGEN--\":30:33   */\n      dup1\n        /* \"--CODEGEN--\":22:28   */\n      dup3\n        /* \"--CODEGEN--\":14:20   */\n      dup5\n        /* \"--CODEGEN--\":1:34   */\n      calldatacopy\n        /* \"--CODEGEN--\":99:100   */\n      0x0\n        /* \"--CODEGEN--\":93:96   */\n      dup2\n        /* \"--CODEGEN--\":85:91   */\n      dup5\n        /* \"--CODEGEN--\":81:97   */\n      add\n        /* \"--CODEGEN--\":74:101   */\n      mstore\n        /* \"--CODEGEN--\":137:141   */\n      0x1f\n        /* \"--CODEGEN--\":133:142   */\n      not\n        /* \"--CODEGEN--\":126:130   */\n      0x1f\n        /* \"--CODEGEN--\":121:124   */\n      dup3\n        /* \"--CODEGEN--\":117:131   */\n      add\n        /* \"--CODEGEN--\":113:143   */\n      and\n        /* \"--CODEGEN--\":106:143   */\n      swap1\n      pop\n        /* \"--CODEGEN--\":169:172   */\n      dup1\n        /* \"--CODEGEN--\":161:167   */\n      dup4\n        /* \"--CODEGEN--\":157:173   */\n      add\n        /* \"--CODEGEN--\":147:173   */\n      swap3\n      pop\n        /* \"contracts/SCbase/SupplyChain.sol\":7406:10002  function produceItemByCarParts_Manufacturer(uint _upc, string memory _originFactoryName, string memory _originFactoryInformation, string memory _originFactoryLatitude, string memory _originFactoryLongitude, string memory _productNotes, uint _price) public\r... */\n      pop\n      pop\n      pop\n      pop\n      pop\n      pop\n      swap2\n      swap3\n      swap2\n      swap3\n      swap1\n      dup1\n      calldataload\n      swap1\n      0x20\n      add\n      swap1\n        /* \"--CODEGEN--\":21:32   */\n      0x100000000\n        /* \"--CODEGEN--\":8:19   */\n      dup2\n        /* \"--CODEGEN--\":5:33   */\n      gt\n        /* \"--CODEGEN--\":2:4   */\n      iszero\n      tag_87\n      jumpi\n        /* \"--CODEGEN--\":46:47   */\n      0x0\n        /* \"--CODEGEN--\":43:44   */\n      dup1\n        /* \"--CODEGEN--\":36:48   */\n      revert\n        /* \"--CODEGEN--\":2:4   */\n    tag_87:\n        /* \"contracts/SCbase/SupplyChain.sol\":7406:10002  function produceItemByCarParts_Manufacturer(uint _upc, string memory _originFactoryName, string memory _originFactoryInformation, string memory _originFactoryLatitude, string memory _originFactoryLongitude, string memory _productNotes, uint _price) public\r... */\n      dup3\n      add\n        /* \"--CODEGEN--\":35:44   */\n      dup4\n        /* \"--CODEGEN--\":28:32   */\n      0x20\n        /* \"--CODEGEN--\":12:26   */\n      dup3\n        /* \"--CODEGEN--\":8:33   */\n      add\n        /* \"--CODEGEN--\":5:45   */\n      gt\n        /* \"--CODEGEN--\":2:4   */\n      iszero\n      tag_88\n      jumpi\n        /* \"--CODEGEN--\":58:59   */\n      0x0\n        /* \"--CODEGEN--\":55:56   */\n      dup1\n        /* \"--CODEGEN--\":48:60   */\n      revert\n        /* \"--CODEGEN--\":2:4   */\n    tag_88:\n        /* \"contracts/SCbase/SupplyChain.sol\":7406:10002  function produceItemByCarParts_Manufacturer(uint _upc, string memory _originFactoryName, string memory _originFactoryInformation, string memory _originFactoryLatitude, string memory _originFactoryLongitude, string memory _productNotes, uint _price) public\r... */\n      dup1\n      calldataload\n      swap1\n      0x20\n      add\n      swap2\n        /* \"--CODEGEN--\":100:109   */\n      dup5\n        /* \"--CODEGEN--\":95:96   */\n      0x1\n        /* \"--CODEGEN--\":81:93   */\n      dup4\n        /* \"--CODEGEN--\":77:97   */\n      mul\n        /* \"--CODEGEN--\":67:75   */\n      dup5\n        /* \"--CODEGEN--\":63:98   */\n      add\n        /* \"--CODEGEN--\":60:110   */\n      gt\n        /* \"--CODEGEN--\":39:50   */\n      0x100000000\n        /* \"--CODEGEN--\":25:37   */\n      dup4\n        /* \"--CODEGEN--\":22:51   */\n      gt\n        /* \"--CODEGEN--\":11:118   */\n      or\n        /* \"--CODEGEN--\":8:10   */\n      iszero\n      tag_89\n      jumpi\n        /* \"--CODEGEN--\":131:132   */\n      0x0\n        /* \"--CODEGEN--\":128:129   */\n      dup1\n        /* \"--CODEGEN--\":121:133   */\n      revert\n        /* \"--CODEGEN--\":8:10   */\n    tag_89:\n        /* \"contracts/SCbase/SupplyChain.sol\":7406:10002  function produceItemByCarParts_Manufacturer(uint _upc, string memory _originFactoryName, string memory _originFactoryInformation, string memory _originFactoryLatitude, string memory _originFactoryLongitude, string memory _productNotes, uint _price) public\r... */\n      swap2\n      swap1\n      dup1\n      dup1\n      0x1f\n      add\n      0x20\n      dup1\n      swap2\n      div\n      mul\n      0x20\n      add\n      mload(0x40)\n      swap1\n      dup2\n      add\n      0x40\n      mstore\n      dup1\n      swap4\n      swap3\n      swap2\n      swap1\n      dup2\n      dup2\n      mstore\n      0x20\n      add\n      dup4\n      dup4\n        /* \"--CODEGEN--\":30:33   */\n      dup1\n        /* \"--CODEGEN--\":22:28   */\n      dup3\n        /* \"--CODEGEN--\":14:20   */\n      dup5\n        /* \"--CODEGEN--\":1:34   */\n      calldatacopy\n        /* \"--CODEGEN--\":99:100   */\n      0x0\n        /* \"--CODEGEN--\":93:96   */\n      dup2\n        /* \"--CODEGEN--\":85:91   */\n      dup5\n        /* \"--CODEGEN--\":81:97   */\n      add\n        /* \"--CODEGEN--\":74:101   */\n      mstore\n        /* \"--CODEGEN--\":137:141   */\n      0x1f\n        /* \"--CODEGEN--\":133:142   */\n      not\n        /* \"--CODEGEN--\":126:130   */\n      0x1f\n        /* \"--CODEGEN--\":121:124   */\n      dup3\n        /* \"--CODEGEN--\":117:131   */\n      add\n        /* \"--CODEGEN--\":113:143   */\n      and\n        /* \"--CODEGEN--\":106:143   */\n      swap1\n      pop\n        /* \"--CODEGEN--\":169:172   */\n      dup1\n        /* \"--CODEGEN--\":161:167   */\n      dup4\n        /* \"--CODEGEN--\":157:173   */\n      add\n        /* \"--CODEGEN--\":147:173   */\n      swap3\n      pop\n        /* \"contracts/SCbase/SupplyChain.sol\":7406:10002  function produceItemByCarParts_Manufacturer(uint _upc, string memory _originFactoryName, string memory _originFactoryInformation, string memory _originFactoryLatitude, string memory _originFactoryLongitude, string memory _productNotes, uint _price) public\r... */\n      pop\n      pop\n      pop\n      pop\n      pop\n      pop\n      swap2\n      swap3\n      swap2\n      swap3\n      swap1\n      dup1\n      calldataload\n      swap1\n      0x20\n      add\n      swap1\n      swap3\n      swap2\n      swap1\n      pop\n      pop\n      pop\n      jump(tag_90)\n    tag_73:\n      stop\n        /* \"contracts/SCbase/SupplyChain.sol\":16122:16492  function sellItemByRetailer(uint _upc, uint _price) public\r... */\n    tag_13:\n      callvalue\n        /* \"--CODEGEN--\":8:17   */\n      dup1\n        /* \"--CODEGEN--\":5:7   */\n      iszero\n      tag_91\n      jumpi\n        /* \"--CODEGEN--\":30:31   */\n      0x0\n        /* \"--CODEGEN--\":27:28   */\n      dup1\n        /* \"--CODEGEN--\":20:32   */\n      revert\n        /* \"--CODEGEN--\":5:7   */\n    tag_91:\n        /* \"contracts/SCbase/SupplyChain.sol\":16122:16492  function sellItemByRetailer(uint _upc, uint _price) public\r... */\n      pop\n      tag_92\n      0x4\n      dup1\n      calldatasize\n      sub\n        /* \"--CODEGEN--\":13:15   */\n      0x40\n        /* \"--CODEGEN--\":8:11   */\n      dup2\n        /* \"--CODEGEN--\":5:16   */\n      lt\n        /* \"--CODEGEN--\":2:4   */\n      iszero\n      tag_93\n      jumpi\n        /* \"--CODEGEN--\":29:30   */\n      0x0\n        /* \"--CODEGEN--\":26:27   */\n      dup1\n        /* \"--CODEGEN--\":19:31   */\n      revert\n        /* \"--CODEGEN--\":2:4   */\n    tag_93:\n        /* \"contracts/SCbase/SupplyChain.sol\":16122:16492  function sellItemByRetailer(uint _upc, uint _price) public\r... */\n      dup2\n      add\n      swap1\n      dup1\n      dup1\n      calldataload\n      swap1\n      0x20\n      add\n      swap1\n      swap3\n      swap2\n      swap1\n      dup1\n      calldataload\n      swap1\n      0x20\n      add\n      swap1\n      swap3\n      swap2\n      swap1\n      pop\n      pop\n      pop\n      jump(tag_94)\n    tag_92:\n      stop\n        /* \"contracts/SCbase/SupplyChain.sol\":12902:13397  function processedItemByCarParts_Distributor(uint _upc) public //(uint _upc,uint splits)\r... */\n    tag_14:\n      callvalue\n        /* \"--CODEGEN--\":8:17   */\n      dup1\n        /* \"--CODEGEN--\":5:7   */\n      iszero\n      tag_95\n      jumpi\n        /* \"--CODEGEN--\":30:31   */\n      0x0\n        /* \"--CODEGEN--\":27:28   */\n      dup1\n        /* \"--CODEGEN--\":20:32   */\n      revert\n        /* \"--CODEGEN--\":5:7   */\n    tag_95:\n        /* \"contracts/SCbase/SupplyChain.sol\":12902:13397  function processedItemByCarParts_Distributor(uint _upc) public //(uint _upc,uint splits)\r... */\n      pop\n      tag_96\n      0x4\n      dup1\n      calldatasize\n      sub\n        /* \"--CODEGEN--\":13:15   */\n      0x20\n        /* \"--CODEGEN--\":8:11   */\n      dup2\n        /* \"--CODEGEN--\":5:16   */\n      lt\n        /* \"--CODEGEN--\":2:4   */\n      iszero\n      tag_97\n      jumpi\n        /* \"--CODEGEN--\":29:30   */\n      0x0\n        /* \"--CODEGEN--\":26:27   */\n      dup1\n        /* \"--CODEGEN--\":19:31   */\n      revert\n        /* \"--CODEGEN--\":2:4   */\n    tag_97:\n        /* \"contracts/SCbase/SupplyChain.sol\":12902:13397  function processedItemByCarParts_Distributor(uint _upc) public //(uint _upc,uint splits)\r... */\n      dup2\n      add\n      swap1\n      dup1\n      dup1\n      calldataload\n      swap1\n      0x20\n      add\n      swap1\n      swap3\n      swap2\n      swap1\n      pop\n      pop\n      pop\n      jump(tag_98)\n    tag_96:\n      stop\n        /* \"contracts/SCaccesscontrol/RetailerRole.sol\":875:981  function isRetailer(address account) public view returns (bool) {\r... */\n    tag_15:\n      callvalue\n        /* \"--CODEGEN--\":8:17   */\n      dup1\n        /* \"--CODEGEN--\":5:7   */\n      iszero\n      tag_99\n      jumpi\n        /* \"--CODEGEN--\":30:31   */\n      0x0\n        /* \"--CODEGEN--\":27:28   */\n      dup1\n        /* \"--CODEGEN--\":20:32   */\n      revert\n        /* \"--CODEGEN--\":5:7   */\n    tag_99:\n        /* \"contracts/SCaccesscontrol/RetailerRole.sol\":875:981  function isRetailer(address account) public view returns (bool) {\r... */\n      pop\n      tag_100\n      0x4\n      dup1\n      calldatasize\n      sub\n        /* \"--CODEGEN--\":13:15   */\n      0x20\n        /* \"--CODEGEN--\":8:11   */\n      dup2\n        /* \"--CODEGEN--\":5:16   */\n      lt\n        /* \"--CODEGEN--\":2:4   */\n      iszero\n      tag_101\n      jumpi\n        /* \"--CODEGEN--\":29:30   */\n      0x0\n        /* \"--CODEGEN--\":26:27   */\n      dup1\n        /* \"--CODEGEN--\":19:31   */\n      revert\n        /* \"--CODEGEN--\":2:4   */\n    tag_101:\n        /* \"contracts/SCaccesscontrol/RetailerRole.sol\":875:981  function isRetailer(address account) public view returns (bool) {\r... */\n      dup2\n      add\n      swap1\n      dup1\n      dup1\n      calldataload\n      0xffffffffffffffffffffffffffffffffffffffff\n      and\n      swap1\n      0x20\n      add\n      swap1\n      swap3\n      swap2\n      swap1\n      pop\n      pop\n      pop\n      jump(tag_102)\n    tag_100:\n      mload(0x40)\n      dup1\n      dup3\n      iszero\n      iszero\n      iszero\n      iszero\n      dup2\n      mstore\n      0x20\n      add\n      swap2\n      pop\n      pop\n      mload(0x40)\n      dup1\n      swap2\n      sub\n      swap1\n      return\n        /* \"contracts/SCbase/SupplyChain.sol\":18199:18900  function fetchItemBufferTwo(uint _upc) public view returns\r... */\n    tag_16:\n      callvalue\n        /* \"--CODEGEN--\":8:17   */\n      dup1\n        /* \"--CODEGEN--\":5:7   */\n      iszero\n      tag_103\n      jumpi\n        /* \"--CODEGEN--\":30:31   */\n      0x0\n        /* \"--CODEGEN--\":27:28   */\n      dup1\n        /* \"--CODEGEN--\":20:32   */\n      revert\n        /* \"--CODEGEN--\":5:7   */\n    tag_103:\n        /* \"contracts/SCbase/SupplyChain.sol\":18199:18900  function fetchItemBufferTwo(uint _upc) public view returns\r... */\n      pop\n      tag_104\n      0x4\n      dup1\n      calldatasize\n      sub\n        /* \"--CODEGEN--\":13:15   */\n      0x20\n        /* \"--CODEGEN--\":8:11   */\n      dup2\n        /* \"--CODEGEN--\":5:16   */\n      lt\n        /* \"--CODEGEN--\":2:4   */\n      iszero\n      tag_105\n      jumpi\n        /* \"--CODEGEN--\":29:30   */\n      0x0\n        /* \"--CODEGEN--\":26:27   */\n      dup1\n        /* \"--CODEGEN--\":19:31   */\n      revert\n        /* \"--CODEGEN--\":2:4   */\n    tag_105:\n        /* \"contracts/SCbase/SupplyChain.sol\":18199:18900  function fetchItemBufferTwo(uint _upc) public view returns\r... */\n      dup2\n      add\n      swap1\n      dup1\n      dup1\n      calldataload\n      swap1\n      0x20\n      add\n      swap1\n      swap3\n      swap2\n      swap1\n      pop\n      pop\n      pop\n      jump(tag_106)\n    tag_104:\n      mload(0x40)\n      dup1\n      dup12\n      dup2\n      mstore\n      0x20\n      add\n      dup11\n      dup2\n      mstore\n      0x20\n      add\n      dup10\n      dup2\n      mstore\n      0x20\n      add\n      dup1\n      0x20\n      add\n      dup9\n      dup2\n      mstore\n      0x20\n      add\n      dup8\n      dup2\n      mstore\n      0x20\n      add\n      dup7\n      0xc\n      dup2\n      gt\n      iszero\n      tag_107\n      jumpi\n      invalid\n    tag_107:\n      0xff\n      and\n      dup2\n      mstore\n      0x20\n      add\n      dup6\n      0xffffffffffffffffffffffffffffffffffffffff\n      and\n      0xffffffffffffffffffffffffffffffffffffffff\n      and\n      dup2\n      mstore\n      0x20\n      add\n      dup5\n      0xffffffffffffffffffffffffffffffffffffffff\n      and\n      0xffffffffffffffffffffffffffffffffffffffff\n      and\n      dup2\n      mstore\n      0x20\n      add\n      dup4\n      0xffffffffffffffffffffffffffffffffffffffff\n      and\n      0xffffffffffffffffffffffffffffffffffffffff\n      and\n      dup2\n      mstore\n      0x20\n      add\n      dup3\n      dup2\n      sub\n      dup3\n      mstore\n      dup10\n      dup2\n      dup2\n      mload\n      dup2\n      mstore\n      0x20\n      add\n      swap2\n      pop\n      dup1\n      mload\n      swap1\n      0x20\n      add\n      swap1\n      dup1\n      dup4\n      dup4\n        /* \"--CODEGEN--\":23:24   */\n      0x0\n        /* \"--CODEGEN--\":8:108   */\n    tag_108:\n        /* \"--CODEGEN--\":33:36   */\n      dup4\n        /* \"--CODEGEN--\":30:31   */\n      dup2\n        /* \"--CODEGEN--\":27:37   */\n      lt\n        /* \"--CODEGEN--\":8:108   */\n      iszero\n      tag_109\n      jumpi\n        /* \"--CODEGEN--\":99:100   */\n      dup1\n        /* \"--CODEGEN--\":94:97   */\n      dup3\n        /* \"--CODEGEN--\":90:101   */\n      add\n        /* \"--CODEGEN--\":84:102   */\n      mload\n        /* \"--CODEGEN--\":80:81   */\n      dup2\n        /* \"--CODEGEN--\":75:78   */\n      dup5\n        /* \"--CODEGEN--\":71:82   */\n      add\n        /* \"--CODEGEN--\":64:103   */\n      mstore\n        /* \"--CODEGEN--\":52:54   */\n      0x20\n        /* \"--CODEGEN--\":49:50   */\n      dup2\n        /* \"--CODEGEN--\":45:55   */\n      add\n        /* \"--CODEGEN--\":40:55   */\n      swap1\n      pop\n        /* \"--CODEGEN--\":8:108   */\n      jump(tag_108)\n    tag_109:\n        /* \"--CODEGEN--\":12:26   */\n      pop\n        /* \"contracts/SCbase/SupplyChain.sol\":18199:18900  function fetchItemBufferTwo(uint _upc) public view returns\r... */\n      pop\n      pop\n      pop\n      swap1\n      pop\n      swap1\n      dup2\n      add\n      swap1\n      0x1f\n      and\n      dup1\n      iszero\n      tag_111\n      jumpi\n      dup1\n      dup3\n      sub\n      dup1\n      mload\n      0x1\n      dup4\n      0x20\n      sub\n      0x100\n      exp\n      sub\n      not\n      and\n      dup2\n      mstore\n      0x20\n      add\n      swap2\n      pop\n    tag_111:\n      pop\n      swap12\n      pop\n      pop\n      pop\n      pop\n      pop\n      pop\n      pop\n      pop\n      pop\n      pop\n      pop\n      pop\n      mload(0x40)\n      dup1\n      swap2\n      sub\n      swap1\n      return\n        /* \"contracts/SCcore/Ownable.sol\":889:1032  function renounceOwnership() public onlyOwner {\r... */\n    tag_17:\n      callvalue\n        /* \"--CODEGEN--\":8:17   */\n      dup1\n        /* \"--CODEGEN--\":5:7   */\n      iszero\n      tag_112\n      jumpi\n        /* \"--CODEGEN--\":30:31   */\n      0x0\n        /* \"--CODEGEN--\":27:28   */\n      dup1\n        /* \"--CODEGEN--\":20:32   */\n      revert\n        /* \"--CODEGEN--\":5:7   */\n    tag_112:\n        /* \"contracts/SCcore/Ownable.sol\":889:1032  function renounceOwnership() public onlyOwner {\r... */\n      pop\n      tag_113\n      jump(tag_114)\n    tag_113:\n      stop\n        /* \"contracts/SCbase/SupplyChain.sol\":17307:18126  function fetchItemBufferOne(uint _upc) public view returns\r... */\n    tag_18:\n      callvalue\n        /* \"--CODEGEN--\":8:17   */\n      dup1\n        /* \"--CODEGEN--\":5:7   */\n      iszero\n      tag_115\n      jumpi\n        /* \"--CODEGEN--\":30:31   */\n      0x0\n        /* \"--CODEGEN--\":27:28   */\n      dup1\n        /* \"--CODEGEN--\":20:32   */\n      revert\n        /* \"--CODEGEN--\":5:7   */\n    tag_115:\n        /* \"contracts/SCbase/SupplyChain.sol\":17307:18126  function fetchItemBufferOne(uint _upc) public view returns\r... */\n      pop\n      tag_116\n      0x4\n      dup1\n      calldatasize\n      sub\n        /* \"--CODEGEN--\":13:15   */\n      0x20\n        /* \"--CODEGEN--\":8:11   */\n      dup2\n        /* \"--CODEGEN--\":5:16   */\n      lt\n        /* \"--CODEGEN--\":2:4   */\n      iszero\n      tag_117\n      jumpi\n        /* \"--CODEGEN--\":29:30   */\n      0x0\n        /* \"--CODEGEN--\":26:27   */\n      dup1\n        /* \"--CODEGEN--\":19:31   */\n      revert\n        /* \"--CODEGEN--\":2:4   */\n    tag_117:\n        /* \"contracts/SCbase/SupplyChain.sol\":17307:18126  function fetchItemBufferOne(uint _upc) public view returns\r... */\n      dup2\n      add\n      swap1\n      dup1\n      dup1\n      calldataload\n      swap1\n      0x20\n      add\n      swap1\n      swap3\n      swap2\n      swap1\n      pop\n      pop\n      pop\n      jump(tag_118)\n    tag_116:\n      mload(0x40)\n      dup1\n      dup11\n      dup2\n      mstore\n      0x20\n      add\n      dup10\n      dup2\n      mstore\n      0x20\n      add\n      dup9\n      0xffffffffffffffffffffffffffffffffffffffff\n      and\n      0xffffffffffffffffffffffffffffffffffffffff\n      and\n      dup2\n      mstore\n      0x20\n      add\n      dup8\n      0xffffffffffffffffffffffffffffffffffffffff\n      and\n      0xffffffffffffffffffffffffffffffffffffffff\n      and\n      dup2\n      mstore\n      0x20\n      add\n      dup1\n      0x20\n      add\n      dup1\n      0x20\n      add\n      dup1\n      0x20\n      add\n      dup1\n      0x20\n      add\n      dup7\n      dup2\n      mstore\n      0x20\n      add\n      dup6\n      dup2\n      sub\n      dup6\n      mstore\n      dup11\n      dup2\n      dup2\n      mload\n      dup2\n      mstore\n      0x20\n      add\n      swap2\n      pop\n      dup1\n      mload\n      swap1\n      0x20\n      add\n      swap1\n      dup1\n      dup4\n      dup4\n        /* \"--CODEGEN--\":23:24   */\n      0x0\n        /* \"--CODEGEN--\":8:108   */\n    tag_119:\n        /* \"--CODEGEN--\":33:36   */\n      dup4\n        /* \"--CODEGEN--\":30:31   */\n      dup2\n        /* \"--CODEGEN--\":27:37   */\n      lt\n        /* \"--CODEGEN--\":8:108   */\n      iszero\n      tag_120\n      jumpi\n        /* \"--CODEGEN--\":99:100   */\n      dup1\n        /* \"--CODEGEN--\":94:97   */\n      dup3\n        /* \"--CODEGEN--\":90:101   */\n      add\n        /* \"--CODEGEN--\":84:102   */\n      mload\n        /* \"--CODEGEN--\":80:81   */\n      dup2\n        /* \"--CODEGEN--\":75:78   */\n      dup5\n        /* \"--CODEGEN--\":71:82   */\n      add\n        /* \"--CODEGEN--\":64:103   */\n      mstore\n        /* \"--CODEGEN--\":52:54   */\n      0x20\n        /* \"--CODEGEN--\":49:50   */\n      dup2\n        /* \"--CODEGEN--\":45:55   */\n      add\n        /* \"--CODEGEN--\":40:55   */\n      swap1\n      pop\n        /* \"--CODEGEN--\":8:108   */\n      jump(tag_119)\n    tag_120:\n        /* \"--CODEGEN--\":12:26   */\n      pop\n        /* \"contracts/SCbase/SupplyChain.sol\":17307:18126  function fetchItemBufferOne(uint _upc) public view returns\r... */\n      pop\n      pop\n      pop\n      swap1\n      pop\n      swap1\n      dup2\n      add\n      swap1\n      0x1f\n      and\n      dup1\n      iszero\n      tag_122\n      jumpi\n      dup1\n      dup3\n      sub\n      dup1\n      mload\n      0x1\n      dup4\n      0x20\n      sub\n      0x100\n      exp\n      sub\n      not\n      and\n      dup2\n      mstore\n      0x20\n      add\n      swap2\n      pop\n    tag_122:\n      pop\n      dup6\n      dup2\n      sub\n      dup5\n      mstore\n      dup10\n      dup2\n      dup2\n      mload\n      dup2\n      mstore\n      0x20\n      add\n      swap2\n      pop\n      dup1\n      mload\n      swap1\n      0x20\n      add\n      swap1\n      dup1\n      dup4\n      dup4\n        /* \"--CODEGEN--\":23:24   */\n      0x0\n        /* \"--CODEGEN--\":8:108   */\n    tag_123:\n        /* \"--CODEGEN--\":33:36   */\n      dup4\n        /* \"--CODEGEN--\":30:31   */\n      dup2\n        /* \"--CODEGEN--\":27:37   */\n      lt\n        /* \"--CODEGEN--\":8:108   */\n      iszero\n      tag_124\n      jumpi\n        /* \"--CODEGEN--\":99:100   */\n      dup1\n        /* \"--CODEGEN--\":94:97   */\n      dup3\n        /* \"--CODEGEN--\":90:101   */\n      add\n        /* \"--CODEGEN--\":84:102   */\n      mload\n        /* \"--CODEGEN--\":80:81   */\n      dup2\n        /* \"--CODEGEN--\":75:78   */\n      dup5\n        /* \"--CODEGEN--\":71:82   */\n      add\n        /* \"--CODEGEN--\":64:103   */\n      mstore\n        /* \"--CODEGEN--\":52:54   */\n      0x20\n        /* \"--CODEGEN--\":49:50   */\n      dup2\n        /* \"--CODEGEN--\":45:55   */\n      add\n        /* \"--CODEGEN--\":40:55   */\n      swap1\n      pop\n        /* \"--CODEGEN--\":8:108   */\n      jump(tag_123)\n    tag_124:\n        /* \"--CODEGEN--\":12:26   */\n      pop\n        /* \"contracts/SCbase/SupplyChain.sol\":17307:18126  function fetchItemBufferOne(uint _upc) public view returns\r... */\n      pop\n      pop\n      pop\n      swap1\n      pop\n      swap1\n      dup2\n      add\n      swap1\n      0x1f\n      and\n      dup1\n      iszero\n      tag_126\n      jumpi\n      dup1\n      dup3\n      sub\n      dup1\n      mload\n      0x1\n      dup4\n      0x20\n      sub\n      0x100\n      exp\n      sub\n      not\n      and\n      dup2\n      mstore\n      0x20\n      add\n      swap2\n      pop\n    tag_126:\n      pop\n      dup6\n      dup2\n      sub\n      dup4\n      mstore\n      dup9\n      dup2\n      dup2\n      mload\n      dup2\n      mstore\n      0x20\n      add\n      swap2\n      pop\n      dup1\n      mload\n      swap1\n      0x20\n      add\n      swap1\n      dup1\n      dup4\n      dup4\n        /* \"--CODEGEN--\":23:24   */\n      0x0\n        /* \"--CODEGEN--\":8:108   */\n    tag_127:\n        /* \"--CODEGEN--\":33:36   */\n      dup4\n        /* \"--CODEGEN--\":30:31   */\n      dup2\n        /* \"--CODEGEN--\":27:37   */\n      lt\n        /* \"--CODEGEN--\":8:108   */\n      iszero\n      tag_128\n      jumpi\n        /* \"--CODEGEN--\":99:100   */\n      dup1\n        /* \"--CODEGEN--\":94:97   */\n      dup3\n        /* \"--CODEGEN--\":90:101   */\n      add\n        /* \"--CODEGEN--\":84:102   */\n      mload\n        /* \"--CODEGEN--\":80:81   */\n      dup2\n        /* \"--CODEGEN--\":75:78   */\n      dup5\n        /* \"--CODEGEN--\":71:82   */\n      add\n        /* \"--CODEGEN--\":64:103   */\n      mstore\n        /* \"--CODEGEN--\":52:54   */\n      0x20\n        /* \"--CODEGEN--\":49:50   */\n      dup2\n        /* \"--CODEGEN--\":45:55   */\n      add\n        /* \"--CODEGEN--\":40:55   */\n      swap1\n      pop\n        /* \"--CODEGEN--\":8:108   */\n      jump(tag_127)\n    tag_128:\n        /* \"--CODEGEN--\":12:26   */\n      pop\n        /* \"contracts/SCbase/SupplyChain.sol\":17307:18126  function fetchItemBufferOne(uint _upc) public view returns\r... */\n      pop\n      pop\n      pop\n      swap1\n      pop\n      swap1\n      dup2\n      add\n      swap1\n      0x1f\n      and\n      dup1\n      iszero\n      tag_130\n      jumpi\n      dup1\n      dup3\n      sub\n      dup1\n      mload\n      0x1\n      dup4\n      0x20\n      sub\n      0x100\n      exp\n      sub\n      not\n      and\n      dup2\n      mstore\n      0x20\n      add\n      swap2\n      pop\n    tag_130:\n      pop\n      dup6\n      dup2\n      sub\n      dup3\n      mstore\n      dup8\n      dup2\n      dup2\n      mload\n      dup2\n      mstore\n      0x20\n      add\n      swap2\n      pop\n      dup1\n      mload\n      swap1\n      0x20\n      add\n      swap1\n      dup1\n      dup4\n      dup4\n        /* \"--CODEGEN--\":23:24   */\n      0x0\n        /* \"--CODEGEN--\":8:108   */\n    tag_131:\n        /* \"--CODEGEN--\":33:36   */\n      dup4\n        /* \"--CODEGEN--\":30:31   */\n      dup2\n        /* \"--CODEGEN--\":27:37   */\n      lt\n        /* \"--CODEGEN--\":8:108   */\n      iszero\n      tag_132\n      jumpi\n        /* \"--CODEGEN--\":99:100   */\n      dup1\n        /* \"--CODEGEN--\":94:97   */\n      dup3\n        /* \"--CODEGEN--\":90:101   */\n      add\n        /* \"--CODEGEN--\":84:102   */\n      mload\n        /* \"--CODEGEN--\":80:81   */\n      dup2\n        /* \"--CODEGEN--\":75:78   */\n      dup5\n        /* \"--CODEGEN--\":71:82   */\n      add\n        /* \"--CODEGEN--\":64:103   */\n      mstore\n        /* \"--CODEGEN--\":52:54   */\n      0x20\n        /* \"--CODEGEN--\":49:50   */\n      dup2\n        /* \"--CODEGEN--\":45:55   */\n      add\n        /* \"--CODEGEN--\":40:55   */\n      swap1\n      pop\n        /* \"--CODEGEN--\":8:108   */\n      jump(tag_131)\n    tag_132:\n        /* \"--CODEGEN--\":12:26   */\n      pop\n        /* \"contracts/SCbase/SupplyChain.sol\":17307:18126  function fetchItemBufferOne(uint _upc) public view returns\r... */\n      pop\n      pop\n      pop\n      swap1\n      pop\n      swap1\n      dup2\n      add\n      swap1\n      0x1f\n      and\n      dup1\n      iszero\n      tag_134\n      jumpi\n      dup1\n      dup3\n      sub\n      dup1\n      mload\n      0x1\n      dup4\n      0x20\n      sub\n      0x100\n      exp\n      sub\n      not\n      and\n      dup2\n      mstore\n      0x20\n      add\n      swap2\n      pop\n    tag_134:\n      pop\n      swap14\n      pop\n      pop\n      pop\n      pop\n      pop\n      pop\n      pop\n      pop\n      pop\n      pop\n      pop\n      pop\n      pop\n      pop\n      mload(0x40)\n      dup1\n      swap2\n      sub\n      swap1\n      return\n        /* \"contracts/SCaccesscontrol/CarParts_DistributorRole.sol\":1417:1516  function renounceCarParts_Distributor() public {\r... */\n    tag_19:\n      callvalue\n        /* \"--CODEGEN--\":8:17   */\n      dup1\n        /* \"--CODEGEN--\":5:7   */\n      iszero\n      tag_135\n      jumpi\n        /* \"--CODEGEN--\":30:31   */\n      0x0\n        /* \"--CODEGEN--\":27:28   */\n      dup1\n        /* \"--CODEGEN--\":20:32   */\n      revert\n        /* \"--CODEGEN--\":5:7   */\n    tag_135:\n        /* \"contracts/SCaccesscontrol/CarParts_DistributorRole.sol\":1417:1516  function renounceCarParts_Distributor() public {\r... */\n      pop\n      tag_136\n      jump(tag_137)\n    tag_136:\n      stop\n        /* \"contracts/SCaccesscontrol/RetailerRole.sol\":1045:1137  function addRetailer(address account) public onlyRetailer {\r... */\n    tag_20:\n      callvalue\n        /* \"--CODEGEN--\":8:17   */\n      dup1\n        /* \"--CODEGEN--\":5:7   */\n      iszero\n      tag_138\n      jumpi\n        /* \"--CODEGEN--\":30:31   */\n      0x0\n        /* \"--CODEGEN--\":27:28   */\n      dup1\n        /* \"--CODEGEN--\":20:32   */\n      revert\n        /* \"--CODEGEN--\":5:7   */\n    tag_138:\n        /* \"contracts/SCaccesscontrol/RetailerRole.sol\":1045:1137  function addRetailer(address account) public onlyRetailer {\r... */\n      pop\n      tag_139\n      0x4\n      dup1\n      calldatasize\n      sub\n        /* \"--CODEGEN--\":13:15   */\n      0x20\n        /* \"--CODEGEN--\":8:11   */\n      dup2\n        /* \"--CODEGEN--\":5:16   */\n      lt\n        /* \"--CODEGEN--\":2:4   */\n      iszero\n      tag_140\n      jumpi\n        /* \"--CODEGEN--\":29:30   */\n      0x0\n        /* \"--CODEGEN--\":26:27   */\n      dup1\n        /* \"--CODEGEN--\":19:31   */\n      revert\n        /* \"--CODEGEN--\":2:4   */\n    tag_140:\n        /* \"contracts/SCaccesscontrol/RetailerRole.sol\":1045:1137  function addRetailer(address account) public onlyRetailer {\r... */\n      dup2\n      add\n      swap1\n      dup1\n      dup1\n      calldataload\n      0xffffffffffffffffffffffffffffffffffffffff\n      and\n      swap1\n      0x20\n      add\n      swap1\n      swap3\n      swap2\n      swap1\n      pop\n      pop\n      pop\n      jump(tag_141)\n    tag_139:\n      stop\n        /* \"contracts/SCcore/Ownable.sol\":738:833  function isOwner() public view returns (bool) {\r... */\n    tag_21:\n      callvalue\n        /* \"--CODEGEN--\":8:17   */\n      dup1\n        /* \"--CODEGEN--\":5:7   */\n      iszero\n      tag_142\n      jumpi\n        /* \"--CODEGEN--\":30:31   */\n      0x0\n        /* \"--CODEGEN--\":27:28   */\n      dup1\n        /* \"--CODEGEN--\":20:32   */\n      revert\n        /* \"--CODEGEN--\":5:7   */\n    tag_142:\n        /* \"contracts/SCcore/Ownable.sol\":738:833  function isOwner() public view returns (bool) {\r... */\n      pop\n      tag_143\n      jump(tag_144)\n    tag_143:\n      mload(0x40)\n      dup1\n      dup3\n      iszero\n      iszero\n      iszero\n      iszero\n      dup2\n      mstore\n      0x20\n      add\n      swap2\n      pop\n      pop\n      mload(0x40)\n      dup1\n      swap2\n      sub\n      swap1\n      return\n        /* \"contracts/SCbase/SupplyChain.sol\":15215:15623  function shippedItemByCarParts_Distributor(uint _upc) public\r... */\n    tag_22:\n      callvalue\n        /* \"--CODEGEN--\":8:17   */\n      dup1\n        /* \"--CODEGEN--\":5:7   */\n      iszero\n      tag_145\n      jumpi\n        /* \"--CODEGEN--\":30:31   */\n      0x0\n        /* \"--CODEGEN--\":27:28   */\n      dup1\n        /* \"--CODEGEN--\":20:32   */\n      revert\n        /* \"--CODEGEN--\":5:7   */\n    tag_145:\n        /* \"contracts/SCbase/SupplyChain.sol\":15215:15623  function shippedItemByCarParts_Distributor(uint _upc) public\r... */\n      pop\n      tag_146\n      0x4\n      dup1\n      calldatasize\n      sub\n        /* \"--CODEGEN--\":13:15   */\n      0x20\n        /* \"--CODEGEN--\":8:11   */\n      dup2\n        /* \"--CODEGEN--\":5:16   */\n      lt\n        /* \"--CODEGEN--\":2:4   */\n      iszero\n      tag_147\n      jumpi\n        /* \"--CODEGEN--\":29:30   */\n      0x0\n        /* \"--CODEGEN--\":26:27   */\n      dup1\n        /* \"--CODEGEN--\":19:31   */\n      revert\n        /* \"--CODEGEN--\":2:4   */\n    tag_147:\n        /* \"contracts/SCbase/SupplyChain.sol\":15215:15623  function shippedItemByCarParts_Distributor(uint _upc) public\r... */\n      dup2\n      add\n      swap1\n      dup1\n      dup1\n      calldataload\n      swap1\n      0x20\n      add\n      swap1\n      swap3\n      swap2\n      swap1\n      pop\n      pop\n      pop\n      jump(tag_148)\n    tag_146:\n      stop\n        /* \"contracts/SCbase/SupplyChain.sol\":13969:14413  function sellItemByCarParts_Distributor(uint _upc, uint _price) public\r... */\n    tag_23:\n      callvalue\n        /* \"--CODEGEN--\":8:17   */\n      dup1\n        /* \"--CODEGEN--\":5:7   */\n      iszero\n      tag_149\n      jumpi\n        /* \"--CODEGEN--\":30:31   */\n      0x0\n        /* \"--CODEGEN--\":27:28   */\n      dup1\n        /* \"--CODEGEN--\":20:32   */\n      revert\n        /* \"--CODEGEN--\":5:7   */\n    tag_149:\n        /* \"contracts/SCbase/SupplyChain.sol\":13969:14413  function sellItemByCarParts_Distributor(uint _upc, uint _price) public\r... */\n      pop\n      tag_150\n      0x4\n      dup1\n      calldatasize\n      sub\n        /* \"--CODEGEN--\":13:15   */\n      0x40\n        /* \"--CODEGEN--\":8:11   */\n      dup2\n        /* \"--CODEGEN--\":5:16   */\n      lt\n        /* \"--CODEGEN--\":2:4   */\n      iszero\n      tag_151\n      jumpi\n        /* \"--CODEGEN--\":29:30   */\n      0x0\n        /* \"--CODEGEN--\":26:27   */\n      dup1\n        /* \"--CODEGEN--\":19:31   */\n      revert\n        /* \"--CODEGEN--\":2:4   */\n    tag_151:\n        /* \"contracts/SCbase/SupplyChain.sol\":13969:14413  function sellItemByCarParts_Distributor(uint _upc, uint _price) public\r... */\n      dup2\n      add\n      swap1\n      dup1\n      dup1\n      calldataload\n      swap1\n      0x20\n      add\n      swap1\n      swap3\n      swap2\n      swap1\n      dup1\n      calldataload\n      swap1\n      0x20\n      add\n      swap1\n      swap3\n      swap2\n      swap1\n      pop\n      pop\n      pop\n      jump(tag_152)\n    tag_150:\n      stop\n        /* \"contracts/SCbase/SupplyChain.sol\":16578:17234  function purchaseItemByCustomer(uint _upc) public payable\r... */\n    tag_24:\n      tag_153\n      0x4\n      dup1\n      calldatasize\n      sub\n        /* \"--CODEGEN--\":13:15   */\n      0x20\n        /* \"--CODEGEN--\":8:11   */\n      dup2\n        /* \"--CODEGEN--\":5:16   */\n      lt\n        /* \"--CODEGEN--\":2:4   */\n      iszero\n      tag_154\n      jumpi\n        /* \"--CODEGEN--\":29:30   */\n      0x0\n        /* \"--CODEGEN--\":26:27   */\n      dup1\n        /* \"--CODEGEN--\":19:31   */\n      revert\n        /* \"--CODEGEN--\":2:4   */\n    tag_154:\n        /* \"contracts/SCbase/SupplyChain.sol\":16578:17234  function purchaseItemByCustomer(uint _upc) public payable\r... */\n      dup2\n      add\n      swap1\n      dup1\n      dup1\n      calldataload\n      swap1\n      0x20\n      add\n      swap1\n      swap3\n      swap2\n      swap1\n      pop\n      pop\n      pop\n      jump(tag_155)\n    tag_153:\n      stop\n        /* \"contracts/SCbase/SupplyChain.sol\":10661:11735  function purchaseItemByCarParts_Distributor(uint _upc) public payable\r... */\n    tag_25:\n      tag_156\n      0x4\n      dup1\n      calldatasize\n      sub\n        /* \"--CODEGEN--\":13:15   */\n      0x20\n        /* \"--CODEGEN--\":8:11   */\n      dup2\n        /* \"--CODEGEN--\":5:16   */\n      lt\n        /* \"--CODEGEN--\":2:4   */\n      iszero\n      tag_157\n      jumpi\n        /* \"--CODEGEN--\":29:30   */\n      0x0\n        /* \"--CODEGEN--\":26:27   */\n      dup1\n        /* \"--CODEGEN--\":19:31   */\n      revert\n        /* \"--CODEGEN--\":2:4   */\n    tag_157:\n        /* \"contracts/SCbase/SupplyChain.sol\":10661:11735  function purchaseItemByCarParts_Distributor(uint _upc) public payable\r... */\n      dup2\n      add\n      swap1\n      dup1\n      dup1\n      calldataload\n      swap1\n      0x20\n      add\n      swap1\n      swap3\n      swap2\n      swap1\n      pop\n      pop\n      pop\n      jump(tag_158)\n    tag_156:\n      stop\n        /* \"contracts/SCaccesscontrol/CustomerRole.sol\":1076:1168  function addCustomer(address account) public onlyCustomer {\r... */\n    tag_26:\n      callvalue\n        /* \"--CODEGEN--\":8:17   */\n      dup1\n        /* \"--CODEGEN--\":5:7   */\n      iszero\n      tag_159\n      jumpi\n        /* \"--CODEGEN--\":30:31   */\n      0x0\n        /* \"--CODEGEN--\":27:28   */\n      dup1\n        /* \"--CODEGEN--\":20:32   */\n      revert\n        /* \"--CODEGEN--\":5:7   */\n    tag_159:\n        /* \"contracts/SCaccesscontrol/CustomerRole.sol\":1076:1168  function addCustomer(address account) public onlyCustomer {\r... */\n      pop\n      tag_160\n      0x4\n      dup1\n      calldatasize\n      sub\n        /* \"--CODEGEN--\":13:15   */\n      0x20\n        /* \"--CODEGEN--\":8:11   */\n      dup2\n        /* \"--CODEGEN--\":5:16   */\n      lt\n        /* \"--CODEGEN--\":2:4   */\n      iszero\n      tag_161\n      jumpi\n        /* \"--CODEGEN--\":29:30   */\n      0x0\n        /* \"--CODEGEN--\":26:27   */\n      dup1\n        /* \"--CODEGEN--\":19:31   */\n      revert\n        /* \"--CODEGEN--\":2:4   */\n    tag_161:\n        /* \"contracts/SCaccesscontrol/CustomerRole.sol\":1076:1168  function addCustomer(address account) public onlyCustomer {\r... */\n      dup2\n      add\n      swap1\n      dup1\n      dup1\n      calldataload\n      0xffffffffffffffffffffffffffffffffffffffff\n      and\n      swap1\n      0x20\n      add\n      swap1\n      swap3\n      swap2\n      swap1\n      pop\n      pop\n      pop\n      jump(tag_162)\n    tag_160:\n      stop\n        /* \"contracts/SCaccesscontrol/CustomerRole.sol\":1239:1326  function renounceCustomer(address account) public {\r... */\n    tag_27:\n      callvalue\n        /* \"--CODEGEN--\":8:17   */\n      dup1\n        /* \"--CODEGEN--\":5:7   */\n      iszero\n      tag_163\n      jumpi\n        /* \"--CODEGEN--\":30:31   */\n      0x0\n        /* \"--CODEGEN--\":27:28   */\n      dup1\n        /* \"--CODEGEN--\":20:32   */\n      revert\n        /* \"--CODEGEN--\":5:7   */\n    tag_163:\n        /* \"contracts/SCaccesscontrol/CustomerRole.sol\":1239:1326  function renounceCustomer(address account) public {\r... */\n      pop\n      tag_164\n      0x4\n      dup1\n      calldatasize\n      sub\n        /* \"--CODEGEN--\":13:15   */\n      0x20\n        /* \"--CODEGEN--\":8:11   */\n      dup2\n        /* \"--CODEGEN--\":5:16   */\n      lt\n        /* \"--CODEGEN--\":2:4   */\n      iszero\n      tag_165\n      jumpi\n        /* \"--CODEGEN--\":29:30   */\n      0x0\n        /* \"--CODEGEN--\":26:27   */\n      dup1\n        /* \"--CODEGEN--\":19:31   */\n      revert\n        /* \"--CODEGEN--\":2:4   */\n    tag_165:\n        /* \"contracts/SCaccesscontrol/CustomerRole.sol\":1239:1326  function renounceCustomer(address account) public {\r... */\n      dup2\n      add\n      swap1\n      dup1\n      dup1\n      calldataload\n      0xffffffffffffffffffffffffffffffffffffffff\n      and\n      swap1\n      0x20\n      add\n      swap1\n      swap3\n      swap2\n      swap1\n      pop\n      pop\n      pop\n      jump(tag_166)\n    tag_164:\n      stop\n        /* \"contracts/SCaccesscontrol/CarParts_ManufacturerRole.sol\":1017:1149  function isCarParts_Manufacturer(address account) public view returns (bool) {\r... */\n    tag_28:\n      callvalue\n        /* \"--CODEGEN--\":8:17   */\n      dup1\n        /* \"--CODEGEN--\":5:7   */\n      iszero\n      tag_167\n      jumpi\n        /* \"--CODEGEN--\":30:31   */\n      0x0\n        /* \"--CODEGEN--\":27:28   */\n      dup1\n        /* \"--CODEGEN--\":20:32   */\n      revert\n        /* \"--CODEGEN--\":5:7   */\n    tag_167:\n        /* \"contracts/SCaccesscontrol/CarParts_ManufacturerRole.sol\":1017:1149  function isCarParts_Manufacturer(address account) public view returns (bool) {\r... */\n      pop\n      tag_168\n      0x4\n      dup1\n      calldatasize\n      sub\n        /* \"--CODEGEN--\":13:15   */\n      0x20\n        /* \"--CODEGEN--\":8:11   */\n      dup2\n        /* \"--CODEGEN--\":5:16   */\n      lt\n        /* \"--CODEGEN--\":2:4   */\n      iszero\n      tag_169\n      jumpi\n        /* \"--CODEGEN--\":29:30   */\n      0x0\n        /* \"--CODEGEN--\":26:27   */\n      dup1\n        /* \"--CODEGEN--\":19:31   */\n      revert\n        /* \"--CODEGEN--\":2:4   */\n    tag_169:\n        /* \"contracts/SCaccesscontrol/CarParts_ManufacturerRole.sol\":1017:1149  function isCarParts_Manufacturer(address account) public view returns (bool) {\r... */\n      dup2\n      add\n      swap1\n      dup1\n      dup1\n      calldataload\n      0xffffffffffffffffffffffffffffffffffffffff\n      and\n      swap1\n      0x20\n      add\n      swap1\n      swap3\n      swap2\n      swap1\n      pop\n      pop\n      pop\n      jump(tag_170)\n    tag_168:\n      mload(0x40)\n      dup1\n      dup3\n      iszero\n      iszero\n      iszero\n      iszero\n      dup2\n      mstore\n      0x20\n      add\n      swap2\n      pop\n      pop\n      mload(0x40)\n      dup1\n      swap2\n      sub\n      swap1\n      return\n        /* \"contracts/SCbase/SupplyChain.sol\":13493:13876  function packageItemByCarParts_Distributor(uint _upc) public\r... */\n    tag_29:\n      callvalue\n        /* \"--CODEGEN--\":8:17   */\n      dup1\n        /* \"--CODEGEN--\":5:7   */\n      iszero\n      tag_171\n      jumpi\n        /* \"--CODEGEN--\":30:31   */\n      0x0\n        /* \"--CODEGEN--\":27:28   */\n      dup1\n        /* \"--CODEGEN--\":20:32   */\n      revert\n        /* \"--CODEGEN--\":5:7   */\n    tag_171:\n        /* \"contracts/SCbase/SupplyChain.sol\":13493:13876  function packageItemByCarParts_Distributor(uint _upc) public\r... */\n      pop\n      tag_172\n      0x4\n      dup1\n      calldatasize\n      sub\n        /* \"--CODEGEN--\":13:15   */\n      0x20\n        /* \"--CODEGEN--\":8:11   */\n      dup2\n        /* \"--CODEGEN--\":5:16   */\n      lt\n        /* \"--CODEGEN--\":2:4   */\n      iszero\n      tag_173\n      jumpi\n        /* \"--CODEGEN--\":29:30   */\n      0x0\n        /* \"--CODEGEN--\":26:27   */\n      dup1\n        /* \"--CODEGEN--\":19:31   */\n      revert\n        /* \"--CODEGEN--\":2:4   */\n    tag_173:\n        /* \"contracts/SCbase/SupplyChain.sol\":13493:13876  function packageItemByCarParts_Distributor(uint _upc) public\r... */\n      dup2\n      add\n      swap1\n      dup1\n      dup1\n      calldataload\n      swap1\n      0x20\n      add\n      swap1\n      swap3\n      swap2\n      swap1\n      pop\n      pop\n      pop\n      jump(tag_174)\n    tag_172:\n      stop\n        /* \"contracts/SCaccesscontrol/RetailerRole.sol\":1208:1283  function renounceRetailer() public {\r... */\n    tag_30:\n      callvalue\n        /* \"--CODEGEN--\":8:17   */\n      dup1\n        /* \"--CODEGEN--\":5:7   */\n      iszero\n      tag_175\n      jumpi\n        /* \"--CODEGEN--\":30:31   */\n      0x0\n        /* \"--CODEGEN--\":27:28   */\n      dup1\n        /* \"--CODEGEN--\":20:32   */\n      revert\n        /* \"--CODEGEN--\":5:7   */\n    tag_175:\n        /* \"contracts/SCaccesscontrol/RetailerRole.sol\":1208:1283  function renounceRetailer() public {\r... */\n      pop\n      tag_176\n      jump(tag_177)\n    tag_176:\n      stop\n        /* \"contracts/SCcore/Ownable.sol\":449:537  function ownerLookup() public view returns (address) {\r... */\n    tag_31:\n      callvalue\n        /* \"--CODEGEN--\":8:17   */\n      dup1\n        /* \"--CODEGEN--\":5:7   */\n      iszero\n      tag_178\n      jumpi\n        /* \"--CODEGEN--\":30:31   */\n      0x0\n        /* \"--CODEGEN--\":27:28   */\n      dup1\n        /* \"--CODEGEN--\":20:32   */\n      revert\n        /* \"--CODEGEN--\":5:7   */\n    tag_178:\n        /* \"contracts/SCcore/Ownable.sol\":449:537  function ownerLookup() public view returns (address) {\r... */\n      pop\n      tag_179\n      jump(tag_180)\n    tag_179:\n      mload(0x40)\n      dup1\n      dup3\n      0xffffffffffffffffffffffffffffffffffffffff\n      and\n      0xffffffffffffffffffffffffffffffffffffffff\n      and\n      dup2\n      mstore\n      0x20\n      add\n      swap2\n      pop\n      pop\n      mload(0x40)\n      dup1\n      swap2\n      sub\n      swap1\n      return\n        /* \"contracts/SCaccesscontrol/CarParts_DistributorRole.sol\":1000:1130  function isCarParts_Distributor(address account) public view returns (bool) {\r... */\n    tag_32:\n      callvalue\n        /* \"--CODEGEN--\":8:17   */\n      dup1\n        /* \"--CODEGEN--\":5:7   */\n      iszero\n      tag_181\n      jumpi\n        /* \"--CODEGEN--\":30:31   */\n      0x0\n        /* \"--CODEGEN--\":27:28   */\n      dup1\n        /* \"--CODEGEN--\":20:32   */\n      revert\n        /* \"--CODEGEN--\":5:7   */\n    tag_181:\n        /* \"contracts/SCaccesscontrol/CarParts_DistributorRole.sol\":1000:1130  function isCarParts_Distributor(address account) public view returns (bool) {\r... */\n      pop\n      tag_182\n      0x4\n      dup1\n      calldatasize\n      sub\n        /* \"--CODEGEN--\":13:15   */\n      0x20\n        /* \"--CODEGEN--\":8:11   */\n      dup2\n        /* \"--CODEGEN--\":5:16   */\n      lt\n        /* \"--CODEGEN--\":2:4   */\n      iszero\n      tag_183\n      jumpi\n        /* \"--CODEGEN--\":29:30   */\n      0x0\n        /* \"--CODEGEN--\":26:27   */\n      dup1\n        /* \"--CODEGEN--\":19:31   */\n      revert\n        /* \"--CODEGEN--\":2:4   */\n    tag_183:\n        /* \"contracts/SCaccesscontrol/CarParts_DistributorRole.sol\":1000:1130  function isCarParts_Distributor(address account) public view returns (bool) {\r... */\n      dup2\n      add\n      swap1\n      dup1\n      dup1\n      calldataload\n      0xffffffffffffffffffffffffffffffffffffffff\n      and\n      swap1\n      0x20\n      add\n      swap1\n      swap3\n      swap2\n      swap1\n      pop\n      pop\n      pop\n      jump(tag_184)\n    tag_182:\n      mload(0x40)\n      dup1\n      dup3\n      iszero\n      iszero\n      iszero\n      iszero\n      dup2\n      mstore\n      0x20\n      add\n      swap2\n      pop\n      pop\n      mload(0x40)\n      dup1\n      swap2\n      sub\n      swap1\n      return\n        /* \"contracts/SCcore/Ownable.sol\":1096:1205  function transferOwnership(address newOwner) public onlyOwner {\r... */\n    tag_33:\n      callvalue\n        /* \"--CODEGEN--\":8:17   */\n      dup1\n        /* \"--CODEGEN--\":5:7   */\n      iszero\n      tag_185\n      jumpi\n        /* \"--CODEGEN--\":30:31   */\n      0x0\n        /* \"--CODEGEN--\":27:28   */\n      dup1\n        /* \"--CODEGEN--\":20:32   */\n      revert\n        /* \"--CODEGEN--\":5:7   */\n    tag_185:\n        /* \"contracts/SCcore/Ownable.sol\":1096:1205  function transferOwnership(address newOwner) public onlyOwner {\r... */\n      pop\n      tag_186\n      0x4\n      dup1\n      calldatasize\n      sub\n        /* \"--CODEGEN--\":13:15   */\n      0x20\n        /* \"--CODEGEN--\":8:11   */\n      dup2\n        /* \"--CODEGEN--\":5:16   */\n      lt\n        /* \"--CODEGEN--\":2:4   */\n      iszero\n      tag_187\n      jumpi\n        /* \"--CODEGEN--\":29:30   */\n      0x0\n        /* \"--CODEGEN--\":26:27   */\n      dup1\n        /* \"--CODEGEN--\":19:31   */\n      revert\n        /* \"--CODEGEN--\":2:4   */\n    tag_187:\n        /* \"contracts/SCcore/Ownable.sol\":1096:1205  function transferOwnership(address newOwner) public onlyOwner {\r... */\n      dup2\n      add\n      swap1\n      dup1\n      dup1\n      calldataload\n      0xffffffffffffffffffffffffffffffffffffffff\n      and\n      swap1\n      0x20\n      add\n      swap1\n      swap3\n      swap2\n      swap1\n      pop\n      pop\n      pop\n      jump(tag_188)\n    tag_186:\n      stop\n        /* \"contracts/SCaccesscontrol/CarParts_ManufacturerRole.sol\":1441:1542  function renounceCarParts_Manufacturer() public {\r... */\n    tag_34:\n      callvalue\n        /* \"--CODEGEN--\":8:17   */\n      dup1\n        /* \"--CODEGEN--\":5:7   */\n      iszero\n      tag_189\n      jumpi\n        /* \"--CODEGEN--\":30:31   */\n      0x0\n        /* \"--CODEGEN--\":27:28   */\n      dup1\n        /* \"--CODEGEN--\":20:32   */\n      revert\n        /* \"--CODEGEN--\":5:7   */\n    tag_189:\n        /* \"contracts/SCaccesscontrol/CarParts_ManufacturerRole.sol\":1441:1542  function renounceCarParts_Manufacturer() public {\r... */\n      pop\n      tag_190\n      jump(tag_191)\n    tag_190:\n      stop\n        /* \"contracts/SCbase/SupplyChain.sol\":18972:19397  function fetchitemHistory(uint _upc) public view returns\r... */\n    tag_38:\n        /* \"contracts/SCbase/SupplyChain.sol\":19043:19096  uint blockCarParts_ManufacturerToCarParts_Distributor */\n      0x0\n        /* \"contracts/SCbase/SupplyChain.sol\":19105:19145  uint blockCarParts_DistributorToRetailer */\n      dup1\n        /* \"contracts/SCbase/SupplyChain.sol\":19154:19182  uint blockRetailerToCustomer */\n      0x0\n        /* \"contracts/SCbase/SupplyChain.sol\":19245:19268  Txblocks memory txblock */\n      tag_193\n      jump\t// in(tag_194)\n    tag_193:\n        /* \"contracts/SCbase/SupplyChain.sol\":19271:19283  itemsHistory */\n      0x9\n        /* \"contracts/SCbase/SupplyChain.sol\":19271:19289  itemsHistory[_upc] */\n      0x0\n        /* \"contracts/SCbase/SupplyChain.sol\":19284:19288  _upc */\n      dup7\n        /* \"contracts/SCbase/SupplyChain.sol\":19271:19289  itemsHistory[_upc] */\n      dup2\n      mstore\n      0x20\n      add\n      swap1\n      dup2\n      mstore\n      0x20\n      add\n      0x0\n      keccak256\n        /* \"contracts/SCbase/SupplyChain.sol\":19245:19289  Txblocks memory txblock = itemsHistory[_upc] */\n      0x60\n      mload(0x40)\n      swap1\n      dup2\n      add\n      0x40\n      mstore\n      swap1\n      dup2\n      0x0\n      dup3\n      add\n      sload\n      dup2\n      mstore\n      0x20\n      add\n      0x1\n      dup3\n      add\n      sload\n      dup2\n      mstore\n      0x20\n      add\n      0x2\n      dup3\n      add\n      sload\n      dup2\n      mstore\n      pop\n      pop\n      swap1\n      pop\n        /* \"contracts/SCbase/SupplyChain.sol\":19323:19330  txblock */\n      dup1\n        /* \"contracts/SCbase/SupplyChain.sol\":19323:19334  txblock.FTD */\n      0x0\n      add\n      mload\n        /* \"contracts/SCbase/SupplyChain.sol\":19345:19352  txblock */\n      dup2\n        /* \"contracts/SCbase/SupplyChain.sol\":19345:19356  txblock.DTR */\n      0x20\n      add\n      mload\n        /* \"contracts/SCbase/SupplyChain.sol\":19367:19374  txblock */\n      dup3\n        /* \"contracts/SCbase/SupplyChain.sol\":19367:19378  txblock.RTC */\n      0x40\n      add\n      mload\n        /* \"contracts/SCbase/SupplyChain.sol\":19298:19387  return\r... */\n      swap4\n      pop\n      swap4\n      pop\n      swap4\n      pop\n      pop\n        /* \"contracts/SCbase/SupplyChain.sol\":18972:19397  function fetchitemHistory(uint _upc) public view returns\r... */\n      swap2\n      swap4\n      swap1\n      swap3\n      pop\n      jump\t// out\n        /* \"contracts/SCaccesscontrol/CarParts_DistributorRole.sol\":1206:1334  function addCarParts_Distributor(address account) public onlyCarParts_Distributor {\r... */\n    tag_42:\n        /* \"contracts/SCaccesscontrol/CarParts_DistributorRole.sol\":877:911  isCarParts_Distributor(msg.sender) */\n      tag_196\n        /* \"contracts/SCaccesscontrol/CarParts_DistributorRole.sol\":900:910  msg.sender */\n      caller\n        /* \"contracts/SCaccesscontrol/CarParts_DistributorRole.sol\":877:899  isCarParts_Distributor */\n      tag_184\n        /* \"contracts/SCaccesscontrol/CarParts_DistributorRole.sol\":877:911  isCarParts_Distributor(msg.sender) */\n      jump\t// in\n    tag_196:\n        /* \"contracts/SCaccesscontrol/CarParts_DistributorRole.sol\":869:912  require(isCarParts_Distributor(msg.sender)) */\n      iszero\n      iszero\n      tag_197\n      jumpi\n      0x0\n      dup1\n      revert\n    tag_197:\n        /* \"contracts/SCaccesscontrol/CarParts_DistributorRole.sol\":1295:1328  _addCarParts_Distributor(account) */\n      tag_199\n        /* \"contracts/SCaccesscontrol/CarParts_DistributorRole.sol\":1320:1327  account */\n      dup2\n        /* \"contracts/SCaccesscontrol/CarParts_DistributorRole.sol\":1295:1319  _addCarParts_Distributor */\n      tag_200\n        /* \"contracts/SCaccesscontrol/CarParts_DistributorRole.sol\":1295:1328  _addCarParts_Distributor(account) */\n      jump\t// in\n    tag_199:\n        /* \"contracts/SCaccesscontrol/CarParts_DistributorRole.sol\":1206:1334  function addCarParts_Distributor(address account) public onlyCarParts_Distributor {\r... */\n      pop\n      jump\t// out\n        /* \"contracts/SCbase/SupplyChain.sol\":11863:12308  function shippedItemByCarParts_Manufacturer(uint _upc) public payable\r... */\n    tag_45:\n        /* \"contracts/SCaccesscontrol/CarParts_ManufacturerRole.sol\":892:927  isCarParts_Manufacturer(msg.sender) */\n      tag_202\n        /* \"contracts/SCaccesscontrol/CarParts_ManufacturerRole.sol\":916:926  msg.sender */\n      caller\n        /* \"contracts/SCaccesscontrol/CarParts_ManufacturerRole.sol\":892:915  isCarParts_Manufacturer */\n      tag_170\n        /* \"contracts/SCaccesscontrol/CarParts_ManufacturerRole.sol\":892:927  isCarParts_Manufacturer(msg.sender) */\n      jump\t// in\n    tag_202:\n        /* \"contracts/SCaccesscontrol/CarParts_ManufacturerRole.sol\":884:928  require(isCarParts_Manufacturer(msg.sender)) */\n      iszero\n      iszero\n      tag_203\n      jumpi\n      0x0\n      dup1\n      revert\n    tag_203:\n        /* \"contracts/SCbase/SupplyChain.sol\":12060:12064  _upc */\n      dup1\n        /* \"contracts/SCbase/SupplyChain.sol\":5348:5385  State.PurchasedByCarParts_Distributor */\n      0x2\n        /* \"contracts/SCbase/SupplyChain.sol\":5323:5385  items[_upc].itemState == State.PurchasedByCarParts_Distributor */\n      0xc\n      dup2\n      gt\n      iszero\n      tag_205\n      jumpi\n      invalid\n    tag_205:\n        /* \"contracts/SCbase/SupplyChain.sol\":5323:5328  items */\n      0x8\n        /* \"contracts/SCbase/SupplyChain.sol\":5323:5334  items[_upc] */\n      0x0\n        /* \"contracts/SCbase/SupplyChain.sol\":5329:5333  _upc */\n      dup4\n        /* \"contracts/SCbase/SupplyChain.sol\":5323:5334  items[_upc] */\n      dup2\n      mstore\n      0x20\n      add\n      swap1\n      dup2\n      mstore\n      0x20\n      add\n      0x0\n      keccak256\n        /* \"contracts/SCbase/SupplyChain.sol\":5323:5344  items[_upc].itemState */\n      0xc\n      add\n      0x0\n      swap1\n      sload\n      swap1\n      0x100\n      exp\n      swap1\n      div\n      0xff\n      and\n        /* \"contracts/SCbase/SupplyChain.sol\":5323:5385  items[_upc].itemState == State.PurchasedByCarParts_Distributor */\n      0xc\n      dup2\n      gt\n      iszero\n      tag_206\n      jumpi\n      invalid\n    tag_206:\n      eq\n        /* \"contracts/SCbase/SupplyChain.sol\":5315:5386  require(items[_upc].itemState == State.PurchasedByCarParts_Distributor) */\n      iszero\n      iszero\n      tag_207\n      jumpi\n      0x0\n      dup1\n      revert\n    tag_207:\n        /* \"contracts/SCbase/SupplyChain.sol\":12084:12089  items */\n      0x8\n        /* \"contracts/SCbase/SupplyChain.sol\":12084:12095  items[_upc] */\n      0x0\n        /* \"contracts/SCbase/SupplyChain.sol\":12090:12094  _upc */\n      dup4\n        /* \"contracts/SCbase/SupplyChain.sol\":12084:12095  items[_upc] */\n      dup2\n      mstore\n      0x20\n      add\n      swap1\n      dup2\n      mstore\n      0x20\n      add\n      0x0\n      keccak256\n        /* \"contracts/SCbase/SupplyChain.sol\":12084:12125  items[_upc].originCarParts_ManufacturerID */\n      0x3\n      add\n      0x0\n      swap1\n      sload\n      swap1\n      0x100\n      exp\n      swap1\n      div\n      0xffffffffffffffffffffffffffffffffffffffff\n      and\n        /* \"contracts/SCbase/SupplyChain.sol\":4430:4438  _address */\n      dup1\n        /* \"contracts/SCbase/SupplyChain.sol\":4416:4438  msg.sender == _address */\n      0xffffffffffffffffffffffffffffffffffffffff\n      and\n        /* \"contracts/SCbase/SupplyChain.sol\":4416:4426  msg.sender */\n      caller\n        /* \"contracts/SCbase/SupplyChain.sol\":4416:4438  msg.sender == _address */\n      0xffffffffffffffffffffffffffffffffffffffff\n      and\n      eq\n        /* \"contracts/SCbase/SupplyChain.sol\":4408:4439  require(msg.sender == _address) */\n      iszero\n      iszero\n      tag_209\n      jumpi\n      0x0\n      dup1\n      revert\n    tag_209:\n        /* \"contracts/SCbase/SupplyChain.sol\":12202:12238  State.ShippedByCarParts_Manufacturer */\n      0x3\n        /* \"contracts/SCbase/SupplyChain.sol\":12178:12183  items */\n      0x8\n        /* \"contracts/SCbase/SupplyChain.sol\":12178:12189  items[_upc] */\n      0x0\n        /* \"contracts/SCbase/SupplyChain.sol\":12184:12188  _upc */\n      dup6\n        /* \"contracts/SCbase/SupplyChain.sol\":12178:12189  items[_upc] */\n      dup2\n      mstore\n      0x20\n      add\n      swap1\n      dup2\n      mstore\n      0x20\n      add\n      0x0\n      keccak256\n        /* \"contracts/SCbase/SupplyChain.sol\":12178:12199  items[_upc].itemState */\n      0xc\n      add\n      0x0\n        /* \"contracts/SCbase/SupplyChain.sol\":12178:12238  items[_upc].itemState = State.ShippedByCarParts_Manufacturer */\n      0x100\n      exp\n      dup2\n      sload\n      dup2\n      0xff\n      mul\n      not\n      and\n      swap1\n      dup4\n      0xc\n      dup2\n      gt\n      iszero\n      tag_211\n      jumpi\n      invalid\n    tag_211:\n      mul\n      or\n      swap1\n      sstore\n      pop\n        /* \"contracts/SCbase/SupplyChain.sol\":12266:12302  ShippedByCarParts_Manufacturer(_upc) */\n      0xb20d2d5532c31dbf6d548e783f891fa0aca5a4d1ba547151308b89b3d2930d24\n        /* \"contracts/SCbase/SupplyChain.sol\":12297:12301  _upc */\n      dup4\n        /* \"contracts/SCbase/SupplyChain.sol\":12266:12302  ShippedByCarParts_Manufacturer(_upc) */\n      mload(0x40)\n      dup1\n      dup3\n      dup2\n      mstore\n      0x20\n      add\n      swap2\n      pop\n      pop\n      mload(0x40)\n      dup1\n      swap2\n      sub\n      swap1\n      log1\n        /* \"contracts/SCbase/SupplyChain.sol\":5393:5394  _ */\n      pop\n        /* \"contracts/SCaccesscontrol/CarParts_ManufacturerRole.sol\":935:936  _ */\n      pop\n        /* \"contracts/SCbase/SupplyChain.sol\":11863:12308  function shippedItemByCarParts_Manufacturer(uint _upc) public payable\r... */\n      pop\n      jump\t// out\n        /* \"contracts/SCbase/SupplyChain.sol\":10088:10572  function sellItemByCarParts_Manufacturer(uint _upc, uint _price) public\r... */\n    tag_49:\n        /* \"contracts/SCaccesscontrol/CarParts_ManufacturerRole.sol\":892:927  isCarParts_Manufacturer(msg.sender) */\n      tag_213\n        /* \"contracts/SCaccesscontrol/CarParts_ManufacturerRole.sol\":916:926  msg.sender */\n      caller\n        /* \"contracts/SCaccesscontrol/CarParts_ManufacturerRole.sol\":892:915  isCarParts_Manufacturer */\n      tag_170\n        /* \"contracts/SCaccesscontrol/CarParts_ManufacturerRole.sol\":892:927  isCarParts_Manufacturer(msg.sender) */\n      jump\t// in\n    tag_213:\n        /* \"contracts/SCaccesscontrol/CarParts_ManufacturerRole.sol\":884:928  require(isCarParts_Manufacturer(msg.sender)) */\n      iszero\n      iszero\n      tag_214\n      jumpi\n      0x0\n      dup1\n      revert\n    tag_214:\n        /* \"contracts/SCbase/SupplyChain.sol\":10287:10291  _upc */\n      dup2\n        /* \"contracts/SCbase/SupplyChain.sol\":5051:5087  State.ProduceByCarParts_Manufacturer */\n      0x0\n        /* \"contracts/SCbase/SupplyChain.sol\":5026:5087  items[_upc].itemState == State.ProduceByCarParts_Manufacturer */\n      0xc\n      dup2\n      gt\n      iszero\n      tag_216\n      jumpi\n      invalid\n    tag_216:\n        /* \"contracts/SCbase/SupplyChain.sol\":5026:5031  items */\n      0x8\n        /* \"contracts/SCbase/SupplyChain.sol\":5026:5037  items[_upc] */\n      0x0\n        /* \"contracts/SCbase/SupplyChain.sol\":5032:5036  _upc */\n      dup4\n        /* \"contracts/SCbase/SupplyChain.sol\":5026:5037  items[_upc] */\n      dup2\n      mstore\n      0x20\n      add\n      swap1\n      dup2\n      mstore\n      0x20\n      add\n      0x0\n      keccak256\n        /* \"contracts/SCbase/SupplyChain.sol\":5026:5047  items[_upc].itemState */\n      0xc\n      add\n      0x0\n      swap1\n      sload\n      swap1\n      0x100\n      exp\n      swap1\n      div\n      0xff\n      and\n        /* \"contracts/SCbase/SupplyChain.sol\":5026:5087  items[_upc].itemState == State.ProduceByCarParts_Manufacturer */\n      0xc\n      dup2\n      gt\n      iszero\n      tag_217\n      jumpi\n      invalid\n    tag_217:\n      eq\n        /* \"contracts/SCbase/SupplyChain.sol\":5018:5088  require(items[_upc].itemState == State.ProduceByCarParts_Manufacturer) */\n      iszero\n      iszero\n      tag_218\n      jumpi\n      0x0\n      dup1\n      revert\n    tag_218:\n        /* \"contracts/SCbase/SupplyChain.sol\":10350:10355  items */\n      0x8\n        /* \"contracts/SCbase/SupplyChain.sol\":10350:10361  items[_upc] */\n      0x0\n        /* \"contracts/SCbase/SupplyChain.sol\":10356:10360  _upc */\n      dup5\n        /* \"contracts/SCbase/SupplyChain.sol\":10350:10361  items[_upc] */\n      dup2\n      mstore\n      0x20\n      add\n      swap1\n      dup2\n      mstore\n      0x20\n      add\n      0x0\n      keccak256\n        /* \"contracts/SCbase/SupplyChain.sol\":10350:10369  items[_upc].ownerID */\n      0x2\n      add\n      0x0\n      swap1\n      sload\n      swap1\n      0x100\n      exp\n      swap1\n      div\n      0xffffffffffffffffffffffffffffffffffffffff\n      and\n        /* \"contracts/SCbase/SupplyChain.sol\":4430:4438  _address */\n      dup1\n        /* \"contracts/SCbase/SupplyChain.sol\":4416:4438  msg.sender == _address */\n      0xffffffffffffffffffffffffffffffffffffffff\n      and\n        /* \"contracts/SCbase/SupplyChain.sol\":4416:4426  msg.sender */\n      caller\n        /* \"contracts/SCbase/SupplyChain.sol\":4416:4438  msg.sender == _address */\n      0xffffffffffffffffffffffffffffffffffffffff\n      and\n      eq\n        /* \"contracts/SCbase/SupplyChain.sol\":4408:4439  require(msg.sender == _address) */\n      iszero\n      iszero\n      tag_220\n      jumpi\n      0x0\n      dup1\n      revert\n    tag_220:\n        /* \"contracts/SCbase/SupplyChain.sol\":10438:10474  State.ForSaleByCarParts_Manufacturer */\n      0x1\n        /* \"contracts/SCbase/SupplyChain.sol\":10414:10419  items */\n      0x8\n        /* \"contracts/SCbase/SupplyChain.sol\":10414:10425  items[_upc] */\n      0x0\n        /* \"contracts/SCbase/SupplyChain.sol\":10420:10424  _upc */\n      dup7\n        /* \"contracts/SCbase/SupplyChain.sol\":10414:10425  items[_upc] */\n      dup2\n      mstore\n      0x20\n      add\n      swap1\n      dup2\n      mstore\n      0x20\n      add\n      0x0\n      keccak256\n        /* \"contracts/SCbase/SupplyChain.sol\":10414:10435  items[_upc].itemState */\n      0xc\n      add\n      0x0\n        /* \"contracts/SCbase/SupplyChain.sol\":10414:10474  items[_upc].itemState = State.ForSaleByCarParts_Manufacturer */\n      0x100\n      exp\n      dup2\n      sload\n      dup2\n      0xff\n      mul\n      not\n      and\n      swap1\n      dup4\n      0xc\n      dup2\n      gt\n      iszero\n      tag_222\n      jumpi\n      invalid\n    tag_222:\n      mul\n      or\n      swap1\n      sstore\n      pop\n        /* \"contracts/SCbase/SupplyChain.sol\":10510:10516  _price */\n      dup3\n        /* \"contracts/SCbase/SupplyChain.sol\":10483:10488  items */\n      0x8\n        /* \"contracts/SCbase/SupplyChain.sol\":10483:10494  items[_upc] */\n      0x0\n        /* \"contracts/SCbase/SupplyChain.sol\":10489:10493  _upc */\n      dup7\n        /* \"contracts/SCbase/SupplyChain.sol\":10483:10494  items[_upc] */\n      dup2\n      mstore\n      0x20\n      add\n      swap1\n      dup2\n      mstore\n      0x20\n      add\n      0x0\n      keccak256\n        /* \"contracts/SCbase/SupplyChain.sol\":10483:10507  items[_upc].productPrice */\n      0xb\n      add\n        /* \"contracts/SCbase/SupplyChain.sol\":10483:10516  items[_upc].productPrice = _price */\n      dup2\n      swap1\n      sstore\n      pop\n        /* \"contracts/SCbase/SupplyChain.sol\":10530:10566  ForSaleByCarParts_Manufacturer(_upc) */\n      0x2285967d10dd8a9387bf9a505c30b7016db386768ff2d549d755008dca90c36d\n        /* \"contracts/SCbase/SupplyChain.sol\":10561:10565  _upc */\n      dup5\n        /* \"contracts/SCbase/SupplyChain.sol\":10530:10566  ForSaleByCarParts_Manufacturer(_upc) */\n      mload(0x40)\n      dup1\n      dup3\n      dup2\n      mstore\n      0x20\n      add\n      swap2\n      pop\n      pop\n      mload(0x40)\n      dup1\n      swap2\n      sub\n      swap1\n      log1\n        /* \"contracts/SCbase/SupplyChain.sol\":5095:5096  _ */\n      pop\n        /* \"contracts/SCaccesscontrol/CarParts_ManufacturerRole.sol\":935:936  _ */\n      pop\n        /* \"contracts/SCbase/SupplyChain.sol\":10088:10572  function sellItemByCarParts_Manufacturer(uint _upc, uint _price) public\r... */\n      pop\n      pop\n      jump\t// out\n        /* \"contracts/SCbase/SupplyChain.sol\":14498:15121  function purchaseItemByRetailer(uint _upc) public payable\r... */\n    tag_52:\n        /* \"contracts/SCaccesscontrol/RetailerRole.sol\":776:798  isRetailer(msg.sender) */\n      tag_224\n        /* \"contracts/SCaccesscontrol/RetailerRole.sol\":787:797  msg.sender */\n      caller\n        /* \"contracts/SCaccesscontrol/RetailerRole.sol\":776:786  isRetailer */\n      tag_102\n        /* \"contracts/SCaccesscontrol/RetailerRole.sol\":776:798  isRetailer(msg.sender) */\n      jump\t// in\n    tag_224:\n        /* \"contracts/SCaccesscontrol/RetailerRole.sol\":768:799  require(isRetailer(msg.sender)) */\n      iszero\n      iszero\n      tag_225\n      jumpi\n      0x0\n      dup1\n      revert\n    tag_225:\n        /* \"contracts/SCbase/SupplyChain.sol\":14655:14659  _upc */\n      dup1\n        /* \"contracts/SCbase/SupplyChain.sol\":6087:6122  State.ForSaleByCarParts_Distributor */\n      0x7\n        /* \"contracts/SCbase/SupplyChain.sol\":6062:6122  items[_upc].itemState == State.ForSaleByCarParts_Distributor */\n      0xc\n      dup2\n      gt\n      iszero\n      tag_227\n      jumpi\n      invalid\n    tag_227:\n        /* \"contracts/SCbase/SupplyChain.sol\":6062:6067  items */\n      0x8\n        /* \"contracts/SCbase/SupplyChain.sol\":6062:6073  items[_upc] */\n      0x0\n        /* \"contracts/SCbase/SupplyChain.sol\":6068:6072  _upc */\n      dup4\n        /* \"contracts/SCbase/SupplyChain.sol\":6062:6073  items[_upc] */\n      dup2\n      mstore\n      0x20\n      add\n      swap1\n      dup2\n      mstore\n      0x20\n      add\n      0x0\n      keccak256\n        /* \"contracts/SCbase/SupplyChain.sol\":6062:6083  items[_upc].itemState */\n      0xc\n      add\n      0x0\n      swap1\n      sload\n      swap1\n      0x100\n      exp\n      swap1\n      div\n      0xff\n      and\n        /* \"contracts/SCbase/SupplyChain.sol\":6062:6122  items[_upc].itemState == State.ForSaleByCarParts_Distributor */\n      0xc\n      dup2\n      gt\n      iszero\n      tag_228\n      jumpi\n      invalid\n    tag_228:\n      eq\n        /* \"contracts/SCbase/SupplyChain.sol\":6054:6123  require(items[_upc].itemState == State.ForSaleByCarParts_Distributor) */\n      iszero\n      iszero\n      tag_229\n      jumpi\n      0x0\n      dup1\n      revert\n    tag_229:\n        /* \"contracts/SCbase/SupplyChain.sol\":14677:14682  items */\n      0x8\n        /* \"contracts/SCbase/SupplyChain.sol\":14677:14688  items[_upc] */\n      0x0\n        /* \"contracts/SCbase/SupplyChain.sol\":14683:14687  _upc */\n      dup4\n        /* \"contracts/SCbase/SupplyChain.sol\":14677:14688  items[_upc] */\n      dup2\n      mstore\n      0x20\n      add\n      swap1\n      dup2\n      mstore\n      0x20\n      add\n      0x0\n      keccak256\n        /* \"contracts/SCbase/SupplyChain.sol\":14677:14701  items[_upc].productPrice */\n      0xb\n      add\n      sload\n        /* \"contracts/SCbase/SupplyChain.sol\":4608:4614  _price */\n      dup1\n        /* \"contracts/SCbase/SupplyChain.sol\":4595:4604  msg.value */\n      callvalue\n        /* \"contracts/SCbase/SupplyChain.sol\":4595:4614  msg.value >= _price */\n      lt\n      iszero\n        /* \"contracts/SCbase/SupplyChain.sol\":4587:4615  require(msg.value >= _price) */\n      iszero\n      iszero\n      tag_231\n      jumpi\n      0x0\n      dup1\n      revert\n    tag_231:\n        /* \"contracts/SCbase/SupplyChain.sol\":14719:14723  _upc */\n      dup3\n        /* \"contracts/SCbase/SupplyChain.sol\":14725:14735  msg.sender */\n      caller\n        /* \"contracts/SCbase/SupplyChain.sol\":4784:4795  uint _price */\n      0x0\n        /* \"contracts/SCbase/SupplyChain.sol\":4798:4803  items */\n      0x8\n        /* \"contracts/SCbase/SupplyChain.sol\":4798:4809  items[_upc] */\n      0x0\n        /* \"contracts/SCbase/SupplyChain.sol\":4804:4808  _upc */\n      dup5\n        /* \"contracts/SCbase/SupplyChain.sol\":4798:4809  items[_upc] */\n      dup2\n      mstore\n      0x20\n      add\n      swap1\n      dup2\n      mstore\n      0x20\n      add\n      0x0\n      keccak256\n        /* \"contracts/SCbase/SupplyChain.sol\":4798:4822  items[_upc].productPrice */\n      0xb\n      add\n      sload\n        /* \"contracts/SCbase/SupplyChain.sol\":4784:4822  uint _price = items[_upc].productPrice */\n      swap1\n      pop\n        /* \"contracts/SCbase/SupplyChain.sol\":4829:4849  uint  amountToReturn */\n      0x0\n        /* \"contracts/SCbase/SupplyChain.sol\":4864:4870  _price */\n      dup2\n        /* \"contracts/SCbase/SupplyChain.sol\":4852:4861  msg.value */\n      callvalue\n        /* \"contracts/SCbase/SupplyChain.sol\":4852:4870  msg.value - _price */\n      sub\n        /* \"contracts/SCbase/SupplyChain.sol\":4829:4870  uint  amountToReturn = msg.value - _price */\n      swap1\n      pop\n        /* \"contracts/SCbase/SupplyChain.sol\":4877:4890  addressToFund */\n      dup3\n        /* \"contracts/SCbase/SupplyChain.sol\":4877:4899  addressToFund.transfer */\n      0xffffffffffffffffffffffffffffffffffffffff\n      and\n        /* \"contracts/SCbase/SupplyChain.sol\":4877:4915  addressToFund.transfer(amountToReturn) */\n      0x8fc\n        /* \"contracts/SCbase/SupplyChain.sol\":4900:4914  amountToReturn */\n      dup3\n        /* \"contracts/SCbase/SupplyChain.sol\":4877:4915  addressToFund.transfer(amountToReturn) */\n      swap1\n      dup2\n      iszero\n      mul\n      swap1\n      mload(0x40)\n      0x0\n      mload(0x40)\n      dup1\n      dup4\n      sub\n      dup2\n      dup6\n      dup9\n      dup9\n      call\n      swap4\n      pop\n      pop\n      pop\n      pop\n      iszero\n        /* \"--CODEGEN--\":8:17   */\n      dup1\n        /* \"--CODEGEN--\":5:7   */\n      iszero\n      tag_233\n      jumpi\n        /* \"--CODEGEN--\":45:61   */\n      returndatasize\n        /* \"--CODEGEN--\":42:43   */\n      0x0\n        /* \"--CODEGEN--\":39:40   */\n      dup1\n        /* \"--CODEGEN--\":24:62   */\n      returndatacopy\n        /* \"--CODEGEN--\":77:93   */\n      returndatasize\n        /* \"--CODEGEN--\":74:75   */\n      0x0\n        /* \"--CODEGEN--\":67:94   */\n      revert\n        /* \"--CODEGEN--\":5:7   */\n    tag_233:\n        /* \"contracts/SCbase/SupplyChain.sol\":4877:4915  addressToFund.transfer(amountToReturn) */\n      pop\n        /* \"contracts/SCbase/SupplyChain.sol\":14749:14784  address payable ownerAddressPayable */\n      0x0\n        /* \"contracts/SCbase/SupplyChain.sol\":14787:14836  _make_payable(items[_upc].CarParts_distributorID) */\n      tag_235\n        /* \"contracts/SCbase/SupplyChain.sol\":14801:14806  items */\n      0x8\n        /* \"contracts/SCbase/SupplyChain.sol\":14801:14812  items[_upc] */\n      0x0\n        /* \"contracts/SCbase/SupplyChain.sol\":14807:14811  _upc */\n      dup11\n        /* \"contracts/SCbase/SupplyChain.sol\":14801:14812  items[_upc] */\n      dup2\n      mstore\n      0x20\n      add\n      swap1\n      dup2\n      mstore\n      0x20\n      add\n      0x0\n      keccak256\n        /* \"contracts/SCbase/SupplyChain.sol\":14801:14835  items[_upc].CarParts_distributorID */\n      0xc\n      add\n      0x1\n      swap1\n      sload\n      swap1\n      0x100\n      exp\n      swap1\n      div\n      0xffffffffffffffffffffffffffffffffffffffff\n      and\n        /* \"contracts/SCbase/SupplyChain.sol\":14787:14800  _make_payable */\n      tag_236\n        /* \"contracts/SCbase/SupplyChain.sol\":14787:14836  _make_payable(items[_upc].CarParts_distributorID) */\n      jump\t// in\n    tag_235:\n        /* \"contracts/SCbase/SupplyChain.sol\":14749:14836  address payable ownerAddressPayable = _make_payable(items[_upc].CarParts_distributorID) */\n      swap1\n      pop\n        /* \"contracts/SCbase/SupplyChain.sol\":14843:14862  ownerAddressPayable */\n      dup1\n        /* \"contracts/SCbase/SupplyChain.sol\":14843:14871  ownerAddressPayable.transfer */\n      0xffffffffffffffffffffffffffffffffffffffff\n      and\n        /* \"contracts/SCbase/SupplyChain.sol\":14843:14897  ownerAddressPayable.transfer(items[_upc].productPrice) */\n      0x8fc\n        /* \"contracts/SCbase/SupplyChain.sol\":14872:14877  items */\n      0x8\n        /* \"contracts/SCbase/SupplyChain.sol\":14872:14883  items[_upc] */\n      0x0\n        /* \"contracts/SCbase/SupplyChain.sol\":14878:14882  _upc */\n      dup12\n        /* \"contracts/SCbase/SupplyChain.sol\":14872:14883  items[_upc] */\n      dup2\n      mstore\n      0x20\n      add\n      swap1\n      dup2\n      mstore\n      0x20\n      add\n      0x0\n      keccak256\n        /* \"contracts/SCbase/SupplyChain.sol\":14872:14896  items[_upc].productPrice */\n      0xb\n      add\n      sload\n        /* \"contracts/SCbase/SupplyChain.sol\":14843:14897  ownerAddressPayable.transfer(items[_upc].productPrice) */\n      swap1\n      dup2\n      iszero\n      mul\n      swap1\n      mload(0x40)\n      0x0\n      mload(0x40)\n      dup1\n      dup4\n      sub\n      dup2\n      dup6\n      dup9\n      dup9\n      call\n      swap4\n      pop\n      pop\n      pop\n      pop\n      iszero\n        /* \"--CODEGEN--\":8:17   */\n      dup1\n        /* \"--CODEGEN--\":5:7   */\n      iszero\n      tag_237\n      jumpi\n        /* \"--CODEGEN--\":45:61   */\n      returndatasize\n        /* \"--CODEGEN--\":42:43   */\n      0x0\n        /* \"--CODEGEN--\":39:40   */\n      dup1\n        /* \"--CODEGEN--\":24:62   */\n      returndatacopy\n        /* \"--CODEGEN--\":77:93   */\n      returndatasize\n        /* \"--CODEGEN--\":74:75   */\n      0x0\n        /* \"--CODEGEN--\":67:94   */\n      revert\n        /* \"--CODEGEN--\":5:7   */\n    tag_237:\n        /* \"contracts/SCbase/SupplyChain.sol\":14843:14897  ownerAddressPayable.transfer(items[_upc].productPrice) */\n      pop\n        /* \"contracts/SCbase/SupplyChain.sol\":14926:14936  msg.sender */\n      caller\n        /* \"contracts/SCbase/SupplyChain.sol\":14904:14909  items */\n      0x8\n        /* \"contracts/SCbase/SupplyChain.sol\":14904:14915  items[_upc] */\n      0x0\n        /* \"contracts/SCbase/SupplyChain.sol\":14910:14914  _upc */\n      dup11\n        /* \"contracts/SCbase/SupplyChain.sol\":14904:14915  items[_upc] */\n      dup2\n      mstore\n      0x20\n      add\n      swap1\n      dup2\n      mstore\n      0x20\n      add\n      0x0\n      keccak256\n        /* \"contracts/SCbase/SupplyChain.sol\":14904:14923  items[_upc].ownerID */\n      0x2\n      add\n      0x0\n        /* \"contracts/SCbase/SupplyChain.sol\":14904:14936  items[_upc].ownerID = msg.sender */\n      0x100\n      exp\n      dup2\n      sload\n      dup2\n      0xffffffffffffffffffffffffffffffffffffffff\n      mul\n      not\n      and\n      swap1\n      dup4\n      0xffffffffffffffffffffffffffffffffffffffff\n      and\n      mul\n      or\n      swap1\n      sstore\n      pop\n        /* \"contracts/SCbase/SupplyChain.sol\":14968:14978  msg.sender */\n      caller\n        /* \"contracts/SCbase/SupplyChain.sol\":14943:14948  items */\n      0x8\n        /* \"contracts/SCbase/SupplyChain.sol\":14943:14954  items[_upc] */\n      0x0\n        /* \"contracts/SCbase/SupplyChain.sol\":14949:14953  _upc */\n      dup11\n        /* \"contracts/SCbase/SupplyChain.sol\":14943:14954  items[_upc] */\n      dup2\n      mstore\n      0x20\n      add\n      swap1\n      dup2\n      mstore\n      0x20\n      add\n      0x0\n      keccak256\n        /* \"contracts/SCbase/SupplyChain.sol\":14943:14965  items[_upc].retailerID */\n      0xd\n      add\n      0x0\n        /* \"contracts/SCbase/SupplyChain.sol\":14943:14978  items[_upc].retailerID = msg.sender */\n      0x100\n      exp\n      dup2\n      sload\n      dup2\n      0xffffffffffffffffffffffffffffffffffffffff\n      mul\n      not\n      and\n      swap1\n      dup4\n      0xffffffffffffffffffffffffffffffffffffffff\n      and\n      mul\n      or\n      swap1\n      sstore\n      pop\n        /* \"contracts/SCbase/SupplyChain.sol\":15009:15034  State.PurchasedByRetailer */\n      0x8\n        /* \"contracts/SCbase/SupplyChain.sol\":14985:14990  items */\n      dup1\n        /* \"contracts/SCbase/SupplyChain.sol\":14985:14996  items[_upc] */\n      0x0\n        /* \"contracts/SCbase/SupplyChain.sol\":14991:14995  _upc */\n      dup11\n        /* \"contracts/SCbase/SupplyChain.sol\":14985:14996  items[_upc] */\n      dup2\n      mstore\n      0x20\n      add\n      swap1\n      dup2\n      mstore\n      0x20\n      add\n      0x0\n      keccak256\n        /* \"contracts/SCbase/SupplyChain.sol\":14985:15006  items[_upc].itemState */\n      0xc\n      add\n      0x0\n        /* \"contracts/SCbase/SupplyChain.sol\":14985:15034  items[_upc].itemState = State.PurchasedByRetailer */\n      0x100\n      exp\n      dup2\n      sload\n      dup2\n      0xff\n      mul\n      not\n      and\n      swap1\n      dup4\n      0xc\n      dup2\n      gt\n      iszero\n      tag_238\n      jumpi\n      invalid\n    tag_238:\n      mul\n      or\n      swap1\n      sstore\n      pop\n        /* \"contracts/SCbase/SupplyChain.sol\":15066:15078  block.number */\n      number\n        /* \"contracts/SCbase/SupplyChain.sol\":15041:15053  itemsHistory */\n      0x9\n        /* \"contracts/SCbase/SupplyChain.sol\":15041:15059  itemsHistory[_upc] */\n      0x0\n        /* \"contracts/SCbase/SupplyChain.sol\":15054:15058  _upc */\n      dup11\n        /* \"contracts/SCbase/SupplyChain.sol\":15041:15059  itemsHistory[_upc] */\n      dup2\n      mstore\n      0x20\n      add\n      swap1\n      dup2\n      mstore\n      0x20\n      add\n      0x0\n      keccak256\n        /* \"contracts/SCbase/SupplyChain.sol\":15041:15063  itemsHistory[_upc].DTR */\n      0x1\n      add\n        /* \"contracts/SCbase/SupplyChain.sol\":15041:15078  itemsHistory[_upc].DTR = block.number */\n      dup2\n      swap1\n      sstore\n      pop\n        /* \"contracts/SCbase/SupplyChain.sol\":15090:15115  PurchasedByRetailer(_upc) */\n      0xaa7352d10146444c3afd9bd7fb0ae56b0a85e81139536bbec3f1f660fddd7be1\n        /* \"contracts/SCbase/SupplyChain.sol\":15110:15114  _upc */\n      dup9\n        /* \"contracts/SCbase/SupplyChain.sol\":15090:15115  PurchasedByRetailer(_upc) */\n      mload(0x40)\n      dup1\n      dup3\n      dup2\n      mstore\n      0x20\n      add\n      swap2\n      pop\n      pop\n      mload(0x40)\n      dup1\n      swap2\n      sub\n      swap1\n      log1\n        /* \"contracts/SCbase/SupplyChain.sol\":4922:4923  _ */\n      pop\n        /* \"contracts/SCbase/SupplyChain.sol\":4622:4623  _ */\n      pop\n      pop\n      pop\n      pop\n        /* \"contracts/SCbase/SupplyChain.sol\":6130:6131  _ */\n      pop\n        /* \"contracts/SCaccesscontrol/RetailerRole.sol\":806:807  _ */\n      pop\n        /* \"contracts/SCbase/SupplyChain.sol\":14498:15121  function purchaseItemByRetailer(uint _upc) public payable\r... */\n      pop\n      jump\t// out\n        /* \"contracts/SCaccesscontrol/CustomerRole.sol\":906:1012  function isCustomer(address account) public view returns (bool) {\r... */\n    tag_56:\n        /* \"contracts/SCaccesscontrol/CustomerRole.sol\":964:968  bool */\n      0x0\n        /* \"contracts/SCaccesscontrol/CustomerRole.sol\":984:1006  customers.has(account) */\n      tag_240\n        /* \"contracts/SCaccesscontrol/CustomerRole.sol\":998:1005  account */\n      dup3\n        /* \"contracts/SCaccesscontrol/CustomerRole.sol\":984:993  customers */\n      0x4\n        /* \"contracts/SCaccesscontrol/CustomerRole.sol\":984:997  customers.has */\n      tag_241\n      swap1\n        /* \"contracts/SCaccesscontrol/CustomerRole.sol\":984:1006  customers.has(account) */\n      swap2\n      swap1\n      0xffffffff\n      and\n      jump\t// in\n    tag_240:\n        /* \"contracts/SCaccesscontrol/CustomerRole.sol\":977:1006  return customers.has(account) */\n      swap1\n      pop\n        /* \"contracts/SCaccesscontrol/CustomerRole.sol\":906:1012  function isCustomer(address account) public view returns (bool) {\r... */\n      swap2\n      swap1\n      pop\n      jump\t// out\n        /* \"contracts/SCbase/SupplyChain.sol\":12404:12806  function receivedItemByCarParts_Distributor(uint _upc) public\r... */\n    tag_60:\n        /* \"contracts/SCaccesscontrol/CarParts_DistributorRole.sol\":877:911  isCarParts_Distributor(msg.sender) */\n      tag_243\n        /* \"contracts/SCaccesscontrol/CarParts_DistributorRole.sol\":900:910  msg.sender */\n      caller\n        /* \"contracts/SCaccesscontrol/CarParts_DistributorRole.sol\":877:899  isCarParts_Distributor */\n      tag_184\n        /* \"contracts/SCaccesscontrol/CarParts_DistributorRole.sol\":877:911  isCarParts_Distributor(msg.sender) */\n      jump\t// in\n    tag_243:\n        /* \"contracts/SCaccesscontrol/CarParts_DistributorRole.sol\":869:912  require(isCarParts_Distributor(msg.sender)) */\n      iszero\n      iszero\n      tag_244\n      jumpi\n      0x0\n      dup1\n      revert\n    tag_244:\n        /* \"contracts/SCbase/SupplyChain.sol\":12590:12594  _upc */\n      dup1\n        /* \"contracts/SCbase/SupplyChain.sol\":5497:5533  State.ShippedByCarParts_Manufacturer */\n      0x3\n        /* \"contracts/SCbase/SupplyChain.sol\":5472:5533  items[_upc].itemState == State.ShippedByCarParts_Manufacturer */\n      0xc\n      dup2\n      gt\n      iszero\n      tag_246\n      jumpi\n      invalid\n    tag_246:\n        /* \"contracts/SCbase/SupplyChain.sol\":5472:5477  items */\n      0x8\n        /* \"contracts/SCbase/SupplyChain.sol\":5472:5483  items[_upc] */\n      0x0\n        /* \"contracts/SCbase/SupplyChain.sol\":5478:5482  _upc */\n      dup4\n        /* \"contracts/SCbase/SupplyChain.sol\":5472:5483  items[_upc] */\n      dup2\n      mstore\n      0x20\n      add\n      swap1\n      dup2\n      mstore\n      0x20\n      add\n      0x0\n      keccak256\n        /* \"contracts/SCbase/SupplyChain.sol\":5472:5493  items[_upc].itemState */\n      0xc\n      add\n      0x0\n      swap1\n      sload\n      swap1\n      0x100\n      exp\n      swap1\n      div\n      0xff\n      and\n        /* \"contracts/SCbase/SupplyChain.sol\":5472:5533  items[_upc].itemState == State.ShippedByCarParts_Manufacturer */\n      0xc\n      dup2\n      gt\n      iszero\n      tag_247\n      jumpi\n      invalid\n    tag_247:\n      eq\n        /* \"contracts/SCbase/SupplyChain.sol\":5464:5534  require(items[_upc].itemState == State.ShippedByCarParts_Manufacturer) */\n      iszero\n      iszero\n      tag_248\n      jumpi\n      0x0\n      dup1\n      revert\n    tag_248:\n        /* \"contracts/SCbase/SupplyChain.sol\":12614:12619  items */\n      0x8\n        /* \"contracts/SCbase/SupplyChain.sol\":12614:12625  items[_upc] */\n      0x0\n        /* \"contracts/SCbase/SupplyChain.sol\":12620:12624  _upc */\n      dup4\n        /* \"contracts/SCbase/SupplyChain.sol\":12614:12625  items[_upc] */\n      dup2\n      mstore\n      0x20\n      add\n      swap1\n      dup2\n      mstore\n      0x20\n      add\n      0x0\n      keccak256\n        /* \"contracts/SCbase/SupplyChain.sol\":12614:12633  items[_upc].ownerID */\n      0x2\n      add\n      0x0\n      swap1\n      sload\n      swap1\n      0x100\n      exp\n      swap1\n      div\n      0xffffffffffffffffffffffffffffffffffffffff\n      and\n        /* \"contracts/SCbase/SupplyChain.sol\":4430:4438  _address */\n      dup1\n        /* \"contracts/SCbase/SupplyChain.sol\":4416:4438  msg.sender == _address */\n      0xffffffffffffffffffffffffffffffffffffffff\n      and\n        /* \"contracts/SCbase/SupplyChain.sol\":4416:4426  msg.sender */\n      caller\n        /* \"contracts/SCbase/SupplyChain.sol\":4416:4438  msg.sender == _address */\n      0xffffffffffffffffffffffffffffffffffffffff\n      and\n      eq\n        /* \"contracts/SCbase/SupplyChain.sol\":4408:4439  require(msg.sender == _address) */\n      iszero\n      iszero\n      tag_250\n      jumpi\n      0x0\n      dup1\n      revert\n    tag_250:\n        /* \"contracts/SCbase/SupplyChain.sol\":12700:12736  State.ReceivedByCarParts_Distributor */\n      0x4\n        /* \"contracts/SCbase/SupplyChain.sol\":12676:12681  items */\n      0x8\n        /* \"contracts/SCbase/SupplyChain.sol\":12676:12687  items[_upc] */\n      0x0\n        /* \"contracts/SCbase/SupplyChain.sol\":12682:12686  _upc */\n      dup6\n        /* \"contracts/SCbase/SupplyChain.sol\":12676:12687  items[_upc] */\n      dup2\n      mstore\n      0x20\n      add\n      swap1\n      dup2\n      mstore\n      0x20\n      add\n      0x0\n      keccak256\n        /* \"contracts/SCbase/SupplyChain.sol\":12676:12697  items[_upc].itemState */\n      0xc\n      add\n      0x0\n        /* \"contracts/SCbase/SupplyChain.sol\":12676:12736  items[_upc].itemState = State.ReceivedByCarParts_Distributor */\n      0x100\n      exp\n      dup2\n      sload\n      dup2\n      0xff\n      mul\n      not\n      and\n      swap1\n      dup4\n      0xc\n      dup2\n      gt\n      iszero\n      tag_252\n      jumpi\n      invalid\n    tag_252:\n      mul\n      or\n      swap1\n      sstore\n      pop\n        /* \"contracts/SCbase/SupplyChain.sol\":12764:12800  ReceivedByCarParts_Distributor(_upc) */\n      0x20daedc6e037d61e8601e0ae769b377abaeb757c2c96222ebc681c2905c75fb9\n        /* \"contracts/SCbase/SupplyChain.sol\":12795:12799  _upc */\n      dup4\n        /* \"contracts/SCbase/SupplyChain.sol\":12764:12800  ReceivedByCarParts_Distributor(_upc) */\n      mload(0x40)\n      dup1\n      dup3\n      dup2\n      mstore\n      0x20\n      add\n      swap2\n      pop\n      pop\n      mload(0x40)\n      dup1\n      swap2\n      sub\n      swap1\n      log1\n        /* \"contracts/SCbase/SupplyChain.sol\":5541:5542  _ */\n      pop\n        /* \"contracts/SCaccesscontrol/CarParts_DistributorRole.sol\":919:920  _ */\n      pop\n        /* \"contracts/SCbase/SupplyChain.sol\":12404:12806  function receivedItemByCarParts_Distributor(uint _upc) public\r... */\n      pop\n      jump\t// out\n        /* \"contracts/SCbase/SupplyChain.sol\":15709:16040  function receivedItemByRetailer(uint _upc) public\r... */\n    tag_64:\n        /* \"contracts/SCaccesscontrol/RetailerRole.sol\":776:798  isRetailer(msg.sender) */\n      tag_254\n        /* \"contracts/SCaccesscontrol/RetailerRole.sol\":787:797  msg.sender */\n      caller\n        /* \"contracts/SCaccesscontrol/RetailerRole.sol\":776:786  isRetailer */\n      tag_102\n        /* \"contracts/SCaccesscontrol/RetailerRole.sol\":776:798  isRetailer(msg.sender) */\n      jump\t// in\n    tag_254:\n        /* \"contracts/SCaccesscontrol/RetailerRole.sol\":768:799  require(isRetailer(msg.sender)) */\n      iszero\n      iszero\n      tag_255\n      jumpi\n      0x0\n      dup1\n      revert\n    tag_255:\n        /* \"contracts/SCbase/SupplyChain.sol\":15858:15862  _upc */\n      dup1\n        /* \"contracts/SCbase/SupplyChain.sol\":6235:6270  State.ShippedByCarParts_Distributor */\n      0x9\n        /* \"contracts/SCbase/SupplyChain.sol\":6210:6270  items[_upc].itemState == State.ShippedByCarParts_Distributor */\n      0xc\n      dup2\n      gt\n      iszero\n      tag_257\n      jumpi\n      invalid\n    tag_257:\n        /* \"contracts/SCbase/SupplyChain.sol\":6210:6215  items */\n      0x8\n        /* \"contracts/SCbase/SupplyChain.sol\":6210:6221  items[_upc] */\n      0x0\n        /* \"contracts/SCbase/SupplyChain.sol\":6216:6220  _upc */\n      dup4\n        /* \"contracts/SCbase/SupplyChain.sol\":6210:6221  items[_upc] */\n      dup2\n      mstore\n      0x20\n      add\n      swap1\n      dup2\n      mstore\n      0x20\n      add\n      0x0\n      keccak256\n        /* \"contracts/SCbase/SupplyChain.sol\":6210:6231  items[_upc].itemState */\n      0xc\n      add\n      0x0\n      swap1\n      sload\n      swap1\n      0x100\n      exp\n      swap1\n      div\n      0xff\n      and\n        /* \"contracts/SCbase/SupplyChain.sol\":6210:6270  items[_upc].itemState == State.ShippedByCarParts_Distributor */\n      0xc\n      dup2\n      gt\n      iszero\n      tag_258\n      jumpi\n      invalid\n    tag_258:\n      eq\n        /* \"contracts/SCbase/SupplyChain.sol\":6202:6271  require(items[_upc].itemState == State.ShippedByCarParts_Distributor) */\n      iszero\n      iszero\n      tag_259\n      jumpi\n      0x0\n      dup1\n      revert\n    tag_259:\n        /* \"contracts/SCbase/SupplyChain.sol\":15882:15887  items */\n      0x8\n        /* \"contracts/SCbase/SupplyChain.sol\":15882:15893  items[_upc] */\n      0x0\n        /* \"contracts/SCbase/SupplyChain.sol\":15888:15892  _upc */\n      dup4\n        /* \"contracts/SCbase/SupplyChain.sol\":15882:15893  items[_upc] */\n      dup2\n      mstore\n      0x20\n      add\n      swap1\n      dup2\n      mstore\n      0x20\n      add\n      0x0\n      keccak256\n        /* \"contracts/SCbase/SupplyChain.sol\":15882:15901  items[_upc].ownerID */\n      0x2\n      add\n      0x0\n      swap1\n      sload\n      swap1\n      0x100\n      exp\n      swap1\n      div\n      0xffffffffffffffffffffffffffffffffffffffff\n      and\n        /* \"contracts/SCbase/SupplyChain.sol\":4430:4438  _address */\n      dup1\n        /* \"contracts/SCbase/SupplyChain.sol\":4416:4438  msg.sender == _address */\n      0xffffffffffffffffffffffffffffffffffffffff\n      and\n        /* \"contracts/SCbase/SupplyChain.sol\":4416:4426  msg.sender */\n      caller\n        /* \"contracts/SCbase/SupplyChain.sol\":4416:4438  msg.sender == _address */\n      0xffffffffffffffffffffffffffffffffffffffff\n      and\n      eq\n        /* \"contracts/SCbase/SupplyChain.sol\":4408:4439  require(msg.sender == _address) */\n      iszero\n      iszero\n      tag_261\n      jumpi\n      0x0\n      dup1\n      revert\n    tag_261:\n        /* \"contracts/SCbase/SupplyChain.sol\":15972:15996  State.ReceivedByRetailer */\n      0xa\n        /* \"contracts/SCbase/SupplyChain.sol\":15948:15953  items */\n      0x8\n        /* \"contracts/SCbase/SupplyChain.sol\":15948:15959  items[_upc] */\n      0x0\n        /* \"contracts/SCbase/SupplyChain.sol\":15954:15958  _upc */\n      dup6\n        /* \"contracts/SCbase/SupplyChain.sol\":15948:15959  items[_upc] */\n      dup2\n      mstore\n      0x20\n      add\n      swap1\n      dup2\n      mstore\n      0x20\n      add\n      0x0\n      keccak256\n        /* \"contracts/SCbase/SupplyChain.sol\":15948:15969  items[_upc].itemState */\n      0xc\n      add\n      0x0\n        /* \"contracts/SCbase/SupplyChain.sol\":15948:15996  items[_upc].itemState = State.ReceivedByRetailer */\n      0x100\n      exp\n      dup2\n      sload\n      dup2\n      0xff\n      mul\n      not\n      and\n      swap1\n      dup4\n      0xc\n      dup2\n      gt\n      iszero\n      tag_263\n      jumpi\n      invalid\n    tag_263:\n      mul\n      or\n      swap1\n      sstore\n      pop\n        /* \"contracts/SCbase/SupplyChain.sol\":16010:16034  ReceivedByRetailer(_upc) */\n      0x322f34e90f2269750b3e28178631d975cc678db36f21098fe548b7f755ce0bd0\n        /* \"contracts/SCbase/SupplyChain.sol\":16029:16033  _upc */\n      dup4\n        /* \"contracts/SCbase/SupplyChain.sol\":16010:16034  ReceivedByRetailer(_upc) */\n      mload(0x40)\n      dup1\n      dup3\n      dup2\n      mstore\n      0x20\n      add\n      swap2\n      pop\n      pop\n      mload(0x40)\n      dup1\n      swap2\n      sub\n      swap1\n      log1\n        /* \"contracts/SCbase/SupplyChain.sol\":6278:6279  _ */\n      pop\n        /* \"contracts/SCaccesscontrol/RetailerRole.sol\":806:807  _ */\n      pop\n        /* \"contracts/SCbase/SupplyChain.sol\":15709:16040  function receivedItemByRetailer(uint _upc) public\r... */\n      pop\n      jump\t// out\n        /* \"contracts/SCaccesscontrol/CarParts_ManufacturerRole.sol\":1226:1357  function addCarParts_Manufacturer(address account) public onlyCarParts_Manufacturer {\r... */\n    tag_68:\n        /* \"contracts/SCaccesscontrol/CarParts_ManufacturerRole.sol\":892:927  isCarParts_Manufacturer(msg.sender) */\n      tag_265\n        /* \"contracts/SCaccesscontrol/CarParts_ManufacturerRole.sol\":916:926  msg.sender */\n      caller\n        /* \"contracts/SCaccesscontrol/CarParts_ManufacturerRole.sol\":892:915  isCarParts_Manufacturer */\n      tag_170\n        /* \"contracts/SCaccesscontrol/CarParts_ManufacturerRole.sol\":892:927  isCarParts_Manufacturer(msg.sender) */\n      jump\t// in\n    tag_265:\n        /* \"contracts/SCaccesscontrol/CarParts_ManufacturerRole.sol\":884:928  require(isCarParts_Manufacturer(msg.sender)) */\n      iszero\n      iszero\n      tag_266\n      jumpi\n      0x0\n      dup1\n      revert\n    tag_266:\n        /* \"contracts/SCaccesscontrol/CarParts_ManufacturerRole.sol\":1317:1351  _addCarParts_Manufacturer(account) */\n      tag_268\n        /* \"contracts/SCaccesscontrol/CarParts_ManufacturerRole.sol\":1343:1350  account */\n      dup2\n        /* \"contracts/SCaccesscontrol/CarParts_ManufacturerRole.sol\":1317:1342  _addCarParts_Manufacturer */\n      tag_269\n        /* \"contracts/SCaccesscontrol/CarParts_ManufacturerRole.sol\":1317:1351  _addCarParts_Manufacturer(account) */\n      jump\t// in\n    tag_268:\n        /* \"contracts/SCaccesscontrol/CarParts_ManufacturerRole.sol\":1226:1357  function addCarParts_Manufacturer(address account) public onlyCarParts_Manufacturer {\r... */\n      pop\n      jump\t// out\n        /* \"contracts/SCbase/SupplyChain.sol\":6952:7129  function kill() public {\r... */\n    tag_71:\n        /* \"contracts/SCbase/SupplyChain.sol\":7000:7005  owner */\n      0x5\n      0x0\n      swap1\n      sload\n      swap1\n      0x100\n      exp\n      swap1\n      div\n      0xffffffffffffffffffffffffffffffffffffffff\n      and\n        /* \"contracts/SCbase/SupplyChain.sol\":6986:7005  msg.sender == owner */\n      0xffffffffffffffffffffffffffffffffffffffff\n      and\n        /* \"contracts/SCbase/SupplyChain.sol\":6986:6996  msg.sender */\n      caller\n        /* \"contracts/SCbase/SupplyChain.sol\":6986:7005  msg.sender == owner */\n      0xffffffffffffffffffffffffffffffffffffffff\n      and\n      eq\n        /* \"contracts/SCbase/SupplyChain.sol\":6982:7124  if (msg.sender == owner) {\r... */\n      iszero\n      tag_271\n      jumpi\n        /* \"contracts/SCbase/SupplyChain.sol\":7016:7051  address payable ownerAddressPayable */\n      0x0\n        /* \"contracts/SCbase/SupplyChain.sol\":7054:7074  _make_payable(owner) */\n      tag_272\n        /* \"contracts/SCbase/SupplyChain.sol\":7068:7073  owner */\n      0x5\n      0x0\n      swap1\n      sload\n      swap1\n      0x100\n      exp\n      swap1\n      div\n      0xffffffffffffffffffffffffffffffffffffffff\n      and\n        /* \"contracts/SCbase/SupplyChain.sol\":7054:7067  _make_payable */\n      tag_236\n        /* \"contracts/SCbase/SupplyChain.sol\":7054:7074  _make_payable(owner) */\n      jump\t// in\n    tag_272:\n        /* \"contracts/SCbase/SupplyChain.sol\":7016:7074  address payable ownerAddressPayable = _make_payable(owner) */\n      swap1\n      pop\n        /* \"contracts/SCbase/SupplyChain.sol\":7096:7115  ownerAddressPayable */\n      dup1\n        /* \"contracts/SCbase/SupplyChain.sol\":7083:7116  selfdestruct(ownerAddressPayable) */\n      0xffffffffffffffffffffffffffffffffffffffff\n      and\n      selfdestruct\n        /* \"contracts/SCbase/SupplyChain.sol\":6982:7124  if (msg.sender == owner) {\r... */\n    tag_271:\n        /* \"contracts/SCbase/SupplyChain.sol\":6952:7129  function kill() public {\r... */\n      jump\t// out\n        /* \"contracts/SCbase/SupplyChain.sol\":7406:10002  function produceItemByCarParts_Manufacturer(uint _upc, string memory _originFactoryName, string memory _originFactoryInformation, string memory _originFactoryLatitude, string memory _originFactoryLongitude, string memory _productNotes, uint _price) public\r... */\n    tag_90:\n        /* \"contracts/SCaccesscontrol/CarParts_ManufacturerRole.sol\":892:927  isCarParts_Manufacturer(msg.sender) */\n      tag_274\n        /* \"contracts/SCaccesscontrol/CarParts_ManufacturerRole.sol\":916:926  msg.sender */\n      caller\n        /* \"contracts/SCaccesscontrol/CarParts_ManufacturerRole.sol\":892:915  isCarParts_Manufacturer */\n      tag_170\n        /* \"contracts/SCaccesscontrol/CarParts_ManufacturerRole.sol\":892:927  isCarParts_Manufacturer(msg.sender) */\n      jump\t// in\n    tag_274:\n        /* \"contracts/SCaccesscontrol/CarParts_ManufacturerRole.sol\":884:928  require(isCarParts_Manufacturer(msg.sender)) */\n      iszero\n      iszero\n      tag_275\n      jumpi\n      0x0\n      dup1\n      revert\n    tag_275:\n        /* \"contracts/SCbase/SupplyChain.sol\":7763:7793  address CarParts_distributorID */\n      0x0\n        /* \"contracts/SCbase/SupplyChain.sol\":7840:7858  address retailerID */\n      dup1\n        /* \"contracts/SCbase/SupplyChain.sol\":7893:7911  address customerID */\n      0x0\n        /* \"contracts/SCbase/SupplyChain.sol\":7946:7968  Item memory newProduce */\n      tag_277\n      jump\t// in(tag_278)\n    tag_277:\n        /* \"contracts/SCbase/SupplyChain.sol\":8030:8033  sku */\n      sload(0x7)\n        /* \"contracts/SCbase/SupplyChain.sol\":8013:8023  newProduce */\n      dup2\n        /* \"contracts/SCbase/SupplyChain.sol\":8013:8027  newProduce.sku */\n      0x0\n      add\n        /* \"contracts/SCbase/SupplyChain.sol\":8013:8033  newProduce.sku = sku */\n      dup2\n      dup2\n      mstore\n      pop\n      pop\n        /* \"contracts/SCbase/SupplyChain.sol\":8086:8090  _upc */\n      dup11\n        /* \"contracts/SCbase/SupplyChain.sol\":8069:8079  newProduce */\n      dup2\n        /* \"contracts/SCbase/SupplyChain.sol\":8069:8083  newProduce.upc */\n      0x20\n      add\n        /* \"contracts/SCbase/SupplyChain.sol\":8069:8090  newProduce.upc = _upc */\n      dup2\n      dup2\n      mstore\n      pop\n      pop\n        /* \"contracts/SCbase/SupplyChain.sol\":8244:8254  msg.sender */\n      caller\n        /* \"contracts/SCbase/SupplyChain.sol\":8223:8233  newProduce */\n      dup2\n        /* \"contracts/SCbase/SupplyChain.sol\":8223:8241  newProduce.ownerID */\n      0x40\n      add\n        /* \"contracts/SCbase/SupplyChain.sol\":8223:8254  newProduce.ownerID = msg.sender */\n      swap1\n      0xffffffffffffffffffffffffffffffffffffffff\n      and\n      swap1\n      dup2\n      0xffffffffffffffffffffffffffffffffffffffff\n      and\n      dup2\n      mstore\n      pop\n      pop\n        /* \"contracts/SCbase/SupplyChain.sol\":8393:8403  msg.sender */\n      caller\n        /* \"contracts/SCbase/SupplyChain.sol\":8350:8360  newProduce */\n      dup2\n        /* \"contracts/SCbase/SupplyChain.sol\":8350:8390  newProduce.originCarParts_ManufacturerID */\n      0x60\n      add\n        /* \"contracts/SCbase/SupplyChain.sol\":8350:8403  newProduce.originCarParts_ManufacturerID = msg.sender */\n      swap1\n      0xffffffffffffffffffffffffffffffffffffffff\n      and\n      swap1\n      dup2\n      0xffffffffffffffffffffffffffffffffffffffff\n      and\n      dup2\n      mstore\n      pop\n      pop\n        /* \"contracts/SCbase/SupplyChain.sol\":8499:8517  _originFactoryName */\n      dup10\n        /* \"contracts/SCbase/SupplyChain.sol\":8468:8478  newProduce */\n      dup2\n        /* \"contracts/SCbase/SupplyChain.sol\":8468:8496  newProduce.originFactoryName */\n      0x80\n      add\n        /* \"contracts/SCbase/SupplyChain.sol\":8468:8517  newProduce.originFactoryName = _originFactoryName */\n      dup2\n      swap1\n      mstore\n      pop\n        /* \"contracts/SCbase/SupplyChain.sol\":8593:8618  _originFactoryInformation */\n      dup9\n        /* \"contracts/SCbase/SupplyChain.sol\":8555:8565  newProduce */\n      dup2\n        /* \"contracts/SCbase/SupplyChain.sol\":8555:8590  newProduce.originFactoryInformation */\n      0xa0\n      add\n        /* \"contracts/SCbase/SupplyChain.sol\":8555:8618  newProduce.originFactoryInformation = _originFactoryInformation */\n      dup2\n      swap1\n      mstore\n      pop\n        /* \"contracts/SCbase/SupplyChain.sol\":8697:8719  _originFactoryLatitude */\n      dup8\n        /* \"contracts/SCbase/SupplyChain.sol\":8662:8672  newProduce */\n      dup2\n        /* \"contracts/SCbase/SupplyChain.sol\":8662:8694  newProduce.originFactoryLatitude */\n      0xc0\n      add\n        /* \"contracts/SCbase/SupplyChain.sol\":8662:8719  newProduce.originFactoryLatitude = _originFactoryLatitude */\n      dup2\n      swap1\n      mstore\n      pop\n        /* \"contracts/SCbase/SupplyChain.sol\":8782:8805  _originFactoryLongitude */\n      dup7\n        /* \"contracts/SCbase/SupplyChain.sol\":8746:8756  newProduce */\n      dup2\n        /* \"contracts/SCbase/SupplyChain.sol\":8746:8779  newProduce.originFactoryLongitude */\n      0xe0\n      add\n        /* \"contracts/SCbase/SupplyChain.sol\":8746:8805  newProduce.originFactoryLongitude = _originFactoryLongitude */\n      dup2\n      swap1\n      mstore\n      pop\n        /* \"contracts/SCbase/SupplyChain.sol\":8862:8865  sku */\n      sload(0x7)\n        /* \"contracts/SCbase/SupplyChain.sol\":8857:8861  _upc */\n      dup12\n        /* \"contracts/SCbase/SupplyChain.sol\":8857:8865  _upc+sku */\n      add\n        /* \"contracts/SCbase/SupplyChain.sol\":8834:8844  newProduce */\n      dup2\n        /* \"contracts/SCbase/SupplyChain.sol\":8834:8854  newProduce.productID */\n      0x100\n      add\n        /* \"contracts/SCbase/SupplyChain.sol\":8834:8865  newProduce.productID = _upc+sku */\n      dup2\n      dup2\n      mstore\n      pop\n      pop\n        /* \"contracts/SCbase/SupplyChain.sol\":8913:8926  _productNotes */\n      dup6\n        /* \"contracts/SCbase/SupplyChain.sol\":8887:8897  newProduce */\n      dup2\n        /* \"contracts/SCbase/SupplyChain.sol\":8887:8910  newProduce.productNotes */\n      0x120\n      add\n        /* \"contracts/SCbase/SupplyChain.sol\":8887:8926  newProduce.productNotes = _productNotes */\n      dup2\n      swap1\n      mstore\n      pop\n        /* \"contracts/SCbase/SupplyChain.sol\":8976:8982  _price */\n      dup5\n        /* \"contracts/SCbase/SupplyChain.sol\":8950:8960  newProduce */\n      dup2\n        /* \"contracts/SCbase/SupplyChain.sol\":8950:8973  newProduce.productPrice */\n      0x160\n      add\n        /* \"contracts/SCbase/SupplyChain.sol\":8950:8982  newProduce.productPrice = _price */\n      dup2\n      dup2\n      mstore\n      pop\n      pop\n        /* \"contracts/SCbase/SupplyChain.sol\":9032:9035  now */\n      timestamp\n        /* \"contracts/SCbase/SupplyChain.sol\":9007:9017  newProduce */\n      dup2\n        /* \"contracts/SCbase/SupplyChain.sol\":9007:9029  newProduce.productDate */\n      0x140\n      add\n        /* \"contracts/SCbase/SupplyChain.sol\":9007:9035  newProduce.productDate = now */\n      dup2\n      dup2\n      mstore\n      pop\n      pop\n        /* \"contracts/SCbase/SupplyChain.sol\":1650:1686  State.ProduceByCarParts_Manufacturer */\n      0x0\n        /* \"contracts/SCbase/SupplyChain.sol\":9080:9090  newProduce */\n      dup2\n        /* \"contracts/SCbase/SupplyChain.sol\":9080:9100  newProduce.itemState */\n      0x180\n      add\n        /* \"contracts/SCbase/SupplyChain.sol\":9080:9115  newProduce.itemState = defaultState */\n      swap1\n      0xc\n      dup2\n      gt\n      iszero\n      tag_279\n      jumpi\n      invalid\n    tag_279:\n      swap1\n      dup2\n      0xc\n      dup2\n      gt\n      iszero\n      tag_280\n      jumpi\n      invalid\n    tag_280:\n      dup2\n      mstore\n      pop\n      pop\n        /* \"contracts/SCbase/SupplyChain.sol\":9208:9230  CarParts_distributorID */\n      dup4\n        /* \"contracts/SCbase/SupplyChain.sol\":9172:9182  newProduce */\n      dup2\n        /* \"contracts/SCbase/SupplyChain.sol\":9172:9205  newProduce.CarParts_distributorID */\n      0x1a0\n      add\n        /* \"contracts/SCbase/SupplyChain.sol\":9172:9230  newProduce.CarParts_distributorID = CarParts_distributorID */\n      swap1\n      0xffffffffffffffffffffffffffffffffffffffff\n      and\n      swap1\n      dup2\n      0xffffffffffffffffffffffffffffffffffffffff\n      and\n      dup2\n      mstore\n      pop\n      pop\n        /* \"contracts/SCbase/SupplyChain.sol\":9318:9328  retailerID */\n      dup3\n        /* \"contracts/SCbase/SupplyChain.sol\":9294:9304  newProduce */\n      dup2\n        /* \"contracts/SCbase/SupplyChain.sol\":9294:9315  newProduce.retailerID */\n      0x1c0\n      add\n        /* \"contracts/SCbase/SupplyChain.sol\":9294:9328  newProduce.retailerID = retailerID */\n      swap1\n      0xffffffffffffffffffffffffffffffffffffffff\n      and\n      swap1\n      dup2\n      0xffffffffffffffffffffffffffffffffffffffff\n      and\n      dup2\n      mstore\n      pop\n      pop\n        /* \"contracts/SCbase/SupplyChain.sol\":9404:9414  customerID */\n      dup2\n        /* \"contracts/SCbase/SupplyChain.sol\":9380:9390  newProduce */\n      dup2\n        /* \"contracts/SCbase/SupplyChain.sol\":9380:9401  newProduce.customerID */\n      0x1e0\n      add\n        /* \"contracts/SCbase/SupplyChain.sol\":9380:9414  newProduce.customerID = customerID */\n      swap1\n      0xffffffffffffffffffffffffffffffffffffffff\n      and\n      swap1\n      dup2\n      0xffffffffffffffffffffffffffffffffffffffff\n      and\n      dup2\n      mstore\n      pop\n      pop\n        /* \"contracts/SCbase/SupplyChain.sol\":9497:9507  newProduce */\n      dup1\n        /* \"contracts/SCbase/SupplyChain.sol\":9483:9488  items */\n      0x8\n        /* \"contracts/SCbase/SupplyChain.sol\":9483:9494  items[_upc] */\n      0x0\n        /* \"contracts/SCbase/SupplyChain.sol\":9489:9493  _upc */\n      dup14\n        /* \"contracts/SCbase/SupplyChain.sol\":9483:9494  items[_upc] */\n      dup2\n      mstore\n      0x20\n      add\n      swap1\n      dup2\n      mstore\n      0x20\n      add\n      0x0\n      keccak256\n        /* \"contracts/SCbase/SupplyChain.sol\":9483:9507  items[_upc] = newProduce */\n      0x0\n      dup3\n      add\n      mload\n      dup2\n      0x0\n      add\n      sstore\n      0x20\n      dup3\n      add\n      mload\n      dup2\n      0x1\n      add\n      sstore\n      0x40\n      dup3\n      add\n      mload\n      dup2\n      0x2\n      add\n      exp(0x100, 0x0)\n      dup2\n      sload\n      dup2\n      0xffffffffffffffffffffffffffffffffffffffff\n      mul\n      not\n      and\n      swap1\n      dup4\n      0xffffffffffffffffffffffffffffffffffffffff\n      and\n      mul\n      or\n      swap1\n      sstore\n      pop\n      0x60\n      dup3\n      add\n      mload\n      dup2\n      0x3\n      add\n      exp(0x100, 0x0)\n      dup2\n      sload\n      dup2\n      0xffffffffffffffffffffffffffffffffffffffff\n      mul\n      not\n      and\n      swap1\n      dup4\n      0xffffffffffffffffffffffffffffffffffffffff\n      and\n      mul\n      or\n      swap1\n      sstore\n      pop\n      0x80\n      dup3\n      add\n      mload\n      dup2\n      0x4\n      add\n      swap1\n      dup1\n      mload\n      swap1\n      0x20\n      add\n      swap1\n      tag_281\n      swap3\n      swap2\n      swap1\n      jump\t// in(tag_282)\n    tag_281:\n      pop\n      0xa0\n      dup3\n      add\n      mload\n      dup2\n      0x5\n      add\n      swap1\n      dup1\n      mload\n      swap1\n      0x20\n      add\n      swap1\n      tag_283\n      swap3\n      swap2\n      swap1\n      jump\t// in(tag_282)\n    tag_283:\n      pop\n      0xc0\n      dup3\n      add\n      mload\n      dup2\n      0x6\n      add\n      swap1\n      dup1\n      mload\n      swap1\n      0x20\n      add\n      swap1\n      tag_284\n      swap3\n      swap2\n      swap1\n      jump\t// in(tag_282)\n    tag_284:\n      pop\n      0xe0\n      dup3\n      add\n      mload\n      dup2\n      0x7\n      add\n      swap1\n      dup1\n      mload\n      swap1\n      0x20\n      add\n      swap1\n      tag_285\n      swap3\n      swap2\n      swap1\n      jump\t// in(tag_282)\n    tag_285:\n      pop\n      0x100\n      dup3\n      add\n      mload\n      dup2\n      0x8\n      add\n      sstore\n      0x120\n      dup3\n      add\n      mload\n      dup2\n      0x9\n      add\n      swap1\n      dup1\n      mload\n      swap1\n      0x20\n      add\n      swap1\n      tag_286\n      swap3\n      swap2\n      swap1\n      jump\t// in(tag_282)\n    tag_286:\n      pop\n      0x140\n      dup3\n      add\n      mload\n      dup2\n      0xa\n      add\n      sstore\n      0x160\n      dup3\n      add\n      mload\n      dup2\n      0xb\n      add\n      sstore\n      0x180\n      dup3\n      add\n      mload\n      dup2\n      0xc\n      add\n      exp(0x100, 0x0)\n      dup2\n      sload\n      dup2\n      0xff\n      mul\n      not\n      and\n      swap1\n      dup4\n      0xc\n      dup2\n      gt\n      iszero\n      tag_287\n      jumpi\n      invalid\n    tag_287:\n      mul\n      or\n      swap1\n      sstore\n      pop\n      0x1a0\n      dup3\n      add\n      mload\n      dup2\n      0xc\n      add\n      exp(0x100, 0x1)\n      dup2\n      sload\n      dup2\n      0xffffffffffffffffffffffffffffffffffffffff\n      mul\n      not\n      and\n      swap1\n      dup4\n      0xffffffffffffffffffffffffffffffffffffffff\n      and\n      mul\n      or\n      swap1\n      sstore\n      pop\n      0x1c0\n      dup3\n      add\n      mload\n      dup2\n      0xd\n      add\n      exp(0x100, 0x0)\n      dup2\n      sload\n      dup2\n      0xffffffffffffffffffffffffffffffffffffffff\n      mul\n      not\n      and\n      swap1\n      dup4\n      0xffffffffffffffffffffffffffffffffffffffff\n      and\n      mul\n      or\n      swap1\n      sstore\n      pop\n      0x1e0\n      dup3\n      add\n      mload\n      dup2\n      0xe\n      add\n      exp(0x100, 0x0)\n      dup2\n      sload\n      dup2\n      0xffffffffffffffffffffffffffffffffffffffff\n      mul\n      not\n      and\n      swap1\n      dup4\n      0xffffffffffffffffffffffffffffffffffffffff\n      and\n      mul\n      or\n      swap1\n      sstore\n      pop\n      swap1\n      pop\n      pop\n        /* \"contracts/SCbase/SupplyChain.sol\":9555:9571  uint placeholder */\n      0x0\n        /* \"contracts/SCbase/SupplyChain.sol\":9607:9630  Txblocks memory txBlock */\n      tag_288\n      jump\t// in(tag_194)\n    tag_288:\n        /* \"contracts/SCbase/SupplyChain.sol\":9680:9691  placeholder */\n      dup2\n        /* \"contracts/SCbase/SupplyChain.sol\":9666:9673  txBlock */\n      dup2\n        /* \"contracts/SCbase/SupplyChain.sol\":9666:9677  txBlock.FTD */\n      0x0\n      add\n        /* \"contracts/SCbase/SupplyChain.sol\":9666:9691  txBlock.FTD = placeholder */\n      dup2\n      dup2\n      mstore\n      pop\n      pop\n        /* \"contracts/SCbase/SupplyChain.sol\":9741:9752  placeholder */\n      dup2\n        /* \"contracts/SCbase/SupplyChain.sol\":9727:9734  txBlock */\n      dup2\n        /* \"contracts/SCbase/SupplyChain.sol\":9727:9738  txBlock.DTR */\n      0x20\n      add\n        /* \"contracts/SCbase/SupplyChain.sol\":9727:9752  txBlock.DTR = placeholder */\n      dup2\n      dup2\n      mstore\n      pop\n      pop\n        /* \"contracts/SCbase/SupplyChain.sol\":9773:9784  placeholder */\n      dup2\n        /* \"contracts/SCbase/SupplyChain.sol\":9759:9766  txBlock */\n      dup2\n        /* \"contracts/SCbase/SupplyChain.sol\":9759:9770  txBlock.RTC */\n      0x40\n      add\n        /* \"contracts/SCbase/SupplyChain.sol\":9759:9784  txBlock.RTC = placeholder */\n      dup2\n      dup2\n      mstore\n      pop\n      pop\n        /* \"contracts/SCbase/SupplyChain.sol\":9812:9819  txBlock */\n      dup1\n        /* \"contracts/SCbase/SupplyChain.sol\":9791:9803  itemsHistory */\n      0x9\n        /* \"contracts/SCbase/SupplyChain.sol\":9791:9809  itemsHistory[_upc] */\n      0x0\n        /* \"contracts/SCbase/SupplyChain.sol\":9804:9808  _upc */\n      dup16\n        /* \"contracts/SCbase/SupplyChain.sol\":9791:9809  itemsHistory[_upc] */\n      dup2\n      mstore\n      0x20\n      add\n      swap1\n      dup2\n      mstore\n      0x20\n      add\n      0x0\n      keccak256\n        /* \"contracts/SCbase/SupplyChain.sol\":9791:9819  itemsHistory[_upc] = txBlock */\n      0x0\n      dup3\n      add\n      mload\n      dup2\n      0x0\n      add\n      sstore\n      0x20\n      dup3\n      add\n      mload\n      dup2\n      0x1\n      add\n      sstore\n      0x40\n      dup3\n      add\n      mload\n      dup2\n      0x2\n      add\n      sstore\n      swap1\n      pop\n      pop\n        /* \"contracts/SCbase/SupplyChain.sol\":9908:9909  1 */\n      0x1\n        /* \"contracts/SCbase/SupplyChain.sol\":9902:9905  sku */\n      sload(0x7)\n        /* \"contracts/SCbase/SupplyChain.sol\":9902:9909  sku + 1 */\n      add\n        /* \"contracts/SCbase/SupplyChain.sol\":9896:9899  sku */\n      0x7\n        /* \"contracts/SCbase/SupplyChain.sol\":9896:9909  sku = sku + 1 */\n      dup2\n      swap1\n      sstore\n      pop\n        /* \"contracts/SCbase/SupplyChain.sol\":9958:9994  ProduceByCarParts_Manufacturer(_upc) */\n      0x78e97d8ec26877417127bc38f9a0255895572ec277d8c1da38d769d5448693ed\n        /* \"contracts/SCbase/SupplyChain.sol\":9989:9993  _upc */\n      dup14\n        /* \"contracts/SCbase/SupplyChain.sol\":9958:9994  ProduceByCarParts_Manufacturer(_upc) */\n      mload(0x40)\n      dup1\n      dup3\n      dup2\n      mstore\n      0x20\n      add\n      swap2\n      pop\n      pop\n      mload(0x40)\n      dup1\n      swap2\n      sub\n      swap1\n      log1\n        /* \"contracts/SCaccesscontrol/CarParts_ManufacturerRole.sol\":935:936  _ */\n      pop\n      pop\n      pop\n      pop\n      pop\n      pop\n        /* \"contracts/SCbase/SupplyChain.sol\":7406:10002  function produceItemByCarParts_Manufacturer(uint _upc, string memory _originFactoryName, string memory _originFactoryInformation, string memory _originFactoryLatitude, string memory _originFactoryLongitude, string memory _productNotes, uint _price) public\r... */\n      pop\n      pop\n      pop\n      pop\n      pop\n      pop\n      pop\n      jump\t// out\n        /* \"contracts/SCbase/SupplyChain.sol\":16122:16492  function sellItemByRetailer(uint _upc, uint _price) public\r... */\n    tag_94:\n        /* \"contracts/SCaccesscontrol/RetailerRole.sol\":776:798  isRetailer(msg.sender) */\n      tag_290\n        /* \"contracts/SCaccesscontrol/RetailerRole.sol\":787:797  msg.sender */\n      caller\n        /* \"contracts/SCaccesscontrol/RetailerRole.sol\":776:786  isRetailer */\n      tag_102\n        /* \"contracts/SCaccesscontrol/RetailerRole.sol\":776:798  isRetailer(msg.sender) */\n      jump\t// in\n    tag_290:\n        /* \"contracts/SCaccesscontrol/RetailerRole.sol\":768:799  require(isRetailer(msg.sender)) */\n      iszero\n      iszero\n      tag_291\n      jumpi\n      0x0\n      dup1\n      revert\n    tag_291:\n        /* \"contracts/SCbase/SupplyChain.sol\":16270:16274  _upc */\n      dup2\n        /* \"contracts/SCbase/SupplyChain.sol\":6496:6520  State.ReceivedByRetailer */\n      0xa\n        /* \"contracts/SCbase/SupplyChain.sol\":6471:6520  items[_upc].itemState == State.ReceivedByRetailer */\n      0xc\n      dup2\n      gt\n      iszero\n      tag_293\n      jumpi\n      invalid\n    tag_293:\n        /* \"contracts/SCbase/SupplyChain.sol\":6471:6476  items */\n      0x8\n        /* \"contracts/SCbase/SupplyChain.sol\":6471:6482  items[_upc] */\n      0x0\n        /* \"contracts/SCbase/SupplyChain.sol\":6477:6481  _upc */\n      dup4\n        /* \"contracts/SCbase/SupplyChain.sol\":6471:6482  items[_upc] */\n      dup2\n      mstore\n      0x20\n      add\n      swap1\n      dup2\n      mstore\n      0x20\n      add\n      0x0\n      keccak256\n        /* \"contracts/SCbase/SupplyChain.sol\":6471:6492  items[_upc].itemState */\n      0xc\n      add\n      0x0\n      swap1\n      sload\n      swap1\n      0x100\n      exp\n      swap1\n      div\n      0xff\n      and\n        /* \"contracts/SCbase/SupplyChain.sol\":6471:6520  items[_upc].itemState == State.ReceivedByRetailer */\n      0xc\n      dup2\n      gt\n      iszero\n      tag_294\n      jumpi\n      invalid\n    tag_294:\n      eq\n        /* \"contracts/SCbase/SupplyChain.sol\":6463:6521  require(items[_upc].itemState == State.ReceivedByRetailer) */\n      iszero\n      iszero\n      tag_295\n      jumpi\n      0x0\n      dup1\n      revert\n    tag_295:\n        /* \"contracts/SCbase/SupplyChain.sol\":16294:16299  items */\n      0x8\n        /* \"contracts/SCbase/SupplyChain.sol\":16294:16305  items[_upc] */\n      0x0\n        /* \"contracts/SCbase/SupplyChain.sol\":16300:16304  _upc */\n      dup5\n        /* \"contracts/SCbase/SupplyChain.sol\":16294:16305  items[_upc] */\n      dup2\n      mstore\n      0x20\n      add\n      swap1\n      dup2\n      mstore\n      0x20\n      add\n      0x0\n      keccak256\n        /* \"contracts/SCbase/SupplyChain.sol\":16294:16313  items[_upc].ownerID */\n      0x2\n      add\n      0x0\n      swap1\n      sload\n      swap1\n      0x100\n      exp\n      swap1\n      div\n      0xffffffffffffffffffffffffffffffffffffffff\n      and\n        /* \"contracts/SCbase/SupplyChain.sol\":4430:4438  _address */\n      dup1\n        /* \"contracts/SCbase/SupplyChain.sol\":4416:4438  msg.sender == _address */\n      0xffffffffffffffffffffffffffffffffffffffff\n      and\n        /* \"contracts/SCbase/SupplyChain.sol\":4416:4426  msg.sender */\n      caller\n        /* \"contracts/SCbase/SupplyChain.sol\":4416:4438  msg.sender == _address */\n      0xffffffffffffffffffffffffffffffffffffffff\n      and\n      eq\n        /* \"contracts/SCbase/SupplyChain.sol\":4408:4439  require(msg.sender == _address) */\n      iszero\n      iszero\n      tag_297\n      jumpi\n      0x0\n      dup1\n      revert\n    tag_297:\n        /* \"contracts/SCbase/SupplyChain.sol\":16384:16407  State.ForSaleByRetailer */\n      0xb\n        /* \"contracts/SCbase/SupplyChain.sol\":16360:16365  items */\n      0x8\n        /* \"contracts/SCbase/SupplyChain.sol\":16360:16371  items[_upc] */\n      0x0\n        /* \"contracts/SCbase/SupplyChain.sol\":16366:16370  _upc */\n      dup7\n        /* \"contracts/SCbase/SupplyChain.sol\":16360:16371  items[_upc] */\n      dup2\n      mstore\n      0x20\n      add\n      swap1\n      dup2\n      mstore\n      0x20\n      add\n      0x0\n      keccak256\n        /* \"contracts/SCbase/SupplyChain.sol\":16360:16381  items[_upc].itemState */\n      0xc\n      add\n      0x0\n        /* \"contracts/SCbase/SupplyChain.sol\":16360:16407  items[_upc].itemState = State.ForSaleByRetailer */\n      0x100\n      exp\n      dup2\n      sload\n      dup2\n      0xff\n      mul\n      not\n      and\n      swap1\n      dup4\n      0xc\n      dup2\n      gt\n      iszero\n      tag_299\n      jumpi\n      invalid\n    tag_299:\n      mul\n      or\n      swap1\n      sstore\n      pop\n        /* \"contracts/SCbase/SupplyChain.sol\":16443:16449  _price */\n      dup3\n        /* \"contracts/SCbase/SupplyChain.sol\":16416:16421  items */\n      0x8\n        /* \"contracts/SCbase/SupplyChain.sol\":16416:16427  items[_upc] */\n      0x0\n        /* \"contracts/SCbase/SupplyChain.sol\":16422:16426  _upc */\n      dup7\n        /* \"contracts/SCbase/SupplyChain.sol\":16416:16427  items[_upc] */\n      dup2\n      mstore\n      0x20\n      add\n      swap1\n      dup2\n      mstore\n      0x20\n      add\n      0x0\n      keccak256\n        /* \"contracts/SCbase/SupplyChain.sol\":16416:16440  items[_upc].productPrice */\n      0xb\n      add\n        /* \"contracts/SCbase/SupplyChain.sol\":16416:16449  items[_upc].productPrice = _price */\n      dup2\n      swap1\n      sstore\n      pop\n        /* \"contracts/SCbase/SupplyChain.sol\":16463:16486  ForSaleByRetailer(_upc) */\n      0x59e7ad085805e2b02ad4b0f8033bd75e7ee4c8cd43f996267463585e35896252\n        /* \"contracts/SCbase/SupplyChain.sol\":16481:16485  _upc */\n      dup5\n        /* \"contracts/SCbase/SupplyChain.sol\":16463:16486  ForSaleByRetailer(_upc) */\n      mload(0x40)\n      dup1\n      dup3\n      dup2\n      mstore\n      0x20\n      add\n      swap2\n      pop\n      pop\n      mload(0x40)\n      dup1\n      swap2\n      sub\n      swap1\n      log1\n        /* \"contracts/SCbase/SupplyChain.sol\":6528:6529  _ */\n      pop\n        /* \"contracts/SCaccesscontrol/RetailerRole.sol\":806:807  _ */\n      pop\n        /* \"contracts/SCbase/SupplyChain.sol\":16122:16492  function sellItemByRetailer(uint _upc, uint _price) public\r... */\n      pop\n      pop\n      jump\t// out\n        /* \"contracts/SCbase/SupplyChain.sol\":12902:13397  function processedItemByCarParts_Distributor(uint _upc) public //(uint _upc,uint splits)\r... */\n    tag_98:\n        /* \"contracts/SCaccesscontrol/CarParts_DistributorRole.sol\":877:911  isCarParts_Distributor(msg.sender) */\n      tag_301\n        /* \"contracts/SCaccesscontrol/CarParts_DistributorRole.sol\":900:910  msg.sender */\n      caller\n        /* \"contracts/SCaccesscontrol/CarParts_DistributorRole.sol\":877:899  isCarParts_Distributor */\n      tag_184\n        /* \"contracts/SCaccesscontrol/CarParts_DistributorRole.sol\":877:911  isCarParts_Distributor(msg.sender) */\n      jump\t// in\n    tag_301:\n        /* \"contracts/SCaccesscontrol/CarParts_DistributorRole.sol\":869:912  require(isCarParts_Distributor(msg.sender)) */\n      iszero\n      iszero\n      tag_302\n      jumpi\n      0x0\n      dup1\n      revert\n    tag_302:\n        /* \"contracts/SCbase/SupplyChain.sol\":13115:13119  _upc */\n      dup1\n        /* \"contracts/SCbase/SupplyChain.sol\":5645:5681  State.ReceivedByCarParts_Distributor */\n      0x4\n        /* \"contracts/SCbase/SupplyChain.sol\":5620:5681  items[_upc].itemState == State.ReceivedByCarParts_Distributor */\n      0xc\n      dup2\n      gt\n      iszero\n      tag_304\n      jumpi\n      invalid\n    tag_304:\n        /* \"contracts/SCbase/SupplyChain.sol\":5620:5625  items */\n      0x8\n        /* \"contracts/SCbase/SupplyChain.sol\":5620:5631  items[_upc] */\n      0x0\n        /* \"contracts/SCbase/SupplyChain.sol\":5626:5630  _upc */\n      dup4\n        /* \"contracts/SCbase/SupplyChain.sol\":5620:5631  items[_upc] */\n      dup2\n      mstore\n      0x20\n      add\n      swap1\n      dup2\n      mstore\n      0x20\n      add\n      0x0\n      keccak256\n        /* \"contracts/SCbase/SupplyChain.sol\":5620:5641  items[_upc].itemState */\n      0xc\n      add\n      0x0\n      swap1\n      sload\n      swap1\n      0x100\n      exp\n      swap1\n      div\n      0xff\n      and\n        /* \"contracts/SCbase/SupplyChain.sol\":5620:5681  items[_upc].itemState == State.ReceivedByCarParts_Distributor */\n      0xc\n      dup2\n      gt\n      iszero\n      tag_305\n      jumpi\n      invalid\n    tag_305:\n      eq\n        /* \"contracts/SCbase/SupplyChain.sol\":5612:5682  require(items[_upc].itemState == State.ReceivedByCarParts_Distributor) */\n      iszero\n      iszero\n      tag_306\n      jumpi\n      0x0\n      dup1\n      revert\n    tag_306:\n        /* \"contracts/SCbase/SupplyChain.sol\":13139:13144  items */\n      0x8\n        /* \"contracts/SCbase/SupplyChain.sol\":13139:13150  items[_upc] */\n      0x0\n        /* \"contracts/SCbase/SupplyChain.sol\":13145:13149  _upc */\n      dup4\n        /* \"contracts/SCbase/SupplyChain.sol\":13139:13150  items[_upc] */\n      dup2\n      mstore\n      0x20\n      add\n      swap1\n      dup2\n      mstore\n      0x20\n      add\n      0x0\n      keccak256\n        /* \"contracts/SCbase/SupplyChain.sol\":13139:13158  items[_upc].ownerID */\n      0x2\n      add\n      0x0\n      swap1\n      sload\n      swap1\n      0x100\n      exp\n      swap1\n      div\n      0xffffffffffffffffffffffffffffffffffffffff\n      and\n        /* \"contracts/SCbase/SupplyChain.sol\":4430:4438  _address */\n      dup1\n        /* \"contracts/SCbase/SupplyChain.sol\":4416:4438  msg.sender == _address */\n      0xffffffffffffffffffffffffffffffffffffffff\n      and\n        /* \"contracts/SCbase/SupplyChain.sol\":4416:4426  msg.sender */\n      caller\n        /* \"contracts/SCbase/SupplyChain.sol\":4416:4438  msg.sender == _address */\n      0xffffffffffffffffffffffffffffffffffffffff\n      and\n      eq\n        /* \"contracts/SCbase/SupplyChain.sol\":4408:4439  require(msg.sender == _address) */\n      iszero\n      iszero\n      tag_308\n      jumpi\n      0x0\n      dup1\n      revert\n    tag_308:\n        /* \"contracts/SCbase/SupplyChain.sol\":13225:13262  State.ProcessedByCarParts_Distributor */\n      0x5\n        /* \"contracts/SCbase/SupplyChain.sol\":13201:13206  items */\n      0x8\n        /* \"contracts/SCbase/SupplyChain.sol\":13201:13212  items[_upc] */\n      0x0\n        /* \"contracts/SCbase/SupplyChain.sol\":13207:13211  _upc */\n      dup6\n        /* \"contracts/SCbase/SupplyChain.sol\":13201:13212  items[_upc] */\n      dup2\n      mstore\n      0x20\n      add\n      swap1\n      dup2\n      mstore\n      0x20\n      add\n      0x0\n      keccak256\n        /* \"contracts/SCbase/SupplyChain.sol\":13201:13222  items[_upc].itemState */\n      0xc\n      add\n      0x0\n        /* \"contracts/SCbase/SupplyChain.sol\":13201:13262  items[_upc].itemState = State.ProcessedByCarParts_Distributor */\n      0x100\n      exp\n      dup2\n      sload\n      dup2\n      0xff\n      mul\n      not\n      and\n      swap1\n      dup4\n      0xc\n      dup2\n      gt\n      iszero\n      tag_310\n      jumpi\n      invalid\n    tag_310:\n      mul\n      or\n      swap1\n      sstore\n      pop\n        /* \"contracts/SCbase/SupplyChain.sol\":13354:13391  ProcessedByCarParts_Distributor(_upc) */\n      0x5850060ec51c0aa6e46b59a3454a1a6957ddf621b2a1a4c7e69a56641038c21e\n        /* \"contracts/SCbase/SupplyChain.sol\":13386:13390  _upc */\n      dup4\n        /* \"contracts/SCbase/SupplyChain.sol\":13354:13391  ProcessedByCarParts_Distributor(_upc) */\n      mload(0x40)\n      dup1\n      dup3\n      dup2\n      mstore\n      0x20\n      add\n      swap2\n      pop\n      pop\n      mload(0x40)\n      dup1\n      swap2\n      sub\n      swap1\n      log1\n        /* \"contracts/SCbase/SupplyChain.sol\":5689:5690  _ */\n      pop\n        /* \"contracts/SCaccesscontrol/CarParts_DistributorRole.sol\":919:920  _ */\n      pop\n        /* \"contracts/SCbase/SupplyChain.sol\":12902:13397  function processedItemByCarParts_Distributor(uint _upc) public //(uint _upc,uint splits)\r... */\n      pop\n      jump\t// out\n        /* \"contracts/SCaccesscontrol/RetailerRole.sol\":875:981  function isRetailer(address account) public view returns (bool) {\r... */\n    tag_102:\n        /* \"contracts/SCaccesscontrol/RetailerRole.sol\":933:937  bool */\n      0x0\n        /* \"contracts/SCaccesscontrol/RetailerRole.sol\":953:975  retailers.has(account) */\n      tag_312\n        /* \"contracts/SCaccesscontrol/RetailerRole.sol\":967:974  account */\n      dup3\n        /* \"contracts/SCaccesscontrol/RetailerRole.sol\":953:962  retailers */\n      0x3\n        /* \"contracts/SCaccesscontrol/RetailerRole.sol\":953:966  retailers.has */\n      tag_241\n      swap1\n        /* \"contracts/SCaccesscontrol/RetailerRole.sol\":953:975  retailers.has(account) */\n      swap2\n      swap1\n      0xffffffff\n      and\n      jump\t// in\n    tag_312:\n        /* \"contracts/SCaccesscontrol/RetailerRole.sol\":946:975  return retailers.has(account) */\n      swap1\n      pop\n        /* \"contracts/SCaccesscontrol/RetailerRole.sol\":875:981  function isRetailer(address account) public view returns (bool) {\r... */\n      swap2\n      swap1\n      pop\n      jump\t// out\n        /* \"contracts/SCbase/SupplyChain.sol\":18199:18900  function fetchItemBufferTwo(uint _upc) public view returns\r... */\n    tag_106:\n        /* \"contracts/SCbase/SupplyChain.sol\":18270:18285  uint    itemSKU */\n      0x0\n        /* \"contracts/SCbase/SupplyChain.sol\":18292:18307  uint    itemUPC */\n      dup1\n        /* \"contracts/SCbase/SupplyChain.sol\":18314:18331  uint    productID */\n      0x0\n        /* \"contracts/SCbase/SupplyChain.sol\":18338:18365  string  memory productNotes */\n      0x60\n        /* \"contracts/SCbase/SupplyChain.sol\":18372:18392  uint    productPrice */\n      0x0\n        /* \"contracts/SCbase/SupplyChain.sol\":18399:18418  uint256 productDate */\n      dup1\n        /* \"contracts/SCbase/SupplyChain.sol\":18425:18442  State   itemState */\n      0x0\n        /* \"contracts/SCbase/SupplyChain.sol\":18449:18479  address CarParts_distributorID */\n      dup1\n        /* \"contracts/SCbase/SupplyChain.sol\":18486:18504  address retailerID */\n      0x0\n        /* \"contracts/SCbase/SupplyChain.sol\":18511:18529  address customerID */\n      dup1\n        /* \"contracts/SCbase/SupplyChain.sol\":18593:18609  Item memory item */\n      tag_314\n      jump\t// in(tag_278)\n    tag_314:\n        /* \"contracts/SCbase/SupplyChain.sol\":18612:18617  items */\n      0x8\n        /* \"contracts/SCbase/SupplyChain.sol\":18612:18623  items[_upc] */\n      0x0\n        /* \"contracts/SCbase/SupplyChain.sol\":18618:18622  _upc */\n      dup14\n        /* \"contracts/SCbase/SupplyChain.sol\":18612:18623  items[_upc] */\n      dup2\n      mstore\n      0x20\n      add\n      swap1\n      dup2\n      mstore\n      0x20\n      add\n      0x0\n      keccak256\n        /* \"contracts/SCbase/SupplyChain.sol\":18593:18623  Item memory item = items[_upc] */\n      0x200\n      mload(0x40)\n      swap1\n      dup2\n      add\n      0x40\n      mstore\n      swap1\n      dup2\n      0x0\n      dup3\n      add\n      sload\n      dup2\n      mstore\n      0x20\n      add\n      0x1\n      dup3\n      add\n      sload\n      dup2\n      mstore\n      0x20\n      add\n      0x2\n      dup3\n      add\n      0x0\n      swap1\n      sload\n      swap1\n      0x100\n      exp\n      swap1\n      div\n      0xffffffffffffffffffffffffffffffffffffffff\n      and\n      0xffffffffffffffffffffffffffffffffffffffff\n      and\n      0xffffffffffffffffffffffffffffffffffffffff\n      and\n      dup2\n      mstore\n      0x20\n      add\n      0x3\n      dup3\n      add\n      0x0\n      swap1\n      sload\n      swap1\n      0x100\n      exp\n      swap1\n      div\n      0xffffffffffffffffffffffffffffffffffffffff\n      and\n      0xffffffffffffffffffffffffffffffffffffffff\n      and\n      0xffffffffffffffffffffffffffffffffffffffff\n      and\n      dup2\n      mstore\n      0x20\n      add\n      0x4\n      dup3\n      add\n      dup1\n      sload\n      0x1\n      dup2\n      0x1\n      and\n      iszero\n      0x100\n      mul\n      sub\n      and\n      0x2\n      swap1\n      div\n      dup1\n      0x1f\n      add\n      0x20\n      dup1\n      swap2\n      div\n      mul\n      0x20\n      add\n      mload(0x40)\n      swap1\n      dup2\n      add\n      0x40\n      mstore\n      dup1\n      swap3\n      swap2\n      swap1\n      dup2\n      dup2\n      mstore\n      0x20\n      add\n      dup3\n      dup1\n      sload\n      0x1\n      dup2\n      0x1\n      and\n      iszero\n      0x100\n      mul\n      sub\n      and\n      0x2\n      swap1\n      div\n      dup1\n      iszero\n      tag_315\n      jumpi\n      dup1\n      0x1f\n      lt\n      tag_316\n      jumpi\n      0x100\n      dup1\n      dup4\n      sload\n      div\n      mul\n      dup4\n      mstore\n      swap2\n      0x20\n      add\n      swap2\n      jump(tag_315)\n    tag_316:\n      dup3\n      add\n      swap2\n      swap1\n      0x0\n      mstore\n      keccak256(0x0, 0x20)\n      swap1\n    tag_317:\n      dup2\n      sload\n      dup2\n      mstore\n      swap1\n      0x1\n      add\n      swap1\n      0x20\n      add\n      dup1\n      dup4\n      gt\n      tag_317\n      jumpi\n      dup3\n      swap1\n      sub\n      0x1f\n      and\n      dup3\n      add\n      swap2\n    tag_315:\n      pop\n      pop\n      pop\n      pop\n      pop\n      dup2\n      mstore\n      0x20\n      add\n      0x5\n      dup3\n      add\n      dup1\n      sload\n      0x1\n      dup2\n      0x1\n      and\n      iszero\n      0x100\n      mul\n      sub\n      and\n      0x2\n      swap1\n      div\n      dup1\n      0x1f\n      add\n      0x20\n      dup1\n      swap2\n      div\n      mul\n      0x20\n      add\n      mload(0x40)\n      swap1\n      dup2\n      add\n      0x40\n      mstore\n      dup1\n      swap3\n      swap2\n      swap1\n      dup2\n      dup2\n      mstore\n      0x20\n      add\n      dup3\n      dup1\n      sload\n      0x1\n      dup2\n      0x1\n      and\n      iszero\n      0x100\n      mul\n      sub\n      and\n      0x2\n      swap1\n      div\n      dup1\n      iszero\n      tag_318\n      jumpi\n      dup1\n      0x1f\n      lt\n      tag_319\n      jumpi\n      0x100\n      dup1\n      dup4\n      sload\n      div\n      mul\n      dup4\n      mstore\n      swap2\n      0x20\n      add\n      swap2\n      jump(tag_318)\n    tag_319:\n      dup3\n      add\n      swap2\n      swap1\n      0x0\n      mstore\n      keccak256(0x0, 0x20)\n      swap1\n    tag_320:\n      dup2\n      sload\n      dup2\n      mstore\n      swap1\n      0x1\n      add\n      swap1\n      0x20\n      add\n      dup1\n      dup4\n      gt\n      tag_320\n      jumpi\n      dup3\n      swap1\n      sub\n      0x1f\n      and\n      dup3\n      add\n      swap2\n    tag_318:\n      pop\n      pop\n      pop\n      pop\n      pop\n      dup2\n      mstore\n      0x20\n      add\n      0x6\n      dup3\n      add\n      dup1\n      sload\n      0x1\n      dup2\n      0x1\n      and\n      iszero\n      0x100\n      mul\n      sub\n      and\n      0x2\n      swap1\n      div\n      dup1\n      0x1f\n      add\n      0x20\n      dup1\n      swap2\n      div\n      mul\n      0x20\n      add\n      mload(0x40)\n      swap1\n      dup2\n      add\n      0x40\n      mstore\n      dup1\n      swap3\n      swap2\n      swap1\n      dup2\n      dup2\n      mstore\n      0x20\n      add\n      dup3\n      dup1\n      sload\n      0x1\n      dup2\n      0x1\n      and\n      iszero\n      0x100\n      mul\n      sub\n      and\n      0x2\n      swap1\n      div\n      dup1\n      iszero\n      tag_321\n      jumpi\n      dup1\n      0x1f\n      lt\n      tag_322\n      jumpi\n      0x100\n      dup1\n      dup4\n      sload\n      div\n      mul\n      dup4\n      mstore\n      swap2\n      0x20\n      add\n      swap2\n      jump(tag_321)\n    tag_322:\n      dup3\n      add\n      swap2\n      swap1\n      0x0\n      mstore\n      keccak256(0x0, 0x20)\n      swap1\n    tag_323:\n      dup2\n      sload\n      dup2\n      mstore\n      swap1\n      0x1\n      add\n      swap1\n      0x20\n      add\n      dup1\n      dup4\n      gt\n      tag_323\n      jumpi\n      dup3\n      swap1\n      sub\n      0x1f\n      and\n      dup3\n      add\n      swap2\n    tag_321:\n      pop\n      pop\n      pop\n      pop\n      pop\n      dup2\n      mstore\n      0x20\n      add\n      0x7\n      dup3\n      add\n      dup1\n      sload\n      0x1\n      dup2\n      0x1\n      and\n      iszero\n      0x100\n      mul\n      sub\n      and\n      0x2\n      swap1\n      div\n      dup1\n      0x1f\n      add\n      0x20\n      dup1\n      swap2\n      div\n      mul\n      0x20\n      add\n      mload(0x40)\n      swap1\n      dup2\n      add\n      0x40\n      mstore\n      dup1\n      swap3\n      swap2\n      swap1\n      dup2\n      dup2\n      mstore\n      0x20\n      add\n      dup3\n      dup1\n      sload\n      0x1\n      dup2\n      0x1\n      and\n      iszero\n      0x100\n      mul\n      sub\n      and\n      0x2\n      swap1\n      div\n      dup1\n      iszero\n      tag_324\n      jumpi\n      dup1\n      0x1f\n      lt\n      tag_325\n      jumpi\n      0x100\n      dup1\n      dup4\n      sload\n      div\n      mul\n      dup4\n      mstore\n      swap2\n      0x20\n      add\n      swap2\n      jump(tag_324)\n    tag_325:\n      dup3\n      add\n      swap2\n      swap1\n      0x0\n      mstore\n      keccak256(0x0, 0x20)\n      swap1\n    tag_326:\n      dup2\n      sload\n      dup2\n      mstore\n      swap1\n      0x1\n      add\n      swap1\n      0x20\n      add\n      dup1\n      dup4\n      gt\n      tag_326\n      jumpi\n      dup3\n      swap1\n      sub\n      0x1f\n      and\n      dup3\n      add\n      swap2\n    tag_324:\n      pop\n      pop\n      pop\n      pop\n      pop\n      dup2\n      mstore\n      0x20\n      add\n      0x8\n      dup3\n      add\n      sload\n      dup2\n      mstore\n      0x20\n      add\n      0x9\n      dup3\n      add\n      dup1\n      sload\n      0x1\n      dup2\n      0x1\n      and\n      iszero\n      0x100\n      mul\n      sub\n      and\n      0x2\n      swap1\n      div\n      dup1\n      0x1f\n      add\n      0x20\n      dup1\n      swap2\n      div\n      mul\n      0x20\n      add\n      mload(0x40)\n      swap1\n      dup2\n      add\n      0x40\n      mstore\n      dup1\n      swap3\n      swap2\n      swap1\n      dup2\n      dup2\n      mstore\n      0x20\n      add\n      dup3\n      dup1\n      sload\n      0x1\n      dup2\n      0x1\n      and\n      iszero\n      0x100\n      mul\n      sub\n      and\n      0x2\n      swap1\n      div\n      dup1\n      iszero\n      tag_327\n      jumpi\n      dup1\n      0x1f\n      lt\n      tag_328\n      jumpi\n      0x100\n      dup1\n      dup4\n      sload\n      div\n      mul\n      dup4\n      mstore\n      swap2\n      0x20\n      add\n      swap2\n      jump(tag_327)\n    tag_328:\n      dup3\n      add\n      swap2\n      swap1\n      0x0\n      mstore\n      keccak256(0x0, 0x20)\n      swap1\n    tag_329:\n      dup2\n      sload\n      dup2\n      mstore\n      swap1\n      0x1\n      add\n      swap1\n      0x20\n      add\n      dup1\n      dup4\n      gt\n      tag_329\n      jumpi\n      dup3\n      swap1\n      sub\n      0x1f\n      and\n      dup3\n      add\n      swap2\n    tag_327:\n      pop\n      pop\n      pop\n      pop\n      pop\n      dup2\n      mstore\n      0x20\n      add\n      0xa\n      dup3\n      add\n      sload\n      dup2\n      mstore\n      0x20\n      add\n      0xb\n      dup3\n      add\n      sload\n      dup2\n      mstore\n      0x20\n      add\n      0xc\n      dup3\n      add\n      0x0\n      swap1\n      sload\n      swap1\n      0x100\n      exp\n      swap1\n      div\n      0xff\n      and\n      0xc\n      dup2\n      gt\n      iszero\n      tag_330\n      jumpi\n      invalid\n    tag_330:\n      0xc\n      dup2\n      gt\n      iszero\n      tag_331\n      jumpi\n      invalid\n    tag_331:\n      dup2\n      mstore\n      0x20\n      add\n      0xc\n      dup3\n      add\n      0x1\n      swap1\n      sload\n      swap1\n      0x100\n      exp\n      swap1\n      div\n      0xffffffffffffffffffffffffffffffffffffffff\n      and\n      0xffffffffffffffffffffffffffffffffffffffff\n      and\n      0xffffffffffffffffffffffffffffffffffffffff\n      and\n      dup2\n      mstore\n      0x20\n      add\n      0xd\n      dup3\n      add\n      0x0\n      swap1\n      sload\n      swap1\n      0x100\n      exp\n      swap1\n      div\n      0xffffffffffffffffffffffffffffffffffffffff\n      and\n      0xffffffffffffffffffffffffffffffffffffffff\n      and\n      0xffffffffffffffffffffffffffffffffffffffff\n      and\n      dup2\n      mstore\n      0x20\n      add\n      0xe\n      dup3\n      add\n      0x0\n      swap1\n      sload\n      swap1\n      0x100\n      exp\n      swap1\n      div\n      0xffffffffffffffffffffffffffffffffffffffff\n      and\n      0xffffffffffffffffffffffffffffffffffffffff\n      and\n      0xffffffffffffffffffffffffffffffffffffffff\n      and\n      dup2\n      mstore\n      pop\n      pop\n      swap1\n      pop\n        /* \"contracts/SCbase/SupplyChain.sol\":18653:18657  item */\n      dup1\n        /* \"contracts/SCbase/SupplyChain.sol\":18653:18661  item.sku */\n      0x0\n      add\n      mload\n        /* \"contracts/SCbase/SupplyChain.sol\":18670:18674  item */\n      dup2\n        /* \"contracts/SCbase/SupplyChain.sol\":18670:18678  item.upc */\n      0x20\n      add\n      mload\n        /* \"contracts/SCbase/SupplyChain.sol\":18687:18691  item */\n      dup3\n        /* \"contracts/SCbase/SupplyChain.sol\":18687:18701  item.productID */\n      0x100\n      add\n      mload\n        /* \"contracts/SCbase/SupplyChain.sol\":18710:18714  item */\n      dup4\n        /* \"contracts/SCbase/SupplyChain.sol\":18710:18727  item.productNotes */\n      0x120\n      add\n      mload\n        /* \"contracts/SCbase/SupplyChain.sol\":18736:18740  item */\n      dup5\n        /* \"contracts/SCbase/SupplyChain.sol\":18736:18753  item.productPrice */\n      0x160\n      add\n      mload\n        /* \"contracts/SCbase/SupplyChain.sol\":18762:18766  item */\n      dup6\n        /* \"contracts/SCbase/SupplyChain.sol\":18762:18778  item.productDate */\n      0x140\n      add\n      mload\n        /* \"contracts/SCbase/SupplyChain.sol\":18787:18791  item */\n      dup7\n        /* \"contracts/SCbase/SupplyChain.sol\":18787:18801  item.itemState */\n      0x180\n      add\n      mload\n        /* \"contracts/SCbase/SupplyChain.sol\":18810:18814  item */\n      dup8\n        /* \"contracts/SCbase/SupplyChain.sol\":18810:18837  item.CarParts_distributorID */\n      0x1a0\n      add\n      mload\n        /* \"contracts/SCbase/SupplyChain.sol\":18846:18850  item */\n      dup9\n        /* \"contracts/SCbase/SupplyChain.sol\":18846:18861  item.retailerID */\n      0x1c0\n      add\n      mload\n        /* \"contracts/SCbase/SupplyChain.sol\":18870:18874  item */\n      dup10\n        /* \"contracts/SCbase/SupplyChain.sol\":18870:18885  item.customerID */\n      0x1e0\n      add\n      mload\n        /* \"contracts/SCbase/SupplyChain.sol\":18632:18892  return\r... */\n      dup7\n      swap7\n      pop\n      swap11\n      pop\n      swap11\n      pop\n      swap11\n      pop\n      swap11\n      pop\n      swap11\n      pop\n      swap11\n      pop\n      swap11\n      pop\n      swap11\n      pop\n      swap11\n      pop\n      swap11\n      pop\n      pop\n        /* \"contracts/SCbase/SupplyChain.sol\":18199:18900  function fetchItemBufferTwo(uint _upc) public view returns\r... */\n      swap2\n      swap4\n      swap6\n      swap8\n      swap10\n      pop\n      swap2\n      swap4\n      swap6\n      swap8\n      swap10\n      jump\t// out\n        /* \"contracts/SCcore/Ownable.sol\":889:1032  function renounceOwnership() public onlyOwner {\r... */\n    tag_114:\n        /* \"contracts/SCbase/SupplyChain.sol\":4286:4291  owner */\n      0x5\n      0x0\n      swap1\n      sload\n      swap1\n      0x100\n      exp\n      swap1\n      div\n      0xffffffffffffffffffffffffffffffffffffffff\n      and\n        /* \"contracts/SCbase/SupplyChain.sol\":4272:4291  msg.sender == owner */\n      0xffffffffffffffffffffffffffffffffffffffff\n      and\n        /* \"contracts/SCbase/SupplyChain.sol\":4272:4282  msg.sender */\n      caller\n        /* \"contracts/SCbase/SupplyChain.sol\":4272:4291  msg.sender == owner */\n      0xffffffffffffffffffffffffffffffffffffffff\n      and\n      eq\n        /* \"contracts/SCbase/SupplyChain.sol\":4264:4292  require(msg.sender == owner) */\n      iszero\n      iszero\n      tag_333\n      jumpi\n      0x0\n      dup1\n      revert\n    tag_333:\n        /* \"contracts/SCcore/Ownable.sol\":988:989  0 */\n      0x0\n        /* \"contracts/SCcore/Ownable.sol\":951:991  TransferOwnership(origOwner, address(0)) */\n      0xffffffffffffffffffffffffffffffffffffffff\n      and\n        /* \"contracts/SCcore/Ownable.sol\":969:978  origOwner */\n      0x0\n      dup1\n      swap1\n      sload\n      swap1\n      0x100\n      exp\n      swap1\n      div\n      0xffffffffffffffffffffffffffffffffffffffff\n      and\n        /* \"contracts/SCcore/Ownable.sol\":951:991  TransferOwnership(origOwner, address(0)) */\n      0xffffffffffffffffffffffffffffffffffffffff\n      and\n      0x5c486528ec3e3f0ea91181cff8116f02bfa350e03b8b6f12e00765adbb5af85c\n      mload(0x40)\n      mload(0x40)\n      dup1\n      swap2\n      sub\n      swap1\n      log3\n        /* \"contracts/SCcore/Ownable.sol\":1022:1023  0 */\n      0x0\n        /* \"contracts/SCcore/Ownable.sol\":1002:1011  origOwner */\n      dup1\n      0x0\n        /* \"contracts/SCcore/Ownable.sol\":1002:1024  origOwner = address(0) */\n      0x100\n      exp\n      dup2\n      sload\n      dup2\n      0xffffffffffffffffffffffffffffffffffffffff\n      mul\n      not\n      and\n      swap1\n      dup4\n      0xffffffffffffffffffffffffffffffffffffffff\n      and\n      mul\n      or\n      swap1\n      sstore\n      pop\n        /* \"contracts/SCcore/Ownable.sol\":889:1032  function renounceOwnership() public onlyOwner {\r... */\n      jump\t// out\n        /* \"contracts/SCbase/SupplyChain.sol\":17307:18126  function fetchItemBufferOne(uint _upc) public view returns\r... */\n    tag_118:\n        /* \"contracts/SCbase/SupplyChain.sol\":17378:17393  uint    itemSKU */\n      0x0\n        /* \"contracts/SCbase/SupplyChain.sol\":17400:17415  uint    itemUPC */\n      dup1\n        /* \"contracts/SCbase/SupplyChain.sol\":17422:17437  address ownerID */\n      0x0\n        /* \"contracts/SCbase/SupplyChain.sol\":17444:17481  address originCarParts_ManufacturerID */\n      dup1\n        /* \"contracts/SCbase/SupplyChain.sol\":17488:17520  string memory  originFactoryName */\n      0x60\n        /* \"contracts/SCbase/SupplyChain.sol\":17527:17565  string memory originFactoryInformation */\n      dup1\n        /* \"contracts/SCbase/SupplyChain.sol\":17572:17607  string memory originFactoryLatitude */\n      0x60\n        /* \"contracts/SCbase/SupplyChain.sol\":17614:17650  string memory originFactoryLongitude */\n      dup1\n        /* \"contracts/SCbase/SupplyChain.sol\":17657:17673  uint productDate */\n      0x0\n        /* \"contracts/SCbase/SupplyChain.sol\":17766:17782  Item memory item */\n      tag_336\n      jump\t// in(tag_278)\n    tag_336:\n        /* \"contracts/SCbase/SupplyChain.sol\":17785:17790  items */\n      0x8\n        /* \"contracts/SCbase/SupplyChain.sol\":17785:17796  items[_upc] */\n      0x0\n        /* \"contracts/SCbase/SupplyChain.sol\":17791:17795  _upc */\n      dup13\n        /* \"contracts/SCbase/SupplyChain.sol\":17785:17796  items[_upc] */\n      dup2\n      mstore\n      0x20\n      add\n      swap1\n      dup2\n      mstore\n      0x20\n      add\n      0x0\n      keccak256\n        /* \"contracts/SCbase/SupplyChain.sol\":17766:17796  Item memory item = items[_upc] */\n      0x200\n      mload(0x40)\n      swap1\n      dup2\n      add\n      0x40\n      mstore\n      swap1\n      dup2\n      0x0\n      dup3\n      add\n      sload\n      dup2\n      mstore\n      0x20\n      add\n      0x1\n      dup3\n      add\n      sload\n      dup2\n      mstore\n      0x20\n      add\n      0x2\n      dup3\n      add\n      0x0\n      swap1\n      sload\n      swap1\n      0x100\n      exp\n      swap1\n      div\n      0xffffffffffffffffffffffffffffffffffffffff\n      and\n      0xffffffffffffffffffffffffffffffffffffffff\n      and\n      0xffffffffffffffffffffffffffffffffffffffff\n      and\n      dup2\n      mstore\n      0x20\n      add\n      0x3\n      dup3\n      add\n      0x0\n      swap1\n      sload\n      swap1\n      0x100\n      exp\n      swap1\n      div\n      0xffffffffffffffffffffffffffffffffffffffff\n      and\n      0xffffffffffffffffffffffffffffffffffffffff\n      and\n      0xffffffffffffffffffffffffffffffffffffffff\n      and\n      dup2\n      mstore\n      0x20\n      add\n      0x4\n      dup3\n      add\n      dup1\n      sload\n      0x1\n      dup2\n      0x1\n      and\n      iszero\n      0x100\n      mul\n      sub\n      and\n      0x2\n      swap1\n      div\n      dup1\n      0x1f\n      add\n      0x20\n      dup1\n      swap2\n      div\n      mul\n      0x20\n      add\n      mload(0x40)\n      swap1\n      dup2\n      add\n      0x40\n      mstore\n      dup1\n      swap3\n      swap2\n      swap1\n      dup2\n      dup2\n      mstore\n      0x20\n      add\n      dup3\n      dup1\n      sload\n      0x1\n      dup2\n      0x1\n      and\n      iszero\n      0x100\n      mul\n      sub\n      and\n      0x2\n      swap1\n      div\n      dup1\n      iszero\n      tag_337\n      jumpi\n      dup1\n      0x1f\n      lt\n      tag_338\n      jumpi\n      0x100\n      dup1\n      dup4\n      sload\n      div\n      mul\n      dup4\n      mstore\n      swap2\n      0x20\n      add\n      swap2\n      jump(tag_337)\n    tag_338:\n      dup3\n      add\n      swap2\n      swap1\n      0x0\n      mstore\n      keccak256(0x0, 0x20)\n      swap1\n    tag_339:\n      dup2\n      sload\n      dup2\n      mstore\n      swap1\n      0x1\n      add\n      swap1\n      0x20\n      add\n      dup1\n      dup4\n      gt\n      tag_339\n      jumpi\n      dup3\n      swap1\n      sub\n      0x1f\n      and\n      dup3\n      add\n      swap2\n    tag_337:\n      pop\n      pop\n      pop\n      pop\n      pop\n      dup2\n      mstore\n      0x20\n      add\n      0x5\n      dup3\n      add\n      dup1\n      sload\n      0x1\n      dup2\n      0x1\n      and\n      iszero\n      0x100\n      mul\n      sub\n      and\n      0x2\n      swap1\n      div\n      dup1\n      0x1f\n      add\n      0x20\n      dup1\n      swap2\n      div\n      mul\n      0x20\n      add\n      mload(0x40)\n      swap1\n      dup2\n      add\n      0x40\n      mstore\n      dup1\n      swap3\n      swap2\n      swap1\n      dup2\n      dup2\n      mstore\n      0x20\n      add\n      dup3\n      dup1\n      sload\n      0x1\n      dup2\n      0x1\n      and\n      iszero\n      0x100\n      mul\n      sub\n      and\n      0x2\n      swap1\n      div\n      dup1\n      iszero\n      tag_340\n      jumpi\n      dup1\n      0x1f\n      lt\n      tag_341\n      jumpi\n      0x100\n      dup1\n      dup4\n      sload\n      div\n      mul\n      dup4\n      mstore\n      swap2\n      0x20\n      add\n      swap2\n      jump(tag_340)\n    tag_341:\n      dup3\n      add\n      swap2\n      swap1\n      0x0\n      mstore\n      keccak256(0x0, 0x20)\n      swap1\n    tag_342:\n      dup2\n      sload\n      dup2\n      mstore\n      swap1\n      0x1\n      add\n      swap1\n      0x20\n      add\n      dup1\n      dup4\n      gt\n      tag_342\n      jumpi\n      dup3\n      swap1\n      sub\n      0x1f\n      and\n      dup3\n      add\n      swap2\n    tag_340:\n      pop\n      pop\n      pop\n      pop\n      pop\n      dup2\n      mstore\n      0x20\n      add\n      0x6\n      dup3\n      add\n      dup1\n      sload\n      0x1\n      dup2\n      0x1\n      and\n      iszero\n      0x100\n      mul\n      sub\n      and\n      0x2\n      swap1\n      div\n      dup1\n      0x1f\n      add\n      0x20\n      dup1\n      swap2\n      div\n      mul\n      0x20\n      add\n      mload(0x40)\n      swap1\n      dup2\n      add\n      0x40\n      mstore\n      dup1\n      swap3\n      swap2\n      swap1\n      dup2\n      dup2\n      mstore\n      0x20\n      add\n      dup3\n      dup1\n      sload\n      0x1\n      dup2\n      0x1\n      and\n      iszero\n      0x100\n      mul\n      sub\n      and\n      0x2\n      swap1\n      div\n      dup1\n      iszero\n      tag_343\n      jumpi\n      dup1\n      0x1f\n      lt\n      tag_344\n      jumpi\n      0x100\n      dup1\n      dup4\n      sload\n      div\n      mul\n      dup4\n      mstore\n      swap2\n      0x20\n      add\n      swap2\n      jump(tag_343)\n    tag_344:\n      dup3\n      add\n      swap2\n      swap1\n      0x0\n      mstore\n      keccak256(0x0, 0x20)\n      swap1\n    tag_345:\n      dup2\n      sload\n      dup2\n      mstore\n      swap1\n      0x1\n      add\n      swap1\n      0x20\n      add\n      dup1\n      dup4\n      gt\n      tag_345\n      jumpi\n      dup3\n      swap1\n      sub\n      0x1f\n      and\n      dup3\n      add\n      swap2\n    tag_343:\n      pop\n      pop\n      pop\n      pop\n      pop\n      dup2\n      mstore\n      0x20\n      add\n      0x7\n      dup3\n      add\n      dup1\n      sload\n      0x1\n      dup2\n      0x1\n      and\n      iszero\n      0x100\n      mul\n      sub\n      and\n      0x2\n      swap1\n      div\n      dup1\n      0x1f\n      add\n      0x20\n      dup1\n      swap2\n      div\n      mul\n      0x20\n      add\n      mload(0x40)\n      swap1\n      dup2\n      add\n      0x40\n      mstore\n      dup1\n      swap3\n      swap2\n      swap1\n      dup2\n      dup2\n      mstore\n      0x20\n      add\n      dup3\n      dup1\n      sload\n      0x1\n      dup2\n      0x1\n      and\n      iszero\n      0x100\n      mul\n      sub\n      and\n      0x2\n      swap1\n      div\n      dup1\n      iszero\n      tag_346\n      jumpi\n      dup1\n      0x1f\n      lt\n      tag_347\n      jumpi\n      0x100\n      dup1\n      dup4\n      sload\n      div\n      mul\n      dup4\n      mstore\n      swap2\n      0x20\n      add\n      swap2\n      jump(tag_346)\n    tag_347:\n      dup3\n      add\n      swap2\n      swap1\n      0x0\n      mstore\n      keccak256(0x0, 0x20)\n      swap1\n    tag_348:\n      dup2\n      sload\n      dup2\n      mstore\n      swap1\n      0x1\n      add\n      swap1\n      0x20\n      add\n      dup1\n      dup4\n      gt\n      tag_348\n      jumpi\n      dup3\n      swap1\n      sub\n      0x1f\n      and\n      dup3\n      add\n      swap2\n    tag_346:\n      pop\n      pop\n      pop\n      pop\n      pop\n      dup2\n      mstore\n      0x20\n      add\n      0x8\n      dup3\n      add\n      sload\n      dup2\n      mstore\n      0x20\n      add\n      0x9\n      dup3\n      add\n      dup1\n      sload\n      0x1\n      dup2\n      0x1\n      and\n      iszero\n      0x100\n      mul\n      sub\n      and\n      0x2\n      swap1\n      div\n      dup1\n      0x1f\n      add\n      0x20\n      dup1\n      swap2\n      div\n      mul\n      0x20\n      add\n      mload(0x40)\n      swap1\n      dup2\n      add\n      0x40\n      mstore\n      dup1\n      swap3\n      swap2\n      swap1\n      dup2\n      dup2\n      mstore\n      0x20\n      add\n      dup3\n      dup1\n      sload\n      0x1\n      dup2\n      0x1\n      and\n      iszero\n      0x100\n      mul\n      sub\n      and\n      0x2\n      swap1\n      div\n      dup1\n      iszero\n      tag_349\n      jumpi\n      dup1\n      0x1f\n      lt\n      tag_350\n      jumpi\n      0x100\n      dup1\n      dup4\n      sload\n      div\n      mul\n      dup4\n      mstore\n      swap2\n      0x20\n      add\n      swap2\n      jump(tag_349)\n    tag_350:\n      dup3\n      add\n      swap2\n      swap1\n      0x0\n      mstore\n      keccak256(0x0, 0x20)\n      swap1\n    tag_351:\n      dup2\n      sload\n      dup2\n      mstore\n      swap1\n      0x1\n      add\n      swap1\n      0x20\n      add\n      dup1\n      dup4\n      gt\n      tag_351\n      jumpi\n      dup3\n      swap1\n      sub\n      0x1f\n      and\n      dup3\n      add\n      swap2\n    tag_349:\n      pop\n      pop\n      pop\n      pop\n      pop\n      dup2\n      mstore\n      0x20\n      add\n      0xa\n      dup3\n      add\n      sload\n      dup2\n      mstore\n      0x20\n      add\n      0xb\n      dup3\n      add\n      sload\n      dup2\n      mstore\n      0x20\n      add\n      0xc\n      dup3\n      add\n      0x0\n      swap1\n      sload\n      swap1\n      0x100\n      exp\n      swap1\n      div\n      0xff\n      and\n      0xc\n      dup2\n      gt\n      iszero\n      tag_352\n      jumpi\n      invalid\n    tag_352:\n      0xc\n      dup2\n      gt\n      iszero\n      tag_353\n      jumpi\n      invalid\n    tag_353:\n      dup2\n      mstore\n      0x20\n      add\n      0xc\n      dup3\n      add\n      0x1\n      swap1\n      sload\n      swap1\n      0x100\n      exp\n      swap1\n      div\n      0xffffffffffffffffffffffffffffffffffffffff\n      and\n      0xffffffffffffffffffffffffffffffffffffffff\n      and\n      0xffffffffffffffffffffffffffffffffffffffff\n      and\n      dup2\n      mstore\n      0x20\n      add\n      0xd\n      dup3\n      add\n      0x0\n      swap1\n      sload\n      swap1\n      0x100\n      exp\n      swap1\n      div\n      0xffffffffffffffffffffffffffffffffffffffff\n      and\n      0xffffffffffffffffffffffffffffffffffffffff\n      and\n      0xffffffffffffffffffffffffffffffffffffffff\n      and\n      dup2\n      mstore\n      0x20\n      add\n      0xe\n      dup3\n      add\n      0x0\n      swap1\n      sload\n      swap1\n      0x100\n      exp\n      swap1\n      div\n      0xffffffffffffffffffffffffffffffffffffffff\n      and\n      0xffffffffffffffffffffffffffffffffffffffff\n      and\n      0xffffffffffffffffffffffffffffffffffffffff\n      and\n      dup2\n      mstore\n      pop\n      pop\n      swap1\n      pop\n        /* \"contracts/SCbase/SupplyChain.sol\":17826:17830  item */\n      dup1\n        /* \"contracts/SCbase/SupplyChain.sol\":17826:17834  item.sku */\n      0x0\n      add\n      mload\n        /* \"contracts/SCbase/SupplyChain.sol\":17843:17847  item */\n      dup2\n        /* \"contracts/SCbase/SupplyChain.sol\":17843:17851  item.upc */\n      0x20\n      add\n      mload\n        /* \"contracts/SCbase/SupplyChain.sol\":17860:17864  item */\n      dup3\n        /* \"contracts/SCbase/SupplyChain.sol\":17860:17872  item.ownerID */\n      0x40\n      add\n      mload\n        /* \"contracts/SCbase/SupplyChain.sol\":17881:17885  item */\n      dup4\n        /* \"contracts/SCbase/SupplyChain.sol\":17881:17915  item.originCarParts_ManufacturerID */\n      0x60\n      add\n      mload\n        /* \"contracts/SCbase/SupplyChain.sol\":17924:17928  item */\n      dup5\n        /* \"contracts/SCbase/SupplyChain.sol\":17924:17946  item.originFactoryName */\n      0x80\n      add\n      mload\n        /* \"contracts/SCbase/SupplyChain.sol\":17955:17959  item */\n      dup6\n        /* \"contracts/SCbase/SupplyChain.sol\":17955:17984  item.originFactoryInformation */\n      0xa0\n      add\n      mload\n        /* \"contracts/SCbase/SupplyChain.sol\":17993:17997  item */\n      dup7\n        /* \"contracts/SCbase/SupplyChain.sol\":17993:18019  item.originFactoryLatitude */\n      0xc0\n      add\n      mload\n        /* \"contracts/SCbase/SupplyChain.sol\":18028:18032  item */\n      dup8\n        /* \"contracts/SCbase/SupplyChain.sol\":18028:18055  item.originFactoryLongitude */\n      0xe0\n      add\n      mload\n        /* \"contracts/SCbase/SupplyChain.sol\":18064:18068  item */\n      dup9\n        /* \"contracts/SCbase/SupplyChain.sol\":18064:18080  item.productDate */\n      0x140\n      add\n      mload\n        /* \"contracts/SCbase/SupplyChain.sol\":17805:18120  return\r... */\n      dup5\n      swap5\n      pop\n      dup4\n      swap4\n      pop\n      dup3\n      swap3\n      pop\n      dup2\n      swap2\n      pop\n      swap10\n      pop\n      swap10\n      pop\n      swap10\n      pop\n      swap10\n      pop\n      swap10\n      pop\n      swap10\n      pop\n      swap10\n      pop\n      swap10\n      pop\n      swap10\n      pop\n      pop\n        /* \"contracts/SCbase/SupplyChain.sol\":17307:18126  function fetchItemBufferOne(uint _upc) public view returns\r... */\n      swap2\n      swap4\n      swap6\n      swap8\n      swap10\n      swap1\n      swap3\n      swap5\n      swap7\n      swap9\n      pop\n      jump\t// out\n        /* \"contracts/SCaccesscontrol/CarParts_DistributorRole.sol\":1417:1516  function renounceCarParts_Distributor() public {\r... */\n    tag_137:\n        /* \"contracts/SCaccesscontrol/CarParts_DistributorRole.sol\":1471:1510  _removeCarParts_Distributor(msg.sender) */\n      tag_355\n        /* \"contracts/SCaccesscontrol/CarParts_DistributorRole.sol\":1499:1509  msg.sender */\n      caller\n        /* \"contracts/SCaccesscontrol/CarParts_DistributorRole.sol\":1471:1498  _removeCarParts_Distributor */\n      tag_356\n        /* \"contracts/SCaccesscontrol/CarParts_DistributorRole.sol\":1471:1510  _removeCarParts_Distributor(msg.sender) */\n      jump\t// in\n    tag_355:\n        /* \"contracts/SCaccesscontrol/CarParts_DistributorRole.sol\":1417:1516  function renounceCarParts_Distributor() public {\r... */\n      jump\t// out\n        /* \"contracts/SCaccesscontrol/RetailerRole.sol\":1045:1137  function addRetailer(address account) public onlyRetailer {\r... */\n    tag_141:\n        /* \"contracts/SCaccesscontrol/RetailerRole.sol\":776:798  isRetailer(msg.sender) */\n      tag_358\n        /* \"contracts/SCaccesscontrol/RetailerRole.sol\":787:797  msg.sender */\n      caller\n        /* \"contracts/SCaccesscontrol/RetailerRole.sol\":776:786  isRetailer */\n      tag_102\n        /* \"contracts/SCaccesscontrol/RetailerRole.sol\":776:798  isRetailer(msg.sender) */\n      jump\t// in\n    tag_358:\n        /* \"contracts/SCaccesscontrol/RetailerRole.sol\":768:799  require(isRetailer(msg.sender)) */\n      iszero\n      iszero\n      tag_359\n      jumpi\n      0x0\n      dup1\n      revert\n    tag_359:\n        /* \"contracts/SCaccesscontrol/RetailerRole.sol\":1110:1131  _addRetailer(account) */\n      tag_361\n        /* \"contracts/SCaccesscontrol/RetailerRole.sol\":1123:1130  account */\n      dup2\n        /* \"contracts/SCaccesscontrol/RetailerRole.sol\":1110:1122  _addRetailer */\n      tag_362\n        /* \"contracts/SCaccesscontrol/RetailerRole.sol\":1110:1131  _addRetailer(account) */\n      jump\t// in\n    tag_361:\n        /* \"contracts/SCaccesscontrol/RetailerRole.sol\":1045:1137  function addRetailer(address account) public onlyRetailer {\r... */\n      pop\n      jump\t// out\n        /* \"contracts/SCcore/Ownable.sol\":738:833  function isOwner() public view returns (bool) {\r... */\n    tag_144:\n        /* \"contracts/SCcore/Ownable.sol\":778:782  bool */\n      0x0\n        /* \"contracts/SCcore/Ownable.sol\":816:825  origOwner */\n      dup1\n      0x0\n      swap1\n      sload\n      swap1\n      0x100\n      exp\n      swap1\n      div\n      0xffffffffffffffffffffffffffffffffffffffff\n      and\n        /* \"contracts/SCcore/Ownable.sol\":802:825  msg.sender == origOwner */\n      0xffffffffffffffffffffffffffffffffffffffff\n      and\n        /* \"contracts/SCcore/Ownable.sol\":802:812  msg.sender */\n      caller\n        /* \"contracts/SCcore/Ownable.sol\":802:825  msg.sender == origOwner */\n      0xffffffffffffffffffffffffffffffffffffffff\n      and\n      eq\n        /* \"contracts/SCcore/Ownable.sol\":795:825  return msg.sender == origOwner */\n      swap1\n      pop\n        /* \"contracts/SCcore/Ownable.sol\":738:833  function isOwner() public view returns (bool) {\r... */\n      swap1\n      jump\t// out\n        /* \"contracts/SCbase/SupplyChain.sol\":15215:15623  function shippedItemByCarParts_Distributor(uint _upc) public\r... */\n    tag_148:\n        /* \"contracts/SCaccesscontrol/CarParts_DistributorRole.sol\":877:911  isCarParts_Distributor(msg.sender) */\n      tag_365\n        /* \"contracts/SCaccesscontrol/CarParts_DistributorRole.sol\":900:910  msg.sender */\n      caller\n        /* \"contracts/SCaccesscontrol/CarParts_DistributorRole.sol\":877:899  isCarParts_Distributor */\n      tag_184\n        /* \"contracts/SCaccesscontrol/CarParts_DistributorRole.sol\":877:911  isCarParts_Distributor(msg.sender) */\n      jump\t// in\n    tag_365:\n        /* \"contracts/SCaccesscontrol/CarParts_DistributorRole.sol\":869:912  require(isCarParts_Distributor(msg.sender)) */\n      iszero\n      iszero\n      tag_366\n      jumpi\n      0x0\n      dup1\n      revert\n    tag_366:\n        /* \"contracts/SCbase/SupplyChain.sol\":15389:15393  _upc */\n      dup1\n        /* \"contracts/SCbase/SupplyChain.sol\":6371:6396  State.PurchasedByRetailer */\n      0x8\n        /* \"contracts/SCbase/SupplyChain.sol\":6346:6396  items[_upc].itemState == State.PurchasedByRetailer */\n      0xc\n      dup2\n      gt\n      iszero\n      tag_368\n      jumpi\n      invalid\n    tag_368:\n        /* \"contracts/SCbase/SupplyChain.sol\":6346:6351  items */\n      0x8\n        /* \"contracts/SCbase/SupplyChain.sol\":6346:6357  items[_upc] */\n      0x0\n        /* \"contracts/SCbase/SupplyChain.sol\":6352:6356  _upc */\n      dup4\n        /* \"contracts/SCbase/SupplyChain.sol\":6346:6357  items[_upc] */\n      dup2\n      mstore\n      0x20\n      add\n      swap1\n      dup2\n      mstore\n      0x20\n      add\n      0x0\n      keccak256\n        /* \"contracts/SCbase/SupplyChain.sol\":6346:6367  items[_upc].itemState */\n      0xc\n      add\n      0x0\n      swap1\n      sload\n      swap1\n      0x100\n      exp\n      swap1\n      div\n      0xff\n      and\n        /* \"contracts/SCbase/SupplyChain.sol\":6346:6396  items[_upc].itemState == State.PurchasedByRetailer */\n      0xc\n      dup2\n      gt\n      iszero\n      tag_369\n      jumpi\n      invalid\n    tag_369:\n      eq\n        /* \"contracts/SCbase/SupplyChain.sol\":6338:6397  require(items[_upc].itemState == State.PurchasedByRetailer) */\n      iszero\n      iszero\n      tag_370\n      jumpi\n      0x0\n      dup1\n      revert\n    tag_370:\n        /* \"contracts/SCbase/SupplyChain.sol\":15413:15418  items */\n      0x8\n        /* \"contracts/SCbase/SupplyChain.sol\":15413:15424  items[_upc] */\n      0x0\n        /* \"contracts/SCbase/SupplyChain.sol\":15419:15423  _upc */\n      dup4\n        /* \"contracts/SCbase/SupplyChain.sol\":15413:15424  items[_upc] */\n      dup2\n      mstore\n      0x20\n      add\n      swap1\n      dup2\n      mstore\n      0x20\n      add\n      0x0\n      keccak256\n        /* \"contracts/SCbase/SupplyChain.sol\":15413:15447  items[_upc].CarParts_distributorID */\n      0xc\n      add\n      0x1\n      swap1\n      sload\n      swap1\n      0x100\n      exp\n      swap1\n      div\n      0xffffffffffffffffffffffffffffffffffffffff\n      and\n        /* \"contracts/SCbase/SupplyChain.sol\":4430:4438  _address */\n      dup1\n        /* \"contracts/SCbase/SupplyChain.sol\":4416:4438  msg.sender == _address */\n      0xffffffffffffffffffffffffffffffffffffffff\n      and\n        /* \"contracts/SCbase/SupplyChain.sol\":4416:4426  msg.sender */\n      caller\n        /* \"contracts/SCbase/SupplyChain.sol\":4416:4438  msg.sender == _address */\n      0xffffffffffffffffffffffffffffffffffffffff\n      and\n      eq\n        /* \"contracts/SCbase/SupplyChain.sol\":4408:4439  require(msg.sender == _address) */\n      iszero\n      iszero\n      tag_372\n      jumpi\n      0x0\n      dup1\n      revert\n    tag_372:\n        /* \"contracts/SCbase/SupplyChain.sol\":15533:15568  State.ShippedByCarParts_Distributor */\n      0x9\n        /* \"contracts/SCbase/SupplyChain.sol\":15509:15514  items */\n      0x8\n        /* \"contracts/SCbase/SupplyChain.sol\":15509:15520  items[_upc] */\n      0x0\n        /* \"contracts/SCbase/SupplyChain.sol\":15515:15519  _upc */\n      dup6\n        /* \"contracts/SCbase/SupplyChain.sol\":15509:15520  items[_upc] */\n      dup2\n      mstore\n      0x20\n      add\n      swap1\n      dup2\n      mstore\n      0x20\n      add\n      0x0\n      keccak256\n        /* \"contracts/SCbase/SupplyChain.sol\":15509:15530  items[_upc].itemState */\n      0xc\n      add\n      0x0\n        /* \"contracts/SCbase/SupplyChain.sol\":15509:15568  items[_upc].itemState = State.ShippedByCarParts_Distributor */\n      0x100\n      exp\n      dup2\n      sload\n      dup2\n      0xff\n      mul\n      not\n      and\n      swap1\n      dup4\n      0xc\n      dup2\n      gt\n      iszero\n      tag_374\n      jumpi\n      invalid\n    tag_374:\n      mul\n      or\n      swap1\n      sstore\n      pop\n        /* \"contracts/SCbase/SupplyChain.sol\":15582:15617  ShippedByCarParts_Distributor(_upc) */\n      0x4e7c14b88fc9d3a83f3e19d743228381a4afdfd4b1358478fe3a9206f1d0fcf7\n        /* \"contracts/SCbase/SupplyChain.sol\":15612:15616  _upc */\n      dup4\n        /* \"contracts/SCbase/SupplyChain.sol\":15582:15617  ShippedByCarParts_Distributor(_upc) */\n      mload(0x40)\n      dup1\n      dup3\n      dup2\n      mstore\n      0x20\n      add\n      swap2\n      pop\n      pop\n      mload(0x40)\n      dup1\n      swap2\n      sub\n      swap1\n      log1\n        /* \"contracts/SCbase/SupplyChain.sol\":6404:6405  _ */\n      pop\n        /* \"contracts/SCaccesscontrol/CarParts_DistributorRole.sol\":919:920  _ */\n      pop\n        /* \"contracts/SCbase/SupplyChain.sol\":15215:15623  function shippedItemByCarParts_Distributor(uint _upc) public\r... */\n      pop\n      jump\t// out\n        /* \"contracts/SCbase/SupplyChain.sol\":13969:14413  function sellItemByCarParts_Distributor(uint _upc, uint _price) public\r... */\n    tag_152:\n        /* \"contracts/SCaccesscontrol/CarParts_DistributorRole.sol\":877:911  isCarParts_Distributor(msg.sender) */\n      tag_376\n        /* \"contracts/SCaccesscontrol/CarParts_DistributorRole.sol\":900:910  msg.sender */\n      caller\n        /* \"contracts/SCaccesscontrol/CarParts_DistributorRole.sol\":877:899  isCarParts_Distributor */\n      tag_184\n        /* \"contracts/SCaccesscontrol/CarParts_DistributorRole.sol\":877:911  isCarParts_Distributor(msg.sender) */\n      jump\t// in\n    tag_376:\n        /* \"contracts/SCaccesscontrol/CarParts_DistributorRole.sol\":869:912  require(isCarParts_Distributor(msg.sender)) */\n      iszero\n      iszero\n      tag_377\n      jumpi\n      0x0\n      dup1\n      revert\n    tag_377:\n        /* \"contracts/SCbase/SupplyChain.sol\":14164:14168  _upc */\n      dup2\n        /* \"contracts/SCbase/SupplyChain.sol\":5941:5976  State.PackageByCarParts_Distributor */\n      0x6\n        /* \"contracts/SCbase/SupplyChain.sol\":5916:5976  items[_upc].itemState == State.PackageByCarParts_Distributor */\n      0xc\n      dup2\n      gt\n      iszero\n      tag_379\n      jumpi\n      invalid\n    tag_379:\n        /* \"contracts/SCbase/SupplyChain.sol\":5916:5921  items */\n      0x8\n        /* \"contracts/SCbase/SupplyChain.sol\":5916:5927  items[_upc] */\n      0x0\n        /* \"contracts/SCbase/SupplyChain.sol\":5922:5926  _upc */\n      dup4\n        /* \"contracts/SCbase/SupplyChain.sol\":5916:5927  items[_upc] */\n      dup2\n      mstore\n      0x20\n      add\n      swap1\n      dup2\n      mstore\n      0x20\n      add\n      0x0\n      keccak256\n        /* \"contracts/SCbase/SupplyChain.sol\":5916:5937  items[_upc].itemState */\n      0xc\n      add\n      0x0\n      swap1\n      sload\n      swap1\n      0x100\n      exp\n      swap1\n      div\n      0xff\n      and\n        /* \"contracts/SCbase/SupplyChain.sol\":5916:5976  items[_upc].itemState == State.PackageByCarParts_Distributor */\n      0xc\n      dup2\n      gt\n      iszero\n      tag_380\n      jumpi\n      invalid\n    tag_380:\n      eq\n        /* \"contracts/SCbase/SupplyChain.sol\":5908:5977  require(items[_upc].itemState == State.PackageByCarParts_Distributor) */\n      iszero\n      iszero\n      tag_381\n      jumpi\n      0x0\n      dup1\n      revert\n    tag_381:\n        /* \"contracts/SCbase/SupplyChain.sol\":14188:14193  items */\n      0x8\n        /* \"contracts/SCbase/SupplyChain.sol\":14188:14199  items[_upc] */\n      0x0\n        /* \"contracts/SCbase/SupplyChain.sol\":14194:14198  _upc */\n      dup5\n        /* \"contracts/SCbase/SupplyChain.sol\":14188:14199  items[_upc] */\n      dup2\n      mstore\n      0x20\n      add\n      swap1\n      dup2\n      mstore\n      0x20\n      add\n      0x0\n      keccak256\n        /* \"contracts/SCbase/SupplyChain.sol\":14188:14207  items[_upc].ownerID */\n      0x2\n      add\n      0x0\n      swap1\n      sload\n      swap1\n      0x100\n      exp\n      swap1\n      div\n      0xffffffffffffffffffffffffffffffffffffffff\n      and\n        /* \"contracts/SCbase/SupplyChain.sol\":4430:4438  _address */\n      dup1\n        /* \"contracts/SCbase/SupplyChain.sol\":4416:4438  msg.sender == _address */\n      0xffffffffffffffffffffffffffffffffffffffff\n      and\n        /* \"contracts/SCbase/SupplyChain.sol\":4416:4426  msg.sender */\n      caller\n        /* \"contracts/SCbase/SupplyChain.sol\":4416:4438  msg.sender == _address */\n      0xffffffffffffffffffffffffffffffffffffffff\n      and\n      eq\n        /* \"contracts/SCbase/SupplyChain.sol\":4408:4439  require(msg.sender == _address) */\n      iszero\n      iszero\n      tag_383\n      jumpi\n      0x0\n      dup1\n      revert\n    tag_383:\n        /* \"contracts/SCbase/SupplyChain.sol\":14278:14313  State.ForSaleByCarParts_Distributor */\n      0x7\n        /* \"contracts/SCbase/SupplyChain.sol\":14254:14259  items */\n      0x8\n        /* \"contracts/SCbase/SupplyChain.sol\":14254:14265  items[_upc] */\n      0x0\n        /* \"contracts/SCbase/SupplyChain.sol\":14260:14264  _upc */\n      dup7\n        /* \"contracts/SCbase/SupplyChain.sol\":14254:14265  items[_upc] */\n      dup2\n      mstore\n      0x20\n      add\n      swap1\n      dup2\n      mstore\n      0x20\n      add\n      0x0\n      keccak256\n        /* \"contracts/SCbase/SupplyChain.sol\":14254:14275  items[_upc].itemState */\n      0xc\n      add\n      0x0\n        /* \"contracts/SCbase/SupplyChain.sol\":14254:14313  items[_upc].itemState = State.ForSaleByCarParts_Distributor */\n      0x100\n      exp\n      dup2\n      sload\n      dup2\n      0xff\n      mul\n      not\n      and\n      swap1\n      dup4\n      0xc\n      dup2\n      gt\n      iszero\n      tag_385\n      jumpi\n      invalid\n    tag_385:\n      mul\n      or\n      swap1\n      sstore\n      pop\n        /* \"contracts/SCbase/SupplyChain.sol\":14351:14357  _price */\n      dup3\n        /* \"contracts/SCbase/SupplyChain.sol\":14324:14329  items */\n      0x8\n        /* \"contracts/SCbase/SupplyChain.sol\":14324:14335  items[_upc] */\n      0x0\n        /* \"contracts/SCbase/SupplyChain.sol\":14330:14334  _upc */\n      dup7\n        /* \"contracts/SCbase/SupplyChain.sol\":14324:14335  items[_upc] */\n      dup2\n      mstore\n      0x20\n      add\n      swap1\n      dup2\n      mstore\n      0x20\n      add\n      0x0\n      keccak256\n        /* \"contracts/SCbase/SupplyChain.sol\":14324:14348  items[_upc].productPrice */\n      0xb\n      add\n        /* \"contracts/SCbase/SupplyChain.sol\":14324:14357  items[_upc].productPrice = _price */\n      dup2\n      swap1\n      sstore\n      pop\n        /* \"contracts/SCbase/SupplyChain.sol\":14373:14407  ForSaleByCarParts_Distributor(upc) */\n      0xb4760b865b779f5a6d912d4e91c8c27ce2af98ed131c013c853c618a2d998cd9\n        /* \"contracts/SCbase/SupplyChain.sol\":14403:14406  upc */\n      sload(0x6)\n        /* \"contracts/SCbase/SupplyChain.sol\":14373:14407  ForSaleByCarParts_Distributor(upc) */\n      mload(0x40)\n      dup1\n      dup3\n      dup2\n      mstore\n      0x20\n      add\n      swap2\n      pop\n      pop\n      mload(0x40)\n      dup1\n      swap2\n      sub\n      swap1\n      log1\n        /* \"contracts/SCbase/SupplyChain.sol\":5984:5985  _ */\n      pop\n        /* \"contracts/SCaccesscontrol/CarParts_DistributorRole.sol\":919:920  _ */\n      pop\n        /* \"contracts/SCbase/SupplyChain.sol\":13969:14413  function sellItemByCarParts_Distributor(uint _upc, uint _price) public\r... */\n      pop\n      pop\n      jump\t// out\n        /* \"contracts/SCbase/SupplyChain.sol\":16578:17234  function purchaseItemByCustomer(uint _upc) public payable\r... */\n    tag_155:\n        /* \"contracts/SCaccesscontrol/CustomerRole.sol\":807:829  isCustomer(msg.sender) */\n      tag_387\n        /* \"contracts/SCaccesscontrol/CustomerRole.sol\":818:828  msg.sender */\n      caller\n        /* \"contracts/SCaccesscontrol/CustomerRole.sol\":807:817  isCustomer */\n      tag_56\n        /* \"contracts/SCaccesscontrol/CustomerRole.sol\":807:829  isCustomer(msg.sender) */\n      jump\t// in\n    tag_387:\n        /* \"contracts/SCaccesscontrol/CustomerRole.sol\":799:830  require(isCustomer(msg.sender)) */\n      iszero\n      iszero\n      tag_388\n      jumpi\n      0x0\n      dup1\n      revert\n    tag_388:\n        /* \"contracts/SCbase/SupplyChain.sol\":16724:16728  _upc */\n      dup1\n        /* \"contracts/SCbase/SupplyChain.sol\":6619:6642  State.ForSaleByRetailer */\n      0xb\n        /* \"contracts/SCbase/SupplyChain.sol\":6594:6642  items[_upc].itemState == State.ForSaleByRetailer */\n      0xc\n      dup2\n      gt\n      iszero\n      tag_390\n      jumpi\n      invalid\n    tag_390:\n        /* \"contracts/SCbase/SupplyChain.sol\":6594:6599  items */\n      0x8\n        /* \"contracts/SCbase/SupplyChain.sol\":6594:6605  items[_upc] */\n      0x0\n        /* \"contracts/SCbase/SupplyChain.sol\":6600:6604  _upc */\n      dup4\n        /* \"contracts/SCbase/SupplyChain.sol\":6594:6605  items[_upc] */\n      dup2\n      mstore\n      0x20\n      add\n      swap1\n      dup2\n      mstore\n      0x20\n      add\n      0x0\n      keccak256\n        /* \"contracts/SCbase/SupplyChain.sol\":6594:6615  items[_upc].itemState */\n      0xc\n      add\n      0x0\n      swap1\n      sload\n      swap1\n      0x100\n      exp\n      swap1\n      div\n      0xff\n      and\n        /* \"contracts/SCbase/SupplyChain.sol\":6594:6642  items[_upc].itemState == State.ForSaleByRetailer */\n      0xc\n      dup2\n      gt\n      iszero\n      tag_391\n      jumpi\n      invalid\n    tag_391:\n      eq\n        /* \"contracts/SCbase/SupplyChain.sol\":6586:6643  require(items[_upc].itemState == State.ForSaleByRetailer) */\n      iszero\n      iszero\n      tag_392\n      jumpi\n      0x0\n      dup1\n      revert\n    tag_392:\n        /* \"contracts/SCbase/SupplyChain.sol\":16746:16751  items */\n      0x8\n        /* \"contracts/SCbase/SupplyChain.sol\":16746:16757  items[_upc] */\n      0x0\n        /* \"contracts/SCbase/SupplyChain.sol\":16752:16756  _upc */\n      dup4\n        /* \"contracts/SCbase/SupplyChain.sol\":16746:16757  items[_upc] */\n      dup2\n      mstore\n      0x20\n      add\n      swap1\n      dup2\n      mstore\n      0x20\n      add\n      0x0\n      keccak256\n        /* \"contracts/SCbase/SupplyChain.sol\":16746:16770  items[_upc].productPrice */\n      0xb\n      add\n      sload\n        /* \"contracts/SCbase/SupplyChain.sol\":4608:4614  _price */\n      dup1\n        /* \"contracts/SCbase/SupplyChain.sol\":4595:4604  msg.value */\n      callvalue\n        /* \"contracts/SCbase/SupplyChain.sol\":4595:4614  msg.value >= _price */\n      lt\n      iszero\n        /* \"contracts/SCbase/SupplyChain.sol\":4587:4615  require(msg.value >= _price) */\n      iszero\n      iszero\n      tag_394\n      jumpi\n      0x0\n      dup1\n      revert\n    tag_394:\n        /* \"contracts/SCbase/SupplyChain.sol\":16788:16792  _upc */\n      dup3\n        /* \"contracts/SCbase/SupplyChain.sol\":16794:16804  msg.sender */\n      caller\n        /* \"contracts/SCbase/SupplyChain.sol\":4784:4795  uint _price */\n      0x0\n        /* \"contracts/SCbase/SupplyChain.sol\":4798:4803  items */\n      0x8\n        /* \"contracts/SCbase/SupplyChain.sol\":4798:4809  items[_upc] */\n      0x0\n        /* \"contracts/SCbase/SupplyChain.sol\":4804:4808  _upc */\n      dup5\n        /* \"contracts/SCbase/SupplyChain.sol\":4798:4809  items[_upc] */\n      dup2\n      mstore\n      0x20\n      add\n      swap1\n      dup2\n      mstore\n      0x20\n      add\n      0x0\n      keccak256\n        /* \"contracts/SCbase/SupplyChain.sol\":4798:4822  items[_upc].productPrice */\n      0xb\n      add\n      sload\n        /* \"contracts/SCbase/SupplyChain.sol\":4784:4822  uint _price = items[_upc].productPrice */\n      swap1\n      pop\n        /* \"contracts/SCbase/SupplyChain.sol\":4829:4849  uint  amountToReturn */\n      0x0\n        /* \"contracts/SCbase/SupplyChain.sol\":4864:4870  _price */\n      dup2\n        /* \"contracts/SCbase/SupplyChain.sol\":4852:4861  msg.value */\n      callvalue\n        /* \"contracts/SCbase/SupplyChain.sol\":4852:4870  msg.value - _price */\n      sub\n        /* \"contracts/SCbase/SupplyChain.sol\":4829:4870  uint  amountToReturn = msg.value - _price */\n      swap1\n      pop\n        /* \"contracts/SCbase/SupplyChain.sol\":4877:4890  addressToFund */\n      dup3\n        /* \"contracts/SCbase/SupplyChain.sol\":4877:4899  addressToFund.transfer */\n      0xffffffffffffffffffffffffffffffffffffffff\n      and\n        /* \"contracts/SCbase/SupplyChain.sol\":4877:4915  addressToFund.transfer(amountToReturn) */\n      0x8fc\n        /* \"contracts/SCbase/SupplyChain.sol\":4900:4914  amountToReturn */\n      dup3\n        /* \"contracts/SCbase/SupplyChain.sol\":4877:4915  addressToFund.transfer(amountToReturn) */\n      swap1\n      dup2\n      iszero\n      mul\n      swap1\n      mload(0x40)\n      0x0\n      mload(0x40)\n      dup1\n      dup4\n      sub\n      dup2\n      dup6\n      dup9\n      dup9\n      call\n      swap4\n      pop\n      pop\n      pop\n      pop\n      iszero\n        /* \"--CODEGEN--\":8:17   */\n      dup1\n        /* \"--CODEGEN--\":5:7   */\n      iszero\n      tag_396\n      jumpi\n        /* \"--CODEGEN--\":45:61   */\n      returndatasize\n        /* \"--CODEGEN--\":42:43   */\n      0x0\n        /* \"--CODEGEN--\":39:40   */\n      dup1\n        /* \"--CODEGEN--\":24:62   */\n      returndatacopy\n        /* \"--CODEGEN--\":77:93   */\n      returndatasize\n        /* \"--CODEGEN--\":74:75   */\n      0x0\n        /* \"--CODEGEN--\":67:94   */\n      revert\n        /* \"--CODEGEN--\":5:7   */\n    tag_396:\n        /* \"contracts/SCbase/SupplyChain.sol\":4877:4915  addressToFund.transfer(amountToReturn) */\n      pop\n        /* \"contracts/SCbase/SupplyChain.sol\":16845:16855  msg.sender */\n      caller\n        /* \"contracts/SCbase/SupplyChain.sol\":16820:16825  items */\n      0x8\n        /* \"contracts/SCbase/SupplyChain.sol\":16820:16831  items[_upc] */\n      0x0\n        /* \"contracts/SCbase/SupplyChain.sol\":16826:16830  _upc */\n      dup10\n        /* \"contracts/SCbase/SupplyChain.sol\":16820:16831  items[_upc] */\n      dup2\n      mstore\n      0x20\n      add\n      swap1\n      dup2\n      mstore\n      0x20\n      add\n      0x0\n      keccak256\n        /* \"contracts/SCbase/SupplyChain.sol\":16820:16842  items[_upc].customerID */\n      0xe\n      add\n      0x0\n        /* \"contracts/SCbase/SupplyChain.sol\":16820:16855  items[_upc].customerID = msg.sender */\n      0x100\n      exp\n      dup2\n      sload\n      dup2\n      0xffffffffffffffffffffffffffffffffffffffff\n      mul\n      not\n      and\n      swap1\n      dup4\n      0xffffffffffffffffffffffffffffffffffffffff\n      and\n      mul\n      or\n      swap1\n      sstore\n      pop\n        /* \"contracts/SCbase/SupplyChain.sol\":16864:16899  address payable ownerAddressPayable */\n      0x0\n        /* \"contracts/SCbase/SupplyChain.sol\":16902:16939  _make_payable(items[_upc].retailerID) */\n      tag_398\n        /* \"contracts/SCbase/SupplyChain.sol\":16916:16921  items */\n      0x8\n        /* \"contracts/SCbase/SupplyChain.sol\":16916:16927  items[_upc] */\n      0x0\n        /* \"contracts/SCbase/SupplyChain.sol\":16922:16926  _upc */\n      dup11\n        /* \"contracts/SCbase/SupplyChain.sol\":16916:16927  items[_upc] */\n      dup2\n      mstore\n      0x20\n      add\n      swap1\n      dup2\n      mstore\n      0x20\n      add\n      0x0\n      keccak256\n        /* \"contracts/SCbase/SupplyChain.sol\":16916:16938  items[_upc].retailerID */\n      0xd\n      add\n      0x0\n      swap1\n      sload\n      swap1\n      0x100\n      exp\n      swap1\n      div\n      0xffffffffffffffffffffffffffffffffffffffff\n      and\n        /* \"contracts/SCbase/SupplyChain.sol\":16902:16915  _make_payable */\n      tag_236\n        /* \"contracts/SCbase/SupplyChain.sol\":16902:16939  _make_payable(items[_upc].retailerID) */\n      jump\t// in\n    tag_398:\n        /* \"contracts/SCbase/SupplyChain.sol\":16864:16939  address payable ownerAddressPayable = _make_payable(items[_upc].retailerID) */\n      swap1\n      pop\n        /* \"contracts/SCbase/SupplyChain.sol\":16948:16967  ownerAddressPayable */\n      dup1\n        /* \"contracts/SCbase/SupplyChain.sol\":16948:16976  ownerAddressPayable.transfer */\n      0xffffffffffffffffffffffffffffffffffffffff\n      and\n        /* \"contracts/SCbase/SupplyChain.sol\":16948:17002  ownerAddressPayable.transfer(items[_upc].productPrice) */\n      0x8fc\n        /* \"contracts/SCbase/SupplyChain.sol\":16977:16982  items */\n      0x8\n        /* \"contracts/SCbase/SupplyChain.sol\":16977:16988  items[_upc] */\n      0x0\n        /* \"contracts/SCbase/SupplyChain.sol\":16983:16987  _upc */\n      dup12\n        /* \"contracts/SCbase/SupplyChain.sol\":16977:16988  items[_upc] */\n      dup2\n      mstore\n      0x20\n      add\n      swap1\n      dup2\n      mstore\n      0x20\n      add\n      0x0\n      keccak256\n        /* \"contracts/SCbase/SupplyChain.sol\":16977:17001  items[_upc].productPrice */\n      0xb\n      add\n      sload\n        /* \"contracts/SCbase/SupplyChain.sol\":16948:17002  ownerAddressPayable.transfer(items[_upc].productPrice) */\n      swap1\n      dup2\n      iszero\n      mul\n      swap1\n      mload(0x40)\n      0x0\n      mload(0x40)\n      dup1\n      dup4\n      sub\n      dup2\n      dup6\n      dup9\n      dup9\n      call\n      swap4\n      pop\n      pop\n      pop\n      pop\n      iszero\n        /* \"--CODEGEN--\":8:17   */\n      dup1\n        /* \"--CODEGEN--\":5:7   */\n      iszero\n      tag_399\n      jumpi\n        /* \"--CODEGEN--\":45:61   */\n      returndatasize\n        /* \"--CODEGEN--\":42:43   */\n      0x0\n        /* \"--CODEGEN--\":39:40   */\n      dup1\n        /* \"--CODEGEN--\":24:62   */\n      returndatacopy\n        /* \"--CODEGEN--\":77:93   */\n      returndatasize\n        /* \"--CODEGEN--\":74:75   */\n      0x0\n        /* \"--CODEGEN--\":67:94   */\n      revert\n        /* \"--CODEGEN--\":5:7   */\n    tag_399:\n        /* \"contracts/SCbase/SupplyChain.sol\":16948:17002  ownerAddressPayable.transfer(items[_upc].productPrice) */\n      pop\n        /* \"contracts/SCbase/SupplyChain.sol\":17033:17043  msg.sender */\n      caller\n        /* \"contracts/SCbase/SupplyChain.sol\":17011:17016  items */\n      0x8\n        /* \"contracts/SCbase/SupplyChain.sol\":17011:17022  items[_upc] */\n      0x0\n        /* \"contracts/SCbase/SupplyChain.sol\":17017:17021  _upc */\n      dup11\n        /* \"contracts/SCbase/SupplyChain.sol\":17011:17022  items[_upc] */\n      dup2\n      mstore\n      0x20\n      add\n      swap1\n      dup2\n      mstore\n      0x20\n      add\n      0x0\n      keccak256\n        /* \"contracts/SCbase/SupplyChain.sol\":17011:17030  items[_upc].ownerID */\n      0x2\n      add\n      0x0\n        /* \"contracts/SCbase/SupplyChain.sol\":17011:17043  items[_upc].ownerID = msg.sender */\n      0x100\n      exp\n      dup2\n      sload\n      dup2\n      0xffffffffffffffffffffffffffffffffffffffff\n      mul\n      not\n      and\n      swap1\n      dup4\n      0xffffffffffffffffffffffffffffffffffffffff\n      and\n      mul\n      or\n      swap1\n      sstore\n      pop\n        /* \"contracts/SCbase/SupplyChain.sol\":17077:17087  msg.sender */\n      caller\n        /* \"contracts/SCbase/SupplyChain.sol\":17052:17057  items */\n      0x8\n        /* \"contracts/SCbase/SupplyChain.sol\":17052:17063  items[_upc] */\n      0x0\n        /* \"contracts/SCbase/SupplyChain.sol\":17058:17062  _upc */\n      dup11\n        /* \"contracts/SCbase/SupplyChain.sol\":17052:17063  items[_upc] */\n      dup2\n      mstore\n      0x20\n      add\n      swap1\n      dup2\n      mstore\n      0x20\n      add\n      0x0\n      keccak256\n        /* \"contracts/SCbase/SupplyChain.sol\":17052:17074  items[_upc].customerID */\n      0xe\n      add\n      0x0\n        /* \"contracts/SCbase/SupplyChain.sol\":17052:17087  items[_upc].customerID = msg.sender */\n      0x100\n      exp\n      dup2\n      sload\n      dup2\n      0xffffffffffffffffffffffffffffffffffffffff\n      mul\n      not\n      and\n      swap1\n      dup4\n      0xffffffffffffffffffffffffffffffffffffffff\n      and\n      mul\n      or\n      swap1\n      sstore\n      pop\n        /* \"contracts/SCbase/SupplyChain.sol\":17120:17145  State.PurchasedByCustomer */\n      0xc\n        /* \"contracts/SCbase/SupplyChain.sol\":17096:17101  items */\n      0x8\n        /* \"contracts/SCbase/SupplyChain.sol\":17096:17107  items[_upc] */\n      0x0\n        /* \"contracts/SCbase/SupplyChain.sol\":17102:17106  _upc */\n      dup11\n        /* \"contracts/SCbase/SupplyChain.sol\":17096:17107  items[_upc] */\n      dup2\n      mstore\n      0x20\n      add\n      swap1\n      dup2\n      mstore\n      0x20\n      add\n      0x0\n      keccak256\n        /* \"contracts/SCbase/SupplyChain.sol\":17096:17117  items[_upc].itemState */\n      0xc\n      add\n      0x0\n        /* \"contracts/SCbase/SupplyChain.sol\":17096:17145  items[_upc].itemState = State.PurchasedByCustomer */\n      0x100\n      exp\n      dup2\n      sload\n      dup2\n      0xff\n      mul\n      not\n      and\n      swap1\n      dup4\n      0xc\n      dup2\n      gt\n      iszero\n      tag_400\n      jumpi\n      invalid\n    tag_400:\n      mul\n      or\n      swap1\n      sstore\n      pop\n        /* \"contracts/SCbase/SupplyChain.sol\":17179:17191  block.number */\n      number\n        /* \"contracts/SCbase/SupplyChain.sol\":17154:17166  itemsHistory */\n      0x9\n        /* \"contracts/SCbase/SupplyChain.sol\":17154:17172  itemsHistory[_upc] */\n      0x0\n        /* \"contracts/SCbase/SupplyChain.sol\":17167:17171  _upc */\n      dup11\n        /* \"contracts/SCbase/SupplyChain.sol\":17154:17172  itemsHistory[_upc] */\n      dup2\n      mstore\n      0x20\n      add\n      swap1\n      dup2\n      mstore\n      0x20\n      add\n      0x0\n      keccak256\n        /* \"contracts/SCbase/SupplyChain.sol\":17154:17176  itemsHistory[_upc].RTC */\n      0x2\n      add\n        /* \"contracts/SCbase/SupplyChain.sol\":17154:17191  itemsHistory[_upc].RTC = block.number */\n      dup2\n      swap1\n      sstore\n      pop\n        /* \"contracts/SCbase/SupplyChain.sol\":17203:17228  PurchasedByCustomer(_upc) */\n      0xfd054e59d299873fab61a3c67d86d3a139b75dcd5cd82894d8983fc5e2669c82\n        /* \"contracts/SCbase/SupplyChain.sol\":17223:17227  _upc */\n      dup9\n        /* \"contracts/SCbase/SupplyChain.sol\":17203:17228  PurchasedByCustomer(_upc) */\n      mload(0x40)\n      dup1\n      dup3\n      dup2\n      mstore\n      0x20\n      add\n      swap2\n      pop\n      pop\n      mload(0x40)\n      dup1\n      swap2\n      sub\n      swap1\n      log1\n        /* \"contracts/SCbase/SupplyChain.sol\":4922:4923  _ */\n      pop\n        /* \"contracts/SCbase/SupplyChain.sol\":4622:4623  _ */\n      pop\n      pop\n      pop\n      pop\n        /* \"contracts/SCbase/SupplyChain.sol\":6650:6651  _ */\n      pop\n        /* \"contracts/SCaccesscontrol/CustomerRole.sol\":837:838  _ */\n      pop\n        /* \"contracts/SCbase/SupplyChain.sol\":16578:17234  function purchaseItemByCustomer(uint _upc) public payable\r... */\n      pop\n      jump\t// out\n        /* \"contracts/SCbase/SupplyChain.sol\":10661:11735  function purchaseItemByCarParts_Distributor(uint _upc) public payable\r... */\n    tag_158:\n        /* \"contracts/SCaccesscontrol/CarParts_DistributorRole.sol\":877:911  isCarParts_Distributor(msg.sender) */\n      tag_402\n        /* \"contracts/SCaccesscontrol/CarParts_DistributorRole.sol\":900:910  msg.sender */\n      caller\n        /* \"contracts/SCaccesscontrol/CarParts_DistributorRole.sol\":877:899  isCarParts_Distributor */\n      tag_184\n        /* \"contracts/SCaccesscontrol/CarParts_DistributorRole.sol\":877:911  isCarParts_Distributor(msg.sender) */\n      jump\t// in\n    tag_402:\n        /* \"contracts/SCaccesscontrol/CarParts_DistributorRole.sol\":869:912  require(isCarParts_Distributor(msg.sender)) */\n      iszero\n      iszero\n      tag_403\n      jumpi\n      0x0\n      dup1\n      revert\n    tag_403:\n        /* \"contracts/SCbase/SupplyChain.sol\":10855:10859  _upc */\n      dup1\n        /* \"contracts/SCbase/SupplyChain.sol\":5199:5235  State.ForSaleByCarParts_Manufacturer */\n      0x1\n        /* \"contracts/SCbase/SupplyChain.sol\":5174:5235  items[_upc].itemState == State.ForSaleByCarParts_Manufacturer */\n      0xc\n      dup2\n      gt\n      iszero\n      tag_405\n      jumpi\n      invalid\n    tag_405:\n        /* \"contracts/SCbase/SupplyChain.sol\":5174:5179  items */\n      0x8\n        /* \"contracts/SCbase/SupplyChain.sol\":5174:5185  items[_upc] */\n      0x0\n        /* \"contracts/SCbase/SupplyChain.sol\":5180:5184  _upc */\n      dup4\n        /* \"contracts/SCbase/SupplyChain.sol\":5174:5185  items[_upc] */\n      dup2\n      mstore\n      0x20\n      add\n      swap1\n      dup2\n      mstore\n      0x20\n      add\n      0x0\n      keccak256\n        /* \"contracts/SCbase/SupplyChain.sol\":5174:5195  items[_upc].itemState */\n      0xc\n      add\n      0x0\n      swap1\n      sload\n      swap1\n      0x100\n      exp\n      swap1\n      div\n      0xff\n      and\n        /* \"contracts/SCbase/SupplyChain.sol\":5174:5235  items[_upc].itemState == State.ForSaleByCarParts_Manufacturer */\n      0xc\n      dup2\n      gt\n      iszero\n      tag_406\n      jumpi\n      invalid\n    tag_406:\n      eq\n        /* \"contracts/SCbase/SupplyChain.sol\":5166:5236  require(items[_upc].itemState == State.ForSaleByCarParts_Manufacturer) */\n      iszero\n      iszero\n      tag_407\n      jumpi\n      0x0\n      dup1\n      revert\n    tag_407:\n        /* \"contracts/SCbase/SupplyChain.sol\":10936:10941  items */\n      0x8\n        /* \"contracts/SCbase/SupplyChain.sol\":10936:10947  items[_upc] */\n      0x0\n        /* \"contracts/SCbase/SupplyChain.sol\":10942:10946  _upc */\n      dup4\n        /* \"contracts/SCbase/SupplyChain.sol\":10936:10947  items[_upc] */\n      dup2\n      mstore\n      0x20\n      add\n      swap1\n      dup2\n      mstore\n      0x20\n      add\n      0x0\n      keccak256\n        /* \"contracts/SCbase/SupplyChain.sol\":10936:10960  items[_upc].productPrice */\n      0xb\n      add\n      sload\n        /* \"contracts/SCbase/SupplyChain.sol\":4608:4614  _price */\n      dup1\n        /* \"contracts/SCbase/SupplyChain.sol\":4595:4604  msg.value */\n      callvalue\n        /* \"contracts/SCbase/SupplyChain.sol\":4595:4614  msg.value >= _price */\n      lt\n      iszero\n        /* \"contracts/SCbase/SupplyChain.sol\":4587:4615  require(msg.value >= _price) */\n      iszero\n      iszero\n      tag_409\n      jumpi\n      0x0\n      dup1\n      revert\n    tag_409:\n        /* \"contracts/SCbase/SupplyChain.sol\":11042:11046  _upc */\n      dup3\n        /* \"contracts/SCbase/SupplyChain.sol\":11048:11058  msg.sender */\n      caller\n        /* \"contracts/SCbase/SupplyChain.sol\":4784:4795  uint _price */\n      0x0\n        /* \"contracts/SCbase/SupplyChain.sol\":4798:4803  items */\n      0x8\n        /* \"contracts/SCbase/SupplyChain.sol\":4798:4809  items[_upc] */\n      0x0\n        /* \"contracts/SCbase/SupplyChain.sol\":4804:4808  _upc */\n      dup5\n        /* \"contracts/SCbase/SupplyChain.sol\":4798:4809  items[_upc] */\n      dup2\n      mstore\n      0x20\n      add\n      swap1\n      dup2\n      mstore\n      0x20\n      add\n      0x0\n      keccak256\n        /* \"contracts/SCbase/SupplyChain.sol\":4798:4822  items[_upc].productPrice */\n      0xb\n      add\n      sload\n        /* \"contracts/SCbase/SupplyChain.sol\":4784:4822  uint _price = items[_upc].productPrice */\n      swap1\n      pop\n        /* \"contracts/SCbase/SupplyChain.sol\":4829:4849  uint  amountToReturn */\n      0x0\n        /* \"contracts/SCbase/SupplyChain.sol\":4864:4870  _price */\n      dup2\n        /* \"contracts/SCbase/SupplyChain.sol\":4852:4861  msg.value */\n      callvalue\n        /* \"contracts/SCbase/SupplyChain.sol\":4852:4870  msg.value - _price */\n      sub\n        /* \"contracts/SCbase/SupplyChain.sol\":4829:4870  uint  amountToReturn = msg.value - _price */\n      swap1\n      pop\n        /* \"contracts/SCbase/SupplyChain.sol\":4877:4890  addressToFund */\n      dup3\n        /* \"contracts/SCbase/SupplyChain.sol\":4877:4899  addressToFund.transfer */\n      0xffffffffffffffffffffffffffffffffffffffff\n      and\n        /* \"contracts/SCbase/SupplyChain.sol\":4877:4915  addressToFund.transfer(amountToReturn) */\n      0x8fc\n        /* \"contracts/SCbase/SupplyChain.sol\":4900:4914  amountToReturn */\n      dup3\n        /* \"contracts/SCbase/SupplyChain.sol\":4877:4915  addressToFund.transfer(amountToReturn) */\n      swap1\n      dup2\n      iszero\n      mul\n      swap1\n      mload(0x40)\n      0x0\n      mload(0x40)\n      dup1\n      dup4\n      sub\n      dup2\n      dup6\n      dup9\n      dup9\n      call\n      swap4\n      pop\n      pop\n      pop\n      pop\n      iszero\n        /* \"--CODEGEN--\":8:17   */\n      dup1\n        /* \"--CODEGEN--\":5:7   */\n      iszero\n      tag_411\n      jumpi\n        /* \"--CODEGEN--\":45:61   */\n      returndatasize\n        /* \"--CODEGEN--\":42:43   */\n      0x0\n        /* \"--CODEGEN--\":39:40   */\n      dup1\n        /* \"--CODEGEN--\":24:62   */\n      returndatacopy\n        /* \"--CODEGEN--\":77:93   */\n      returndatasize\n        /* \"--CODEGEN--\":74:75   */\n      0x0\n        /* \"--CODEGEN--\":67:94   */\n      revert\n        /* \"--CODEGEN--\":5:7   */\n    tag_411:\n        /* \"contracts/SCbase/SupplyChain.sol\":4877:4915  addressToFund.transfer(amountToReturn) */\n      pop\n        /* \"contracts/SCbase/SupplyChain.sol\":11134:11169  address payable ownerAddressPayable */\n      0x0\n        /* \"contracts/SCbase/SupplyChain.sol\":11172:11228  _make_payable(items[_upc].originCarParts_ManufacturerID) */\n      tag_413\n        /* \"contracts/SCbase/SupplyChain.sol\":11186:11191  items */\n      0x8\n        /* \"contracts/SCbase/SupplyChain.sol\":11186:11197  items[_upc] */\n      0x0\n        /* \"contracts/SCbase/SupplyChain.sol\":11192:11196  _upc */\n      dup11\n        /* \"contracts/SCbase/SupplyChain.sol\":11186:11197  items[_upc] */\n      dup2\n      mstore\n      0x20\n      add\n      swap1\n      dup2\n      mstore\n      0x20\n      add\n      0x0\n      keccak256\n        /* \"contracts/SCbase/SupplyChain.sol\":11186:11227  items[_upc].originCarParts_ManufacturerID */\n      0x3\n      add\n      0x0\n      swap1\n      sload\n      swap1\n      0x100\n      exp\n      swap1\n      div\n      0xffffffffffffffffffffffffffffffffffffffff\n      and\n        /* \"contracts/SCbase/SupplyChain.sol\":11172:11185  _make_payable */\n      tag_236\n        /* \"contracts/SCbase/SupplyChain.sol\":11172:11228  _make_payable(items[_upc].originCarParts_ManufacturerID) */\n      jump\t// in\n    tag_413:\n        /* \"contracts/SCbase/SupplyChain.sol\":11134:11228  address payable ownerAddressPayable = _make_payable(items[_upc].originCarParts_ManufacturerID) */\n      swap1\n      pop\n        /* \"contracts/SCbase/SupplyChain.sol\":11267:11286  ownerAddressPayable */\n      dup1\n        /* \"contracts/SCbase/SupplyChain.sol\":11267:11295  ownerAddressPayable.transfer */\n      0xffffffffffffffffffffffffffffffffffffffff\n      and\n        /* \"contracts/SCbase/SupplyChain.sol\":11267:11321  ownerAddressPayable.transfer(items[_upc].productPrice) */\n      0x8fc\n        /* \"contracts/SCbase/SupplyChain.sol\":11296:11301  items */\n      0x8\n        /* \"contracts/SCbase/SupplyChain.sol\":11296:11307  items[_upc] */\n      0x0\n        /* \"contracts/SCbase/SupplyChain.sol\":11302:11306  _upc */\n      dup12\n        /* \"contracts/SCbase/SupplyChain.sol\":11296:11307  items[_upc] */\n      dup2\n      mstore\n      0x20\n      add\n      swap1\n      dup2\n      mstore\n      0x20\n      add\n      0x0\n      keccak256\n        /* \"contracts/SCbase/SupplyChain.sol\":11296:11320  items[_upc].productPrice */\n      0xb\n      add\n      sload\n        /* \"contracts/SCbase/SupplyChain.sol\":11267:11321  ownerAddressPayable.transfer(items[_upc].productPrice) */\n      swap1\n      dup2\n      iszero\n      mul\n      swap1\n      mload(0x40)\n      0x0\n      mload(0x40)\n      dup1\n      dup4\n      sub\n      dup2\n      dup6\n      dup9\n      dup9\n      call\n      swap4\n      pop\n      pop\n      pop\n      pop\n      iszero\n        /* \"--CODEGEN--\":8:17   */\n      dup1\n        /* \"--CODEGEN--\":5:7   */\n      iszero\n      tag_414\n      jumpi\n        /* \"--CODEGEN--\":45:61   */\n      returndatasize\n        /* \"--CODEGEN--\":42:43   */\n      0x0\n        /* \"--CODEGEN--\":39:40   */\n      dup1\n        /* \"--CODEGEN--\":24:62   */\n      returndatacopy\n        /* \"--CODEGEN--\":77:93   */\n      returndatasize\n        /* \"--CODEGEN--\":74:75   */\n      0x0\n        /* \"--CODEGEN--\":67:94   */\n      revert\n        /* \"--CODEGEN--\":5:7   */\n    tag_414:\n        /* \"contracts/SCbase/SupplyChain.sol\":11267:11321  ownerAddressPayable.transfer(items[_upc].productPrice) */\n      pop\n        /* \"contracts/SCbase/SupplyChain.sol\":11419:11429  msg.sender */\n      caller\n        /* \"contracts/SCbase/SupplyChain.sol\":11397:11402  items */\n      0x8\n        /* \"contracts/SCbase/SupplyChain.sol\":11397:11408  items[_upc] */\n      0x0\n        /* \"contracts/SCbase/SupplyChain.sol\":11403:11407  _upc */\n      dup11\n        /* \"contracts/SCbase/SupplyChain.sol\":11397:11408  items[_upc] */\n      dup2\n      mstore\n      0x20\n      add\n      swap1\n      dup2\n      mstore\n      0x20\n      add\n      0x0\n      keccak256\n        /* \"contracts/SCbase/SupplyChain.sol\":11397:11416  items[_upc].ownerID */\n      0x2\n      add\n      0x0\n        /* \"contracts/SCbase/SupplyChain.sol\":11397:11429  items[_upc].ownerID = msg.sender */\n      0x100\n      exp\n      dup2\n      sload\n      dup2\n      0xffffffffffffffffffffffffffffffffffffffff\n      mul\n      not\n      and\n      swap1\n      dup4\n      0xffffffffffffffffffffffffffffffffffffffff\n      and\n      mul\n      or\n      swap1\n      sstore\n      pop\n        /* \"contracts/SCbase/SupplyChain.sol\":11489:11499  msg.sender */\n      caller\n        /* \"contracts/SCbase/SupplyChain.sol\":11452:11457  items */\n      0x8\n        /* \"contracts/SCbase/SupplyChain.sol\":11452:11463  items[_upc] */\n      0x0\n        /* \"contracts/SCbase/SupplyChain.sol\":11458:11462  _upc */\n      dup11\n        /* \"contracts/SCbase/SupplyChain.sol\":11452:11463  items[_upc] */\n      dup2\n      mstore\n      0x20\n      add\n      swap1\n      dup2\n      mstore\n      0x20\n      add\n      0x0\n      keccak256\n        /* \"contracts/SCbase/SupplyChain.sol\":11452:11486  items[_upc].CarParts_distributorID */\n      0xc\n      add\n      0x1\n        /* \"contracts/SCbase/SupplyChain.sol\":11452:11499  items[_upc].CarParts_distributorID = msg.sender */\n      0x100\n      exp\n      dup2\n      sload\n      dup2\n      0xffffffffffffffffffffffffffffffffffffffff\n      mul\n      not\n      and\n      swap1\n      dup4\n      0xffffffffffffffffffffffffffffffffffffffff\n      and\n      mul\n      or\n      swap1\n      sstore\n      pop\n        /* \"contracts/SCbase/SupplyChain.sol\":11561:11598  State.PurchasedByCarParts_Distributor */\n      0x2\n        /* \"contracts/SCbase/SupplyChain.sol\":11537:11542  items */\n      0x8\n        /* \"contracts/SCbase/SupplyChain.sol\":11537:11548  items[_upc] */\n      0x0\n        /* \"contracts/SCbase/SupplyChain.sol\":11543:11547  _upc */\n      dup11\n        /* \"contracts/SCbase/SupplyChain.sol\":11537:11548  items[_upc] */\n      dup2\n      mstore\n      0x20\n      add\n      swap1\n      dup2\n      mstore\n      0x20\n      add\n      0x0\n      keccak256\n        /* \"contracts/SCbase/SupplyChain.sol\":11537:11558  items[_upc].itemState */\n      0xc\n      add\n      0x0\n        /* \"contracts/SCbase/SupplyChain.sol\":11537:11598  items[_upc].itemState = State.PurchasedByCarParts_Distributor */\n      0x100\n      exp\n      dup2\n      sload\n      dup2\n      0xff\n      mul\n      not\n      and\n      swap1\n      dup4\n      0xc\n      dup2\n      gt\n      iszero\n      tag_415\n      jumpi\n      invalid\n    tag_415:\n      mul\n      or\n      swap1\n      sstore\n      pop\n        /* \"contracts/SCbase/SupplyChain.sol\":11646:11658  block.number */\n      number\n        /* \"contracts/SCbase/SupplyChain.sol\":11621:11633  itemsHistory */\n      0x9\n        /* \"contracts/SCbase/SupplyChain.sol\":11621:11639  itemsHistory[_upc] */\n      0x0\n        /* \"contracts/SCbase/SupplyChain.sol\":11634:11638  _upc */\n      dup11\n        /* \"contracts/SCbase/SupplyChain.sol\":11621:11639  itemsHistory[_upc] */\n      dup2\n      mstore\n      0x20\n      add\n      swap1\n      dup2\n      mstore\n      0x20\n      add\n      0x0\n      keccak256\n        /* \"contracts/SCbase/SupplyChain.sol\":11621:11643  itemsHistory[_upc].FTD */\n      0x0\n      add\n        /* \"contracts/SCbase/SupplyChain.sol\":11621:11658  itemsHistory[_upc].FTD = block.number */\n      dup2\n      swap1\n      sstore\n      pop\n        /* \"contracts/SCbase/SupplyChain.sol\":11690:11727  PurchasedByCarParts_Distributor(_upc) */\n      0x36272a130d69ca0cef5a4cb9dff9b680243a98ba47e15416f452c6dd3e8ecc45\n        /* \"contracts/SCbase/SupplyChain.sol\":11722:11726  _upc */\n      dup9\n        /* \"contracts/SCbase/SupplyChain.sol\":11690:11727  PurchasedByCarParts_Distributor(_upc) */\n      mload(0x40)\n      dup1\n      dup3\n      dup2\n      mstore\n      0x20\n      add\n      swap2\n      pop\n      pop\n      mload(0x40)\n      dup1\n      swap2\n      sub\n      swap1\n      log1\n        /* \"contracts/SCbase/SupplyChain.sol\":4922:4923  _ */\n      pop\n        /* \"contracts/SCbase/SupplyChain.sol\":4622:4623  _ */\n      pop\n      pop\n      pop\n      pop\n        /* \"contracts/SCbase/SupplyChain.sol\":5243:5244  _ */\n      pop\n        /* \"contracts/SCaccesscontrol/CarParts_DistributorRole.sol\":919:920  _ */\n      pop\n        /* \"contracts/SCbase/SupplyChain.sol\":10661:11735  function purchaseItemByCarParts_Distributor(uint _upc) public payable\r... */\n      pop\n      jump\t// out\n        /* \"contracts/SCaccesscontrol/CustomerRole.sol\":1076:1168  function addCustomer(address account) public onlyCustomer {\r... */\n    tag_162:\n        /* \"contracts/SCaccesscontrol/CustomerRole.sol\":807:829  isCustomer(msg.sender) */\n      tag_417\n        /* \"contracts/SCaccesscontrol/CustomerRole.sol\":818:828  msg.sender */\n      caller\n        /* \"contracts/SCaccesscontrol/CustomerRole.sol\":807:817  isCustomer */\n      tag_56\n        /* \"contracts/SCaccesscontrol/CustomerRole.sol\":807:829  isCustomer(msg.sender) */\n      jump\t// in\n    tag_417:\n        /* \"contracts/SCaccesscontrol/CustomerRole.sol\":799:830  require(isCustomer(msg.sender)) */\n      iszero\n      iszero\n      tag_418\n      jumpi\n      0x0\n      dup1\n      revert\n    tag_418:\n        /* \"contracts/SCaccesscontrol/CustomerRole.sol\":1141:1162  _addCustomer(account) */\n      tag_420\n        /* \"contracts/SCaccesscontrol/CustomerRole.sol\":1154:1161  account */\n      dup2\n        /* \"contracts/SCaccesscontrol/CustomerRole.sol\":1141:1153  _addCustomer */\n      tag_421\n        /* \"contracts/SCaccesscontrol/CustomerRole.sol\":1141:1162  _addCustomer(account) */\n      jump\t// in\n    tag_420:\n        /* \"contracts/SCaccesscontrol/CustomerRole.sol\":1076:1168  function addCustomer(address account) public onlyCustomer {\r... */\n      pop\n      jump\t// out\n        /* \"contracts/SCaccesscontrol/CustomerRole.sol\":1239:1326  function renounceCustomer(address account) public {\r... */\n    tag_166:\n        /* \"contracts/SCaccesscontrol/CustomerRole.sol\":1296:1320  _removeCustomer(account) */\n      tag_423\n        /* \"contracts/SCaccesscontrol/CustomerRole.sol\":1312:1319  account */\n      dup2\n        /* \"contracts/SCaccesscontrol/CustomerRole.sol\":1296:1311  _removeCustomer */\n      tag_424\n        /* \"contracts/SCaccesscontrol/CustomerRole.sol\":1296:1320  _removeCustomer(account) */\n      jump\t// in\n    tag_423:\n        /* \"contracts/SCaccesscontrol/CustomerRole.sol\":1239:1326  function renounceCustomer(address account) public {\r... */\n      pop\n      jump\t// out\n        /* \"contracts/SCaccesscontrol/CarParts_ManufacturerRole.sol\":1017:1149  function isCarParts_Manufacturer(address account) public view returns (bool) {\r... */\n    tag_170:\n        /* \"contracts/SCaccesscontrol/CarParts_ManufacturerRole.sol\":1088:1092  bool */\n      0x0\n        /* \"contracts/SCaccesscontrol/CarParts_ManufacturerRole.sol\":1108:1143  carParts_Manufacturers.has(account) */\n      tag_426\n        /* \"contracts/SCaccesscontrol/CarParts_ManufacturerRole.sol\":1135:1142  account */\n      dup3\n        /* \"contracts/SCaccesscontrol/CarParts_ManufacturerRole.sol\":1108:1130  carParts_Manufacturers */\n      0x1\n        /* \"contracts/SCaccesscontrol/CarParts_ManufacturerRole.sol\":1108:1134  carParts_Manufacturers.has */\n      tag_241\n      swap1\n        /* \"contracts/SCaccesscontrol/CarParts_ManufacturerRole.sol\":1108:1143  carParts_Manufacturers.has(account) */\n      swap2\n      swap1\n      0xffffffff\n      and\n      jump\t// in\n    tag_426:\n        /* \"contracts/SCaccesscontrol/CarParts_ManufacturerRole.sol\":1101:1143  return carParts_Manufacturers.has(account) */\n      swap1\n      pop\n        /* \"contracts/SCaccesscontrol/CarParts_ManufacturerRole.sol\":1017:1149  function isCarParts_Manufacturer(address account) public view returns (bool) {\r... */\n      swap2\n      swap1\n      pop\n      jump\t// out\n        /* \"contracts/SCbase/SupplyChain.sol\":13493:13876  function packageItemByCarParts_Distributor(uint _upc) public\r... */\n    tag_174:\n        /* \"contracts/SCaccesscontrol/CarParts_DistributorRole.sol\":877:911  isCarParts_Distributor(msg.sender) */\n      tag_428\n        /* \"contracts/SCaccesscontrol/CarParts_DistributorRole.sol\":900:910  msg.sender */\n      caller\n        /* \"contracts/SCaccesscontrol/CarParts_DistributorRole.sol\":877:899  isCarParts_Distributor */\n      tag_184\n        /* \"contracts/SCaccesscontrol/CarParts_DistributorRole.sol\":877:911  isCarParts_Distributor(msg.sender) */\n      jump\t// in\n    tag_428:\n        /* \"contracts/SCaccesscontrol/CarParts_DistributorRole.sol\":869:912  require(isCarParts_Distributor(msg.sender)) */\n      iszero\n      iszero\n      tag_429\n      jumpi\n      0x0\n      dup1\n      revert\n    tag_429:\n        /* \"contracts/SCbase/SupplyChain.sol\":13677:13681  _upc */\n      dup1\n        /* \"contracts/SCbase/SupplyChain.sol\":5792:5829  State.ProcessedByCarParts_Distributor */\n      0x5\n        /* \"contracts/SCbase/SupplyChain.sol\":5767:5829  items[_upc].itemState == State.ProcessedByCarParts_Distributor */\n      0xc\n      dup2\n      gt\n      iszero\n      tag_431\n      jumpi\n      invalid\n    tag_431:\n        /* \"contracts/SCbase/SupplyChain.sol\":5767:5772  items */\n      0x8\n        /* \"contracts/SCbase/SupplyChain.sol\":5767:5778  items[_upc] */\n      0x0\n        /* \"contracts/SCbase/SupplyChain.sol\":5773:5777  _upc */\n      dup4\n        /* \"contracts/SCbase/SupplyChain.sol\":5767:5778  items[_upc] */\n      dup2\n      mstore\n      0x20\n      add\n      swap1\n      dup2\n      mstore\n      0x20\n      add\n      0x0\n      keccak256\n        /* \"contracts/SCbase/SupplyChain.sol\":5767:5788  items[_upc].itemState */\n      0xc\n      add\n      0x0\n      swap1\n      sload\n      swap1\n      0x100\n      exp\n      swap1\n      div\n      0xff\n      and\n        /* \"contracts/SCbase/SupplyChain.sol\":5767:5829  items[_upc].itemState == State.ProcessedByCarParts_Distributor */\n      0xc\n      dup2\n      gt\n      iszero\n      tag_432\n      jumpi\n      invalid\n    tag_432:\n      eq\n        /* \"contracts/SCbase/SupplyChain.sol\":5759:5830  require(items[_upc].itemState == State.ProcessedByCarParts_Distributor) */\n      iszero\n      iszero\n      tag_433\n      jumpi\n      0x0\n      dup1\n      revert\n    tag_433:\n        /* \"contracts/SCbase/SupplyChain.sol\":13701:13706  items */\n      0x8\n        /* \"contracts/SCbase/SupplyChain.sol\":13701:13712  items[_upc] */\n      0x0\n        /* \"contracts/SCbase/SupplyChain.sol\":13707:13711  _upc */\n      dup4\n        /* \"contracts/SCbase/SupplyChain.sol\":13701:13712  items[_upc] */\n      dup2\n      mstore\n      0x20\n      add\n      swap1\n      dup2\n      mstore\n      0x20\n      add\n      0x0\n      keccak256\n        /* \"contracts/SCbase/SupplyChain.sol\":13701:13720  items[_upc].ownerID */\n      0x2\n      add\n      0x0\n      swap1\n      sload\n      swap1\n      0x100\n      exp\n      swap1\n      div\n      0xffffffffffffffffffffffffffffffffffffffff\n      and\n        /* \"contracts/SCbase/SupplyChain.sol\":4430:4438  _address */\n      dup1\n        /* \"contracts/SCbase/SupplyChain.sol\":4416:4438  msg.sender == _address */\n      0xffffffffffffffffffffffffffffffffffffffff\n      and\n        /* \"contracts/SCbase/SupplyChain.sol\":4416:4426  msg.sender */\n      caller\n        /* \"contracts/SCbase/SupplyChain.sol\":4416:4438  msg.sender == _address */\n      0xffffffffffffffffffffffffffffffffffffffff\n      and\n      eq\n        /* \"contracts/SCbase/SupplyChain.sol\":4408:4439  require(msg.sender == _address) */\n      iszero\n      iszero\n      tag_435\n      jumpi\n      0x0\n      dup1\n      revert\n    tag_435:\n        /* \"contracts/SCbase/SupplyChain.sol\":13787:13822  State.PackageByCarParts_Distributor */\n      0x6\n        /* \"contracts/SCbase/SupplyChain.sol\":13763:13768  items */\n      0x8\n        /* \"contracts/SCbase/SupplyChain.sol\":13763:13774  items[_upc] */\n      0x0\n        /* \"contracts/SCbase/SupplyChain.sol\":13769:13773  _upc */\n      dup6\n        /* \"contracts/SCbase/SupplyChain.sol\":13763:13774  items[_upc] */\n      dup2\n      mstore\n      0x20\n      add\n      swap1\n      dup2\n      mstore\n      0x20\n      add\n      0x0\n      keccak256\n        /* \"contracts/SCbase/SupplyChain.sol\":13763:13784  items[_upc].itemState */\n      0xc\n      add\n      0x0\n        /* \"contracts/SCbase/SupplyChain.sol\":13763:13822  items[_upc].itemState = State.PackageByCarParts_Distributor */\n      0x100\n      exp\n      dup2\n      sload\n      dup2\n      0xff\n      mul\n      not\n      and\n      swap1\n      dup4\n      0xc\n      dup2\n      gt\n      iszero\n      tag_437\n      jumpi\n      invalid\n    tag_437:\n      mul\n      or\n      swap1\n      sstore\n      pop\n        /* \"contracts/SCbase/SupplyChain.sol\":13834:13870  PackagedByCarParts_Distributor(_upc) */\n      0xc64b5aff5d6ae9ab5bf3bb4d23925f55053719a5a1941a6b59fcc0c8ecced121\n        /* \"contracts/SCbase/SupplyChain.sol\":13865:13869  _upc */\n      dup4\n        /* \"contracts/SCbase/SupplyChain.sol\":13834:13870  PackagedByCarParts_Distributor(_upc) */\n      mload(0x40)\n      dup1\n      dup3\n      dup2\n      mstore\n      0x20\n      add\n      swap2\n      pop\n      pop\n      mload(0x40)\n      dup1\n      swap2\n      sub\n      swap1\n      log1\n        /* \"contracts/SCbase/SupplyChain.sol\":5837:5838  _ */\n      pop\n        /* \"contracts/SCaccesscontrol/CarParts_DistributorRole.sol\":919:920  _ */\n      pop\n        /* \"contracts/SCbase/SupplyChain.sol\":13493:13876  function packageItemByCarParts_Distributor(uint _upc) public\r... */\n      pop\n      jump\t// out\n        /* \"contracts/SCaccesscontrol/RetailerRole.sol\":1208:1283  function renounceRetailer() public {\r... */\n    tag_177:\n        /* \"contracts/SCaccesscontrol/RetailerRole.sol\":1250:1277  _removeRetailer(msg.sender) */\n      tag_439\n        /* \"contracts/SCaccesscontrol/RetailerRole.sol\":1266:1276  msg.sender */\n      caller\n        /* \"contracts/SCaccesscontrol/RetailerRole.sol\":1250:1265  _removeRetailer */\n      tag_440\n        /* \"contracts/SCaccesscontrol/RetailerRole.sol\":1250:1277  _removeRetailer(msg.sender) */\n      jump\t// in\n    tag_439:\n        /* \"contracts/SCaccesscontrol/RetailerRole.sol\":1208:1283  function renounceRetailer() public {\r... */\n      jump\t// out\n        /* \"contracts/SCcore/Ownable.sol\":449:537  function ownerLookup() public view returns (address) {\r... */\n    tag_180:\n        /* \"contracts/SCcore/Ownable.sol\":493:500  address */\n      0x0\n        /* \"contracts/SCcore/Ownable.sol\":520:529  origOwner */\n      dup1\n      0x0\n      swap1\n      sload\n      swap1\n      0x100\n      exp\n      swap1\n      div\n      0xffffffffffffffffffffffffffffffffffffffff\n      and\n        /* \"contracts/SCcore/Ownable.sol\":513:529  return origOwner */\n      swap1\n      pop\n        /* \"contracts/SCcore/Ownable.sol\":449:537  function ownerLookup() public view returns (address) {\r... */\n      swap1\n      jump\t// out\n        /* \"contracts/SCaccesscontrol/CarParts_DistributorRole.sol\":1000:1130  function isCarParts_Distributor(address account) public view returns (bool) {\r... */\n    tag_184:\n        /* \"contracts/SCaccesscontrol/CarParts_DistributorRole.sol\":1070:1074  bool */\n      0x0\n        /* \"contracts/SCaccesscontrol/CarParts_DistributorRole.sol\":1090:1124  CarParts_distributors.has(account) */\n      tag_443\n        /* \"contracts/SCaccesscontrol/CarParts_DistributorRole.sol\":1116:1123  account */\n      dup3\n        /* \"contracts/SCaccesscontrol/CarParts_DistributorRole.sol\":1090:1111  CarParts_distributors */\n      0x2\n        /* \"contracts/SCaccesscontrol/CarParts_DistributorRole.sol\":1090:1115  CarParts_distributors.has */\n      tag_241\n      swap1\n        /* \"contracts/SCaccesscontrol/CarParts_DistributorRole.sol\":1090:1124  CarParts_distributors.has(account) */\n      swap2\n      swap1\n      0xffffffff\n      and\n      jump\t// in\n    tag_443:\n        /* \"contracts/SCaccesscontrol/CarParts_DistributorRole.sol\":1083:1124  return CarParts_distributors.has(account) */\n      swap1\n      pop\n        /* \"contracts/SCaccesscontrol/CarParts_DistributorRole.sol\":1000:1130  function isCarParts_Distributor(address account) public view returns (bool) {\r... */\n      swap2\n      swap1\n      pop\n      jump\t// out\n        /* \"contracts/SCcore/Ownable.sol\":1096:1205  function transferOwnership(address newOwner) public onlyOwner {\r... */\n    tag_188:\n        /* \"contracts/SCbase/SupplyChain.sol\":4286:4291  owner */\n      0x5\n      0x0\n      swap1\n      sload\n      swap1\n      0x100\n      exp\n      swap1\n      div\n      0xffffffffffffffffffffffffffffffffffffffff\n      and\n        /* \"contracts/SCbase/SupplyChain.sol\":4272:4291  msg.sender == owner */\n      0xffffffffffffffffffffffffffffffffffffffff\n      and\n        /* \"contracts/SCbase/SupplyChain.sol\":4272:4282  msg.sender */\n      caller\n        /* \"contracts/SCbase/SupplyChain.sol\":4272:4291  msg.sender == owner */\n      0xffffffffffffffffffffffffffffffffffffffff\n      and\n      eq\n        /* \"contracts/SCbase/SupplyChain.sol\":4264:4292  require(msg.sender == owner) */\n      iszero\n      iszero\n      tag_445\n      jumpi\n      0x0\n      dup1\n      revert\n    tag_445:\n        /* \"contracts/SCcore/Ownable.sol\":1169:1197  _transferOwnership(newOwner) */\n      tag_447\n        /* \"contracts/SCcore/Ownable.sol\":1188:1196  newOwner */\n      dup2\n        /* \"contracts/SCcore/Ownable.sol\":1169:1187  _transferOwnership */\n      tag_448\n        /* \"contracts/SCcore/Ownable.sol\":1169:1197  _transferOwnership(newOwner) */\n      jump\t// in\n    tag_447:\n        /* \"contracts/SCcore/Ownable.sol\":1096:1205  function transferOwnership(address newOwner) public onlyOwner {\r... */\n      pop\n      jump\t// out\n        /* \"contracts/SCaccesscontrol/CarParts_ManufacturerRole.sol\":1441:1542  function renounceCarParts_Manufacturer() public {\r... */\n    tag_191:\n        /* \"contracts/SCaccesscontrol/CarParts_ManufacturerRole.sol\":1496:1536  _removeCarParts_Manufacturer(msg.sender) */\n      tag_450\n        /* \"contracts/SCaccesscontrol/CarParts_ManufacturerRole.sol\":1525:1535  msg.sender */\n      caller\n        /* \"contracts/SCaccesscontrol/CarParts_ManufacturerRole.sol\":1496:1524  _removeCarParts_Manufacturer */\n      tag_451\n        /* \"contracts/SCaccesscontrol/CarParts_ManufacturerRole.sol\":1496:1536  _removeCarParts_Manufacturer(msg.sender) */\n      jump\t// in\n    tag_450:\n        /* \"contracts/SCaccesscontrol/CarParts_ManufacturerRole.sol\":1441:1542  function renounceCarParts_Manufacturer() public {\r... */\n      jump\t// out\n        /* \"contracts/SCaccesscontrol/CarParts_DistributorRole.sol\":1637:1790  function _addCarParts_Distributor(address account) internal {\r... */\n    tag_200:\n        /* \"contracts/SCaccesscontrol/CarParts_DistributorRole.sol\":1704:1738  CarParts_distributors.add(account) */\n      tag_453\n        /* \"contracts/SCaccesscontrol/CarParts_DistributorRole.sol\":1730:1737  account */\n      dup2\n        /* \"contracts/SCaccesscontrol/CarParts_DistributorRole.sol\":1704:1725  CarParts_distributors */\n      0x2\n        /* \"contracts/SCaccesscontrol/CarParts_DistributorRole.sol\":1704:1729  CarParts_distributors.add */\n      tag_454\n      swap1\n        /* \"contracts/SCaccesscontrol/CarParts_DistributorRole.sol\":1704:1738  CarParts_distributors.add(account) */\n      swap2\n      swap1\n      0xffffffff\n      and\n      jump\t// in\n    tag_453:\n        /* \"contracts/SCaccesscontrol/CarParts_DistributorRole.sol\":1776:1783  account */\n      dup1\n        /* \"contracts/SCaccesscontrol/CarParts_DistributorRole.sol\":1750:1784  CarParts_DistributorAdded(account) */\n      0xffffffffffffffffffffffffffffffffffffffff\n      and\n      0xf7da286df490d50d713a7db337e873dba3f443fb4d6fd500f71dd90c155eb5c3\n      mload(0x40)\n      mload(0x40)\n      dup1\n      swap2\n      sub\n      swap1\n      log2\n        /* \"contracts/SCaccesscontrol/CarParts_DistributorRole.sol\":1637:1790  function _addCarParts_Distributor(address account) internal {\r... */\n      pop\n      jump\t// out\n        /* \"contracts/SCbase/SupplyChain.sol\":7201:7316  function _make_payable(address x) internal pure returns (address payable) {\r... */\n    tag_236:\n        /* \"contracts/SCbase/SupplyChain.sol\":7258:7273  address payable */\n      0x0\n        /* \"contracts/SCbase/SupplyChain.sol\":7307:7308  x */\n      dup2\n        /* \"contracts/SCbase/SupplyChain.sol\":7284:7310  return address(uint160(x)) */\n      swap1\n      pop\n        /* \"contracts/SCbase/SupplyChain.sol\":7201:7316  function _make_payable(address x) internal pure returns (address payable) {\r... */\n      swap2\n      swap1\n      pop\n      jump\t// out\n        /* \"contracts/SCaccesscontrol/Roles.sol\":761:934  function has(Role storage role, address account)\r... */\n    tag_241:\n        /* \"contracts/SCaccesscontrol/Roles.sol\":848:852  bool */\n      0x0\n        /* \"contracts/SCaccesscontrol/Roles.sol\":891:892  0 */\n      dup1\n        /* \"contracts/SCaccesscontrol/Roles.sol\":872:893  account != address(0) */\n      0xffffffffffffffffffffffffffffffffffffffff\n      and\n        /* \"contracts/SCaccesscontrol/Roles.sol\":872:879  account */\n      dup3\n        /* \"contracts/SCaccesscontrol/Roles.sol\":872:893  account != address(0) */\n      0xffffffffffffffffffffffffffffffffffffffff\n      and\n      eq\n      iszero\n        /* \"contracts/SCaccesscontrol/Roles.sol\":864:894  require(account != address(0)) */\n      iszero\n      iszero\n      tag_457\n      jumpi\n      0x0\n      dup1\n      revert\n    tag_457:\n        /* \"contracts/SCaccesscontrol/Roles.sol\":908:912  role */\n      dup3\n        /* \"contracts/SCaccesscontrol/Roles.sol\":908:919  role.bearer */\n      0x0\n      add\n        /* \"contracts/SCaccesscontrol/Roles.sol\":908:928  role.bearer[account] */\n      0x0\n        /* \"contracts/SCaccesscontrol/Roles.sol\":920:927  account */\n      dup4\n        /* \"contracts/SCaccesscontrol/Roles.sol\":908:928  role.bearer[account] */\n      0xffffffffffffffffffffffffffffffffffffffff\n      and\n      0xffffffffffffffffffffffffffffffffffffffff\n      and\n      dup2\n      mstore\n      0x20\n      add\n      swap1\n      dup2\n      mstore\n      0x20\n      add\n      0x0\n      keccak256\n      0x0\n      swap1\n      sload\n      swap1\n      0x100\n      exp\n      swap1\n      div\n      0xff\n      and\n        /* \"contracts/SCaccesscontrol/Roles.sol\":901:928  return role.bearer[account] */\n      swap1\n      pop\n        /* \"contracts/SCaccesscontrol/Roles.sol\":761:934  function has(Role storage role, address account)\r... */\n      swap3\n      swap2\n      pop\n      pop\n      jump\t// out\n        /* \"contracts/SCaccesscontrol/CarParts_ManufacturerRole.sol\":1665:1821  function _addCarParts_Manufacturer(address account) internal {\r... */\n    tag_269:\n        /* \"contracts/SCaccesscontrol/CarParts_ManufacturerRole.sol\":1733:1768  carParts_Manufacturers.add(account) */\n      tag_459\n        /* \"contracts/SCaccesscontrol/CarParts_ManufacturerRole.sol\":1760:1767  account */\n      dup2\n        /* \"contracts/SCaccesscontrol/CarParts_ManufacturerRole.sol\":1733:1755  carParts_Manufacturers */\n      0x1\n        /* \"contracts/SCaccesscontrol/CarParts_ManufacturerRole.sol\":1733:1759  carParts_Manufacturers.add */\n      tag_454\n      swap1\n        /* \"contracts/SCaccesscontrol/CarParts_ManufacturerRole.sol\":1733:1768  carParts_Manufacturers.add(account) */\n      swap2\n      swap1\n      0xffffffff\n      and\n      jump\t// in\n    tag_459:\n        /* \"contracts/SCaccesscontrol/CarParts_ManufacturerRole.sol\":1807:1814  account */\n      dup1\n        /* \"contracts/SCaccesscontrol/CarParts_ManufacturerRole.sol\":1780:1815  CarParts_ManufacturerAdded(account) */\n      0xffffffffffffffffffffffffffffffffffffffff\n      and\n      0xc17db36ff5b6d3d05d63c4d52dc5df431b9763a912ce99d8847bc7bdb4589d2d\n      mload(0x40)\n      mload(0x40)\n      dup1\n      swap2\n      sub\n      swap1\n      log2\n        /* \"contracts/SCaccesscontrol/CarParts_ManufacturerRole.sol\":1665:1821  function _addCarParts_Manufacturer(address account) internal {\r... */\n      pop\n      jump\t// out\n        /* \"contracts/SCaccesscontrol/CarParts_DistributorRole.sol\":1920:2081  function _removeCarParts_Distributor(address account) internal {\r... */\n    tag_356:\n        /* \"contracts/SCaccesscontrol/CarParts_DistributorRole.sol\":1990:2027  CarParts_distributors.remove(account) */\n      tag_461\n        /* \"contracts/SCaccesscontrol/CarParts_DistributorRole.sol\":2019:2026  account */\n      dup2\n        /* \"contracts/SCaccesscontrol/CarParts_DistributorRole.sol\":1990:2011  CarParts_distributors */\n      0x2\n        /* \"contracts/SCaccesscontrol/CarParts_DistributorRole.sol\":1990:2018  CarParts_distributors.remove */\n      tag_462\n      swap1\n        /* \"contracts/SCaccesscontrol/CarParts_DistributorRole.sol\":1990:2027  CarParts_distributors.remove(account) */\n      swap2\n      swap1\n      0xffffffff\n      and\n      jump\t// in\n    tag_461:\n        /* \"contracts/SCaccesscontrol/CarParts_DistributorRole.sol\":2067:2074  account */\n      dup1\n        /* \"contracts/SCaccesscontrol/CarParts_DistributorRole.sol\":2039:2075  CarParts_DistributorRemoved(account) */\n      0xffffffffffffffffffffffffffffffffffffffff\n      and\n      0x3e3f7c027517f367a53ebcefd15973458bf78d9b6d5b0978f4a4d3d3f646cf96\n      mload(0x40)\n      mload(0x40)\n      dup1\n      swap2\n      sub\n      swap1\n      log2\n        /* \"contracts/SCaccesscontrol/CarParts_DistributorRole.sol\":1920:2081  function _removeCarParts_Distributor(address account) internal {\r... */\n      pop\n      jump\t// out\n        /* \"contracts/SCaccesscontrol/RetailerRole.sol\":1380:1497  function _addRetailer(address account) internal {\r... */\n    tag_362:\n        /* \"contracts/SCaccesscontrol/RetailerRole.sol\":1435:1457  retailers.add(account) */\n      tag_464\n        /* \"contracts/SCaccesscontrol/RetailerRole.sol\":1449:1456  account */\n      dup2\n        /* \"contracts/SCaccesscontrol/RetailerRole.sol\":1435:1444  retailers */\n      0x3\n        /* \"contracts/SCaccesscontrol/RetailerRole.sol\":1435:1448  retailers.add */\n      tag_454\n      swap1\n        /* \"contracts/SCaccesscontrol/RetailerRole.sol\":1435:1457  retailers.add(account) */\n      swap2\n      swap1\n      0xffffffff\n      and\n      jump\t// in\n    tag_464:\n        /* \"contracts/SCaccesscontrol/RetailerRole.sol\":1483:1490  account */\n      dup1\n        /* \"contracts/SCaccesscontrol/RetailerRole.sol\":1469:1491  RetailerAdded(account) */\n      0xffffffffffffffffffffffffffffffffffffffff\n      and\n      0x71ae26cad02663e3d92efd6ec56031a80d74a20c0ab4183faa8bf262261c9baa\n      mload(0x40)\n      mload(0x40)\n      dup1\n      swap2\n      sub\n      swap1\n      log2\n        /* \"contracts/SCaccesscontrol/RetailerRole.sol\":1380:1497  function _addRetailer(address account) internal {\r... */\n      pop\n      jump\t// out\n        /* \"contracts/SCaccesscontrol/CustomerRole.sol\":1423:1540  function _addCustomer(address account) internal {\r... */\n    tag_421:\n        /* \"contracts/SCaccesscontrol/CustomerRole.sol\":1478:1500  customers.add(account) */\n      tag_466\n        /* \"contracts/SCaccesscontrol/CustomerRole.sol\":1492:1499  account */\n      dup2\n        /* \"contracts/SCaccesscontrol/CustomerRole.sol\":1478:1487  customers */\n      0x4\n        /* \"contracts/SCaccesscontrol/CustomerRole.sol\":1478:1491  customers.add */\n      tag_454\n      swap1\n        /* \"contracts/SCaccesscontrol/CustomerRole.sol\":1478:1500  customers.add(account) */\n      swap2\n      swap1\n      0xffffffff\n      and\n      jump\t// in\n    tag_466:\n        /* \"contracts/SCaccesscontrol/CustomerRole.sol\":1526:1533  account */\n      dup1\n        /* \"contracts/SCaccesscontrol/CustomerRole.sol\":1512:1534  CustomerAdded(account) */\n      0xffffffffffffffffffffffffffffffffffffffff\n      and\n      0xcd118a02bd36f224f6f1b93812f78d2bbc2c2dc1bc0f60c176e3b4fe09f1483f\n      mload(0x40)\n      mload(0x40)\n      dup1\n      swap2\n      sub\n      swap1\n      log2\n        /* \"contracts/SCaccesscontrol/CustomerRole.sol\":1423:1540  function _addCustomer(address account) internal {\r... */\n      pop\n      jump\t// out\n        /* \"contracts/SCaccesscontrol/CustomerRole.sol\":1646:1771  function _removeCustomer(address account) internal {\r... */\n    tag_424:\n        /* \"contracts/SCaccesscontrol/CustomerRole.sol\":1704:1729  customers.remove(account) */\n      tag_468\n        /* \"contracts/SCaccesscontrol/CustomerRole.sol\":1721:1728  account */\n      dup2\n        /* \"contracts/SCaccesscontrol/CustomerRole.sol\":1704:1713  customers */\n      0x4\n        /* \"contracts/SCaccesscontrol/CustomerRole.sol\":1704:1720  customers.remove */\n      tag_462\n      swap1\n        /* \"contracts/SCaccesscontrol/CustomerRole.sol\":1704:1729  customers.remove(account) */\n      swap2\n      swap1\n      0xffffffff\n      and\n      jump\t// in\n    tag_468:\n        /* \"contracts/SCaccesscontrol/CustomerRole.sol\":1757:1764  account */\n      dup1\n        /* \"contracts/SCaccesscontrol/CustomerRole.sol\":1741:1765  CustomerRemoved(account) */\n      0xffffffffffffffffffffffffffffffffffffffff\n      and\n      0xb4c88a9c5cd906354abdd1cc29e4f94c6c4de90754fb80ce51e6a33417bc81b6\n      mload(0x40)\n      mload(0x40)\n      dup1\n      swap2\n      sub\n      swap1\n      log2\n        /* \"contracts/SCaccesscontrol/CustomerRole.sol\":1646:1771  function _removeCustomer(address account) internal {\r... */\n      pop\n      jump\t// out\n        /* \"contracts/SCaccesscontrol/RetailerRole.sol\":1603:1728  function _removeRetailer(address account) internal {\r... */\n    tag_440:\n        /* \"contracts/SCaccesscontrol/RetailerRole.sol\":1661:1686  retailers.remove(account) */\n      tag_470\n        /* \"contracts/SCaccesscontrol/RetailerRole.sol\":1678:1685  account */\n      dup2\n        /* \"contracts/SCaccesscontrol/RetailerRole.sol\":1661:1670  retailers */\n      0x3\n        /* \"contracts/SCaccesscontrol/RetailerRole.sol\":1661:1677  retailers.remove */\n      tag_462\n      swap1\n        /* \"contracts/SCaccesscontrol/RetailerRole.sol\":1661:1686  retailers.remove(account) */\n      swap2\n      swap1\n      0xffffffff\n      and\n      jump\t// in\n    tag_470:\n        /* \"contracts/SCaccesscontrol/RetailerRole.sol\":1714:1721  account */\n      dup1\n        /* \"contracts/SCaccesscontrol/RetailerRole.sol\":1698:1722  RetailerRemoved(account) */\n      0xffffffffffffffffffffffffffffffffffffffff\n      and\n      0xdb7176e79cffef81cb01767dd0447a0b24bb72ca9778d4b245581086b2a7e6db\n      mload(0x40)\n      mload(0x40)\n      dup1\n      swap2\n      sub\n      swap1\n      log2\n        /* \"contracts/SCaccesscontrol/RetailerRole.sol\":1603:1728  function _removeRetailer(address account) internal {\r... */\n      pop\n      jump\t// out\n        /* \"contracts/SCcore/Ownable.sol\":1272:1462  function _transferOwnership(address newOwner) internal {\r... */\n    tag_448:\n        /* \"contracts/SCcore/Ownable.sol\":1366:1367  0 */\n      0x0\n        /* \"contracts/SCcore/Ownable.sol\":1346:1368  newOwner != address(0) */\n      0xffffffffffffffffffffffffffffffffffffffff\n      and\n        /* \"contracts/SCcore/Ownable.sol\":1346:1354  newOwner */\n      dup2\n        /* \"contracts/SCcore/Ownable.sol\":1346:1368  newOwner != address(0) */\n      0xffffffffffffffffffffffffffffffffffffffff\n      and\n      eq\n      iszero\n        /* \"contracts/SCcore/Ownable.sol\":1338:1369  require(newOwner != address(0)) */\n      iszero\n      iszero\n      tag_472\n      jumpi\n      0x0\n      dup1\n      revert\n    tag_472:\n        /* \"contracts/SCcore/Ownable.sol\":1414:1422  newOwner */\n      dup1\n        /* \"contracts/SCcore/Ownable.sol\":1385:1423  TransferOwnership(origOwner, newOwner) */\n      0xffffffffffffffffffffffffffffffffffffffff\n      and\n        /* \"contracts/SCcore/Ownable.sol\":1403:1412  origOwner */\n      0x0\n      dup1\n      swap1\n      sload\n      swap1\n      0x100\n      exp\n      swap1\n      div\n      0xffffffffffffffffffffffffffffffffffffffff\n      and\n        /* \"contracts/SCcore/Ownable.sol\":1385:1423  TransferOwnership(origOwner, newOwner) */\n      0xffffffffffffffffffffffffffffffffffffffff\n      and\n      0x5c486528ec3e3f0ea91181cff8116f02bfa350e03b8b6f12e00765adbb5af85c\n      mload(0x40)\n      mload(0x40)\n      dup1\n      swap2\n      sub\n      swap1\n      log3\n        /* \"contracts/SCcore/Ownable.sol\":1446:1454  newOwner */\n      dup1\n        /* \"contracts/SCcore/Ownable.sol\":1434:1443  origOwner */\n      0x0\n      dup1\n        /* \"contracts/SCcore/Ownable.sol\":1434:1454  origOwner = newOwner */\n      0x100\n      exp\n      dup2\n      sload\n      dup2\n      0xffffffffffffffffffffffffffffffffffffffff\n      mul\n      not\n      and\n      swap1\n      dup4\n      0xffffffffffffffffffffffffffffffffffffffff\n      and\n      mul\n      or\n      swap1\n      sstore\n      pop\n        /* \"contracts/SCcore/Ownable.sol\":1272:1462  function _transferOwnership(address newOwner) internal {\r... */\n      pop\n      jump\t// out\n        /* \"contracts/SCaccesscontrol/CarParts_ManufacturerRole.sol\":1953:2117  function _removeCarParts_Manufacturer(address account) internal {\r... */\n    tag_451:\n        /* \"contracts/SCaccesscontrol/CarParts_ManufacturerRole.sol\":2024:2062  carParts_Manufacturers.remove(account) */\n      tag_474\n        /* \"contracts/SCaccesscontrol/CarParts_ManufacturerRole.sol\":2054:2061  account */\n      dup2\n        /* \"contracts/SCaccesscontrol/CarParts_ManufacturerRole.sol\":2024:2046  carParts_Manufacturers */\n      0x1\n        /* \"contracts/SCaccesscontrol/CarParts_ManufacturerRole.sol\":2024:2053  carParts_Manufacturers.remove */\n      tag_462\n      swap1\n        /* \"contracts/SCaccesscontrol/CarParts_ManufacturerRole.sol\":2024:2062  carParts_Manufacturers.remove(account) */\n      swap2\n      swap1\n      0xffffffff\n      and\n      jump\t// in\n    tag_474:\n        /* \"contracts/SCaccesscontrol/CarParts_ManufacturerRole.sol\":2103:2110  account */\n      dup1\n        /* \"contracts/SCaccesscontrol/CarParts_ManufacturerRole.sol\":2074:2111  CarParts_ManufacturerRemoved(account) */\n      0xffffffffffffffffffffffffffffffffffffffff\n      and\n      0x74e50ebe0d8f15811119637829729a3b44ffc7242575f08ea332c8e3a300e2fd\n      mload(0x40)\n      mload(0x40)\n      dup1\n      swap2\n      sub\n      swap1\n      log2\n        /* \"contracts/SCaccesscontrol/CarParts_ManufacturerRole.sol\":1953:2117  function _removeCarParts_Manufacturer(address account) internal {\r... */\n      pop\n      jump\t// out\n        /* \"contracts/SCaccesscontrol/Roles.sol\":259:431  function add(Role storage role, address account) internal {\r... */\n    tag_454:\n        /* \"contracts/SCaccesscontrol/Roles.sol\":351:352  0 */\n      0x0\n        /* \"contracts/SCaccesscontrol/Roles.sol\":332:353  account != address(0) */\n      0xffffffffffffffffffffffffffffffffffffffff\n      and\n        /* \"contracts/SCaccesscontrol/Roles.sol\":332:339  account */\n      dup2\n        /* \"contracts/SCaccesscontrol/Roles.sol\":332:353  account != address(0) */\n      0xffffffffffffffffffffffffffffffffffffffff\n      and\n      eq\n      iszero\n        /* \"contracts/SCaccesscontrol/Roles.sol\":324:354  require(account != address(0)) */\n      iszero\n      iszero\n      tag_476\n      jumpi\n      0x0\n      dup1\n      revert\n    tag_476:\n        /* \"contracts/SCaccesscontrol/Roles.sol\":370:388  has(role, account) */\n      tag_477\n        /* \"contracts/SCaccesscontrol/Roles.sol\":374:378  role */\n      dup3\n        /* \"contracts/SCaccesscontrol/Roles.sol\":380:387  account */\n      dup3\n        /* \"contracts/SCaccesscontrol/Roles.sol\":370:373  has */\n      tag_241\n        /* \"contracts/SCaccesscontrol/Roles.sol\":370:388  has(role, account) */\n      jump\t// in\n    tag_477:\n        /* \"contracts/SCaccesscontrol/Roles.sol\":369:388  !has(role, account) */\n      iszero\n        /* \"contracts/SCaccesscontrol/Roles.sol\":361:389  require(!has(role, account)) */\n      iszero\n      iszero\n      tag_478\n      jumpi\n      0x0\n      dup1\n      revert\n    tag_478:\n        /* \"contracts/SCaccesscontrol/Roles.sol\":421:425  true */\n      0x1\n        /* \"contracts/SCaccesscontrol/Roles.sol\":398:402  role */\n      dup3\n        /* \"contracts/SCaccesscontrol/Roles.sol\":398:409  role.bearer */\n      0x0\n      add\n        /* \"contracts/SCaccesscontrol/Roles.sol\":398:418  role.bearer[account] */\n      0x0\n        /* \"contracts/SCaccesscontrol/Roles.sol\":410:417  account */\n      dup4\n        /* \"contracts/SCaccesscontrol/Roles.sol\":398:418  role.bearer[account] */\n      0xffffffffffffffffffffffffffffffffffffffff\n      and\n      0xffffffffffffffffffffffffffffffffffffffff\n      and\n      dup2\n      mstore\n      0x20\n      add\n      swap1\n      dup2\n      mstore\n      0x20\n      add\n      0x0\n      keccak256\n      0x0\n        /* \"contracts/SCaccesscontrol/Roles.sol\":398:425  role.bearer[account] = true */\n      0x100\n      exp\n      dup2\n      sload\n      dup2\n      0xff\n      mul\n      not\n      and\n      swap1\n      dup4\n      iszero\n      iszero\n      mul\n      or\n      swap1\n      sstore\n      pop\n        /* \"contracts/SCaccesscontrol/Roles.sol\":259:431  function add(Role storage role, address account) internal {\r... */\n      pop\n      pop\n      jump\t// out\n        /* \"contracts/SCaccesscontrol/Roles.sol\":502:677  function remove(Role storage role, address account) internal {\r... */\n    tag_462:\n        /* \"contracts/SCaccesscontrol/Roles.sol\":597:598  0 */\n      0x0\n        /* \"contracts/SCaccesscontrol/Roles.sol\":578:599  account != address(0) */\n      0xffffffffffffffffffffffffffffffffffffffff\n      and\n        /* \"contracts/SCaccesscontrol/Roles.sol\":578:585  account */\n      dup2\n        /* \"contracts/SCaccesscontrol/Roles.sol\":578:599  account != address(0) */\n      0xffffffffffffffffffffffffffffffffffffffff\n      and\n      eq\n      iszero\n        /* \"contracts/SCaccesscontrol/Roles.sol\":570:600  require(account != address(0)) */\n      iszero\n      iszero\n      tag_480\n      jumpi\n      0x0\n      dup1\n      revert\n    tag_480:\n        /* \"contracts/SCaccesscontrol/Roles.sol\":615:633  has(role, account) */\n      tag_481\n        /* \"contracts/SCaccesscontrol/Roles.sol\":619:623  role */\n      dup3\n        /* \"contracts/SCaccesscontrol/Roles.sol\":625:632  account */\n      dup3\n        /* \"contracts/SCaccesscontrol/Roles.sol\":615:618  has */\n      tag_241\n        /* \"contracts/SCaccesscontrol/Roles.sol\":615:633  has(role, account) */\n      jump\t// in\n    tag_481:\n        /* \"contracts/SCaccesscontrol/Roles.sol\":607:634  require(has(role, account)) */\n      iszero\n      iszero\n      tag_482\n      jumpi\n      0x0\n      dup1\n      revert\n    tag_482:\n        /* \"contracts/SCaccesscontrol/Roles.sol\":666:671  false */\n      0x0\n        /* \"contracts/SCaccesscontrol/Roles.sol\":643:647  role */\n      dup3\n        /* \"contracts/SCaccesscontrol/Roles.sol\":643:654  role.bearer */\n      0x0\n      add\n        /* \"contracts/SCaccesscontrol/Roles.sol\":643:663  role.bearer[account] */\n      0x0\n        /* \"contracts/SCaccesscontrol/Roles.sol\":655:662  account */\n      dup4\n        /* \"contracts/SCaccesscontrol/Roles.sol\":643:663  role.bearer[account] */\n      0xffffffffffffffffffffffffffffffffffffffff\n      and\n      0xffffffffffffffffffffffffffffffffffffffff\n      and\n      dup2\n      mstore\n      0x20\n      add\n      swap1\n      dup2\n      mstore\n      0x20\n      add\n      0x0\n      keccak256\n      0x0\n        /* \"contracts/SCaccesscontrol/Roles.sol\":643:671  role.bearer[account] = false */\n      0x100\n      exp\n      dup2\n      sload\n      dup2\n      0xff\n      mul\n      not\n      and\n      swap1\n      dup4\n      iszero\n      iszero\n      mul\n      or\n      swap1\n      sstore\n      pop\n        /* \"contracts/SCaccesscontrol/Roles.sol\":502:677  function remove(Role storage role, address account) internal {\r... */\n      pop\n      pop\n      jump\t// out\n        /* \"contracts/SCbase/SupplyChain.sol\":339:19404  contract SupplyChain is Ownable,CarParts_ManufacturerRole,CarParts_DistributorRole,RetailerRole,CustomerRole {\r... */\n    tag_194:\n      0x60\n      mload(0x40)\n      swap1\n      dup2\n      add\n      0x40\n      mstore\n      dup1\n      0x0\n      dup2\n      mstore\n      0x20\n      add\n      0x0\n      dup2\n      mstore\n      0x20\n      add\n      0x0\n      dup2\n      mstore\n      pop\n      swap1\n      jump\t// out\n    tag_278:\n      0x200\n      mload(0x40)\n      swap1\n      dup2\n      add\n      0x40\n      mstore\n      dup1\n      0x0\n      dup2\n      mstore\n      0x20\n      add\n      0x0\n      dup2\n      mstore\n      0x20\n      add\n      and(0xffffffffffffffffffffffffffffffffffffffff, 0x0)\n      dup2\n      mstore\n      0x20\n      add\n      and(0xffffffffffffffffffffffffffffffffffffffff, 0x0)\n      dup2\n      mstore\n      0x20\n      add\n      0x60\n      dup2\n      mstore\n      0x20\n      add\n      0x60\n      dup2\n      mstore\n      0x20\n      add\n      0x60\n      dup2\n      mstore\n      0x20\n      add\n      0x60\n      dup2\n      mstore\n      0x20\n      add\n      0x0\n      dup2\n      mstore\n      0x20\n      add\n      0x60\n      dup2\n      mstore\n      0x20\n      add\n      0x0\n      dup2\n      mstore\n      0x20\n      add\n      0x0\n      dup2\n      mstore\n      0x20\n      add\n      0x0\n      0xc\n      dup2\n      gt\n      iszero\n      tag_483\n      jumpi\n      invalid\n    tag_483:\n      dup2\n      mstore\n      0x20\n      add\n      and(0xffffffffffffffffffffffffffffffffffffffff, 0x0)\n      dup2\n      mstore\n      0x20\n      add\n      and(0xffffffffffffffffffffffffffffffffffffffff, 0x0)\n      dup2\n      mstore\n      0x20\n      add\n      and(0xffffffffffffffffffffffffffffffffffffffff, 0x0)\n      dup2\n      mstore\n      pop\n      swap1\n      jump\t// out\n    tag_282:\n      dup3\n      dup1\n      sload\n      0x1\n      dup2\n      0x1\n      and\n      iszero\n      0x100\n      mul\n      sub\n      and\n      0x2\n      swap1\n      div\n      swap1\n      0x0\n      mstore\n      keccak256(0x0, 0x20)\n      swap1\n      0x1f\n      add\n      0x20\n      swap1\n      div\n      dup2\n      add\n      swap3\n      dup3\n      0x1f\n      lt\n      tag_485\n      jumpi\n      dup1\n      mload\n      not(0xff)\n      and\n      dup4\n      dup1\n      add\n      or\n      dup6\n      sstore\n      jump(tag_484)\n    tag_485:\n      dup3\n      dup1\n      add\n      0x1\n      add\n      dup6\n      sstore\n      dup3\n      iszero\n      tag_484\n      jumpi\n      swap2\n      dup3\n      add\n    tag_486:\n      dup3\n      dup2\n      gt\n      iszero\n      tag_487\n      jumpi\n      dup3\n      mload\n      dup3\n      sstore\n      swap2\n      0x20\n      add\n      swap2\n      swap1\n      0x1\n      add\n      swap1\n      jump(tag_486)\n    tag_487:\n    tag_484:\n      pop\n      swap1\n      pop\n      tag_488\n      swap2\n      swap1\n      jump\t// in(tag_489)\n    tag_488:\n      pop\n      swap1\n      jump\t// out\n    tag_489:\n      tag_490\n      swap2\n      swap1\n    tag_491:\n      dup1\n      dup3\n      gt\n      iszero\n      tag_492\n      jumpi\n      0x0\n      dup2\n      0x0\n      swap1\n      sstore\n      pop\n      0x1\n      add\n      jump(tag_491)\n    tag_492:\n      pop\n      swap1\n      jump\n    tag_490:\n      swap1\n      jump\t// out\n\n    auxdata: 0xa165627a7a723058206b4b3c8116e9d8cb3118c85cf66b57a32b16f53ec308493e7da0266ac129a4ca0029\n}\n",
				"bytecode": {
					"linkReferences": {},
					"object": "6080604052336000806101000a81548173ffffffffffffffffffffffffffffffffffffffff021916908373ffffffffffffffffffffffffffffffffffffffff1602179055506000809054906101000a900473ffffffffffffffffffffffffffffffffffffffff1673ffffffffffffffffffffffffffffffffffffffff16600073ffffffffffffffffffffffffffffffffffffffff167f5c486528ec3e3f0ea91181cff8116f02bfa350e03b8b6f12e00765adbb5af85c60405160405180910390a3620000da336200017f640100000000026401000000009004565b620000f433620001e9640100000000026401000000009004565b6200010e3362000253640100000000026401000000009004565b6200012833620002bd640100000000026401000000009004565b33600560006101000a81548173ffffffffffffffffffffffffffffffffffffffff021916908373ffffffffffffffffffffffffffffffffffffffff160217905550600160078190555060016006819055506200047f565b620001a3816001620003276401000000000262003dd8179091906401000000009004565b8073ffffffffffffffffffffffffffffffffffffffff167fc17db36ff5b6d3d05d63c4d52dc5df431b9763a912ce99d8847bc7bdb4589d2d60405160405180910390a250565b6200020d816002620003276401000000000262003dd8179091906401000000009004565b8073ffffffffffffffffffffffffffffffffffffffff167ff7da286df490d50d713a7db337e873dba3f443fb4d6fd500f71dd90c155eb5c360405160405180910390a250565b62000277816003620003276401000000000262003dd8179091906401000000009004565b8073ffffffffffffffffffffffffffffffffffffffff167f71ae26cad02663e3d92efd6ec56031a80d74a20c0ab4183faa8bf262261c9baa60405160405180910390a250565b620002e1816004620003276401000000000262003dd8179091906401000000009004565b8073ffffffffffffffffffffffffffffffffffffffff167fcd118a02bd36f224f6f1b93812f78d2bbc2c2dc1bc0f60c176e3b4fe09f1483f60405160405180910390a250565b600073ffffffffffffffffffffffffffffffffffffffff168173ffffffffffffffffffffffffffffffffffffffff16141515156200036457600080fd5b6200037f8282620003ea640100000000026401000000009004565b1515156200038c57600080fd5b60018260000160008373ffffffffffffffffffffffffffffffffffffffff1673ffffffffffffffffffffffffffffffffffffffff16815260200190815260200160002060006101000a81548160ff0219169083151502179055505050565b60008073ffffffffffffffffffffffffffffffffffffffff168273ffffffffffffffffffffffffffffffffffffffff16141515156200042857600080fd5b8260000160008373ffffffffffffffffffffffffffffffffffffffff1673ffffffffffffffffffffffffffffffffffffffff16815260200190815260200160002060009054906101000a900460ff16905092915050565b614121806200048f6000396000f3fe6080604052600436106101a1576000357c0100000000000000000000000000000000000000000000000000000000900463ffffffff1680631154501c146101a65780631210a1d8146102035780631d116edf1461025457806322f112121461028257806326d529b4146102c757806328fd5e83146102f557806335f318411461035e57806337b2f92c1461039957806340b74c38146103d457806341c0e1b5146104255780634f9741661461043c578063546eb5861461077457806356403ef9146107b95780635da09b88146107f457806366225ff91461085d578063715018a6146109e257806377c45913146109f95780638925a06e14610c6c5780638ec4f50514610c835780638f32d59b14610cd45780639e3febc814610d035780639e75eb3e14610d3e578063a7d247e014610d83578063ad52dcb714610db1578063ad973d7414610ddf578063c49ef10914610e30578063c7ef882c14610e81578063d2eafb5a14610eea578063db0e6a2f14610f25578063e02e64ea14610f3c578063e49a83be14610f93578063f2fde38b14610ffc578063ffeb4d331461104d575b600080fd5b3480156101b257600080fd5b506101df600480360360208110156101c957600080fd5b8101908080359060200190929190505050611064565b60405180848152602001838152602001828152602001935050505060405180910390f35b34801561020f57600080fd5b506102526004803603602081101561022657600080fd5b81019080803573ffffffffffffffffffffffffffffffffffffffff1690602001909291905050506110cd565b005b6102806004803603602081101561026a57600080fd5b81019080803590602001909291905050506110ed565b005b34801561028e57600080fd5b506102c5600480360360408110156102a557600080fd5b81019080803590602001909291908035906020019092919050505061122f565b005b6102f3600480360360208110156102dd57600080fd5b810190808035906020019092919050505061138d565b005b34801561030157600080fd5b506103446004803603602081101561031857600080fd5b81019080803573ffffffffffffffffffffffffffffffffffffffff169060200190929190505050611658565b604051808215151515815260200191505060405180910390f35b34801561036a57600080fd5b506103976004803603602081101561038157600080fd5b8101908080359060200190929190505050611675565b005b3480156103a557600080fd5b506103d2600480360360208110156103bc57600080fd5b81019080803590602001909291905050506117b7565b005b3480156103e057600080fd5b50610423600480360360208110156103f757600080fd5b81019080803573ffffffffffffffffffffffffffffffffffffffff1690602001909291905050506118f9565b005b34801561043157600080fd5b5061043a611919565b005b34801561044857600080fd5b50610772600480360360e081101561045f57600080fd5b81019080803590602001909291908035906020019064010000000081111561048657600080fd5b82018360208201111561049857600080fd5b803590602001918460018302840111640100000000831117156104ba57600080fd5b91908080601f016020809104026020016040519081016040528093929190818152602001838380828437600081840152601f19601f8201169050808301925050505050505091929192908035906020019064010000000081111561051d57600080fd5b82018360208201111561052f57600080fd5b8035906020019184600183028401116401000000008311171561055157600080fd5b91908080601f016020809104026020016040519081016040528093929190818152602001838380828437600081840152601f19601f820116905080830192505050505050509192919290803590602001906401000000008111156105b457600080fd5b8201836020820111156105c657600080fd5b803590602001918460018302840111640100000000831117156105e857600080fd5b91908080601f016020809104026020016040519081016040528093929190818152602001838380828437600081840152601f19601f8201169050808301925050505050505091929192908035906020019064010000000081111561064b57600080fd5b82018360208201111561065d57600080fd5b8035906020019184600183028401116401000000008311171561067f57600080fd5b91908080601f016020809104026020016040519081016040528093929190818152602001838380828437600081840152601f19601f820116905080830192505050505050509192919290803590602001906401000000008111156106e257600080fd5b8201836020820111156106f457600080fd5b8035906020019184600183028401116401000000008311171561071657600080fd5b91908080601f016020809104026020016040519081016040528093929190818152602001838380828437600081840152601f19601f820116905080830192505050505050509192919290803590602001909291905050506119b9565b005b34801561078057600080fd5b506107b76004803603604081101561079757600080fd5b810190808035906020019092919080359060200190929190505050611e9f565b005b3480156107c557600080fd5b506107f2600480360360208110156107dc57600080fd5b8101908080359060200190929190505050611ffd565b005b34801561080057600080fd5b506108436004803603602081101561081757600080fd5b81019080803573ffffffffffffffffffffffffffffffffffffffff16906020019092919050505061213f565b604051808215151515815260200191505060405180910390f35b34801561086957600080fd5b506108966004803603602081101561088057600080fd5b810190808035906020019092919050505061215c565b604051808b81526020018a81526020018981526020018060200188815260200187815260200186600c8111156108c857fe5b60ff1681526020018573ffffffffffffffffffffffffffffffffffffffff1673ffffffffffffffffffffffffffffffffffffffff1681526020018473ffffffffffffffffffffffffffffffffffffffff1673ffffffffffffffffffffffffffffffffffffffff1681526020018373ffffffffffffffffffffffffffffffffffffffff1673ffffffffffffffffffffffffffffffffffffffff168152602001828103825289818151815260200191508051906020019080838360005b8381101561099e578082015181840152602081019050610983565b50505050905090810190601f1680156109cb5780820380516001836020036101000a031916815260200191505b509b50505050505050505050505060405180910390f35b3480156109ee57600080fd5b506109f761272c565b005b348015610a0557600080fd5b50610a3260048036036020811015610a1c57600080fd5b8101908080359060200190929190505050612847565b604051808a81526020018981526020018873ffffffffffffffffffffffffffffffffffffffff1673ffffffffffffffffffffffffffffffffffffffff1681526020018773ffffffffffffffffffffffffffffffffffffffff1673ffffffffffffffffffffffffffffffffffffffff1681526020018060200180602001806020018060200186815260200185810385528a818151815260200191508051906020019080838360005b83811015610af4578082015181840152602081019050610ad9565b50505050905090810190601f168015610b215780820380516001836020036101000a031916815260200191505b50858103845289818151815260200191508051906020019080838360005b83811015610b5a578082015181840152602081019050610b3f565b50505050905090810190601f168015610b875780820380516001836020036101000a031916815260200191505b50858103835288818151815260200191508051906020019080838360005b83811015610bc0578082015181840152602081019050610ba5565b50505050905090810190601f168015610bed5780820380516001836020036101000a031916815260200191505b50858103825287818151815260200191508051906020019080838360005b83811015610c26578082015181840152602081019050610c0b565b50505050905090810190601f168015610c535780820380516001836020036101000a031916815260200191505b509d505050505050505050505050505060405180910390f35b348015610c7857600080fd5b50610c81612e10565b005b348015610c8f57600080fd5b50610cd260048036036020811015610ca657600080fd5b81019080803573ffffffffffffffffffffffffffffffffffffffff169060200190929190505050612e1b565b005b348015610ce057600080fd5b50610ce9612e3b565b604051808215151515815260200191505060405180910390f35b348015610d0f57600080fd5b50610d3c60048036036020811015610d2657600080fd5b8101908080359060200190929190505050612e92565b005b348015610d4a57600080fd5b50610d8160048036036040811015610d6157600080fd5b810190808035906020019092919080359060200190929190505050612fd4565b005b610daf60048036036020811015610d9957600080fd5b8101908080359060200190929190505050613134565b005b610ddd60048036036020811015610dc757600080fd5b8101908080359060200190929190505050613455565b005b348015610deb57600080fd5b50610e2e60048036036020811015610e0257600080fd5b81019080803573ffffffffffffffffffffffffffffffffffffffff169060200190929190505050613721565b005b348015610e3c57600080fd5b50610e7f60048036036020811015610e5357600080fd5b81019080803573ffffffffffffffffffffffffffffffffffffffff169060200190929190505050613741565b005b348015610e8d57600080fd5b50610ed060048036036020811015610ea457600080fd5b81019080803573ffffffffffffffffffffffffffffffffffffffff16906020019092919050505061374d565b604051808215151515815260200191505060405180910390f35b348015610ef657600080fd5b50610f2360048036036020811015610f0d57600080fd5b810190808035906020019092919050505061376a565b005b348015610f3157600080fd5b50610f3a6138ac565b005b348015610f4857600080fd5b50610f516138b7565b604051808273ffffffffffffffffffffffffffffffffffffffff1673ffffffffffffffffffffffffffffffffffffffff16815260200191505060405180910390f35b348015610f9f57600080fd5b50610fe260048036036020811015610fb657600080fd5b81019080803573ffffffffffffffffffffffffffffffffffffffff1690602001909291905050506138e0565b604051808215151515815260200191505060405180910390f35b34801561100857600080fd5b5061104b6004803603602081101561101f57600080fd5b81019080803573ffffffffffffffffffffffffffffffffffffffff1690602001909291905050506138fd565b005b34801561105957600080fd5b50611062613965565b005b6000806000611071613f37565b600960008681526020019081526020016000206060604051908101604052908160008201548152602001600182015481526020016002820154815250509050806000015181602001518260400151935093509350509193909250565b6110d6336138e0565b15156110e157600080fd5b6110ea81613970565b50565b6110f63361374d565b151561110157600080fd5b806002600c81111561110f57fe5b60086000838152602001908152602001600020600c0160009054906101000a900460ff16600c81111561113e57fe5b14151561114a57600080fd5b6008600083815260200190815260200160002060030160009054906101000a900473ffffffffffffffffffffffffffffffffffffffff168073ffffffffffffffffffffffffffffffffffffffff163373ffffffffffffffffffffffffffffffffffffffff161415156111bb57600080fd5b600360086000858152602001908152602001600020600c0160006101000a81548160ff0219169083600c8111156111ee57fe5b02179055507fb20d2d5532c31dbf6d548e783f891fa0aca5a4d1ba547151308b89b3d2930d24836040518082815260200191505060405180910390a1505050565b6112383361374d565b151561124357600080fd5b816000600c81111561125157fe5b60086000838152602001908152602001600020600c0160009054906101000a900460ff16600c81111561128057fe5b14151561128c57600080fd5b6008600084815260200190815260200160002060020160009054906101000a900473ffffffffffffffffffffffffffffffffffffffff168073ffffffffffffffffffffffffffffffffffffffff163373ffffffffffffffffffffffffffffffffffffffff161415156112fd57600080fd5b600160086000868152602001908152602001600020600c0160006101000a81548160ff0219169083600c81111561133057fe5b02179055508260086000868152602001908152602001600020600b01819055507f2285967d10dd8a9387bf9a505c30b7016db386768ff2d549d755008dca90c36d846040518082815260200191505060405180910390a150505050565b6113963361213f565b15156113a157600080fd5b806007600c8111156113af57fe5b60086000838152602001908152602001600020600c0160009054906101000a900460ff16600c8111156113de57fe5b1415156113ea57600080fd5b60086000838152602001908152602001600020600b015480341015151561141057600080fd5b8233600060086000848152602001908152602001600020600b01549050600081340390508273ffffffffffffffffffffffffffffffffffffffff166108fc829081150290604051600060405180830381858888f1935050505015801561147a573d6000803e3d6000fd5b5060006114bc600860008a8152602001908152602001600020600c0160019054906101000a900473ffffffffffffffffffffffffffffffffffffffff166139ca565b90508073ffffffffffffffffffffffffffffffffffffffff166108fc600860008b8152602001908152602001600020600b01549081150290604051600060405180830381858888f1935050505015801561151a573d6000803e3d6000fd5b5033600860008a815260200190815260200160002060020160006101000a81548173ffffffffffffffffffffffffffffffffffffffff021916908373ffffffffffffffffffffffffffffffffffffffff16021790555033600860008a8152602001908152602001600020600d0160006101000a81548173ffffffffffffffffffffffffffffffffffffffff021916908373ffffffffffffffffffffffffffffffffffffffff16021790555060088060008a8152602001908152602001600020600c0160006101000a81548160ff0219169083600c8111156115f757fe5b021790555043600960008a8152602001908152602001600020600101819055507faa7352d10146444c3afd9bd7fb0ae56b0a85e81139536bbec3f1f660fddd7be1886040518082815260200191505060405180910390a15050505050505050565b600061166e8260046139d490919063ffffffff16565b9050919050565b61167e336138e0565b151561168957600080fd5b806003600c81111561169757fe5b60086000838152602001908152602001600020600c0160009054906101000a900460ff16600c8111156116c657fe5b1415156116d257600080fd5b6008600083815260200190815260200160002060020160009054906101000a900473ffffffffffffffffffffffffffffffffffffffff168073ffffffffffffffffffffffffffffffffffffffff163373ffffffffffffffffffffffffffffffffffffffff1614151561174357600080fd5b600460086000858152602001908152602001600020600c0160006101000a81548160ff0219169083600c81111561177657fe5b02179055507f20daedc6e037d61e8601e0ae769b377abaeb757c2c96222ebc681c2905c75fb9836040518082815260200191505060405180910390a1505050565b6117c03361213f565b15156117cb57600080fd5b806009600c8111156117d957fe5b60086000838152602001908152602001600020600c0160009054906101000a900460ff16600c81111561180857fe5b14151561181457600080fd5b6008600083815260200190815260200160002060020160009054906101000a900473ffffffffffffffffffffffffffffffffffffffff168073ffffffffffffffffffffffffffffffffffffffff163373ffffffffffffffffffffffffffffffffffffffff1614151561188557600080fd5b600a60086000858152602001908152602001600020600c0160006101000a81548160ff0219169083600c8111156118b857fe5b02179055507f322f34e90f2269750b3e28178631d975cc678db36f21098fe548b7f755ce0bd0836040518082815260200191505060405180910390a1505050565b6119023361374d565b151561190d57600080fd5b61191681613a68565b50565b600560009054906101000a900473ffffffffffffffffffffffffffffffffffffffff1673ffffffffffffffffffffffffffffffffffffffff163373ffffffffffffffffffffffffffffffffffffffff1614156119b757600061199c600560009054906101000a900473ffffffffffffffffffffffffffffffffffffffff166139ca565b90508073ffffffffffffffffffffffffffffffffffffffff16ff5b565b6119c23361374d565b15156119cd57600080fd5b60008060006119da613f59565b6007548160000181815250508a81602001818152505033816040019073ffffffffffffffffffffffffffffffffffffffff16908173ffffffffffffffffffffffffffffffffffffffff168152505033816060019073ffffffffffffffffffffffffffffffffffffffff16908173ffffffffffffffffffffffffffffffffffffffff1681525050898160800181905250888160a00181905250878160c00181905250868160e001819052506007548b018161010001818152505085816101200181905250848161016001818152505042816101400181815250506000816101800190600c811115611ac657fe5b9081600c811115611ad357fe5b8152505083816101a0019073ffffffffffffffffffffffffffffffffffffffff16908173ffffffffffffffffffffffffffffffffffffffff168152505082816101c0019073ffffffffffffffffffffffffffffffffffffffff16908173ffffffffffffffffffffffffffffffffffffffff168152505081816101e0019073ffffffffffffffffffffffffffffffffffffffff16908173ffffffffffffffffffffffffffffffffffffffff168152505080600860008d8152602001908152602001600020600082015181600001556020820151816001015560408201518160020160006101000a81548173ffffffffffffffffffffffffffffffffffffffff021916908373ffffffffffffffffffffffffffffffffffffffff16021790555060608201518160030160006101000a81548173ffffffffffffffffffffffffffffffffffffffff021916908373ffffffffffffffffffffffffffffffffffffffff1602179055506080820151816004019080519060200190611c54929190614050565b5060a0820151816005019080519060200190611c71929190614050565b5060c0820151816006019080519060200190611c8e929190614050565b5060e0820151816007019080519060200190611cab929190614050565b506101008201518160080155610120820151816009019080519060200190611cd4929190614050565b5061014082015181600a015561016082015181600b015561018082015181600c0160006101000a81548160ff0219169083600c811115611d1057fe5b02179055506101a082015181600c0160016101000a81548173ffffffffffffffffffffffffffffffffffffffff021916908373ffffffffffffffffffffffffffffffffffffffff1602179055506101c082015181600d0160006101000a81548173ffffffffffffffffffffffffffffffffffffffff021916908373ffffffffffffffffffffffffffffffffffffffff1602179055506101e082015181600e0160006101000a81548173ffffffffffffffffffffffffffffffffffffffff021916908373ffffffffffffffffffffffffffffffffffffffff1602179055509050506000611dfa613f37565b81816000018181525050818160200181815250508181604001818152505080600960008f81526020019081526020016000206000820151816000015560208201518160010155604082015181600201559050506001600754016007819055507f78e97d8ec26877417127bc38f9a0255895572ec277d8c1da38d769d5448693ed8d6040518082815260200191505060405180910390a150505050505050505050505050565b611ea83361213f565b1515611eb357600080fd5b81600a600c811115611ec157fe5b60086000838152602001908152602001600020600c0160009054906101000a900460ff16600c811115611ef057fe5b141515611efc57600080fd5b6008600084815260200190815260200160002060020160009054906101000a900473ffffffffffffffffffffffffffffffffffffffff168073ffffffffffffffffffffffffffffffffffffffff163373ffffffffffffffffffffffffffffffffffffffff16141515611f6d57600080fd5b600b60086000868152602001908152602001600020600c0160006101000a81548160ff0219169083600c811115611fa057fe5b02179055508260086000868152602001908152602001600020600b01819055507f59e7ad085805e2b02ad4b0f8033bd75e7ee4c8cd43f996267463585e35896252846040518082815260200191505060405180910390a150505050565b612006336138e0565b151561201157600080fd5b806004600c81111561201f57fe5b60086000838152602001908152602001600020600c0160009054906101000a900460ff16600c81111561204e57fe5b14151561205a57600080fd5b6008600083815260200190815260200160002060020160009054906101000a900473ffffffffffffffffffffffffffffffffffffffff168073ffffffffffffffffffffffffffffffffffffffff163373ffffffffffffffffffffffffffffffffffffffff161415156120cb57600080fd5b600560086000858152602001908152602001600020600c0160006101000a81548160ff0219169083600c8111156120fe57fe5b02179055507f5850060ec51c0aa6e46b59a3454a1a6957ddf621b2a1a4c7e69a56641038c21e836040518082815260200191505060405180910390a1505050565b60006121558260036139d490919063ffffffff16565b9050919050565b60008060006060600080600080600080612174613f59565b600860008d8152602001908152602001600020610200604051908101604052908160008201548152602001600182015481526020016002820160009054906101000a900473ffffffffffffffffffffffffffffffffffffffff1673ffffffffffffffffffffffffffffffffffffffff1673ffffffffffffffffffffffffffffffffffffffff1681526020016003820160009054906101000a900473ffffffffffffffffffffffffffffffffffffffff1673ffffffffffffffffffffffffffffffffffffffff1673ffffffffffffffffffffffffffffffffffffffff168152602001600482018054600181600116156101000203166002900480601f0160208091040260200160405190810160405280929190818152602001828054600181600116156101000203166002900480156122ed5780601f106122c2576101008083540402835291602001916122ed565b820191906000526020600020905b8154815290600101906020018083116122d057829003601f168201915b50505050508152602001600582018054600181600116156101000203166002900480601f01602080910402602001604051908101604052809291908181526020018280546001816001161561010002031660029004801561238f5780601f106123645761010080835404028352916020019161238f565b820191906000526020600020905b81548152906001019060200180831161237257829003601f168201915b50505050508152602001600682018054600181600116156101000203166002900480601f0160208091040260200160405190810160405280929190818152602001828054600181600116156101000203166002900480156124315780601f1061240657610100808354040283529160200191612431565b820191906000526020600020905b81548152906001019060200180831161241457829003601f168201915b50505050508152602001600782018054600181600116156101000203166002900480601f0160208091040260200160405190810160405280929190818152602001828054600181600116156101000203166002900480156124d35780601f106124a8576101008083540402835291602001916124d3565b820191906000526020600020905b8154815290600101906020018083116124b657829003601f168201915b5050505050815260200160088201548152602001600982018054600181600116156101000203166002900480601f01602080910402602001604051908101604052809291908181526020018280546001816001161561010002031660029004801561257f5780601f106125545761010080835404028352916020019161257f565b820191906000526020600020905b81548152906001019060200180831161256257829003601f168201915b50505050508152602001600a8201548152602001600b8201548152602001600c820160009054906101000a900460ff16600c8111156125ba57fe5b600c8111156125c557fe5b8152602001600c820160019054906101000a900473ffffffffffffffffffffffffffffffffffffffff1673ffffffffffffffffffffffffffffffffffffffff1673ffffffffffffffffffffffffffffffffffffffff168152602001600d820160009054906101000a900473ffffffffffffffffffffffffffffffffffffffff1673ffffffffffffffffffffffffffffffffffffffff1673ffffffffffffffffffffffffffffffffffffffff168152602001600e820160009054906101000a900473ffffffffffffffffffffffffffffffffffffffff1673ffffffffffffffffffffffffffffffffffffffff1673ffffffffffffffffffffffffffffffffffffffff1681525050905080600001518160200151826101000151836101200151846101600151856101400151866101800151876101a00151886101c00151896101e001518696509a509a509a509a509a509a509a509a509a509a50509193959799509193959799565b600560009054906101000a900473ffffffffffffffffffffffffffffffffffffffff1673ffffffffffffffffffffffffffffffffffffffff163373ffffffffffffffffffffffffffffffffffffffff1614151561278857600080fd5b600073ffffffffffffffffffffffffffffffffffffffff166000809054906101000a900473ffffffffffffffffffffffffffffffffffffffff1673ffffffffffffffffffffffffffffffffffffffff167f5c486528ec3e3f0ea91181cff8116f02bfa350e03b8b6f12e00765adbb5af85c60405160405180910390a360008060006101000a81548173ffffffffffffffffffffffffffffffffffffffff021916908373ffffffffffffffffffffffffffffffffffffffff160217905550565b600080600080606080606080600061285d613f59565b600860008c8152602001908152602001600020610200604051908101604052908160008201548152602001600182015481526020016002820160009054906101000a900473ffffffffffffffffffffffffffffffffffffffff1673ffffffffffffffffffffffffffffffffffffffff1673ffffffffffffffffffffffffffffffffffffffff1681526020016003820160009054906101000a900473ffffffffffffffffffffffffffffffffffffffff1673ffffffffffffffffffffffffffffffffffffffff1673ffffffffffffffffffffffffffffffffffffffff168152602001600482018054600181600116156101000203166002900480601f0160208091040260200160405190810160405280929190818152602001828054600181600116156101000203166002900480156129d65780601f106129ab576101008083540402835291602001916129d6565b820191906000526020600020905b8154815290600101906020018083116129b957829003601f168201915b50505050508152602001600582018054600181600116156101000203166002900480601f016020809104026020016040519081016040528092919081815260200182805460018160011615610100020316600290048015612a785780601f10612a4d57610100808354040283529160200191612a78565b820191906000526020600020905b815481529060010190602001808311612a5b57829003601f168201915b50505050508152602001600682018054600181600116156101000203166002900480601f016020809104026020016040519081016040528092919081815260200182805460018160011615610100020316600290048015612b1a5780601f10612aef57610100808354040283529160200191612b1a565b820191906000526020600020905b815481529060010190602001808311612afd57829003601f168201915b50505050508152602001600782018054600181600116156101000203166002900480601f016020809104026020016040519081016040528092919081815260200182805460018160011615610100020316600290048015612bbc5780601f10612b9157610100808354040283529160200191612bbc565b820191906000526020600020905b815481529060010190602001808311612b9f57829003601f168201915b5050505050815260200160088201548152602001600982018054600181600116156101000203166002900480601f016020809104026020016040519081016040528092919081815260200182805460018160011615610100020316600290048015612c685780601f10612c3d57610100808354040283529160200191612c68565b820191906000526020600020905b815481529060010190602001808311612c4b57829003601f168201915b50505050508152602001600a8201548152602001600b8201548152602001600c820160009054906101000a900460ff16600c811115612ca357fe5b600c811115612cae57fe5b8152602001600c820160019054906101000a900473ffffffffffffffffffffffffffffffffffffffff1673ffffffffffffffffffffffffffffffffffffffff1673ffffffffffffffffffffffffffffffffffffffff168152602001600d820160009054906101000a900473ffffffffffffffffffffffffffffffffffffffff1673ffffffffffffffffffffffffffffffffffffffff1673ffffffffffffffffffffffffffffffffffffffff168152602001600e820160009054906101000a900473ffffffffffffffffffffffffffffffffffffffff1673ffffffffffffffffffffffffffffffffffffffff1673ffffffffffffffffffffffffffffffffffffffff16815250509050806000015181602001518260400151836060015184608001518560a001518660c001518760e00151886101400151849450839350829250819150995099509950995099509950995099509950509193959799909294969850565b612e1933613ac2565b565b612e243361213f565b1515612e2f57600080fd5b612e3881613b1c565b50565b60008060009054906101000a900473ffffffffffffffffffffffffffffffffffffffff1673ffffffffffffffffffffffffffffffffffffffff163373ffffffffffffffffffffffffffffffffffffffff1614905090565b612e9b336138e0565b1515612ea657600080fd5b806008600c811115612eb457fe5b60086000838152602001908152602001600020600c0160009054906101000a900460ff16600c811115612ee357fe5b141515612eef57600080fd5b60086000838152602001908152602001600020600c0160019054906101000a900473ffffffffffffffffffffffffffffffffffffffff168073ffffffffffffffffffffffffffffffffffffffff163373ffffffffffffffffffffffffffffffffffffffff16141515612f6057600080fd5b600960086000858152602001908152602001600020600c0160006101000a81548160ff0219169083600c811115612f9357fe5b02179055507f4e7c14b88fc9d3a83f3e19d743228381a4afdfd4b1358478fe3a9206f1d0fcf7836040518082815260200191505060405180910390a1505050565b612fdd336138e0565b1515612fe857600080fd5b816006600c811115612ff657fe5b60086000838152602001908152602001600020600c0160009054906101000a900460ff16600c81111561302557fe5b14151561303157600080fd5b6008600084815260200190815260200160002060020160009054906101000a900473ffffffffffffffffffffffffffffffffffffffff168073ffffffffffffffffffffffffffffffffffffffff163373ffffffffffffffffffffffffffffffffffffffff161415156130a257600080fd5b600760086000868152602001908152602001600020600c0160006101000a81548160ff0219169083600c8111156130d557fe5b02179055508260086000868152602001908152602001600020600b01819055507fb4760b865b779f5a6d912d4e91c8c27ce2af98ed131c013c853c618a2d998cd96006546040518082815260200191505060405180910390a150505050565b61313d33611658565b151561314857600080fd5b80600b600c81111561315657fe5b60086000838152602001908152602001600020600c0160009054906101000a900460ff16600c81111561318557fe5b14151561319157600080fd5b60086000838152602001908152602001600020600b01548034101515156131b757600080fd5b8233600060086000848152602001908152602001600020600b01549050600081340390508273ffffffffffffffffffffffffffffffffffffffff166108fc829081150290604051600060405180830381858888f19350505050158015613221573d6000803e3d6000fd5b503360086000898152602001908152602001600020600e0160006101000a81548173ffffffffffffffffffffffffffffffffffffffff021916908373ffffffffffffffffffffffffffffffffffffffff16021790555060006132b8600860008a8152602001908152602001600020600d0160009054906101000a900473ffffffffffffffffffffffffffffffffffffffff166139ca565b90508073ffffffffffffffffffffffffffffffffffffffff166108fc600860008b8152602001908152602001600020600b01549081150290604051600060405180830381858888f19350505050158015613316573d6000803e3d6000fd5b5033600860008a815260200190815260200160002060020160006101000a81548173ffffffffffffffffffffffffffffffffffffffff021916908373ffffffffffffffffffffffffffffffffffffffff16021790555033600860008a8152602001908152602001600020600e0160006101000a81548173ffffffffffffffffffffffffffffffffffffffff021916908373ffffffffffffffffffffffffffffffffffffffff160217905550600c600860008a8152602001908152602001600020600c0160006101000a81548160ff0219169083600c8111156133f457fe5b021790555043600960008a8152602001908152602001600020600201819055507ffd054e59d299873fab61a3c67d86d3a139b75dcd5cd82894d8983fc5e2669c82886040518082815260200191505060405180910390a15050505050505050565b61345e336138e0565b151561346957600080fd5b806001600c81111561347757fe5b60086000838152602001908152602001600020600c0160009054906101000a900460ff16600c8111156134a657fe5b1415156134b257600080fd5b60086000838152602001908152602001600020600b01548034101515156134d857600080fd5b8233600060086000848152602001908152602001600020600b01549050600081340390508273ffffffffffffffffffffffffffffffffffffffff166108fc829081150290604051600060405180830381858888f19350505050158015613542573d6000803e3d6000fd5b506000613584600860008a815260200190815260200160002060030160009054906101000a900473ffffffffffffffffffffffffffffffffffffffff166139ca565b90508073ffffffffffffffffffffffffffffffffffffffff166108fc600860008b8152602001908152602001600020600b01549081150290604051600060405180830381858888f193505050501580156135e2573d6000803e3d6000fd5b5033600860008a815260200190815260200160002060020160006101000a81548173ffffffffffffffffffffffffffffffffffffffff021916908373ffffffffffffffffffffffffffffffffffffffff16021790555033600860008a8152602001908152602001600020600c0160016101000a81548173ffffffffffffffffffffffffffffffffffffffff021916908373ffffffffffffffffffffffffffffffffffffffff1602179055506002600860008a8152602001908152602001600020600c0160006101000a81548160ff0219169083600c8111156136c057fe5b021790555043600960008a8152602001908152602001600020600001819055507f36272a130d69ca0cef5a4cb9dff9b680243a98ba47e15416f452c6dd3e8ecc45886040518082815260200191505060405180910390a15050505050505050565b61372a33611658565b151561373557600080fd5b61373e81613b76565b50565b61374a81613bd0565b50565b60006137638260016139d490919063ffffffff16565b9050919050565b613773336138e0565b151561377e57600080fd5b806005600c81111561378c57fe5b60086000838152602001908152602001600020600c0160009054906101000a900460ff16600c8111156137bb57fe5b1415156137c757600080fd5b6008600083815260200190815260200160002060020160009054906101000a900473ffffffffffffffffffffffffffffffffffffffff168073ffffffffffffffffffffffffffffffffffffffff163373ffffffffffffffffffffffffffffffffffffffff1614151561383857600080fd5b600660086000858152602001908152602001600020600c0160006101000a81548160ff0219169083600c81111561386b57fe5b02179055507fc64b5aff5d6ae9ab5bf3bb4d23925f55053719a5a1941a6b59fcc0c8ecced121836040518082815260200191505060405180910390a1505050565b6138b533613c2a565b565b60008060009054906101000a900473ffffffffffffffffffffffffffffffffffffffff16905090565b60006138f68260026139d490919063ffffffff16565b9050919050565b600560009054906101000a900473ffffffffffffffffffffffffffffffffffffffff1673ffffffffffffffffffffffffffffffffffffffff163373ffffffffffffffffffffffffffffffffffffffff1614151561395957600080fd5b61396281613c84565b50565b61396e33613d7e565b565b613984816002613dd890919063ffffffff16565b8073ffffffffffffffffffffffffffffffffffffffff167ff7da286df490d50d713a7db337e873dba3f443fb4d6fd500f71dd90c155eb5c360405160405180910390a250565b6000819050919050565b60008073ffffffffffffffffffffffffffffffffffffffff168273ffffffffffffffffffffffffffffffffffffffff1614151515613a1157600080fd5b8260000160008373ffffffffffffffffffffffffffffffffffffffff1673ffffffffffffffffffffffffffffffffffffffff16815260200190815260200160002060009054906101000a900460ff16905092915050565b613a7c816001613dd890919063ffffffff16565b8073ffffffffffffffffffffffffffffffffffffffff167fc17db36ff5b6d3d05d63c4d52dc5df431b9763a912ce99d8847bc7bdb4589d2d60405160405180910390a250565b613ad6816002613e8890919063ffffffff16565b8073ffffffffffffffffffffffffffffffffffffffff167f3e3f7c027517f367a53ebcefd15973458bf78d9b6d5b0978f4a4d3d3f646cf9660405160405180910390a250565b613b30816003613dd890919063ffffffff16565b8073ffffffffffffffffffffffffffffffffffffffff167f71ae26cad02663e3d92efd6ec56031a80d74a20c0ab4183faa8bf262261c9baa60405160405180910390a250565b613b8a816004613dd890919063ffffffff16565b8073ffffffffffffffffffffffffffffffffffffffff167fcd118a02bd36f224f6f1b93812f78d2bbc2c2dc1bc0f60c176e3b4fe09f1483f60405160405180910390a250565b613be4816004613e8890919063ffffffff16565b8073ffffffffffffffffffffffffffffffffffffffff167fb4c88a9c5cd906354abdd1cc29e4f94c6c4de90754fb80ce51e6a33417bc81b660405160405180910390a250565b613c3e816003613e8890919063ffffffff16565b8073ffffffffffffffffffffffffffffffffffffffff167fdb7176e79cffef81cb01767dd0447a0b24bb72ca9778d4b245581086b2a7e6db60405160405180910390a250565b600073ffffffffffffffffffffffffffffffffffffffff168173ffffffffffffffffffffffffffffffffffffffff1614151515613cc057600080fd5b8073ffffffffffffffffffffffffffffffffffffffff166000809054906101000a900473ffffffffffffffffffffffffffffffffffffffff1673ffffffffffffffffffffffffffffffffffffffff167f5c486528ec3e3f0ea91181cff8116f02bfa350e03b8b6f12e00765adbb5af85c60405160405180910390a3806000806101000a81548173ffffffffffffffffffffffffffffffffffffffff021916908373ffffffffffffffffffffffffffffffffffffffff16021790555050565b613d92816001613e8890919063ffffffff16565b8073ffffffffffffffffffffffffffffffffffffffff167f74e50ebe0d8f15811119637829729a3b44ffc7242575f08ea332c8e3a300e2fd60405160405180910390a250565b600073ffffffffffffffffffffffffffffffffffffffff168173ffffffffffffffffffffffffffffffffffffffff1614151515613e1457600080fd5b613e1e82826139d4565b151515613e2a57600080fd5b60018260000160008373ffffffffffffffffffffffffffffffffffffffff1673ffffffffffffffffffffffffffffffffffffffff16815260200190815260200160002060006101000a81548160ff0219169083151502179055505050565b600073ffffffffffffffffffffffffffffffffffffffff168173ffffffffffffffffffffffffffffffffffffffff1614151515613ec457600080fd5b613ece82826139d4565b1515613ed957600080fd5b60008260000160008373ffffffffffffffffffffffffffffffffffffffff1673ffffffffffffffffffffffffffffffffffffffff16815260200190815260200160002060006101000a81548160ff0219169083151502179055505050565b6060604051908101604052806000815260200160008152602001600081525090565b610200604051908101604052806000815260200160008152602001600073ffffffffffffffffffffffffffffffffffffffff168152602001600073ffffffffffffffffffffffffffffffffffffffff16815260200160608152602001606081526020016060815260200160608152602001600081526020016060815260200160008152602001600081526020016000600c811115613ff357fe5b8152602001600073ffffffffffffffffffffffffffffffffffffffff168152602001600073ffffffffffffffffffffffffffffffffffffffff168152602001600073ffffffffffffffffffffffffffffffffffffffff1681525090565b828054600181600116156101000203166002900490600052602060002090601f016020900481019282601f1061409157805160ff19168380011785556140bf565b828001600101855582156140bf579182015b828111156140be5782518255916020019190600101906140a3565b5b5090506140cc91906140d0565b5090565b6140f291905b808211156140ee5760008160009055506001016140d6565b5090565b9056fea165627a7a723058206b4b3c8116e9d8cb3118c85cf66b57a32b16f53ec308493e7da0266ac129a4ca0029",
					"opcodes": "PUSH1 0x80 PUSH1 0x40 MSTORE CALLER PUSH1 0x0 DUP1 PUSH2 0x100 EXP DUP2 SLOAD DUP2 PUSH20 0xFFFFFFFFFFFFFFFFFFFFFFFFFFFFFFFFFFFFFFFF MUL NOT AND SWAP1 DUP4 PUSH20 0xFFFFFFFFFFFFFFFFFFFFFFFFFFFFFFFFFFFFFFFF AND MUL OR SWAP1 SSTORE POP PUSH1 0x0 DUP1 SWAP1 SLOAD SWAP1 PUSH2 0x100 EXP SWAP1 DIV PUSH20 0xFFFFFFFFFFFFFFFFFFFFFFFFFFFFFFFFFFFFFFFF AND PUSH20 0xFFFFFFFFFFFFFFFFFFFFFFFFFFFFFFFFFFFFFFFF AND PUSH1 0x0 PUSH20 0xFFFFFFFFFFFFFFFFFFFFFFFFFFFFFFFFFFFFFFFF AND PUSH32 0x5C486528EC3E3F0EA91181CFF8116F02BFA350E03B8B6F12E00765ADBB5AF85C PUSH1 0x40 MLOAD PUSH1 0x40 MLOAD DUP1 SWAP2 SUB SWAP1 LOG3 PUSH3 0xDA CALLER PUSH3 0x17F PUSH5 0x100000000 MUL PUSH5 0x100000000 SWAP1 DIV JUMP JUMPDEST PUSH3 0xF4 CALLER PUSH3 0x1E9 PUSH5 0x100000000 MUL PUSH5 0x100000000 SWAP1 DIV JUMP JUMPDEST PUSH3 0x10E CALLER PUSH3 0x253 PUSH5 0x100000000 MUL PUSH5 0x100000000 SWAP1 DIV JUMP JUMPDEST PUSH3 0x128 CALLER PUSH3 0x2BD PUSH5 0x100000000 MUL PUSH5 0x100000000 SWAP1 DIV JUMP JUMPDEST CALLER PUSH1 0x5 PUSH1 0x0 PUSH2 0x100 EXP DUP2 SLOAD DUP2 PUSH20 0xFFFFFFFFFFFFFFFFFFFFFFFFFFFFFFFFFFFFFFFF MUL NOT AND SWAP1 DUP4 PUSH20 0xFFFFFFFFFFFFFFFFFFFFFFFFFFFFFFFFFFFFFFFF AND MUL OR SWAP1 SSTORE POP PUSH1 0x1 PUSH1 0x7 DUP2 SWAP1 SSTORE POP PUSH1 0x1 PUSH1 0x6 DUP2 SWAP1 SSTORE POP PUSH3 0x47F JUMP JUMPDEST PUSH3 0x1A3 DUP2 PUSH1 0x1 PUSH3 0x327 PUSH5 0x100000000 MUL PUSH3 0x3DD8 OR SWAP1 SWAP2 SWAP1 PUSH5 0x100000000 SWAP1 DIV JUMP JUMPDEST DUP1 PUSH20 0xFFFFFFFFFFFFFFFFFFFFFFFFFFFFFFFFFFFFFFFF AND PUSH32 0xC17DB36FF5B6D3D05D63C4D52DC5DF431B9763A912CE99D8847BC7BDB4589D2D PUSH1 0x40 MLOAD PUSH1 0x40 MLOAD DUP1 SWAP2 SUB SWAP1 LOG2 POP JUMP JUMPDEST PUSH3 0x20D DUP2 PUSH1 0x2 PUSH3 0x327 PUSH5 0x100000000 MUL PUSH3 0x3DD8 OR SWAP1 SWAP2 SWAP1 PUSH5 0x100000000 SWAP1 DIV JUMP JUMPDEST DUP1 PUSH20 0xFFFFFFFFFFFFFFFFFFFFFFFFFFFFFFFFFFFFFFFF AND PUSH32 0xF7DA286DF490D50D713A7DB337E873DBA3F443FB4D6FD500F71DD90C155EB5C3 PUSH1 0x40 MLOAD PUSH1 0x40 MLOAD DUP1 SWAP2 SUB SWAP1 LOG2 POP JUMP JUMPDEST PUSH3 0x277 DUP2 PUSH1 0x3 PUSH3 0x327 PUSH5 0x100000000 MUL PUSH3 0x3DD8 OR SWAP1 SWAP2 SWAP1 PUSH5 0x100000000 SWAP1 DIV JUMP JUMPDEST DUP1 PUSH20 0xFFFFFFFFFFFFFFFFFFFFFFFFFFFFFFFFFFFFFFFF AND PUSH32 0x71AE26CAD02663E3D92EFD6EC56031A80D74A20C0AB4183FAA8BF262261C9BAA PUSH1 0x40 MLOAD PUSH1 0x40 MLOAD DUP1 SWAP2 SUB SWAP1 LOG2 POP JUMP JUMPDEST PUSH3 0x2E1 DUP2 PUSH1 0x4 PUSH3 0x327 PUSH5 0x100000000 MUL PUSH3 0x3DD8 OR SWAP1 SWAP2 SWAP1 PUSH5 0x100000000 SWAP1 DIV JUMP JUMPDEST DUP1 PUSH20 0xFFFFFFFFFFFFFFFFFFFFFFFFFFFFFFFFFFFFFFFF AND PUSH32 0xCD118A02BD36F224F6F1B93812F78D2BBC2C2DC1BC0F60C176E3B4FE09F1483F PUSH1 0x40 MLOAD PUSH1 0x40 MLOAD DUP1 SWAP2 SUB SWAP1 LOG2 POP JUMP JUMPDEST PUSH1 0x0 PUSH20 0xFFFFFFFFFFFFFFFFFFFFFFFFFFFFFFFFFFFFFFFF AND DUP2 PUSH20 0xFFFFFFFFFFFFFFFFFFFFFFFFFFFFFFFFFFFFFFFF AND EQ ISZERO ISZERO ISZERO PUSH3 0x364 JUMPI PUSH1 0x0 DUP1 REVERT JUMPDEST PUSH3 0x37F DUP3 DUP3 PUSH3 0x3EA PUSH5 0x100000000 MUL PUSH5 0x100000000 SWAP1 DIV JUMP JUMPDEST ISZERO ISZERO ISZERO PUSH3 0x38C JUMPI PUSH1 0x0 DUP1 REVERT JUMPDEST PUSH1 0x1 DUP3 PUSH1 0x0 ADD PUSH1 0x0 DUP4 PUSH20 0xFFFFFFFFFFFFFFFFFFFFFFFFFFFFFFFFFFFFFFFF AND PUSH20 0xFFFFFFFFFFFFFFFFFFFFFFFFFFFFFFFFFFFFFFFF AND DUP2 MSTORE PUSH1 0x20 ADD SWAP1 DUP2 MSTORE PUSH1 0x20 ADD PUSH1 0x0 KECCAK256 PUSH1 0x0 PUSH2 0x100 EXP DUP2 SLOAD DUP2 PUSH1 0xFF MUL NOT AND SWAP1 DUP4 ISZERO ISZERO MUL OR SWAP1 SSTORE POP POP POP JUMP JUMPDEST PUSH1 0x0 DUP1 PUSH20 0xFFFFFFFFFFFFFFFFFFFFFFFFFFFFFFFFFFFFFFFF AND DUP3 PUSH20 0xFFFFFFFFFFFFFFFFFFFFFFFFFFFFFFFFFFFFFFFF AND EQ ISZERO ISZERO ISZERO PUSH3 0x428 JUMPI PUSH1 0x0 DUP1 REVERT JUMPDEST DUP3 PUSH1 0x0 ADD PUSH1 0x0 DUP4 PUSH20 0xFFFFFFFFFFFFFFFFFFFFFFFFFFFFFFFFFFFFFFFF AND PUSH20 0xFFFFFFFFFFFFFFFFFFFFFFFFFFFFFFFFFFFFFFFF AND DUP2 MSTORE PUSH1 0x20 ADD SWAP1 DUP2 MSTORE PUSH1 0x20 ADD PUSH1 0x0 KECCAK256 PUSH1 0x0 SWAP1 SLOAD SWAP1 PUSH2 0x100 EXP SWAP1 DIV PUSH1 0xFF AND SWAP1 POP SWAP3 SWAP2 POP POP JUMP JUMPDEST PUSH2 0x4121 DUP1 PUSH3 0x48F PUSH1 0x0 CODECOPY PUSH1 0x0 RETURN INVALID PUSH1 0x80 PUSH1 0x40 MSTORE PUSH1 0x4 CALLDATASIZE LT PUSH2 0x1A1 JUMPI PUSH1 0x0 CALLDATALOAD PUSH29 0x100000000000000000000000000000000000000000000000000000000 SWAP1 DIV PUSH4 0xFFFFFFFF AND DUP1 PUSH4 0x1154501C EQ PUSH2 0x1A6 JUMPI DUP1 PUSH4 0x1210A1D8 EQ PUSH2 0x203 JUMPI DUP1 PUSH4 0x1D116EDF EQ PUSH2 0x254 JUMPI DUP1 PUSH4 0x22F11212 EQ PUSH2 0x282 JUMPI DUP1 PUSH4 0x26D529B4 EQ PUSH2 0x2C7 JUMPI DUP1 PUSH4 0x28FD5E83 EQ PUSH2 0x2F5 JUMPI DUP1 PUSH4 0x35F31841 EQ PUSH2 0x35E JUMPI DUP1 PUSH4 0x37B2F92C EQ PUSH2 0x399 JUMPI DUP1 PUSH4 0x40B74C38 EQ PUSH2 0x3D4 JUMPI DUP1 PUSH4 0x41C0E1B5 EQ PUSH2 0x425 JUMPI DUP1 PUSH4 0x4F974166 EQ PUSH2 0x43C JUMPI DUP1 PUSH4 0x546EB586 EQ PUSH2 0x774 JUMPI DUP1 PUSH4 0x56403EF9 EQ PUSH2 0x7B9 JUMPI DUP1 PUSH4 0x5DA09B88 EQ PUSH2 0x7F4 JUMPI DUP1 PUSH4 0x66225FF9 EQ PUSH2 0x85D JUMPI DUP1 PUSH4 0x715018A6 EQ PUSH2 0x9E2 JUMPI DUP1 PUSH4 0x77C45913 EQ PUSH2 0x9F9 JUMPI DUP1 PUSH4 0x8925A06E EQ PUSH2 0xC6C JUMPI DUP1 PUSH4 0x8EC4F505 EQ PUSH2 0xC83 JUMPI DUP1 PUSH4 0x8F32D59B EQ PUSH2 0xCD4 JUMPI DUP1 PUSH4 0x9E3FEBC8 EQ PUSH2 0xD03 JUMPI DUP1 PUSH4 0x9E75EB3E EQ PUSH2 0xD3E JUMPI DUP1 PUSH4 0xA7D247E0 EQ PUSH2 0xD83 JUMPI DUP1 PUSH4 0xAD52DCB7 EQ PUSH2 0xDB1 JUMPI DUP1 PUSH4 0xAD973D74 EQ PUSH2 0xDDF JUMPI DUP1 PUSH4 0xC49EF109 EQ PUSH2 0xE30 JUMPI DUP1 PUSH4 0xC7EF882C EQ PUSH2 0xE81 JUMPI DUP1 PUSH4 0xD2EAFB5A EQ PUSH2 0xEEA JUMPI DUP1 PUSH4 0xDB0E6A2F EQ PUSH2 0xF25 JUMPI DUP1 PUSH4 0xE02E64EA EQ PUSH2 0xF3C JUMPI DUP1 PUSH4 0xE49A83BE EQ PUSH2 0xF93 JUMPI DUP1 PUSH4 0xF2FDE38B EQ PUSH2 0xFFC JUMPI DUP1 PUSH4 0xFFEB4D33 EQ PUSH2 0x104D JUMPI JUMPDEST PUSH1 0x0 DUP1 REVERT JUMPDEST CALLVALUE DUP1 ISZERO PUSH2 0x1B2 JUMPI PUSH1 0x0 DUP1 REVERT JUMPDEST POP PUSH2 0x1DF PUSH1 0x4 DUP1 CALLDATASIZE SUB PUSH1 0x20 DUP2 LT ISZERO PUSH2 0x1C9 JUMPI PUSH1 0x0 DUP1 REVERT JUMPDEST DUP2 ADD SWAP1 DUP1 DUP1 CALLDATALOAD SWAP1 PUSH1 0x20 ADD SWAP1 SWAP3 SWAP2 SWAP1 POP POP POP PUSH2 0x1064 JUMP JUMPDEST PUSH1 0x40 MLOAD DUP1 DUP5 DUP2 MSTORE PUSH1 0x20 ADD DUP4 DUP2 MSTORE PUSH1 0x20 ADD DUP3 DUP2 MSTORE PUSH1 0x20 ADD SWAP4 POP POP POP POP PUSH1 0x40 MLOAD DUP1 SWAP2 SUB SWAP1 RETURN JUMPDEST CALLVALUE DUP1 ISZERO PUSH2 0x20F JUMPI PUSH1 0x0 DUP1 REVERT JUMPDEST POP PUSH2 0x252 PUSH1 0x4 DUP1 CALLDATASIZE SUB PUSH1 0x20 DUP2 LT ISZERO PUSH2 0x226 JUMPI PUSH1 0x0 DUP1 REVERT JUMPDEST DUP2 ADD SWAP1 DUP1 DUP1 CALLDATALOAD PUSH20 0xFFFFFFFFFFFFFFFFFFFFFFFFFFFFFFFFFFFFFFFF AND SWAP1 PUSH1 0x20 ADD SWAP1 SWAP3 SWAP2 SWAP1 POP POP POP PUSH2 0x10CD JUMP JUMPDEST STOP JUMPDEST PUSH2 0x280 PUSH1 0x4 DUP1 CALLDATASIZE SUB PUSH1 0x20 DUP2 LT ISZERO PUSH2 0x26A JUMPI PUSH1 0x0 DUP1 REVERT JUMPDEST DUP2 ADD SWAP1 DUP1 DUP1 CALLDATALOAD SWAP1 PUSH1 0x20 ADD SWAP1 SWAP3 SWAP2 SWAP1 POP POP POP PUSH2 0x10ED JUMP JUMPDEST STOP JUMPDEST CALLVALUE DUP1 ISZERO PUSH2 0x28E JUMPI PUSH1 0x0 DUP1 REVERT JUMPDEST POP PUSH2 0x2C5 PUSH1 0x4 DUP1 CALLDATASIZE SUB PUSH1 0x40 DUP2 LT ISZERO PUSH2 0x2A5 JUMPI PUSH1 0x0 DUP1 REVERT JUMPDEST DUP2 ADD SWAP1 DUP1 DUP1 CALLDATALOAD SWAP1 PUSH1 0x20 ADD SWAP1 SWAP3 SWAP2 SWAP1 DUP1 CALLDATALOAD SWAP1 PUSH1 0x20 ADD SWAP1 SWAP3 SWAP2 SWAP1 POP POP POP PUSH2 0x122F JUMP JUMPDEST STOP JUMPDEST PUSH2 0x2F3 PUSH1 0x4 DUP1 CALLDATASIZE SUB PUSH1 0x20 DUP2 LT ISZERO PUSH2 0x2DD JUMPI PUSH1 0x0 DUP1 REVERT JUMPDEST DUP2 ADD SWAP1 DUP1 DUP1 CALLDATALOAD SWAP1 PUSH1 0x20 ADD SWAP1 SWAP3 SWAP2 SWAP1 POP POP POP PUSH2 0x138D JUMP JUMPDEST STOP JUMPDEST CALLVALUE DUP1 ISZERO PUSH2 0x301 JUMPI PUSH1 0x0 DUP1 REVERT JUMPDEST POP PUSH2 0x344 PUSH1 0x4 DUP1 CALLDATASIZE SUB PUSH1 0x20 DUP2 LT ISZERO PUSH2 0x318 JUMPI PUSH1 0x0 DUP1 REVERT JUMPDEST DUP2 ADD SWAP1 DUP1 DUP1 CALLDATALOAD PUSH20 0xFFFFFFFFFFFFFFFFFFFFFFFFFFFFFFFFFFFFFFFF AND SWAP1 PUSH1 0x20 ADD SWAP1 SWAP3 SWAP2 SWAP1 POP POP POP PUSH2 0x1658 JUMP JUMPDEST PUSH1 0x40 MLOAD DUP1 DUP3 ISZERO ISZERO ISZERO ISZERO DUP2 MSTORE PUSH1 0x20 ADD SWAP2 POP POP PUSH1 0x40 MLOAD DUP1 SWAP2 SUB SWAP1 RETURN JUMPDEST CALLVALUE DUP1 ISZERO PUSH2 0x36A JUMPI PUSH1 0x0 DUP1 REVERT JUMPDEST POP PUSH2 0x397 PUSH1 0x4 DUP1 CALLDATASIZE SUB PUSH1 0x20 DUP2 LT ISZERO PUSH2 0x381 JUMPI PUSH1 0x0 DUP1 REVERT JUMPDEST DUP2 ADD SWAP1 DUP1 DUP1 CALLDATALOAD SWAP1 PUSH1 0x20 ADD SWAP1 SWAP3 SWAP2 SWAP1 POP POP POP PUSH2 0x1675 JUMP JUMPDEST STOP JUMPDEST CALLVALUE DUP1 ISZERO PUSH2 0x3A5 JUMPI PUSH1 0x0 DUP1 REVERT JUMPDEST POP PUSH2 0x3D2 PUSH1 0x4 DUP1 CALLDATASIZE SUB PUSH1 0x20 DUP2 LT ISZERO PUSH2 0x3BC JUMPI PUSH1 0x0 DUP1 REVERT JUMPDEST DUP2 ADD SWAP1 DUP1 DUP1 CALLDATALOAD SWAP1 PUSH1 0x20 ADD SWAP1 SWAP3 SWAP2 SWAP1 POP POP POP PUSH2 0x17B7 JUMP JUMPDEST STOP JUMPDEST CALLVALUE DUP1 ISZERO PUSH2 0x3E0 JUMPI PUSH1 0x0 DUP1 REVERT JUMPDEST POP PUSH2 0x423 PUSH1 0x4 DUP1 CALLDATASIZE SUB PUSH1 0x20 DUP2 LT ISZERO PUSH2 0x3F7 JUMPI PUSH1 0x0 DUP1 REVERT JUMPDEST DUP2 ADD SWAP1 DUP1 DUP1 CALLDATALOAD PUSH20 0xFFFFFFFFFFFFFFFFFFFFFFFFFFFFFFFFFFFFFFFF AND SWAP1 PUSH1 0x20 ADD SWAP1 SWAP3 SWAP2 SWAP1 POP POP POP PUSH2 0x18F9 JUMP JUMPDEST STOP JUMPDEST CALLVALUE DUP1 ISZERO PUSH2 0x431 JUMPI PUSH1 0x0 DUP1 REVERT JUMPDEST POP PUSH2 0x43A PUSH2 0x1919 JUMP JUMPDEST STOP JUMPDEST CALLVALUE DUP1 ISZERO PUSH2 0x448 JUMPI PUSH1 0x0 DUP1 REVERT JUMPDEST POP PUSH2 0x772 PUSH1 0x4 DUP1 CALLDATASIZE SUB PUSH1 0xE0 DUP2 LT ISZERO PUSH2 0x45F JUMPI PUSH1 0x0 DUP1 REVERT JUMPDEST DUP2 ADD SWAP1 DUP1 DUP1 CALLDATALOAD SWAP1 PUSH1 0x20 ADD SWAP1 SWAP3 SWAP2 SWAP1 DUP1 CALLDATALOAD SWAP1 PUSH1 0x20 ADD SWAP1 PUSH5 0x100000000 DUP2 GT ISZERO PUSH2 0x486 JUMPI PUSH1 0x0 DUP1 REVERT JUMPDEST DUP3 ADD DUP4 PUSH1 0x20 DUP3 ADD GT ISZERO PUSH2 0x498 JUMPI PUSH1 0x0 DUP1 REVERT JUMPDEST DUP1 CALLDATALOAD SWAP1 PUSH1 0x20 ADD SWAP2 DUP5 PUSH1 0x1 DUP4 MUL DUP5 ADD GT PUSH5 0x100000000 DUP4 GT OR ISZERO PUSH2 0x4BA JUMPI PUSH1 0x0 DUP1 REVERT JUMPDEST SWAP2 SWAP1 DUP1 DUP1 PUSH1 0x1F ADD PUSH1 0x20 DUP1 SWAP2 DIV MUL PUSH1 0x20 ADD PUSH1 0x40 MLOAD SWAP1 DUP2 ADD PUSH1 0x40 MSTORE DUP1 SWAP4 SWAP3 SWAP2 SWAP1 DUP2 DUP2 MSTORE PUSH1 0x20 ADD DUP4 DUP4 DUP1 DUP3 DUP5 CALLDATACOPY PUSH1 0x0 DUP2 DUP5 ADD MSTORE PUSH1 0x1F NOT PUSH1 0x1F DUP3 ADD AND SWAP1 POP DUP1 DUP4 ADD SWAP3 POP POP POP POP POP POP POP SWAP2 SWAP3 SWAP2 SWAP3 SWAP1 DUP1 CALLDATALOAD SWAP1 PUSH1 0x20 ADD SWAP1 PUSH5 0x100000000 DUP2 GT ISZERO PUSH2 0x51D JUMPI PUSH1 0x0 DUP1 REVERT JUMPDEST DUP3 ADD DUP4 PUSH1 0x20 DUP3 ADD GT ISZERO PUSH2 0x52F JUMPI PUSH1 0x0 DUP1 REVERT JUMPDEST DUP1 CALLDATALOAD SWAP1 PUSH1 0x20 ADD SWAP2 DUP5 PUSH1 0x1 DUP4 MUL DUP5 ADD GT PUSH5 0x100000000 DUP4 GT OR ISZERO PUSH2 0x551 JUMPI PUSH1 0x0 DUP1 REVERT JUMPDEST SWAP2 SWAP1 DUP1 DUP1 PUSH1 0x1F ADD PUSH1 0x20 DUP1 SWAP2 DIV MUL PUSH1 0x20 ADD PUSH1 0x40 MLOAD SWAP1 DUP2 ADD PUSH1 0x40 MSTORE DUP1 SWAP4 SWAP3 SWAP2 SWAP1 DUP2 DUP2 MSTORE PUSH1 0x20 ADD DUP4 DUP4 DUP1 DUP3 DUP5 CALLDATACOPY PUSH1 0x0 DUP2 DUP5 ADD MSTORE PUSH1 0x1F NOT PUSH1 0x1F DUP3 ADD AND SWAP1 POP DUP1 DUP4 ADD SWAP3 POP POP POP POP POP POP POP SWAP2 SWAP3 SWAP2 SWAP3 SWAP1 DUP1 CALLDATALOAD SWAP1 PUSH1 0x20 ADD SWAP1 PUSH5 0x100000000 DUP2 GT ISZERO PUSH2 0x5B4 JUMPI PUSH1 0x0 DUP1 REVERT JUMPDEST DUP3 ADD DUP4 PUSH1 0x20 DUP3 ADD GT ISZERO PUSH2 0x5C6 JUMPI PUSH1 0x0 DUP1 REVERT JUMPDEST DUP1 CALLDATALOAD SWAP1 PUSH1 0x20 ADD SWAP2 DUP5 PUSH1 0x1 DUP4 MUL DUP5 ADD GT PUSH5 0x100000000 DUP4 GT OR ISZERO PUSH2 0x5E8 JUMPI PUSH1 0x0 DUP1 REVERT JUMPDEST SWAP2 SWAP1 DUP1 DUP1 PUSH1 0x1F ADD PUSH1 0x20 DUP1 SWAP2 DIV MUL PUSH1 0x20 ADD PUSH1 0x40 MLOAD SWAP1 DUP2 ADD PUSH1 0x40 MSTORE DUP1 SWAP4 SWAP3 SWAP2 SWAP1 DUP2 DUP2 MSTORE PUSH1 0x20 ADD DUP4 DUP4 DUP1 DUP3 DUP5 CALLDATACOPY PUSH1 0x0 DUP2 DUP5 ADD MSTORE PUSH1 0x1F NOT PUSH1 0x1F DUP3 ADD AND SWAP1 POP DUP1 DUP4 ADD SWAP3 POP POP POP POP POP POP POP SWAP2 SWAP3 SWAP2 SWAP3 SWAP1 DUP1 CALLDATALOAD SWAP1 PUSH1 0x20 ADD SWAP1 PUSH5 0x100000000 DUP2 GT ISZERO PUSH2 0x64B JUMPI PUSH1 0x0 DUP1 REVERT JUMPDEST DUP3 ADD DUP4 PUSH1 0x20 DUP3 ADD GT ISZERO PUSH2 0x65D JUMPI PUSH1 0x0 DUP1 REVERT JUMPDEST DUP1 CALLDATALOAD SWAP1 PUSH1 0x20 ADD SWAP2 DUP5 PUSH1 0x1 DUP4 MUL DUP5 ADD GT PUSH5 0x100000000 DUP4 GT OR ISZERO PUSH2 0x67F JUMPI PUSH1 0x0 DUP1 REVERT JUMPDEST SWAP2 SWAP1 DUP1 DUP1 PUSH1 0x1F ADD PUSH1 0x20 DUP1 SWAP2 DIV MUL PUSH1 0x20 ADD PUSH1 0x40 MLOAD SWAP1 DUP2 ADD PUSH1 0x40 MSTORE DUP1 SWAP4 SWAP3 SWAP2 SWAP1 DUP2 DUP2 MSTORE PUSH1 0x20 ADD DUP4 DUP4 DUP1 DUP3 DUP5 CALLDATACOPY PUSH1 0x0 DUP2 DUP5 ADD MSTORE PUSH1 0x1F NOT PUSH1 0x1F DUP3 ADD AND SWAP1 POP DUP1 DUP4 ADD SWAP3 POP POP POP POP POP POP POP SWAP2 SWAP3 SWAP2 SWAP3 SWAP1 DUP1 CALLDATALOAD SWAP1 PUSH1 0x20 ADD SWAP1 PUSH5 0x100000000 DUP2 GT ISZERO PUSH2 0x6E2 JUMPI PUSH1 0x0 DUP1 REVERT JUMPDEST DUP3 ADD DUP4 PUSH1 0x20 DUP3 ADD GT ISZERO PUSH2 0x6F4 JUMPI PUSH1 0x0 DUP1 REVERT JUMPDEST DUP1 CALLDATALOAD SWAP1 PUSH1 0x20 ADD SWAP2 DUP5 PUSH1 0x1 DUP4 MUL DUP5 ADD GT PUSH5 0x100000000 DUP4 GT OR ISZERO PUSH2 0x716 JUMPI PUSH1 0x0 DUP1 REVERT JUMPDEST SWAP2 SWAP1 DUP1 DUP1 PUSH1 0x1F ADD PUSH1 0x20 DUP1 SWAP2 DIV MUL PUSH1 0x20 ADD PUSH1 0x40 MLOAD SWAP1 DUP2 ADD PUSH1 0x40 MSTORE DUP1 SWAP4 SWAP3 SWAP2 SWAP1 DUP2 DUP2 MSTORE PUSH1 0x20 ADD DUP4 DUP4 DUP1 DUP3 DUP5 CALLDATACOPY PUSH1 0x0 DUP2 DUP5 ADD MSTORE PUSH1 0x1F NOT PUSH1 0x1F DUP3 ADD AND SWAP1 POP DUP1 DUP4 ADD SWAP3 POP POP POP POP POP POP POP SWAP2 SWAP3 SWAP2 SWAP3 SWAP1 DUP1 CALLDATALOAD SWAP1 PUSH1 0x20 ADD SWAP1 SWAP3 SWAP2 SWAP1 POP POP POP PUSH2 0x19B9 JUMP JUMPDEST STOP JUMPDEST CALLVALUE DUP1 ISZERO PUSH2 0x780 JUMPI PUSH1 0x0 DUP1 REVERT JUMPDEST POP PUSH2 0x7B7 PUSH1 0x4 DUP1 CALLDATASIZE SUB PUSH1 0x40 DUP2 LT ISZERO PUSH2 0x797 JUMPI PUSH1 0x0 DUP1 REVERT JUMPDEST DUP2 ADD SWAP1 DUP1 DUP1 CALLDATALOAD SWAP1 PUSH1 0x20 ADD SWAP1 SWAP3 SWAP2 SWAP1 DUP1 CALLDATALOAD SWAP1 PUSH1 0x20 ADD SWAP1 SWAP3 SWAP2 SWAP1 POP POP POP PUSH2 0x1E9F JUMP JUMPDEST STOP JUMPDEST CALLVALUE DUP1 ISZERO PUSH2 0x7C5 JUMPI PUSH1 0x0 DUP1 REVERT JUMPDEST POP PUSH2 0x7F2 PUSH1 0x4 DUP1 CALLDATASIZE SUB PUSH1 0x20 DUP2 LT ISZERO PUSH2 0x7DC JUMPI PUSH1 0x0 DUP1 REVERT JUMPDEST DUP2 ADD SWAP1 DUP1 DUP1 CALLDATALOAD SWAP1 PUSH1 0x20 ADD SWAP1 SWAP3 SWAP2 SWAP1 POP POP POP PUSH2 0x1FFD JUMP JUMPDEST STOP JUMPDEST CALLVALUE DUP1 ISZERO PUSH2 0x800 JUMPI PUSH1 0x0 DUP1 REVERT JUMPDEST POP PUSH2 0x843 PUSH1 0x4 DUP1 CALLDATASIZE SUB PUSH1 0x20 DUP2 LT ISZERO PUSH2 0x817 JUMPI PUSH1 0x0 DUP1 REVERT JUMPDEST DUP2 ADD SWAP1 DUP1 DUP1 CALLDATALOAD PUSH20 0xFFFFFFFFFFFFFFFFFFFFFFFFFFFFFFFFFFFFFFFF AND SWAP1 PUSH1 0x20 ADD SWAP1 SWAP3 SWAP2 SWAP1 POP POP POP PUSH2 0x213F JUMP JUMPDEST PUSH1 0x40 MLOAD DUP1 DUP3 ISZERO ISZERO ISZERO ISZERO DUP2 MSTORE PUSH1 0x20 ADD SWAP2 POP POP PUSH1 0x40 MLOAD DUP1 SWAP2 SUB SWAP1 RETURN JUMPDEST CALLVALUE DUP1 ISZERO PUSH2 0x869 JUMPI PUSH1 0x0 DUP1 REVERT JUMPDEST POP PUSH2 0x896 PUSH1 0x4 DUP1 CALLDATASIZE SUB PUSH1 0x20 DUP2 LT ISZERO PUSH2 0x880 JUMPI PUSH1 0x0 DUP1 REVERT JUMPDEST DUP2 ADD SWAP1 DUP1 DUP1 CALLDATALOAD SWAP1 PUSH1 0x20 ADD SWAP1 SWAP3 SWAP2 SWAP1 POP POP POP PUSH2 0x215C JUMP JUMPDEST PUSH1 0x40 MLOAD DUP1 DUP12 DUP2 MSTORE PUSH1 0x20 ADD DUP11 DUP2 MSTORE PUSH1 0x20 ADD DUP10 DUP2 MSTORE PUSH1 0x20 ADD DUP1 PUSH1 0x20 ADD DUP9 DUP2 MSTORE PUSH1 0x20 ADD DUP8 DUP2 MSTORE PUSH1 0x20 ADD DUP7 PUSH1 0xC DUP2 GT ISZERO PUSH2 0x8C8 JUMPI INVALID JUMPDEST PUSH1 0xFF AND DUP2 MSTORE PUSH1 0x20 ADD DUP6 PUSH20 0xFFFFFFFFFFFFFFFFFFFFFFFFFFFFFFFFFFFFFFFF AND PUSH20 0xFFFFFFFFFFFFFFFFFFFFFFFFFFFFFFFFFFFFFFFF AND DUP2 MSTORE PUSH1 0x20 ADD DUP5 PUSH20 0xFFFFFFFFFFFFFFFFFFFFFFFFFFFFFFFFFFFFFFFF AND PUSH20 0xFFFFFFFFFFFFFFFFFFFFFFFFFFFFFFFFFFFFFFFF AND DUP2 MSTORE PUSH1 0x20 ADD DUP4 PUSH20 0xFFFFFFFFFFFFFFFFFFFFFFFFFFFFFFFFFFFFFFFF AND PUSH20 0xFFFFFFFFFFFFFFFFFFFFFFFFFFFFFFFFFFFFFFFF AND DUP2 MSTORE PUSH1 0x20 ADD DUP3 DUP2 SUB DUP3 MSTORE DUP10 DUP2 DUP2 MLOAD DUP2 MSTORE PUSH1 0x20 ADD SWAP2 POP DUP1 MLOAD SWAP1 PUSH1 0x20 ADD SWAP1 DUP1 DUP4 DUP4 PUSH1 0x0 JUMPDEST DUP4 DUP2 LT ISZERO PUSH2 0x99E JUMPI DUP1 DUP3 ADD MLOAD DUP2 DUP5 ADD MSTORE PUSH1 0x20 DUP2 ADD SWAP1 POP PUSH2 0x983 JUMP JUMPDEST POP POP POP POP SWAP1 POP SWAP1 DUP2 ADD SWAP1 PUSH1 0x1F AND DUP1 ISZERO PUSH2 0x9CB JUMPI DUP1 DUP3 SUB DUP1 MLOAD PUSH1 0x1 DUP4 PUSH1 0x20 SUB PUSH2 0x100 EXP SUB NOT AND DUP2 MSTORE PUSH1 0x20 ADD SWAP2 POP JUMPDEST POP SWAP12 POP POP POP POP POP POP POP POP POP POP POP POP PUSH1 0x40 MLOAD DUP1 SWAP2 SUB SWAP1 RETURN JUMPDEST CALLVALUE DUP1 ISZERO PUSH2 0x9EE JUMPI PUSH1 0x0 DUP1 REVERT JUMPDEST POP PUSH2 0x9F7 PUSH2 0x272C JUMP JUMPDEST STOP JUMPDEST CALLVALUE DUP1 ISZERO PUSH2 0xA05 JUMPI PUSH1 0x0 DUP1 REVERT JUMPDEST POP PUSH2 0xA32 PUSH1 0x4 DUP1 CALLDATASIZE SUB PUSH1 0x20 DUP2 LT ISZERO PUSH2 0xA1C JUMPI PUSH1 0x0 DUP1 REVERT JUMPDEST DUP2 ADD SWAP1 DUP1 DUP1 CALLDATALOAD SWAP1 PUSH1 0x20 ADD SWAP1 SWAP3 SWAP2 SWAP1 POP POP POP PUSH2 0x2847 JUMP JUMPDEST PUSH1 0x40 MLOAD DUP1 DUP11 DUP2 MSTORE PUSH1 0x20 ADD DUP10 DUP2 MSTORE PUSH1 0x20 ADD DUP9 PUSH20 0xFFFFFFFFFFFFFFFFFFFFFFFFFFFFFFFFFFFFFFFF AND PUSH20 0xFFFFFFFFFFFFFFFFFFFFFFFFFFFFFFFFFFFFFFFF AND DUP2 MSTORE PUSH1 0x20 ADD DUP8 PUSH20 0xFFFFFFFFFFFFFFFFFFFFFFFFFFFFFFFFFFFFFFFF AND PUSH20 0xFFFFFFFFFFFFFFFFFFFFFFFFFFFFFFFFFFFFFFFF AND DUP2 MSTORE PUSH1 0x20 ADD DUP1 PUSH1 0x20 ADD DUP1 PUSH1 0x20 ADD DUP1 PUSH1 0x20 ADD DUP1 PUSH1 0x20 ADD DUP7 DUP2 MSTORE PUSH1 0x20 ADD DUP6 DUP2 SUB DUP6 MSTORE DUP11 DUP2 DUP2 MLOAD DUP2 MSTORE PUSH1 0x20 ADD SWAP2 POP DUP1 MLOAD SWAP1 PUSH1 0x20 ADD SWAP1 DUP1 DUP4 DUP4 PUSH1 0x0 JUMPDEST DUP4 DUP2 LT ISZERO PUSH2 0xAF4 JUMPI DUP1 DUP3 ADD MLOAD DUP2 DUP5 ADD MSTORE PUSH1 0x20 DUP2 ADD SWAP1 POP PUSH2 0xAD9 JUMP JUMPDEST POP POP POP POP SWAP1 POP SWAP1 DUP2 ADD SWAP1 PUSH1 0x1F AND DUP1 ISZERO PUSH2 0xB21 JUMPI DUP1 DUP3 SUB DUP1 MLOAD PUSH1 0x1 DUP4 PUSH1 0x20 SUB PUSH2 0x100 EXP SUB NOT AND DUP2 MSTORE PUSH1 0x20 ADD SWAP2 POP JUMPDEST POP DUP6 DUP2 SUB DUP5 MSTORE DUP10 DUP2 DUP2 MLOAD DUP2 MSTORE PUSH1 0x20 ADD SWAP2 POP DUP1 MLOAD SWAP1 PUSH1 0x20 ADD SWAP1 DUP1 DUP4 DUP4 PUSH1 0x0 JUMPDEST DUP4 DUP2 LT ISZERO PUSH2 0xB5A JUMPI DUP1 DUP3 ADD MLOAD DUP2 DUP5 ADD MSTORE PUSH1 0x20 DUP2 ADD SWAP1 POP PUSH2 0xB3F JUMP JUMPDEST POP POP POP POP SWAP1 POP SWAP1 DUP2 ADD SWAP1 PUSH1 0x1F AND DUP1 ISZERO PUSH2 0xB87 JUMPI DUP1 DUP3 SUB DUP1 MLOAD PUSH1 0x1 DUP4 PUSH1 0x20 SUB PUSH2 0x100 EXP SUB NOT AND DUP2 MSTORE PUSH1 0x20 ADD SWAP2 POP JUMPDEST POP DUP6 DUP2 SUB DUP4 MSTORE DUP9 DUP2 DUP2 MLOAD DUP2 MSTORE PUSH1 0x20 ADD SWAP2 POP DUP1 MLOAD SWAP1 PUSH1 0x20 ADD SWAP1 DUP1 DUP4 DUP4 PUSH1 0x0 JUMPDEST DUP4 DUP2 LT ISZERO PUSH2 0xBC0 JUMPI DUP1 DUP3 ADD MLOAD DUP2 DUP5 ADD MSTORE PUSH1 0x20 DUP2 ADD SWAP1 POP PUSH2 0xBA5 JUMP JUMPDEST POP POP POP POP SWAP1 POP SWAP1 DUP2 ADD SWAP1 PUSH1 0x1F AND DUP1 ISZERO PUSH2 0xBED JUMPI DUP1 DUP3 SUB DUP1 MLOAD PUSH1 0x1 DUP4 PUSH1 0x20 SUB PUSH2 0x100 EXP SUB NOT AND DUP2 MSTORE PUSH1 0x20 ADD SWAP2 POP JUMPDEST POP DUP6 DUP2 SUB DUP3 MSTORE DUP8 DUP2 DUP2 MLOAD DUP2 MSTORE PUSH1 0x20 ADD SWAP2 POP DUP1 MLOAD SWAP1 PUSH1 0x20 ADD SWAP1 DUP1 DUP4 DUP4 PUSH1 0x0 JUMPDEST DUP4 DUP2 LT ISZERO PUSH2 0xC26 JUMPI DUP1 DUP3 ADD MLOAD DUP2 DUP5 ADD MSTORE PUSH1 0x20 DUP2 ADD SWAP1 POP PUSH2 0xC0B JUMP JUMPDEST POP POP POP POP SWAP1 POP SWAP1 DUP2 ADD SWAP1 PUSH1 0x1F AND DUP1 ISZERO PUSH2 0xC53 JUMPI DUP1 DUP3 SUB DUP1 MLOAD PUSH1 0x1 DUP4 PUSH1 0x20 SUB PUSH2 0x100 EXP SUB NOT AND DUP2 MSTORE PUSH1 0x20 ADD SWAP2 POP JUMPDEST POP SWAP14 POP POP POP POP POP POP POP POP POP POP POP POP POP POP PUSH1 0x40 MLOAD DUP1 SWAP2 SUB SWAP1 RETURN JUMPDEST CALLVALUE DUP1 ISZERO PUSH2 0xC78 JUMPI PUSH1 0x0 DUP1 REVERT JUMPDEST POP PUSH2 0xC81 PUSH2 0x2E10 JUMP JUMPDEST STOP JUMPDEST CALLVALUE DUP1 ISZERO PUSH2 0xC8F JUMPI PUSH1 0x0 DUP1 REVERT JUMPDEST POP PUSH2 0xCD2 PUSH1 0x4 DUP1 CALLDATASIZE SUB PUSH1 0x20 DUP2 LT ISZERO PUSH2 0xCA6 JUMPI PUSH1 0x0 DUP1 REVERT JUMPDEST DUP2 ADD SWAP1 DUP1 DUP1 CALLDATALOAD PUSH20 0xFFFFFFFFFFFFFFFFFFFFFFFFFFFFFFFFFFFFFFFF AND SWAP1 PUSH1 0x20 ADD SWAP1 SWAP3 SWAP2 SWAP1 POP POP POP PUSH2 0x2E1B JUMP JUMPDEST STOP JUMPDEST CALLVALUE DUP1 ISZERO PUSH2 0xCE0 JUMPI PUSH1 0x0 DUP1 REVERT JUMPDEST POP PUSH2 0xCE9 PUSH2 0x2E3B JUMP JUMPDEST PUSH1 0x40 MLOAD DUP1 DUP3 ISZERO ISZERO ISZERO ISZERO DUP2 MSTORE PUSH1 0x20 ADD SWAP2 POP POP PUSH1 0x40 MLOAD DUP1 SWAP2 SUB SWAP1 RETURN JUMPDEST CALLVALUE DUP1 ISZERO PUSH2 0xD0F JUMPI PUSH1 0x0 DUP1 REVERT JUMPDEST POP PUSH2 0xD3C PUSH1 0x4 DUP1 CALLDATASIZE SUB PUSH1 0x20 DUP2 LT ISZERO PUSH2 0xD26 JUMPI PUSH1 0x0 DUP1 REVERT JUMPDEST DUP2 ADD SWAP1 DUP1 DUP1 CALLDATALOAD SWAP1 PUSH1 0x20 ADD SWAP1 SWAP3 SWAP2 SWAP1 POP POP POP PUSH2 0x2E92 JUMP JUMPDEST STOP JUMPDEST CALLVALUE DUP1 ISZERO PUSH2 0xD4A JUMPI PUSH1 0x0 DUP1 REVERT JUMPDEST POP PUSH2 0xD81 PUSH1 0x4 DUP1 CALLDATASIZE SUB PUSH1 0x40 DUP2 LT ISZERO PUSH2 0xD61 JUMPI PUSH1 0x0 DUP1 REVERT JUMPDEST DUP2 ADD SWAP1 DUP1 DUP1 CALLDATALOAD SWAP1 PUSH1 0x20 ADD SWAP1 SWAP3 SWAP2 SWAP1 DUP1 CALLDATALOAD SWAP1 PUSH1 0x20 ADD SWAP1 SWAP3 SWAP2 SWAP1 POP POP POP PUSH2 0x2FD4 JUMP JUMPDEST STOP JUMPDEST PUSH2 0xDAF PUSH1 0x4 DUP1 CALLDATASIZE SUB PUSH1 0x20 DUP2 LT ISZERO PUSH2 0xD99 JUMPI PUSH1 0x0 DUP1 REVERT JUMPDEST DUP2 ADD SWAP1 DUP1 DUP1 CALLDATALOAD SWAP1 PUSH1 0x20 ADD SWAP1 SWAP3 SWAP2 SWAP1 POP POP POP PUSH2 0x3134 JUMP JUMPDEST STOP JUMPDEST PUSH2 0xDDD PUSH1 0x4 DUP1 CALLDATASIZE SUB PUSH1 0x20 DUP2 LT ISZERO PUSH2 0xDC7 JUMPI PUSH1 0x0 DUP1 REVERT JUMPDEST DUP2 ADD SWAP1 DUP1 DUP1 CALLDATALOAD SWAP1 PUSH1 0x20 ADD SWAP1 SWAP3 SWAP2 SWAP1 POP POP POP PUSH2 0x3455 JUMP JUMPDEST STOP JUMPDEST CALLVALUE DUP1 ISZERO PUSH2 0xDEB JUMPI PUSH1 0x0 DUP1 REVERT JUMPDEST POP PUSH2 0xE2E PUSH1 0x4 DUP1 CALLDATASIZE SUB PUSH1 0x20 DUP2 LT ISZERO PUSH2 0xE02 JUMPI PUSH1 0x0 DUP1 REVERT JUMPDEST DUP2 ADD SWAP1 DUP1 DUP1 CALLDATALOAD PUSH20 0xFFFFFFFFFFFFFFFFFFFFFFFFFFFFFFFFFFFFFFFF AND SWAP1 PUSH1 0x20 ADD SWAP1 SWAP3 SWAP2 SWAP1 POP POP POP PUSH2 0x3721 JUMP JUMPDEST STOP JUMPDEST CALLVALUE DUP1 ISZERO PUSH2 0xE3C JUMPI PUSH1 0x0 DUP1 REVERT JUMPDEST POP PUSH2 0xE7F PUSH1 0x4 DUP1 CALLDATASIZE SUB PUSH1 0x20 DUP2 LT ISZERO PUSH2 0xE53 JUMPI PUSH1 0x0 DUP1 REVERT JUMPDEST DUP2 ADD SWAP1 DUP1 DUP1 CALLDATALOAD PUSH20 0xFFFFFFFFFFFFFFFFFFFFFFFFFFFFFFFFFFFFFFFF AND SWAP1 PUSH1 0x20 ADD SWAP1 SWAP3 SWAP2 SWAP1 POP POP POP PUSH2 0x3741 JUMP JUMPDEST STOP JUMPDEST CALLVALUE DUP1 ISZERO PUSH2 0xE8D JUMPI PUSH1 0x0 DUP1 REVERT JUMPDEST POP PUSH2 0xED0 PUSH1 0x4 DUP1 CALLDATASIZE SUB PUSH1 0x20 DUP2 LT ISZERO PUSH2 0xEA4 JUMPI PUSH1 0x0 DUP1 REVERT JUMPDEST DUP2 ADD SWAP1 DUP1 DUP1 CALLDATALOAD PUSH20 0xFFFFFFFFFFFFFFFFFFFFFFFFFFFFFFFFFFFFFFFF AND SWAP1 PUSH1 0x20 ADD SWAP1 SWAP3 SWAP2 SWAP1 POP POP POP PUSH2 0x374D JUMP JUMPDEST PUSH1 0x40 MLOAD DUP1 DUP3 ISZERO ISZERO ISZERO ISZERO DUP2 MSTORE PUSH1 0x20 ADD SWAP2 POP POP PUSH1 0x40 MLOAD DUP1 SWAP2 SUB SWAP1 RETURN JUMPDEST CALLVALUE DUP1 ISZERO PUSH2 0xEF6 JUMPI PUSH1 0x0 DUP1 REVERT JUMPDEST POP PUSH2 0xF23 PUSH1 0x4 DUP1 CALLDATASIZE SUB PUSH1 0x20 DUP2 LT ISZERO PUSH2 0xF0D JUMPI PUSH1 0x0 DUP1 REVERT JUMPDEST DUP2 ADD SWAP1 DUP1 DUP1 CALLDATALOAD SWAP1 PUSH1 0x20 ADD SWAP1 SWAP3 SWAP2 SWAP1 POP POP POP PUSH2 0x376A JUMP JUMPDEST STOP JUMPDEST CALLVALUE DUP1 ISZERO PUSH2 0xF31 JUMPI PUSH1 0x0 DUP1 REVERT JUMPDEST POP PUSH2 0xF3A PUSH2 0x38AC JUMP JUMPDEST STOP JUMPDEST CALLVALUE DUP1 ISZERO PUSH2 0xF48 JUMPI PUSH1 0x0 DUP1 REVERT JUMPDEST POP PUSH2 0xF51 PUSH2 0x38B7 JUMP JUMPDEST PUSH1 0x40 MLOAD DUP1 DUP3 PUSH20 0xFFFFFFFFFFFFFFFFFFFFFFFFFFFFFFFFFFFFFFFF AND PUSH20 0xFFFFFFFFFFFFFFFFFFFFFFFFFFFFFFFFFFFFFFFF AND DUP2 MSTORE PUSH1 0x20 ADD SWAP2 POP POP PUSH1 0x40 MLOAD DUP1 SWAP2 SUB SWAP1 RETURN JUMPDEST CALLVALUE DUP1 ISZERO PUSH2 0xF9F JUMPI PUSH1 0x0 DUP1 REVERT JUMPDEST POP PUSH2 0xFE2 PUSH1 0x4 DUP1 CALLDATASIZE SUB PUSH1 0x20 DUP2 LT ISZERO PUSH2 0xFB6 JUMPI PUSH1 0x0 DUP1 REVERT JUMPDEST DUP2 ADD SWAP1 DUP1 DUP1 CALLDATALOAD PUSH20 0xFFFFFFFFFFFFFFFFFFFFFFFFFFFFFFFFFFFFFFFF AND SWAP1 PUSH1 0x20 ADD SWAP1 SWAP3 SWAP2 SWAP1 POP POP POP PUSH2 0x38E0 JUMP JUMPDEST PUSH1 0x40 MLOAD DUP1 DUP3 ISZERO ISZERO ISZERO ISZERO DUP2 MSTORE PUSH1 0x20 ADD SWAP2 POP POP PUSH1 0x40 MLOAD DUP1 SWAP2 SUB SWAP1 RETURN JUMPDEST CALLVALUE DUP1 ISZERO PUSH2 0x1008 JUMPI PUSH1 0x0 DUP1 REVERT JUMPDEST POP PUSH2 0x104B PUSH1 0x4 DUP1 CALLDATASIZE SUB PUSH1 0x20 DUP2 LT ISZERO PUSH2 0x101F JUMPI PUSH1 0x0 DUP1 REVERT JUMPDEST DUP2 ADD SWAP1 DUP1 DUP1 CALLDATALOAD PUSH20 0xFFFFFFFFFFFFFFFFFFFFFFFFFFFFFFFFFFFFFFFF AND SWAP1 PUSH1 0x20 ADD SWAP1 SWAP3 SWAP2 SWAP1 POP POP POP PUSH2 0x38FD JUMP JUMPDEST STOP JUMPDEST CALLVALUE DUP1 ISZERO PUSH2 0x1059 JUMPI PUSH1 0x0 DUP1 REVERT JUMPDEST POP PUSH2 0x1062 PUSH2 0x3965 JUMP JUMPDEST STOP JUMPDEST PUSH1 0x0 DUP1 PUSH1 0x0 PUSH2 0x1071 PUSH2 0x3F37 JUMP JUMPDEST PUSH1 0x9 PUSH1 0x0 DUP7 DUP2 MSTORE PUSH1 0x20 ADD SWAP1 DUP2 MSTORE PUSH1 0x20 ADD PUSH1 0x0 KECCAK256 PUSH1 0x60 PUSH1 0x40 MLOAD SWAP1 DUP2 ADD PUSH1 0x40 MSTORE SWAP1 DUP2 PUSH1 0x0 DUP3 ADD SLOAD DUP2 MSTORE PUSH1 0x20 ADD PUSH1 0x1 DUP3 ADD SLOAD DUP2 MSTORE PUSH1 0x20 ADD PUSH1 0x2 DUP3 ADD SLOAD DUP2 MSTORE POP POP SWAP1 POP DUP1 PUSH1 0x0 ADD MLOAD DUP2 PUSH1 0x20 ADD MLOAD DUP3 PUSH1 0x40 ADD MLOAD SWAP4 POP SWAP4 POP SWAP4 POP POP SWAP2 SWAP4 SWAP1 SWAP3 POP JUMP JUMPDEST PUSH2 0x10D6 CALLER PUSH2 0x38E0 JUMP JUMPDEST ISZERO ISZERO PUSH2 0x10E1 JUMPI PUSH1 0x0 DUP1 REVERT JUMPDEST PUSH2 0x10EA DUP2 PUSH2 0x3970 JUMP JUMPDEST POP JUMP JUMPDEST PUSH2 0x10F6 CALLER PUSH2 0x374D JUMP JUMPDEST ISZERO ISZERO PUSH2 0x1101 JUMPI PUSH1 0x0 DUP1 REVERT JUMPDEST DUP1 PUSH1 0x2 PUSH1 0xC DUP2 GT ISZERO PUSH2 0x110F JUMPI INVALID JUMPDEST PUSH1 0x8 PUSH1 0x0 DUP4 DUP2 MSTORE PUSH1 0x20 ADD SWAP1 DUP2 MSTORE PUSH1 0x20 ADD PUSH1 0x0 KECCAK256 PUSH1 0xC ADD PUSH1 0x0 SWAP1 SLOAD SWAP1 PUSH2 0x100 EXP SWAP1 DIV PUSH1 0xFF AND PUSH1 0xC DUP2 GT ISZERO PUSH2 0x113E JUMPI INVALID JUMPDEST EQ ISZERO ISZERO PUSH2 0x114A JUMPI PUSH1 0x0 DUP1 REVERT JUMPDEST PUSH1 0x8 PUSH1 0x0 DUP4 DUP2 MSTORE PUSH1 0x20 ADD SWAP1 DUP2 MSTORE PUSH1 0x20 ADD PUSH1 0x0 KECCAK256 PUSH1 0x3 ADD PUSH1 0x0 SWAP1 SLOAD SWAP1 PUSH2 0x100 EXP SWAP1 DIV PUSH20 0xFFFFFFFFFFFFFFFFFFFFFFFFFFFFFFFFFFFFFFFF AND DUP1 PUSH20 0xFFFFFFFFFFFFFFFFFFFFFFFFFFFFFFFFFFFFFFFF AND CALLER PUSH20 0xFFFFFFFFFFFFFFFFFFFFFFFFFFFFFFFFFFFFFFFF AND EQ ISZERO ISZERO PUSH2 0x11BB JUMPI PUSH1 0x0 DUP1 REVERT JUMPDEST PUSH1 0x3 PUSH1 0x8 PUSH1 0x0 DUP6 DUP2 MSTORE PUSH1 0x20 ADD SWAP1 DUP2 MSTORE PUSH1 0x20 ADD PUSH1 0x0 KECCAK256 PUSH1 0xC ADD PUSH1 0x0 PUSH2 0x100 EXP DUP2 SLOAD DUP2 PUSH1 0xFF MUL NOT AND SWAP1 DUP4 PUSH1 0xC DUP2 GT ISZERO PUSH2 0x11EE JUMPI INVALID JUMPDEST MUL OR SWAP1 SSTORE POP PUSH32 0xB20D2D5532C31DBF6D548E783F891FA0ACA5A4D1BA547151308B89B3D2930D24 DUP4 PUSH1 0x40 MLOAD DUP1 DUP3 DUP2 MSTORE PUSH1 0x20 ADD SWAP2 POP POP PUSH1 0x40 MLOAD DUP1 SWAP2 SUB SWAP1 LOG1 POP POP POP JUMP JUMPDEST PUSH2 0x1238 CALLER PUSH2 0x374D JUMP JUMPDEST ISZERO ISZERO PUSH2 0x1243 JUMPI PUSH1 0x0 DUP1 REVERT JUMPDEST DUP2 PUSH1 0x0 PUSH1 0xC DUP2 GT ISZERO PUSH2 0x1251 JUMPI INVALID JUMPDEST PUSH1 0x8 PUSH1 0x0 DUP4 DUP2 MSTORE PUSH1 0x20 ADD SWAP1 DUP2 MSTORE PUSH1 0x20 ADD PUSH1 0x0 KECCAK256 PUSH1 0xC ADD PUSH1 0x0 SWAP1 SLOAD SWAP1 PUSH2 0x100 EXP SWAP1 DIV PUSH1 0xFF AND PUSH1 0xC DUP2 GT ISZERO PUSH2 0x1280 JUMPI INVALID JUMPDEST EQ ISZERO ISZERO PUSH2 0x128C JUMPI PUSH1 0x0 DUP1 REVERT JUMPDEST PUSH1 0x8 PUSH1 0x0 DUP5 DUP2 MSTORE PUSH1 0x20 ADD SWAP1 DUP2 MSTORE PUSH1 0x20 ADD PUSH1 0x0 KECCAK256 PUSH1 0x2 ADD PUSH1 0x0 SWAP1 SLOAD SWAP1 PUSH2 0x100 EXP SWAP1 DIV PUSH20 0xFFFFFFFFFFFFFFFFFFFFFFFFFFFFFFFFFFFFFFFF AND DUP1 PUSH20 0xFFFFFFFFFFFFFFFFFFFFFFFFFFFFFFFFFFFFFFFF AND CALLER PUSH20 0xFFFFFFFFFFFFFFFFFFFFFFFFFFFFFFFFFFFFFFFF AND EQ ISZERO ISZERO PUSH2 0x12FD JUMPI PUSH1 0x0 DUP1 REVERT JUMPDEST PUSH1 0x1 PUSH1 0x8 PUSH1 0x0 DUP7 DUP2 MSTORE PUSH1 0x20 ADD SWAP1 DUP2 MSTORE PUSH1 0x20 ADD PUSH1 0x0 KECCAK256 PUSH1 0xC ADD PUSH1 0x0 PUSH2 0x100 EXP DUP2 SLOAD DUP2 PUSH1 0xFF MUL NOT AND SWAP1 DUP4 PUSH1 0xC DUP2 GT ISZERO PUSH2 0x1330 JUMPI INVALID JUMPDEST MUL OR SWAP1 SSTORE POP DUP3 PUSH1 0x8 PUSH1 0x0 DUP7 DUP2 MSTORE PUSH1 0x20 ADD SWAP1 DUP2 MSTORE PUSH1 0x20 ADD PUSH1 0x0 KECCAK256 PUSH1 0xB ADD DUP2 SWAP1 SSTORE POP PUSH32 0x2285967D10DD8A9387BF9A505C30B7016DB386768FF2D549D755008DCA90C36D DUP5 PUSH1 0x40 MLOAD DUP1 DUP3 DUP2 MSTORE PUSH1 0x20 ADD SWAP2 POP POP PUSH1 0x40 MLOAD DUP1 SWAP2 SUB SWAP1 LOG1 POP POP POP POP JUMP JUMPDEST PUSH2 0x1396 CALLER PUSH2 0x213F JUMP JUMPDEST ISZERO ISZERO PUSH2 0x13A1 JUMPI PUSH1 0x0 DUP1 REVERT JUMPDEST DUP1 PUSH1 0x7 PUSH1 0xC DUP2 GT ISZERO PUSH2 0x13AF JUMPI INVALID JUMPDEST PUSH1 0x8 PUSH1 0x0 DUP4 DUP2 MSTORE PUSH1 0x20 ADD SWAP1 DUP2 MSTORE PUSH1 0x20 ADD PUSH1 0x0 KECCAK256 PUSH1 0xC ADD PUSH1 0x0 SWAP1 SLOAD SWAP1 PUSH2 0x100 EXP SWAP1 DIV PUSH1 0xFF AND PUSH1 0xC DUP2 GT ISZERO PUSH2 0x13DE JUMPI INVALID JUMPDEST EQ ISZERO ISZERO PUSH2 0x13EA JUMPI PUSH1 0x0 DUP1 REVERT JUMPDEST PUSH1 0x8 PUSH1 0x0 DUP4 DUP2 MSTORE PUSH1 0x20 ADD SWAP1 DUP2 MSTORE PUSH1 0x20 ADD PUSH1 0x0 KECCAK256 PUSH1 0xB ADD SLOAD DUP1 CALLVALUE LT ISZERO ISZERO ISZERO PUSH2 0x1410 JUMPI PUSH1 0x0 DUP1 REVERT JUMPDEST DUP3 CALLER PUSH1 0x0 PUSH1 0x8 PUSH1 0x0 DUP5 DUP2 MSTORE PUSH1 0x20 ADD SWAP1 DUP2 MSTORE PUSH1 0x20 ADD PUSH1 0x0 KECCAK256 PUSH1 0xB ADD SLOAD SWAP1 POP PUSH1 0x0 DUP2 CALLVALUE SUB SWAP1 POP DUP3 PUSH20 0xFFFFFFFFFFFFFFFFFFFFFFFFFFFFFFFFFFFFFFFF AND PUSH2 0x8FC DUP3 SWAP1 DUP2 ISZERO MUL SWAP1 PUSH1 0x40 MLOAD PUSH1 0x0 PUSH1 0x40 MLOAD DUP1 DUP4 SUB DUP2 DUP6 DUP9 DUP9 CALL SWAP4 POP POP POP POP ISZERO DUP1 ISZERO PUSH2 0x147A JUMPI RETURNDATASIZE PUSH1 0x0 DUP1 RETURNDATACOPY RETURNDATASIZE PUSH1 0x0 REVERT JUMPDEST POP PUSH1 0x0 PUSH2 0x14BC PUSH1 0x8 PUSH1 0x0 DUP11 DUP2 MSTORE PUSH1 0x20 ADD SWAP1 DUP2 MSTORE PUSH1 0x20 ADD PUSH1 0x0 KECCAK256 PUSH1 0xC ADD PUSH1 0x1 SWAP1 SLOAD SWAP1 PUSH2 0x100 EXP SWAP1 DIV PUSH20 0xFFFFFFFFFFFFFFFFFFFFFFFFFFFFFFFFFFFFFFFF AND PUSH2 0x39CA JUMP JUMPDEST SWAP1 POP DUP1 PUSH20 0xFFFFFFFFFFFFFFFFFFFFFFFFFFFFFFFFFFFFFFFF AND PUSH2 0x8FC PUSH1 0x8 PUSH1 0x0 DUP12 DUP2 MSTORE PUSH1 0x20 ADD SWAP1 DUP2 MSTORE PUSH1 0x20 ADD PUSH1 0x0 KECCAK256 PUSH1 0xB ADD SLOAD SWAP1 DUP2 ISZERO MUL SWAP1 PUSH1 0x40 MLOAD PUSH1 0x0 PUSH1 0x40 MLOAD DUP1 DUP4 SUB DUP2 DUP6 DUP9 DUP9 CALL SWAP4 POP POP POP POP ISZERO DUP1 ISZERO PUSH2 0x151A JUMPI RETURNDATASIZE PUSH1 0x0 DUP1 RETURNDATACOPY RETURNDATASIZE PUSH1 0x0 REVERT JUMPDEST POP CALLER PUSH1 0x8 PUSH1 0x0 DUP11 DUP2 MSTORE PUSH1 0x20 ADD SWAP1 DUP2 MSTORE PUSH1 0x20 ADD PUSH1 0x0 KECCAK256 PUSH1 0x2 ADD PUSH1 0x0 PUSH2 0x100 EXP DUP2 SLOAD DUP2 PUSH20 0xFFFFFFFFFFFFFFFFFFFFFFFFFFFFFFFFFFFFFFFF MUL NOT AND SWAP1 DUP4 PUSH20 0xFFFFFFFFFFFFFFFFFFFFFFFFFFFFFFFFFFFFFFFF AND MUL OR SWAP1 SSTORE POP CALLER PUSH1 0x8 PUSH1 0x0 DUP11 DUP2 MSTORE PUSH1 0x20 ADD SWAP1 DUP2 MSTORE PUSH1 0x20 ADD PUSH1 0x0 KECCAK256 PUSH1 0xD ADD PUSH1 0x0 PUSH2 0x100 EXP DUP2 SLOAD DUP2 PUSH20 0xFFFFFFFFFFFFFFFFFFFFFFFFFFFFFFFFFFFFFFFF MUL NOT AND SWAP1 DUP4 PUSH20 0xFFFFFFFFFFFFFFFFFFFFFFFFFFFFFFFFFFFFFFFF AND MUL OR SWAP1 SSTORE POP PUSH1 0x8 DUP1 PUSH1 0x0 DUP11 DUP2 MSTORE PUSH1 0x20 ADD SWAP1 DUP2 MSTORE PUSH1 0x20 ADD PUSH1 0x0 KECCAK256 PUSH1 0xC ADD PUSH1 0x0 PUSH2 0x100 EXP DUP2 SLOAD DUP2 PUSH1 0xFF MUL NOT AND SWAP1 DUP4 PUSH1 0xC DUP2 GT ISZERO PUSH2 0x15F7 JUMPI INVALID JUMPDEST MUL OR SWAP1 SSTORE POP NUMBER PUSH1 0x9 PUSH1 0x0 DUP11 DUP2 MSTORE PUSH1 0x20 ADD SWAP1 DUP2 MSTORE PUSH1 0x20 ADD PUSH1 0x0 KECCAK256 PUSH1 0x1 ADD DUP2 SWAP1 SSTORE POP PUSH32 0xAA7352D10146444C3AFD9BD7FB0AE56B0A85E81139536BBEC3F1F660FDDD7BE1 DUP9 PUSH1 0x40 MLOAD DUP1 DUP3 DUP2 MSTORE PUSH1 0x20 ADD SWAP2 POP POP PUSH1 0x40 MLOAD DUP1 SWAP2 SUB SWAP1 LOG1 POP POP POP POP POP POP POP POP JUMP JUMPDEST PUSH1 0x0 PUSH2 0x166E DUP3 PUSH1 0x4 PUSH2 0x39D4 SWAP1 SWAP2 SWAP1 PUSH4 0xFFFFFFFF AND JUMP JUMPDEST SWAP1 POP SWAP2 SWAP1 POP JUMP JUMPDEST PUSH2 0x167E CALLER PUSH2 0x38E0 JUMP JUMPDEST ISZERO ISZERO PUSH2 0x1689 JUMPI PUSH1 0x0 DUP1 REVERT JUMPDEST DUP1 PUSH1 0x3 PUSH1 0xC DUP2 GT ISZERO PUSH2 0x1697 JUMPI INVALID JUMPDEST PUSH1 0x8 PUSH1 0x0 DUP4 DUP2 MSTORE PUSH1 0x20 ADD SWAP1 DUP2 MSTORE PUSH1 0x20 ADD PUSH1 0x0 KECCAK256 PUSH1 0xC ADD PUSH1 0x0 SWAP1 SLOAD SWAP1 PUSH2 0x100 EXP SWAP1 DIV PUSH1 0xFF AND PUSH1 0xC DUP2 GT ISZERO PUSH2 0x16C6 JUMPI INVALID JUMPDEST EQ ISZERO ISZERO PUSH2 0x16D2 JUMPI PUSH1 0x0 DUP1 REVERT JUMPDEST PUSH1 0x8 PUSH1 0x0 DUP4 DUP2 MSTORE PUSH1 0x20 ADD SWAP1 DUP2 MSTORE PUSH1 0x20 ADD PUSH1 0x0 KECCAK256 PUSH1 0x2 ADD PUSH1 0x0 SWAP1 SLOAD SWAP1 PUSH2 0x100 EXP SWAP1 DIV PUSH20 0xFFFFFFFFFFFFFFFFFFFFFFFFFFFFFFFFFFFFFFFF AND DUP1 PUSH20 0xFFFFFFFFFFFFFFFFFFFFFFFFFFFFFFFFFFFFFFFF AND CALLER PUSH20 0xFFFFFFFFFFFFFFFFFFFFFFFFFFFFFFFFFFFFFFFF AND EQ ISZERO ISZERO PUSH2 0x1743 JUMPI PUSH1 0x0 DUP1 REVERT JUMPDEST PUSH1 0x4 PUSH1 0x8 PUSH1 0x0 DUP6 DUP2 MSTORE PUSH1 0x20 ADD SWAP1 DUP2 MSTORE PUSH1 0x20 ADD PUSH1 0x0 KECCAK256 PUSH1 0xC ADD PUSH1 0x0 PUSH2 0x100 EXP DUP2 SLOAD DUP2 PUSH1 0xFF MUL NOT AND SWAP1 DUP4 PUSH1 0xC DUP2 GT ISZERO PUSH2 0x1776 JUMPI INVALID JUMPDEST MUL OR SWAP1 SSTORE POP PUSH32 0x20DAEDC6E037D61E8601E0AE769B377ABAEB757C2C96222EBC681C2905C75FB9 DUP4 PUSH1 0x40 MLOAD DUP1 DUP3 DUP2 MSTORE PUSH1 0x20 ADD SWAP2 POP POP PUSH1 0x40 MLOAD DUP1 SWAP2 SUB SWAP1 LOG1 POP POP POP JUMP JUMPDEST PUSH2 0x17C0 CALLER PUSH2 0x213F JUMP JUMPDEST ISZERO ISZERO PUSH2 0x17CB JUMPI PUSH1 0x0 DUP1 REVERT JUMPDEST DUP1 PUSH1 0x9 PUSH1 0xC DUP2 GT ISZERO PUSH2 0x17D9 JUMPI INVALID JUMPDEST PUSH1 0x8 PUSH1 0x0 DUP4 DUP2 MSTORE PUSH1 0x20 ADD SWAP1 DUP2 MSTORE PUSH1 0x20 ADD PUSH1 0x0 KECCAK256 PUSH1 0xC ADD PUSH1 0x0 SWAP1 SLOAD SWAP1 PUSH2 0x100 EXP SWAP1 DIV PUSH1 0xFF AND PUSH1 0xC DUP2 GT ISZERO PUSH2 0x1808 JUMPI INVALID JUMPDEST EQ ISZERO ISZERO PUSH2 0x1814 JUMPI PUSH1 0x0 DUP1 REVERT JUMPDEST PUSH1 0x8 PUSH1 0x0 DUP4 DUP2 MSTORE PUSH1 0x20 ADD SWAP1 DUP2 MSTORE PUSH1 0x20 ADD PUSH1 0x0 KECCAK256 PUSH1 0x2 ADD PUSH1 0x0 SWAP1 SLOAD SWAP1 PUSH2 0x100 EXP SWAP1 DIV PUSH20 0xFFFFFFFFFFFFFFFFFFFFFFFFFFFFFFFFFFFFFFFF AND DUP1 PUSH20 0xFFFFFFFFFFFFFFFFFFFFFFFFFFFFFFFFFFFFFFFF AND CALLER PUSH20 0xFFFFFFFFFFFFFFFFFFFFFFFFFFFFFFFFFFFFFFFF AND EQ ISZERO ISZERO PUSH2 0x1885 JUMPI PUSH1 0x0 DUP1 REVERT JUMPDEST PUSH1 0xA PUSH1 0x8 PUSH1 0x0 DUP6 DUP2 MSTORE PUSH1 0x20 ADD SWAP1 DUP2 MSTORE PUSH1 0x20 ADD PUSH1 0x0 KECCAK256 PUSH1 0xC ADD PUSH1 0x0 PUSH2 0x100 EXP DUP2 SLOAD DUP2 PUSH1 0xFF MUL NOT AND SWAP1 DUP4 PUSH1 0xC DUP2 GT ISZERO PUSH2 0x18B8 JUMPI INVALID JUMPDEST MUL OR SWAP1 SSTORE POP PUSH32 0x322F34E90F2269750B3E28178631D975CC678DB36F21098FE548B7F755CE0BD0 DUP4 PUSH1 0x40 MLOAD DUP1 DUP3 DUP2 MSTORE PUSH1 0x20 ADD SWAP2 POP POP PUSH1 0x40 MLOAD DUP1 SWAP2 SUB SWAP1 LOG1 POP POP POP JUMP JUMPDEST PUSH2 0x1902 CALLER PUSH2 0x374D JUMP JUMPDEST ISZERO ISZERO PUSH2 0x190D JUMPI PUSH1 0x0 DUP1 REVERT JUMPDEST PUSH2 0x1916 DUP2 PUSH2 0x3A68 JUMP JUMPDEST POP JUMP JUMPDEST PUSH1 0x5 PUSH1 0x0 SWAP1 SLOAD SWAP1 PUSH2 0x100 EXP SWAP1 DIV PUSH20 0xFFFFFFFFFFFFFFFFFFFFFFFFFFFFFFFFFFFFFFFF AND PUSH20 0xFFFFFFFFFFFFFFFFFFFFFFFFFFFFFFFFFFFFFFFF AND CALLER PUSH20 0xFFFFFFFFFFFFFFFFFFFFFFFFFFFFFFFFFFFFFFFF AND EQ ISZERO PUSH2 0x19B7 JUMPI PUSH1 0x0 PUSH2 0x199C PUSH1 0x5 PUSH1 0x0 SWAP1 SLOAD SWAP1 PUSH2 0x100 EXP SWAP1 DIV PUSH20 0xFFFFFFFFFFFFFFFFFFFFFFFFFFFFFFFFFFFFFFFF AND PUSH2 0x39CA JUMP JUMPDEST SWAP1 POP DUP1 PUSH20 0xFFFFFFFFFFFFFFFFFFFFFFFFFFFFFFFFFFFFFFFF AND SELFDESTRUCT JUMPDEST JUMP JUMPDEST PUSH2 0x19C2 CALLER PUSH2 0x374D JUMP JUMPDEST ISZERO ISZERO PUSH2 0x19CD JUMPI PUSH1 0x0 DUP1 REVERT JUMPDEST PUSH1 0x0 DUP1 PUSH1 0x0 PUSH2 0x19DA PUSH2 0x3F59 JUMP JUMPDEST PUSH1 0x7 SLOAD DUP2 PUSH1 0x0 ADD DUP2 DUP2 MSTORE POP POP DUP11 DUP2 PUSH1 0x20 ADD DUP2 DUP2 MSTORE POP POP CALLER DUP2 PUSH1 0x40 ADD SWAP1 PUSH20 0xFFFFFFFFFFFFFFFFFFFFFFFFFFFFFFFFFFFFFFFF AND SWAP1 DUP2 PUSH20 0xFFFFFFFFFFFFFFFFFFFFFFFFFFFFFFFFFFFFFFFF AND DUP2 MSTORE POP POP CALLER DUP2 PUSH1 0x60 ADD SWAP1 PUSH20 0xFFFFFFFFFFFFFFFFFFFFFFFFFFFFFFFFFFFFFFFF AND SWAP1 DUP2 PUSH20 0xFFFFFFFFFFFFFFFFFFFFFFFFFFFFFFFFFFFFFFFF AND DUP2 MSTORE POP POP DUP10 DUP2 PUSH1 0x80 ADD DUP2 SWAP1 MSTORE POP DUP9 DUP2 PUSH1 0xA0 ADD DUP2 SWAP1 MSTORE POP DUP8 DUP2 PUSH1 0xC0 ADD DUP2 SWAP1 MSTORE POP DUP7 DUP2 PUSH1 0xE0 ADD DUP2 SWAP1 MSTORE POP PUSH1 0x7 SLOAD DUP12 ADD DUP2 PUSH2 0x100 ADD DUP2 DUP2 MSTORE POP POP DUP6 DUP2 PUSH2 0x120 ADD DUP2 SWAP1 MSTORE POP DUP5 DUP2 PUSH2 0x160 ADD DUP2 DUP2 MSTORE POP POP TIMESTAMP DUP2 PUSH2 0x140 ADD DUP2 DUP2 MSTORE POP POP PUSH1 0x0 DUP2 PUSH2 0x180 ADD SWAP1 PUSH1 0xC DUP2 GT ISZERO PUSH2 0x1AC6 JUMPI INVALID JUMPDEST SWAP1 DUP2 PUSH1 0xC DUP2 GT ISZERO PUSH2 0x1AD3 JUMPI INVALID JUMPDEST DUP2 MSTORE POP POP DUP4 DUP2 PUSH2 0x1A0 ADD SWAP1 PUSH20 0xFFFFFFFFFFFFFFFFFFFFFFFFFFFFFFFFFFFFFFFF AND SWAP1 DUP2 PUSH20 0xFFFFFFFFFFFFFFFFFFFFFFFFFFFFFFFFFFFFFFFF AND DUP2 MSTORE POP POP DUP3 DUP2 PUSH2 0x1C0 ADD SWAP1 PUSH20 0xFFFFFFFFFFFFFFFFFFFFFFFFFFFFFFFFFFFFFFFF AND SWAP1 DUP2 PUSH20 0xFFFFFFFFFFFFFFFFFFFFFFFFFFFFFFFFFFFFFFFF AND DUP2 MSTORE POP POP DUP2 DUP2 PUSH2 0x1E0 ADD SWAP1 PUSH20 0xFFFFFFFFFFFFFFFFFFFFFFFFFFFFFFFFFFFFFFFF AND SWAP1 DUP2 PUSH20 0xFFFFFFFFFFFFFFFFFFFFFFFFFFFFFFFFFFFFFFFF AND DUP2 MSTORE POP POP DUP1 PUSH1 0x8 PUSH1 0x0 DUP14 DUP2 MSTORE PUSH1 0x20 ADD SWAP1 DUP2 MSTORE PUSH1 0x20 ADD PUSH1 0x0 KECCAK256 PUSH1 0x0 DUP3 ADD MLOAD DUP2 PUSH1 0x0 ADD SSTORE PUSH1 0x20 DUP3 ADD MLOAD DUP2 PUSH1 0x1 ADD SSTORE PUSH1 0x40 DUP3 ADD MLOAD DUP2 PUSH1 0x2 ADD PUSH1 0x0 PUSH2 0x100 EXP DUP2 SLOAD DUP2 PUSH20 0xFFFFFFFFFFFFFFFFFFFFFFFFFFFFFFFFFFFFFFFF MUL NOT AND SWAP1 DUP4 PUSH20 0xFFFFFFFFFFFFFFFFFFFFFFFFFFFFFFFFFFFFFFFF AND MUL OR SWAP1 SSTORE POP PUSH1 0x60 DUP3 ADD MLOAD DUP2 PUSH1 0x3 ADD PUSH1 0x0 PUSH2 0x100 EXP DUP2 SLOAD DUP2 PUSH20 0xFFFFFFFFFFFFFFFFFFFFFFFFFFFFFFFFFFFFFFFF MUL NOT AND SWAP1 DUP4 PUSH20 0xFFFFFFFFFFFFFFFFFFFFFFFFFFFFFFFFFFFFFFFF AND MUL OR SWAP1 SSTORE POP PUSH1 0x80 DUP3 ADD MLOAD DUP2 PUSH1 0x4 ADD SWAP1 DUP1 MLOAD SWAP1 PUSH1 0x20 ADD SWAP1 PUSH2 0x1C54 SWAP3 SWAP2 SWAP1 PUSH2 0x4050 JUMP JUMPDEST POP PUSH1 0xA0 DUP3 ADD MLOAD DUP2 PUSH1 0x5 ADD SWAP1 DUP1 MLOAD SWAP1 PUSH1 0x20 ADD SWAP1 PUSH2 0x1C71 SWAP3 SWAP2 SWAP1 PUSH2 0x4050 JUMP JUMPDEST POP PUSH1 0xC0 DUP3 ADD MLOAD DUP2 PUSH1 0x6 ADD SWAP1 DUP1 MLOAD SWAP1 PUSH1 0x20 ADD SWAP1 PUSH2 0x1C8E SWAP3 SWAP2 SWAP1 PUSH2 0x4050 JUMP JUMPDEST POP PUSH1 0xE0 DUP3 ADD MLOAD DUP2 PUSH1 0x7 ADD SWAP1 DUP1 MLOAD SWAP1 PUSH1 0x20 ADD SWAP1 PUSH2 0x1CAB SWAP3 SWAP2 SWAP1 PUSH2 0x4050 JUMP JUMPDEST POP PUSH2 0x100 DUP3 ADD MLOAD DUP2 PUSH1 0x8 ADD SSTORE PUSH2 0x120 DUP3 ADD MLOAD DUP2 PUSH1 0x9 ADD SWAP1 DUP1 MLOAD SWAP1 PUSH1 0x20 ADD SWAP1 PUSH2 0x1CD4 SWAP3 SWAP2 SWAP1 PUSH2 0x4050 JUMP JUMPDEST POP PUSH2 0x140 DUP3 ADD MLOAD DUP2 PUSH1 0xA ADD SSTORE PUSH2 0x160 DUP3 ADD MLOAD DUP2 PUSH1 0xB ADD SSTORE PUSH2 0x180 DUP3 ADD MLOAD DUP2 PUSH1 0xC ADD PUSH1 0x0 PUSH2 0x100 EXP DUP2 SLOAD DUP2 PUSH1 0xFF MUL NOT AND SWAP1 DUP4 PUSH1 0xC DUP2 GT ISZERO PUSH2 0x1D10 JUMPI INVALID JUMPDEST MUL OR SWAP1 SSTORE POP PUSH2 0x1A0 DUP3 ADD MLOAD DUP2 PUSH1 0xC ADD PUSH1 0x1 PUSH2 0x100 EXP DUP2 SLOAD DUP2 PUSH20 0xFFFFFFFFFFFFFFFFFFFFFFFFFFFFFFFFFFFFFFFF MUL NOT AND SWAP1 DUP4 PUSH20 0xFFFFFFFFFFFFFFFFFFFFFFFFFFFFFFFFFFFFFFFF AND MUL OR SWAP1 SSTORE POP PUSH2 0x1C0 DUP3 ADD MLOAD DUP2 PUSH1 0xD ADD PUSH1 0x0 PUSH2 0x100 EXP DUP2 SLOAD DUP2 PUSH20 0xFFFFFFFFFFFFFFFFFFFFFFFFFFFFFFFFFFFFFFFF MUL NOT AND SWAP1 DUP4 PUSH20 0xFFFFFFFFFFFFFFFFFFFFFFFFFFFFFFFFFFFFFFFF AND MUL OR SWAP1 SSTORE POP PUSH2 0x1E0 DUP3 ADD MLOAD DUP2 PUSH1 0xE ADD PUSH1 0x0 PUSH2 0x100 EXP DUP2 SLOAD DUP2 PUSH20 0xFFFFFFFFFFFFFFFFFFFFFFFFFFFFFFFFFFFFFFFF MUL NOT AND SWAP1 DUP4 PUSH20 0xFFFFFFFFFFFFFFFFFFFFFFFFFFFFFFFFFFFFFFFF AND MUL OR SWAP1 SSTORE POP SWAP1 POP POP PUSH1 0x0 PUSH2 0x1DFA PUSH2 0x3F37 JUMP JUMPDEST DUP2 DUP2 PUSH1 0x0 ADD DUP2 DUP2 MSTORE POP POP DUP2 DUP2 PUSH1 0x20 ADD DUP2 DUP2 MSTORE POP POP DUP2 DUP2 PUSH1 0x40 ADD DUP2 DUP2 MSTORE POP POP DUP1 PUSH1 0x9 PUSH1 0x0 DUP16 DUP2 MSTORE PUSH1 0x20 ADD SWAP1 DUP2 MSTORE PUSH1 0x20 ADD PUSH1 0x0 KECCAK256 PUSH1 0x0 DUP3 ADD MLOAD DUP2 PUSH1 0x0 ADD SSTORE PUSH1 0x20 DUP3 ADD MLOAD DUP2 PUSH1 0x1 ADD SSTORE PUSH1 0x40 DUP3 ADD MLOAD DUP2 PUSH1 0x2 ADD SSTORE SWAP1 POP POP PUSH1 0x1 PUSH1 0x7 SLOAD ADD PUSH1 0x7 DUP2 SWAP1 SSTORE POP PUSH32 0x78E97D8EC26877417127BC38F9A0255895572EC277D8C1DA38D769D5448693ED DUP14 PUSH1 0x40 MLOAD DUP1 DUP3 DUP2 MSTORE PUSH1 0x20 ADD SWAP2 POP POP PUSH1 0x40 MLOAD DUP1 SWAP2 SUB SWAP1 LOG1 POP POP POP POP POP POP POP POP POP POP POP POP POP JUMP JUMPDEST PUSH2 0x1EA8 CALLER PUSH2 0x213F JUMP JUMPDEST ISZERO ISZERO PUSH2 0x1EB3 JUMPI PUSH1 0x0 DUP1 REVERT JUMPDEST DUP2 PUSH1 0xA PUSH1 0xC DUP2 GT ISZERO PUSH2 0x1EC1 JUMPI INVALID JUMPDEST PUSH1 0x8 PUSH1 0x0 DUP4 DUP2 MSTORE PUSH1 0x20 ADD SWAP1 DUP2 MSTORE PUSH1 0x20 ADD PUSH1 0x0 KECCAK256 PUSH1 0xC ADD PUSH1 0x0 SWAP1 SLOAD SWAP1 PUSH2 0x100 EXP SWAP1 DIV PUSH1 0xFF AND PUSH1 0xC DUP2 GT ISZERO PUSH2 0x1EF0 JUMPI INVALID JUMPDEST EQ ISZERO ISZERO PUSH2 0x1EFC JUMPI PUSH1 0x0 DUP1 REVERT JUMPDEST PUSH1 0x8 PUSH1 0x0 DUP5 DUP2 MSTORE PUSH1 0x20 ADD SWAP1 DUP2 MSTORE PUSH1 0x20 ADD PUSH1 0x0 KECCAK256 PUSH1 0x2 ADD PUSH1 0x0 SWAP1 SLOAD SWAP1 PUSH2 0x100 EXP SWAP1 DIV PUSH20 0xFFFFFFFFFFFFFFFFFFFFFFFFFFFFFFFFFFFFFFFF AND DUP1 PUSH20 0xFFFFFFFFFFFFFFFFFFFFFFFFFFFFFFFFFFFFFFFF AND CALLER PUSH20 0xFFFFFFFFFFFFFFFFFFFFFFFFFFFFFFFFFFFFFFFF AND EQ ISZERO ISZERO PUSH2 0x1F6D JUMPI PUSH1 0x0 DUP1 REVERT JUMPDEST PUSH1 0xB PUSH1 0x8 PUSH1 0x0 DUP7 DUP2 MSTORE PUSH1 0x20 ADD SWAP1 DUP2 MSTORE PUSH1 0x20 ADD PUSH1 0x0 KECCAK256 PUSH1 0xC ADD PUSH1 0x0 PUSH2 0x100 EXP DUP2 SLOAD DUP2 PUSH1 0xFF MUL NOT AND SWAP1 DUP4 PUSH1 0xC DUP2 GT ISZERO PUSH2 0x1FA0 JUMPI INVALID JUMPDEST MUL OR SWAP1 SSTORE POP DUP3 PUSH1 0x8 PUSH1 0x0 DUP7 DUP2 MSTORE PUSH1 0x20 ADD SWAP1 DUP2 MSTORE PUSH1 0x20 ADD PUSH1 0x0 KECCAK256 PUSH1 0xB ADD DUP2 SWAP1 SSTORE POP PUSH32 0x59E7AD085805E2B02AD4B0F8033BD75E7EE4C8CD43F996267463585E35896252 DUP5 PUSH1 0x40 MLOAD DUP1 DUP3 DUP2 MSTORE PUSH1 0x20 ADD SWAP2 POP POP PUSH1 0x40 MLOAD DUP1 SWAP2 SUB SWAP1 LOG1 POP POP POP POP JUMP JUMPDEST PUSH2 0x2006 CALLER PUSH2 0x38E0 JUMP JUMPDEST ISZERO ISZERO PUSH2 0x2011 JUMPI PUSH1 0x0 DUP1 REVERT JUMPDEST DUP1 PUSH1 0x4 PUSH1 0xC DUP2 GT ISZERO PUSH2 0x201F JUMPI INVALID JUMPDEST PUSH1 0x8 PUSH1 0x0 DUP4 DUP2 MSTORE PUSH1 0x20 ADD SWAP1 DUP2 MSTORE PUSH1 0x20 ADD PUSH1 0x0 KECCAK256 PUSH1 0xC ADD PUSH1 0x0 SWAP1 SLOAD SWAP1 PUSH2 0x100 EXP SWAP1 DIV PUSH1 0xFF AND PUSH1 0xC DUP2 GT ISZERO PUSH2 0x204E JUMPI INVALID JUMPDEST EQ ISZERO ISZERO PUSH2 0x205A JUMPI PUSH1 0x0 DUP1 REVERT JUMPDEST PUSH1 0x8 PUSH1 0x0 DUP4 DUP2 MSTORE PUSH1 0x20 ADD SWAP1 DUP2 MSTORE PUSH1 0x20 ADD PUSH1 0x0 KECCAK256 PUSH1 0x2 ADD PUSH1 0x0 SWAP1 SLOAD SWAP1 PUSH2 0x100 EXP SWAP1 DIV PUSH20 0xFFFFFFFFFFFFFFFFFFFFFFFFFFFFFFFFFFFFFFFF AND DUP1 PUSH20 0xFFFFFFFFFFFFFFFFFFFFFFFFFFFFFFFFFFFFFFFF AND CALLER PUSH20 0xFFFFFFFFFFFFFFFFFFFFFFFFFFFFFFFFFFFFFFFF AND EQ ISZERO ISZERO PUSH2 0x20CB JUMPI PUSH1 0x0 DUP1 REVERT JUMPDEST PUSH1 0x5 PUSH1 0x8 PUSH1 0x0 DUP6 DUP2 MSTORE PUSH1 0x20 ADD SWAP1 DUP2 MSTORE PUSH1 0x20 ADD PUSH1 0x0 KECCAK256 PUSH1 0xC ADD PUSH1 0x0 PUSH2 0x100 EXP DUP2 SLOAD DUP2 PUSH1 0xFF MUL NOT AND SWAP1 DUP4 PUSH1 0xC DUP2 GT ISZERO PUSH2 0x20FE JUMPI INVALID JUMPDEST MUL OR SWAP1 SSTORE POP PUSH32 0x5850060EC51C0AA6E46B59A3454A1A6957DDF621B2A1A4C7E69A56641038C21E DUP4 PUSH1 0x40 MLOAD DUP1 DUP3 DUP2 MSTORE PUSH1 0x20 ADD SWAP2 POP POP PUSH1 0x40 MLOAD DUP1 SWAP2 SUB SWAP1 LOG1 POP POP POP JUMP JUMPDEST PUSH1 0x0 PUSH2 0x2155 DUP3 PUSH1 0x3 PUSH2 0x39D4 SWAP1 SWAP2 SWAP1 PUSH4 0xFFFFFFFF AND JUMP JUMPDEST SWAP1 POP SWAP2 SWAP1 POP JUMP JUMPDEST PUSH1 0x0 DUP1 PUSH1 0x0 PUSH1 0x60 PUSH1 0x0 DUP1 PUSH1 0x0 DUP1 PUSH1 0x0 DUP1 PUSH2 0x2174 PUSH2 0x3F59 JUMP JUMPDEST PUSH1 0x8 PUSH1 0x0 DUP14 DUP2 MSTORE PUSH1 0x20 ADD SWAP1 DUP2 MSTORE PUSH1 0x20 ADD PUSH1 0x0 KECCAK256 PUSH2 0x200 PUSH1 0x40 MLOAD SWAP1 DUP2 ADD PUSH1 0x40 MSTORE SWAP1 DUP2 PUSH1 0x0 DUP3 ADD SLOAD DUP2 MSTORE PUSH1 0x20 ADD PUSH1 0x1 DUP3 ADD SLOAD DUP2 MSTORE PUSH1 0x20 ADD PUSH1 0x2 DUP3 ADD PUSH1 0x0 SWAP1 SLOAD SWAP1 PUSH2 0x100 EXP SWAP1 DIV PUSH20 0xFFFFFFFFFFFFFFFFFFFFFFFFFFFFFFFFFFFFFFFF AND PUSH20 0xFFFFFFFFFFFFFFFFFFFFFFFFFFFFFFFFFFFFFFFF AND PUSH20 0xFFFFFFFFFFFFFFFFFFFFFFFFFFFFFFFFFFFFFFFF AND DUP2 MSTORE PUSH1 0x20 ADD PUSH1 0x3 DUP3 ADD PUSH1 0x0 SWAP1 SLOAD SWAP1 PUSH2 0x100 EXP SWAP1 DIV PUSH20 0xFFFFFFFFFFFFFFFFFFFFFFFFFFFFFFFFFFFFFFFF AND PUSH20 0xFFFFFFFFFFFFFFFFFFFFFFFFFFFFFFFFFFFFFFFF AND PUSH20 0xFFFFFFFFFFFFFFFFFFFFFFFFFFFFFFFFFFFFFFFF AND DUP2 MSTORE PUSH1 0x20 ADD PUSH1 0x4 DUP3 ADD DUP1 SLOAD PUSH1 0x1 DUP2 PUSH1 0x1 AND ISZERO PUSH2 0x100 MUL SUB AND PUSH1 0x2 SWAP1 DIV DUP1 PUSH1 0x1F ADD PUSH1 0x20 DUP1 SWAP2 DIV MUL PUSH1 0x20 ADD PUSH1 0x40 MLOAD SWAP1 DUP2 ADD PUSH1 0x40 MSTORE DUP1 SWAP3 SWAP2 SWAP1 DUP2 DUP2 MSTORE PUSH1 0x20 ADD DUP3 DUP1 SLOAD PUSH1 0x1 DUP2 PUSH1 0x1 AND ISZERO PUSH2 0x100 MUL SUB AND PUSH1 0x2 SWAP1 DIV DUP1 ISZERO PUSH2 0x22ED JUMPI DUP1 PUSH1 0x1F LT PUSH2 0x22C2 JUMPI PUSH2 0x100 DUP1 DUP4 SLOAD DIV MUL DUP4 MSTORE SWAP2 PUSH1 0x20 ADD SWAP2 PUSH2 0x22ED JUMP JUMPDEST DUP3 ADD SWAP2 SWAP1 PUSH1 0x0 MSTORE PUSH1 0x20 PUSH1 0x0 KECCAK256 SWAP1 JUMPDEST DUP2 SLOAD DUP2 MSTORE SWAP1 PUSH1 0x1 ADD SWAP1 PUSH1 0x20 ADD DUP1 DUP4 GT PUSH2 0x22D0 JUMPI DUP3 SWAP1 SUB PUSH1 0x1F AND DUP3 ADD SWAP2 JUMPDEST POP POP POP POP POP DUP2 MSTORE PUSH1 0x20 ADD PUSH1 0x5 DUP3 ADD DUP1 SLOAD PUSH1 0x1 DUP2 PUSH1 0x1 AND ISZERO PUSH2 0x100 MUL SUB AND PUSH1 0x2 SWAP1 DIV DUP1 PUSH1 0x1F ADD PUSH1 0x20 DUP1 SWAP2 DIV MUL PUSH1 0x20 ADD PUSH1 0x40 MLOAD SWAP1 DUP2 ADD PUSH1 0x40 MSTORE DUP1 SWAP3 SWAP2 SWAP1 DUP2 DUP2 MSTORE PUSH1 0x20 ADD DUP3 DUP1 SLOAD PUSH1 0x1 DUP2 PUSH1 0x1 AND ISZERO PUSH2 0x100 MUL SUB AND PUSH1 0x2 SWAP1 DIV DUP1 ISZERO PUSH2 0x238F JUMPI DUP1 PUSH1 0x1F LT PUSH2 0x2364 JUMPI PUSH2 0x100 DUP1 DUP4 SLOAD DIV MUL DUP4 MSTORE SWAP2 PUSH1 0x20 ADD SWAP2 PUSH2 0x238F JUMP JUMPDEST DUP3 ADD SWAP2 SWAP1 PUSH1 0x0 MSTORE PUSH1 0x20 PUSH1 0x0 KECCAK256 SWAP1 JUMPDEST DUP2 SLOAD DUP2 MSTORE SWAP1 PUSH1 0x1 ADD SWAP1 PUSH1 0x20 ADD DUP1 DUP4 GT PUSH2 0x2372 JUMPI DUP3 SWAP1 SUB PUSH1 0x1F AND DUP3 ADD SWAP2 JUMPDEST POP POP POP POP POP DUP2 MSTORE PUSH1 0x20 ADD PUSH1 0x6 DUP3 ADD DUP1 SLOAD PUSH1 0x1 DUP2 PUSH1 0x1 AND ISZERO PUSH2 0x100 MUL SUB AND PUSH1 0x2 SWAP1 DIV DUP1 PUSH1 0x1F ADD PUSH1 0x20 DUP1 SWAP2 DIV MUL PUSH1 0x20 ADD PUSH1 0x40 MLOAD SWAP1 DUP2 ADD PUSH1 0x40 MSTORE DUP1 SWAP3 SWAP2 SWAP1 DUP2 DUP2 MSTORE PUSH1 0x20 ADD DUP3 DUP1 SLOAD PUSH1 0x1 DUP2 PUSH1 0x1 AND ISZERO PUSH2 0x100 MUL SUB AND PUSH1 0x2 SWAP1 DIV DUP1 ISZERO PUSH2 0x2431 JUMPI DUP1 PUSH1 0x1F LT PUSH2 0x2406 JUMPI PUSH2 0x100 DUP1 DUP4 SLOAD DIV MUL DUP4 MSTORE SWAP2 PUSH1 0x20 ADD SWAP2 PUSH2 0x2431 JUMP JUMPDEST DUP3 ADD SWAP2 SWAP1 PUSH1 0x0 MSTORE PUSH1 0x20 PUSH1 0x0 KECCAK256 SWAP1 JUMPDEST DUP2 SLOAD DUP2 MSTORE SWAP1 PUSH1 0x1 ADD SWAP1 PUSH1 0x20 ADD DUP1 DUP4 GT PUSH2 0x2414 JUMPI DUP3 SWAP1 SUB PUSH1 0x1F AND DUP3 ADD SWAP2 JUMPDEST POP POP POP POP POP DUP2 MSTORE PUSH1 0x20 ADD PUSH1 0x7 DUP3 ADD DUP1 SLOAD PUSH1 0x1 DUP2 PUSH1 0x1 AND ISZERO PUSH2 0x100 MUL SUB AND PUSH1 0x2 SWAP1 DIV DUP1 PUSH1 0x1F ADD PUSH1 0x20 DUP1 SWAP2 DIV MUL PUSH1 0x20 ADD PUSH1 0x40 MLOAD SWAP1 DUP2 ADD PUSH1 0x40 MSTORE DUP1 SWAP3 SWAP2 SWAP1 DUP2 DUP2 MSTORE PUSH1 0x20 ADD DUP3 DUP1 SLOAD PUSH1 0x1 DUP2 PUSH1 0x1 AND ISZERO PUSH2 0x100 MUL SUB AND PUSH1 0x2 SWAP1 DIV DUP1 ISZERO PUSH2 0x24D3 JUMPI DUP1 PUSH1 0x1F LT PUSH2 0x24A8 JUMPI PUSH2 0x100 DUP1 DUP4 SLOAD DIV MUL DUP4 MSTORE SWAP2 PUSH1 0x20 ADD SWAP2 PUSH2 0x24D3 JUMP JUMPDEST DUP3 ADD SWAP2 SWAP1 PUSH1 0x0 MSTORE PUSH1 0x20 PUSH1 0x0 KECCAK256 SWAP1 JUMPDEST DUP2 SLOAD DUP2 MSTORE SWAP1 PUSH1 0x1 ADD SWAP1 PUSH1 0x20 ADD DUP1 DUP4 GT PUSH2 0x24B6 JUMPI DUP3 SWAP1 SUB PUSH1 0x1F AND DUP3 ADD SWAP2 JUMPDEST POP POP POP POP POP DUP2 MSTORE PUSH1 0x20 ADD PUSH1 0x8 DUP3 ADD SLOAD DUP2 MSTORE PUSH1 0x20 ADD PUSH1 0x9 DUP3 ADD DUP1 SLOAD PUSH1 0x1 DUP2 PUSH1 0x1 AND ISZERO PUSH2 0x100 MUL SUB AND PUSH1 0x2 SWAP1 DIV DUP1 PUSH1 0x1F ADD PUSH1 0x20 DUP1 SWAP2 DIV MUL PUSH1 0x20 ADD PUSH1 0x40 MLOAD SWAP1 DUP2 ADD PUSH1 0x40 MSTORE DUP1 SWAP3 SWAP2 SWAP1 DUP2 DUP2 MSTORE PUSH1 0x20 ADD DUP3 DUP1 SLOAD PUSH1 0x1 DUP2 PUSH1 0x1 AND ISZERO PUSH2 0x100 MUL SUB AND PUSH1 0x2 SWAP1 DIV DUP1 ISZERO PUSH2 0x257F JUMPI DUP1 PUSH1 0x1F LT PUSH2 0x2554 JUMPI PUSH2 0x100 DUP1 DUP4 SLOAD DIV MUL DUP4 MSTORE SWAP2 PUSH1 0x20 ADD SWAP2 PUSH2 0x257F JUMP JUMPDEST DUP3 ADD SWAP2 SWAP1 PUSH1 0x0 MSTORE PUSH1 0x20 PUSH1 0x0 KECCAK256 SWAP1 JUMPDEST DUP2 SLOAD DUP2 MSTORE SWAP1 PUSH1 0x1 ADD SWAP1 PUSH1 0x20 ADD DUP1 DUP4 GT PUSH2 0x2562 JUMPI DUP3 SWAP1 SUB PUSH1 0x1F AND DUP3 ADD SWAP2 JUMPDEST POP POP POP POP POP DUP2 MSTORE PUSH1 0x20 ADD PUSH1 0xA DUP3 ADD SLOAD DUP2 MSTORE PUSH1 0x20 ADD PUSH1 0xB DUP3 ADD SLOAD DUP2 MSTORE PUSH1 0x20 ADD PUSH1 0xC DUP3 ADD PUSH1 0x0 SWAP1 SLOAD SWAP1 PUSH2 0x100 EXP SWAP1 DIV PUSH1 0xFF AND PUSH1 0xC DUP2 GT ISZERO PUSH2 0x25BA JUMPI INVALID JUMPDEST PUSH1 0xC DUP2 GT ISZERO PUSH2 0x25C5 JUMPI INVALID JUMPDEST DUP2 MSTORE PUSH1 0x20 ADD PUSH1 0xC DUP3 ADD PUSH1 0x1 SWAP1 SLOAD SWAP1 PUSH2 0x100 EXP SWAP1 DIV PUSH20 0xFFFFFFFFFFFFFFFFFFFFFFFFFFFFFFFFFFFFFFFF AND PUSH20 0xFFFFFFFFFFFFFFFFFFFFFFFFFFFFFFFFFFFFFFFF AND PUSH20 0xFFFFFFFFFFFFFFFFFFFFFFFFFFFFFFFFFFFFFFFF AND DUP2 MSTORE PUSH1 0x20 ADD PUSH1 0xD DUP3 ADD PUSH1 0x0 SWAP1 SLOAD SWAP1 PUSH2 0x100 EXP SWAP1 DIV PUSH20 0xFFFFFFFFFFFFFFFFFFFFFFFFFFFFFFFFFFFFFFFF AND PUSH20 0xFFFFFFFFFFFFFFFFFFFFFFFFFFFFFFFFFFFFFFFF AND PUSH20 0xFFFFFFFFFFFFFFFFFFFFFFFFFFFFFFFFFFFFFFFF AND DUP2 MSTORE PUSH1 0x20 ADD PUSH1 0xE DUP3 ADD PUSH1 0x0 SWAP1 SLOAD SWAP1 PUSH2 0x100 EXP SWAP1 DIV PUSH20 0xFFFFFFFFFFFFFFFFFFFFFFFFFFFFFFFFFFFFFFFF AND PUSH20 0xFFFFFFFFFFFFFFFFFFFFFFFFFFFFFFFFFFFFFFFF AND PUSH20 0xFFFFFFFFFFFFFFFFFFFFFFFFFFFFFFFFFFFFFFFF AND DUP2 MSTORE POP POP SWAP1 POP DUP1 PUSH1 0x0 ADD MLOAD DUP2 PUSH1 0x20 ADD MLOAD DUP3 PUSH2 0x100 ADD MLOAD DUP4 PUSH2 0x120 ADD MLOAD DUP5 PUSH2 0x160 ADD MLOAD DUP6 PUSH2 0x140 ADD MLOAD DUP7 PUSH2 0x180 ADD MLOAD DUP8 PUSH2 0x1A0 ADD MLOAD DUP9 PUSH2 0x1C0 ADD MLOAD DUP10 PUSH2 0x1E0 ADD MLOAD DUP7 SWAP7 POP SWAP11 POP SWAP11 POP SWAP11 POP SWAP11 POP SWAP11 POP SWAP11 POP SWAP11 POP SWAP11 POP SWAP11 POP SWAP11 POP POP SWAP2 SWAP4 SWAP6 SWAP8 SWAP10 POP SWAP2 SWAP4 SWAP6 SWAP8 SWAP10 JUMP JUMPDEST PUSH1 0x5 PUSH1 0x0 SWAP1 SLOAD SWAP1 PUSH2 0x100 EXP SWAP1 DIV PUSH20 0xFFFFFFFFFFFFFFFFFFFFFFFFFFFFFFFFFFFFFFFF AND PUSH20 0xFFFFFFFFFFFFFFFFFFFFFFFFFFFFFFFFFFFFFFFF AND CALLER PUSH20 0xFFFFFFFFFFFFFFFFFFFFFFFFFFFFFFFFFFFFFFFF AND EQ ISZERO ISZERO PUSH2 0x2788 JUMPI PUSH1 0x0 DUP1 REVERT JUMPDEST PUSH1 0x0 PUSH20 0xFFFFFFFFFFFFFFFFFFFFFFFFFFFFFFFFFFFFFFFF AND PUSH1 0x0 DUP1 SWAP1 SLOAD SWAP1 PUSH2 0x100 EXP SWAP1 DIV PUSH20 0xFFFFFFFFFFFFFFFFFFFFFFFFFFFFFFFFFFFFFFFF AND PUSH20 0xFFFFFFFFFFFFFFFFFFFFFFFFFFFFFFFFFFFFFFFF AND PUSH32 0x5C486528EC3E3F0EA91181CFF8116F02BFA350E03B8B6F12E00765ADBB5AF85C PUSH1 0x40 MLOAD PUSH1 0x40 MLOAD DUP1 SWAP2 SUB SWAP1 LOG3 PUSH1 0x0 DUP1 PUSH1 0x0 PUSH2 0x100 EXP DUP2 SLOAD DUP2 PUSH20 0xFFFFFFFFFFFFFFFFFFFFFFFFFFFFFFFFFFFFFFFF MUL NOT AND SWAP1 DUP4 PUSH20 0xFFFFFFFFFFFFFFFFFFFFFFFFFFFFFFFFFFFFFFFF AND MUL OR SWAP1 SSTORE POP JUMP JUMPDEST PUSH1 0x0 DUP1 PUSH1 0x0 DUP1 PUSH1 0x60 DUP1 PUSH1 0x60 DUP1 PUSH1 0x0 PUSH2 0x285D PUSH2 0x3F59 JUMP JUMPDEST PUSH1 0x8 PUSH1 0x0 DUP13 DUP2 MSTORE PUSH1 0x20 ADD SWAP1 DUP2 MSTORE PUSH1 0x20 ADD PUSH1 0x0 KECCAK256 PUSH2 0x200 PUSH1 0x40 MLOAD SWAP1 DUP2 ADD PUSH1 0x40 MSTORE SWAP1 DUP2 PUSH1 0x0 DUP3 ADD SLOAD DUP2 MSTORE PUSH1 0x20 ADD PUSH1 0x1 DUP3 ADD SLOAD DUP2 MSTORE PUSH1 0x20 ADD PUSH1 0x2 DUP3 ADD PUSH1 0x0 SWAP1 SLOAD SWAP1 PUSH2 0x100 EXP SWAP1 DIV PUSH20 0xFFFFFFFFFFFFFFFFFFFFFFFFFFFFFFFFFFFFFFFF AND PUSH20 0xFFFFFFFFFFFFFFFFFFFFFFFFFFFFFFFFFFFFFFFF AND PUSH20 0xFFFFFFFFFFFFFFFFFFFFFFFFFFFFFFFFFFFFFFFF AND DUP2 MSTORE PUSH1 0x20 ADD PUSH1 0x3 DUP3 ADD PUSH1 0x0 SWAP1 SLOAD SWAP1 PUSH2 0x100 EXP SWAP1 DIV PUSH20 0xFFFFFFFFFFFFFFFFFFFFFFFFFFFFFFFFFFFFFFFF AND PUSH20 0xFFFFFFFFFFFFFFFFFFFFFFFFFFFFFFFFFFFFFFFF AND PUSH20 0xFFFFFFFFFFFFFFFFFFFFFFFFFFFFFFFFFFFFFFFF AND DUP2 MSTORE PUSH1 0x20 ADD PUSH1 0x4 DUP3 ADD DUP1 SLOAD PUSH1 0x1 DUP2 PUSH1 0x1 AND ISZERO PUSH2 0x100 MUL SUB AND PUSH1 0x2 SWAP1 DIV DUP1 PUSH1 0x1F ADD PUSH1 0x20 DUP1 SWAP2 DIV MUL PUSH1 0x20 ADD PUSH1 0x40 MLOAD SWAP1 DUP2 ADD PUSH1 0x40 MSTORE DUP1 SWAP3 SWAP2 SWAP1 DUP2 DUP2 MSTORE PUSH1 0x20 ADD DUP3 DUP1 SLOAD PUSH1 0x1 DUP2 PUSH1 0x1 AND ISZERO PUSH2 0x100 MUL SUB AND PUSH1 0x2 SWAP1 DIV DUP1 ISZERO PUSH2 0x29D6 JUMPI DUP1 PUSH1 0x1F LT PUSH2 0x29AB JUMPI PUSH2 0x100 DUP1 DUP4 SLOAD DIV MUL DUP4 MSTORE SWAP2 PUSH1 0x20 ADD SWAP2 PUSH2 0x29D6 JUMP JUMPDEST DUP3 ADD SWAP2 SWAP1 PUSH1 0x0 MSTORE PUSH1 0x20 PUSH1 0x0 KECCAK256 SWAP1 JUMPDEST DUP2 SLOAD DUP2 MSTORE SWAP1 PUSH1 0x1 ADD SWAP1 PUSH1 0x20 ADD DUP1 DUP4 GT PUSH2 0x29B9 JUMPI DUP3 SWAP1 SUB PUSH1 0x1F AND DUP3 ADD SWAP2 JUMPDEST POP POP POP POP POP DUP2 MSTORE PUSH1 0x20 ADD PUSH1 0x5 DUP3 ADD DUP1 SLOAD PUSH1 0x1 DUP2 PUSH1 0x1 AND ISZERO PUSH2 0x100 MUL SUB AND PUSH1 0x2 SWAP1 DIV DUP1 PUSH1 0x1F ADD PUSH1 0x20 DUP1 SWAP2 DIV MUL PUSH1 0x20 ADD PUSH1 0x40 MLOAD SWAP1 DUP2 ADD PUSH1 0x40 MSTORE DUP1 SWAP3 SWAP2 SWAP1 DUP2 DUP2 MSTORE PUSH1 0x20 ADD DUP3 DUP1 SLOAD PUSH1 0x1 DUP2 PUSH1 0x1 AND ISZERO PUSH2 0x100 MUL SUB AND PUSH1 0x2 SWAP1 DIV DUP1 ISZERO PUSH2 0x2A78 JUMPI DUP1 PUSH1 0x1F LT PUSH2 0x2A4D JUMPI PUSH2 0x100 DUP1 DUP4 SLOAD DIV MUL DUP4 MSTORE SWAP2 PUSH1 0x20 ADD SWAP2 PUSH2 0x2A78 JUMP JUMPDEST DUP3 ADD SWAP2 SWAP1 PUSH1 0x0 MSTORE PUSH1 0x20 PUSH1 0x0 KECCAK256 SWAP1 JUMPDEST DUP2 SLOAD DUP2 MSTORE SWAP1 PUSH1 0x1 ADD SWAP1 PUSH1 0x20 ADD DUP1 DUP4 GT PUSH2 0x2A5B JUMPI DUP3 SWAP1 SUB PUSH1 0x1F AND DUP3 ADD SWAP2 JUMPDEST POP POP POP POP POP DUP2 MSTORE PUSH1 0x20 ADD PUSH1 0x6 DUP3 ADD DUP1 SLOAD PUSH1 0x1 DUP2 PUSH1 0x1 AND ISZERO PUSH2 0x100 MUL SUB AND PUSH1 0x2 SWAP1 DIV DUP1 PUSH1 0x1F ADD PUSH1 0x20 DUP1 SWAP2 DIV MUL PUSH1 0x20 ADD PUSH1 0x40 MLOAD SWAP1 DUP2 ADD PUSH1 0x40 MSTORE DUP1 SWAP3 SWAP2 SWAP1 DUP2 DUP2 MSTORE PUSH1 0x20 ADD DUP3 DUP1 SLOAD PUSH1 0x1 DUP2 PUSH1 0x1 AND ISZERO PUSH2 0x100 MUL SUB AND PUSH1 0x2 SWAP1 DIV DUP1 ISZERO PUSH2 0x2B1A JUMPI DUP1 PUSH1 0x1F LT PUSH2 0x2AEF JUMPI PUSH2 0x100 DUP1 DUP4 SLOAD DIV MUL DUP4 MSTORE SWAP2 PUSH1 0x20 ADD SWAP2 PUSH2 0x2B1A JUMP JUMPDEST DUP3 ADD SWAP2 SWAP1 PUSH1 0x0 MSTORE PUSH1 0x20 PUSH1 0x0 KECCAK256 SWAP1 JUMPDEST DUP2 SLOAD DUP2 MSTORE SWAP1 PUSH1 0x1 ADD SWAP1 PUSH1 0x20 ADD DUP1 DUP4 GT PUSH2 0x2AFD JUMPI DUP3 SWAP1 SUB PUSH1 0x1F AND DUP3 ADD SWAP2 JUMPDEST POP POP POP POP POP DUP2 MSTORE PUSH1 0x20 ADD PUSH1 0x7 DUP3 ADD DUP1 SLOAD PUSH1 0x1 DUP2 PUSH1 0x1 AND ISZERO PUSH2 0x100 MUL SUB AND PUSH1 0x2 SWAP1 DIV DUP1 PUSH1 0x1F ADD PUSH1 0x20 DUP1 SWAP2 DIV MUL PUSH1 0x20 ADD PUSH1 0x40 MLOAD SWAP1 DUP2 ADD PUSH1 0x40 MSTORE DUP1 SWAP3 SWAP2 SWAP1 DUP2 DUP2 MSTORE PUSH1 0x20 ADD DUP3 DUP1 SLOAD PUSH1 0x1 DUP2 PUSH1 0x1 AND ISZERO PUSH2 0x100 MUL SUB AND PUSH1 0x2 SWAP1 DIV DUP1 ISZERO PUSH2 0x2BBC JUMPI DUP1 PUSH1 0x1F LT PUSH2 0x2B91 JUMPI PUSH2 0x100 DUP1 DUP4 SLOAD DIV MUL DUP4 MSTORE SWAP2 PUSH1 0x20 ADD SWAP2 PUSH2 0x2BBC JUMP JUMPDEST DUP3 ADD SWAP2 SWAP1 PUSH1 0x0 MSTORE PUSH1 0x20 PUSH1 0x0 KECCAK256 SWAP1 JUMPDEST DUP2 SLOAD DUP2 MSTORE SWAP1 PUSH1 0x1 ADD SWAP1 PUSH1 0x20 ADD DUP1 DUP4 GT PUSH2 0x2B9F JUMPI DUP3 SWAP1 SUB PUSH1 0x1F AND DUP3 ADD SWAP2 JUMPDEST POP POP POP POP POP DUP2 MSTORE PUSH1 0x20 ADD PUSH1 0x8 DUP3 ADD SLOAD DUP2 MSTORE PUSH1 0x20 ADD PUSH1 0x9 DUP3 ADD DUP1 SLOAD PUSH1 0x1 DUP2 PUSH1 0x1 AND ISZERO PUSH2 0x100 MUL SUB AND PUSH1 0x2 SWAP1 DIV DUP1 PUSH1 0x1F ADD PUSH1 0x20 DUP1 SWAP2 DIV MUL PUSH1 0x20 ADD PUSH1 0x40 MLOAD SWAP1 DUP2 ADD PUSH1 0x40 MSTORE DUP1 SWAP3 SWAP2 SWAP1 DUP2 DUP2 MSTORE PUSH1 0x20 ADD DUP3 DUP1 SLOAD PUSH1 0x1 DUP2 PUSH1 0x1 AND ISZERO PUSH2 0x100 MUL SUB AND PUSH1 0x2 SWAP1 DIV DUP1 ISZERO PUSH2 0x2C68 JUMPI DUP1 PUSH1 0x1F LT PUSH2 0x2C3D JUMPI PUSH2 0x100 DUP1 DUP4 SLOAD DIV MUL DUP4 MSTORE SWAP2 PUSH1 0x20 ADD SWAP2 PUSH2 0x2C68 JUMP JUMPDEST DUP3 ADD SWAP2 SWAP1 PUSH1 0x0 MSTORE PUSH1 0x20 PUSH1 0x0 KECCAK256 SWAP1 JUMPDEST DUP2 SLOAD DUP2 MSTORE SWAP1 PUSH1 0x1 ADD SWAP1 PUSH1 0x20 ADD DUP1 DUP4 GT PUSH2 0x2C4B JUMPI DUP3 SWAP1 SUB PUSH1 0x1F AND DUP3 ADD SWAP2 JUMPDEST POP POP POP POP POP DUP2 MSTORE PUSH1 0x20 ADD PUSH1 0xA DUP3 ADD SLOAD DUP2 MSTORE PUSH1 0x20 ADD PUSH1 0xB DUP3 ADD SLOAD DUP2 MSTORE PUSH1 0x20 ADD PUSH1 0xC DUP3 ADD PUSH1 0x0 SWAP1 SLOAD SWAP1 PUSH2 0x100 EXP SWAP1 DIV PUSH1 0xFF AND PUSH1 0xC DUP2 GT ISZERO PUSH2 0x2CA3 JUMPI INVALID JUMPDEST PUSH1 0xC DUP2 GT ISZERO PUSH2 0x2CAE JUMPI INVALID JUMPDEST DUP2 MSTORE PUSH1 0x20 ADD PUSH1 0xC DUP3 ADD PUSH1 0x1 SWAP1 SLOAD SWAP1 PUSH2 0x100 EXP SWAP1 DIV PUSH20 0xFFFFFFFFFFFFFFFFFFFFFFFFFFFFFFFFFFFFFFFF AND PUSH20 0xFFFFFFFFFFFFFFFFFFFFFFFFFFFFFFFFFFFFFFFF AND PUSH20 0xFFFFFFFFFFFFFFFFFFFFFFFFFFFFFFFFFFFFFFFF AND DUP2 MSTORE PUSH1 0x20 ADD PUSH1 0xD DUP3 ADD PUSH1 0x0 SWAP1 SLOAD SWAP1 PUSH2 0x100 EXP SWAP1 DIV PUSH20 0xFFFFFFFFFFFFFFFFFFFFFFFFFFFFFFFFFFFFFFFF AND PUSH20 0xFFFFFFFFFFFFFFFFFFFFFFFFFFFFFFFFFFFFFFFF AND PUSH20 0xFFFFFFFFFFFFFFFFFFFFFFFFFFFFFFFFFFFFFFFF AND DUP2 MSTORE PUSH1 0x20 ADD PUSH1 0xE DUP3 ADD PUSH1 0x0 SWAP1 SLOAD SWAP1 PUSH2 0x100 EXP SWAP1 DIV PUSH20 0xFFFFFFFFFFFFFFFFFFFFFFFFFFFFFFFFFFFFFFFF AND PUSH20 0xFFFFFFFFFFFFFFFFFFFFFFFFFFFFFFFFFFFFFFFF AND PUSH20 0xFFFFFFFFFFFFFFFFFFFFFFFFFFFFFFFFFFFFFFFF AND DUP2 MSTORE POP POP SWAP1 POP DUP1 PUSH1 0x0 ADD MLOAD DUP2 PUSH1 0x20 ADD MLOAD DUP3 PUSH1 0x40 ADD MLOAD DUP4 PUSH1 0x60 ADD MLOAD DUP5 PUSH1 0x80 ADD MLOAD DUP6 PUSH1 0xA0 ADD MLOAD DUP7 PUSH1 0xC0 ADD MLOAD DUP8 PUSH1 0xE0 ADD MLOAD DUP9 PUSH2 0x140 ADD MLOAD DUP5 SWAP5 POP DUP4 SWAP4 POP DUP3 SWAP3 POP DUP2 SWAP2 POP SWAP10 POP SWAP10 POP SWAP10 POP SWAP10 POP SWAP10 POP SWAP10 POP SWAP10 POP SWAP10 POP SWAP10 POP POP SWAP2 SWAP4 SWAP6 SWAP8 SWAP10 SWAP1 SWAP3 SWAP5 SWAP7 SWAP9 POP JUMP JUMPDEST PUSH2 0x2E19 CALLER PUSH2 0x3AC2 JUMP JUMPDEST JUMP JUMPDEST PUSH2 0x2E24 CALLER PUSH2 0x213F JUMP JUMPDEST ISZERO ISZERO PUSH2 0x2E2F JUMPI PUSH1 0x0 DUP1 REVERT JUMPDEST PUSH2 0x2E38 DUP2 PUSH2 0x3B1C JUMP JUMPDEST POP JUMP JUMPDEST PUSH1 0x0 DUP1 PUSH1 0x0 SWAP1 SLOAD SWAP1 PUSH2 0x100 EXP SWAP1 DIV PUSH20 0xFFFFFFFFFFFFFFFFFFFFFFFFFFFFFFFFFFFFFFFF AND PUSH20 0xFFFFFFFFFFFFFFFFFFFFFFFFFFFFFFFFFFFFFFFF AND CALLER PUSH20 0xFFFFFFFFFFFFFFFFFFFFFFFFFFFFFFFFFFFFFFFF AND EQ SWAP1 POP SWAP1 JUMP JUMPDEST PUSH2 0x2E9B CALLER PUSH2 0x38E0 JUMP JUMPDEST ISZERO ISZERO PUSH2 0x2EA6 JUMPI PUSH1 0x0 DUP1 REVERT JUMPDEST DUP1 PUSH1 0x8 PUSH1 0xC DUP2 GT ISZERO PUSH2 0x2EB4 JUMPI INVALID JUMPDEST PUSH1 0x8 PUSH1 0x0 DUP4 DUP2 MSTORE PUSH1 0x20 ADD SWAP1 DUP2 MSTORE PUSH1 0x20 ADD PUSH1 0x0 KECCAK256 PUSH1 0xC ADD PUSH1 0x0 SWAP1 SLOAD SWAP1 PUSH2 0x100 EXP SWAP1 DIV PUSH1 0xFF AND PUSH1 0xC DUP2 GT ISZERO PUSH2 0x2EE3 JUMPI INVALID JUMPDEST EQ ISZERO ISZERO PUSH2 0x2EEF JUMPI PUSH1 0x0 DUP1 REVERT JUMPDEST PUSH1 0x8 PUSH1 0x0 DUP4 DUP2 MSTORE PUSH1 0x20 ADD SWAP1 DUP2 MSTORE PUSH1 0x20 ADD PUSH1 0x0 KECCAK256 PUSH1 0xC ADD PUSH1 0x1 SWAP1 SLOAD SWAP1 PUSH2 0x100 EXP SWAP1 DIV PUSH20 0xFFFFFFFFFFFFFFFFFFFFFFFFFFFFFFFFFFFFFFFF AND DUP1 PUSH20 0xFFFFFFFFFFFFFFFFFFFFFFFFFFFFFFFFFFFFFFFF AND CALLER PUSH20 0xFFFFFFFFFFFFFFFFFFFFFFFFFFFFFFFFFFFFFFFF AND EQ ISZERO ISZERO PUSH2 0x2F60 JUMPI PUSH1 0x0 DUP1 REVERT JUMPDEST PUSH1 0x9 PUSH1 0x8 PUSH1 0x0 DUP6 DUP2 MSTORE PUSH1 0x20 ADD SWAP1 DUP2 MSTORE PUSH1 0x20 ADD PUSH1 0x0 KECCAK256 PUSH1 0xC ADD PUSH1 0x0 PUSH2 0x100 EXP DUP2 SLOAD DUP2 PUSH1 0xFF MUL NOT AND SWAP1 DUP4 PUSH1 0xC DUP2 GT ISZERO PUSH2 0x2F93 JUMPI INVALID JUMPDEST MUL OR SWAP1 SSTORE POP PUSH32 0x4E7C14B88FC9D3A83F3E19D743228381A4AFDFD4B1358478FE3A9206F1D0FCF7 DUP4 PUSH1 0x40 MLOAD DUP1 DUP3 DUP2 MSTORE PUSH1 0x20 ADD SWAP2 POP POP PUSH1 0x40 MLOAD DUP1 SWAP2 SUB SWAP1 LOG1 POP POP POP JUMP JUMPDEST PUSH2 0x2FDD CALLER PUSH2 0x38E0 JUMP JUMPDEST ISZERO ISZERO PUSH2 0x2FE8 JUMPI PUSH1 0x0 DUP1 REVERT JUMPDEST DUP2 PUSH1 0x6 PUSH1 0xC DUP2 GT ISZERO PUSH2 0x2FF6 JUMPI INVALID JUMPDEST PUSH1 0x8 PUSH1 0x0 DUP4 DUP2 MSTORE PUSH1 0x20 ADD SWAP1 DUP2 MSTORE PUSH1 0x20 ADD PUSH1 0x0 KECCAK256 PUSH1 0xC ADD PUSH1 0x0 SWAP1 SLOAD SWAP1 PUSH2 0x100 EXP SWAP1 DIV PUSH1 0xFF AND PUSH1 0xC DUP2 GT ISZERO PUSH2 0x3025 JUMPI INVALID JUMPDEST EQ ISZERO ISZERO PUSH2 0x3031 JUMPI PUSH1 0x0 DUP1 REVERT JUMPDEST PUSH1 0x8 PUSH1 0x0 DUP5 DUP2 MSTORE PUSH1 0x20 ADD SWAP1 DUP2 MSTORE PUSH1 0x20 ADD PUSH1 0x0 KECCAK256 PUSH1 0x2 ADD PUSH1 0x0 SWAP1 SLOAD SWAP1 PUSH2 0x100 EXP SWAP1 DIV PUSH20 0xFFFFFFFFFFFFFFFFFFFFFFFFFFFFFFFFFFFFFFFF AND DUP1 PUSH20 0xFFFFFFFFFFFFFFFFFFFFFFFFFFFFFFFFFFFFFFFF AND CALLER PUSH20 0xFFFFFFFFFFFFFFFFFFFFFFFFFFFFFFFFFFFFFFFF AND EQ ISZERO ISZERO PUSH2 0x30A2 JUMPI PUSH1 0x0 DUP1 REVERT JUMPDEST PUSH1 0x7 PUSH1 0x8 PUSH1 0x0 DUP7 DUP2 MSTORE PUSH1 0x20 ADD SWAP1 DUP2 MSTORE PUSH1 0x20 ADD PUSH1 0x0 KECCAK256 PUSH1 0xC ADD PUSH1 0x0 PUSH2 0x100 EXP DUP2 SLOAD DUP2 PUSH1 0xFF MUL NOT AND SWAP1 DUP4 PUSH1 0xC DUP2 GT ISZERO PUSH2 0x30D5 JUMPI INVALID JUMPDEST MUL OR SWAP1 SSTORE POP DUP3 PUSH1 0x8 PUSH1 0x0 DUP7 DUP2 MSTORE PUSH1 0x20 ADD SWAP1 DUP2 MSTORE PUSH1 0x20 ADD PUSH1 0x0 KECCAK256 PUSH1 0xB ADD DUP2 SWAP1 SSTORE POP PUSH32 0xB4760B865B779F5A6D912D4E91C8C27CE2AF98ED131C013C853C618A2D998CD9 PUSH1 0x6 SLOAD PUSH1 0x40 MLOAD DUP1 DUP3 DUP2 MSTORE PUSH1 0x20 ADD SWAP2 POP POP PUSH1 0x40 MLOAD DUP1 SWAP2 SUB SWAP1 LOG1 POP POP POP POP JUMP JUMPDEST PUSH2 0x313D CALLER PUSH2 0x1658 JUMP JUMPDEST ISZERO ISZERO PUSH2 0x3148 JUMPI PUSH1 0x0 DUP1 REVERT JUMPDEST DUP1 PUSH1 0xB PUSH1 0xC DUP2 GT ISZERO PUSH2 0x3156 JUMPI INVALID JUMPDEST PUSH1 0x8 PUSH1 0x0 DUP4 DUP2 MSTORE PUSH1 0x20 ADD SWAP1 DUP2 MSTORE PUSH1 0x20 ADD PUSH1 0x0 KECCAK256 PUSH1 0xC ADD PUSH1 0x0 SWAP1 SLOAD SWAP1 PUSH2 0x100 EXP SWAP1 DIV PUSH1 0xFF AND PUSH1 0xC DUP2 GT ISZERO PUSH2 0x3185 JUMPI INVALID JUMPDEST EQ ISZERO ISZERO PUSH2 0x3191 JUMPI PUSH1 0x0 DUP1 REVERT JUMPDEST PUSH1 0x8 PUSH1 0x0 DUP4 DUP2 MSTORE PUSH1 0x20 ADD SWAP1 DUP2 MSTORE PUSH1 0x20 ADD PUSH1 0x0 KECCAK256 PUSH1 0xB ADD SLOAD DUP1 CALLVALUE LT ISZERO ISZERO ISZERO PUSH2 0x31B7 JUMPI PUSH1 0x0 DUP1 REVERT JUMPDEST DUP3 CALLER PUSH1 0x0 PUSH1 0x8 PUSH1 0x0 DUP5 DUP2 MSTORE PUSH1 0x20 ADD SWAP1 DUP2 MSTORE PUSH1 0x20 ADD PUSH1 0x0 KECCAK256 PUSH1 0xB ADD SLOAD SWAP1 POP PUSH1 0x0 DUP2 CALLVALUE SUB SWAP1 POP DUP3 PUSH20 0xFFFFFFFFFFFFFFFFFFFFFFFFFFFFFFFFFFFFFFFF AND PUSH2 0x8FC DUP3 SWAP1 DUP2 ISZERO MUL SWAP1 PUSH1 0x40 MLOAD PUSH1 0x0 PUSH1 0x40 MLOAD DUP1 DUP4 SUB DUP2 DUP6 DUP9 DUP9 CALL SWAP4 POP POP POP POP ISZERO DUP1 ISZERO PUSH2 0x3221 JUMPI RETURNDATASIZE PUSH1 0x0 DUP1 RETURNDATACOPY RETURNDATASIZE PUSH1 0x0 REVERT JUMPDEST POP CALLER PUSH1 0x8 PUSH1 0x0 DUP10 DUP2 MSTORE PUSH1 0x20 ADD SWAP1 DUP2 MSTORE PUSH1 0x20 ADD PUSH1 0x0 KECCAK256 PUSH1 0xE ADD PUSH1 0x0 PUSH2 0x100 EXP DUP2 SLOAD DUP2 PUSH20 0xFFFFFFFFFFFFFFFFFFFFFFFFFFFFFFFFFFFFFFFF MUL NOT AND SWAP1 DUP4 PUSH20 0xFFFFFFFFFFFFFFFFFFFFFFFFFFFFFFFFFFFFFFFF AND MUL OR SWAP1 SSTORE POP PUSH1 0x0 PUSH2 0x32B8 PUSH1 0x8 PUSH1 0x0 DUP11 DUP2 MSTORE PUSH1 0x20 ADD SWAP1 DUP2 MSTORE PUSH1 0x20 ADD PUSH1 0x0 KECCAK256 PUSH1 0xD ADD PUSH1 0x0 SWAP1 SLOAD SWAP1 PUSH2 0x100 EXP SWAP1 DIV PUSH20 0xFFFFFFFFFFFFFFFFFFFFFFFFFFFFFFFFFFFFFFFF AND PUSH2 0x39CA JUMP JUMPDEST SWAP1 POP DUP1 PUSH20 0xFFFFFFFFFFFFFFFFFFFFFFFFFFFFFFFFFFFFFFFF AND PUSH2 0x8FC PUSH1 0x8 PUSH1 0x0 DUP12 DUP2 MSTORE PUSH1 0x20 ADD SWAP1 DUP2 MSTORE PUSH1 0x20 ADD PUSH1 0x0 KECCAK256 PUSH1 0xB ADD SLOAD SWAP1 DUP2 ISZERO MUL SWAP1 PUSH1 0x40 MLOAD PUSH1 0x0 PUSH1 0x40 MLOAD DUP1 DUP4 SUB DUP2 DUP6 DUP9 DUP9 CALL SWAP4 POP POP POP POP ISZERO DUP1 ISZERO PUSH2 0x3316 JUMPI RETURNDATASIZE PUSH1 0x0 DUP1 RETURNDATACOPY RETURNDATASIZE PUSH1 0x0 REVERT JUMPDEST POP CALLER PUSH1 0x8 PUSH1 0x0 DUP11 DUP2 MSTORE PUSH1 0x20 ADD SWAP1 DUP2 MSTORE PUSH1 0x20 ADD PUSH1 0x0 KECCAK256 PUSH1 0x2 ADD PUSH1 0x0 PUSH2 0x100 EXP DUP2 SLOAD DUP2 PUSH20 0xFFFFFFFFFFFFFFFFFFFFFFFFFFFFFFFFFFFFFFFF MUL NOT AND SWAP1 DUP4 PUSH20 0xFFFFFFFFFFFFFFFFFFFFFFFFFFFFFFFFFFFFFFFF AND MUL OR SWAP1 SSTORE POP CALLER PUSH1 0x8 PUSH1 0x0 DUP11 DUP2 MSTORE PUSH1 0x20 ADD SWAP1 DUP2 MSTORE PUSH1 0x20 ADD PUSH1 0x0 KECCAK256 PUSH1 0xE ADD PUSH1 0x0 PUSH2 0x100 EXP DUP2 SLOAD DUP2 PUSH20 0xFFFFFFFFFFFFFFFFFFFFFFFFFFFFFFFFFFFFFFFF MUL NOT AND SWAP1 DUP4 PUSH20 0xFFFFFFFFFFFFFFFFFFFFFFFFFFFFFFFFFFFFFFFF AND MUL OR SWAP1 SSTORE POP PUSH1 0xC PUSH1 0x8 PUSH1 0x0 DUP11 DUP2 MSTORE PUSH1 0x20 ADD SWAP1 DUP2 MSTORE PUSH1 0x20 ADD PUSH1 0x0 KECCAK256 PUSH1 0xC ADD PUSH1 0x0 PUSH2 0x100 EXP DUP2 SLOAD DUP2 PUSH1 0xFF MUL NOT AND SWAP1 DUP4 PUSH1 0xC DUP2 GT ISZERO PUSH2 0x33F4 JUMPI INVALID JUMPDEST MUL OR SWAP1 SSTORE POP NUMBER PUSH1 0x9 PUSH1 0x0 DUP11 DUP2 MSTORE PUSH1 0x20 ADD SWAP1 DUP2 MSTORE PUSH1 0x20 ADD PUSH1 0x0 KECCAK256 PUSH1 0x2 ADD DUP2 SWAP1 SSTORE POP PUSH32 0xFD054E59D299873FAB61A3C67D86D3A139B75DCD5CD82894D8983FC5E2669C82 DUP9 PUSH1 0x40 MLOAD DUP1 DUP3 DUP2 MSTORE PUSH1 0x20 ADD SWAP2 POP POP PUSH1 0x40 MLOAD DUP1 SWAP2 SUB SWAP1 LOG1 POP POP POP POP POP POP POP POP JUMP JUMPDEST PUSH2 0x345E CALLER PUSH2 0x38E0 JUMP JUMPDEST ISZERO ISZERO PUSH2 0x3469 JUMPI PUSH1 0x0 DUP1 REVERT JUMPDEST DUP1 PUSH1 0x1 PUSH1 0xC DUP2 GT ISZERO PUSH2 0x3477 JUMPI INVALID JUMPDEST PUSH1 0x8 PUSH1 0x0 DUP4 DUP2 MSTORE PUSH1 0x20 ADD SWAP1 DUP2 MSTORE PUSH1 0x20 ADD PUSH1 0x0 KECCAK256 PUSH1 0xC ADD PUSH1 0x0 SWAP1 SLOAD SWAP1 PUSH2 0x100 EXP SWAP1 DIV PUSH1 0xFF AND PUSH1 0xC DUP2 GT ISZERO PUSH2 0x34A6 JUMPI INVALID JUMPDEST EQ ISZERO ISZERO PUSH2 0x34B2 JUMPI PUSH1 0x0 DUP1 REVERT JUMPDEST PUSH1 0x8 PUSH1 0x0 DUP4 DUP2 MSTORE PUSH1 0x20 ADD SWAP1 DUP2 MSTORE PUSH1 0x20 ADD PUSH1 0x0 KECCAK256 PUSH1 0xB ADD SLOAD DUP1 CALLVALUE LT ISZERO ISZERO ISZERO PUSH2 0x34D8 JUMPI PUSH1 0x0 DUP1 REVERT JUMPDEST DUP3 CALLER PUSH1 0x0 PUSH1 0x8 PUSH1 0x0 DUP5 DUP2 MSTORE PUSH1 0x20 ADD SWAP1 DUP2 MSTORE PUSH1 0x20 ADD PUSH1 0x0 KECCAK256 PUSH1 0xB ADD SLOAD SWAP1 POP PUSH1 0x0 DUP2 CALLVALUE SUB SWAP1 POP DUP3 PUSH20 0xFFFFFFFFFFFFFFFFFFFFFFFFFFFFFFFFFFFFFFFF AND PUSH2 0x8FC DUP3 SWAP1 DUP2 ISZERO MUL SWAP1 PUSH1 0x40 MLOAD PUSH1 0x0 PUSH1 0x40 MLOAD DUP1 DUP4 SUB DUP2 DUP6 DUP9 DUP9 CALL SWAP4 POP POP POP POP ISZERO DUP1 ISZERO PUSH2 0x3542 JUMPI RETURNDATASIZE PUSH1 0x0 DUP1 RETURNDATACOPY RETURNDATASIZE PUSH1 0x0 REVERT JUMPDEST POP PUSH1 0x0 PUSH2 0x3584 PUSH1 0x8 PUSH1 0x0 DUP11 DUP2 MSTORE PUSH1 0x20 ADD SWAP1 DUP2 MSTORE PUSH1 0x20 ADD PUSH1 0x0 KECCAK256 PUSH1 0x3 ADD PUSH1 0x0 SWAP1 SLOAD SWAP1 PUSH2 0x100 EXP SWAP1 DIV PUSH20 0xFFFFFFFFFFFFFFFFFFFFFFFFFFFFFFFFFFFFFFFF AND PUSH2 0x39CA JUMP JUMPDEST SWAP1 POP DUP1 PUSH20 0xFFFFFFFFFFFFFFFFFFFFFFFFFFFFFFFFFFFFFFFF AND PUSH2 0x8FC PUSH1 0x8 PUSH1 0x0 DUP12 DUP2 MSTORE PUSH1 0x20 ADD SWAP1 DUP2 MSTORE PUSH1 0x20 ADD PUSH1 0x0 KECCAK256 PUSH1 0xB ADD SLOAD SWAP1 DUP2 ISZERO MUL SWAP1 PUSH1 0x40 MLOAD PUSH1 0x0 PUSH1 0x40 MLOAD DUP1 DUP4 SUB DUP2 DUP6 DUP9 DUP9 CALL SWAP4 POP POP POP POP ISZERO DUP1 ISZERO PUSH2 0x35E2 JUMPI RETURNDATASIZE PUSH1 0x0 DUP1 RETURNDATACOPY RETURNDATASIZE PUSH1 0x0 REVERT JUMPDEST POP CALLER PUSH1 0x8 PUSH1 0x0 DUP11 DUP2 MSTORE PUSH1 0x20 ADD SWAP1 DUP2 MSTORE PUSH1 0x20 ADD PUSH1 0x0 KECCAK256 PUSH1 0x2 ADD PUSH1 0x0 PUSH2 0x100 EXP DUP2 SLOAD DUP2 PUSH20 0xFFFFFFFFFFFFFFFFFFFFFFFFFFFFFFFFFFFFFFFF MUL NOT AND SWAP1 DUP4 PUSH20 0xFFFFFFFFFFFFFFFFFFFFFFFFFFFFFFFFFFFFFFFF AND MUL OR SWAP1 SSTORE POP CALLER PUSH1 0x8 PUSH1 0x0 DUP11 DUP2 MSTORE PUSH1 0x20 ADD SWAP1 DUP2 MSTORE PUSH1 0x20 ADD PUSH1 0x0 KECCAK256 PUSH1 0xC ADD PUSH1 0x1 PUSH2 0x100 EXP DUP2 SLOAD DUP2 PUSH20 0xFFFFFFFFFFFFFFFFFFFFFFFFFFFFFFFFFFFFFFFF MUL NOT AND SWAP1 DUP4 PUSH20 0xFFFFFFFFFFFFFFFFFFFFFFFFFFFFFFFFFFFFFFFF AND MUL OR SWAP1 SSTORE POP PUSH1 0x2 PUSH1 0x8 PUSH1 0x0 DUP11 DUP2 MSTORE PUSH1 0x20 ADD SWAP1 DUP2 MSTORE PUSH1 0x20 ADD PUSH1 0x0 KECCAK256 PUSH1 0xC ADD PUSH1 0x0 PUSH2 0x100 EXP DUP2 SLOAD DUP2 PUSH1 0xFF MUL NOT AND SWAP1 DUP4 PUSH1 0xC DUP2 GT ISZERO PUSH2 0x36C0 JUMPI INVALID JUMPDEST MUL OR SWAP1 SSTORE POP NUMBER PUSH1 0x9 PUSH1 0x0 DUP11 DUP2 MSTORE PUSH1 0x20 ADD SWAP1 DUP2 MSTORE PUSH1 0x20 ADD PUSH1 0x0 KECCAK256 PUSH1 0x0 ADD DUP2 SWAP1 SSTORE POP PUSH32 0x36272A130D69CA0CEF5A4CB9DFF9B680243A98BA47E15416F452C6DD3E8ECC45 DUP9 PUSH1 0x40 MLOAD DUP1 DUP3 DUP2 MSTORE PUSH1 0x20 ADD SWAP2 POP POP PUSH1 0x40 MLOAD DUP1 SWAP2 SUB SWAP1 LOG1 POP POP POP POP POP POP POP POP JUMP JUMPDEST PUSH2 0x372A CALLER PUSH2 0x1658 JUMP JUMPDEST ISZERO ISZERO PUSH2 0x3735 JUMPI PUSH1 0x0 DUP1 REVERT JUMPDEST PUSH2 0x373E DUP2 PUSH2 0x3B76 JUMP JUMPDEST POP JUMP JUMPDEST PUSH2 0x374A DUP2 PUSH2 0x3BD0 JUMP JUMPDEST POP JUMP JUMPDEST PUSH1 0x0 PUSH2 0x3763 DUP3 PUSH1 0x1 PUSH2 0x39D4 SWAP1 SWAP2 SWAP1 PUSH4 0xFFFFFFFF AND JUMP JUMPDEST SWAP1 POP SWAP2 SWAP1 POP JUMP JUMPDEST PUSH2 0x3773 CALLER PUSH2 0x38E0 JUMP JUMPDEST ISZERO ISZERO PUSH2 0x377E JUMPI PUSH1 0x0 DUP1 REVERT JUMPDEST DUP1 PUSH1 0x5 PUSH1 0xC DUP2 GT ISZERO PUSH2 0x378C JUMPI INVALID JUMPDEST PUSH1 0x8 PUSH1 0x0 DUP4 DUP2 MSTORE PUSH1 0x20 ADD SWAP1 DUP2 MSTORE PUSH1 0x20 ADD PUSH1 0x0 KECCAK256 PUSH1 0xC ADD PUSH1 0x0 SWAP1 SLOAD SWAP1 PUSH2 0x100 EXP SWAP1 DIV PUSH1 0xFF AND PUSH1 0xC DUP2 GT ISZERO PUSH2 0x37BB JUMPI INVALID JUMPDEST EQ ISZERO ISZERO PUSH2 0x37C7 JUMPI PUSH1 0x0 DUP1 REVERT JUMPDEST PUSH1 0x8 PUSH1 0x0 DUP4 DUP2 MSTORE PUSH1 0x20 ADD SWAP1 DUP2 MSTORE PUSH1 0x20 ADD PUSH1 0x0 KECCAK256 PUSH1 0x2 ADD PUSH1 0x0 SWAP1 SLOAD SWAP1 PUSH2 0x100 EXP SWAP1 DIV PUSH20 0xFFFFFFFFFFFFFFFFFFFFFFFFFFFFFFFFFFFFFFFF AND DUP1 PUSH20 0xFFFFFFFFFFFFFFFFFFFFFFFFFFFFFFFFFFFFFFFF AND CALLER PUSH20 0xFFFFFFFFFFFFFFFFFFFFFFFFFFFFFFFFFFFFFFFF AND EQ ISZERO ISZERO PUSH2 0x3838 JUMPI PUSH1 0x0 DUP1 REVERT JUMPDEST PUSH1 0x6 PUSH1 0x8 PUSH1 0x0 DUP6 DUP2 MSTORE PUSH1 0x20 ADD SWAP1 DUP2 MSTORE PUSH1 0x20 ADD PUSH1 0x0 KECCAK256 PUSH1 0xC ADD PUSH1 0x0 PUSH2 0x100 EXP DUP2 SLOAD DUP2 PUSH1 0xFF MUL NOT AND SWAP1 DUP4 PUSH1 0xC DUP2 GT ISZERO PUSH2 0x386B JUMPI INVALID JUMPDEST MUL OR SWAP1 SSTORE POP PUSH32 0xC64B5AFF5D6AE9AB5BF3BB4D23925F55053719A5A1941A6B59FCC0C8ECCED121 DUP4 PUSH1 0x40 MLOAD DUP1 DUP3 DUP2 MSTORE PUSH1 0x20 ADD SWAP2 POP POP PUSH1 0x40 MLOAD DUP1 SWAP2 SUB SWAP1 LOG1 POP POP POP JUMP JUMPDEST PUSH2 0x38B5 CALLER PUSH2 0x3C2A JUMP JUMPDEST JUMP JUMPDEST PUSH1 0x0 DUP1 PUSH1 0x0 SWAP1 SLOAD SWAP1 PUSH2 0x100 EXP SWAP1 DIV PUSH20 0xFFFFFFFFFFFFFFFFFFFFFFFFFFFFFFFFFFFFFFFF AND SWAP1 POP SWAP1 JUMP JUMPDEST PUSH1 0x0 PUSH2 0x38F6 DUP3 PUSH1 0x2 PUSH2 0x39D4 SWAP1 SWAP2 SWAP1 PUSH4 0xFFFFFFFF AND JUMP JUMPDEST SWAP1 POP SWAP2 SWAP1 POP JUMP JUMPDEST PUSH1 0x5 PUSH1 0x0 SWAP1 SLOAD SWAP1 PUSH2 0x100 EXP SWAP1 DIV PUSH20 0xFFFFFFFFFFFFFFFFFFFFFFFFFFFFFFFFFFFFFFFF AND PUSH20 0xFFFFFFFFFFFFFFFFFFFFFFFFFFFFFFFFFFFFFFFF AND CALLER PUSH20 0xFFFFFFFFFFFFFFFFFFFFFFFFFFFFFFFFFFFFFFFF AND EQ ISZERO ISZERO PUSH2 0x3959 JUMPI PUSH1 0x0 DUP1 REVERT JUMPDEST PUSH2 0x3962 DUP2 PUSH2 0x3C84 JUMP JUMPDEST POP JUMP JUMPDEST PUSH2 0x396E CALLER PUSH2 0x3D7E JUMP JUMPDEST JUMP JUMPDEST PUSH2 0x3984 DUP2 PUSH1 0x2 PUSH2 0x3DD8 SWAP1 SWAP2 SWAP1 PUSH4 0xFFFFFFFF AND JUMP JUMPDEST DUP1 PUSH20 0xFFFFFFFFFFFFFFFFFFFFFFFFFFFFFFFFFFFFFFFF AND PUSH32 0xF7DA286DF490D50D713A7DB337E873DBA3F443FB4D6FD500F71DD90C155EB5C3 PUSH1 0x40 MLOAD PUSH1 0x40 MLOAD DUP1 SWAP2 SUB SWAP1 LOG2 POP JUMP JUMPDEST PUSH1 0x0 DUP2 SWAP1 POP SWAP2 SWAP1 POP JUMP JUMPDEST PUSH1 0x0 DUP1 PUSH20 0xFFFFFFFFFFFFFFFFFFFFFFFFFFFFFFFFFFFFFFFF AND DUP3 PUSH20 0xFFFFFFFFFFFFFFFFFFFFFFFFFFFFFFFFFFFFFFFF AND EQ ISZERO ISZERO ISZERO PUSH2 0x3A11 JUMPI PUSH1 0x0 DUP1 REVERT JUMPDEST DUP3 PUSH1 0x0 ADD PUSH1 0x0 DUP4 PUSH20 0xFFFFFFFFFFFFFFFFFFFFFFFFFFFFFFFFFFFFFFFF AND PUSH20 0xFFFFFFFFFFFFFFFFFFFFFFFFFFFFFFFFFFFFFFFF AND DUP2 MSTORE PUSH1 0x20 ADD SWAP1 DUP2 MSTORE PUSH1 0x20 ADD PUSH1 0x0 KECCAK256 PUSH1 0x0 SWAP1 SLOAD SWAP1 PUSH2 0x100 EXP SWAP1 DIV PUSH1 0xFF AND SWAP1 POP SWAP3 SWAP2 POP POP JUMP JUMPDEST PUSH2 0x3A7C DUP2 PUSH1 0x1 PUSH2 0x3DD8 SWAP1 SWAP2 SWAP1 PUSH4 0xFFFFFFFF AND JUMP JUMPDEST DUP1 PUSH20 0xFFFFFFFFFFFFFFFFFFFFFFFFFFFFFFFFFFFFFFFF AND PUSH32 0xC17DB36FF5B6D3D05D63C4D52DC5DF431B9763A912CE99D8847BC7BDB4589D2D PUSH1 0x40 MLOAD PUSH1 0x40 MLOAD DUP1 SWAP2 SUB SWAP1 LOG2 POP JUMP JUMPDEST PUSH2 0x3AD6 DUP2 PUSH1 0x2 PUSH2 0x3E88 SWAP1 SWAP2 SWAP1 PUSH4 0xFFFFFFFF AND JUMP JUMPDEST DUP1 PUSH20 0xFFFFFFFFFFFFFFFFFFFFFFFFFFFFFFFFFFFFFFFF AND PUSH32 0x3E3F7C027517F367A53EBCEFD15973458BF78D9B6D5B0978F4A4D3D3F646CF96 PUSH1 0x40 MLOAD PUSH1 0x40 MLOAD DUP1 SWAP2 SUB SWAP1 LOG2 POP JUMP JUMPDEST PUSH2 0x3B30 DUP2 PUSH1 0x3 PUSH2 0x3DD8 SWAP1 SWAP2 SWAP1 PUSH4 0xFFFFFFFF AND JUMP JUMPDEST DUP1 PUSH20 0xFFFFFFFFFFFFFFFFFFFFFFFFFFFFFFFFFFFFFFFF AND PUSH32 0x71AE26CAD02663E3D92EFD6EC56031A80D74A20C0AB4183FAA8BF262261C9BAA PUSH1 0x40 MLOAD PUSH1 0x40 MLOAD DUP1 SWAP2 SUB SWAP1 LOG2 POP JUMP JUMPDEST PUSH2 0x3B8A DUP2 PUSH1 0x4 PUSH2 0x3DD8 SWAP1 SWAP2 SWAP1 PUSH4 0xFFFFFFFF AND JUMP JUMPDEST DUP1 PUSH20 0xFFFFFFFFFFFFFFFFFFFFFFFFFFFFFFFFFFFFFFFF AND PUSH32 0xCD118A02BD36F224F6F1B93812F78D2BBC2C2DC1BC0F60C176E3B4FE09F1483F PUSH1 0x40 MLOAD PUSH1 0x40 MLOAD DUP1 SWAP2 SUB SWAP1 LOG2 POP JUMP JUMPDEST PUSH2 0x3BE4 DUP2 PUSH1 0x4 PUSH2 0x3E88 SWAP1 SWAP2 SWAP1 PUSH4 0xFFFFFFFF AND JUMP JUMPDEST DUP1 PUSH20 0xFFFFFFFFFFFFFFFFFFFFFFFFFFFFFFFFFFFFFFFF AND PUSH32 0xB4C88A9C5CD906354ABDD1CC29E4F94C6C4DE90754FB80CE51E6A33417BC81B6 PUSH1 0x40 MLOAD PUSH1 0x40 MLOAD DUP1 SWAP2 SUB SWAP1 LOG2 POP JUMP JUMPDEST PUSH2 0x3C3E DUP2 PUSH1 0x3 PUSH2 0x3E88 SWAP1 SWAP2 SWAP1 PUSH4 0xFFFFFFFF AND JUMP JUMPDEST DUP1 PUSH20 0xFFFFFFFFFFFFFFFFFFFFFFFFFFFFFFFFFFFFFFFF AND PUSH32 0xDB7176E79CFFEF81CB01767DD0447A0B24BB72CA9778D4B245581086B2A7E6DB PUSH1 0x40 MLOAD PUSH1 0x40 MLOAD DUP1 SWAP2 SUB SWAP1 LOG2 POP JUMP JUMPDEST PUSH1 0x0 PUSH20 0xFFFFFFFFFFFFFFFFFFFFFFFFFFFFFFFFFFFFFFFF AND DUP2 PUSH20 0xFFFFFFFFFFFFFFFFFFFFFFFFFFFFFFFFFFFFFFFF AND EQ ISZERO ISZERO ISZERO PUSH2 0x3CC0 JUMPI PUSH1 0x0 DUP1 REVERT JUMPDEST DUP1 PUSH20 0xFFFFFFFFFFFFFFFFFFFFFFFFFFFFFFFFFFFFFFFF AND PUSH1 0x0 DUP1 SWAP1 SLOAD SWAP1 PUSH2 0x100 EXP SWAP1 DIV PUSH20 0xFFFFFFFFFFFFFFFFFFFFFFFFFFFFFFFFFFFFFFFF AND PUSH20 0xFFFFFFFFFFFFFFFFFFFFFFFFFFFFFFFFFFFFFFFF AND PUSH32 0x5C486528EC3E3F0EA91181CFF8116F02BFA350E03B8B6F12E00765ADBB5AF85C PUSH1 0x40 MLOAD PUSH1 0x40 MLOAD DUP1 SWAP2 SUB SWAP1 LOG3 DUP1 PUSH1 0x0 DUP1 PUSH2 0x100 EXP DUP2 SLOAD DUP2 PUSH20 0xFFFFFFFFFFFFFFFFFFFFFFFFFFFFFFFFFFFFFFFF MUL NOT AND SWAP1 DUP4 PUSH20 0xFFFFFFFFFFFFFFFFFFFFFFFFFFFFFFFFFFFFFFFF AND MUL OR SWAP1 SSTORE POP POP JUMP JUMPDEST PUSH2 0x3D92 DUP2 PUSH1 0x1 PUSH2 0x3E88 SWAP1 SWAP2 SWAP1 PUSH4 0xFFFFFFFF AND JUMP JUMPDEST DUP1 PUSH20 0xFFFFFFFFFFFFFFFFFFFFFFFFFFFFFFFFFFFFFFFF AND PUSH32 0x74E50EBE0D8F15811119637829729A3B44FFC7242575F08EA332C8E3A300E2FD PUSH1 0x40 MLOAD PUSH1 0x40 MLOAD DUP1 SWAP2 SUB SWAP1 LOG2 POP JUMP JUMPDEST PUSH1 0x0 PUSH20 0xFFFFFFFFFFFFFFFFFFFFFFFFFFFFFFFFFFFFFFFF AND DUP2 PUSH20 0xFFFFFFFFFFFFFFFFFFFFFFFFFFFFFFFFFFFFFFFF AND EQ ISZERO ISZERO ISZERO PUSH2 0x3E14 JUMPI PUSH1 0x0 DUP1 REVERT JUMPDEST PUSH2 0x3E1E DUP3 DUP3 PUSH2 0x39D4 JUMP JUMPDEST ISZERO ISZERO ISZERO PUSH2 0x3E2A JUMPI PUSH1 0x0 DUP1 REVERT JUMPDEST PUSH1 0x1 DUP3 PUSH1 0x0 ADD PUSH1 0x0 DUP4 PUSH20 0xFFFFFFFFFFFFFFFFFFFFFFFFFFFFFFFFFFFFFFFF AND PUSH20 0xFFFFFFFFFFFFFFFFFFFFFFFFFFFFFFFFFFFFFFFF AND DUP2 MSTORE PUSH1 0x20 ADD SWAP1 DUP2 MSTORE PUSH1 0x20 ADD PUSH1 0x0 KECCAK256 PUSH1 0x0 PUSH2 0x100 EXP DUP2 SLOAD DUP2 PUSH1 0xFF MUL NOT AND SWAP1 DUP4 ISZERO ISZERO MUL OR SWAP1 SSTORE POP POP POP JUMP JUMPDEST PUSH1 0x0 PUSH20 0xFFFFFFFFFFFFFFFFFFFFFFFFFFFFFFFFFFFFFFFF AND DUP2 PUSH20 0xFFFFFFFFFFFFFFFFFFFFFFFFFFFFFFFFFFFFFFFF AND EQ ISZERO ISZERO ISZERO PUSH2 0x3EC4 JUMPI PUSH1 0x0 DUP1 REVERT JUMPDEST PUSH2 0x3ECE DUP3 DUP3 PUSH2 0x39D4 JUMP JUMPDEST ISZERO ISZERO PUSH2 0x3ED9 JUMPI PUSH1 0x0 DUP1 REVERT JUMPDEST PUSH1 0x0 DUP3 PUSH1 0x0 ADD PUSH1 0x0 DUP4 PUSH20 0xFFFFFFFFFFFFFFFFFFFFFFFFFFFFFFFFFFFFFFFF AND PUSH20 0xFFFFFFFFFFFFFFFFFFFFFFFFFFFFFFFFFFFFFFFF AND DUP2 MSTORE PUSH1 0x20 ADD SWAP1 DUP2 MSTORE PUSH1 0x20 ADD PUSH1 0x0 KECCAK256 PUSH1 0x0 PUSH2 0x100 EXP DUP2 SLOAD DUP2 PUSH1 0xFF MUL NOT AND SWAP1 DUP4 ISZERO ISZERO MUL OR SWAP1 SSTORE POP POP POP JUMP JUMPDEST PUSH1 0x60 PUSH1 0x40 MLOAD SWAP1 DUP2 ADD PUSH1 0x40 MSTORE DUP1 PUSH1 0x0 DUP2 MSTORE PUSH1 0x20 ADD PUSH1 0x0 DUP2 MSTORE PUSH1 0x20 ADD PUSH1 0x0 DUP2 MSTORE POP SWAP1 JUMP JUMPDEST PUSH2 0x200 PUSH1 0x40 MLOAD SWAP1 DUP2 ADD PUSH1 0x40 MSTORE DUP1 PUSH1 0x0 DUP2 MSTORE PUSH1 0x20 ADD PUSH1 0x0 DUP2 MSTORE PUSH1 0x20 ADD PUSH1 0x0 PUSH20 0xFFFFFFFFFFFFFFFFFFFFFFFFFFFFFFFFFFFFFFFF AND DUP2 MSTORE PUSH1 0x20 ADD PUSH1 0x0 PUSH20 0xFFFFFFFFFFFFFFFFFFFFFFFFFFFFFFFFFFFFFFFF AND DUP2 MSTORE PUSH1 0x20 ADD PUSH1 0x60 DUP2 MSTORE PUSH1 0x20 ADD PUSH1 0x60 DUP2 MSTORE PUSH1 0x20 ADD PUSH1 0x60 DUP2 MSTORE PUSH1 0x20 ADD PUSH1 0x60 DUP2 MSTORE PUSH1 0x20 ADD PUSH1 0x0 DUP2 MSTORE PUSH1 0x20 ADD PUSH1 0x60 DUP2 MSTORE PUSH1 0x20 ADD PUSH1 0x0 DUP2 MSTORE PUSH1 0x20 ADD PUSH1 0x0 DUP2 MSTORE PUSH1 0x20 ADD PUSH1 0x0 PUSH1 0xC DUP2 GT ISZERO PUSH2 0x3FF3 JUMPI INVALID JUMPDEST DUP2 MSTORE PUSH1 0x20 ADD PUSH1 0x0 PUSH20 0xFFFFFFFFFFFFFFFFFFFFFFFFFFFFFFFFFFFFFFFF AND DUP2 MSTORE PUSH1 0x20 ADD PUSH1 0x0 PUSH20 0xFFFFFFFFFFFFFFFFFFFFFFFFFFFFFFFFFFFFFFFF AND DUP2 MSTORE PUSH1 0x20 ADD PUSH1 0x0 PUSH20 0xFFFFFFFFFFFFFFFFFFFFFFFFFFFFFFFFFFFFFFFF AND DUP2 MSTORE POP SWAP1 JUMP JUMPDEST DUP3 DUP1 SLOAD PUSH1 0x1 DUP2 PUSH1 0x1 AND ISZERO PUSH2 0x100 MUL SUB AND PUSH1 0x2 SWAP1 DIV SWAP1 PUSH1 0x0 MSTORE PUSH1 0x20 PUSH1 0x0 KECCAK256 SWAP1 PUSH1 0x1F ADD PUSH1 0x20 SWAP1 DIV DUP2 ADD SWAP3 DUP3 PUSH1 0x1F LT PUSH2 0x4091 JUMPI DUP1 MLOAD PUSH1 0xFF NOT AND DUP4 DUP1 ADD OR DUP6 SSTORE PUSH2 0x40BF JUMP JUMPDEST DUP3 DUP1 ADD PUSH1 0x1 ADD DUP6 SSTORE DUP3 ISZERO PUSH2 0x40BF JUMPI SWAP2 DUP3 ADD JUMPDEST DUP3 DUP2 GT ISZERO PUSH2 0x40BE JUMPI DUP3 MLOAD DUP3 SSTORE SWAP2 PUSH1 0x20 ADD SWAP2 SWAP1 PUSH1 0x1 ADD SWAP1 PUSH2 0x40A3 JUMP JUMPDEST JUMPDEST POP SWAP1 POP PUSH2 0x40CC SWAP2 SWAP1 PUSH2 0x40D0 JUMP JUMPDEST POP SWAP1 JUMP JUMPDEST PUSH2 0x40F2 SWAP2 SWAP1 JUMPDEST DUP1 DUP3 GT ISZERO PUSH2 0x40EE JUMPI PUSH1 0x0 DUP2 PUSH1 0x0 SWAP1 SSTORE POP PUSH1 0x1 ADD PUSH2 0x40D6 JUMP JUMPDEST POP SWAP1 JUMP JUMPDEST SWAP1 JUMP INVALID LOG1 PUSH6 0x627A7A723058 KECCAK256 PUSH12 0x4B3C8116E9D8CB3118C85CF6 PUSH12 0x57A32B16F53EC308493E7DA0 0x26 PUSH11 0xC129A4CA00290000000000 "
				},
				"gasEstimates": {
					"creation": {
						"codeDepositCost": "3334600",
						"executionCost": "infinite",
						"totalCost": "infinite"
					},
					"external": {
						"addCarParts_Distributor(address)": "infinite",
						"addCarParts_Manufacturer(address)": "infinite",
						"addCustomer(address)": "infinite",
						"addRetailer(address)": "infinite",
						"fetchItemBufferOne(uint256)": "infinite",
						"fetchItemBufferTwo(uint256)": "infinite",
						"fetchitemHistory(uint256)": "1276",
						"isCarParts_Distributor(address)": "infinite",
						"isCarParts_Manufacturer(address)": "infinite",
						"isCustomer(address)": "infinite",
						"isOwner()": "885",
						"isRetailer(address)": "infinite",
						"kill()": "30893",
						"ownerLookup()": "1088",
						"packageItemByCarParts_Distributor(uint256)": "infinite",
						"processedItemByCarParts_Distributor(uint256)": "infinite",
						"produceItemByCarParts_Manufacturer(uint256,string,string,string,string,string,uint256)": "infinite",
						"purchaseItemByCarParts_Distributor(uint256)": "infinite",
						"purchaseItemByCustomer(uint256)": "infinite",
						"purchaseItemByRetailer(uint256)": "infinite",
						"receivedItemByCarParts_Distributor(uint256)": "infinite",
						"receivedItemByRetailer(uint256)": "infinite",
						"renounceCarParts_Distributor()": "infinite",
						"renounceCarParts_Manufacturer()": "infinite",
						"renounceCustomer(address)": "infinite",
						"renounceOwnership()": "22787",
						"renounceRetailer()": "infinite",
						"sellItemByCarParts_Distributor(uint256,uint256)": "infinite",
						"sellItemByCarParts_Manufacturer(uint256,uint256)": "infinite",
						"sellItemByRetailer(uint256,uint256)": "infinite",
						"shippedItemByCarParts_Distributor(uint256)": "infinite",
						"shippedItemByCarParts_Manufacturer(uint256)": "infinite",
						"transferOwnership(address)": "23302"
					},
					"internal": {
						"_make_payable(address)": "28"
					}
				},
				"methodIdentifiers": {
					"addCarParts_Distributor(address)": "1210a1d8",
					"addCarParts_Manufacturer(address)": "40b74c38",
					"addCustomer(address)": "ad973d74",
					"addRetailer(address)": "8ec4f505",
					"fetchItemBufferOne(uint256)": "77c45913",
					"fetchItemBufferTwo(uint256)": "66225ff9",
					"fetchitemHistory(uint256)": "1154501c",
					"isCarParts_Distributor(address)": "e49a83be",
					"isCarParts_Manufacturer(address)": "c7ef882c",
					"isCustomer(address)": "28fd5e83",
					"isOwner()": "8f32d59b",
					"isRetailer(address)": "5da09b88",
					"kill()": "41c0e1b5",
					"ownerLookup()": "e02e64ea",
					"packageItemByCarParts_Distributor(uint256)": "d2eafb5a",
					"processedItemByCarParts_Distributor(uint256)": "56403ef9",
					"produceItemByCarParts_Manufacturer(uint256,string,string,string,string,string,uint256)": "4f974166",
					"purchaseItemByCarParts_Distributor(uint256)": "ad52dcb7",
					"purchaseItemByCustomer(uint256)": "a7d247e0",
					"purchaseItemByRetailer(uint256)": "26d529b4",
					"receivedItemByCarParts_Distributor(uint256)": "35f31841",
					"receivedItemByRetailer(uint256)": "37b2f92c",
					"renounceCarParts_Distributor()": "8925a06e",
					"renounceCarParts_Manufacturer()": "ffeb4d33",
					"renounceCustomer(address)": "c49ef109",
					"renounceOwnership()": "715018a6",
					"renounceRetailer()": "db0e6a2f",
					"sellItemByCarParts_Distributor(uint256,uint256)": "9e75eb3e",
					"sellItemByCarParts_Manufacturer(uint256,uint256)": "22f11212",
					"sellItemByRetailer(uint256,uint256)": "546eb586",
					"shippedItemByCarParts_Distributor(uint256)": "9e3febc8",
					"shippedItemByCarParts_Manufacturer(uint256)": "1d116edf",
					"transferOwnership(address)": "f2fde38b"
				}
			},
			"userdoc": {
				"methods": {
					"isOwner()": {
						"notice": "Check if the calling address is the owner of the contract"
					},
					"ownerLookup()": {
						"notice": "Look up the address of the owner"
					},
					"renounceOwnership()": {
						"notice": "Define a function to renounce ownerhip"
					},
					"transferOwnership(address)": {
						"notice": "Define a public function to transfer ownership"
					}
				}
			}
		}
	}
}