{
	"contracts/SCaccesscontrol/CustomerRole.sol": {
		"CustomerRole": {
			"abi": [
				{
					"constant": true,
					"inputs": [
						{
							"name": "account",
							"type": "address"
						}
					],
					"name": "isCustomer",
					"outputs": [
						{
							"name": "",
							"type": "bool"
						}
					],
					"payable": false,
					"stateMutability": "view",
					"type": "function"
				},
				{
					"constant": false,
					"inputs": [
						{
							"name": "account",
							"type": "address"
						}
					],
					"name": "addCustomer",
					"outputs": [],
					"payable": false,
					"stateMutability": "nonpayable",
					"type": "function"
				},
				{
					"constant": false,
					"inputs": [
						{
							"name": "account",
							"type": "address"
						}
					],
					"name": "renounceCustomer",
					"outputs": [],
					"payable": false,
					"stateMutability": "nonpayable",
					"type": "function"
				},
				{
					"inputs": [],
					"payable": false,
					"stateMutability": "nonpayable",
					"type": "constructor"
				},
				{
					"anonymous": false,
					"inputs": [
						{
							"indexed": true,
							"name": "account",
							"type": "address"
						}
					],
					"name": "CustomerAdded",
					"type": "event"
				},
				{
					"anonymous": false,
					"inputs": [
						{
							"indexed": true,
							"name": "account",
							"type": "address"
						}
					],
					"name": "CustomerRemoved",
					"type": "event"
				}
			],
			"devdoc": {
				"methods": {}
			},
			"evm": {
				"assembly": "    /* \"contracts/SCaccesscontrol/CustomerRole.sol\":163:1774  contract CustomerRole {\r... */\n  mstore(0x40, 0x80)\n    /* \"contracts/SCaccesscontrol/CustomerRole.sol\":586:680  constructor() public {\r... */\n  callvalue\n    /* \"--CODEGEN--\":8:17   */\n  dup1\n    /* \"--CODEGEN--\":5:7   */\n  iszero\n  tag_1\n  jumpi\n    /* \"--CODEGEN--\":30:31   */\n  0x0\n    /* \"--CODEGEN--\":27:28   */\n  dup1\n    /* \"--CODEGEN--\":20:32   */\n  revert\n    /* \"--CODEGEN--\":5:7   */\ntag_1:\n    /* \"contracts/SCaccesscontrol/CustomerRole.sol\":586:680  constructor() public {\r... */\n  pop\n    /* \"contracts/SCaccesscontrol/CustomerRole.sol\":650:674  _addCustomer(msg.sender) */\n  tag_4\n    /* \"contracts/SCaccesscontrol/CustomerRole.sol\":663:673  msg.sender */\n  caller\n    /* \"contracts/SCaccesscontrol/CustomerRole.sol\":650:662  _addCustomer */\n  mul(0x100000000, tag_5)\n    /* \"contracts/SCaccesscontrol/CustomerRole.sol\":650:674  _addCustomer(msg.sender) */\n  0x100000000\n  swap1\n  div\n  jump\t// in\ntag_4:\n    /* \"contracts/SCaccesscontrol/CustomerRole.sol\":163:1774  contract CustomerRole {\r... */\n  jump(tag_6)\n    /* \"contracts/SCaccesscontrol/CustomerRole.sol\":1423:1540  function _addCustomer(address account) internal {\r... */\ntag_5:\n    /* \"contracts/SCaccesscontrol/CustomerRole.sol\":1478:1500  customers.add(account) */\n  tag_8\n    /* \"contracts/SCaccesscontrol/CustomerRole.sol\":1492:1499  account */\n  dup2\n    /* \"contracts/SCaccesscontrol/CustomerRole.sol\":1478:1487  customers */\n  0x0\n    /* \"contracts/SCaccesscontrol/CustomerRole.sol\":1478:1491  customers.add */\n  or(tag_0_33, mul(0x100000000, tag_9))\n  swap1\n    /* \"contracts/SCaccesscontrol/CustomerRole.sol\":1478:1500  customers.add(account) */\n  swap2\n  swap1\n  0x100000000\n  swap1\n  div\n  jump\t// in\ntag_8:\n    /* \"contracts/SCaccesscontrol/CustomerRole.sol\":1526:1533  account */\n  dup1\n    /* \"contracts/SCaccesscontrol/CustomerRole.sol\":1512:1534  CustomerAdded(account) */\n  0xffffffffffffffffffffffffffffffffffffffff\n  and\n  0xcd118a02bd36f224f6f1b93812f78d2bbc2c2dc1bc0f60c176e3b4fe09f1483f\n  mload(0x40)\n  mload(0x40)\n  dup1\n  swap2\n  sub\n  swap1\n  log2\n    /* \"contracts/SCaccesscontrol/CustomerRole.sol\":1423:1540  function _addCustomer(address account) internal {\r... */\n  pop\n  jump\t// out\n    /* \"contracts/SCaccesscontrol/Roles.sol\":259:431  function add(Role storage role, address account) internal {\r... */\ntag_9:\n    /* \"contracts/SCaccesscontrol/Roles.sol\":351:352  0 */\n  0x0\n    /* \"contracts/SCaccesscontrol/Roles.sol\":332:353  account != address(0) */\n  0xffffffffffffffffffffffffffffffffffffffff\n  and\n    /* \"contracts/SCaccesscontrol/Roles.sol\":332:339  account */\n  dup2\n    /* \"contracts/SCaccesscontrol/Roles.sol\":332:353  account != address(0) */\n  0xffffffffffffffffffffffffffffffffffffffff\n  and\n  eq\n  iszero\n    /* \"contracts/SCaccesscontrol/Roles.sol\":324:354  require(account != address(0)) */\n  iszero\n  iszero\n  tag_11\n  jumpi\n  0x0\n  dup1\n  revert\ntag_11:\n    /* \"contracts/SCaccesscontrol/Roles.sol\":370:388  has(role, account) */\n  tag_12\n    /* \"contracts/SCaccesscontrol/Roles.sol\":374:378  role */\n  dup3\n    /* \"contracts/SCaccesscontrol/Roles.sol\":380:387  account */\n  dup3\n    /* \"contracts/SCaccesscontrol/Roles.sol\":370:373  has */\n  mul(0x100000000, tag_13)\n    /* \"contracts/SCaccesscontrol/Roles.sol\":370:388  has(role, account) */\n  0x100000000\n  swap1\n  div\n  jump\t// in\ntag_12:\n    /* \"contracts/SCaccesscontrol/Roles.sol\":369:388  !has(role, account) */\n  iszero\n    /* \"contracts/SCaccesscontrol/Roles.sol\":361:389  require(!has(role, account)) */\n  iszero\n  iszero\n  tag_14\n  jumpi\n  0x0\n  dup1\n  revert\ntag_14:\n    /* \"contracts/SCaccesscontrol/Roles.sol\":421:425  true */\n  0x1\n    /* \"contracts/SCaccesscontrol/Roles.sol\":398:402  role */\n  dup3\n    /* \"contracts/SCaccesscontrol/Roles.sol\":398:409  role.bearer */\n  0x0\n  add\n    /* \"contracts/SCaccesscontrol/Roles.sol\":398:418  role.bearer[account] */\n  0x0\n    /* \"contracts/SCaccesscontrol/Roles.sol\":410:417  account */\n  dup4\n    /* \"contracts/SCaccesscontrol/Roles.sol\":398:418  role.bearer[account] */\n  0xffffffffffffffffffffffffffffffffffffffff\n  and\n  0xffffffffffffffffffffffffffffffffffffffff\n  and\n  dup2\n  mstore\n  0x20\n  add\n  swap1\n  dup2\n  mstore\n  0x20\n  add\n  0x0\n  keccak256\n  0x0\n    /* \"contracts/SCaccesscontrol/Roles.sol\":398:425  role.bearer[account] = true */\n  0x100\n  exp\n  dup2\n  sload\n  dup2\n  0xff\n  mul\n  not\n  and\n  swap1\n  dup4\n  iszero\n  iszero\n  mul\n  or\n  swap1\n  sstore\n  pop\n    /* \"contracts/SCaccesscontrol/Roles.sol\":259:431  function add(Role storage role, address account) internal {\r... */\n  pop\n  pop\n  jump\t// out\n    /* \"contracts/SCaccesscontrol/Roles.sol\":761:934  function has(Role storage role, address account)\r... */\ntag_13:\n    /* \"contracts/SCaccesscontrol/Roles.sol\":848:852  bool */\n  0x0\n    /* \"contracts/SCaccesscontrol/Roles.sol\":891:892  0 */\n  dup1\n    /* \"contracts/SCaccesscontrol/Roles.sol\":872:893  account != address(0) */\n  0xffffffffffffffffffffffffffffffffffffffff\n  and\n    /* \"contracts/SCaccesscontrol/Roles.sol\":872:879  account */\n  dup3\n    /* \"contracts/SCaccesscontrol/Roles.sol\":872:893  account != address(0) */\n  0xffffffffffffffffffffffffffffffffffffffff\n  and\n  eq\n  iszero\n    /* \"contracts/SCaccesscontrol/Roles.sol\":864:894  require(account != address(0)) */\n  iszero\n  iszero\n  tag_16\n  jumpi\n  0x0\n  dup1\n  revert\ntag_16:\n    /* \"contracts/SCaccesscontrol/Roles.sol\":908:912  role */\n  dup3\n    /* \"contracts/SCaccesscontrol/Roles.sol\":908:919  role.bearer */\n  0x0\n  add\n    /* \"contracts/SCaccesscontrol/Roles.sol\":908:928  role.bearer[account] */\n  0x0\n    /* \"contracts/SCaccesscontrol/Roles.sol\":920:927  account */\n  dup4\n    /* \"contracts/SCaccesscontrol/Roles.sol\":908:928  role.bearer[account] */\n  0xffffffffffffffffffffffffffffffffffffffff\n  and\n  0xffffffffffffffffffffffffffffffffffffffff\n  and\n  dup2\n  mstore\n  0x20\n  add\n  swap1\n  dup2\n  mstore\n  0x20\n  add\n  0x0\n  keccak256\n  0x0\n  swap1\n  sload\n  swap1\n  0x100\n  exp\n  swap1\n  div\n  0xff\n  and\n    /* \"contracts/SCaccesscontrol/Roles.sol\":901:928  return role.bearer[account] */\n  swap1\n  pop\n    /* \"contracts/SCaccesscontrol/Roles.sol\":761:934  function has(Role storage role, address account)\r... */\n  swap3\n  swap2\n  pop\n  pop\n  jump\t// out\n    /* \"contracts/SCaccesscontrol/CustomerRole.sol\":163:1774  contract CustomerRole {\r... */\ntag_6:\n  dataSize(sub_0)\n  dup1\n  dataOffset(sub_0)\n  0x0\n  codecopy\n  0x0\n  return\nstop\n\nsub_0: assembly {\n        /* \"contracts/SCaccesscontrol/CustomerRole.sol\":163:1774  contract CustomerRole {\r... */\n      mstore(0x40, 0x80)\n      jumpi(tag_1, lt(calldatasize, 0x4))\n      calldataload(0x0)\n      0x100000000000000000000000000000000000000000000000000000000\n      swap1\n      div\n      0xffffffff\n      and\n      dup1\n      0x28fd5e83\n      eq\n      tag_2\n      jumpi\n      dup1\n      0xad973d74\n      eq\n      tag_3\n      jumpi\n      dup1\n      0xc49ef109\n      eq\n      tag_4\n      jumpi\n    tag_1:\n      0x0\n      dup1\n      revert\n        /* \"contracts/SCaccesscontrol/CustomerRole.sol\":906:1012  function isCustomer(address account) public view returns (bool) {\r... */\n    tag_2:\n      callvalue\n        /* \"--CODEGEN--\":8:17   */\n      dup1\n        /* \"--CODEGEN--\":5:7   */\n      iszero\n      tag_5\n      jumpi\n        /* \"--CODEGEN--\":30:31   */\n      0x0\n        /* \"--CODEGEN--\":27:28   */\n      dup1\n        /* \"--CODEGEN--\":20:32   */\n      revert\n        /* \"--CODEGEN--\":5:7   */\n    tag_5:\n        /* \"contracts/SCaccesscontrol/CustomerRole.sol\":906:1012  function isCustomer(address account) public view returns (bool) {\r... */\n      pop\n      tag_6\n      0x4\n      dup1\n      calldatasize\n      sub\n        /* \"--CODEGEN--\":13:15   */\n      0x20\n        /* \"--CODEGEN--\":8:11   */\n      dup2\n        /* \"--CODEGEN--\":5:16   */\n      lt\n        /* \"--CODEGEN--\":2:4   */\n      iszero\n      tag_7\n      jumpi\n        /* \"--CODEGEN--\":29:30   */\n      0x0\n        /* \"--CODEGEN--\":26:27   */\n      dup1\n        /* \"--CODEGEN--\":19:31   */\n      revert\n        /* \"--CODEGEN--\":2:4   */\n    tag_7:\n        /* \"contracts/SCaccesscontrol/CustomerRole.sol\":906:1012  function isCustomer(address account) public view returns (bool) {\r... */\n      dup2\n      add\n      swap1\n      dup1\n      dup1\n      calldataload\n      0xffffffffffffffffffffffffffffffffffffffff\n      and\n      swap1\n      0x20\n      add\n      swap1\n      swap3\n      swap2\n      swap1\n      pop\n      pop\n      pop\n      jump(tag_8)\n    tag_6:\n      mload(0x40)\n      dup1\n      dup3\n      iszero\n      iszero\n      iszero\n      iszero\n      dup2\n      mstore\n      0x20\n      add\n      swap2\n      pop\n      pop\n      mload(0x40)\n      dup1\n      swap2\n      sub\n      swap1\n      return\n        /* \"contracts/SCaccesscontrol/CustomerRole.sol\":1076:1168  function addCustomer(address account) public onlyCustomer {\r... */\n    tag_3:\n      callvalue\n        /* \"--CODEGEN--\":8:17   */\n      dup1\n        /* \"--CODEGEN--\":5:7   */\n      iszero\n      tag_9\n      jumpi\n        /* \"--CODEGEN--\":30:31   */\n      0x0\n        /* \"--CODEGEN--\":27:28   */\n      dup1\n        /* \"--CODEGEN--\":20:32   */\n      revert\n        /* \"--CODEGEN--\":5:7   */\n    tag_9:\n        /* \"contracts/SCaccesscontrol/CustomerRole.sol\":1076:1168  function addCustomer(address account) public onlyCustomer {\r... */\n      pop\n      tag_10\n      0x4\n      dup1\n      calldatasize\n      sub\n        /* \"--CODEGEN--\":13:15   */\n      0x20\n        /* \"--CODEGEN--\":8:11   */\n      dup2\n        /* \"--CODEGEN--\":5:16   */\n      lt\n        /* \"--CODEGEN--\":2:4   */\n      iszero\n      tag_11\n      jumpi\n        /* \"--CODEGEN--\":29:30   */\n      0x0\n        /* \"--CODEGEN--\":26:27   */\n      dup1\n        /* \"--CODEGEN--\":19:31   */\n      revert\n        /* \"--CODEGEN--\":2:4   */\n    tag_11:\n        /* \"contracts/SCaccesscontrol/CustomerRole.sol\":1076:1168  function addCustomer(address account) public onlyCustomer {\r... */\n      dup2\n      add\n      swap1\n      dup1\n      dup1\n      calldataload\n      0xffffffffffffffffffffffffffffffffffffffff\n      and\n      swap1\n      0x20\n      add\n      swap1\n      swap3\n      swap2\n      swap1\n      pop\n      pop\n      pop\n      jump(tag_12)\n    tag_10:\n      stop\n        /* \"contracts/SCaccesscontrol/CustomerRole.sol\":1239:1326  function renounceCustomer(address account) public {\r... */\n    tag_4:\n      callvalue\n        /* \"--CODEGEN--\":8:17   */\n      dup1\n        /* \"--CODEGEN--\":5:7   */\n      iszero\n      tag_13\n      jumpi\n        /* \"--CODEGEN--\":30:31   */\n      0x0\n        /* \"--CODEGEN--\":27:28   */\n      dup1\n        /* \"--CODEGEN--\":20:32   */\n      revert\n        /* \"--CODEGEN--\":5:7   */\n    tag_13:\n        /* \"contracts/SCaccesscontrol/CustomerRole.sol\":1239:1326  function renounceCustomer(address account) public {\r... */\n      pop\n      tag_14\n      0x4\n      dup1\n      calldatasize\n      sub\n        /* \"--CODEGEN--\":13:15   */\n      0x20\n        /* \"--CODEGEN--\":8:11   */\n      dup2\n        /* \"--CODEGEN--\":5:16   */\n      lt\n        /* \"--CODEGEN--\":2:4   */\n      iszero\n      tag_15\n      jumpi\n        /* \"--CODEGEN--\":29:30   */\n      0x0\n        /* \"--CODEGEN--\":26:27   */\n      dup1\n        /* \"--CODEGEN--\":19:31   */\n      revert\n        /* \"--CODEGEN--\":2:4   */\n    tag_15:\n        /* \"contracts/SCaccesscontrol/CustomerRole.sol\":1239:1326  function renounceCustomer(address account) public {\r... */\n      dup2\n      add\n      swap1\n      dup1\n      dup1\n      calldataload\n      0xffffffffffffffffffffffffffffffffffffffff\n      and\n      swap1\n      0x20\n      add\n      swap1\n      swap3\n      swap2\n      swap1\n      pop\n      pop\n      pop\n      jump(tag_16)\n    tag_14:\n      stop\n        /* \"contracts/SCaccesscontrol/CustomerRole.sol\":906:1012  function isCustomer(address account) public view returns (bool) {\r... */\n    tag_8:\n        /* \"contracts/SCaccesscontrol/CustomerRole.sol\":964:968  bool */\n      0x0\n        /* \"contracts/SCaccesscontrol/CustomerRole.sol\":984:1006  customers.has(account) */\n      tag_18\n        /* \"contracts/SCaccesscontrol/CustomerRole.sol\":998:1005  account */\n      dup3\n        /* \"contracts/SCaccesscontrol/CustomerRole.sol\":984:993  customers */\n      0x0\n        /* \"contracts/SCaccesscontrol/CustomerRole.sol\":984:997  customers.has */\n      tag_19\n      swap1\n        /* \"contracts/SCaccesscontrol/CustomerRole.sol\":984:1006  customers.has(account) */\n      swap2\n      swap1\n      0xffffffff\n      and\n      jump\t// in\n    tag_18:\n        /* \"contracts/SCaccesscontrol/CustomerRole.sol\":977:1006  return customers.has(account) */\n      swap1\n      pop\n        /* \"contracts/SCaccesscontrol/CustomerRole.sol\":906:1012  function isCustomer(address account) public view returns (bool) {\r... */\n      swap2\n      swap1\n      pop\n      jump\t// out\n        /* \"contracts/SCaccesscontrol/CustomerRole.sol\":1076:1168  function addCustomer(address account) public onlyCustomer {\r... */\n    tag_12:\n        /* \"contracts/SCaccesscontrol/CustomerRole.sol\":807:829  isCustomer(msg.sender) */\n      tag_21\n        /* \"contracts/SCaccesscontrol/CustomerRole.sol\":818:828  msg.sender */\n      caller\n        /* \"contracts/SCaccesscontrol/CustomerRole.sol\":807:817  isCustomer */\n      tag_8\n        /* \"contracts/SCaccesscontrol/CustomerRole.sol\":807:829  isCustomer(msg.sender) */\n      jump\t// in\n    tag_21:\n        /* \"contracts/SCaccesscontrol/CustomerRole.sol\":799:830  require(isCustomer(msg.sender)) */\n      iszero\n      iszero\n      tag_22\n      jumpi\n      0x0\n      dup1\n      revert\n    tag_22:\n        /* \"contracts/SCaccesscontrol/CustomerRole.sol\":1141:1162  _addCustomer(account) */\n      tag_24\n        /* \"contracts/SCaccesscontrol/CustomerRole.sol\":1154:1161  account */\n      dup2\n        /* \"contracts/SCaccesscontrol/CustomerRole.sol\":1141:1153  _addCustomer */\n      tag_25\n        /* \"contracts/SCaccesscontrol/CustomerRole.sol\":1141:1162  _addCustomer(account) */\n      jump\t// in\n    tag_24:\n        /* \"contracts/SCaccesscontrol/CustomerRole.sol\":1076:1168  function addCustomer(address account) public onlyCustomer {\r... */\n      pop\n      jump\t// out\n        /* \"contracts/SCaccesscontrol/CustomerRole.sol\":1239:1326  function renounceCustomer(address account) public {\r... */\n    tag_16:\n        /* \"contracts/SCaccesscontrol/CustomerRole.sol\":1296:1320  _removeCustomer(account) */\n      tag_27\n        /* \"contracts/SCaccesscontrol/CustomerRole.sol\":1312:1319  account */\n      dup2\n        /* \"contracts/SCaccesscontrol/CustomerRole.sol\":1296:1311  _removeCustomer */\n      tag_28\n        /* \"contracts/SCaccesscontrol/CustomerRole.sol\":1296:1320  _removeCustomer(account) */\n      jump\t// in\n    tag_27:\n        /* \"contracts/SCaccesscontrol/CustomerRole.sol\":1239:1326  function renounceCustomer(address account) public {\r... */\n      pop\n      jump\t// out\n        /* \"contracts/SCaccesscontrol/Roles.sol\":761:934  function has(Role storage role, address account)\r... */\n    tag_19:\n        /* \"contracts/SCaccesscontrol/Roles.sol\":848:852  bool */\n      0x0\n        /* \"contracts/SCaccesscontrol/Roles.sol\":891:892  0 */\n      dup1\n        /* \"contracts/SCaccesscontrol/Roles.sol\":872:893  account != address(0) */\n      0xffffffffffffffffffffffffffffffffffffffff\n      and\n        /* \"contracts/SCaccesscontrol/Roles.sol\":872:879  account */\n      dup3\n        /* \"contracts/SCaccesscontrol/Roles.sol\":872:893  account != address(0) */\n      0xffffffffffffffffffffffffffffffffffffffff\n      and\n      eq\n      iszero\n        /* \"contracts/SCaccesscontrol/Roles.sol\":864:894  require(account != address(0)) */\n      iszero\n      iszero\n      tag_30\n      jumpi\n      0x0\n      dup1\n      revert\n    tag_30:\n        /* \"contracts/SCaccesscontrol/Roles.sol\":908:912  role */\n      dup3\n        /* \"contracts/SCaccesscontrol/Roles.sol\":908:919  role.bearer */\n      0x0\n      add\n        /* \"contracts/SCaccesscontrol/Roles.sol\":908:928  role.bearer[account] */\n      0x0\n        /* \"contracts/SCaccesscontrol/Roles.sol\":920:927  account */\n      dup4\n        /* \"contracts/SCaccesscontrol/Roles.sol\":908:928  role.bearer[account] */\n      0xffffffffffffffffffffffffffffffffffffffff\n      and\n      0xffffffffffffffffffffffffffffffffffffffff\n      and\n      dup2\n      mstore\n      0x20\n      add\n      swap1\n      dup2\n      mstore\n      0x20\n      add\n      0x0\n      keccak256\n      0x0\n      swap1\n      sload\n      swap1\n      0x100\n      exp\n      swap1\n      div\n      0xff\n      and\n        /* \"contracts/SCaccesscontrol/Roles.sol\":901:928  return role.bearer[account] */\n      swap1\n      pop\n        /* \"contracts/SCaccesscontrol/Roles.sol\":761:934  function has(Role storage role, address account)\r... */\n      swap3\n      swap2\n      pop\n      pop\n      jump\t// out\n        /* \"contracts/SCaccesscontrol/CustomerRole.sol\":1423:1540  function _addCustomer(address account) internal {\r... */\n    tag_25:\n        /* \"contracts/SCaccesscontrol/CustomerRole.sol\":1478:1500  customers.add(account) */\n      tag_32\n        /* \"contracts/SCaccesscontrol/CustomerRole.sol\":1492:1499  account */\n      dup2\n        /* \"contracts/SCaccesscontrol/CustomerRole.sol\":1478:1487  customers */\n      0x0\n        /* \"contracts/SCaccesscontrol/CustomerRole.sol\":1478:1491  customers.add */\n      tag_33\n      swap1\n        /* \"contracts/SCaccesscontrol/CustomerRole.sol\":1478:1500  customers.add(account) */\n      swap2\n      swap1\n      0xffffffff\n      and\n      jump\t// in\n    tag_32:\n        /* \"contracts/SCaccesscontrol/CustomerRole.sol\":1526:1533  account */\n      dup1\n        /* \"contracts/SCaccesscontrol/CustomerRole.sol\":1512:1534  CustomerAdded(account) */\n      0xffffffffffffffffffffffffffffffffffffffff\n      and\n      0xcd118a02bd36f224f6f1b93812f78d2bbc2c2dc1bc0f60c176e3b4fe09f1483f\n      mload(0x40)\n      mload(0x40)\n      dup1\n      swap2\n      sub\n      swap1\n      log2\n        /* \"contracts/SCaccesscontrol/CustomerRole.sol\":1423:1540  function _addCustomer(address account) internal {\r... */\n      pop\n      jump\t// out\n        /* \"contracts/SCaccesscontrol/CustomerRole.sol\":1646:1771  function _removeCustomer(address account) internal {\r... */\n    tag_28:\n        /* \"contracts/SCaccesscontrol/CustomerRole.sol\":1704:1729  customers.remove(account) */\n      tag_35\n        /* \"contracts/SCaccesscontrol/CustomerRole.sol\":1721:1728  account */\n      dup2\n        /* \"contracts/SCaccesscontrol/CustomerRole.sol\":1704:1713  customers */\n      0x0\n        /* \"contracts/SCaccesscontrol/CustomerRole.sol\":1704:1720  customers.remove */\n      tag_36\n      swap1\n        /* \"contracts/SCaccesscontrol/CustomerRole.sol\":1704:1729  customers.remove(account) */\n      swap2\n      swap1\n      0xffffffff\n      and\n      jump\t// in\n    tag_35:\n        /* \"contracts/SCaccesscontrol/CustomerRole.sol\":1757:1764  account */\n      dup1\n        /* \"contracts/SCaccesscontrol/CustomerRole.sol\":1741:1765  CustomerRemoved(account) */\n      0xffffffffffffffffffffffffffffffffffffffff\n      and\n      0xb4c88a9c5cd906354abdd1cc29e4f94c6c4de90754fb80ce51e6a33417bc81b6\n      mload(0x40)\n      mload(0x40)\n      dup1\n      swap2\n      sub\n      swap1\n      log2\n        /* \"contracts/SCaccesscontrol/CustomerRole.sol\":1646:1771  function _removeCustomer(address account) internal {\r... */\n      pop\n      jump\t// out\n        /* \"contracts/SCaccesscontrol/Roles.sol\":259:431  function add(Role storage role, address account) internal {\r... */\n    tag_33:\n        /* \"contracts/SCaccesscontrol/Roles.sol\":351:352  0 */\n      0x0\n        /* \"contracts/SCaccesscontrol/Roles.sol\":332:353  account != address(0) */\n      0xffffffffffffffffffffffffffffffffffffffff\n      and\n        /* \"contracts/SCaccesscontrol/Roles.sol\":332:339  account */\n      dup2\n        /* \"contracts/SCaccesscontrol/Roles.sol\":332:353  account != address(0) */\n      0xffffffffffffffffffffffffffffffffffffffff\n      and\n      eq\n      iszero\n        /* \"contracts/SCaccesscontrol/Roles.sol\":324:354  require(account != address(0)) */\n      iszero\n      iszero\n      tag_38\n      jumpi\n      0x0\n      dup1\n      revert\n    tag_38:\n        /* \"contracts/SCaccesscontrol/Roles.sol\":370:388  has(role, account) */\n      tag_39\n        /* \"contracts/SCaccesscontrol/Roles.sol\":374:378  role */\n      dup3\n        /* \"contracts/SCaccesscontrol/Roles.sol\":380:387  account */\n      dup3\n        /* \"contracts/SCaccesscontrol/Roles.sol\":370:373  has */\n      tag_19\n        /* \"contracts/SCaccesscontrol/Roles.sol\":370:388  has(role, account) */\n      jump\t// in\n    tag_39:\n        /* \"contracts/SCaccesscontrol/Roles.sol\":369:388  !has(role, account) */\n      iszero\n        /* \"contracts/SCaccesscontrol/Roles.sol\":361:389  require(!has(role, account)) */\n      iszero\n      iszero\n      tag_40\n      jumpi\n      0x0\n      dup1\n      revert\n    tag_40:\n        /* \"contracts/SCaccesscontrol/Roles.sol\":421:425  true */\n      0x1\n        /* \"contracts/SCaccesscontrol/Roles.sol\":398:402  role */\n      dup3\n        /* \"contracts/SCaccesscontrol/Roles.sol\":398:409  role.bearer */\n      0x0\n      add\n        /* \"contracts/SCaccesscontrol/Roles.sol\":398:418  role.bearer[account] */\n      0x0\n        /* \"contracts/SCaccesscontrol/Roles.sol\":410:417  account */\n      dup4\n        /* \"contracts/SCaccesscontrol/Roles.sol\":398:418  role.bearer[account] */\n      0xffffffffffffffffffffffffffffffffffffffff\n      and\n      0xffffffffffffffffffffffffffffffffffffffff\n      and\n      dup2\n      mstore\n      0x20\n      add\n      swap1\n      dup2\n      mstore\n      0x20\n      add\n      0x0\n      keccak256\n      0x0\n        /* \"contracts/SCaccesscontrol/Roles.sol\":398:425  role.bearer[account] = true */\n      0x100\n      exp\n      dup2\n      sload\n      dup2\n      0xff\n      mul\n      not\n      and\n      swap1\n      dup4\n      iszero\n      iszero\n      mul\n      or\n      swap1\n      sstore\n      pop\n        /* \"contracts/SCaccesscontrol/Roles.sol\":259:431  function add(Role storage role, address account) internal {\r... */\n      pop\n      pop\n      jump\t// out\n        /* \"contracts/SCaccesscontrol/Roles.sol\":502:677  function remove(Role storage role, address account) internal {\r... */\n    tag_36:\n        /* \"contracts/SCaccesscontrol/Roles.sol\":597:598  0 */\n      0x0\n        /* \"contracts/SCaccesscontrol/Roles.sol\":578:599  account != address(0) */\n      0xffffffffffffffffffffffffffffffffffffffff\n      and\n        /* \"contracts/SCaccesscontrol/Roles.sol\":578:585  account */\n      dup2\n        /* \"contracts/SCaccesscontrol/Roles.sol\":578:599  account != address(0) */\n      0xffffffffffffffffffffffffffffffffffffffff\n      and\n      eq\n      iszero\n        /* \"contracts/SCaccesscontrol/Roles.sol\":570:600  require(account != address(0)) */\n      iszero\n      iszero\n      tag_42\n      jumpi\n      0x0\n      dup1\n      revert\n    tag_42:\n        /* \"contracts/SCaccesscontrol/Roles.sol\":615:633  has(role, account) */\n      tag_43\n        /* \"contracts/SCaccesscontrol/Roles.sol\":619:623  role */\n      dup3\n        /* \"contracts/SCaccesscontrol/Roles.sol\":625:632  account */\n      dup3\n        /* \"contracts/SCaccesscontrol/Roles.sol\":615:618  has */\n      tag_19\n        /* \"contracts/SCaccesscontrol/Roles.sol\":615:633  has(role, account) */\n      jump\t// in\n    tag_43:\n        /* \"contracts/SCaccesscontrol/Roles.sol\":607:634  require(has(role, account)) */\n      iszero\n      iszero\n      tag_44\n      jumpi\n      0x0\n      dup1\n      revert\n    tag_44:\n        /* \"contracts/SCaccesscontrol/Roles.sol\":666:671  false */\n      0x0\n        /* \"contracts/SCaccesscontrol/Roles.sol\":643:647  role */\n      dup3\n        /* \"contracts/SCaccesscontrol/Roles.sol\":643:654  role.bearer */\n      0x0\n      add\n        /* \"contracts/SCaccesscontrol/Roles.sol\":643:663  role.bearer[account] */\n      0x0\n        /* \"contracts/SCaccesscontrol/Roles.sol\":655:662  account */\n      dup4\n        /* \"contracts/SCaccesscontrol/Roles.sol\":643:663  role.bearer[account] */\n      0xffffffffffffffffffffffffffffffffffffffff\n      and\n      0xffffffffffffffffffffffffffffffffffffffff\n      and\n      dup2\n      mstore\n      0x20\n      add\n      swap1\n      dup2\n      mstore\n      0x20\n      add\n      0x0\n      keccak256\n      0x0\n        /* \"contracts/SCaccesscontrol/Roles.sol\":643:671  role.bearer[account] = false */\n      0x100\n      exp\n      dup2\n      sload\n      dup2\n      0xff\n      mul\n      not\n      and\n      swap1\n      dup4\n      iszero\n      iszero\n      mul\n      or\n      swap1\n      sstore\n      pop\n        /* \"contracts/SCaccesscontrol/Roles.sol\":502:677  function remove(Role storage role, address account) internal {\r... */\n      pop\n      pop\n      jump\t// out\n\n    auxdata: 0xa165627a7a72305820026494bfe6e4523851186400bd845164fdc897ad1e298a119b22e26d8291cac50029\n}\n",
				"bytecode": {
					"linkReferences": {},
					"object": "608060405234801561001057600080fd5b506100293361002e640100000000026401000000009004565b6101e8565b61004f816000610095640100000000026102f8179091906401000000009004565b8073ffffffffffffffffffffffffffffffffffffffff167fcd118a02bd36f224f6f1b93812f78d2bbc2c2dc1bc0f60c176e3b4fe09f1483f60405160405180910390a250565b600073ffffffffffffffffffffffffffffffffffffffff168173ffffffffffffffffffffffffffffffffffffffff16141515156100d157600080fd5b6100ea8282610154640100000000026401000000009004565b1515156100f657600080fd5b60018260000160008373ffffffffffffffffffffffffffffffffffffffff1673ffffffffffffffffffffffffffffffffffffffff16815260200190815260200160002060006101000a81548160ff0219169083151502179055505050565b60008073ffffffffffffffffffffffffffffffffffffffff168273ffffffffffffffffffffffffffffffffffffffff161415151561019157600080fd5b8260000160008373ffffffffffffffffffffffffffffffffffffffff1673ffffffffffffffffffffffffffffffffffffffff16815260200190815260200160002060009054906101000a900460ff16905092915050565b610483806101f76000396000f3fe608060405260043610610057576000357c0100000000000000000000000000000000000000000000000000000000900463ffffffff16806328fd5e831461005c578063ad973d74146100c5578063c49ef10914610116575b600080fd5b34801561006857600080fd5b506100ab6004803603602081101561007f57600080fd5b81019080803573ffffffffffffffffffffffffffffffffffffffff169060200190929190505050610167565b604051808215151515815260200191505060405180910390f35b3480156100d157600080fd5b50610114600480360360208110156100e857600080fd5b81019080803573ffffffffffffffffffffffffffffffffffffffff169060200190929190505050610184565b005b34801561012257600080fd5b506101656004803603602081101561013957600080fd5b81019080803573ffffffffffffffffffffffffffffffffffffffff1690602001909291905050506101a4565b005b600061017d8260006101b090919063ffffffff16565b9050919050565b61018d33610167565b151561019857600080fd5b6101a181610244565b50565b6101ad8161029e565b50565b60008073ffffffffffffffffffffffffffffffffffffffff168273ffffffffffffffffffffffffffffffffffffffff16141515156101ed57600080fd5b8260000160008373ffffffffffffffffffffffffffffffffffffffff1673ffffffffffffffffffffffffffffffffffffffff16815260200190815260200160002060009054906101000a900460ff16905092915050565b6102588160006102f890919063ffffffff16565b8073ffffffffffffffffffffffffffffffffffffffff167fcd118a02bd36f224f6f1b93812f78d2bbc2c2dc1bc0f60c176e3b4fe09f1483f60405160405180910390a250565b6102b28160006103a890919063ffffffff16565b8073ffffffffffffffffffffffffffffffffffffffff167fb4c88a9c5cd906354abdd1cc29e4f94c6c4de90754fb80ce51e6a33417bc81b660405160405180910390a250565b600073ffffffffffffffffffffffffffffffffffffffff168173ffffffffffffffffffffffffffffffffffffffff161415151561033457600080fd5b61033e82826101b0565b15151561034a57600080fd5b60018260000160008373ffffffffffffffffffffffffffffffffffffffff1673ffffffffffffffffffffffffffffffffffffffff16815260200190815260200160002060006101000a81548160ff0219169083151502179055505050565b600073ffffffffffffffffffffffffffffffffffffffff168173ffffffffffffffffffffffffffffffffffffffff16141515156103e457600080fd5b6103ee82826101b0565b15156103f957600080fd5b60008260000160008373ffffffffffffffffffffffffffffffffffffffff1673ffffffffffffffffffffffffffffffffffffffff16815260200190815260200160002060006101000a81548160ff021916908315150217905550505056fea165627a7a72305820026494bfe6e4523851186400bd845164fdc897ad1e298a119b22e26d8291cac50029",
					"opcodes": "PUSH1 0x80 PUSH1 0x40 MSTORE CALLVALUE DUP1 ISZERO PUSH2 0x10 JUMPI PUSH1 0x0 DUP1 REVERT JUMPDEST POP PUSH2 0x29 CALLER PUSH2 0x2E PUSH5 0x100000000 MUL PUSH5 0x100000000 SWAP1 DIV JUMP JUMPDEST PUSH2 0x1E8 JUMP JUMPDEST PUSH2 0x4F DUP2 PUSH1 0x0 PUSH2 0x95 PUSH5 0x100000000 MUL PUSH2 0x2F8 OR SWAP1 SWAP2 SWAP1 PUSH5 0x100000000 SWAP1 DIV JUMP JUMPDEST DUP1 PUSH20 0xFFFFFFFFFFFFFFFFFFFFFFFFFFFFFFFFFFFFFFFF AND PUSH32 0xCD118A02BD36F224F6F1B93812F78D2BBC2C2DC1BC0F60C176E3B4FE09F1483F PUSH1 0x40 MLOAD PUSH1 0x40 MLOAD DUP1 SWAP2 SUB SWAP1 LOG2 POP JUMP JUMPDEST PUSH1 0x0 PUSH20 0xFFFFFFFFFFFFFFFFFFFFFFFFFFFFFFFFFFFFFFFF AND DUP2 PUSH20 0xFFFFFFFFFFFFFFFFFFFFFFFFFFFFFFFFFFFFFFFF AND EQ ISZERO ISZERO ISZERO PUSH2 0xD1 JUMPI PUSH1 0x0 DUP1 REVERT JUMPDEST PUSH2 0xEA DUP3 DUP3 PUSH2 0x154 PUSH5 0x100000000 MUL PUSH5 0x100000000 SWAP1 DIV JUMP JUMPDEST ISZERO ISZERO ISZERO PUSH2 0xF6 JUMPI PUSH1 0x0 DUP1 REVERT JUMPDEST PUSH1 0x1 DUP3 PUSH1 0x0 ADD PUSH1 0x0 DUP4 PUSH20 0xFFFFFFFFFFFFFFFFFFFFFFFFFFFFFFFFFFFFFFFF AND PUSH20 0xFFFFFFFFFFFFFFFFFFFFFFFFFFFFFFFFFFFFFFFF AND DUP2 MSTORE PUSH1 0x20 ADD SWAP1 DUP2 MSTORE PUSH1 0x20 ADD PUSH1 0x0 KECCAK256 PUSH1 0x0 PUSH2 0x100 EXP DUP2 SLOAD DUP2 PUSH1 0xFF MUL NOT AND SWAP1 DUP4 ISZERO ISZERO MUL OR SWAP1 SSTORE POP POP POP JUMP JUMPDEST PUSH1 0x0 DUP1 PUSH20 0xFFFFFFFFFFFFFFFFFFFFFFFFFFFFFFFFFFFFFFFF AND DUP3 PUSH20 0xFFFFFFFFFFFFFFFFFFFFFFFFFFFFFFFFFFFFFFFF AND EQ ISZERO ISZERO ISZERO PUSH2 0x191 JUMPI PUSH1 0x0 DUP1 REVERT JUMPDEST DUP3 PUSH1 0x0 ADD PUSH1 0x0 DUP4 PUSH20 0xFFFFFFFFFFFFFFFFFFFFFFFFFFFFFFFFFFFFFFFF AND PUSH20 0xFFFFFFFFFFFFFFFFFFFFFFFFFFFFFFFFFFFFFFFF AND DUP2 MSTORE PUSH1 0x20 ADD SWAP1 DUP2 MSTORE PUSH1 0x20 ADD PUSH1 0x0 KECCAK256 PUSH1 0x0 SWAP1 SLOAD SWAP1 PUSH2 0x100 EXP SWAP1 DIV PUSH1 0xFF AND SWAP1 POP SWAP3 SWAP2 POP POP JUMP JUMPDEST PUSH2 0x483 DUP1 PUSH2 0x1F7 PUSH1 0x0 CODECOPY PUSH1 0x0 RETURN INVALID PUSH1 0x80 PUSH1 0x40 MSTORE PUSH1 0x4 CALLDATASIZE LT PUSH2 0x57 JUMPI PUSH1 0x0 CALLDATALOAD PUSH29 0x100000000000000000000000000000000000000000000000000000000 SWAP1 DIV PUSH4 0xFFFFFFFF AND DUP1 PUSH4 0x28FD5E83 EQ PUSH2 0x5C JUMPI DUP1 PUSH4 0xAD973D74 EQ PUSH2 0xC5 JUMPI DUP1 PUSH4 0xC49EF109 EQ PUSH2 0x116 JUMPI JUMPDEST PUSH1 0x0 DUP1 REVERT JUMPDEST CALLVALUE DUP1 ISZERO PUSH2 0x68 JUMPI PUSH1 0x0 DUP1 REVERT JUMPDEST POP PUSH2 0xAB PUSH1 0x4 DUP1 CALLDATASIZE SUB PUSH1 0x20 DUP2 LT ISZERO PUSH2 0x7F JUMPI PUSH1 0x0 DUP1 REVERT JUMPDEST DUP2 ADD SWAP1 DUP1 DUP1 CALLDATALOAD PUSH20 0xFFFFFFFFFFFFFFFFFFFFFFFFFFFFFFFFFFFFFFFF AND SWAP1 PUSH1 0x20 ADD SWAP1 SWAP3 SWAP2 SWAP1 POP POP POP PUSH2 0x167 JUMP JUMPDEST PUSH1 0x40 MLOAD DUP1 DUP3 ISZERO ISZERO ISZERO ISZERO DUP2 MSTORE PUSH1 0x20 ADD SWAP2 POP POP PUSH1 0x40 MLOAD DUP1 SWAP2 SUB SWAP1 RETURN JUMPDEST CALLVALUE DUP1 ISZERO PUSH2 0xD1 JUMPI PUSH1 0x0 DUP1 REVERT JUMPDEST POP PUSH2 0x114 PUSH1 0x4 DUP1 CALLDATASIZE SUB PUSH1 0x20 DUP2 LT ISZERO PUSH2 0xE8 JUMPI PUSH1 0x0 DUP1 REVERT JUMPDEST DUP2 ADD SWAP1 DUP1 DUP1 CALLDATALOAD PUSH20 0xFFFFFFFFFFFFFFFFFFFFFFFFFFFFFFFFFFFFFFFF AND SWAP1 PUSH1 0x20 ADD SWAP1 SWAP3 SWAP2 SWAP1 POP POP POP PUSH2 0x184 JUMP JUMPDEST STOP JUMPDEST CALLVALUE DUP1 ISZERO PUSH2 0x122 JUMPI PUSH1 0x0 DUP1 REVERT JUMPDEST POP PUSH2 0x165 PUSH1 0x4 DUP1 CALLDATASIZE SUB PUSH1 0x20 DUP2 LT ISZERO PUSH2 0x139 JUMPI PUSH1 0x0 DUP1 REVERT JUMPDEST DUP2 ADD SWAP1 DUP1 DUP1 CALLDATALOAD PUSH20 0xFFFFFFFFFFFFFFFFFFFFFFFFFFFFFFFFFFFFFFFF AND SWAP1 PUSH1 0x20 ADD SWAP1 SWAP3 SWAP2 SWAP1 POP POP POP PUSH2 0x1A4 JUMP JUMPDEST STOP JUMPDEST PUSH1 0x0 PUSH2 0x17D DUP3 PUSH1 0x0 PUSH2 0x1B0 SWAP1 SWAP2 SWAP1 PUSH4 0xFFFFFFFF AND JUMP JUMPDEST SWAP1 POP SWAP2 SWAP1 POP JUMP JUMPDEST PUSH2 0x18D CALLER PUSH2 0x167 JUMP JUMPDEST ISZERO ISZERO PUSH2 0x198 JUMPI PUSH1 0x0 DUP1 REVERT JUMPDEST PUSH2 0x1A1 DUP2 PUSH2 0x244 JUMP JUMPDEST POP JUMP JUMPDEST PUSH2 0x1AD DUP2 PUSH2 0x29E JUMP JUMPDEST POP JUMP JUMPDEST PUSH1 0x0 DUP1 PUSH20 0xFFFFFFFFFFFFFFFFFFFFFFFFFFFFFFFFFFFFFFFF AND DUP3 PUSH20 0xFFFFFFFFFFFFFFFFFFFFFFFFFFFFFFFFFFFFFFFF AND EQ ISZERO ISZERO ISZERO PUSH2 0x1ED JUMPI PUSH1 0x0 DUP1 REVERT JUMPDEST DUP3 PUSH1 0x0 ADD PUSH1 0x0 DUP4 PUSH20 0xFFFFFFFFFFFFFFFFFFFFFFFFFFFFFFFFFFFFFFFF AND PUSH20 0xFFFFFFFFFFFFFFFFFFFFFFFFFFFFFFFFFFFFFFFF AND DUP2 MSTORE PUSH1 0x20 ADD SWAP1 DUP2 MSTORE PUSH1 0x20 ADD PUSH1 0x0 KECCAK256 PUSH1 0x0 SWAP1 SLOAD SWAP1 PUSH2 0x100 EXP SWAP1 DIV PUSH1 0xFF AND SWAP1 POP SWAP3 SWAP2 POP POP JUMP JUMPDEST PUSH2 0x258 DUP2 PUSH1 0x0 PUSH2 0x2F8 SWAP1 SWAP2 SWAP1 PUSH4 0xFFFFFFFF AND JUMP JUMPDEST DUP1 PUSH20 0xFFFFFFFFFFFFFFFFFFFFFFFFFFFFFFFFFFFFFFFF AND PUSH32 0xCD118A02BD36F224F6F1B93812F78D2BBC2C2DC1BC0F60C176E3B4FE09F1483F PUSH1 0x40 MLOAD PUSH1 0x40 MLOAD DUP1 SWAP2 SUB SWAP1 LOG2 POP JUMP JUMPDEST PUSH2 0x2B2 DUP2 PUSH1 0x0 PUSH2 0x3A8 SWAP1 SWAP2 SWAP1 PUSH4 0xFFFFFFFF AND JUMP JUMPDEST DUP1 PUSH20 0xFFFFFFFFFFFFFFFFFFFFFFFFFFFFFFFFFFFFFFFF AND PUSH32 0xB4C88A9C5CD906354ABDD1CC29E4F94C6C4DE90754FB80CE51E6A33417BC81B6 PUSH1 0x40 MLOAD PUSH1 0x40 MLOAD DUP1 SWAP2 SUB SWAP1 LOG2 POP JUMP JUMPDEST PUSH1 0x0 PUSH20 0xFFFFFFFFFFFFFFFFFFFFFFFFFFFFFFFFFFFFFFFF AND DUP2 PUSH20 0xFFFFFFFFFFFFFFFFFFFFFFFFFFFFFFFFFFFFFFFF AND EQ ISZERO ISZERO ISZERO PUSH2 0x334 JUMPI PUSH1 0x0 DUP1 REVERT JUMPDEST PUSH2 0x33E DUP3 DUP3 PUSH2 0x1B0 JUMP JUMPDEST ISZERO ISZERO ISZERO PUSH2 0x34A JUMPI PUSH1 0x0 DUP1 REVERT JUMPDEST PUSH1 0x1 DUP3 PUSH1 0x0 ADD PUSH1 0x0 DUP4 PUSH20 0xFFFFFFFFFFFFFFFFFFFFFFFFFFFFFFFFFFFFFFFF AND PUSH20 0xFFFFFFFFFFFFFFFFFFFFFFFFFFFFFFFFFFFFFFFF AND DUP2 MSTORE PUSH1 0x20 ADD SWAP1 DUP2 MSTORE PUSH1 0x20 ADD PUSH1 0x0 KECCAK256 PUSH1 0x0 PUSH2 0x100 EXP DUP2 SLOAD DUP2 PUSH1 0xFF MUL NOT AND SWAP1 DUP4 ISZERO ISZERO MUL OR SWAP1 SSTORE POP POP POP JUMP JUMPDEST PUSH1 0x0 PUSH20 0xFFFFFFFFFFFFFFFFFFFFFFFFFFFFFFFFFFFFFFFF AND DUP2 PUSH20 0xFFFFFFFFFFFFFFFFFFFFFFFFFFFFFFFFFFFFFFFF AND EQ ISZERO ISZERO ISZERO PUSH2 0x3E4 JUMPI PUSH1 0x0 DUP1 REVERT JUMPDEST PUSH2 0x3EE DUP3 DUP3 PUSH2 0x1B0 JUMP JUMPDEST ISZERO ISZERO PUSH2 0x3F9 JUMPI PUSH1 0x0 DUP1 REVERT JUMPDEST PUSH1 0x0 DUP3 PUSH1 0x0 ADD PUSH1 0x0 DUP4 PUSH20 0xFFFFFFFFFFFFFFFFFFFFFFFFFFFFFFFFFFFFFFFF AND PUSH20 0xFFFFFFFFFFFFFFFFFFFFFFFFFFFFFFFFFFFFFFFF AND DUP2 MSTORE PUSH1 0x20 ADD SWAP1 DUP2 MSTORE PUSH1 0x20 ADD PUSH1 0x0 KECCAK256 PUSH1 0x0 PUSH2 0x100 EXP DUP2 SLOAD DUP2 PUSH1 0xFF MUL NOT AND SWAP1 DUP4 ISZERO ISZERO MUL OR SWAP1 SSTORE POP POP POP JUMP INVALID LOG1 PUSH6 0x627A7A723058 KECCAK256 MUL PUSH5 0x94BFE6E452 CODESIZE MLOAD XOR PUSH5 0xBD845164 REVERT 0xc8 SWAP8 0xad 0x1e 0x29 DUP11 GT SWAP12 0x22 0xe2 PUSH14 0x8291CAC500290000000000000000 "
				},
				"gasEstimates": {
					"creation": {
						"codeDepositCost": "231000",
						"executionCost": "infinite",
						"totalCost": "infinite"
					},
					"external": {
						"addCustomer(address)": "infinite",
						"isCustomer(address)": "infinite",
						"renounceCustomer(address)": "infinite"
					},
					"internal": {
						"_addCustomer(address)": "infinite",
						"_removeCustomer(address)": "infinite"
					}
				},
				"methodIdentifiers": {
					"addCustomer(address)": "ad973d74",
					"isCustomer(address)": "28fd5e83",
					"renounceCustomer(address)": "c49ef109"
				}
			},
			"userdoc": {
				"methods": {}
			}
		}
	}
}