{
	"contracts/SCaccesscontrol/CarParts_DistributorRole.sol": {
		"CarParts_DistributorRole": {
			"abi": [
				{
					"constant": false,
					"inputs": [
						{
							"name": "account",
							"type": "address"
						}
					],
					"name": "addCarParts_Distributor",
					"outputs": [],
					"payable": false,
					"stateMutability": "nonpayable",
					"type": "function"
				},
				{
					"constant": false,
					"inputs": [],
					"name": "renounceCarParts_Distributor",
					"outputs": [],
					"payable": false,
					"stateMutability": "nonpayable",
					"type": "function"
				},
				{
					"constant": true,
					"inputs": [
						{
							"name": "account",
							"type": "address"
						}
					],
					"name": "isCarParts_Distributor",
					"outputs": [
						{
							"name": "",
							"type": "bool"
						}
					],
					"payable": false,
					"stateMutability": "view",
					"type": "function"
				},
				{
					"inputs": [],
					"payable": false,
					"stateMutability": "nonpayable",
					"type": "constructor"
				},
				{
					"anonymous": false,
					"inputs": [
						{
							"indexed": true,
							"name": "account",
							"type": "address"
						}
					],
					"name": "CarParts_DistributorAdded",
					"type": "event"
				},
				{
					"anonymous": false,
					"inputs": [
						{
							"indexed": true,
							"name": "account",
							"type": "address"
						}
					],
					"name": "CarParts_DistributorRemoved",
					"type": "event"
				}
			],
			"devdoc": {
				"methods": {}
			},
			"evm": {
				"assembly": "    /* \"contracts/SCaccesscontrol/CarParts_DistributorRole.sol\":175:2084  contract CarParts_DistributorRole {\r... */\n  mstore(0x40, 0x80)\n    /* \"contracts/SCaccesscontrol/CarParts_DistributorRole.sol\":668:738  constructor() public {\r... */\n  callvalue\n    /* \"--CODEGEN--\":8:17   */\n  dup1\n    /* \"--CODEGEN--\":5:7   */\n  iszero\n  tag_1\n  jumpi\n    /* \"--CODEGEN--\":30:31   */\n  0x0\n    /* \"--CODEGEN--\":27:28   */\n  dup1\n    /* \"--CODEGEN--\":20:32   */\n  revert\n    /* \"--CODEGEN--\":5:7   */\ntag_1:\n    /* \"contracts/SCaccesscontrol/CarParts_DistributorRole.sol\":668:738  constructor() public {\r... */\n  pop\n    /* \"contracts/SCaccesscontrol/CarParts_DistributorRole.sol\":696:732  _addCarParts_Distributor(msg.sender) */\n  tag_4\n    /* \"contracts/SCaccesscontrol/CarParts_DistributorRole.sol\":721:731  msg.sender */\n  caller\n    /* \"contracts/SCaccesscontrol/CarParts_DistributorRole.sol\":696:720  _addCarParts_Distributor */\n  mul(0x100000000, tag_5)\n    /* \"contracts/SCaccesscontrol/CarParts_DistributorRole.sol\":696:732  _addCarParts_Distributor(msg.sender) */\n  0x100000000\n  swap1\n  div\n  jump\t// in\ntag_4:\n    /* \"contracts/SCaccesscontrol/CarParts_DistributorRole.sol\":175:2084  contract CarParts_DistributorRole {\r... */\n  jump(tag_6)\n    /* \"contracts/SCaccesscontrol/CarParts_DistributorRole.sol\":1637:1790  function _addCarParts_Distributor(address account) internal {\r... */\ntag_5:\n    /* \"contracts/SCaccesscontrol/CarParts_DistributorRole.sol\":1704:1738  CarParts_distributors.add(account) */\n  tag_8\n    /* \"contracts/SCaccesscontrol/CarParts_DistributorRole.sol\":1730:1737  account */\n  dup2\n    /* \"contracts/SCaccesscontrol/CarParts_DistributorRole.sol\":1704:1725  CarParts_distributors */\n  0x0\n    /* \"contracts/SCaccesscontrol/CarParts_DistributorRole.sol\":1704:1729  CarParts_distributors.add */\n  or(tag_0_30, mul(0x100000000, tag_9))\n  swap1\n    /* \"contracts/SCaccesscontrol/CarParts_DistributorRole.sol\":1704:1738  CarParts_distributors.add(account) */\n  swap2\n  swap1\n  0x100000000\n  swap1\n  div\n  jump\t// in\ntag_8:\n    /* \"contracts/SCaccesscontrol/CarParts_DistributorRole.sol\":1776:1783  account */\n  dup1\n    /* \"contracts/SCaccesscontrol/CarParts_DistributorRole.sol\":1750:1784  CarParts_DistributorAdded(account) */\n  0xffffffffffffffffffffffffffffffffffffffff\n  and\n  0xf7da286df490d50d713a7db337e873dba3f443fb4d6fd500f71dd90c155eb5c3\n  mload(0x40)\n  mload(0x40)\n  dup1\n  swap2\n  sub\n  swap1\n  log2\n    /* \"contracts/SCaccesscontrol/CarParts_DistributorRole.sol\":1637:1790  function _addCarParts_Distributor(address account) internal {\r... */\n  pop\n  jump\t// out\n    /* \"contracts/SCaccesscontrol/Roles.sol\":259:431  function add(Role storage role, address account) internal {\r... */\ntag_9:\n    /* \"contracts/SCaccesscontrol/Roles.sol\":351:352  0 */\n  0x0\n    /* \"contracts/SCaccesscontrol/Roles.sol\":332:353  account != address(0) */\n  0xffffffffffffffffffffffffffffffffffffffff\n  and\n    /* \"contracts/SCaccesscontrol/Roles.sol\":332:339  account */\n  dup2\n    /* \"contracts/SCaccesscontrol/Roles.sol\":332:353  account != address(0) */\n  0xffffffffffffffffffffffffffffffffffffffff\n  and\n  eq\n  iszero\n    /* \"contracts/SCaccesscontrol/Roles.sol\":324:354  require(account != address(0)) */\n  iszero\n  iszero\n  tag_11\n  jumpi\n  0x0\n  dup1\n  revert\ntag_11:\n    /* \"contracts/SCaccesscontrol/Roles.sol\":370:388  has(role, account) */\n  tag_12\n    /* \"contracts/SCaccesscontrol/Roles.sol\":374:378  role */\n  dup3\n    /* \"contracts/SCaccesscontrol/Roles.sol\":380:387  account */\n  dup3\n    /* \"contracts/SCaccesscontrol/Roles.sol\":370:373  has */\n  mul(0x100000000, tag_13)\n    /* \"contracts/SCaccesscontrol/Roles.sol\":370:388  has(role, account) */\n  0x100000000\n  swap1\n  div\n  jump\t// in\ntag_12:\n    /* \"contracts/SCaccesscontrol/Roles.sol\":369:388  !has(role, account) */\n  iszero\n    /* \"contracts/SCaccesscontrol/Roles.sol\":361:389  require(!has(role, account)) */\n  iszero\n  iszero\n  tag_14\n  jumpi\n  0x0\n  dup1\n  revert\ntag_14:\n    /* \"contracts/SCaccesscontrol/Roles.sol\":421:425  true */\n  0x1\n    /* \"contracts/SCaccesscontrol/Roles.sol\":398:402  role */\n  dup3\n    /* \"contracts/SCaccesscontrol/Roles.sol\":398:409  role.bearer */\n  0x0\n  add\n    /* \"contracts/SCaccesscontrol/Roles.sol\":398:418  role.bearer[account] */\n  0x0\n    /* \"contracts/SCaccesscontrol/Roles.sol\":410:417  account */\n  dup4\n    /* \"contracts/SCaccesscontrol/Roles.sol\":398:418  role.bearer[account] */\n  0xffffffffffffffffffffffffffffffffffffffff\n  and\n  0xffffffffffffffffffffffffffffffffffffffff\n  and\n  dup2\n  mstore\n  0x20\n  add\n  swap1\n  dup2\n  mstore\n  0x20\n  add\n  0x0\n  keccak256\n  0x0\n    /* \"contracts/SCaccesscontrol/Roles.sol\":398:425  role.bearer[account] = true */\n  0x100\n  exp\n  dup2\n  sload\n  dup2\n  0xff\n  mul\n  not\n  and\n  swap1\n  dup4\n  iszero\n  iszero\n  mul\n  or\n  swap1\n  sstore\n  pop\n    /* \"contracts/SCaccesscontrol/Roles.sol\":259:431  function add(Role storage role, address account) internal {\r... */\n  pop\n  pop\n  jump\t// out\n    /* \"contracts/SCaccesscontrol/Roles.sol\":761:934  function has(Role storage role, address account)\r... */\ntag_13:\n    /* \"contracts/SCaccesscontrol/Roles.sol\":848:852  bool */\n  0x0\n    /* \"contracts/SCaccesscontrol/Roles.sol\":891:892  0 */\n  dup1\n    /* \"contracts/SCaccesscontrol/Roles.sol\":872:893  account != address(0) */\n  0xffffffffffffffffffffffffffffffffffffffff\n  and\n    /* \"contracts/SCaccesscontrol/Roles.sol\":872:879  account */\n  dup3\n    /* \"contracts/SCaccesscontrol/Roles.sol\":872:893  account != address(0) */\n  0xffffffffffffffffffffffffffffffffffffffff\n  and\n  eq\n  iszero\n    /* \"contracts/SCaccesscontrol/Roles.sol\":864:894  require(account != address(0)) */\n  iszero\n  iszero\n  tag_16\n  jumpi\n  0x0\n  dup1\n  revert\ntag_16:\n    /* \"contracts/SCaccesscontrol/Roles.sol\":908:912  role */\n  dup3\n    /* \"contracts/SCaccesscontrol/Roles.sol\":908:919  role.bearer */\n  0x0\n  add\n    /* \"contracts/SCaccesscontrol/Roles.sol\":908:928  role.bearer[account] */\n  0x0\n    /* \"contracts/SCaccesscontrol/Roles.sol\":920:927  account */\n  dup4\n    /* \"contracts/SCaccesscontrol/Roles.sol\":908:928  role.bearer[account] */\n  0xffffffffffffffffffffffffffffffffffffffff\n  and\n  0xffffffffffffffffffffffffffffffffffffffff\n  and\n  dup2\n  mstore\n  0x20\n  add\n  swap1\n  dup2\n  mstore\n  0x20\n  add\n  0x0\n  keccak256\n  0x0\n  swap1\n  sload\n  swap1\n  0x100\n  exp\n  swap1\n  div\n  0xff\n  and\n    /* \"contracts/SCaccesscontrol/Roles.sol\":901:928  return role.bearer[account] */\n  swap1\n  pop\n    /* \"contracts/SCaccesscontrol/Roles.sol\":761:934  function has(Role storage role, address account)\r... */\n  swap3\n  swap2\n  pop\n  pop\n  jump\t// out\n    /* \"contracts/SCaccesscontrol/CarParts_DistributorRole.sol\":175:2084  contract CarParts_DistributorRole {\r... */\ntag_6:\n  dataSize(sub_0)\n  dup1\n  dataOffset(sub_0)\n  0x0\n  codecopy\n  0x0\n  return\nstop\n\nsub_0: assembly {\n        /* \"contracts/SCaccesscontrol/CarParts_DistributorRole.sol\":175:2084  contract CarParts_DistributorRole {\r... */\n      mstore(0x40, 0x80)\n      jumpi(tag_1, lt(calldatasize, 0x4))\n      calldataload(0x0)\n      0x100000000000000000000000000000000000000000000000000000000\n      swap1\n      div\n      0xffffffff\n      and\n      dup1\n      0x1210a1d8\n      eq\n      tag_2\n      jumpi\n      dup1\n      0x8925a06e\n      eq\n      tag_3\n      jumpi\n      dup1\n      0xe49a83be\n      eq\n      tag_4\n      jumpi\n    tag_1:\n      0x0\n      dup1\n      revert\n        /* \"contracts/SCaccesscontrol/CarParts_DistributorRole.sol\":1206:1334  function addCarParts_Distributor(address account) public onlyCarParts_Distributor {\r... */\n    tag_2:\n      callvalue\n        /* \"--CODEGEN--\":8:17   */\n      dup1\n        /* \"--CODEGEN--\":5:7   */\n      iszero\n      tag_5\n      jumpi\n        /* \"--CODEGEN--\":30:31   */\n      0x0\n        /* \"--CODEGEN--\":27:28   */\n      dup1\n        /* \"--CODEGEN--\":20:32   */\n      revert\n        /* \"--CODEGEN--\":5:7   */\n    tag_5:\n        /* \"contracts/SCaccesscontrol/CarParts_DistributorRole.sol\":1206:1334  function addCarParts_Distributor(address account) public onlyCarParts_Distributor {\r... */\n      pop\n      tag_6\n      0x4\n      dup1\n      calldatasize\n      sub\n        /* \"--CODEGEN--\":13:15   */\n      0x20\n        /* \"--CODEGEN--\":8:11   */\n      dup2\n        /* \"--CODEGEN--\":5:16   */\n      lt\n        /* \"--CODEGEN--\":2:4   */\n      iszero\n      tag_7\n      jumpi\n        /* \"--CODEGEN--\":29:30   */\n      0x0\n        /* \"--CODEGEN--\":26:27   */\n      dup1\n        /* \"--CODEGEN--\":19:31   */\n      revert\n        /* \"--CODEGEN--\":2:4   */\n    tag_7:\n        /* \"contracts/SCaccesscontrol/CarParts_DistributorRole.sol\":1206:1334  function addCarParts_Distributor(address account) public onlyCarParts_Distributor {\r... */\n      dup2\n      add\n      swap1\n      dup1\n      dup1\n      calldataload\n      0xffffffffffffffffffffffffffffffffffffffff\n      and\n      swap1\n      0x20\n      add\n      swap1\n      swap3\n      swap2\n      swap1\n      pop\n      pop\n      pop\n      jump(tag_8)\n    tag_6:\n      stop\n        /* \"contracts/SCaccesscontrol/CarParts_DistributorRole.sol\":1417:1516  function renounceCarParts_Distributor() public {\r... */\n    tag_3:\n      callvalue\n        /* \"--CODEGEN--\":8:17   */\n      dup1\n        /* \"--CODEGEN--\":5:7   */\n      iszero\n      tag_9\n      jumpi\n        /* \"--CODEGEN--\":30:31   */\n      0x0\n        /* \"--CODEGEN--\":27:28   */\n      dup1\n        /* \"--CODEGEN--\":20:32   */\n      revert\n        /* \"--CODEGEN--\":5:7   */\n    tag_9:\n        /* \"contracts/SCaccesscontrol/CarParts_DistributorRole.sol\":1417:1516  function renounceCarParts_Distributor() public {\r... */\n      pop\n      tag_10\n      jump(tag_11)\n    tag_10:\n      stop\n        /* \"contracts/SCaccesscontrol/CarParts_DistributorRole.sol\":1000:1130  function isCarParts_Distributor(address account) public view returns (bool) {\r... */\n    tag_4:\n      callvalue\n        /* \"--CODEGEN--\":8:17   */\n      dup1\n        /* \"--CODEGEN--\":5:7   */\n      iszero\n      tag_12\n      jumpi\n        /* \"--CODEGEN--\":30:31   */\n      0x0\n        /* \"--CODEGEN--\":27:28   */\n      dup1\n        /* \"--CODEGEN--\":20:32   */\n      revert\n        /* \"--CODEGEN--\":5:7   */\n    tag_12:\n        /* \"contracts/SCaccesscontrol/CarParts_DistributorRole.sol\":1000:1130  function isCarParts_Distributor(address account) public view returns (bool) {\r... */\n      pop\n      tag_13\n      0x4\n      dup1\n      calldatasize\n      sub\n        /* \"--CODEGEN--\":13:15   */\n      0x20\n        /* \"--CODEGEN--\":8:11   */\n      dup2\n        /* \"--CODEGEN--\":5:16   */\n      lt\n        /* \"--CODEGEN--\":2:4   */\n      iszero\n      tag_14\n      jumpi\n        /* \"--CODEGEN--\":29:30   */\n      0x0\n        /* \"--CODEGEN--\":26:27   */\n      dup1\n        /* \"--CODEGEN--\":19:31   */\n      revert\n        /* \"--CODEGEN--\":2:4   */\n    tag_14:\n        /* \"contracts/SCaccesscontrol/CarParts_DistributorRole.sol\":1000:1130  function isCarParts_Distributor(address account) public view returns (bool) {\r... */\n      dup2\n      add\n      swap1\n      dup1\n      dup1\n      calldataload\n      0xffffffffffffffffffffffffffffffffffffffff\n      and\n      swap1\n      0x20\n      add\n      swap1\n      swap3\n      swap2\n      swap1\n      pop\n      pop\n      pop\n      jump(tag_15)\n    tag_13:\n      mload(0x40)\n      dup1\n      dup3\n      iszero\n      iszero\n      iszero\n      iszero\n      dup2\n      mstore\n      0x20\n      add\n      swap2\n      pop\n      pop\n      mload(0x40)\n      dup1\n      swap2\n      sub\n      swap1\n      return\n        /* \"contracts/SCaccesscontrol/CarParts_DistributorRole.sol\":1206:1334  function addCarParts_Distributor(address account) public onlyCarParts_Distributor {\r... */\n    tag_8:\n        /* \"contracts/SCaccesscontrol/CarParts_DistributorRole.sol\":877:911  isCarParts_Distributor(msg.sender) */\n      tag_17\n        /* \"contracts/SCaccesscontrol/CarParts_DistributorRole.sol\":900:910  msg.sender */\n      caller\n        /* \"contracts/SCaccesscontrol/CarParts_DistributorRole.sol\":877:899  isCarParts_Distributor */\n      tag_15\n        /* \"contracts/SCaccesscontrol/CarParts_DistributorRole.sol\":877:911  isCarParts_Distributor(msg.sender) */\n      jump\t// in\n    tag_17:\n        /* \"contracts/SCaccesscontrol/CarParts_DistributorRole.sol\":869:912  require(isCarParts_Distributor(msg.sender)) */\n      iszero\n      iszero\n      tag_18\n      jumpi\n      0x0\n      dup1\n      revert\n    tag_18:\n        /* \"contracts/SCaccesscontrol/CarParts_DistributorRole.sol\":1295:1328  _addCarParts_Distributor(account) */\n      tag_20\n        /* \"contracts/SCaccesscontrol/CarParts_DistributorRole.sol\":1320:1327  account */\n      dup2\n        /* \"contracts/SCaccesscontrol/CarParts_DistributorRole.sol\":1295:1319  _addCarParts_Distributor */\n      tag_21\n        /* \"contracts/SCaccesscontrol/CarParts_DistributorRole.sol\":1295:1328  _addCarParts_Distributor(account) */\n      jump\t// in\n    tag_20:\n        /* \"contracts/SCaccesscontrol/CarParts_DistributorRole.sol\":1206:1334  function addCarParts_Distributor(address account) public onlyCarParts_Distributor {\r... */\n      pop\n      jump\t// out\n        /* \"contracts/SCaccesscontrol/CarParts_DistributorRole.sol\":1417:1516  function renounceCarParts_Distributor() public {\r... */\n    tag_11:\n        /* \"contracts/SCaccesscontrol/CarParts_DistributorRole.sol\":1471:1510  _removeCarParts_Distributor(msg.sender) */\n      tag_23\n        /* \"contracts/SCaccesscontrol/CarParts_DistributorRole.sol\":1499:1509  msg.sender */\n      caller\n        /* \"contracts/SCaccesscontrol/CarParts_DistributorRole.sol\":1471:1498  _removeCarParts_Distributor */\n      tag_24\n        /* \"contracts/SCaccesscontrol/CarParts_DistributorRole.sol\":1471:1510  _removeCarParts_Distributor(msg.sender) */\n      jump\t// in\n    tag_23:\n        /* \"contracts/SCaccesscontrol/CarParts_DistributorRole.sol\":1417:1516  function renounceCarParts_Distributor() public {\r... */\n      jump\t// out\n        /* \"contracts/SCaccesscontrol/CarParts_DistributorRole.sol\":1000:1130  function isCarParts_Distributor(address account) public view returns (bool) {\r... */\n    tag_15:\n        /* \"contracts/SCaccesscontrol/CarParts_DistributorRole.sol\":1070:1074  bool */\n      0x0\n        /* \"contracts/SCaccesscontrol/CarParts_DistributorRole.sol\":1090:1124  CarParts_distributors.has(account) */\n      tag_26\n        /* \"contracts/SCaccesscontrol/CarParts_DistributorRole.sol\":1116:1123  account */\n      dup3\n        /* \"contracts/SCaccesscontrol/CarParts_DistributorRole.sol\":1090:1111  CarParts_distributors */\n      0x0\n        /* \"contracts/SCaccesscontrol/CarParts_DistributorRole.sol\":1090:1115  CarParts_distributors.has */\n      tag_27\n      swap1\n        /* \"contracts/SCaccesscontrol/CarParts_DistributorRole.sol\":1090:1124  CarParts_distributors.has(account) */\n      swap2\n      swap1\n      0xffffffff\n      and\n      jump\t// in\n    tag_26:\n        /* \"contracts/SCaccesscontrol/CarParts_DistributorRole.sol\":1083:1124  return CarParts_distributors.has(account) */\n      swap1\n      pop\n        /* \"contracts/SCaccesscontrol/CarParts_DistributorRole.sol\":1000:1130  function isCarParts_Distributor(address account) public view returns (bool) {\r... */\n      swap2\n      swap1\n      pop\n      jump\t// out\n        /* \"contracts/SCaccesscontrol/CarParts_DistributorRole.sol\":1637:1790  function _addCarParts_Distributor(address account) internal {\r... */\n    tag_21:\n        /* \"contracts/SCaccesscontrol/CarParts_DistributorRole.sol\":1704:1738  CarParts_distributors.add(account) */\n      tag_29\n        /* \"contracts/SCaccesscontrol/CarParts_DistributorRole.sol\":1730:1737  account */\n      dup2\n        /* \"contracts/SCaccesscontrol/CarParts_DistributorRole.sol\":1704:1725  CarParts_distributors */\n      0x0\n        /* \"contracts/SCaccesscontrol/CarParts_DistributorRole.sol\":1704:1729  CarParts_distributors.add */\n      tag_30\n      swap1\n        /* \"contracts/SCaccesscontrol/CarParts_DistributorRole.sol\":1704:1738  CarParts_distributors.add(account) */\n      swap2\n      swap1\n      0xffffffff\n      and\n      jump\t// in\n    tag_29:\n        /* \"contracts/SCaccesscontrol/CarParts_DistributorRole.sol\":1776:1783  account */\n      dup1\n        /* \"contracts/SCaccesscontrol/CarParts_DistributorRole.sol\":1750:1784  CarParts_DistributorAdded(account) */\n      0xffffffffffffffffffffffffffffffffffffffff\n      and\n      0xf7da286df490d50d713a7db337e873dba3f443fb4d6fd500f71dd90c155eb5c3\n      mload(0x40)\n      mload(0x40)\n      dup1\n      swap2\n      sub\n      swap1\n      log2\n        /* \"contracts/SCaccesscontrol/CarParts_DistributorRole.sol\":1637:1790  function _addCarParts_Distributor(address account) internal {\r... */\n      pop\n      jump\t// out\n        /* \"contracts/SCaccesscontrol/CarParts_DistributorRole.sol\":1920:2081  function _removeCarParts_Distributor(address account) internal {\r... */\n    tag_24:\n        /* \"contracts/SCaccesscontrol/CarParts_DistributorRole.sol\":1990:2027  CarParts_distributors.remove(account) */\n      tag_32\n        /* \"contracts/SCaccesscontrol/CarParts_DistributorRole.sol\":2019:2026  account */\n      dup2\n        /* \"contracts/SCaccesscontrol/CarParts_DistributorRole.sol\":1990:2011  CarParts_distributors */\n      0x0\n        /* \"contracts/SCaccesscontrol/CarParts_DistributorRole.sol\":1990:2018  CarParts_distributors.remove */\n      tag_33\n      swap1\n        /* \"contracts/SCaccesscontrol/CarParts_DistributorRole.sol\":1990:2027  CarParts_distributors.remove(account) */\n      swap2\n      swap1\n      0xffffffff\n      and\n      jump\t// in\n    tag_32:\n        /* \"contracts/SCaccesscontrol/CarParts_DistributorRole.sol\":2067:2074  account */\n      dup1\n        /* \"contracts/SCaccesscontrol/CarParts_DistributorRole.sol\":2039:2075  CarParts_DistributorRemoved(account) */\n      0xffffffffffffffffffffffffffffffffffffffff\n      and\n      0x3e3f7c027517f367a53ebcefd15973458bf78d9b6d5b0978f4a4d3d3f646cf96\n      mload(0x40)\n      mload(0x40)\n      dup1\n      swap2\n      sub\n      swap1\n      log2\n        /* \"contracts/SCaccesscontrol/CarParts_DistributorRole.sol\":1920:2081  function _removeCarParts_Distributor(address account) internal {\r... */\n      pop\n      jump\t// out\n        /* \"contracts/SCaccesscontrol/Roles.sol\":761:934  function has(Role storage role, address account)\r... */\n    tag_27:\n        /* \"contracts/SCaccesscontrol/Roles.sol\":848:852  bool */\n      0x0\n        /* \"contracts/SCaccesscontrol/Roles.sol\":891:892  0 */\n      dup1\n        /* \"contracts/SCaccesscontrol/Roles.sol\":872:893  account != address(0) */\n      0xffffffffffffffffffffffffffffffffffffffff\n      and\n        /* \"contracts/SCaccesscontrol/Roles.sol\":872:879  account */\n      dup3\n        /* \"contracts/SCaccesscontrol/Roles.sol\":872:893  account != address(0) */\n      0xffffffffffffffffffffffffffffffffffffffff\n      and\n      eq\n      iszero\n        /* \"contracts/SCaccesscontrol/Roles.sol\":864:894  require(account != address(0)) */\n      iszero\n      iszero\n      tag_35\n      jumpi\n      0x0\n      dup1\n      revert\n    tag_35:\n        /* \"contracts/SCaccesscontrol/Roles.sol\":908:912  role */\n      dup3\n        /* \"contracts/SCaccesscontrol/Roles.sol\":908:919  role.bearer */\n      0x0\n      add\n        /* \"contracts/SCaccesscontrol/Roles.sol\":908:928  role.bearer[account] */\n      0x0\n        /* \"contracts/SCaccesscontrol/Roles.sol\":920:927  account */\n      dup4\n        /* \"contracts/SCaccesscontrol/Roles.sol\":908:928  role.bearer[account] */\n      0xffffffffffffffffffffffffffffffffffffffff\n      and\n      0xffffffffffffffffffffffffffffffffffffffff\n      and\n      dup2\n      mstore\n      0x20\n      add\n      swap1\n      dup2\n      mstore\n      0x20\n      add\n      0x0\n      keccak256\n      0x0\n      swap1\n      sload\n      swap1\n      0x100\n      exp\n      swap1\n      div\n      0xff\n      and\n        /* \"contracts/SCaccesscontrol/Roles.sol\":901:928  return role.bearer[account] */\n      swap1\n      pop\n        /* \"contracts/SCaccesscontrol/Roles.sol\":761:934  function has(Role storage role, address account)\r... */\n      swap3\n      swap2\n      pop\n      pop\n      jump\t// out\n        /* \"contracts/SCaccesscontrol/Roles.sol\":259:431  function add(Role storage role, address account) internal {\r... */\n    tag_30:\n        /* \"contracts/SCaccesscontrol/Roles.sol\":351:352  0 */\n      0x0\n        /* \"contracts/SCaccesscontrol/Roles.sol\":332:353  account != address(0) */\n      0xffffffffffffffffffffffffffffffffffffffff\n      and\n        /* \"contracts/SCaccesscontrol/Roles.sol\":332:339  account */\n      dup2\n        /* \"contracts/SCaccesscontrol/Roles.sol\":332:353  account != address(0) */\n      0xffffffffffffffffffffffffffffffffffffffff\n      and\n      eq\n      iszero\n        /* \"contracts/SCaccesscontrol/Roles.sol\":324:354  require(account != address(0)) */\n      iszero\n      iszero\n      tag_37\n      jumpi\n      0x0\n      dup1\n      revert\n    tag_37:\n        /* \"contracts/SCaccesscontrol/Roles.sol\":370:388  has(role, account) */\n      tag_38\n        /* \"contracts/SCaccesscontrol/Roles.sol\":374:378  role */\n      dup3\n        /* \"contracts/SCaccesscontrol/Roles.sol\":380:387  account */\n      dup3\n        /* \"contracts/SCaccesscontrol/Roles.sol\":370:373  has */\n      tag_27\n        /* \"contracts/SCaccesscontrol/Roles.sol\":370:388  has(role, account) */\n      jump\t// in\n    tag_38:\n        /* \"contracts/SCaccesscontrol/Roles.sol\":369:388  !has(role, account) */\n      iszero\n        /* \"contracts/SCaccesscontrol/Roles.sol\":361:389  require(!has(role, account)) */\n      iszero\n      iszero\n      tag_39\n      jumpi\n      0x0\n      dup1\n      revert\n    tag_39:\n        /* \"contracts/SCaccesscontrol/Roles.sol\":421:425  true */\n      0x1\n        /* \"contracts/SCaccesscontrol/Roles.sol\":398:402  role */\n      dup3\n        /* \"contracts/SCaccesscontrol/Roles.sol\":398:409  role.bearer */\n      0x0\n      add\n        /* \"contracts/SCaccesscontrol/Roles.sol\":398:418  role.bearer[account] */\n      0x0\n        /* \"contracts/SCaccesscontrol/Roles.sol\":410:417  account */\n      dup4\n        /* \"contracts/SCaccesscontrol/Roles.sol\":398:418  role.bearer[account] */\n      0xffffffffffffffffffffffffffffffffffffffff\n      and\n      0xffffffffffffffffffffffffffffffffffffffff\n      and\n      dup2\n      mstore\n      0x20\n      add\n      swap1\n      dup2\n      mstore\n      0x20\n      add\n      0x0\n      keccak256\n      0x0\n        /* \"contracts/SCaccesscontrol/Roles.sol\":398:425  role.bearer[account] = true */\n      0x100\n      exp\n      dup2\n      sload\n      dup2\n      0xff\n      mul\n      not\n      and\n      swap1\n      dup4\n      iszero\n      iszero\n      mul\n      or\n      swap1\n      sstore\n      pop\n        /* \"contracts/SCaccesscontrol/Roles.sol\":259:431  function add(Role storage role, address account) internal {\r... */\n      pop\n      pop\n      jump\t// out\n        /* \"contracts/SCaccesscontrol/Roles.sol\":502:677  function remove(Role storage role, address account) internal {\r... */\n    tag_33:\n        /* \"contracts/SCaccesscontrol/Roles.sol\":597:598  0 */\n      0x0\n        /* \"contracts/SCaccesscontrol/Roles.sol\":578:599  account != address(0) */\n      0xffffffffffffffffffffffffffffffffffffffff\n      and\n        /* \"contracts/SCaccesscontrol/Roles.sol\":578:585  account */\n      dup2\n        /* \"contracts/SCaccesscontrol/Roles.sol\":578:599  account != address(0) */\n      0xffffffffffffffffffffffffffffffffffffffff\n      and\n      eq\n      iszero\n        /* \"contracts/SCaccesscontrol/Roles.sol\":570:600  require(account != address(0)) */\n      iszero\n      iszero\n      tag_41\n      jumpi\n      0x0\n      dup1\n      revert\n    tag_41:\n        /* \"contracts/SCaccesscontrol/Roles.sol\":615:633  has(role, account) */\n      tag_42\n        /* \"contracts/SCaccesscontrol/Roles.sol\":619:623  role */\n      dup3\n        /* \"contracts/SCaccesscontrol/Roles.sol\":625:632  account */\n      dup3\n        /* \"contracts/SCaccesscontrol/Roles.sol\":615:618  has */\n      tag_27\n        /* \"contracts/SCaccesscontrol/Roles.sol\":615:633  has(role, account) */\n      jump\t// in\n    tag_42:\n        /* \"contracts/SCaccesscontrol/Roles.sol\":607:634  require(has(role, account)) */\n      iszero\n      iszero\n      tag_43\n      jumpi\n      0x0\n      dup1\n      revert\n    tag_43:\n        /* \"contracts/SCaccesscontrol/Roles.sol\":666:671  false */\n      0x0\n        /* \"contracts/SCaccesscontrol/Roles.sol\":643:647  role */\n      dup3\n        /* \"contracts/SCaccesscontrol/Roles.sol\":643:654  role.bearer */\n      0x0\n      add\n        /* \"contracts/SCaccesscontrol/Roles.sol\":643:663  role.bearer[account] */\n      0x0\n        /* \"contracts/SCaccesscontrol/Roles.sol\":655:662  account */\n      dup4\n        /* \"contracts/SCaccesscontrol/Roles.sol\":643:663  role.bearer[account] */\n      0xffffffffffffffffffffffffffffffffffffffff\n      and\n      0xffffffffffffffffffffffffffffffffffffffff\n      and\n      dup2\n      mstore\n      0x20\n      add\n      swap1\n      dup2\n      mstore\n      0x20\n      add\n      0x0\n      keccak256\n      0x0\n        /* \"contracts/SCaccesscontrol/Roles.sol\":643:671  role.bearer[account] = false */\n      0x100\n      exp\n      dup2\n      sload\n      dup2\n      0xff\n      mul\n      not\n      and\n      swap1\n      dup4\n      iszero\n      iszero\n      mul\n      or\n      swap1\n      sstore\n      pop\n        /* \"contracts/SCaccesscontrol/Roles.sol\":502:677  function remove(Role storage role, address account) internal {\r... */\n      pop\n      pop\n      jump\t// out\n\n    auxdata: 0xa165627a7a7230582058b4bb9c32df860403cb1100a57155492271f176e4816eb1ad2cd31ec2ced9b20029\n}\n",
				"bytecode": {
					"linkReferences": {},
					"object": "608060405234801561001057600080fd5b506100293361002e640100000000026401000000009004565b6101e8565b61004f816000610095640100000000026102bd179091906401000000009004565b8073ffffffffffffffffffffffffffffffffffffffff167ff7da286df490d50d713a7db337e873dba3f443fb4d6fd500f71dd90c155eb5c360405160405180910390a250565b600073ffffffffffffffffffffffffffffffffffffffff168173ffffffffffffffffffffffffffffffffffffffff16141515156100d157600080fd5b6100ea8282610154640100000000026401000000009004565b1515156100f657600080fd5b60018260000160008373ffffffffffffffffffffffffffffffffffffffff1673ffffffffffffffffffffffffffffffffffffffff16815260200190815260200160002060006101000a81548160ff0219169083151502179055505050565b60008073ffffffffffffffffffffffffffffffffffffffff168273ffffffffffffffffffffffffffffffffffffffff161415151561019157600080fd5b8260000160008373ffffffffffffffffffffffffffffffffffffffff1673ffffffffffffffffffffffffffffffffffffffff16815260200190815260200160002060009054906101000a900460ff16905092915050565b610448806101f76000396000f3fe608060405260043610610057576000357c0100000000000000000000000000000000000000000000000000000000900463ffffffff1680631210a1d81461005c5780638925a06e146100ad578063e49a83be146100c4575b600080fd5b34801561006857600080fd5b506100ab6004803603602081101561007f57600080fd5b81019080803573ffffffffffffffffffffffffffffffffffffffff16906020019092919050505061012d565b005b3480156100b957600080fd5b506100c261014d565b005b3480156100d057600080fd5b50610113600480360360208110156100e757600080fd5b81019080803573ffffffffffffffffffffffffffffffffffffffff169060200190929190505050610158565b604051808215151515815260200191505060405180910390f35b61013633610158565b151561014157600080fd5b61014a81610175565b50565b610156336101cf565b565b600061016e82600061022990919063ffffffff16565b9050919050565b6101898160006102bd90919063ffffffff16565b8073ffffffffffffffffffffffffffffffffffffffff167ff7da286df490d50d713a7db337e873dba3f443fb4d6fd500f71dd90c155eb5c360405160405180910390a250565b6101e381600061036d90919063ffffffff16565b8073ffffffffffffffffffffffffffffffffffffffff167f3e3f7c027517f367a53ebcefd15973458bf78d9b6d5b0978f4a4d3d3f646cf9660405160405180910390a250565b60008073ffffffffffffffffffffffffffffffffffffffff168273ffffffffffffffffffffffffffffffffffffffff161415151561026657600080fd5b8260000160008373ffffffffffffffffffffffffffffffffffffffff1673ffffffffffffffffffffffffffffffffffffffff16815260200190815260200160002060009054906101000a900460ff16905092915050565b600073ffffffffffffffffffffffffffffffffffffffff168173ffffffffffffffffffffffffffffffffffffffff16141515156102f957600080fd5b6103038282610229565b15151561030f57600080fd5b60018260000160008373ffffffffffffffffffffffffffffffffffffffff1673ffffffffffffffffffffffffffffffffffffffff16815260200190815260200160002060006101000a81548160ff0219169083151502179055505050565b600073ffffffffffffffffffffffffffffffffffffffff168173ffffffffffffffffffffffffffffffffffffffff16141515156103a957600080fd5b6103b38282610229565b15156103be57600080fd5b60008260000160008373ffffffffffffffffffffffffffffffffffffffff1673ffffffffffffffffffffffffffffffffffffffff16815260200190815260200160002060006101000a81548160ff021916908315150217905550505056fea165627a7a7230582058b4bb9c32df860403cb1100a57155492271f176e4816eb1ad2cd31ec2ced9b20029",
					"opcodes": "PUSH1 0x80 PUSH1 0x40 MSTORE CALLVALUE DUP1 ISZERO PUSH2 0x10 JUMPI PUSH1 0x0 DUP1 REVERT JUMPDEST POP PUSH2 0x29 CALLER PUSH2 0x2E PUSH5 0x100000000 MUL PUSH5 0x100000000 SWAP1 DIV JUMP JUMPDEST PUSH2 0x1E8 JUMP JUMPDEST PUSH2 0x4F DUP2 PUSH1 0x0 PUSH2 0x95 PUSH5 0x100000000 MUL PUSH2 0x2BD OR SWAP1 SWAP2 SWAP1 PUSH5 0x100000000 SWAP1 DIV JUMP JUMPDEST DUP1 PUSH20 0xFFFFFFFFFFFFFFFFFFFFFFFFFFFFFFFFFFFFFFFF AND PUSH32 0xF7DA286DF490D50D713A7DB337E873DBA3F443FB4D6FD500F71DD90C155EB5C3 PUSH1 0x40 MLOAD PUSH1 0x40 MLOAD DUP1 SWAP2 SUB SWAP1 LOG2 POP JUMP JUMPDEST PUSH1 0x0 PUSH20 0xFFFFFFFFFFFFFFFFFFFFFFFFFFFFFFFFFFFFFFFF AND DUP2 PUSH20 0xFFFFFFFFFFFFFFFFFFFFFFFFFFFFFFFFFFFFFFFF AND EQ ISZERO ISZERO ISZERO PUSH2 0xD1 JUMPI PUSH1 0x0 DUP1 REVERT JUMPDEST PUSH2 0xEA DUP3 DUP3 PUSH2 0x154 PUSH5 0x100000000 MUL PUSH5 0x100000000 SWAP1 DIV JUMP JUMPDEST ISZERO ISZERO ISZERO PUSH2 0xF6 JUMPI PUSH1 0x0 DUP1 REVERT JUMPDEST PUSH1 0x1 DUP3 PUSH1 0x0 ADD PUSH1 0x0 DUP4 PUSH20 0xFFFFFFFFFFFFFFFFFFFFFFFFFFFFFFFFFFFFFFFF AND PUSH20 0xFFFFFFFFFFFFFFFFFFFFFFFFFFFFFFFFFFFFFFFF AND DUP2 MSTORE PUSH1 0x20 ADD SWAP1 DUP2 MSTORE PUSH1 0x20 ADD PUSH1 0x0 KECCAK256 PUSH1 0x0 PUSH2 0x100 EXP DUP2 SLOAD DUP2 PUSH1 0xFF MUL NOT AND SWAP1 DUP4 ISZERO ISZERO MUL OR SWAP1 SSTORE POP POP POP JUMP JUMPDEST PUSH1 0x0 DUP1 PUSH20 0xFFFFFFFFFFFFFFFFFFFFFFFFFFFFFFFFFFFFFFFF AND DUP3 PUSH20 0xFFFFFFFFFFFFFFFFFFFFFFFFFFFFFFFFFFFFFFFF AND EQ ISZERO ISZERO ISZERO PUSH2 0x191 JUMPI PUSH1 0x0 DUP1 REVERT JUMPDEST DUP3 PUSH1 0x0 ADD PUSH1 0x0 DUP4 PUSH20 0xFFFFFFFFFFFFFFFFFFFFFFFFFFFFFFFFFFFFFFFF AND PUSH20 0xFFFFFFFFFFFFFFFFFFFFFFFFFFFFFFFFFFFFFFFF AND DUP2 MSTORE PUSH1 0x20 ADD SWAP1 DUP2 MSTORE PUSH1 0x20 ADD PUSH1 0x0 KECCAK256 PUSH1 0x0 SWAP1 SLOAD SWAP1 PUSH2 0x100 EXP SWAP1 DIV PUSH1 0xFF AND SWAP1 POP SWAP3 SWAP2 POP POP JUMP JUMPDEST PUSH2 0x448 DUP1 PUSH2 0x1F7 PUSH1 0x0 CODECOPY PUSH1 0x0 RETURN INVALID PUSH1 0x80 PUSH1 0x40 MSTORE PUSH1 0x4 CALLDATASIZE LT PUSH2 0x57 JUMPI PUSH1 0x0 CALLDATALOAD PUSH29 0x100000000000000000000000000000000000000000000000000000000 SWAP1 DIV PUSH4 0xFFFFFFFF AND DUP1 PUSH4 0x1210A1D8 EQ PUSH2 0x5C JUMPI DUP1 PUSH4 0x8925A06E EQ PUSH2 0xAD JUMPI DUP1 PUSH4 0xE49A83BE EQ PUSH2 0xC4 JUMPI JUMPDEST PUSH1 0x0 DUP1 REVERT JUMPDEST CALLVALUE DUP1 ISZERO PUSH2 0x68 JUMPI PUSH1 0x0 DUP1 REVERT JUMPDEST POP PUSH2 0xAB PUSH1 0x4 DUP1 CALLDATASIZE SUB PUSH1 0x20 DUP2 LT ISZERO PUSH2 0x7F JUMPI PUSH1 0x0 DUP1 REVERT JUMPDEST DUP2 ADD SWAP1 DUP1 DUP1 CALLDATALOAD PUSH20 0xFFFFFFFFFFFFFFFFFFFFFFFFFFFFFFFFFFFFFFFF AND SWAP1 PUSH1 0x20 ADD SWAP1 SWAP3 SWAP2 SWAP1 POP POP POP PUSH2 0x12D JUMP JUMPDEST STOP JUMPDEST CALLVALUE DUP1 ISZERO PUSH2 0xB9 JUMPI PUSH1 0x0 DUP1 REVERT JUMPDEST POP PUSH2 0xC2 PUSH2 0x14D JUMP JUMPDEST STOP JUMPDEST CALLVALUE DUP1 ISZERO PUSH2 0xD0 JUMPI PUSH1 0x0 DUP1 REVERT JUMPDEST POP PUSH2 0x113 PUSH1 0x4 DUP1 CALLDATASIZE SUB PUSH1 0x20 DUP2 LT ISZERO PUSH2 0xE7 JUMPI PUSH1 0x0 DUP1 REVERT JUMPDEST DUP2 ADD SWAP1 DUP1 DUP1 CALLDATALOAD PUSH20 0xFFFFFFFFFFFFFFFFFFFFFFFFFFFFFFFFFFFFFFFF AND SWAP1 PUSH1 0x20 ADD SWAP1 SWAP3 SWAP2 SWAP1 POP POP POP PUSH2 0x158 JUMP JUMPDEST PUSH1 0x40 MLOAD DUP1 DUP3 ISZERO ISZERO ISZERO ISZERO DUP2 MSTORE PUSH1 0x20 ADD SWAP2 POP POP PUSH1 0x40 MLOAD DUP1 SWAP2 SUB SWAP1 RETURN JUMPDEST PUSH2 0x136 CALLER PUSH2 0x158 JUMP JUMPDEST ISZERO ISZERO PUSH2 0x141 JUMPI PUSH1 0x0 DUP1 REVERT JUMPDEST PUSH2 0x14A DUP2 PUSH2 0x175 JUMP JUMPDEST POP JUMP JUMPDEST PUSH2 0x156 CALLER PUSH2 0x1CF JUMP JUMPDEST JUMP JUMPDEST PUSH1 0x0 PUSH2 0x16E DUP3 PUSH1 0x0 PUSH2 0x229 SWAP1 SWAP2 SWAP1 PUSH4 0xFFFFFFFF AND JUMP JUMPDEST SWAP1 POP SWAP2 SWAP1 POP JUMP JUMPDEST PUSH2 0x189 DUP2 PUSH1 0x0 PUSH2 0x2BD SWAP1 SWAP2 SWAP1 PUSH4 0xFFFFFFFF AND JUMP JUMPDEST DUP1 PUSH20 0xFFFFFFFFFFFFFFFFFFFFFFFFFFFFFFFFFFFFFFFF AND PUSH32 0xF7DA286DF490D50D713A7DB337E873DBA3F443FB4D6FD500F71DD90C155EB5C3 PUSH1 0x40 MLOAD PUSH1 0x40 MLOAD DUP1 SWAP2 SUB SWAP1 LOG2 POP JUMP JUMPDEST PUSH2 0x1E3 DUP2 PUSH1 0x0 PUSH2 0x36D SWAP1 SWAP2 SWAP1 PUSH4 0xFFFFFFFF AND JUMP JUMPDEST DUP1 PUSH20 0xFFFFFFFFFFFFFFFFFFFFFFFFFFFFFFFFFFFFFFFF AND PUSH32 0x3E3F7C027517F367A53EBCEFD15973458BF78D9B6D5B0978F4A4D3D3F646CF96 PUSH1 0x40 MLOAD PUSH1 0x40 MLOAD DUP1 SWAP2 SUB SWAP1 LOG2 POP JUMP JUMPDEST PUSH1 0x0 DUP1 PUSH20 0xFFFFFFFFFFFFFFFFFFFFFFFFFFFFFFFFFFFFFFFF AND DUP3 PUSH20 0xFFFFFFFFFFFFFFFFFFFFFFFFFFFFFFFFFFFFFFFF AND EQ ISZERO ISZERO ISZERO PUSH2 0x266 JUMPI PUSH1 0x0 DUP1 REVERT JUMPDEST DUP3 PUSH1 0x0 ADD PUSH1 0x0 DUP4 PUSH20 0xFFFFFFFFFFFFFFFFFFFFFFFFFFFFFFFFFFFFFFFF AND PUSH20 0xFFFFFFFFFFFFFFFFFFFFFFFFFFFFFFFFFFFFFFFF AND DUP2 MSTORE PUSH1 0x20 ADD SWAP1 DUP2 MSTORE PUSH1 0x20 ADD PUSH1 0x0 KECCAK256 PUSH1 0x0 SWAP1 SLOAD SWAP1 PUSH2 0x100 EXP SWAP1 DIV PUSH1 0xFF AND SWAP1 POP SWAP3 SWAP2 POP POP JUMP JUMPDEST PUSH1 0x0 PUSH20 0xFFFFFFFFFFFFFFFFFFFFFFFFFFFFFFFFFFFFFFFF AND DUP2 PUSH20 0xFFFFFFFFFFFFFFFFFFFFFFFFFFFFFFFFFFFFFFFF AND EQ ISZERO ISZERO ISZERO PUSH2 0x2F9 JUMPI PUSH1 0x0 DUP1 REVERT JUMPDEST PUSH2 0x303 DUP3 DUP3 PUSH2 0x229 JUMP JUMPDEST ISZERO ISZERO ISZERO PUSH2 0x30F JUMPI PUSH1 0x0 DUP1 REVERT JUMPDEST PUSH1 0x1 DUP3 PUSH1 0x0 ADD PUSH1 0x0 DUP4 PUSH20 0xFFFFFFFFFFFFFFFFFFFFFFFFFFFFFFFFFFFFFFFF AND PUSH20 0xFFFFFFFFFFFFFFFFFFFFFFFFFFFFFFFFFFFFFFFF AND DUP2 MSTORE PUSH1 0x20 ADD SWAP1 DUP2 MSTORE PUSH1 0x20 ADD PUSH1 0x0 KECCAK256 PUSH1 0x0 PUSH2 0x100 EXP DUP2 SLOAD DUP2 PUSH1 0xFF MUL NOT AND SWAP1 DUP4 ISZERO ISZERO MUL OR SWAP1 SSTORE POP POP POP JUMP JUMPDEST PUSH1 0x0 PUSH20 0xFFFFFFFFFFFFFFFFFFFFFFFFFFFFFFFFFFFFFFFF AND DUP2 PUSH20 0xFFFFFFFFFFFFFFFFFFFFFFFFFFFFFFFFFFFFFFFF AND EQ ISZERO ISZERO ISZERO PUSH2 0x3A9 JUMPI PUSH1 0x0 DUP1 REVERT JUMPDEST PUSH2 0x3B3 DUP3 DUP3 PUSH2 0x229 JUMP JUMPDEST ISZERO ISZERO PUSH2 0x3BE JUMPI PUSH1 0x0 DUP1 REVERT JUMPDEST PUSH1 0x0 DUP3 PUSH1 0x0 ADD PUSH1 0x0 DUP4 PUSH20 0xFFFFFFFFFFFFFFFFFFFFFFFFFFFFFFFFFFFFFFFF AND PUSH20 0xFFFFFFFFFFFFFFFFFFFFFFFFFFFFFFFFFFFFFFFF AND DUP2 MSTORE PUSH1 0x20 ADD SWAP1 DUP2 MSTORE PUSH1 0x20 ADD PUSH1 0x0 KECCAK256 PUSH1 0x0 PUSH2 0x100 EXP DUP2 SLOAD DUP2 PUSH1 0xFF MUL NOT AND SWAP1 DUP4 ISZERO ISZERO MUL OR SWAP1 SSTORE POP POP POP JUMP INVALID LOG1 PUSH6 0x627A7A723058 KECCAK256 PC 0xb4 0xbb SWAP13 ORIGIN 0xdf DUP7 DIV SUB 0xcb GT STOP 0xa5 PUSH18 0x55492271F176E4816EB1AD2CD31EC2CED9B2 STOP 0x29 "
				},
				"gasEstimates": {
					"creation": {
						"codeDepositCost": "219200",
						"executionCost": "infinite",
						"totalCost": "infinite"
					},
					"external": {
						"addCarParts_Distributor(address)": "infinite",
						"isCarParts_Distributor(address)": "infinite",
						"renounceCarParts_Distributor()": "infinite"
					},
					"internal": {
						"_addCarParts_Distributor(address)": "infinite",
						"_removeCarParts_Distributor(address)": "infinite"
					}
				},
				"methodIdentifiers": {
					"addCarParts_Distributor(address)": "1210a1d8",
					"isCarParts_Distributor(address)": "e49a83be",
					"renounceCarParts_Distributor()": "8925a06e"
				}
			},
			"userdoc": {
				"methods": {}
			}
		}
	}
}